:020000040800F2
:100000000000052069210008792000087B200008F5
:100010007D2000087F2000088120000800000000EB
:1000200000000000000000000000000071B60008A1
:10003000832000080000000011B7000875B7000811
:10004000B9210008B9210008B9210008B921000828
:10005000B9210008B9210008B9210008B921000818
:10006000B9210008B9210008B9210008B921000808
:10007000B9210008B9210008B9210008B9210008F8
:10008000B9210008B9210008B9210008B9210008E8
:1000900085200008B9210008B9210008B92100080D
:1000A000B9210008B9210008B9210008B9210008C8
:1000B000B9210008B9210008B9210008B9210008B8
:1000C000B9210008B9210008B9210008B9210008A8
:1000D000B9210008B9210008B9210008B921000898
:1000E000B9210008B9210008B9210008B921000888
:1000F000B9210008B9210008B9210008B921000878
:10010000B9210008B9210008B9210008B921000867
:10011000B9210008B921000891200008B921000880
:10012000B9210008B9210008B9210008B921000847
:10013000B9210008B9210008B9210008B921000837
:10014000B9210008B9210008B9210008B921000827
:10015000B9210008B9210008B9210008B921000817
:10016000B9210008B9210008B9210008B921000807
:10017000B9210008B9210008B921000800000000D9
:10018000B9210008B9210008B9210008B9210008E7
:10019000B9210008B9210008B9210008B9210008D7
:1001A0009D200008B9210008A9200008B9210008F5
:1001B000B9210008B9210008B9210008B9210008B7
:0801C000B9210008B921000873
:1001D00010B5054C237833B9044B13B10448AFF381
:1001E00000800123237010BD4003002000000000A8
:1001F0001C77030808B5034B1BB103490348AFF351
:10020000008008BD00000000440300201C770308A4
:1002100001F0FF01102A2BDB10F0070F08D010F8B7
:10022000013B013A8B422DD010F0070F42B3F6D1BB
:10023000F0B441EA012141EA014122F007047FF0D4
:1002400000070023F0E80256083C85EA010586EA2B
:10025000010685FA47F5A3FA87F586FA47F6A5FA67
:1002600087F68EB9EED1F0BC01F0FF0102F0070273
:1002700032B110F8013B013A83EA010313B1F8D11E
:100280000020704701387047002D06BF35460338FF
:10029000073815F0010F07D1013015F4807F02BF38
:1002A000013015F4C03F0130F0BC0138704700BF89
:1002B00081F0004102E000BF83F0004330B54FEA17
:1002C00041044FEA430594EA050F08BF90EA020F84
:1002D0001FBF54EA000C55EA020C7FEA645C7FEA17
:1002E000655C00F0E2804FEA5454D4EB5555B8BF3A
:1002F0006D420CDD2C4480EA020281EA030382EAAB
:10030000000083EA010180EA020281EA0303362D3C
:1003100088BF30BD11F0004F4FEA01314FF4801C0F
:100320004CEA113102D0404261EB410113F0004F21
:100330004FEA03334CEA133302D0524263EB4303D8
:1003400094EA050F00F0A780A4F10104D5F1200E76
:100350000DDB02FA0EFC22FA05F2801841F10001D1
:1003600003FA0EF2801843FA05F359410EE0A5F1A5
:1003700020050EF1200E012A03FA0EFC28BF4CF0D6
:10038000020C43FA05F3C01851EBE37101F000458C
:1003900007D54FF0000EDCF1000C7EEB00006EEB99
:1003A0000101B1F5801F1BD3B1F5001F0CD3490823
:1003B0005FEA30004FEA3C0C04F101044FEA44527A
:1003C00012F5800F80F09A80BCF1004F08BF5FEA01
:1003D000500C50F1000041EB045141EA050130BDE1
:1003E0005FEA4C0C404141EB0101013C28BFB1F5F3
:1003F000801FE9D291F0000F04BF01460020B1FA3E
:1004000081F308BF2033A3F10B03B3F120020CDA10
:100410000C3208DD02F1140CC2F10C0201FA0CF0EE
:1004200021FA02F10CE002F11402D8BFC2F1200C53
:1004300001FA02F120FA0CFCDCBF41EA0C01904009
:10044000E41AA2BF01EB0451294330BD6FEA040452
:100450001F3C1CDA0C340EDC04F11404C4F120023D
:1004600020FA04F001FA02F340EA030021FA04F34F
:1004700045EA030130BDC4F10C04C4F1200220FAA6
:1004800002F001FA04F340EA0300294630BD21FAE4
:1004900004F0294630BD94F0000F83F4801306BFAA
:1004A00081F480110134013D4EE77FEA645C18BF9E
:1004B0007FEA655C29D094EA050F08BF90EA020F35
:1004C00005D054EA000C04BF1946104630BD91EA2D
:1004D000030F1EBF0021002030BD5FEA545C05D130
:1004E0004000494128BF41F0004130BD14F580046F
:1004F0003CBF01F5801130BD01F0004545F0FE41E3
:1005000041F470014FF0000030BD7FEA645C1ABF17
:10051000194610467FEA655C1CBF0B46024650EA4E
:10052000013406BF52EA033591EA030F41F400217A
:1005300030BD00BF90F0000F04BF0021704730B500
:100540004FF4806404F132044FF000054FF00001D5
:1005500050E700BF90F0000F04BF0021704730B596
:100560004FF4806404F1320410F0004548BF40426B
:100570004FF000013EE700BF42004FEAE2014FEAC0
:1005800031014FEA02701FBF12F07F4393F07F4F9B
:1005900081F06051704732F07F4208BF704793F09E
:1005A0007F4F04BF41F40021704730B54FF46074B1
:1005B00001F0004521F000411CE700BF50EA0102B4
:1005C00008BF704730B54FF000050AE050EA01025D
:1005D00008BF704730B511F0004502D5404261EBCD
:1005E00041014FF4806404F132045FEA915C3FF40E
:1005F000D8AE4FF003025FEADC0C18BF03325FEAAB
:10060000DC0C18BF033202EBDC02C2F1200300FA5B
:1006100003FC20FA02F001FA03FE40EA0E0021FA80
:1006200002F11444BDE600BF70B54FF0FF0C4CF46E
:10063000E06C1CEA11541DBF1CEA135594EA0C0F20
:1006400095EA0C0F00F0DEF82C4481EA030621EA5B
:100650004C5123EA4C5350EA013518BF52EA033596
:1006600041F4801143F4801338D0A0FB02CE4FF048
:100670000005E1FB02E506F00042E0FB03E54FF078
:100680000006E1FB03569CF0000F18BF4EF0010E70
:10069000A4F1FF04B6F5007F64F5407404D25FEA6C
:1006A0004E0E6D4146EB060642EAC62141EA55511F
:1006B0004FEAC52040EA5E504FEACE2EB4F1FD0C61
:1006C00088BFBCF5E06F1ED8BEF1004F08BF5FEADF
:1006D000500E50F1000041EB045170BD06F0004691
:1006E00046EA010140EA020081EA0301B4EB5C043E
:1006F000C2BFD4EB0C0541EA045170BD41F4801136
:100700004FF0000E013C00F3AB8014F1360FDEBF5A
:10071000002001F0004170BDC4F10004203C35DA36
:100720000C341BDC04F11404C4F1200500FA05F3B9
:1007300020FA04F001FA05F240EA020001F000425A
:1007400021F0004110EBD37021FA04F642EB0601D0
:100750005EEA430E08BF20EAD37070BDC4F10C04FA
:10076000C4F1200500FA04F320FA05F001FA04F2BE
:1007700040EA020001F0004110EBD37041F10001AA
:100780005EEA430E08BF20EAD37070BDC4F12005B5
:1007900000FA05F24EEA020E20FA04F301FA05F21D
:1007A00043EA020321FA04F001F0004121FA04F2C5
:1007B00020EA020000EBD3705EEA430E08BF20EA95
:1007C000D37070BD94F0000F0FD101F000464000CF
:1007D00041EB010111F4801F08BF013CF7D041EA51
:1007E000060195F0000F18BF704703F00046520055
:1007F00043EB030313F4801F08BF013DF7D043EA26
:100800000603704794EA0C0F0CEA135518BF95EADB
:100810000C0F0CD050EA410618BF52EA4306D1D162
:1008200081EA030101F000414FF0000070BD50EA81
:10083000410606BF1046194652EA430619D094EA0B
:100840000C0F02D150EA013613D195EA0C0F05D1F5
:1008500052EA03361CBF104619460AD181EA030149
:1008600001F0004141F0FE4141F470014FF0000001
:1008700070BD41F0FE4141F4780170BD70B54FF09C
:10088000FF0C4CF4E06C1CEA11541DBF1CEA13551C
:1008900094EA0C0F95EA0C0F00F0A7F8A4EB0504FE
:1008A00081EA030E52EA03354FEA013100F08880F5
:1008B0004FEA03334FF0805545EA131343EA1263BE
:1008C0004FEA022245EA111545EA10654FEA002673
:1008D0000EF000419D4208BF964244F1FD0404F52C
:1008E000407402D25B084FEA3202B61A65EB030588
:1008F0005B084FEA32024FF480104FF4002CB6EB45
:10090000020E75EB030E22BFB61A754640EA0C00C4
:100910005B084FEA3202B6EB020E75EB030E22BF04
:10092000B61A754640EA5C005B084FEA3202B6EB45
:10093000020E75EB030E22BFB61A754640EA9C0004
:100940005B084FEA3202B6EB020E75EB030E22BFD4
:10095000B61A754640EADC0055EA060E18D04FEA92
:10096000051545EA16754FEA06164FEAC30343EA32
:1009700052734FEAC2025FEA1C1CC0D111F4801FFF
:100980000BD141EA00014FF000004FF0004CB6E7F8
:1009900011F4801F04BF01430020B4F1FD0C88BF97
:1009A000BCF5E06F3FF6AFAEB5EB030C04BFB6EBA2
:1009B000020C5FEA500C50F1000041EB045170BD95
:1009C0000EF0004E4EEA113114EB5C04C2BFD4EBC2
:1009D0000C0541EA045170BD41F480114FF0000E46
:1009E000013C90E645EA060E8DE60CEA135594EAC2
:1009F0000C0F08BF95EA0C0F3FF43BAF94EA0C0FC5
:100A00000AD150EA01347FF434AF95EA0C0F7FF439
:100A100025AF104619462CE795EA0C0F06D152EA8D
:100A200003353FF4FDAE1046194622E750EA410671
:100A300018BF52EA43067FF4C5AE50EA41047FF482
:100A40000DAF52EA43057FF4EBAE12E74FEA4102E5
:100A500012F5001215D211D56FF47873B3EB625210
:100A600012D94FEAC12343F0004343EA505311F037
:100A7000004F23FA02F018BF404270474FF00000C9
:100A8000704750EA013005D111F0004008BF6FF007
:100A9000004070474FF00000704700BF4FEA41022E
:100AA000B2F1E04324BFB3F5001CDCF1FE5C0DD9CC
:100AB00001F0004C4FEAC0024CEA5070B2F1004F16
:100AC00040EB830008BF20F00100704711F0804F19
:100AD00021D113F13872BCBF01F00040704741F4DE
:100AE00080114FEA5252C2F11802C2F1200C10FAE2
:100AF0000CF320FA02F018BF40F001004FEAC123C6
:100B00004FEAD32303FA0CFC40EA0C0023FA02F369
:100B10004FEA4303CCE77FEA625307D150EA01333F
:100B20001EBF4FF0FE4040F44000704701F000400F
:100B300040F0FE4040F40000704700BF7BB972B93E
:100B40000029BEBF00204FF0004106E008BF00288A
:100B50001CBF6FF000414FF0FF3000F0B5B9ADF1B0
:100B6000080C6DE904CE002909DB002B1ADB00F02C
:100B70004DF8DDF804E0DDE9022304B0704740429F
:100B800061EB4101002B1BDB00F040F8DDF804E0D5
:100B9000DDE9022304B0404261EB4101524263EBC4
:100BA00043037047524263EB430300F02FF8DDF834
:100BB00004E0DDE9022304B0404261EB41017047EB
:100BC000524263EB430300F021F8DDF804E0DDE975
:100BD000022304B0524263EB4303704753B94AB94E
:100BE000002908BF00281CBF4FF0FF314FF0FF3035
:100BF00000F06AB9ADF1080C6DE904CE00F006F81A
:100C0000DDF804E0DDE9022304B070472DE9F04788
:100C1000089D0C46002B4ED194468C458646B2FA70
:100C200082F262D94AB1C2F12003914020FA03F363
:100C30000CFA02FC194300FA02FE4FEA1C471FFAA5
:100C40008CF6B1FBF7F44FEA1E4307FB141143EA9D
:100C5000014304FB06F199420AD91CEB030304F19A
:100C6000FF3080F01281994240F20F81023C6344D0
:100C7000591A1FFA8EF3B1FBF7F007FB101143EA84
:100C8000014300FB06F69E420AD91CEB030300F168
:100C9000FF3180F0FC809E4240F2F98063440238CC
:100CA0009B1B40EA044000211DB1D3400022C5E94E
:100CB0000032BDE8F0878B4205D90DB1C5E90001CE
:100CC00000210846F5E7B3FA83F1002946D1A34293
:100CD00002D39042C0F0F080861A64EB0303012037
:100CE000002DE6D0C5E90063E3E7002A40F09080DC
:100CF000A1EB0C044FEA1C481FFA8CF70121B4FB4E
:100D0000F8F64FEA1E4308FB164443EA044307FB88
:100D100006F0984208D91CEB030306F1FF3402D217
:100D2000984200F2CD8026461C1A1FFA8EF3B4FBBF
:100D3000F8F008FB104443EA044300FB07F79F4226
:100D400008D91CEB030300F1FF3402D29F4200F2EA
:100D5000B0802046DB1B40EA0640A5E7C1F1200633
:100D60008B4022FA06F71F4320FA06FC04FA01F32F
:100D700043EA0C03F44000FA01F8380C4FEA134937
:100D8000B4FBF0FE1FFA87FC00FB1E4449EA044452
:100D90000EFB0CF9A14502FA01F20AD93C190EF139
:100DA000FF3A80F08480A14540F28180AEF1020ECE
:100DB0003C44A4EB09041FFA83F9B4FBF0F300FBF5
:100DC000134449EA044403FB0CFCA44507D93C192D
:100DD00003F1FF3067D2A44565D9023B3C4443EAA6
:100DE0000E40A0FB0293A4EB0C049C42CE469C4612
:100DF00051D34ED055B1B8EB0E0364EB0C0404FA9A
:100E000006F6CB401E43CC40C5E90064002150E704
:100E1000C2F1200320FA03F10CFA02FC24FA03F3D6
:100E200094400C434FEA1C4800FA02FE1FFA8CF76C
:100E3000B3FBF8F008FB1031230C43EA014300FB3D
:100E400007F1994208D91CEB030300F1FF362CD2BD
:100E500099422AD9023863445B1AA4B2B3FBF8F171
:100E600008FB113344EA034401FB07F3A34208D90A
:100E70001CEB040401F1FF3613D2A34211D902394D
:100E80006444E41A41EA004139E70446F0E60846C2
:100E900006E7C845AED2B9EB020E63EB070C01388A
:100EA000A8E73146EDE7034699E73046D4E7D64652
:100EB0007FE7634402384DE70646234608460FE7BE
:100EC000023E634430E700BF704700BF0149002085
:100ED0000BF0CCBD6526000808B5642009F0D8FFEA
:100EE000FBE700002DE980483B4E9DB03B4F3C4D59
:100EF0003C4BD5ED006A93ED007A3B4B93F80080B4
:100F00003A4B93F800E03A4BD3F800C0394B1C68D9
:100F1000394BD3ED007A394BD3F800B0384B186811
:100F2000384BD3F800A0384BD3F80090374B1978E2
:100F3000374B1A78374B1B680193374B1B6802936A
:100F4000364B1B680393364B1B680493354B1B6869
:100F50000593354B1B680693344B1B680793344B42
:100F60001B680893334B1B788DF82430324B1B7869
:100F70008DF82530314B8DF86C1001A91B688DF868
:100F80006D200A933B68CDED0D6A0B9333688DEDB0
:100F90000E7A0C9300238DF83C801A468DF83DE0C4
:100FA000CDF840C08DF8443012948DF84C30CDED22
:100FB000147ACDF854B08DF85830CDF864A0CDF83F
:100FC0006890CDE917031E4800680AF02EFE28201D
:100FD00009F05EFF8CE700BF80030020840300203F
:100FE0007C030020140000201100002010000020CD
:100FF0009403002090030020780300200C000020C0
:101000007403002070030020080000200600002068
:101010006C030020A00300209C0300209803002004
:101020008C03002088030020680300206403002054
:101030006003002005000020040000205C03002065
:10104000C04E002010B594B01022002102240AA83E
:1010500035F026FC1422002103A835F021FC1D4B9D
:10106000192108A81A6C42F080521A641B6C03F014
:1010700080530193019B184B1A6842F440421A6056
:1010800001221B6803F440430293029B4FF4803318
:10109000CDE908234FF48003CDE90E434FF4C87324
:1010A000CDE91244CDE9101308F0C2FE08F05EFB52
:1010B0000F2300200621CDE903344FF4A053CDE9DE
:1010C00005034FF4805303A8079309F099F814B06F
:1010D00010BD00BF00380240007000402DE980487C
:1010E0009BB01022002101250DA84FF0104835F0CB
:1010F000D7FB002407F080FAC74B0DA8ADF8345099
:101100001094CDE90E8307F095FA17230DA88DF8FA
:1011100035508DF83C308DF8425007F08BFA0420A2
:1011200007F078FABFF34F8FBFF36F8FBB4AC2F857
:101130005042BFF34F8FBFF36F8F536943F40033B7
:101140005361BFF34F8FBFF36F8FC2F88440BFF37B
:101150004F8FD2F8803043F6E074C3F3C900C3F375
:101160004E335B0103EA0406014646EA8175013904
:10117000C2F86052F9D2203B13F1200FF2D1BFF335
:101180004F8F536943F480335361BFF34F8FBFF3E5
:101190006F8F06F0CBFE0024FFF754FF14220021CE
:1011A0000DA835F07DFB9E4B10219E481A6B012740
:1011B0004FF010084FF0030B42F010024FF480592B
:1011C000994D4FF0040A1A631A6B984E02F0100200
:1011D0000292029A1A6B42F002021A631A6B02F030
:1011E00002020392039A1A6B42F001021A631A6B0D
:1011F00002F001020492049A1A6B42F040021A6350
:101200001A6B02F040020592059A1A6B42F40072C2
:101210001A631A6B02F400720692069A1A6B42F075
:1012200008021A631A6B02F008020792079A1A6BF7
:1012300042F480621A631A6B02F480620892089A80
:101240001A6B42F020021A631A6B02F02002099214
:10125000099A1A6B42F480721A631A6B02F4807254
:101260000A920A9A1A6B42F080021A631A6B02F011
:1012700080020B920B9A1A6B42F004021A6300224E
:101280001B6B03F004030C930C9B07F021FD012260
:101290000821674807F01CFD01224FF48051654882
:1012A00007F016FD0022C021634807F011FD00225F
:1012B0004021624807F00CFD0DA95A48CDE90D8781
:1012C000CDE90F4B07F080FB08230DA95848CDE965
:1012D0000D37CDE90F4407F077FB0DA95548CDE94F
:1012E0000D97CDE90F4407F06FFBC0220DA95248BE
:1012F000CDE90D27CDE90F4B07F066FB40220DA984
:101300004E48CDE90D27CDE90F4B07F05DFB4C486A
:101310004C49848001600762C0E9054407F0B6F9D2
:1013200049492846C5E90014C5E90244C5E90A440B
:10133000C5E90C4407F049FA39462846434D07F001
:10134000FDFA40234FF4C07241493046B460F46165
:10135000B462C6E905324FF40062C6E908294FF0CD
:1013600002090722C6E900140DA9CDF84C90C6E980
:1013700003A8CDE90D92CDE90FA2CDE911B909F08D
:1013800095FA29464FF6FF7230460194C5E9007878
:10139000C5E9027409F0AAFA384606F0EBFD2946C1
:1013A0004FF6FF723046C5E90098C5E9027409F0AE
:1013B0009DFA082329464FF6FF723046C5E90234EC
:1013C000C5E900B809F092FA4FF40C734FF6FF72BA
:1013D000294601933046019BAF60EB60C5E900A848
:1013E00009F084FA40F22B7130461A4D09F09DFA4B
:1013F0004FF0204343F2D202642040F215261A60D7
:1014000006F0B8FD144B154A28462C62C5E90023A6
:10141000C5E9024724E000BF1B00000300ED00E027
:10142000003802400004024040050020C4030020B0
:10143000002802400020024000080240001802403C
:10144000800500200030024000B00240A4030020CC
:10145000400100A0EC0400209B676010005C00408D
:10146000C5E90444C5E9064407F073FD2146284652
:1014700007F096FF21462846544D07F0B7FF342267
:1014800021460DEB020035F00BFA514B2821352097
:1014900040F2352C2C61AC8685F83640C5E9003425
:1014A0000923C5E905130B23C5E9070340F21B1304
:1014B0002846C5E9096340F21D130526C5E90BC39B
:1014C000C5E9024408F03EF8FF214FF4F0724FF4F2
:1014D000887328460D941893ADF864408DF86640E3
:1014E0003C4DCDE912144FF48061CDE914164FF054
:1014F0004041CDE90E24CDE9161222460DA9CDE9D1
:10150000103908F0EAF83448344B4FF0180E0462F2
:10151000C0E900374FF4A063C0E902A8C0E904E3C2
:10152000C0E9064408F03CFA06F080FB06F0C6FA73
:101530005C2007F04FF800F015FE294B2846AC61FF
:10154000AC83C5E900364FF4E023C5E90244C5E9A0
:10155000043406F021FD0E230DA928461693149796
:1015600011941597CDE91244CDE90D44CDE90F440E
:1015700006F08EFD284606F011FE4946284606F084
:10158000B5FE00F01BFE00F018FE09F0F3FB154A53
:101590002146154809F028FC144B154A21461860CD
:1015A000144809F021FC144B144A214618601448D1
:1015B00009F01AFC134B144A21461860134809F02D
:1015C00013FC134B186009F0EFFBFEE74404002006
:1015D00000680140A4050020F8030020001000A0CE
:1015E0000064004010780308D90E0008C0030020F2
:1015F000EC770308CB210008BC030020C877030860
:101600002D3D0008B8030020A4770308E50E00086C
:10161000B403002000000000F8B5B14C0021B14D2A
:1016200022462B462DED028B06F0E3FD266840F2A4
:1016300026739E4266D1A36853B92369022B07D152
:101640002B78012B04D1A84A136883F0010313609F
:1016500040F272339E4200F07381B6F5787F40F01D
:10166000FC80A368002B7CD12369082B79D12888C2
:101670006F8840BAAE887FBAEC8880B276BABFB2C3
:1016800064BAA0F6AB20B6B2FEF764FFA4B28EA394
:10169000D3E90023FEF7C8FFFFF7D8F9934B186092
:1016A000934B1A689042C8BF1860A7F6AB20FEF7AC
:1016B00051FF85A3D3E90023FEF7B6FFFFF7C6F974
:1016C0008C4B1860A6F6AB20FEF744FF7EA3D3E94F
:1016D0000023FEF7A9FFFFF7B9F9874B1860A4F6BE
:1016E000AB20FEF737FF78A3D3E90023FEF79CFF7A
:1016F000FFF7ACF9814B1860814B1A68904230DDDE
:1017000018602EE0B6F5587F2ED1A3684BBB236935
:10171000082B26D12C887B4B64BAA888A4B240BA87
:101720001C6080B2784B1A689442C8BF1C60C4F534
:10173000EA54FEF70FFF0C3463A3D3E9002324EA35
:10174000E474FEF771FFFFF781F9704B002C18600D
:10175000B8BF03346E4BA410C4F1640424EAE474EB
:101760001C60BDEC028BF8BD40F261339E4240F03C
:101770003781A368002B70D12369082B6DD16B884A
:10178000DFED6E8A5BBA9FB22B885BBA9BB207EE25
:10179000903AF8EE677A67EEA87A17EE900AFEF7AD
:1017A000EBFE4BA3D3E90023FEF786FD4AA3D3E962
:1017B0000023FEF739FFFFF771F907EE907A554BDA
:1017C00008EE100AF8EE677A186067EEA87A17EE4E
:1017D000900AFEF7D1FE3EA3D3E90023FEF76CFD8D
:1017E0003DA3D3E90023FEF71FFFFFF757F94A4B4C
:1017F00007EE900A1860434B1B68B3F52F7F2CDD72
:10180000464A92ED007AB5EEC07AF1EE10FA04D4B1
:10181000B4EEC78AF1EE10FA01D582ED008A40F6E7
:10182000C412934219DD3E4B93ED007AB5EEC07AB7
:10183000F1EE10FA04D4F4EEC77AF1EE10FA0CD5FA
:10184000B0EE087AC3ED007A364BF4EEC77AF1EECB
:1018500010FA4CBF012200221A70B6F55C7F00F02E
:10186000DF80B6F5797F7FF47CAFA368002B7FF42F
:1018700078AF2369082B7FF474AF6B782A4A03F0A2
:1018800001031370EB79294AD909C3F3801311704E
:10189000274A137065E7A368002B7FF462AF2369C2
:1018A000082B7FF45EAF2B889FED227A5BBA9BB248
:1018B00007EE903A204BF8EE677A67EE877AC3ED31
:1018C000007A4EE7AFF300809A9999999999B93FB8
:1018D000333333333353594000000040E17A843FBF
:1018E000D4050020CC050020A00300209403002094
:1018F000900300206803002074030020840300206C
:10190000800300209C030020980300206003002037
:101910005C030020780300207C0300200C000020E2
:1019200014000020110000201000002005000020FD
:10193000060000206F12833A64030020CDCCCC3D1A
:10194000A368002B7FF40DAF2369082B7FF409AF48
:101950002B881FED067A5BBA9BB207EE903A464B96
:10196000F8EE677A67EE877AC3ED007A434B1B681F
:10197000B3F5FA6F7FF7F5AE414B93ED007AB5EE14
:10198000C07AF1EE10FA05D4B4EEE77AF1EE10FA6F
:101990007FF7E7AEB2EE097AC3ED007AF4EEC77ACC
:1019A000F1EE10FA7FF5DDAE364B01221A70D8E663
:1019B000354B5222FAE7344B4E22F7E7324B3122B5
:1019C000F4E7314B3222F1E72F4B3322EEE72E4B77
:1019D0003422EBE72C4B3522E8E72B4B3622E5E7A8
:1019E000B6F55A7F3FF457AFB6F55C7F7FF430AE63
:1019F000A368ABB92369082B12D1288840BA80B2FA
:101A0000FEF7A8FD1AA3D3E90023FEF70DFEFFF7AA
:101A10001DF81E4B18601E4B1A68904200DD1860BE
:101A2000A368002B7FF49DAE2369082B7FF499AE49
:101A300095F903300333092B3FF693AE01A252F818
:101A400023F000BFB719000863170008B119000898
:101A5000B7190008BD190008C3190008C919000802
:101A6000CF190008D5190008DB190008AFF3008072
:101A70009A9999999999B93F700300209C03002085
:101A8000080000206C030020040000208C030020CC
:101A9000880300200268034B9A4201D106F058BA2D
:101AA000704700BF00100040704700000D4B82B02F
:101AB0000F216FF001001A6C42F080521A641A6C08
:101AC00002F080520092009A5A6C42F480425A64AA
:101AD00000225B6C03F480430193019B02B006F08B
:101AE00039BD00BF0038024010B588B0044614224A
:101AF000002103A834F0D4FE2268174B9A4228D163
:101B000003F5EA33032115481A6C42F000721A6497
:101B10001A6C02F000720192019A1A6B42F00202F2
:101B20001A634FF440721B6B03F002030293029B93
:101B30000223CDE903230923CDE9061303A906F007
:101B400043FF14200022052106F004FD142006F0B6
:101B500033FD08B010BD00BF006400400004024027
:101B6000026882B0084B9A420BD1D3F8302803F5B3
:101B7000006342F480521A631B6B03F48053019399
:101B8000019B02B0704700BF003002400E4B07B50A
:101B900002689A4215D1A3F5F04305215A201A6B29
:101BA00042F400021A6300221B6B03F4000301934A
:101BB000019B06F0CFFC5A2003B05DF804EB06F061
:101BC000FBBC03B05DF804FB00B0024010B5A8B048
:101BD00004461422002102A834F062FE842200216F
:101BE00007A834F05DFE2268174B9A422AD14FF4C1
:101BF000803307A8079308F0CFFB08B1FFF754FF25
:101C0000124C4FF4C07201211148236B43F0800342
:101C10002363236B03F080030093009B1223CDE921
:101C200002230323CDE90413042302A9069306F03B
:101C3000CBFE236C43F400032364236C03F4000302
:101C40000193019B28B010BD005C004000380240A9
:101C5000001C0240026808B5094B9A420FD1094A9C
:101C600080210948136C23F40003136406F090FFED
:101C70004FF480710448BDE8084006F089BF08BDF4
:101C8000005C004000380240001C024070B5ACB05F
:101C900004461422002106A834F002FE842200210A
:101CA0000BA834F0FDFD2268484B9A4240F08C802E
:101CB0000823052001240B934FF4C07310930223D3
:101CC000CDE911304FF400330BA8CDE9154308F0EE
:101CD00063FB08B1FFF7E8FE3D4B002402250E260A
:101CE0005A6C06A93B4842F080625A645A6C02F072
:101CF00080620092009A1A6B42F010021A631A6B0B
:101D000002F010020192019A1A6B42F400721A63F7
:101D10001A6B02F400720292029A1A6B42F4806209
:101D20001A631A6B02F480620392039A1A6B42F0F0
:101D300040021A631A6B02F040020492049A1A6B72
:101D400042F480721A631B6B03F480730593059B46
:101D50001023CDE90635CDE908440A9606F034FE95
:101D60004EF6FF7306A91C480A96CDE90635CDE963
:101D7000084406F029FEF72306A918480A96CDE97B
:101D80000635CDE9084406F01FFE4FF4805306A93E
:101D90001348CDE906350923CDE908440A9306F036
:101DA00013FE4FF4464306A90E480A96CDE90635C0
:101DB000CDE9084406F008FE58202246052106F029
:101DC000C9FB582006F0F8FB2CB070BD006801403C
:101DD0000038024000100240002402400028024067
:101DE0000018024000200240142200212DE9F04199
:101DF0008AB004460DEB020034F052FD22682C4BF1
:101E00009A4251D12B4B0225032409269A6B4FF09D
:101E1000040805A9284842F0020200279A639A6B39
:101E200002F002020192019A1A6B42F010021A6348
:101E30001A6B02F010020292029A1A6B42F002022E
:101E40001A631A6B02F002020392039A1A6B42F0B1
:101E500008021A631B6B03F008030493049BCDE98B
:101E60000585CDE9084606F0AFFD402305A91348D6
:101E7000CDE905350A23CDE90774099306F0A4FDE1
:101E800005A90E480996CDE90585CDE9077406F048
:101E90009BFD4FF4605305A909480996CDE9053526
:101EA000CDE9077406F090FD0AB0BDE8F08100BFEF
:101EB000001000A000380240001002400004024060
:101EC000000C0240026808B50B4B9A4213D10B4A32
:101ED00004210B48936B23F00203936306F058FE32
:101EE0004421084806F054FE4FF460510648BDE80E
:101EF000084006F04DBE08BD001000A000380240AA
:101F00000010024000040240000C0240F0B5002323
:101F100087B00393294B1E68002E4DD10122022762
:101F200003250C241A6001A9254B26489A6B42F020
:101F300001029A639B6B03F001030093009B4FF631
:101F40008373CDE90454CDE9013706F03DFD48F235
:101F5000331301A91C480594CDE90137CDE9036588
:101F600006F032FD4CF2037301A918480594CDE93F
:101F70000137CDE9036506F027FD4FF63F0301A9C0
:101F800013480594CDE90137CDE9036506F01CFD42
:101F9000282301A90F480594CDE90137CDE9036550
:101FA00006F012FD082301A90B480594CDE901377D
:101FB000CDE9036506F008FD07B0F0BDF00500208F
:101FC000003802400010024000180240000C02409D
:101FD00000140240001C024000080240214B1A6C11
:101FE00042F0100270B51A6488B01B6C054601A956
:101FF00003A803F010030293029B08F0AFF9069BBD
:102000004BBB08F09BF9184E184B336040F2E73396
:10201000F360174BB0FBF3F3013B304673600023D2
:102020003361B360B36108F0E7FD044680B9304620
:1020300008F094FC044658B9362006F0BDFA0F2D7E
:102040000DD822462946362006F084FA094B1D6039
:10205000204608B070BD08F071F94000D3E70124B4
:10206000F6E700BF00380240F405002000100040F1
:1020700040420F00500000207047FEE7FEE7FEE7F9
:10208000FEE77047014806F04EB900BFA4050020E6
:10209000014808F0A5BC00BFF4050020014807F086
:1020A000BFBA00BF44040020014806F0BCBB00BF1B
:1020B000400500200120704708B534F0A5FC162328
:1020C00003604FF0FF3008BD08B534F09DFC1623C7
:1020D0000360FEE770B50D4614460E46731B9C4226
:1020E00001DC204670BDAFF3008006F8010BF5E778
:1020F00070B50D4614460E46731B9C4201DC20460B
:1021000070BD16F8010BAFF30080F5E74FF0FF301C
:1021100070474FF4005300204B6070470120704718
:10212000002070470B4A0346116810B509B90A49E7
:102130001160106809490A4C0344091B8B4206D9F7
:1021400034F062FC0C2303604FF0FF3010BD1360CD
:10215000FCE700BF40060020109001200000052091
:10216000000A000070470000DFF834D0002103E0CF
:102170000C4B5B58435004310B480C4B42189A42AD
:10218000F6D30B4A02E0002342F8043B094B9A4283
:10219000F9D305F0E3FD34F03DFCFEF79FFF7047F7
:1021A0000000052000D403080000002038010020B2
:1021B000400300200C900120FEE7704708B501F0B5
:1021C0008FF9BDE8084001F011B901F08BB9406802
:1021D00070474160704700004FF0E022D2F8FC3DAC
:1021E00043F08073C2F8FC3D054B064AD3F8B01F9C
:1021F0000A43C3F8B02F1A6842F001021A60704710
:10220000001000E055CEACC5521A02EB5302B2FBEF
:10221000F3F07047014B5868704700BF001000E0B2
:10222000704710B504460C2133F037F9204610BD35
:10223000036810B51B69044631B19847A26863680A
:102240009B1A0344636010BD9847A060FBE7000041
:10225000024B7020024A1360DB68184724000020FC
:1022600044060020704710B50446042133F015F9E8
:10227000204610BD73B50E4E0D461446336813B993
:10228000002002B070BD1B69702098470028F7D06D
:102290003368702001AA0DF106015B699847BDF80B
:1022A000043001202B60BDF806302360E9E700BF51
:1022B000440600207FB501238DF817204FF47A7271
:1022C000CDE901320DF1170200920A460146054898
:1022D00006F0AEFE10B1034806F090FE07B05DF8C0
:1022E00004FB00BFEC0400207FB500230A464FF436
:1022F0007A718DF817300123CDE901310DF1170105
:1023000000910146054806F06DFF10B1034806F044
:1023100075FE9DF8170007B05DF804FBEC04002083
:10232000032823D8DFE800F0020B131A104B10210A
:1023300010481A68B2FA82F2520906F0C9BC0C4B76
:1023400040215A68B2FA82F252090B48F5E7084B6D
:1023500080219A68B2FA82F25209F6E7044B4021D2
:102360000648DA68B2FA82F25209E6E7704700BF1F
:102370004806002000040240000802400018024005
:10238000032823D8DFE800F0020B131A104B1021AA
:1023900010481A68003A18BF012206F099BC0C4B8D
:1023A00040215A68003A18BF01220B48F5E7084B54
:1023B00080219A68003A18BF0122F6E7044B4021B9
:1023C0000648DA68003A18BF0122E6E7704700BF06
:1023D00048060020000402400008024000180240A5
:1023E00003280FD8DFE800F00206090B1021064889
:1023F00006F073BC40210548FAE78021FBE7402145
:102400000348F5E7704700BF00040240000802409F
:102410000018024008B5032813D8DFE800F0020ACC
:102420000D0F1021084806F04DFC431E584258413C
:1024300008BD40210548F6E78021FBE7402104481C
:10244000F1E70020F1E700BF00040240000802406D
:102450000018024070B5084D00240126E0B2FFF7D5
:10246000D9FF18B12B68012B18BF2E600134043539
:10247000052CF3D170BD00BF48060020012380F871
:10248000781080F879307047002070474164003937
:10249000024B18BF01211970704700BFCB82012089
:1024A00000207047836B0BB10846184770474FF602
:1024B000FF707047406803689B69184770470000C9
:1024C00038B5044601F05CF9084923682046084DF8
:1024D000D3F88C3098470023284684F84A30FFF719
:1024E0007BFE0123256184F8703038BD000000C0F8
:1024F0005806002001F0E6B801F0EAB870B501F026
:1025000069F910490023C1F88430BFF34F8FD1F827
:10251000803043F6E074C3F3C900C3F34E335B016C
:1025200003EA0406024646EA8275013AC1F874528B
:10253000F9D2203B13F1200FF2D1BFF34F8FBFF33D
:102540006F8F70BD00ED00E001F046B901F096B864
:1025500001F068BA01F070BA01F09AB810B50446FB
:1025600019F094F923682046D3F8AC30BDE8104048
:10257000184718F0E9BB10B504467C2132F08DFFF6
:10258000204610BD90F834100D4B10B590F87840EF
:102590001A788C4209D03AB90A490B4A088814883B
:1025A000108001220C801A7010BD002AFCD0064A4F
:1025B0000449148808880C8010800022F3E700BFCB
:1025C000C4820120C2820120C082012070B50D4664
:1025D000194635B9094B40F2D221094A094833F06E
:1025E000A3FEC0E90F52003A074B18BF01221A7030
:1025F0000368BDE87040D3F88C301847747803083E
:10260000AC780308FA780308CA82012008B5094BA0
:102610001B888B4203D8084B1B88934205D9074B74
:102620009E21074A074833F07FFE074B1980074B6E
:102630001A8008BDC0820120C28201203F790308B0
:10264000A2790308FA780308C6820120C882012013
:10265000034690F87A0018B1586803681B68184759
:1026600070470000014608B5034B186801B101210D
:1026700019F026F9012008BDCC820120034B00226D
:102680005A609A60024A1A60704700BF58060020DC
:102690003C7803080121002208B5084608F0AEFC8A
:1026A0000A4B186028B90A4B28210A4A0A4833F015
:1026B0003BFE00220421012008F06AFD074B186050
:1026C00018B9074B2C21034AF0E708BD6806002023
:1026D000C07A0308097B0308387B030864060020DE
:1026E000837B0308024B4FF0FF31186808F0DEBC13
:1026F00068060020014B186808F014BD6806002029
:10270000024B0021186808F0D1BC00BF6806002009
:10271000FFF7F0BF0023034803491A46006808F09A
:102720007DBD00BF640600201800002013B5002303
:10273000074C01A91A46206808F0B2FD4FF0FF339C
:10274000002201A9206808F0ABFD02B010BD00BF57
:102750006406002003685B6C18470120704703681B
:102760009B6A1847FEE700000E4B82B01A6B42F4DA
:1027700000021A631A6B02F400020192019A1A69AC
:1027800042F400021A611A6922F400021A61064B2F
:10279000064A1A61064A5A614FF08062054B9A60F8
:1027A00002B070470038024040050020412A00086E
:1027B0006527000800E100E040F2EF3070470000BC
:1027C000054B4FF080620360044BC3F88820BFF3D1
:1027D0004F8FBFF36F8F7047207D030800E100E04B
:1027E00010B504464FF45A61FFF7EAFF204632F075
:1027F00054FE204610BD000008B50A2809D8DFE8BD
:1028000000F006100E080808081010101000022032
:1028100008BD054B9021054A054833F085FD002091
:10282000F6E70120F4E700BFC57B0308E07B03085F
:102830002B7C030838B50C46887FFFF7DDFF174B6C
:10284000A58AE28A586342EA054221695A64628B8A
:10285000D963521B1A642568082D0ED19A611A613A
:1028600058620F4A207F42EA0062DA61E2681A6227
:102870000C4A5961D9601A6038BD0022D8611A61CA
:10288000E1680A0A4809C1F3C40102F4784200F47D
:10289000FC6002430A439A63034AECE700B002403B
:1028A00009000100012302000123030008B50B28E1
:1028B0000BD8DFE800F00612100A0A0A0A08080816
:1028C0000808022008BD0520FCE7054B6F21054ADA
:1028D000054833F029FD0020F4E70120F2E700BFAE
:1028E000C57B0308747C03082B7C03082DE9F041A9
:1028F00091F81D800C464046FFF7D8FFA77F05469C
:102900003846FFF7D3FF06463846FFF775FFA18A22
:10291000628B434B521A1A649A61228B521A1A61C3
:10292000E28A586342EA014221695A646268D963C3
:10293000DA602068802828D0227F0FD8202866D02F
:10294000402864D004281AD045EA0265344BB845C3
:1029500045F40035DD6160D0324A44E0B0F5807F57
:1029600004D0B0F5007FEFD12F4800E02F4840EAB7
:102970000262DA61E2681A625E62596132E045EA37
:10298000026242F40032DA61F6E7A068021DDA6200
:10299000227F45EA026545F40035DD615E625961DA
:1029A000017841B1012921D0214B4FF48D71214A89
:1029B000214833F0B9FCDA69418822F47F420139B9
:1029C00022F0100242EA01220121DA61144BDA6995
:1029D00042F02002DA61DA699206FCD410229A6091
:1029E0000029B9D0154A1A60BDE8F081B2F1FF01A3
:1029F000DA69408822F47F4218BF0121013822F0B1
:102A0000100242EA002242F01002DA61DEE745EAF3
:102A10000262034B42F40032B5E742F20132E2E7D0
:102A200000B0024001230100090002000A00020078
:102A3000BE7C0308D87C03082B7C0308012302001A
:102A4000024B1B68586803685B691847CC820120F9
:102A500070B504460A4B0C300026254660226060A3
:102A60002672667245F8203B294619F07FF804F576
:102A70005A63EE6024359D42FBD1204670BD00BFF5
:102A8000207D0308034B1A68D207FCD423229A60E6
:102A9000704700BF00B00240094B5A69D2030AD503
:102AA000BFF34F8F08440029A0EB010204DCBFF301
:102AB0004F8FBFF36F8F70472039C3F86822F2E75A
:102AC00000ED00E030B5104C2568ED07FCD423255F
:102AD0000904FF2BA56041F001014FF00205656379
:102AE0006164E0630AD00949656241EA0363E36116
:102AF000074B22626061E060236030BDE561039BAB
:102B0000A363044BF8E700BF00B0024009000100D6
:102B1000010002000100030030B50F4C2568ED07ED
:102B2000FCD423251204FF2BA56042F001024FF0D4
:102B3000020565636264E063E16008D01B0643F050
:102B40000213E361054B65626061236030BD044B95
:102B5000E3610123F9E700BF00B002400100020079
:102B6000020002FF30B50B4C2568ED07FCD423258D
:102B700012041B06A56042F00102022543F4003353
:102B800065636264E063E160E361034B6562606119
:102B9000236030BD00B00240010002004069704770
:102BA00090F844007047036B23B9C06A003818BF1F
:102BB000012070470120704780687047043010B5CD
:102BC0000C460FC884E80F0010BD704708B5034AD3
:102BD00040F21221024B034833F0A6FB687D030844
:102BE000099E0308C37D030810B50446482132F04E
:102BF00054FC204610BD00002DE9F0431C46436BF9
:102C0000ADF51F7D05460E461746002B37D0002236
:102C100003A8DFF8A890CDE9013210F013FC4FF4BF
:102C2000F4725021249024A80AF0C1FB3A463146A0
:102C300024A80BF015FB012124A80AF0B3FC022301
:102C400024A88DF8D8300AF04EFDBDF898322B9AA2
:102C5000BDF89C629342A89F28BF1346419A9642B2
:102C600003EB4308A7EB430728BF1646479B9E424A
:102C700009D824A80AF0B8FC24A80AF0E5FB0DF551
:102C80001F7DBDE8F083012201A924A80AF074FD8C
:102C90006B6B03EB0800984201D83C44E6E7597897
:102CA0009A78C90009EA022201F4FC610A4313F888
:102CB000031B42EAD10224F8022BECE700F8FFFFE5
:102CC0000A4A02600022C0E90522C0E90722C0E9E1
:102CD0000922C0E90B22C0E90D12C0E90F2280F8D9
:102CE0004420C0E90322C0E901227047A080030804
:102CF00010B40C4611461A46036B3BB1036C806B53
:102D0000E41A20445DF8044B33F0D2BDC06AF8E702
:102D1000036B10B573B1036C826BC91A5318525C04
:102D200098785C780004DB7840EA0420104340EA9D
:102D3000036010BDC36A5858FBE7036B43B1036CD3
:102D4000C91A836B5A18585C527840EA02207047BF
:102D5000C36A585A7047000070B50446006B0D46B0
:102D60001646D8B1E36B934208D209230D4A652178
:102D70000D4884F844300D4B33F0D6FA0368DB6815
:102D80009847206B3246A16B03681B69984710B9BE
:102D90000D2384F84430A06B256470BDE06A0844BC
:102DA000FBE700BF2B7E0308C37D0308187E0308E2
:102DB0002DE9F843436904462BB9234BAA21234A42
:102DC000234833F0B1FA08228169FFF7C5FFA169F2
:102DD00043F2300646F2643704312046FFF798FF8D
:102DE000A3691844A36A00F108029A4206D301239A
:102DF00000206361236AA361BDE8F8836369093039
:102E00000822013320F0010120466361A161FFF730
:102E1000A3FFD4F8189020464946FFF78EFF09F12A
:102E2000020180462046FFF788FF09F104010546AC
:102E30002046FFF76DFFB045D2D1BD42D0D100286A
:102E4000CED00120D8E700BF6D7E0308B67E030810
:102E5000C37D03082DE9F04F0446ADF51F7D8A467A
:102E60001646816908229846FFF776FFA769204633
:102E7000391DFFF74DFF07F10801024605462046C0
:102E8000FFF76AFF636B074633B93C4B40F2AB1167
:102E90003B4A3C4833F048FA002203A8CDE901320E
:102EA00010F0D0FA4FF4F4725021249024A80AF0C4
:102EB0007EFA2A46394624A80BF0D2F9012124A82B
:102EC0000AF070FB022324A88DF8D8300AF00BFC1E
:102ED000BAF90250479BAB4229D3BAF900904FEAA6
:102EE0004808BAF804702B9B08FB05664F44BAF8F3
:102EF0000250DFF894B03FB29F4228BF1F46BAF895
:102F0000063009EB490A1D44419B2DB29D4228BF62
:102F10001D46479BAB4210D324A80AF065FB24A8AA
:102F20000AF092FA01200DF51F7DBDE8F08F012215
:102F300001A924A80AF020FCCCE7012201A924A8B9
:102F40000AF01AFC626B49465244B94202F103028C
:102F500001D34644DDE712F8020C12F8013CC00030
:102F60000BEA032300F4FC60034312F8030C43EA6A
:102F7000D00326F811300131E7E700BFE97E0308EE
:102F80003F7F0308C37D030800F8FFFF01290368A2
:102F900038BF0121DB6A70B50D4604469847A84248
:102FA00004D223682046DB6A984705466B1EE66913
:102FB0001022204606EB031606F10801FFF7CCFEAF
:102FC00006F110012046FFF7A3FE236A043B0344E9
:102FD000C4E9055370BD0000002148222DE9F041ED
:102FE0000446816180F84410FFF7B6FEA669042309
:102FF000624A31462046FFF77BFE40B10323604A18
:10300000F22184F844305F4B5F4833F08DF906F1CC
:10301000080104235D4A2046A161FFF769FE30B133
:103020000423574AFA2184F84430594BECE706F15F
:103030000C010423574A2046A161FFF759FE0746B9
:1030400038B105234E4A40F2011184F84430524B06
:10305000DAE706F110012046FFF75AFE054620B9CF
:103060004E4B40F20711464ACEE706F114080423FE
:103070004B4A20464146FFF73BFE002849D0062335
:1030800084F844300423474A06F118012046FFF72C
:103090002FFE00283FD0072384F844304544424F98
:1030A0000C2220462946FFF757FE05F108060423A7
:1030B0003A4620463146FFF71BFE94F8443000287C
:1030C00048D0002B48D1A36AAB4249D805F10C0384
:1030D00004352046A3612946FFF71AFE30442946ED
:1030E00060622046FFF714FE064404222046314663
:1030F000FFF732FE04232D4A31462046FFF7F8FD44
:10310000002838D10123E6616361A3692362BDE829
:10311000F0810127B6E7002FC0D006F1200120463C
:10312000FFF7F6FD4FF47A7306F13001B0FBF3F0D0
:1031300060602046FFF7ECFD06F14001A0602046EC
:10314000FFF7E6FD06F14401E0602046FFF7E0FDF1
:103150002061A3E7002BB9D00A2384F84430D6E7D6
:10316000291D2046FFF7D4FD85190C22204629464B
:10317000FFF7F2FD99E70B23EFE700BF997F030804
:10318000B77F03089E7F0308C37D0308E47F03081D
:10319000E97F030801800308068003081C800308F8
:1031A000288003082D800308328003083780030835
:1031B000C0E90A2100220263FFF70EBF10B5002309
:1031C00004460846E3620B6821639B689847A06247
:1031D0002046BDE81040FFF7FFBEF0B4069FBDF8E3
:1031E0001050BDF8146032B12BB10495CDE90567DC
:1031F000F0BCFFF701BDF0BC704700002DE9F04FB7
:103200009946436985B004460F4690462BB9294B31
:103210007721294A294833F087F808228169FFF786
:103220009BFDA66920463146FFF787FDB11C83460A
:103230002046FFF782FD311D82462046FFF768FDDC
:1032400006F10801A36A054642189A4226D243F2C3
:1032500030039B4517D146F264339A4513D190B1A0
:103260000246A1612046FFF777FD0E9B01462A46E4
:103270002046CDF80080CDE901933B46FFF7ADFF36
:10328000636901336361A3692B4405B908330133D2
:10329000626A23F001039342A36109D10123012053
:1032A0006361236AA36180F0010005B0BDE8F08F7F
:1032B0000020F8E76D7E03083C800308C37D030807
:1032C000012070470C2070470C2303FB01000830DD
:1032D00070470C2303FB0100083070470120704742
:1032E00042F6E040704742F6E04303FB010008303D
:1032F000704742F6E04303FB0100083070470120AD
:1033000070471020704700EB01100830704700EB49
:10331000011008307047084600F0F0BF034B10B5AD
:103320000446036017F098F8204610BD4881030852
:1033300010B50446FFF7F2FF1421204632F0ADF835
:10334000204610BD034B10B50446036017F084F807
:10335000204610BD1481030810B50446FFF7F2FFA4
:1033600042F6E841204632F098F8204610BD0000B1
:10337000034B10B50446036017F06EF8204610BDED
:10338000E080030810B50446FFF7F2FF182120463D
:1033900032F083F8204610BD094B10B50446036097
:1033A00000F534501430FFF7B9FF04F12C00FFF79B
:1033B000C9FF04F11400FFF7DBFF204610BD00BF7A
:1033C0007C81030808B50248FFF7E6FF08BD00BF8F
:1033D0003C15002010B50446FFF7DEFF42F6886179
:1033E000204632F05AF8204610BD00002DE9F34186
:1033F00000F054FD0024054600F054FD234601462C
:1034000022462846009422F02FF9284B284A2046CD
:10341000284D1A6003F058FD274B284A28489A6027
:1034200022F08AF82B68BFF35B8FDB0737D428467E
:1034300032F035F898B3234C234B04F1140004F117
:103440002C08236000F534576060C4F8088007F149
:103450001806E760266117F001F81C4B40466361CF
:1034600016F0FCFF1A4B3846E36216F0F7FF04F53E
:103470000053184A03F62850C3F8142D03F010FE29
:10348000224607F11401304603F000FE304600F0FA
:1034900035FF114832F066FF284632F00CF80F482D
:1034A00002B0BDE8F041FFF70BB800BF3083012048
:1034B000E80600203815002008070020EC06002050
:1034C0001C0000203C1500207C810308E0800308DC
:1034D0001481030848810308C53300086C060020E6
:1034E00070470000014817F098BC00BF6C06002030
:1034F00070B5244E244B254C3046254D2360FFF7F4
:10350000A7FA284627F0C2F922481FF049FB224BB0
:1035100000224FF4807121481A8683F858205A6699
:1035200083F870205A67DC60C3E912121C49C3E9B2
:103530001A121C4999671C490B604FF4F071018005
:103540001A4801804FF488711948C3E90422C3E97D
:103550000622C3E90822C3E90A22C3E90E22C3E90D
:103560001022C3E91422C3E91722C3E901650180CF
:10357000104883F8342001800F490A700F4A1A60FE
:1035800070BD00BF94070020647803083415002044
:1035900008070020EC0600206C060020C0820120F5
:1035A0000100000100000101CC820120C68201203F
:1035B000C2820120C8820120C4820120F079030860
:1035C0000148FFF7FDB800BF9407002000207047B6
:1035D00081807047C1807047018170474181704789
:1035E0007047704770477047704710B4C4880368CD
:1035F000121B84885B6D091B12B25DF8044B09B283
:1036000018474FF6FF7383814FF0FF33036213684F
:10361000C36110607047002070478B888380012051
:103620007047704780F82610704790F82600704762
:10363000002210B5B1F90840B1F90A1002804280A9
:103640008480C18010BD0022028042808280C280BE
:1036500070470177704780ED080A704780F82410A2
:10366000704780F8251070470120704798307047E8
:103670008C3070478430704770470000034B9022B5
:1036800083F85A2383F85823704700BF00E100E015
:10369000094A0A49D3680A48C3F30A03013B9BB2AB
:1036A0000B801169C1F30A01013901801364536B66
:1036B00043F001035363704700680140C643002094
:1036C000C4430020014BD3F8AC00704700680140B0
:1036D000024B0122C3F8AC105A62704700680140E7
:1036E000124A5369DB0370B51ED50023C2F884303B
:1036F000BFF34F8FD2F8803043F6E074C3F3C900B4
:10370000C3F34E335B0103EA0406014646EA8175C2
:103710000139C2F87452F9D2203B13F1200FF2D1D3
:10372000BFF34F8FBFF36F8F70BD00BF00ED00E0A0
:103730007047704770473823002201FB0333C2549F
:1037400090F838300BB9036C83647047704780F889
:103750004C10704710B50446582131F09EFE2046AB
:1037600010BD10B504462C2131F097FE204610BD47
:1037700010B50446BC2131F090FE204610BD00007B
:1037800038B5044617F035FB23685D6E1EF090F8DF
:1037900001462046A8472368084A2046D3F88850A7
:1037A0000023A2F57F31A847054B064A5A60064A16
:1037B0001A649A644FF4FF225A6438BD00F807C0B7
:1037C00088440020E044002000F40BC017F0F8BA51
:1037D00017F002BB17F0BEBA17F02DBC90F82520E9
:1037E00012B103685B6918477047000008B531B132
:1037F000044B40F29711044A044832F095FD90F8CA
:10380000390008BD888103089C81030829830308C7
:1038100010B531B1064B40F29111064A064832F01C
:1038200083FD406811460368BDE810401B6B1847D4
:10383000888103086B8303082983030808B529B12D
:10384000034B7A21034A044832F06EFD006908BD3B
:10385000888103081C8503082983030808B529B15A
:10386000054B8321054A064832F05EFD41618160C7
:10387000C0E9063208BD00BF88810308D48603086A
:103880002983030810B5044629B1274BA421274AF0
:10389000274832F049FD052A34D8DFE802F0032931
:1038A0002F34393E406803681B69984750B34FF086
:1038B000FF31606D07F046FB0023012294F83E10B3
:1038C00084F83B3084F83920A360636101B122623F
:1038D00084F83E306362E36A2BB90123206D84F8DB
:1038E0003A3007F01FFC606DBDE8104007F05ABB8E
:1038F000002380F8393084F83E3003E0036200236F
:103900008360436110BD0362002383604361F2E77B
:10391000002380F839300123EDE7003B18BF012375
:1039200080F83D30EEE700BF8881030893880308E4
:103930002983030890F825201AB190F8242002B1B9
:103940001860704770B50446164629B1314BE7211F
:10395000314A324832F0E8FC90F8393033B1304B1C
:103960001B6893F86B20436913444361E36A002B9F
:103970004DD0E169D4E905325343A2684A439342EA
:1039800020D2236A002B42D04FF0FF31606D07F048
:10399000D9FA236A0BB10023E362E36AFBB901257C
:1039A000606D07F0FFFA94F839300BB9236A3BB128
:1039B000E36A2BB90123206D84F83A3007F0B2FB9B
:1039C000284670BD94F84C000028DDD09B1AB3FB4C
:1039D000F1F2994298BF02F1FF326262D4E700220D
:1039E00094F83C50A3623046E262E2682261A26829
:1039F0000132A260336333685B699847002DCED1F2
:103A000094F83D30002BCBD184F83950C8E701251C
:103A1000C9E700BF888103086A8A0308298303086D
:103A2000CC820120034B4FF080629A604FF080728D
:103A30009A60704700E100E0084B4FF08062C3F8E5
:103A40008820BFF34F8FBFF36F8F4FF08072C3F8A2
:103A50008820BFF34F8FBFF36F8F704700E100E006
:103A600038B5034690F8380038BB01229860D8601A
:103A70009A634FF4807258619A874FF4F07298619C
:103A8000D861186258629862D8621863586383F8E4
:103A90003E00CA864FF4887281F834000A870863B2
:103AA0009A6C186102F5FF24D3E9101529448C4261
:103AB0000AD9084B5821084A03E0084B40F2F51197
:103AC000074A084832F030FC1A6302F57F329C64E2
:103AD0005A6338BDC88D0308088E03080E8C03088E
:103AE0003E8C030829830308002370B5124E054657
:103AF0008380124B0360336893F858200AB1D86C66
:103B000000B998680368DB6A98473368B0FA80F4B4
:103B1000D86C640930B10368DB6A9847002808BF95
:103B200044F001042CB9064B2C21064A064832F019
:103B3000FBFB284670BD00BFCC820120B09003087B
:103B4000AE8F03080C9003084590030870B5244E0F
:103B50003568BFF35B8F15F001053FD1304631F07A
:103B60009EFC00283AD01F4C1F4B04F13400256105
:103B7000E584A562A585C4E90035C4E902551FF0B6
:103B80006EFA04F158001AF019F9184B2046A36593
:103B9000174B40F8843BFFF7A7FF164B1648C4F8B5
:103BA00084302433C4F89050C4F88C306423C4F8B3
:103BB0009C50C4F8A850C4E928350023C4F8AC30A0
:103BC000C4F8B030C4F8B430C4F8B8300B4BC4F803
:103BD000983032F0C7FB304631F06DFC014870BDC3
:103BE000C8430020CC430020D8C30308D09003086A
:103BF000489103088CC30308793600086CC3030896
:103C000010B5144C236823B3134B144A1B6C118852
:103C10008B4213D1124B198805F08CFD226892F863
:103C20006A30013382F86A30FEF774FD206817F0BD
:103C30002DFE0020BDE81040FEF772BB05F07AFDB6
:103C4000206803681B6A98470020BDE81040FEF713
:103C500097BB10BDCC82012000680140C643002004
:103C6000C44300202DE9F74304464FF4707894F8DC
:103C70003A304FF0FF31002B31D0606D07F062F920
:103C8000276BA36ABB4200D1676B266A656856B38F
:103C90002B68314628465B6A98470023236284F8E4
:103CA0003B30606D07F07EF92B684FF4F0723946B7
:103CB000CDF8008028465E694FF48873B0474FF016
:103CC000FF310646606D07F03DF994F83B30E3B1F3
:103CD000002384F83B30606D07F064F9C7E7206D7E
:103CE00007F0E4F9C3E7636A002BDAD02B682846B3
:103CF000D3E909939847616A01442846C847A368F5
:103D0000626A66621344A360CBE7E7625EB12B6828
:103D100028469B6A984701380023E06084F83C609D
:103D200084F83A30D7E70120F6E70000014808B5EB
:103D3000FFF798FF884400200368042270B504460A
:103D40005E6A00230D46B0474FF0FF31606D07F00B
:103D5000F9F8382303FB0542D16A09B10021D16289
:103D600003FB0545012385F83B30002385F83930F6
:103D7000606DBDE8704007F015B938B500EB810300
:103D800004460D46114658680368DB689847294683
:103D90002046FFF7D1FF38BD70B50D4611460446E9
:103DA00000EB85025068026896681A46B0472946BB
:103DB0002046FFF7C1FF70BD38B5164900251648EB
:103DC000FEF77EFF154C164B01202A46294623603C
:103DD0004FF48073A564A38784F84C0084F83E50A8
:103DE000C4E91055C4E91455C4E90155C4E90355A3
:103DF000C4E90555C4E90755C4E90955C4E90B559B
:103E0000C4E90D5507F0FAF82065284607F058F880
:103E1000606538BD28450020E0440020884400202B
:103E200094910308704708B509292ED8DFE801F0FE
:103E300005090D1115191D21252903F091F80068B8
:103E400008BD03F08DF84068FAE703F089F8806850
:103E5000F6E703F085F8C068F2E703F081F800693F
:103E6000EEE703F07DF84069EAE703F079F880694E
:103E7000E6E703F075F8C069E2E703F071F8006A5D
:103E8000DEE703F06DF8406ADAE70020D8E710B506
:103E90000446042131F001FB204610BD0048704764
:103EA000E09103080420704713B5002451B1036862
:103EB00001AA01948DF803409C680DF10303A0470B
:103EC00002B010BD0846FBE7C0897047008A704702
:103ED000C088704780887047807A00F07F00704704
:103EE000807AC00970470020704700009FED010AEA
:103EF000704700BF00000000704710B5044608215D
:103F000031F0CBFA204610BD7047704700F598732A
:103F10000868496803C3704770477047416070473D
:103F200070470000064BC0F84801C0F84C31002330
:103F3000C0F8503100F5A273C0F84031704700BF9F
:103F4000314100080123037270477047704710B475
:103F500041680346C2689B68541001EB6200D207B7
:103F600048BF0A595DF8044B48BFD3581847034669
:103F7000406830B19A681AB9D86800F001007047FB
:103F80000120704710B504460C2131F086FA204616
:103F900010BD10B50446102131F07FFA204610BD47
:103FA00010B504464FF4AE7131F077FA204610BDDB
:103FB00010B51DF07DFC0368BDE81040DB6B1847B1
:103FC00010B50446D0F8400158B10368DB68984743
:103FD00038B1D4F8400103689B6898470023C4F8BF
:103FE000403110BD2DE9F14FD0E9556A0746B06860
:103FF00003681B6A984742F6DF43984205D8444B52
:10400000A321444A444832F08FF9706803681B6A60
:1040100098470F2803D8414BA4213E4AF2E7F068A5
:1040200003681B6A98470B2803D83D4BA521394AE2
:10403000E8E7DFF8F4901DF03BFC04301DF076FC5F
:10404000D9F8000010B10368DB689847D9F8000080
:1040500010B103681B689847DFF8D080D8F80000DB
:1040600010B103685B699847D7F83C0110B1036849
:104070005B689847D8F8000010B103681B68984740
:10408000D7F83C0110B103689B689847F06800219D
:104090004FF0000B03685B6A9847224B0446C0F858
:1040A00004B080F808B059460360B06803685B6AE2
:1040B0009847054603F0ACFA7068594603685B6A96
:1040C00098470646294603F081FA331DC7F83C613C
:1040D0002846C9F80040C8F80050CAF800302B68DC
:1040E000C6F808A0DB68EE639847336830461B6863
:1040F0009847214628461FF005FD236820461B6986
:104100009847236820465B6901B0BDE8F04F184727
:1041100040920308CE9203089C930308E39303089C
:1041200086940308709603081483012010830120ED
:104130002DE9F14FD0E9556A0746B06803681B6A5C
:10414000984742F26363984205D8444BA321444AFE
:10415000444832F0E9F8706803681B6A98470F28F2
:1041600003D8414BA4213E4AF2E7F06803681B6A7A
:1041700098470B2803D83D4BA521394AE8E7DFF8DB
:10418000F4901DF095FB04301DF0D0FBD9F8000031
:1041900010B10368DB689847D9F8000010B10368D4
:1041A0001B689847DFF8D080D8F8000010B103688A
:1041B0005B699847D7F83C0110B103685B68984782
:1041C000D8F8000010B103681B689847D7F83C0185
:1041D00010B103689B689847F06800214FF0000B0E
:1041E00003685B6A9847224B0446C0F804B080F825
:1041F00008B059460360B06803685B6A9847054693
:1042000002F0AAFF7068594603685B6A9847064641
:10421000294602F07FFF331DC7F83C612846C9F8E4
:104220000040C8F80050CAF800302B68C6F808A053
:10423000DB68EE639847336830461B689847214631
:1042400028461FF05FFC236820461B6998472368B7
:1042500020465B6901B0BDE8F04F18474092030863
:10426000299503089C930308E393030886940308A5
:10427000709603081483012010830120044B1B68EF
:1042800093F858200AB1D86C00B99868704700BFFD
:10429000CC820120F8B5174604460E461DF018FCE6
:1042A000124B00251C602946114B2360114BC4E9B9
:1042B0005135114B1868C4E953550368C4E94F558B
:1042C0009B68C4E955769847284602F0FDFDFFF744
:1042D000D5FF28F02EF9FFF7D1FF28F0A5F9FFF759
:1042E000CDFF28F0ADF92046F8BD00BF20830120A6
:1042F0001C96030804960308CC820120064BC0F8E4
:104300004801C0F84C310023C0F8503100F5A273C9
:10431000C0F84031704700BF31410008064BC0F87B
:104320004801C0F84C310023C0F8503100F5A273A9
:10433000C0F84031704700BFE53F0008406A704751
:10434000806A704770478B88C069DB0A0A6850F83A
:1043500023001044704710B50446BAB1107B68B111
:10436000537BD27A1B0203F4E0631A43236A03EB04
:1043700082031A888A4202D193F9020010BD05D83F
:104380000138043380B20028F3D1F7E70020F5E7C5
:1043900010B504462C2131F080F8204610BD0000F5
:1043A00030B58BB00446BDF860500895BDF85C5040
:1043B00007959DF8505006959DF84C5005959DF831
:1043C000485004959DF8445003959DF8405002953F
:1043D0009DF83C500195BDF8385000951EF0FCFE4C
:1043E000064B20462360159BE361169B2362199BB5
:1043F00063621A9BA3620BB030BD00BF94960308A2
:104400007047704770477047704730B585B0036894
:10441000044601816D460146D3F884303C34284679
:10442000984795E8070084E8070005B030BD30B52F
:1044300085B00368044641816D460146D3F8843057
:104440003C342846984795E8070084E8070005B003
:1044500030BD0022028042808280C280704780F896
:1044600036107047036870B504461B6B15469847B5
:104470002368204629465B6EBDE87040184700203F
:104480007047806C70477047704710B504464C21E8
:1044900031F003F8204610BD034B10B5044603600D
:1044A0001BF0F2FC204610BD44990308064B10B5E2
:1044B000044603601BF0E8FC42F26461204630F0E1
:1044C000ECFF204610BD00BF4499030808B51DF05D
:1044D000EFF9BDE80840FFF721BF08B5FFF77EF907
:1044E00008BD0000036870B55E6B0446114B8DB2C9
:1044F0001B682BB9104B6C21104A114831F014FF86
:104500001049828D0988914203D80F4B6D210B4AC7
:10451000F3E713F812200D4B1B6853F822000368D1
:104520001B6B9847291A3346204609B2BDE87040F4
:10453000184700BF24830120F49603083697030828
:104540007197030828830120B89703082C83012062
:10455000036870B504461B6B1546984723682046D0
:1045600029465B6BBDE87040184770B504461D4690
:10457000BDF91060FFF7ECFF2368294620469B6BCE
:104580009847236831462046DB6BBDE870401847EA
:104590000022C0E90122C0E90322C0E90522C0E9E6
:1045A00007224FF480728284014A0260704700BF84
:1045B0004C98030838B504460D462622002132F0F7
:1045C0006FF92046FFF7E4FF064B2046294623609B
:1045D0002B88E384FF2384F828301AF050FD20460E
:1045E00038BD00BF80C8030800224FF0FF31826051
:1045F000C0E90021704710B50446FFF7F5FF2046DB
:1046000010BD000010B504460021262232F048F902
:104610002046FFF7BDFF094B4FF47F0204F13C0039
:104620002360074BA3624FF6FF73A3850023C4E901
:104630000C322387FFF7D8FF204610BDA0C6030821
:104640003892030810B50446FFF7DCFF024B204602
:1046500023600023A36410BDB49803082DE9F04F34
:104660000446A7B000271FF0A1F8A046A64B2622BB
:104670003946E76304F16C0648F8403B404632F0A7
:104680000FF94046FFF784FFA04B04F5037930464D
:104690002364FF23A7664FF6FF7584F866304FF456
:1046A000887A1AF03BFB4846FFF7CCFF04F51673F7
:1046B00004F6B81B18460393FFF7C4FF04F52973EB
:1046C00018460493FFF7BEFF04F53C731846109399
:1046D000FFF798FF04F54E7318460593FFF7B2FFF6
:1046E00004F5617318460693FFF7ACFF04F5747385
:1046F00018461193FFF7A6FF04F21C4318461293C5
:10470000FFF7A0FF04F58D6318461393FFF79AFF98
:1047100004F2B44318461493FFF794FF04F5A06322
:1047200018461593FFF78EFF04F24C531846169364
:10473000FFF788FF04F5B36318461793FFF782FF6E
:1047400004F2E45318460793FFF75CFF04F22C636E
:1047500018460893FFF756FF04F27463184609934E
:10476000FFF750FF04F2BC6318460A93FFF74AFFB5
:1047700004F2047318460B93FFF744FF04F24C73E2
:1047800018460C93FFF73EFF04F2947318461893F3
:10479000FFF758FF04F5FC6318461993FFF752FF23
:1047A00004F62C0318460D93FFF72CFF04F6740350
:1047B00018460E93FFF726FF04F6BC0318460F9326
:1047C000FFF720FF04F6041323A9ADF88C50184618
:1047D0001A93FFF7EFFE04F5136323A9ADF88C508D
:1047E00018461B93FFF7E6FE04F65C13251D1846DA
:1047F0001C9318F07FFD04F6A41318461D93FFF7D1
:1048000073F9434B4FF4E15104F64420C4F8A43942
:104810002433C4F8B079C4F8AC391BF02BFB3A460A
:1048200040464FF4F0733946CDF800A0FFF79DFEE7
:104830004FF07F4341462846A3664FF0FF3815F0FE
:10484000EFFF304623A9ADF88C7015F07BFF4FF4D5
:10485000F07330463A463946CDF800A0FFF785FEA2
:1048600030468822F0211AF004FB304664226FF0B3
:10487000B3011AF083FB3B4642F2283230463946F8
:10488000009715F00CFE30463946DFF89CA01AF070
:104890001FFB86230822304602211AF0D5FA304643
:1048A00001211AF073FA304601211AF072FA3146EA
:1048B00028461EAE15F0B4FFB022FD214846FFF792
:1048C00047FED4F80C3249463046D3F88430C4F859
:1048D0003C82A4F84072984704F5127396E80700EA
:1048E00083E80700DAF800302BB90A4B60210A4A46
:1048F0000A4831F019FD0A4B1B88402B16D8094B8A
:104900006121054AF4E700BF4499030830C7030852
:104910008CC30308F4960308F697030871970308FD
:1049200028830120B897030824830120D24B40211B
:10493000186802F005FBD14A03460521584620F0CD
:10494000F3FB4846C4F854B21AF02AF9DFF834B33E
:104950006523484623A9CDF88CB0ADF890301AF005
:104960003FF94946284615F05BFFB0224FF48F719E
:104970000398FFF7EDFDD4F8583203993046D3F889
:10498000843004F6C219C4F88882A4F88C7298475F
:1049900004F5257396E8070083E80700DAF800308D
:1049A000002BA2D0B64A1388412BA8D9B24B412183
:1049B000186802F0C5FAB14A03460521484620F0BE
:1049C000B3FB0398C4F8A09204F6CC191AF0E8F8E7
:1049D000642323A90398ADF89030CDF88CB01AF079
:1049E000FFF80399284615F01BFFDF22FC210498ED
:1049F000FFF7AEFDD4F8A43204993046D3F88430E2
:104A0000C4F8D482A4F8D872984704F5387396E8AD
:104A1000070083E80700DAF80030002B3FF465AFA9
:104A2000974A1388422B7FF66AAF934B422118684E
:104A300002F086FA914A03460521484620F074FBAD
:104A40000498C4F8EC9204F6D6191AF0A9F8632376
:104A500023A90498ADF89030CDF88CB01AF0C0F8C6
:104A60000499284615F0DCFEE02240F22D11109842
:104A7000FFF76EFD10993046C4F82083A4F8247324
:104A800019F014FE04F54B7396E8070083E807005D
:104A9000622323A91098ADF89030CDF88CB01AF0AD
:104AA0009FF81099284615F0BBFE0822182105989A
:104AB000FFF74EFDD4F8383305993046D3F88430EB
:104AC000C4F86883A4F86C73984704F55D7396E89E
:104AD000070083E80700DAF80030002B3FF405AF49
:104AE000674A1388472B7FF60AAF634B4721186844
:104AF00002F026FA614A03460521484620F014FBDD
:104B00000598C4F880931AF04BF8612323A90598FF
:104B1000ADF89030CDF88CB01AF062F805992846BF
:104B200015F07EFE862212210698FFF711FDD4F8BB
:104B3000843330460699D3F88430C4F8B483A4F89B
:104B4000B873984704F5707396E8070083E8070088
:104B5000DAF8003004F51E66002B3FF4C6AE484A72
:104B60001388452B7FF6CBAE434B45214FF0FF3AE0
:104B70004FF00009186802F0E3F9404A03460521A6
:104B80003046DFF8048120F0CFFA0698C4F8CC63F1
:104B900023AE1AF005F8592331460698ADF8903047
:104BA000CDF88CB01AF01CF80699284615F038FE9E
:104BB000472213211198FFF7CBFC3046C4F800A41C
:104BC00004F6EA1BA4F80494FFF70EFD04F20C436C
:104BD00096E8070083E80700D8F80030002B3FF480
:104BE00084AE274F3B88462B7FF689AE224B462169
:104BF000186802F0A5F9214A03460521584620F01D
:104C000093FA1198C4F818B404F6F41B19F0C8FF0D
:104C10001C495E23119823913146ADF8903019F06C
:104C2000DFFF1199284615F0FBFDE522422112987D
:104C3000FFF78EFC3046C4F84CA4A4F85094FFF75C
:104C4000D3FC04F58B6396E8070083E80700D8F8E7
:104C50000030002B3FF449AE3B88432B7FF64FAE2C
:104C6000054B4321186802F06BF9044A03460521FD
:104C7000584620F059FA09E03083012088B603082D
:104C80002883012038920308248301201298C4F855
:104C900064B404F6FE1B19F083FFD7495123129820
:104CA00023913146ADF8903019F09AFF12992846B9
:104CB00015F0B6FDC72242211398FFF749FC304694
:104CC000C4F898A4A4F89C94FFF78EFC04F2A443C3
:104CD00096E8070083E80700D8F80030002B3FF47F
:104CE00004AE3B88442B7FF60AAEC44B44211868BF
:104CF00002F026F9C24A03460521584620F014FA6C
:104D00001398C4F8B0B419F04BFFBB495023139863
:104D100023913146ADF8903019F062FF139928467F
:104D200015F07EFD082240F2A3111498FFF710FC45
:104D3000C4F8E4A43046A4F8E894FFF755FC04F561
:104D40009E6304F6082A96E8070083E80700D8F86F
:104D50000030002B3FF4C9AD3B884D2B7FF6CFAD23
:104D6000A64B4D21186802F0EBF8A54A0346052131
:104D7000504620F0D9F91498C4F8FCA419F010FF9B
:104D80009D495823149823913146ADF8903019F07D
:104D900027FF1499284615F043FD86224FF4CC7165
:104DA0001598FFF7D5FB6FF0FF033046A4F8349554
:104DB000C4F83035FFF718FC04F23C5396E80700BE
:104DC00083E80700D8F8003004F61226002B3FF4E1
:104DD0008CAD3B88492B7FF692AD884B492123AFA0
:104DE000DFF8149218684FF0000802F0A9F8844A1E
:104DF000034605213046DFF810B220F095F91598EA
:104E0000C4F8486504F61C2619F0CAFE5C2339462E
:104E10001598ADF89030CDF88C9019F0E1FE159909
:104E2000284615F0FDFC472240F2A3111698FFF723
:104E30008FFB6FF0FF033846A4F88085C4F87C35FB
:104E4000FFF7D2FB04F5B16397E8070083E807009A
:104E5000DBF80030002B3FF448AD6A4A13884B2B37
:104E60007FF64DAD654B4B214FF0FF3A186802F0CD
:104E700067F8634A03460521304620F055F9169835
:104E8000C4F8946504F6262619F08AFE572339469D
:104E90001698ADF89030CDF88C9019F0A1FE1699C7
:104EA000284615F0BDFCC72240F289111798FFF77C
:104EB0004FFB3846C4F8C8A5A4F8CC85FFF794FB8F
:104EC00004F2D45397E8070083E80700DBF80030CA
:104ED000002B3FF40AAD4B4A1388482B7FF60FADE9
:104EE000464B4821186802F02BF8454A0346052135
:104EF000304620F019F91798C4F8E0651EAE19F095
:104F00004FFE5B2339461798ADF89030CDF88C9062
:104F100019F066FE1799284615F082FC3722092100
:104F20000798FFF715FB07993046C4F814A6A4F8B4
:104F3000188619F0BBFB079901F13C0396E80700BE
:104F400083E80700602339460798ADF89030CDF824
:104F50008C9019F045FE0799284615F061FCB322A4
:104F600009210898FFF7F4FA08993046C4F85CA6BE
:104F7000A4F8608619F09AFB089901F13C0396E8C1
:104F8000070083E80700562339460898ADF89030AB
:104F9000CDF88C9019F024FE0899284615F040FCB5
:104FA000F72209210998FFF7D3FA09993046C4F886
:104FB000A4A6A4F8A88619F079FB099901F13C038D
:104FC00096E8070083E80700532339460998ADF8AF
:104FD0009030CDF88C9019F003FE0999284615F011
:104FE0001FFCDB2209210A98FFF7B2FA0A99304622
:104FF000C4F8ECA60AE000BF389203083083012011
:1050000088B603082883012024830120A4F8F086B1
:1050100019F04CFB0A9901F13C0396E8070083E87C
:105020000700522339460A98ADF89030CDF88C909D
:1050300019F0D6FD0A99284615F0F2FB75220921D0
:105040000B98FFF785FA0B993046C4F834A7A4F8FB
:10505000388719F02BFB0B9901F13C0396E8070008
:1050600083E807005F2339460B98ADF89030CDF800
:105070008C9019F0B5FD0B99284615F0D1FB37221D
:105080004FF4B9710C98FFF763FA0C993046C4F8E5
:105090007CA7A4F8808719F009FB0C9901F13C0367
:1050A00096E8070083E80700552339460C98ADF8C9
:1050B0009030CDF88C9019F093FD0C99284615F09E
:1050C000AFFB232240F28B111898FFF741FA3846C4
:1050D000C4F8C4A7A4F8C887FFF786FA04F5FA63F2
:1050E00097E8070083E8070004F52361DBF8003048
:1050F0000391002B3FF4F9AB8D4A13884C2B7FF6BC
:10510000FEAB8C4B4C21186801F01AFF8A4A03460B
:105110000521039820F008F803991898C4F8DC17C3
:1051200019F03EFD4F2339461898ADF89030CDF870
:105130008C9019F055FD1899284615F071FB6222E4
:1051400040F28B111998FFF703FA3846C4F810A8FB
:10515000A4F81488FFF748FA04F61C0397E8070040
:1051600083E8070004F63A21DBF800300391002BB6
:105170003FF4BBAB6E4A13884A2B7FF6C0AB6D4B36
:105180004A21186801F0DCFE6B4A034605210398AA
:105190001FF0CAFF039B1998C4F8283819F000FDC6
:1051A0004E2339461998ADF89030CDF88C9019F00F
:1051B00017FD1999284615F033FBB3220D9840F2DC
:1051C0007711FFF7C5F90D993046C4F85CA8A4F82B
:1051D000608819F06BFA0D9B96E807003C33CDF818
:1051E0008C9083E807005D2339460D98ADF8903028
:1051F00019F0F6FC0D99284615F012FB75220E9851
:1052000040F28111FFF7A4F90E993046C4F8A4A822
:10521000A4F8A88819F04AFA0E9B96E807003C33D8
:10522000CDF88C9083E80700542339460E98ADF8EA
:10523000903019F0D5FC0E99284615F0F1FAF522B8
:105240000F984FF4B771FFF783F90F993046C4F800
:10525000ECA8A4F8F08819F029FA0F9B96E807004B
:105260003C33CDF88C9083E807005A2339460F98D9
:10527000ADF8903019F0B4FC0F99284615F0D0FA2B
:105280003C221A98D821FFF763F9032339461A986C
:10529000ADF88C3019F0F3FE1A99284615F0C0FAD3
:1052A0006C221B984FF48671FFF752F9012339469F
:1052B0001B98ADF88C3019F0E2FE1B99284615F0CA
:1052C000AFFA4FF48873424641461C9800934FF45E
:1052D000F073FFF74AF94FF4F05328461C99C4F8CD
:1052E00088394FF48853C4F89C89C4F88C394FF43A
:1052F0000C53C4F89489C4F890394FF4345384F8AB
:105300008189C4F898394FF0FF23C4F8B0394FF4BD
:10531000FC63A4F8B4391D9BC4F88439842384F851
:10532000823915F07DFA204627B0BDE8F08F00BF26
:10533000288301203083012088B6030870470000CD
:10534000034B10B5044603601AF09EFD204610BDC5
:105350007C990308064B10B5044603601AF094FDCF
:1053600042F6E041204630F098F8204610BD00BFDC
:105370007C99030808B51CF09BFABDE80840FEF7CD
:10538000BDBF000010B504462622002131F088FA86
:105390002046FFF7FDF8044B20462360FF2384F8E6
:1053A00026300023A36210BD30C7030810B4C46BBD
:1053B0004A01B4EB411F04D05DF8044BC26318F0FE
:1053C000C7BE5DF8044B70472DE9F04F0446BFB0EF
:1053D00000271EF0EBF92646DC4B04F16C0A04F1C1
:1053E000980BE7634FF4887946F8403B3046FFF767
:1053F000C9FF5046FFF7C6FF5846FFF723F904F1EF
:10540000E403D34D18460893FFF71CF904F598738D
:1054100005F1240818460993FFF714F904F5BE7343
:1054200018460A93FFF70EF904F5E47318460B9338
:10543000FFF708F904F5057318460393FFF702F91F
:1054400004F5187318460493FFF7FCF804F52B7362
:1054500018462793FFF7F6F804F53E73184628938D
:10546000FFF7F0F804F5517318462993FFF7EAF8AF
:1054700004F5647318462A93FFF7E4F804F577738C
:1054800018462B93FFF7DEF804F5856318462C9336
:10549000FFF7D8F804F2744318462D93FFF7D2F8BB
:1054A00004F5986318462E93FFF7CCF804F20C53DA
:1054B00018460C93FFF7A6F804F2545318460D93C0
:1054C000FFF7A0F804F29C5318462F93FFF7BAF8A1
:1054D00004F5BD6318463093FFF7B4F804F2346363
:1054E00018460E93FFF78EF804F27C6318460F936C
:1054F000FFF788F804F2C46318461093FFF782F8A8
:1055000004F20C7318461193FFF77CF804F25473FD
:1055100018461293FFF776F804F29C73184613931B
:10552000FFF770F804F2E47318461493FFF76AF873
:1055300004F62C0318461593FFF764F804F6740379
:1055400018461693FFF75EF804F6BC03184631932D
:10555000FFF778F804F6081318463293FFF772F84D
:1055600004F6541318461793FFF74CF804F69C13EF
:1055700018461893FFF746F804F6E41318461993F3
:10558000FFF740F804F62C2318461A93FFF73AF871
:1055900004F6742318461B93FFF734F804F6BC2373
:1055A00018461C93FFF72EF804F6043318461D9393
:1055B000FFF728F804F64C3318461E93FFF722F83D
:1055C00004F6943318461F93FFF71CF804F6DC33F7
:1055D00018462093FFF716F804F624431846219343
:1055E000FFF710F804F66C4318462293FFF70AF809
:1055F00004F6B44318462393FFF704F804F6FC437B
:105600001846059318F084FD04F66C53184633933E
:10561000FEF76AFA04F55863C4F86C5D1846C4F8DE
:10562000748DC4F8787D069318F072FD04F55F63FD
:1056300018463493FEF758FA04F60463C4F8F05D94
:105640001846C4F8F88DC4F8FC7D2493FEF7DAFF01
:1056500004F64C6318462593FEF7D4FF04F69463D2
:105660001846079318F054FD04F604731846359352
:10567000FEF73AFA04F61873C4F8045F4FF6FF75A4
:10568000262239461846C4F80C8FC4F8107F4FF014
:105690007F482693ADF8EC5031F002F92698FEF7DA
:1056A00077FF2C4B3BA92698C4F8183FBDF8EC3087
:1056B00084F8405F251DA4F83E3F19F0E0FC4FF44C
:1056C000E15104F586501AF0D5FB4FF4F0733A46D9
:1056D00030463946CDF80090FEF747FF3146284660
:1056E000C4F8688015F09CF84FF4F0733A463946D8
:1056F0005046CDF80090FEF738FF51462846C4F8D2
:10570000948015F08DF81B225C215846FEF720FF8F
:105710004FF0FF3336AE5946C4F8C83004F644792A
:10572000D4F898303046A4F8CC70D3F88430984739
:10573000DFF8288004F1D40396E8070083E8070027
:10574000D8F8003083B9044B602109E07C99030844
:105750008CC3030880C80308F4960308248301203F
:10576000064A074830F0E0FDDFF81CA0BAF8003028
:10577000152B0BD8034B6121004AF2E7F69703087B
:1057800071970308B897030828830120D64B152189
:10579000186801F0D5FBD54A03460A2148461FF098
:1057A000C3FC5846C4F8E09019F0FAF9DFF84093CA
:1057B0003F2358463BA9CDF8EC90ADF8F03019F0F6
:1057C0000FFA5946284615F02BF81B22A6210898F7
:1057D000FEF7BEFE4FF0FF32D4F8E43030460899B1
:1057E00004F6587BD3F88430C4F81421A4F8187157
:1057F000984704F5907396E8070083E80700D8F807
:105800000030002B9FD0BAF80030142BB2D9B64B21
:105810001421186801F094FBB44A03460A21584643
:105820001FF082FC0898C4F82CB104F66C7B19F0C8
:10583000B7F91C233BA90898ADF8F030CDF8EC90EF
:1058400019F0CEF90899284614F0EAFF35226C21A8
:105850000998FEF77DFE4FF0FF32D4F83031304624
:105860000999D3F88430C4F86021A4F8647198478A
:1058700004F5B67396E8070083E80700D8F800300F
:10588000002B3FF460AFBAF80030132B7FF672AFF5
:10589000954B1321186801F053FB944A03460A21E3
:1058A00058461FF041FC0998C4F878B104F5786BAC
:1058B00019F076F93C233BA90998ADF8F030CDF802
:1058C000EC9019F08DF90999284614F0A9FF3522BA
:1058D000B6210A98FEF73CFE4FF0FF32D4F87C3137
:1058E00030460A99D3F88430C4F8AC21A4F8B071DA
:1058F000984704F5DC7396E8070083E80700D8F8BA
:105900000030002B3FF41FAFBAF80030122B7FF6A7
:1059100031AF754B1221186801F012FB734A034630
:105920000A2158461FF000FC0A98C4F8C4B119F0C7
:1059300037F91B233BA90A98ADF8F030CDF8EC906D
:1059400019F04EF90A99284614F06AFF1A2240F21B
:10595000A3110B98FEF7FCFD4FF0FF32D4F8C831CD
:1059600030460B99D3F88430C4F8F821A4F8FC71C0
:10597000984704F5017396E8070083E80700D8F814
:10598000003004F69476002B3FF4DDAEBAF8003018
:105990000E2B7FF6EFAEDFF850B10E2136AF4FF091
:1059A000000ADBF8000001F0CBFA504A03460A2156
:1059B00030461FF0B9FB0B98C4F810623BAE19F0EB
:1059C000EFF83A2331460B98ADF8F030CDF8EC9073
:1059D00019F006F90B99284614F022FF1A224FF409
:1059E000AC710398FEF7B4FD4FF0FF32D4F81432D7
:1059F00038460399D3F88430C4F84422A4F848A266
:105A00009847039ADFF8EC9002F13C0397E807000F
:105A100083E8070004F6A872D9F800300892002B3A
:105A20003FF491AEDFF8D080B8F800300F2B7FF64E
:105A3000A1AE0F21DBF8000001F082FA0A21034633
:105A40002A4A08981FF070FB089A0398C4F85C2251
:105A500019F0A6F8264B314603983B932223ADF864
:105A6000F03019F0BDF80399284614F0D9FE382219
:105A700040F2A3110498FEF76BFD4FF0FF32D4F80B
:105A8000603238460499D3F88430C4F89022A4F8E0
:105A900094A29847049A02F13C0397E8070083E830
:105AA0000700D9F8003004F6BC77002B3FF44BAE6A
:105AB000B8F800300C2B7FF65DAE0C21DBF800004F
:105AC00001F03EFA094A03460A2138461FF02CFB32
:105AD0000498C4F8A872382719F062F8044B3146CC
