:020000040800F2
:1000000000000520ED200008FD1F0008FF1F00086C
:10001000012000080320000805200008000000005F
:10002000000000000000000000000000C1AF000858
:10003000072000080000000061B00008C5B00008FB
:100040003D2100083D2100083D2100083D21000818
:100050003D2100083D2100083D2100083D21000808
:100060003D2100083D2100083D2100083D210008F8
:100070003D2100083D2100083D2100083D210008E8
:100080003D2100083D2100083D2100083D210008D8
:10009000092000083D2100083D2100083D210008FD
:1000A0003D2100083D2100083D2100083D210008B8
:1000B0003D2100083D2100083D2100083D210008A8
:1000C0003D2100083D2100083D2100083D21000898
:1000D0003D2100083D2100083D2100083D21000888
:1000E0003D2100083D2100083D2100083D21000878
:1000F0003D2100083D2100083D2100083D21000868
:100100003D2100083D2100083D2100083D21000857
:100110003D2100083D210008152000083D21000870
:100120003D2100083D2100083D2100083D21000837
:100130003D2100083D2100083D2100083D21000827
:100140003D2100083D2100083D2100083D21000817
:100150003D2100083D2100083D2100083D21000807
:100160003D2100083D2100083D2100083D210008F7
:100170003D2100083D2100083D210008000000004D
:100180003D2100083D2100083D2100083D210008D7
:100190003D2100083D2100083D2100083D210008C7
:1001A000212000083D2100082D2000083D210008E5
:1001B0003D2100083D2100083D2100083D210008A7
:0801C0003D2100083D2100086B
:1001D00010B5054C237833B9044B13B10448AFF381
:1001E00000800123237010BD4003002000000000A8
:1001F0006C70030808B5034B1BB103490348AFF308
:10020000008008BD00000000440300206C7003085B
:1002100001F0FF01102A2BDB10F0070F08D010F8B7
:10022000013B013A8B422DD010F0070F42B3F6D1BB
:10023000F0B441EA012141EA014122F007047FF0D4
:1002400000070023F0E80256083C85EA010586EA2B
:10025000010685FA47F5A3FA87F586FA47F6A5FA67
:1002600087F68EB9EED1F0BC01F0FF0102F0070273
:1002700032B110F8013B013A83EA010313B1F8D11E
:100280000020704701387047002D06BF35460338FF
:10029000073815F0010F07D1013015F4807F02BF38
:1002A000013015F4C03F0130F0BC0138704700BF89
:1002B00081F0004102E000BF83F0004330B54FEA17
:1002C00041044FEA430594EA050F08BF90EA020F84
:1002D0001FBF54EA000C55EA020C7FEA645C7FEA17
:1002E000655C00F0E2804FEA5454D4EB5555B8BF3A
:1002F0006D420CDD2C4480EA020281EA030382EAAB
:10030000000083EA010180EA020281EA0303362D3C
:1003100088BF30BD11F0004F4FEA01314FF4801C0F
:100320004CEA113102D0404261EB410113F0004F21
:100330004FEA03334CEA133302D0524263EB4303D8
:1003400094EA050F00F0A780A4F10104D5F1200E76
:100350000DDB02FA0EFC22FA05F2801841F10001D1
:1003600003FA0EF2801843FA05F359410EE0A5F1A5
:1003700020050EF1200E012A03FA0EFC28BF4CF0D6
:10038000020C43FA05F3C01851EBE37101F000458C
:1003900007D54FF0000EDCF1000C7EEB00006EEB99
:1003A0000101B1F5801F1BD3B1F5001F0CD3490823
:1003B0005FEA30004FEA3C0C04F101044FEA44527A
:1003C00012F5800F80F09A80BCF1004F08BF5FEA01
:1003D000500C50F1000041EB045141EA050130BDE1
:1003E0005FEA4C0C404141EB0101013C28BFB1F5F3
:1003F000801FE9D291F0000F04BF01460020B1FA3E
:1004000081F308BF2033A3F10B03B3F120020CDA10
:100410000C3208DD02F1140CC2F10C0201FA0CF0EE
:1004200021FA02F10CE002F11402D8BFC2F1200C53
:1004300001FA02F120FA0CFCDCBF41EA0C01904009
:10044000E41AA2BF01EB0451294330BD6FEA040452
:100450001F3C1CDA0C340EDC04F11404C4F120023D
:1004600020FA04F001FA02F340EA030021FA04F34F
:1004700045EA030130BDC4F10C04C4F1200220FAA6
:1004800002F001FA04F340EA0300294630BD21FAE4
:1004900004F0294630BD94F0000F83F4801306BFAA
:1004A00081F480110134013D4EE77FEA645C18BF9E
:1004B0007FEA655C29D094EA050F08BF90EA020F35
:1004C00005D054EA000C04BF1946104630BD91EA2D
:1004D000030F1EBF0021002030BD5FEA545C05D130
:1004E0004000494128BF41F0004130BD14F580046F
:1004F0003CBF01F5801130BD01F0004545F0FE41E3
:1005000041F470014FF0000030BD7FEA645C1ABF17
:10051000194610467FEA655C1CBF0B46024650EA4E
:10052000013406BF52EA033591EA030F41F400217A
:1005300030BD00BF90F0000F04BF0021704730B500
:100540004FF4806404F132044FF000054FF00001D5
:1005500050E700BF90F0000F04BF0021704730B596
:100560004FF4806404F1320410F0004548BF40426B
:100570004FF000013EE700BF42004FEAE2014FEAC0
:1005800031014FEA02701FBF12F07F4393F07F4F9B
:1005900081F06051704732F07F4208BF704793F09E
:1005A0007F4F04BF41F40021704730B54FF46074B1
:1005B00001F0004521F000411CE700BF50EA0102B4
:1005C00008BF704730B54FF000050AE050EA01025D
:1005D00008BF704730B511F0004502D5404261EBCD
:1005E00041014FF4806404F132045FEA915C3FF40E
:1005F000D8AE4FF003025FEADC0C18BF03325FEAAB
:10060000DC0C18BF033202EBDC02C2F1200300FA5B
:1006100003FC20FA02F001FA03FE40EA0E0021FA80
:1006200002F11444BDE600BF70B54FF0FF0C4CF46E
:10063000E06C1CEA11541DBF1CEA135594EA0C0F20
:1006400095EA0C0F00F0DEF82C4481EA030621EA5B
:100650004C5123EA4C5350EA013518BF52EA033596
:1006600041F4801143F4801338D0A0FB02CE4FF048
:100670000005E1FB02E506F00042E0FB03E54FF078
:100680000006E1FB03569CF0000F18BF4EF0010E70
:10069000A4F1FF04B6F5007F64F5407404D25FEA6C
:1006A0004E0E6D4146EB060642EAC62141EA55511F
:1006B0004FEAC52040EA5E504FEACE2EB4F1FD0C61
:1006C00088BFBCF5E06F1ED8BEF1004F08BF5FEADF
:1006D000500E50F1000041EB045170BD06F0004691
:1006E00046EA010140EA020081EA0301B4EB5C043E
:1006F000C2BFD4EB0C0541EA045170BD41F4801136
:100700004FF0000E013C00F3AB8014F1360FDEBF5A
:10071000002001F0004170BDC4F10004203C35DA36
:100720000C341BDC04F11404C4F1200500FA05F3B9
:1007300020FA04F001FA05F240EA020001F000425A
:1007400021F0004110EBD37021FA04F642EB0601D0
:100750005EEA430E08BF20EAD37070BDC4F10C04FA
:10076000C4F1200500FA04F320FA05F001FA04F2BE
:1007700040EA020001F0004110EBD37041F10001AA
:100780005EEA430E08BF20EAD37070BDC4F12005B5
:1007900000FA05F24EEA020E20FA04F301FA05F21D
:1007A00043EA020321FA04F001F0004121FA04F2C5
:1007B00020EA020000EBD3705EEA430E08BF20EA95
:1007C000D37070BD94F0000F0FD101F000464000CF
:1007D00041EB010111F4801F08BF013CF7D041EA51
:1007E000060195F0000F18BF704703F00046520055
:1007F00043EB030313F4801F08BF013DF7D043EA26
:100800000603704794EA0C0F0CEA135518BF95EADB
:100810000C0F0CD050EA410618BF52EA4306D1D162
:1008200081EA030101F000414FF0000070BD50EA81
:10083000410606BF1046194652EA430619D094EA0B
:100840000C0F02D150EA013613D195EA0C0F05D1F5
:1008500052EA03361CBF104619460AD181EA030149
:1008600001F0004141F0FE4141F470014FF0000001
:1008700070BD41F0FE4141F4780170BD70B54FF09C
:10088000FF0C4CF4E06C1CEA11541DBF1CEA13551C
:1008900094EA0C0F95EA0C0F00F0A7F8A4EB0504FE
:1008A00081EA030E52EA03354FEA013100F08880F5
:1008B0004FEA03334FF0805545EA131343EA1263BE
:1008C0004FEA022245EA111545EA10654FEA002673
:1008D0000EF000419D4208BF964244F1FD0404F52C
:1008E000407402D25B084FEA3202B61A65EB030588
:1008F0005B084FEA32024FF480104FF4002CB6EB45
:10090000020E75EB030E22BFB61A754640EA0C00C4
:100910005B084FEA3202B6EB020E75EB030E22BF04
:10092000B61A754640EA5C005B084FEA3202B6EB45
:10093000020E75EB030E22BFB61A754640EA9C0004
:100940005B084FEA3202B6EB020E75EB030E22BFD4
:10095000B61A754640EADC0055EA060E18D04FEA92
:10096000051545EA16754FEA06164FEAC30343EA32
:1009700052734FEAC2025FEA1C1CC0D111F4801FFF
:100980000BD141EA00014FF000004FF0004CB6E7F8
:1009900011F4801F04BF01430020B4F1FD0C88BF97
:1009A000BCF5E06F3FF6AFAEB5EB030C04BFB6EBA2
:1009B000020C5FEA500C50F1000041EB045170BD95
:1009C0000EF0004E4EEA113114EB5C04C2BFD4EBC2
:1009D0000C0541EA045170BD41F480114FF0000E46
:1009E000013C90E645EA060E8DE60CEA135594EAC2
:1009F0000C0F08BF95EA0C0F3FF43BAF94EA0C0FC5
:100A00000AD150EA01347FF434AF95EA0C0F7FF439
:100A100025AF104619462CE795EA0C0F06D152EA8D
:100A200003353FF4FDAE1046194622E750EA410671
:100A300018BF52EA43067FF4C5AE50EA41047FF482
:100A40000DAF52EA43057FF4EBAE12E74FEA4102E5
:100A500012F5001215D211D56FF47873B3EB625210
:100A600012D94FEAC12343F0004343EA505311F037
:100A7000004F23FA02F018BF404270474FF00000C9
:100A8000704750EA013005D111F0004008BF6FF007
:100A9000004070474FF00000704700BF4FEA41022E
:100AA000B2F1E04324BFB3F5001CDCF1FE5C0DD9CC
:100AB00001F0004C4FEAC0024CEA5070B2F1004F16
:100AC00040EB830008BF20F00100704711F0804F19
:100AD00021D113F13872BCBF01F00040704741F4DE
:100AE00080114FEA5252C2F11802C2F1200C10FAE2
:100AF0000CF320FA02F018BF40F001004FEAC123C6
:100B00004FEAD32303FA0CFC40EA0C0023FA02F369
:100B10004FEA4303CCE77FEA625307D150EA01333F
:100B20001EBF4FF0FE4040F44000704701F000400F
:100B300040F0FE4040F40000704700BF7BB972B93E
:100B40000029BEBF00204FF0004106E008BF00288A
:100B50001CBF6FF000414FF0FF3000F0B5B9ADF1B0
:100B6000080C6DE904CE002909DB002B1ADB00F02C
:100B70004DF8DDF804E0DDE9022304B0704740429F
:100B800061EB4101002B1BDB00F040F8DDF804E0D5
:100B9000DDE9022304B0404261EB4101524263EBC4
:100BA00043037047524263EB430300F02FF8DDF834
:100BB00004E0DDE9022304B0404261EB41017047EB
:100BC000524263EB430300F021F8DDF804E0DDE975
:100BD000022304B0524263EB4303704753B94AB94E
:100BE000002908BF00281CBF4FF0FF314FF0FF3035
:100BF00000F06AB9ADF1080C6DE904CE00F006F81A
:100C0000DDF804E0DDE9022304B070472DE9F04788
:100C1000089D0C46002B4ED194468C458646B2FA70
:100C200082F262D94AB1C2F12003914020FA03F363
:100C30000CFA02FC194300FA02FE4FEA1C471FFAA5
:100C40008CF6B1FBF7F44FEA1E4307FB141143EA9D
:100C5000014304FB06F199420AD91CEB030304F19A
:100C6000FF3080F01281994240F20F81023C6344D0
:100C7000591A1FFA8EF3B1FBF7F007FB101143EA84
:100C8000014300FB06F69E420AD91CEB030300F168
:100C9000FF3180F0FC809E4240F2F98063440238CC
:100CA0009B1B40EA044000211DB1D3400022C5E94E
:100CB0000032BDE8F0878B4205D90DB1C5E90001CE
:100CC00000210846F5E7B3FA83F1002946D1A34293
:100CD00002D39042C0F0F080861A64EB0303012037
:100CE000002DE6D0C5E90063E3E7002A40F09080DC
:100CF000A1EB0C044FEA1C481FFA8CF70121B4FB4E
:100D0000F8F64FEA1E4308FB164443EA044307FB88
:100D100006F0984208D91CEB030306F1FF3402D217
:100D2000984200F2CD8026461C1A1FFA8EF3B4FBBF
:100D3000F8F008FB104443EA044300FB07F79F4226
:100D400008D91CEB030300F1FF3402D29F4200F2EA
:100D5000B0802046DB1B40EA0640A5E7C1F1200633
:100D60008B4022FA06F71F4320FA06FC04FA01F32F
:100D700043EA0C03F44000FA01F8380C4FEA134937
:100D8000B4FBF0FE1FFA87FC00FB1E4449EA044452
:100D90000EFB0CF9A14502FA01F20AD93C190EF139
:100DA000FF3A80F08480A14540F28180AEF1020ECE
:100DB0003C44A4EB09041FFA83F9B4FBF0F300FBF5
:100DC000134449EA044403FB0CFCA44507D93C192D
:100DD00003F1FF3067D2A44565D9023B3C4443EAA6
:100DE0000E40A0FB0293A4EB0C049C42CE469C4612
:100DF00051D34ED055B1B8EB0E0364EB0C0404FA9A
:100E000006F6CB401E43CC40C5E90064002150E704
:100E1000C2F1200320FA03F10CFA02FC24FA03F3D6
:100E200094400C434FEA1C4800FA02FE1FFA8CF76C
:100E3000B3FBF8F008FB1031230C43EA014300FB3D
:100E400007F1994208D91CEB030300F1FF362CD2BD
:100E500099422AD9023863445B1AA4B2B3FBF8F171
:100E600008FB113344EA034401FB07F3A34208D90A
:100E70001CEB040401F1FF3613D2A34211D902394D
:100E80006444E41A41EA004139E70446F0E60846C2
:100E900006E7C845AED2B9EB020E63EB070C01388A
:100EA000A8E73146EDE7034699E73046D4E7D64652
:100EB0007FE7634402384DE70646234608460FE7BE
:100EC000023E634430E700BF704700BF0149002085
:100ED0000BF074BAE925000808B5642009F07EFC1F
:100EE000FBE700002DE98048344E99B0344F354D72
:100EF000354C364A246810680094354C354A2468CD
:100F0000354B0194354CD2F800A02468344A029441
:100F1000344CD3F800B02468334B0394334CD2F8EC
:100F200000902468324A0494324C93F800E024681C
:100F3000314B0594314C11682468314A0694314C88
:100F400093F800C02468304B0794304CD2F80080EE
:100F500024782F4A8DF820402E4C1B682478D5ED3C
:100F6000007A8DF821402C4C1278246809943C6852
:100F70000F930023119029480A943468159169460B
:100F80008DF85C201A4600680B94CDED0C7ACDF8F4
:100F900034B08DF838E08DF839C08DF840308DF8D8
:100FA0004830CDF84CA0CDF85090CDF858800AF0DC
:100FB000E4FA282009F012FC9AE700BF840300201D
:100FC00088030020780300209C0300208C0300206D
:100FD00098030020740300201000002094030020D8
:100FE00008000020800300200D0000207C0300206A
:100FF0006C030020680300200C0000206403002024
:1010000070030020600300209003002005000020F2
:1010100006000020040000205C030020C04D0020DA
:1010200010B594B01022002102240AA835F0E0F88F
:101030001422002103A835F0DBF81D4B192108A864
:101040001A6C42F080521A641B6C03F080530193B7
:10105000019B184B1A6842F440421A6001221B6837
:1010600003F440430293029B4FF48033CDE90823FD
:101070004FF48003CDE90E434FF4C873CDE9124419
:10108000CDE9101308F07AFB08F016F80F230020C2
:101090000621CDE903344FF4A053CDE905034FF405
:1010A000805303A8079308F051FD14B010BD00BF92
:1010B00000380240007000402DE980489BB01022AB
:1010C000002101250DA84FF0104835F091F80024BB
:1010D00006F038FFC74B0DA8ADF834501094CDE999
:1010E0000E8306F04DFF17230DA88DF835508DF8AF
:1010F0003C308DF8425006F043FF042006F030FFEC
:10110000BFF34F8FBFF36F8FBB4AC2F85042BFF39C
:101110004F8FBFF36F8F536943F400335361BFF3B5
:101120004F8FBFF36F8FC2F88440BFF34F8FD2F859
:10113000803043F6E074C3F3C900C3F34E335B0160
:1011400003EA0406014646EA81750139C2F8605295
:10115000F9D2203B13F1200FF2D1BFF34F8F536927
:1011600043F480335361BFF34F8FBFF36F8F06F0AB
:1011700083FB0024FFF754FF142200210DA835F053
:1011800037F89E4B10219E481A6B01274FF010082C
:101190004FF0030B42F010024FF48059994D4FF07D
:1011A000040A1A631A6B984E02F010020292029A15
:1011B0001A6B42F002021A631A6B02F002020392E7
:1011C000039A1A6B42F001021A631A6B02F00102D1
:1011D0000492049A1A6B42F040021A631A6B02F0EE
:1011E00040020592059A1A6B42F400721A631A6B58
:1011F00002F400720692069A1A6B42F008021A6311
:101200001A6B02F008020792079A1A6B42F4806286
:101210001A631A6B02F480620892089A1A6B42F001
:1012200020021A631A6B02F020020992099A1A6BC3
:1012300042F480721A631A6B02F480720A920A9A5C
:101240001A6B42F080021A631A6B02F080020B9252
:101250000B9A1A6B42F004021A6300221B6B03F014
:1012600004030C930C9B07F0D9F90122082167486D
:1012700007F0D4F901224FF48051654807F0CEF908
:101280000022C021634807F0C9F9002240216248CA
:1012900007F0C4F90DA95A48CDE90D87CDE90F4BE8
:1012A00007F038F808230DA95848CDE90D37CDE9E6
:1012B0000F4407F02FF80DA95548CDE90D97CDE95A
:1012C0000F4407F027F8C0220DA95248CDE90D2799
:1012D000CDE90F4B07F01EF840220DA94E48CDE98D
:1012E0000D27CDE90F4B07F015F84C484C49848089
:1012F00001600762C0E9054406F06EFE49492846D0
:10130000C5E90014C5E90244C5E90A44C5E90C442D
:1013100006F001FF39462846434D06F0B5FF40234D
:101320004FF4C07241493046B460F461B462C6E91A
:1013300005324FF40062C6E908294FF0020907227E
:10134000C6E900140DA9CDF84C90C6E903A8CDE973
:101350000D92CDE90FA2CDE911B908F04DFF294654
:101360004FF6FF7230460194C5E90078C5E9027472
:1013700008F062FF384606F0A3FA29464FF6FF72DE
:101380003046C5E90098C5E9027408F055FF082306
:1013900029464FF6FF723046C5E90234C5E900B868
:1013A00008F04AFF4FF40C734FF6FF722946019381
:1013B0003046019BAF60EB60C5E900A808F03CFF38
:1013C00040F22B7130461A4D08F055FF4FF0204384
:1013D00043F2D202642040F215261A6006F070FA39
:1013E000144B154A28462C62C5E90023C5E902477B
:1013F00024E000BF1B00000300ED00E000380240C5
:10140000000402403C050020C003002000280240E8
:101410000020024000080240001802407C05002025
:101420000030024000B00240A0030020400100A0B4
:10143000E80400209B676010005C0040C5E904449C
:10144000C5E9064407F02BFA2146284607F04EFC72
:1014500021462846544D07F06FFC342221460DEBFF
:10146000020034F0C5FE514B2821352040F2352CC6
:101470002C61AC8685F83640C5E900340923C5E9FE
:1014800005130B23C5E9070340F21B132846C5E9E2
:10149000096340F21D130526C5E90BC3C5E90244E3
:1014A00007F0F6FCFF214FF4F0724FF488732846E2
:1014B0000D941893ADF864408DF866403C4DCDE92D
:1014C00012144FF48061CDE914164FF04041CDE97C
:1014D0000E24CDE9161222460DA9CDE9103907F0E8
:1014E000A2FD3448344B4FF0180E0462C0E90037B7
:1014F0004FF4A063C0E902A8C0E904E3C0E90644D0
:1015000007F0F4FE06F038F805F07EFF5C2006F0E8
:1015100007FD00F0E9FD294B2846AC61AC83C5E925
:1015200000364FF4E023C5E90244C5E9043406F06F
:10153000D9F90E230DA928461693149711941597DF
:10154000CDE91244CDE90D44CDE90F4406F046FA49
:10155000284606F0C9FA4946284606F06DFB00F019
:10156000EFFD00F0ECFD09F0ABF8154A21461548F7
:1015700009F0E0F8144B154A21461860144809F0A8
:10158000D9F8144B144A21461860144809F0D2F8CF
:10159000134B144A21461860134809F0CBF8134B3B
:1015A000186009F0A7F8FEE7400400200068014039
:1015B000A0050020F4030020001000A000640040FB
:1015C00060710308D90E0008BC0300203C710308B9
:1015D0004F210008B803002018710308B13C00082F
:1015E000B4030020F4700308E50E0008B0030020E7
:1015F000F8B5B14C0021B14D22462B462DED028BA2
:1016000006F09DFA266840F226739E4266D1A368D2
:1016100053B92369022B07D12B78012B04D1A84A97
:10162000136883F00103136040F272339E4200F0AE
:101630007381B6F5787F40F0FC80A368002B7CD1E5
:101640002369082B79D128886F8840BAAE887FBA81
:10165000EC8880B276BABFB264BAA0F6AB20B6B25C
:10166000FEF778FFA4B28EA3D3E90023FEF7DCFFD8
:10167000FFF7ECF9934B1860934B1A689042C8BF80
:101680001860A7F6AB20FEF765FF85A3D3E900231A
:10169000FEF7CAFFFFF7DAF98C4B1860A6F6AB200D
:1016A000FEF758FF7EA3D3E90023FEF7BDFFFFF747
:1016B000CDF9874B1860A4F6AB20FEF74BFF78A35B
:1016C000D3E90023FEF7B0FFFFF7C0F9814B1860A4
:1016D000814B1A68904230DD18602EE0B6F5587FD5
:1016E0002ED1A3684BBB2369082B26D12C887B4BBA
:1016F00064BAA888A4B240BA1C6080B2784B1A6859
:101700009442C8BF1C60C4F5EA54FEF723FF0C34B2
:1017100063A3D3E9002324EAE474FEF785FFFFF70F
:1017200095F9704B002C1860B8BF03346E4BA410B1
:10173000C4F1640424EAE4741C60BDEC028BF8BDBF
:1017400040F261339E4240F01581A368002B70D1B6
:101750002369082B6DD16B88DFED6E8A5BBA9FB26F
:101760002B885BBA9BB207EE903AF8EE677A67EE89
:10177000A87A17EE900AFEF7FFFE4BA3D3E90023E9
:10178000FEF79AFD4AA3D3E90023FEF74DFFFFF7CA
:1017900085F907EE907A554B08EE100AF8EE677A55
:1017A000186067EEA87A17EE900AFEF7E5FE3EA3F2
:1017B000D3E90023FEF780FD3DA3D3E90023FEF724
:1017C00033FFFFF76BF94A4B07EE900A1860434B63
:1017D0001B68B3F52F7F2CDD464A92ED007AB5EEFB
:1017E000C07AF1EE10FA04D4B4EEC78AF1EE10FA22
:1017F00001D582ED008A40F6C412934219DD3E4BBA
:1018000093ED007AB5EEC07AF1EE10FA04D4F4EE5E
:10181000C77AF1EE10FA0CD5B0EE087AC3ED007A73
:10182000364BF4EEC77AF1EE10FA4CBF01220022DB
:101830001A70B6F55C7F00F0BD80B6F5797F7FF455
:101840007CAFA368002B7FF478AF2369082B7FF46B
:1018500074AF6B782A4A03F001031370EB79294ABD
:10186000D909C3F380131170274A137065E7A36881
:10187000002B7FF462AF2369082B7FF45EAF2B88C7
:101880009FED227A5BBA9BB207EE903A204BF8EEBE
:10189000677A67EE877AC3ED007A4EE7AFF3008090
:1018A0009A9999999999B93F3333333333535940BE
:1018B00000000040E17A843FD0050020C8050020E8
:1018C0009C030020900300208C030020680300206C
:1018D0006C0300208803002084030020980300206C
:1018E00094030020600300205C03002074030020A8
:1018F0007803002008000020100000200D000020C8
:101900000C00002005000020060000206F12833A22
:1019100064030020CDCCCC3DA368002B7FF40DAF39
:101920002369082B7FF409AF2B881FED067A5BBA79
:101930009BB207EE903A344BF8EE677A67EE877AFF
:10194000A9E7324B52221A70F7E6304B4E22FAE7E3
:101950002E4B3122F7E72D4B3222F4E72B4B33226B
:10196000F1E72A4B3422EEE7284B3522EBE7274BF1
:101970003622E8E7B6F55A7F3FF479AFB6F55C7FDB
:101980007FF452AEA368ABB92369082B12D1288823
:1019900040BA80B2FEF7DEFD19A3D3E90023FEF7BB
:1019A00043FEFFF753F81A4B18601A4B1A6890421F
:1019B00000DD1860A368002B7FF4BFAE2369082BFD
:1019C0007FF4BBAE95F903300333092B3FF6B5AE78
:1019D00001A252F823F000BF4B1900083B17000882
:1019E000431900084B19000851190008571900083D
:1019F0005D19000863190008691900086F190008CB
:101A00009A9999999999B93F700300200400002090
:101A1000800300207C0300200268034B9A4201D11E
:101A200005F03CBF704700BF001000407047000049
:101A30000D4B82B00F216FF001001A6C42F0805202
:101A40001A641A6C02F080520092009A5A6C42F4A6
:101A500080425A6400225B6C03F480430193019B33
:101A600002B006F01DBA00BF0038024010B588B0C1
:101A700004461422002103A834F0BAFB2268174B55
:101A80009A4228D103F5EA33032115481A6C42F033
:101A900000721A641A6C02F000720192019A1A6BB9
:101AA00042F002021A634FF440721B6B03F0020310
:101AB0000293029B0223CDE903230923CDE90613F8
:101AC00003A906F027FC14200022052106F0E8F9FE
:101AD000142006F017FA08B010BD00BF00640040E3
:101AE00000040240026882B0084B9A420BD1D3F83E
:101AF000302803F5006342F480521A631B6B03F431
:101B000080530193019B02B0704700BF0030024038
:101B10000E4B07B502689A4215D1A3F5F043052193
:101B20005A201A6B42F400021A6300221B6B03F462
:101B300000030193019B06F0B3F95A2003B05DF84E
:101B400004EB06F0DFB903B05DF804FB00B002401F
:101B500010B5A8B004461422002102A834F048FBB6
:101B60008422002107A834F043FB2268174B9A42D5
:101B70002AD14FF4803307A8079308F0B3F808B1CF
:101B8000FFF754FF124C4FF4C07201211148236B30
:101B900043F080032363236B03F080030093009BD7
:101BA0001223CDE902230323CDE90413042302A960
:101BB000069306F0AFFB236C43F400032364236C0D
:101BC00003F400030193019B28B010BD005C0040AA
:101BD00000380240001C0240026808B5094B9A42D6
:101BE0000FD1094A80210948136C23F400031364C0
:101BF00006F074FC4FF480710448BDE8084006F01C
:101C00006DBC08BD005C004000380240001C024072
:101C100070B5ACB004461422002106A834F0E8FAEE
:101C2000842200210BA834F0E3FA2268484B9A4240
:101C300040F08C800823052001240B934FF4C073DF
:101C400010930223CDE911304FF400330BA8CDE9F6
:101C5000154308F047F808B1FFF7E8FE3D4B0024B4
:101C600002250E265A6C06A93B4842F080625A644F
:101C70005A6C02F080620092009A1A6B42F01002D5
:101C80001A631A6B02F010020192019A1A6B42F465
:101C900000721A631A6B02F400720292029A1A6BB3
:101CA00042F480621A631A6B02F480620392039A10
:101CB0001A6B42F040021A631A6B02F0400204925F
:101CC000049A1A6B42F480721A631B6B03F48073DC
:101CD0000593059B1023CDE90635CDE908440A9606
:101CE00006F018FB4EF6FF7306A91C480A96CDE9CC
:101CF0000635CDE9084406F00DFBF72306A9184880
:101D00000A96CDE90635CDE9084406F003FB4FF409
:101D1000805306A91348CDE906350923CDE90844C7
:101D20000A9306F0F7FA4FF4464306A90E480A96BE
:101D3000CDE90635CDE9084406F0ECFA58202246F4
:101D4000052106F0ADF8582006F0DCF82CB070BD87
:101D500000680140003802400010024000240240A8
:101D600000280240001802400020024014220021F6
:101D70002DE9F0418AB004460DEB020034F038FA48
:101D800022682C4B9A4251D12B4B02250324092661
:101D90009A6B4FF0040805A9284842F00202002778
:101DA0009A639A6B02F002020192019A1A6B42F056
:101DB00010021A631A6B02F010020292029A1A6B56
:101DC00042F002021A631A6B02F002020392039AB3
:101DD0001A6B42F008021A631B6B03F008030493AA
:101DE000049BCDE90585CDE9084606F093FA40232A
:101DF00005A91348CDE905350A23CDE907740993F0
:101E000006F088FA05A90E480996CDE90585CDE9C1
:101E1000077406F07FFA4FF4605305A90948099644
:101E2000CDE90535CDE9077406F074FA0AB0BDE8CE
:101E3000F08100BF001000A00038024000100240F6
:101E400000040240000C0240026808B50B4B9A42A5
:101E500013D10B4A04210B48936B23F002039363C5
:101E600006F03CFB4421084806F038FB4FF4605173
:101E70000648BDE8084006F031BB08BD001000A0D0
:101E8000003802400010024000040240000C0240F2
:101E9000F0B5002387B00393294B1E68002E4DD167
:101EA0000122022703250C241A6001A9254B26488C
:101EB0009A6B42F001029A639B6B03F0010300935B
:101EC000009B4FF68373CDE90454CDE9013706F04A
:101ED00021FA48F2331301A91C480594CDE90137D2
:101EE000CDE9036506F016FA4CF2037301A9184810
:101EF0000594CDE90137CDE9036506F00BFA4FF6FD
:101F00003F0301A913480594CDE90137CDE90365E5
:101F100006F000FA282301A90F480594CDE90137FE
:101F2000CDE9036506F0F6F9082301A90B480594ED
:101F3000CDE90137CDE9036506F0ECF907B0F0BD56
:101F4000EC0500200038024000100240001802405A
:101F5000000C024000140240001C02400008024035
:101F6000214B1A6C42F0100270B51A6488B01B6CD9
:101F7000054601A903A803F010030293029B07F092
:101F800093FE069B4BBB07F07FFE184E184B336049
:101F900040F2E733F360174BB0FBF3F3013B3046FD
:101FA000736000233361B360B36108F0CBFA044679
:101FB00080B9304608F078F9044658B9362005F063
:101FC000A1FF0F2D0DD822462946362005F068FFC7
:101FD000094B1D60204608B070BD07F055FE40005B
:101FE000D3E70124F6E700BF00380240F0050020E7
:101FF0000010004040420F004C0000207047FEE7F8
:10200000FEE7FEE7FEE77047014805F032BE00BF7D
:10201000A0050020014808F089B900BFF0050020A4
:10202000014806F0A3BF00BF40040020014806F0AD
:10203000A0B800BF3C0500200120704708B534F06F
:102040008BF9162303604FF0FF3008BD08B534F05C
:1020500083F916230360FEE770B50D4614460E465D
:10206000731B9C4201DC204670BDAFF3008006F874
:10207000010BF5E770B50D4614460E46731B9C42E6
:1020800001DC204670BD16F8010BAFF30080F5E7C8
:102090004FF0FF3070474FF4005300204B60704703
:1020A00001207047002070470B4A0346116810B5A5
:1020B00009B90A491160106809490A4C0344091B0F
:1020C0008B4206D934F048F90C2303604FF0FF30FF
:1020D00010BD1360FCE700BF3C060020E08E01202D
:1020E00000000520000A000070470000DFF834D02F
:1020F000002103E00C4B5B58435004310B480C4B60
:1021000042189A42F6D30B4A02E0002342F8043BFD
:10211000094B9A42F9D305F0C7FA34F023F9FEF7D8
:10212000CBFF70470000052034CD030800000020DD
:102130003401002040030020DC8E0120FEE77047C0
:1021400008B501F08FF9BDE8084001F011B901F0C0
:102150008BB9406870474160704700004FF0E02243
:10216000D2F8FC3D43F08073C2F8FC3D054B064AB3
:10217000D3F8B01F0A43C3F8B02F1A6842F0010227
:102180001A607047001000E055CEACC5521A02EB41
:102190005302B2FBF3F07047014B5868704700BF21
:1021A000001000E0704710B504460C2132F01DFE0F
:1021B000204610BD036810B51B69044631B198472D
:1021C000A26863689B1A0344636010BD9847A060CF
:1021D000FBE70000024B7020024A1360DB681847DF
:1021E0002000002040060020704710B5044604215E
:1021F00032F0FBFD204610BD73B50E4E0D46144661
:10220000336813B9002002B070BD1B697020984775
:102210000028F7D03368702001AA0DF106015B6930
:102220009847BDF8043001202B60BDF806302360CC
:10223000E9E700BF400600207FB501238DF8172095
:102240004FF47A72CDE901320DF1170200920A467D
:102250000146054806F092FB10B1034806F074FBF6
:1022600007B05DF804FB00BFE80400207FB5002341
:102270000A464FF47A718DF817300123CDE9013108
:102280000DF1170100910146054806F051FC10B10F
:10229000034806F059FB9DF8170007B05DF804FBF2
:1022A000E8040020032823D8DFE800F0020B131A0B
:1022B000104B102110481A68B2FA82F2520906F047
:1022C000ADB90C4B40215A68B2FA82F252090B4860
:1022D000F5E7084B80219A68B2FA82F25209F6E7D4
:1022E000044B40210648DA68B2FA82F25209E6E766
:1022F000704700BF4406002000040240000802406E
:1023000000180240032823D8DFE800F0020B131A5C
:10231000104B102110481A68003A18BF012206F02D
:102320007DB90C4B40215A68003A18BF01220B4876
:10233000F5E7084B80219A68003A18BF0122F6E7BA
:10234000044B40210648DA68003A18BF0122E6E74C
:10235000704700BF4406002000040240000802400D
:102360000018024003280FD8DFE800F00206090B2E
:102370001021064806F057B940210548FAE78021A8
:10238000FBE740210348F5E7704700BF0004024027
:10239000000802400018024008B5032813D8DFE8FF
:1023A00000F0020A0D0F1021084806F031F9431E13
:1023B0005842584108BD40210548F6E78021FBE717
:1023C00040210448F1E70020F1E700BF000402408B
:1023D000000802400018024070B5084D0024012694
:1023E000E0B2FFF7D9FF18B12B68012B18BF2E60A0
:1023F00001340435052CF3D170BD00BF4406002024
:10240000012380F8781080F87930704700207047F9
:1024100041640039024B18BF01211970704700BF99
:102420009B81012000207047836B0BB10846184741
:1024300070474FF6FF707047406803689B69184704
:102440007047000038B5044601F05CF9084923687C
:102450002046084DD3F88C3098470023284684F84E
:102460004A30FFF77BFE0123256184F8703038BDC8
:10247000000000C05406002001F0E6B801F0EAB800
:1024800070B501F069F910490023C1F88430BFF339
:102490004F8FD1F8803043F6E074C3F3C900C3F323
:1024A0004E335B0103EA0406024646EA8275013AAE
:1024B000C1F87452F9D2203B13F1200FF2D1BFF3CF
:1024C0004F8FBFF36F8F70BD00ED00E001F046B994
:1024D00001F096B801F068BA01F070BA01F09AB84C
:1024E00010B5044618F07AFE23682046D3F8AC30C5
:1024F000BDE81040184718F0CFB810B504467C214D
:1025000032F073FC204610BD90F834100D4B10B51E
:1025100090F878401A788C4209D03AB90A490B4AA7
:1025200008881488108001220C801A7010BD002ABF
:10253000FCD0064A0449148808880C8010800022C8
:10254000F3E700BF94810120928101209081012056
:1025500070B50D46194635B9094B40F2D221094AEA
:10256000094833F089FBC0E90F52003A074B18BF06
:1025700001221A700368BDE87040D3F88C30184708
:10258000C4710308FC7103084A7203089A81012090
:1025900008B5094B1B888B4203D8084B1B88934214
:1025A00005D9074B9E21074A074833F065FB074BC7
:1025B0001980074B1A8008BD90810120928101206B
:1025C0008F720308F27203084A7203089681012091
:1025D00098810120034690F87A0018B15868036882
:1025E0001B68184770470000014608B5034B186880
:1025F00001B1012118F00CFE012008BD9C810120D1
:10260000034B00225A609A60024A1A60704700BF6A
:10261000540600208C7103080121002208B50846E9
:1026200008F092F90A4B186028B90A4B28210A4A87
:102630000A4833F021FB00220421012008F04EFA61
:10264000074B186018B9074B2C21034AF0E708BD67
:102650006406002010740308597403088874030882
:1026600060060020D3740308024B4FF0FF31186856
:1026700008F0C2B964060020014B186808F0F8B9E8
:1026800064060020024B0021186808F0B5B900BFAD
:1026900064060020FFF7F0BF0023034803491A46F1
:1026A000006808F061BA00BF600600201400002036
:1026B00013B50023074C01A91A46206808F096FAC2
:1026C0004FF0FF33002201A9206808F08FFA02B012
:1026D00010BD00BF6006002003685B6C1847012036
:1026E000704703689B6A1847FEE700000E4B82B0F4
:1026F0001A6B42F400021A631A6B02F40002019290
:10270000019A1A6942F400021A611A6922F400025D
:102710001A61064B064A1A61064A5A614FF08062F6
:10272000054B9A6002B07047003802403C0500201B
:10273000C5290008E926000800E100E040F2EF307A
:1027400070470000054B4FF080620360044BC3F8F4
:102750008820BFF34F8FBFF36F8F704770760308E9
:1027600000E100E010B504464FF45A61FFF7EAFFBC
:10277000204632F03AFB204610BD000008B50A287A
:1027800009D8DFE800F006100E080808081010103D
:102790001000022008BD054B9021054A054833F082
:1027A0006BFA0020F6E70120F4E700BF1575030877
:1027B000307503087B75030838B50C46887FFFF732
:1027C000DDFF174BA58AE28A586342EA0542216978
:1027D0005A64628BD963521B1A642568082D0ED186
:1027E0009A611A6158620F4A207F42EA0062DA61F8
:1027F000E2681A620C4A5961D9601A6038BD002239
:10280000D8611A61E1680A0A4809C1F3C40102F4F7
:10281000784200F4FC6002430A439A63034AECE7FF
:1028200000B002400900010001230200012303005F
:1028300008B50B280BD8DFE800F00612100A0A0AC8
:102840000A0808080808022008BD0520FCE7054B17
:102850006F21054A054833F00FFA0020F4E7012004
:10286000F2E700BF15750308C47503087B750308FC
:102870002DE9F04191F81D800C464046FFF7D8FF46
:10288000A77F05463846FFF7D3FF06463846FFF7D1
:1028900075FFA18A628B434B521A1A649A61228B8C
:1028A000521A1A61E28A586342EA014221695A6463
:1028B0006268D963DA602068802828D0227F0FD828
:1028C000202866D0402864D004281AD045EA026542
:1028D000344BB84545F40035DD6160D0324A44E000
:1028E000B0F5807F04D0B0F5007FEFD12F4800E035
:1028F0002F4840EA0262DA61E2681A625E62596158
:1029000032E045EA026242F40032DA61F6E7A0689A
:10291000021DDA62227F45EA026545F40035DD6179
:102920005E625961017841B1012921D0214B4FF4F8
:102930008D71214A214833F09FF9DA69418822F4E8
:102940007F42013922F0100242EA01220121DA61BC
:10295000144BDA6942F02002DA61DA699206FCD49B
:1029600010229A600029B9D0154A1A60BDE8F0819A
:10297000B2F1FF01DA69408822F47F4218BF0121D9
:10298000013822F0100242EA002242F01002DA611D
:10299000DEE745EA0262034B42F40032B5E742F259
:1029A0000132E2E700B00240012301000900020009
:1029B0000A0002000E760308287603087B750308D8
:1029C00001230200024B1B68586803685B691847C3
:1029D0009C81012070B504460A4B0C300026254628
:1029E000602260602672667245F8203B294618F026
:1029F00065FD04F55A63EE6024359D42FBD1204607
:102A000070BD00BF70760308034B1A68D207FCD470
:102A100023229A60704700BF00B00240094B5A69F8
:102A2000D2030AD5BFF34F8F08440029A0EB01025F
:102A300004DCBFF34F8FBFF36F8F70472039C3F8AB
:102A40006822F2E700ED00E030B5104C2568ED0794
:102A5000FCD423250904FF2BA56041F001014FF0B0
:102A6000020565636164E0630AD00949656241EA71
:102A70000363E361074B22626061E060236030BD65
:102A8000E561039BA363044BF8E700BF00B002407D
:102A900009000100010002000100030030B50F4CE5
:102AA0002568ED07FCD423251204FF2BA56042F016
:102AB00001024FF0020565636264E063E16008D0E3
:102AC0001B0643F00213E361054B656260612360FE
:102AD00030BD044BE3610123F9E700BF00B00240C1
:102AE00001000200020002FF30B50B4C2568ED0723
:102AF000FCD4232512041B06A56042F00102022526
:102B000043F4003365636264E063E160E361034BB7
:102B100065626061236030BD00B0024001000200C8
:102B20004069704790F844007047036B23B9C06A4E
:102B3000003818BF01207047012070478068704737
:102B4000043010B50C460FC884E80F0010BD704764
:102B500008B5034A40F21221024B034833F08CF8C7
:102B6000B8760308599703081377030810B504468D
:102B7000482132F03AF9204610BD00002DE9F0431B
:102B80001C46436BADF51F7D05460E461746002BD0
:102B900037D0002203A8DFF8A890CDE9013210F069
:102BA000F9F84FF4F4725021249024A80AF0A7F801
:102BB0003A46314624A80AF0FBFF012124A80AF076
:102BC00099F9022324A88DF8D8300AF034FABDF818
:102BD00098322B9ABDF89C629342A89F28BF134657
:102BE000419A964203EB4308A7EB430728BF1646DA
:102BF000479B9E4209D824A80AF09EF924A80AF00F
:102C0000CBF80DF51F7DBDE8F083012201A924A8B2
:102C10000AF05AFA6B6B03EB0800984201D83C4467
:102C2000E6E759789A78C90009EA022201F4FC61C2
:102C30000A4313F8031B42EAD10224F8022BECE703
:102C400000F8FFFF0A4A02600022C0E90522C0E93D
:102C50000722C0E90922C0E90B22C0E90D12C0E930
:102C60000F2280F84420C0E90322C0E90122704706
:102C7000F079030810B40C4611461A46036B3BB1B9
:102C8000036C806BE41A20445DF8044B33F0B8BA4F
:102C9000C06AF8E7036B10B573B1036C826BC91A95
:102CA0005318525C98785C780004DB7840EA042082
:102CB000104340EA036010BDC36A5858FBE7036B3A
:102CC00043B1036CC91A836B5A18585C527840EAB6
:102CD00002207047C36A585A7047000070B5044616
:102CE000006B0D461646D8B1E36B934208D2092318
:102CF0000D4A65210D4884F844300D4B32F0BCFF7D
:102D00000368DB689847206B3246A16B03681B6938
:102D1000984710B90D2384F84430A06B256470BD2A
:102D2000E06A0844FBE700BF7B77030813770308DA
:102D3000687703082DE9F843436904462BB9234B10
:102D4000AA21234A234832F097FF08228169FFF71E
:102D5000C5FFA16943F2300646F2643704312046CC
:102D6000FFF798FFA3691844A36A00F108029A428A
:102D700006D3012300206361236AA361BDE8F883C1
:102D8000636909300822013320F0010120466361A4
:102D9000A161FFF7A3FFD4F8189020464946FFF73A
:102DA0008EFF09F1020180462046FFF788FF09F1F6
:102DB000040105462046FFF76DFFB045D2D1BD4264
:102DC000D0D10028CED00120D8E700BFBD770308BE
:102DD00006780308137703082DE9F04F0446ADF594
:102DE0001F7D8A461646816908229846FFF776FFBE
:102DF000A7692046391DFFF74DFF07F1080102467C
:102E000005462046FFF76AFF636B074633B93C4B24
:102E100040F2AB113B4A3C4832F02EFF002203A89F
:102E2000CDE901320FF0B6FF4FF4F4725021249037
:102E300024A809F064FF2A46394624A80AF0B8FEFF
:102E4000012124A80AF056F8022324A88DF8D830CE
:102E50000AF0F1F8BAF90250479BAB4229D3BAF90C
:102E600000904FEA4808BAF804702B9B08FB0566EF
:102E70004F44BAF80250DFF894B03FB29F4228BFE7
:102E80001F46BAF8063009EB490A1D44419B2DB292
:102E90009D4228BF1D46479BAB4210D324A80AF091
:102EA0004BF824A809F078FF01200DF51F7DBDE83F
:102EB000F08F012201A924A80AF006F9CCE701222B
:102EC00001A924A80AF000F9626B49465244B942AC
:102ED00002F1030201D34644DDE712F8020C12F8B6
:102EE000013CC0000BEA032300F4FC60034312F82A
:102EF000030C43EAD00326F811300131E7E700BFA5
:102F0000397803088F7803081377030800F8FFFF68
:102F10000129036838BF0121DB6A70B50D460446FC
:102F20009847A84204D223682046DB6A98470546A2
:102F30006B1EE6691022204606EB031606F1080117
:102F4000FFF7CCFE06F110012046FFF7A3FE236A2F
:102F5000043B0344C4E9055370BD0000002148222E
:102F60002DE9F0410446816180F84410FFF7B6FE78
:102F7000A6690423624A31462046FFF77BFE40B132
:102F80000323604AF22184F844305F4B5F4832F0FB
:102F900073FE06F1080104235D4A2046A161FFF794
:102FA00069FE30B10423574AFA2184F84430594B62
:102FB000ECE706F10C010423574A2046A161FFF714
:102FC00059FE074638B105234E4A40F2011184F8F4
:102FD0004430524BDAE706F110012046FFF75AFE63
:102FE000054620B94E4B40F20711464ACEE706F19E
:102FF000140804234B4A20464146FFF73BFE0028B5
:1030000049D0062384F844300423474A06F11801C6
:103010002046FFF72FFE00283FD0072384F84430D6
:103020004544424F0C2220462946FFF757FE05F142
:10303000080604233A4620463146FFF71BFE94F863
:103040004430002848D0002B48D1A36AAB4249D86D
:1030500005F10C0304352046A3612946FFF71AFE4B
:103060003044294660622046FFF714FE06440422DD
:1030700020463146FFF732FE04232D4A31462046D2
:10308000FFF7F8FD002838D10123E6616361A369E9
:103090002362BDE8F0810127B6E7002FC0D006F11A
:1030A00020012046FFF7F6FD4FF47A7306F1300158
:1030B000B0FBF3F060602046FFF7ECFD06F1400145
:1030C000A0602046FFF7E6FD06F14401E0602046DF
:1030D000FFF7E0FD2061A3E7002BB9D00A2384F8B5
:1030E0004430D6E7291D2046FFF7D4FD85190C2270
:1030F00020462946FFF7F2FD99E70B23EFE700BFD3
:10310000E978030807790308EE78030813770308C2
:10311000347903083979030851790308567903088B
:103120006C790308787903087D79030882790308AC
:1031300087790308C0E90A2100220263FFF70EBF66
:1031400010B5002304460846E3620B6821639B68C0
:103150009847A0622046BDE81040FFF7FFBEF0B4DC
:10316000069FBDF81050BDF8146032B12BB1049524
:10317000CDE90567F0BCFFF701BDF0BC704700006A
:103180002DE9F04F9946436985B004460F469046B5
:103190002BB9294B7721294A294832F06DFD0822A5
:1031A0008169FFF79BFDA66920463146FFF787FD41
:1031B000B11C83462046FFF782FD311D8246204622
:1031C000FFF768FD06F10801A36A054642189A4216
:1031D00026D243F230039B4517D146F264339A4519
:1031E00013D190B10246A1612046FFF777FD0E9BF7
:1031F00001462A462046CDF80080CDE901933B46A2
:10320000FFF7ADFF636901336361A3692B4405B91F
:1032100008330133626A23F001039342A36109D1A9
:10322000012301206361236AA36180F0010005B0DE
:10323000BDE8F08F0020F8E7BD7703088C7903081C
:1032400013770308012070470C2070470C2303FB01
:103250000100083070470C2303FB01000830704761
:103260000120704742F6E430704742F6E43303FB36
:1032700001000830704742F6E43303FB01000830D8
:103280007047012070471020704700EB0110083094
:10329000704700EB011008307047084600F0F0BF9F
:1032A000034B10B50446036016F07EFD204610BDAA
:1032B000987A030810B50446FFF7F2FF1421204660
:1032C00031F093FD204610BD034B10B5044603605A
:1032D00016F06AFD204610BD647A030810B5044656
:1032E000FFF7F2FF42F6EC31204631F07EFD20463A
:1032F00010BD0000034B10B50446036016F054FDEA
:10330000204610BD307A030810B50446FFF7F2FFDF
:103310001821204631F069FD204610BD094B10B53B
:103320000446036000F530501830FFF7B9FF04F190
:103330002C00FFF7C9FF04F11400FFF7DBFF204664
:1033400010BD00BFCC7A030808B50248FFF7E6FFBE
:1033500008BD00BF3815002010B50446FFF7DEFF9A
:1033600042F68C51204631F040FD204610BD000051
:103370002DE9F34100F054FD0024054600F054FD12
:103380002346014622462846009421F015FE274B8D
:10339000274A2046274D1A6003F098FB264B274A00
:1033A00027489A6021F070FD2B68BFF35B8FDB0725
:1033B00036D4284631F01BFD90B3224C224F234BCC
:1033C00004F1140007F1180604F12C082360606072
:1033D000C4F80880E760266116F0E8FC1C4B404604
:1033E000636116F0E3FC1B4B3846E36216F0DEFC2B
:1033F00004F50053184A03F62C40C3F8182C03F0C8
:10340000FFFB224607F11401304603F0EFFB304684
:1034100000F036FF114832F04DFC284631F0F3FC45
:103420000F4802B0BDE8F041FFF70CB80082012060
:10343000E40600203415002004070020E8060020E0
:10344000180000203815002050410020CC7A0308D5
:10345000307A0308647A0308987A0308493300082D
:103460006806002070470000014817F07EB900BFD1
:103470006806002070B5244E244B254C3046254D5F
:103480002360FFF7A7FA284626F0A8FE22481FF07F
:103490002FF8224B00224FF4807121481A8683F8BE
:1034A00058205A6683F870205A67DC60C3E912120C
:1034B0001C49C3E91A121C4999671C490B604FF457
:1034C000F07101801A4801804FF488711948C3E9EE
:1034D0000422C3E90622C3E90822C3E90A22C3E998
:1034E0000E22C3E91022C3E91422C3E91722C3E95B
:1034F00001650180104883F8342001800F490A706B
:103500000F4A1A6070BD00BF90070020B471030815
:103510003015002004070020E8060020680600207F
:103520009081012001000001000001019C81012027
:1035300096810120928101209881012094810120AF
:10354000407303080148FFF7FDB800BF9007002053
:103550000020704781807047C180704701817047AB
:10356000418170477047704770477047704710B48B
:10357000C4880368121B84885B6D091B12B25DF856
:10358000044B09B218474FF6FF7383814FF0FF33A6
:1035900003621368C36110607047002070478B8816
:1035A000838001207047704780F82610704790F89C
:1035B00026007047002210B5B1F90840B1F90A1091
:1035C000028042808480C18010BD0022028042803F
:1035D0008280C28070470177704780ED080A70478B
:1035E00080F82410704780F825107047012070473C
:1035F000983070478C3070478430704770470000B7
:10360000034B902283F85A2383F85823704700BF56
:1036100000E100E0094A0A49D3680A48C3F30A03F3
:10362000013B9BB20B801169C1F30A010139018092
:103630001364536B43F00103536370470068014008
:10364000C6420020C4420020014BD3F8AC007047B2
:1036500000680140024B0122C3F8AC105A62704767
:1036600000680140124A5369DB0370B51ED5002380
:10367000C2F88430BFF34F8FD2F8803043F6E07445
:10368000C3F3C900C3F34E335B0103EA04060146EA
:1036900046EA81750139C2F87452F9D2203B13F120
:1036A000200FF2D1BFF34F8FBFF36F8F70BD00BFFC
:1036B00000ED00E07047704770473823002201FB9F
:1036C0000333C25490F838300BB9036C83647047ED
:1036D000704780F84C10704710B50446582131F0FF
:1036E00084FB204610BD10B504462C2131F07DFB33
:1036F000204610BD10B50446BC2131F076FB2046B3
:1037000010BD000038B5044617F01BF823685D6E45
:103710001DF076FD01462046A8472368084A20464A
:10372000D3F888500023A2F57F31A847054B064AFD
:103730005A60064A1A649A644FF4FF225A6438BDEC
:1037400000F807C088430020E043002000F40BC0CD
:1037500016F0DEBF16F0E8BF16F0A4BF17F013B9DD
:1037600090F8252012B103685B6918477047000084
:1037700008B531B1044B40F29711044A044832F0C5
:103780007BFA90F8390008BDD87A0308EC7A030870
:10379000797C030810B531B1064B40F29111064A0D
:1037A000064832F069FA406811460368BDE81040E7
:1037B0001B6B1847D87A0308BB7C0308797C030885
:1037C00008B529B1034B7A21034A044832F054FA70
:1037D000006908BDD87A03086C7E0308797C030869
:1037E00008B529B1054B8321054A064832F044FA51
:1037F00041618160C0E9063208BD00BFD87A030884
:1038000024800308797C030810B5044629B1274BAE
:10381000A421274A274832F02FFA052A34D8DFE8B6
:1038200002F003292F34393E406803681B6998472A
:1038300050B34FF0FF31606D07F02AF800230122EA
:1038400094F83E1084F83B3084F83920A36063611B
:1038500001B1226284F83E306362E36A2BB901232E
:10386000206D84F83A3007F003F9606DBDE8104030
:1038700007F03EB8002380F8393084F83E3003E08A
:10388000036200238360436110BD036200238360F1
:103890004361F2E7002380F839300123EDE7003B74
:1038A00018BF012380F83D30EEE700BFD87A030847
:1038B000E3810308797C030890F825201AB190F879
:1038C000242002B11860704770B50446164629B12D
:1038D000314BE721314A324832F0CEF990F8393095
:1038E00033B1304B1B6893F86B2043691344436139
:1038F000E36A002B4DD0E169D4E905325343A26855
:103900004A43934220D2236A002B42D04FF0FF312A
:10391000606D06F0BDFF236A0BB10023E362E36A2A
:10392000FBB90125606D06F0E3FF94F839300BB95F
:10393000236A3BB1E36A2BB90123206D84F83A3046
:1039400007F096F8284670BD94F84C000028DDD0AA
:103950009B1AB3FBF1F2994298BF02F1FF32626207
:10396000D4E7002294F83C50A3623046E262E26859
:103970002261A2680132A260336333685B699847B1
:10398000002DCED194F83D30002BCBD184F83950A6
:10399000C8E70125C9E700BFD87A0308BA8303083E
:1039A000797C03089C810120034B4FF080629A6070
:1039B0004FF080729A60704700E100E0084B4FF0D2
:1039C0008062C3F88820BFF34F8FBFF36F8F4FF033
:1039D0008072C3F88820BFF34F8FBFF36F8F70479B
:1039E00000E100E038B5034690F8380038BB01220A
:1039F0009860D8609A634FF4807258619A874FF448
:103A0000F0729861D861186258629862D86218633F
:103A1000586383F83E00CA864FF4887281F83400F8
:103A20000A8708639A6C186102F5FF24D3E9101520
:103A300029448C420AD9084B5821084A03E0084B14
:103A400040F2F511074A084832F016F91A6302F5F8
:103A50007F329C645A6338BD18870308588703086F
:103A60005E8503088E850308797C0308002370B502
:103A7000124E05468380124B0360336893F858203A
:103A80000AB1D86C00B998680368DB6A9847336854
:103A9000B0FA80F4D86C640930B10368DB6A9847E7
:103AA000002808BF44F001042CB9064B2C21064A1B
:103AB000064832F0E1F8284670BD00BF9C81012025
:103AC000008A0308FE8803085C89030895890308B7
:103AD00070B5244E3568BFF35B8F15F001053FD1FB
:103AE000304631F084F900283AD01F4C1F4B04F1C6
:103AF00034002561E584A562A585C4E90035C4E9E3
:103B000002551EF054FF04F1580019F0FFFD184B48
:103B10002046A365174B40F8843BFFF7A7FF164BE1
:103B20001648C4F884302433C4F89050C4F88C305C
:103B30006423C4F89C50C4F8A850C4E92835002375
:103B4000C4F8AC30C4F8B030C4F8B430C4F8B830FD
:103B50000B4BC4F8983032F0ADF8304631F053F9E1
:103B6000014870BDC8420020CC42002028BD030897
:103B7000208A0308988A0308DCBC0308FD35000886
:103B8000BCBC030810B5144C236823B3134B144A70
:103B90001B6C11888B4213D1124B198805F070FAF7
:103BA000226892F86A30013382F86A30FEF774FDB9
:103BB000206817F013FB0020BDE81040FEF772BB31
:103BC00005F05EFA206803681B6A98470020BDE88C
:103BD0001040FEF797BB10BD9C810120006801409A
:103BE000C6420020C44200202DE9F74304464FF4AA
:103BF000707894F83A304FF0FF31002B31D0606D7F
:103C000006F046FE276BA36ABB4200D1676B266AAB
:103C1000656856B32B68314628465B6A984700238F
:103C2000236284F83B30606D06F062FE2B684FF42F
:103C3000F0723946CDF8008028465E694FF48873EB
:103C4000B0474FF0FF310646606D06F021FE94F854
:103C50003B30E3B1002384F83B30606D06F048FE52
:103C6000C7E7206D06F0C8FEC3E7636A002BDAD011
:103C70002B682846D3E909939847616A014428468E
:103C8000C847A368626A66621344A360CBE7E76231
:103C90005EB12B6828469B6A984701380023E06094
:103CA00084F83C6084F83A30D7E70120F6E700005A
:103CB000014808B5FFF798FF8843002003680422F5
:103CC00070B504465E6A00230D46B0474FF0FF31E1
:103CD000606D06F0DDFD382303FB0542D16A09B1B2
:103CE0000021D16203FB0545012385F83B30002309
:103CF00085F83930606DBDE8704006F0F9BD38B523
:103D000000EB810304460D46114658680368DB68E2
:103D1000984729462046FFF7D1FF38BD70B50D46BC
:103D20001146044600EB85025068026896681A4600
:103D3000B04729462046FFF7C1FF70BD38B5164988
:103D400000251648FEF77EFF154C164B01202A462B
:103D5000294623604FF48073A564A38784F84C0040
:103D600084F83E50C4E91055C4E91455C4E901551E
:103D7000C4E90355C4E90555C4E90755C4E9095523
:103D8000C4E90B55C4E90D5506F0DEFD2065284653
:103D900006F03CFD606538BD28440020E04300206B
:103DA00088430020E48A0308704708B509292ED803
:103DB000DFE801F005090D1115191D21252902F073
:103DC000D1FE006808BD02F0CDFE4068FAE702F0BF
:103DD000C9FE8068F6E702F0C5FEC068F2E702F0AF
:103DE000C1FE0069EEE702F0BDFE4069EAE702F0BD
:103DF000B9FE8069E6E702F0B5FEC069E2E702F0CD
:103E0000B1FE006ADEE702F0ADFE406ADAE70020AC
:103E1000D8E710B50446042130F0E7FF204610BD76
:103E200000487047308B03080420704713B5002406
:103E300051B1036801AA01948DF803409C680DF10B
:103E40000303A04702B010BD0846FBE7C0897047D6
:103E5000008A7047C088704780887047807A00F079
:103E60007F007047807AC0097047002070470000CB
:103E70009FED010A704700BF00000000704710B5B9
:103E80000446082130F0B1FF204610BD704770474E
:103E900000F598730868496803C370477047704716
:103EA0004160704770470000064BC0F84801C0F8F9
:103EB0004C310023C0F8503100F5A273C0F84031F6
:103EC000704700BFB5400008012303727047704778
:103ED000704710B441680346C2689B68541001EBF8
:103EE0006200D20748BF0A595DF8044B48BFD35857
:103EF00018470346406830B19A681AB9D86800F08C
:103F0000010070470120704710B504460C2130F0C5
:103F10006CFF204610BD10B50446102130F065FF3F
:103F2000204610BD10B504464FF4AE7130F05DFF71
:103F3000204610BD10B51DF063F90368BDE81040C0
:103F4000DB6B184710B50446D0F8400158B1036840
:103F5000DB68984738B1D4F8400103689B689847FC
:103F60000023C4F8403110BD2DE9F14FD0E9556A66
:103F70000746B06803681B6A984742F6E3339842E5
:103F800005D8444BA321444A444831F075FE70687B
:103F900003681B6A98470F2803D8414BA4213E4A67
:103FA000F2E7F06803681B6A98470B2803D83D4B7B
:103FB000A521394AE8E7DFF8F4901DF021F9043033
:103FC0001DF05CF9D9F8000010B10368DB68984770
:103FD000D9F8000010B103681B689847DFF8D0805B
:103FE000D8F8000010B103685B699847D7F83C0126
:103FF00010B103685B689847D8F8000010B10368F7
:104000001B689847D7F83C0110B103689B68984734
:10401000F06800214FF0000B03685B6A9847224B61
:104020000446C0F804B080F808B059460360B06890
:1040300003685B6A9847054603F01AF970685946A9
:1040400003685B6A98470646294603F0C7F8331DA4
:10405000C7F83C612846C9F80040C8F80050CAF8C3
:1040600000302B68C6F808A0DB68EE639847336819
:1040700030461B689847214628461FF0EBF9236815
:1040800020461B699847236820465B6901B0BDE85C
:10409000F04F1847908B03081E8C0308EC8C030824
:1040A000338D0308D68D0308C08F0308E4810120F7
:1040B000E08101202DE9F14FD0E9556A0746B0684B
:1040C00003681B6A984742F26363984205D8444BE1
:1040D000A321444A444831F0CFFD706803681B6A4D
:1040E00098470F2803D8414BA4213E4AF2E7F068D5
:1040F00003681B6A98470B2803D83D4BA521394A12
:10410000E8E7DFF8F4901DF07BF804301DF0B6F816
:10411000D9F8000010B10368DB689847D9F80000AF
:1041200010B103681B689847DFF8D080D8F800000A
:1041300010B103685B699847D7F83C0110B1036878
:104140005B689847D8F8000010B103681B6898476F
:10415000D7F83C0110B103689B689847F0680021CC
:104160004FF0000B03685B6A9847224B0446C0F887
:1041700004B080F808B059460360B06803685B6A11
:104180009847054602F0BEFD7068594603685B6AB1
:1041900098470646294602F06DFD331DC7F83C617D
:1041A0002846C9F80040C8F80050CAF800302B680B
:1041B000C6F808A0DB68EE639847336830461B6892
:1041C0009847214628461FF045F9236820461B6979
:1041D0009847236820465B6901B0BDE8F04F184757
:1041E000908B0308798E0308EC8C0308338D030849
:1041F000D68D0308C08F0308E4810120E0810120EF
:10420000044B1B6893F858200AB1D86C00B9986821
:10421000704700BF9C810120F8B5174604460E4642
:104220001DF0FEF8124B00251C602946114B23603F
:10423000114BC4E95135114B1868C4E95355036853
:10424000C4E94F559B68C4E955769847284602F063
:104250003DFCFFF7D5FF27F014FEFFF7D1FF27F055
:104260008BFEFFF7CDFF27F093FE2046F8BD00BF81
:10427000F08101206C8F0308548F03089C8101207A
:10428000064BC0F84801C0F84C310023C0F850314B
:1042900000F5A273C0F84031704700BFB540000878
:1042A000064BC0F84801C0F84C310023C0F850312B
:1042B00000F5A273C0F84031704700BF693F0008A5
:1042C000406A7047806A704770478B88C069DB0A14
:1042D0000A6850F823001044704710B50446BAB17C
:1042E000107B68B1537BD27A1B0203F4E0631A435C
:1042F000236A03EB82031A888A4202D193F90200EF
:1043000010BD05D80138043380B20028F3D1F7E797
:104310000020F5E710B504462C2130F066FD20465C
:1043200010BD000030B58BB00446BDF86050089554
:10433000BDF85C5007959DF8505006959DF84C507F
:1043400005959DF8485004959DF8445003959DF8B7
:10435000405002959DF83C500195BDF838500095AD
:104360001EF0E2FB064B20462360159BE361169B83
:104370002362199B63621A9BA3620BB030BD00BF1E
:10438000E48F03087047704770477047704730B537
:1043900085B00368044601816D460146D3F8843038
:1043A0003C342846984795E8070084E8070005B0A4
:1043B00030BD30B585B00368044641816D46014685
:1043C000D3F884303C342846984795E8070084E8C1
:1043D000070005B030BD0022028042808280C2808A
:1043E000704780F836107047036870B504461B6B41
:1043F000154698472368204629465B6EBDE8704005
:10440000184700207047806C70477047704710B5A0
:1044100004464C2130F0E9FC204610BD034B10B59A
:10442000044603601BF0D8F9204610BD949203089F
:10443000064B10B5044603601BF0CEF942F26461EE
:10444000204630F0D2FC204610BD00BF94920308F5
:1044500008B51CF0D5FEBDE80840FFF721BF08B540
:10446000FFF77EF908BD0000036870B55E6B044677
:10447000114B8DB21B682BB9104B6C21104A11489F
:1044800031F0FAFB1049828D0988914203D80F4B15
:104490006D210B4AF3E713F812200D4B1B6853F8FC
:1044A000220003681B6B9847291A3346204609B23D
:1044B000BDE87040184700BFF48101204490030814
:1044C00086900308C1900308F88101200891030831
:1044D000FC810120036870B504461B6B15469847A4
:1044E0002368204629465B6BBDE87040184770B5CD
:1044F00004461D46BDF91060FFF7ECFF236829460E
:1045000020469B6B9847236831462046DB6BBDE80D
:10451000704018470022C0E90122C0E90322C0E927
:104520000522C0E907224FF480728284014A0260AA
:10453000704700BF9C91030838B504460D462622FB
:10454000002131F055FE2046FFF7E4FF064B2046E0
:10455000294623602B88E384FF2384F828301AF04F
:1045600036FA204638BD00BFD0C1030800224FF004
:10457000FF318260C0E90021704710B50446FFF7A3
:10458000F5FF204610BD000010B50446002126228C
:1045900031F02EFE2046FFF7BDFF094B4FF47F029E
:1045A00004F13C002360074BA3624FF6FF73A38521
:1045B0000023C4E90C322387FFF7D8FF204610BD43
:1045C000F0BF0308888B030810B50446FFF7DCFF33
:1045D000024B204623600023A36410BD049203080D
:1045E0002DE9F04F0446A7B000271EF087FDA04636
:1045F000A64B26223946E76304F16C0648F8403B97
:10460000404631F0F5FD4046FFF784FFA04B04F52E
:10461000037930462364FF23A7664FF6FF7584F8BD
:1046200066304FF4887A1AF021F84846FFF7CCFF3D
:1046300004F5167304F6B81B18460393FFF7C4FF7E
:1046400004F5297318460493FFF7BEFF04F53C7385
:1046500018461093FFF798FF04F54E73184605931C
:10466000FFF7B2FF04F5617318460693FFF7ACFF3E
:1046700004F5747318461193FFF7A6FF04F21C4368
:1046800018461293FFF7A0FF04F58D6318461393A5
:10469000FFF79AFF04F2B44318461493FFF794FF10
:1046A00004F5A06318461593FFF78EFF04F24C53F0
:1046B00018461693FFF788FF04F5B363184617935F
:1046C000FFF782FF04F2E45318460793FFF75CFFFD
:1046D00004F22C6318460893FFF756FF04F2746344
:1046E00018460993FFF750FF04F2BC6318460A937B
:1046F000FFF74AFF04F2047318460B93FFF744FFD9
:1047000004F24C7318460C93FFF73EFF04F29473C7
:1047100018461893FFF758FF04F5FC6318461993E1
:10472000FFF752FF04F62C0318460D93FFF72CFFFA
:1047300004F6740318460E93FFF726FF04F6BC0335
:1047400018460F93FFF720FF04F6041323A9ADF8D2
:104750008C5018461A93FFF7EFFE04F5136323A954
:10476000ADF88C5018461B93FFF7E6FE04F65C1379
:10477000251D18461C9318F065FA04F6A413184674
:104780001D93FFF773F9434B4FF4E15104F64420B6
:10479000C4F8A4392433C4F8B079C4F8AC391BF098
:1047A00011F83A4640464FF4F0733946CDF800A070
:1047B000FFF79DFE4FF07F4341462846A3664FF02A
:1047C000FF3815F0D5FC304623A9ADF88C7015F0F4
:1047D00061FC4FF4F07330463A463946CDF800A0FC
:1047E000FFF785FE30468822F02119F0EAFF3046B7
:1047F00064226FF0B3011AF069F83B4642F22832A6
:1048000030463946009715F0F2FA30463946DFF85F
:104810009CA01AF005F8862308223046022119F0E0
:10482000BBFF3046012119F059FF3046012119F034
:1048300058FF314628461EAE15F09AFCB022FD21E5
:104840004846FFF747FED4F80C3249463046D3F8C5
:104850008430C4F83C82A4F84072984704F512737F
:1048600096E8070083E80700DAF800302BB90A4B16
:1048700060210A4A0A4831F0FFF90A4B1B88322BA3
:1048800016D8094B6121054AF4E700BF949203084A
:1048900080C00308DCBC0308449003084691030869
:1048A000C1900308F881012008910308F4810120D8
:1048B000D24B3221186802F045F9D14A034605214E
:1048C000584620F0D9F84846C4F854B219F010FE02
:1048D000DFF834B35723484623A9CDF88CB0ADF8A0
:1048E000903019F025FE4946284615F041FCB022CB
:1048F0004FF48F710398FFF7EDFDD4F85832039908
:104900003046D3F8843004F6C219C4F88882A4F87B
:104910008C72984704F5257396E8070083E8070032
:10492000DAF80030002BA2D0B64A1388332BA8D96E
:10493000B24B3321186802F005F9B14A034605214C
:10494000484620F099F80398C4F8A09204F6CC19D0
:1049500019F0CEFD562323A90398ADF89030CDF879
:104960008CB019F0E5FD0399284615F001FCDF2213
:10497000FC210498FFF7AEFDD4F8A4320499304628
:10498000D3F88430C4F8D482A4F8D872984704F5D8
:10499000387396E8070083E80700DAF80030002B48
:1049A0003FF465AF974A1388342B7FF66AAF934B79
:1049B0003421186802F0C6F8914A0346052148469A
:1049C00020F05AF80498C4F8EC9204F6D61919F0BD
:1049D0008FFD552323A90498ADF89030CDF88CB005
:1049E00019F0A6FD0499284615F0C2FBE02240F21A
:1049F0002D111098FFF76EFD10993046C4F82083F2
:104A0000A4F8247319F0FAFA04F54B7396E807003A
:104A100083E80700542323A91098ADF89030CDF80F
:104A20008CB019F085FD1099284615F0A1FB0822DD
:104A300018210598FFF74EFDD4F838330599304614
:104A4000D3F88430C4F86883A4F86C73984704F5ED
:104A50005D7396E8070083E80700DAF80030002B62
:104A60003FF405AF674A1388392B7FF60AAF634BD3
:104A70003921186802F066F8614A03460521484664
:104A80001FF0FAFF0598C4F8809319F031FD532305
:104A900023A90598ADF89030CDF88CB019F048FDF9
:104AA0000599284615F064FB862212210698FFF727
:104AB00011FDD4F8843330460699D3F88430C4F815
:104AC000B483A4F8B873984704F5707396E80700A8
:104AD00083E80700DAF8003004F51E66002B3FF487
:104AE000C6AE484A1388372B7FF6CBAE434B3721EF
:104AF0004FF0FF3A4FF00009186802F023F8404ADF
:104B0000034605213046DFF804811FF0B5FF069803
:104B1000C4F8CC6323AE19F0EBFC4B233146069866
:104B2000ADF89030CDF88CB019F002FD069928460A
:104B300015F01EFB472213211198FFF7CBFC3046DE
:104B4000C4F800A404F6EA1BA4F80494FFF70EFDD1
:104B500004F20C4396E8070083E80700D8F8003019
:104B6000002B3FF484AE274F3B88382B7FF689AE6D
:104B7000224B3821186801F0E5FF214A0346052140
:104B800058461FF079FF1198C4F818B404F6F41BC6
:104B900019F0AEFC1C495023119823913146ADF811
:104BA000903019F0C5FC1199284615F0E1FAE5227C
:104BB00042211298FFF78EFC3046C4F84CA4A4F8AA
:104BC0005094FFF7D3FC04F58B6396E8070083E865
:104BD0000700D8F80030002B3FF449AE3B88352B56
:104BE0007FF64FAE054B3521186801F0ABFF044A44
:104BF0000346052158461FF03FFF09E000820120CF
:104C0000D8AF0308F8810120888B0308F4810120C4
:104C10001298C4F864B404F6FE1B19F069FCD74975
:104C20004323129823913146ADF8903019F080FC5F
:104C30001299284615F09CFAC72242211398FFF7D3
:104C400049FC3046C4F898A4A4F89C94FFF78EFC65
:104C500004F2A44396E8070083E80700D8F8003080
:104C6000002B3FF404AE3B88362B7FF60AAEC44BD4
:104C70003621186801F066FFC24A034605215846EE
:104C80001FF0FAFE1398C4F8B0B419F031FCBB4918
:104C90004223139823913146ADF8903019F048FC27
:104CA0001399284615F064FA082240F2A3111498CB
:104CB000FFF710FCC4F8E4A43046A4F8E894FFF72A
:104CC00055FC04F59E6304F6082A96E8070083E87D
:104CD0000700D8F80030002B3FF4C9AD3B883F2BCC
:104CE0007FF6CFADA64B3F21186801F02BFFA54AF8
:104CF0000346052150461FF0BFFE1498C4F8FCA4DB
:104D000019F0F6FB9D494A23149823913146ADF8DA
:104D1000903019F00DFC1499284615F029FA8622D6
:104D20004FF4CC711598FFF7D5FB6FF0FF033046B9
:104D3000A4F83495C4F83035FFF718FC04F23C535E
:104D400096E8070083E80700D8F8003004F612263A
:104D5000002B3FF48CAD3B883B2B7FF692AD884B0C
:104D60003B2123AFDFF8149218684FF0000801F0E0
:104D7000E9FE844A034605213046DFF810B21FF0F1
:104D80007BFE1598C4F8486504F61C2619F0B0FBA4
:104D90004E2339461598ADF89030CDF88C9019F027
:104DA000C7FB1599284615F0E3F9472240F2A311F5
:104DB0001698FFF78FFB6FF0FF033846A4F8808545
:104DC000C4F87C35FFF7D2FB04F5B16397E8070020
:104DD00083E80700DBF80030002B3FF448AD6A4A57
:104DE00013883D2B7FF64DAD654B3D214FF0FF3ACB
:104DF000186801F0A7FE634A0346052130461FF0FC
:104E00003BFE1698C4F8946504F6262619F070FB4C
:104E1000492339461698ADF89030CDF88C9019F0AA
:104E200087FB1699284615F0A3F9C72240F289118D
:104E30001798FFF74FFB3846C4F8C8A5A4F8CC85EF
:104E4000FFF794FB04F2D45397E8070083E80700C8
:104E5000DBF80030002B3FF40AAD4B4A13883A2BA5
:104E60007FF60FAD464B3A21186801F06BFE454ABC
:104E70000346052130461FF0FFFD1798C4F8E06592
:104E80001EAE19F035FB4D2339461798ADF890301A
:104E9000CDF88C9019F04CFB1799284615F068F95D
:104EA000372209210798FFF715FB07993046C4F808
:104EB00014A6A4F8188619F0A1F8079901F13C038B
:104EC00096E8070083E80700522339460798ADF8B3
:104ED0009030CDF88C9019F02BFB0799284615F0EF
:104EE00047F9B32209210898FFF7F4FA08993046E8
:104EF000C4F85CA6A4F8608619F080F8089901F15E
:104F00003C0396E8070083E80700482339460898E1
:104F1000ADF89030CDF88C9019F00AFB089928462E
:104F200015F026F9F72209210998FFF7D3FA099914
:104F30003046C4F8A4A6A4F8A88619F05FF8099929
:104F400001F13C0396E8070083E807004523394652
:104F50000998ADF89030CDF88C9019F0E9FA0999DC
:104F6000284615F005F9DB2209210A98FFF7B2FA65
:104F70000A993046C4F8ECA60AE000BF888B030803
:104F800000820120D8AF0308F8810120F4810120BC
:104F9000A4F8F08619F032F80A9901F13C0396E87A
:104FA000070083E80700442339460A98ADF890309B
:104FB000CDF88C9019F0BCFA0A99284615F0D8F86B
:104FC000752209210B98FFF785FA0B993046C4F832
:104FD00034A7A4F8388719F011F80B9901F13C03B4
:104FE00096E8070083E80700512339460B98ADF88F
:104FF0009030CDF88C9019F09BFA0B99284615F05B
:10500000B7F837224FF4B9710C98FFF763FA0C998F
:105010003046C4F87CA7A4F8808718F0EFFF0C99FD
:1050200001F13C0396E8070083E80700472339466F
:105030000C98ADF89030CDF88C9019F079FA0C9965
:10504000284615F095F8232240F28B111898FFF7A7
:1050500041FA3846C4F8C4A7A4F8C887FFF786FA0F
:1050600004F5FA6397E8070083E8070004F5236175
:10507000DBF800300391002B3FF4F9AB8D4A138825
:105080003E2B7FF6FEAB8C4B3E21186801F05AFD9B
:105090008A4A0346052103981FF0EEFC03991898ED
:1050A000C4F8DC1719F024FA412339461898ADF8F2
:1050B0009030CDF88C9019F03BFA1899284615F0ED
:1050C00057F8622240F28B111998FFF703FA38461D
:1050D000C4F810A8A4F81488FFF748FA04F61C03D3
:1050E00097E8070083E8070004F63A21DBF8003070
:1050F0000391002B3FF4BBAB6E4A13883C2B7FF629
:10510000C0AB6D4B3C21186801F01CFD6B4A034697
:10511000052103981FF0B0FC039B1998C4F82838A8
:1051200019F0E6F9402339461998ADF89030CDF8DA
:105130008C9019F0FDF91999284615F019F8B32249
:105140000D9840F27711FFF7C5F90D993046C4F874
:105150005CA8A4F8608818F051FF0D9B96E8070042
:105160003C33CDF88C9083E807004F2339460D98E7
:10517000ADF8903019F0DCF90D99284614F0F8FFDD
:1051800075220E9840F28111FFF7A4F90E9930466E
:10519000C4F8A4A8A4F8A88818F030FF0E9B96E8DD
:1051A00007003C33CDF88C9083E80700462339464E
:1051B0000E98ADF8903019F0BBF90E99284614F00E
:1051C000D7FFF5220F984FF4B771FFF783F90F99C6
:1051D0003046C4F8ECA8A4F8F08818F00FFF0F9B35
:1051E00096E807003C33CDF88C9083E807004C2309
:1051F00039460F98ADF8903019F09AF90F99284672
:1052000014F0B6FF3C221A98D821FFF763F9032364
:1052100039461A98ADF88C3019F0D9FB1A992846FE
:1052200014F0A6FF6C221B984FF48671FFF752F919
:10523000012339461B98ADF88C3019F0C8FB1B9937
:10524000284614F095FF4FF48873424641461C9857
:1052500000934FF4F073FFF74AF94FF4F0532846E8
:105260001C99C4F888394FF48853C4F89C89C4F851
:105270008C394FF40C53C4F89489C4F890394FF426
:10528000345384F88189C4F898394FF0FF23C4F867
:10529000B0394FF4FC63A4F8B4391D9BC4F88439C9
:1052A000842384F8823914F063FF204627B0BDE8D8
:1052B000F08F00BFF881012000820120D8AF0308E1
:1052C00070470000034B10B5044603601AF084FADF
:1052D000204610BDCC920308064B10B5044603606F
:1052E0001AF07AFA42F6E43120462FF07EFD20468D
:1052F00010BD00BFCC92030808B51BF081FFBDE8CC
:105300000840FEF7BDBF000010B50446262200216C
:1053100030F06EFF2046FFF7FDF8044B2046236077
:10532000FF2384F826300023A36210BD80C0030849
:1053300010B4C46B4A01B4EB411F04D05DF8044BB8
:10534000C26318F0ADBB5DF8044B70472DE9F04F18
:105350000446BDB000271DF0D1FE2546DF4B04F109
:105360006C0B04F1980AE7634FF4887945F8403BE9
:105370002846FFF7C9FF5846FFF7C6FF5046FFF71C
:1053800023F904F1E403DFF85C8318460693FFF782
:105390001BF904F5987308F1240618460793FFF7E4
:1053A00013F904F5BE7318460893FFF70DF904F5D9
:1053B000E47318462393FFF7E7F804F504731846DF
:1053C0002493FFF7E1F804F5167318462593FFF7C9
:1053D000DBF804F5287318462693FFF7D5F804F593
:1053E0003A7318462793FFF7CFF804F54C73184625
:1053F0002893FFF7C9F804F55E7318462993FFF761
:10540000C3F804F5707318462A93FFF7BDF804F546
:10541000816318462B93FFF7B7F804F58A631846A3
:105420002C93FFF7B1F804F5936318462D93FFF71B
:10543000ABF804F59C6318462E93FFF7A5F804F526
:10544000A56318462F93FFF79FF804F5AE6318463F
:105450003093FFF7B9F804F2BC5318463193FFF7C5
:10546000B3F804F5C16318460993FFF78DF804F506
:10547000CA6318460A93FFF787F804F5D363184602
:105480000B93FFF781F804F5DC6318460C93FFF7E4
:105490007BF804F5E56318460D93FFF775F804F5FE
:1054A000EE6318460E93FFF76FF804F5F76318469E
:1054B0000F93FFF769F804F5006318461093FFF7A0
:1054C00063F804F6480318461193FFF75DF804F5F6
:1054D000096318461293FFF757F804F6D8031846E5
:1054E0001393FFF751F804F5126318461493FFF76E
:1054F0004BF804F6681318461593FFF745F804F5C2
:105500001B6318461693FFF73FF804F6F813184686
:105510001793FFF739F804F5246318461893FFF73B
:1055200033F804F6882318461993FFF72DF804F58D
:105530002D6318461A93FFF727F804F61833184618
:105540001B93FFF721F804F5366318461C93FFF709
:105550001BF804F6A83318461D93FFF715F804F559
:105560003F631846029318F07BFA04F54663184629
:105570003293FEF77BFA04F67443C4F8608C184645
:10558000C4F8686CC4F86C7C039318F069FA04F6EC
:10559000E44318463393FEF769FA04F6F843C4F877
:1055A000E48C1846C4F8EC6CC4F8F07C1E93FEF74B
:1055B000EBFF04F5546318461F93FEF7E5FF04F66E
:1055C00088531846049318F04BFA04F6F85318461B
:1055D0003493FEF74BFA04F60C63C4F8F88D1846C2
:1055E000C4F8006EC4F8047E2093FEF7CDFF04F6E5
:1055F000546318462193FEF7C7FF04F69C631846D0
:10560000059318F02DFA04F60C7318463593FEF73F
:105610002DFA04F57263C4F8146F4FF6FF76262254
:1056200039461846C4F80C8FC4F8187F4FF07F48ED
:105630002293ADF8E86030F0DBFD2298FEF76AFFB8
:10564000274B3AA92298C4F8203FBDF8E83084F8E7
:10565000486F261DA4F8463F19F0B9F94FF4E151FF
:1056600004F6C4701AF0AEF84FF4F0733A462846C8
:105670003946CDF80090FEF73AFF29463046C4F887
:10568000688014F075FD4FF4F0733A465846394679
:10569000CDF80090FEF72BFF59463046C4F89480B1
:1056A00014F066FD19225D215046FEF713FF36AD5A
:1056B000D4F898304FF0FF3851462846D3F884305C
:1056C00004F64C79C4F8C880A4F8CC709847DFF889
:1056D00018B004F1D40395E8070007E0CC92030862
:1056E000D0C10308DCBC0308F481012083E8070073
:1056F000DBF800302BB9074B6021074A074830F030
:10570000BBFA074B1B88052B0ED8064B6121024ABA
:10571000F4E700BF4490030846910308C1900308D2
:10572000F881012008910308D64B0521186801F083
:1057300009FAD54A03460A2148461FF09DF950460A
:10574000C4F8E09018F0D4FEDFF8449331235046BB
:105750003AA9CDF8E890ADF8EC3018F0E9FE5146E2
:10576000304614F005FD1922A5210698FEF7B2FE79
:10577000D4F8E43006992846D3F8843004F5766AE4
:10578000C4F81481A4F81871984704F5907395E84B
:10579000070083E80700DBF80030002BABD0BB4AE2
:1057A0001388042BB1D9B74B0421186801F0CAF94A
:1057B000B54A03460A2150461FF05EF90698C4F820
:1057C0002CA104F6747A18F093FE0E233AA90698D9
:1057D000ADF8EC30CDF8E89018F0AAFE0699304606
:1057E00014F0C6FC35226D210798FEF773FED4F83D
:1057F000303107992846D3F88430C4F86081A4F882
:105800006471984704F5B67395E8070083E80700CC
:10581000DBF80030002B3FF46EAF9C4A1388032B5B
:105820007FF673AF974B0321186801F08BF9964A06
:1058300003460A2150461FF01FF90798C4F878A1C3
:1058400004F6887A18F054FE2E233AA90798ADF88A
:10585000EC30CDF8E89018F06BFE0799304614F064
:1058600087FC3522B5210898FEF734FED4F87C3148
:1058700008992846D3F88430C4F8AC81A4F8B071F4
:10588000984704F5DC7395E8070083E80700DBF828
:105890000030002B3FF42FAF7C4A1388022B7FF699
:1058A00034AF784B0221186801F04CF9764A034670
:1058B0000A2150461FF0E0F80898C4F8C4A118F077
:1058C00017FE0D233AA90898ADF8EC30CDF8E89012
:1058D00018F02EFE0899304614F04AFC1A2240F2C5
:1058E000A3112398FEF7F6FD28462399C4F8F88102
:1058F000A4F8FC7118F082FB04F5017395E8070029
:1059000083E807002C233AA92398ADF8EC30CDF8B2
:10591000E89018F00DFE2399304614F029FC1A2265
:105920004FF4AC712498FEF7D5FD28462499C4F8AD
:105930004082A4F8447218F061FB04F5137395E8F3
:10594000070083E8070014233AA92498ADF8EC3047
:10595000CDF8E89018F0ECFD2499304614F008FCDE
:10596000382240F2A3112598FEF7B4FD2846259968
:10597000C4F88882A4F88C7218F040FB04F52573F3
:1059800095E8070083E807002A233AA92598ADF88F
:10599000EC30CDF8E89018F0CBFD2599304614F0A6
:1059A000E7FB542240F2B3112698FEF793FD2846F8
:1059B0002699C4F8D082A4F8D47218F01FFB04F51D
:1059C000377395E8070083E8070012233AA9269861
:1059D000ADF8EC30CDF8E89018F0AAFD26993046E5
:1059E00014F0C6FB38224FF4AC712798FEF772FD15
:1059F00028462799C4F81883A4F81C7318F0FEFAF7
:105A000004F5497395E8070083E8070013233AA9D2
:105A10002798ADF8EC30CDF8E89018F089FD27997B
:105A2000304614F0A5FB54224FF4B4712898FEF7C9
:105A300051FD28462899C4F86083A4F8647318F0CF
:105A4000DDFA04F55B7395E8070083E8070011238E
:105A50003AA92898ADF8EC30CDF8E89018F068FD38
:105A60002899304614F084FB8C2240F2AB1129981F
:105A7000FEF730FD28462999C4F8A883A4F8AC7332
:105A800008E000BF00820120D8AF0308F8810120A0
:105A9000888B030818F0B2FA04F56D7395E80700D7
:105AA00083E8070028233AA92998ADF8EC30CDF80F
:105AB000E89018F03DFD2999304614F059FBA822D2
:105AC00040F2AB112A98FEF705FD28462A99C4F842
:105AD000F083A4F8F47318F091FA04F57F7395E855
