:020000040800F2
:1000000000000520A5200008B51F0008B71F000844
:10001000B91F0008BB1F0008BD1F0008000000003A
:10002000000000000000000000000000F197000840
:10003000BF1F00080000000091980008F598000814
:10004000F5200008F5200008F5200008F52000083C
:10005000F5200008F5200008F5200008F52000082C
:10006000F5200008F5200008F5200008F52000081C
:10007000F5200008F5200008F5200008F52000080C
:10008000F5200008F5200008F5200008F5200008FC
:10009000C11F0008F5200008F5200008F520000821
:1000A000F5200008F5200008F5200008F5200008DC
:1000B000F5200008F5200008F5200008F5200008CC
:1000C000F5200008F5200008F5200008F5200008BC
:1000D000F5200008F5200008F5200008F5200008AC
:1000E000F5200008F5200008F5200008F52000089C
:1000F000F5200008F5200008F5200008F52000088C
:10010000F5200008F5200008F5200008F52000087B
:10011000F5200008F5200008CD1F0008F520000894
:10012000F5200008F5200008F5200008F52000085B
:10013000F5200008F5200008F5200008F52000084B
:10014000F5200008F5200008F5200008F52000083B
:10015000F5200008F5200008F5200008F52000082B
:10016000F5200008F5200008F5200008F52000081B
:10017000F5200008F5200008F52000080000000028
:10018000F5200008F5200008F5200008F5200008FB
:10019000F5200008F5200008F5200008F5200008EB
:1001A000D91F0008F5200008E51F0008F520000809
:1001B000F5200008F5200008F5200008F5200008CB
:0801C000F5200008F5200008FD
:1001D00010B5054C237833B9044B13B10448AFF381
:1001E00000800123237010BDA00300200000000048
:1001F0002451030808B5034B1BB103490348AFF36F
:10020000008008BD00000000A40300202451030862
:1002100001F0FF01102A2BDB10F0070F08D010F8B7
:10022000013B013A8B422DD010F0070F42B3F6D1BB
:10023000F0B441EA012141EA014122F007047FF0D4
:1002400000070023F0E80256083C85EA010586EA2B
:10025000010685FA47F5A3FA87F586FA47F6A5FA67
:1002600087F68EB9EED1F0BC01F0FF0102F0070273
:1002700032B110F8013B013A83EA010313B1F8D11E
:100280000020704701387047002D06BF35460338FF
:10029000073815F0010F07D1013015F4807F02BF38
:1002A000013015F4C03F0130F0BC0138704700BF89
:1002B00081F0004102E000BF83F0004330B54FEA17
:1002C00041044FEA430594EA050F08BF90EA020F84
:1002D0001FBF54EA000C55EA020C7FEA645C7FEA17
:1002E000655C00F0E2804FEA5454D4EB5555B8BF3A
:1002F0006D420CDD2C4480EA020281EA030382EAAB
:10030000000083EA010180EA020281EA0303362D3C
:1003100088BF30BD11F0004F4FEA01314FF4801C0F
:100320004CEA113102D0404261EB410113F0004F21
:100330004FEA03334CEA133302D0524263EB4303D8
:1003400094EA050F00F0A780A4F10104D5F1200E76
:100350000DDB02FA0EFC22FA05F2801841F10001D1
:1003600003FA0EF2801843FA05F359410EE0A5F1A5
:1003700020050EF1200E012A03FA0EFC28BF4CF0D6
:10038000020C43FA05F3C01851EBE37101F000458C
:1003900007D54FF0000EDCF1000C7EEB00006EEB99
:1003A0000101B1F5801F1BD3B1F5001F0CD3490823
:1003B0005FEA30004FEA3C0C04F101044FEA44527A
:1003C00012F5800F80F09A80BCF1004F08BF5FEA01
:1003D000500C50F1000041EB045141EA050130BDE1
:1003E0005FEA4C0C404141EB0101013C28BFB1F5F3
:1003F000801FE9D291F0000F04BF01460020B1FA3E
:1004000081F308BF2033A3F10B03B3F120020CDA10
:100410000C3208DD02F1140CC2F10C0201FA0CF0EE
:1004200021FA02F10CE002F11402D8BFC2F1200C53
:1004300001FA02F120FA0CFCDCBF41EA0C01904009
:10044000E41AA2BF01EB0451294330BD6FEA040452
:100450001F3C1CDA0C340EDC04F11404C4F120023D
:1004600020FA04F001FA02F340EA030021FA04F34F
:1004700045EA030130BDC4F10C04C4F1200220FAA6
:1004800002F001FA04F340EA0300294630BD21FAE4
:1004900004F0294630BD94F0000F83F4801306BFAA
:1004A00081F480110134013D4EE77FEA645C18BF9E
:1004B0007FEA655C29D094EA050F08BF90EA020F35
:1004C00005D054EA000C04BF1946104630BD91EA2D
:1004D000030F1EBF0021002030BD5FEA545C05D130
:1004E0004000494128BF41F0004130BD14F580046F
:1004F0003CBF01F5801130BD01F0004545F0FE41E3
:1005000041F470014FF0000030BD7FEA645C1ABF17
:10051000194610467FEA655C1CBF0B46024650EA4E
:10052000013406BF52EA033591EA030F41F400217A
:1005300030BD00BF90F0000F04BF0021704730B500
:100540004FF4806404F132044FF000054FF00001D5
:1005500050E700BF90F0000F04BF0021704730B596
:100560004FF4806404F1320410F0004548BF40426B
:100570004FF000013EE700BF42004FEAE2014FEAC0
:1005800031014FEA02701FBF12F07F4393F07F4F9B
:1005900081F06051704732F07F4208BF704793F09E
:1005A0007F4F04BF41F40021704730B54FF46074B1
:1005B00001F0004521F000411CE700BF50EA0102B4
:1005C00008BF704730B54FF000050AE050EA01025D
:1005D00008BF704730B511F0004502D5404261EBCD
:1005E00041014FF4806404F132045FEA915C3FF40E
:1005F000D8AE4FF003025FEADC0C18BF03325FEAAB
:10060000DC0C18BF033202EBDC02C2F1200300FA5B
:1006100003FC20FA02F001FA03FE40EA0E0021FA80
:1006200002F11444BDE600BF70B54FF0FF0C4CF46E
:10063000E06C1CEA11541DBF1CEA135594EA0C0F20
:1006400095EA0C0F00F0DEF82C4481EA030621EA5B
:100650004C5123EA4C5350EA013518BF52EA033596
:1006600041F4801143F4801338D0A0FB02CE4FF048
:100670000005E1FB02E506F00042E0FB03E54FF078
:100680000006E1FB03569CF0000F18BF4EF0010E70
:10069000A4F1FF04B6F5007F64F5407404D25FEA6C
:1006A0004E0E6D4146EB060642EAC62141EA55511F
:1006B0004FEAC52040EA5E504FEACE2EB4F1FD0C61
:1006C00088BFBCF5E06F1ED8BEF1004F08BF5FEADF
:1006D000500E50F1000041EB045170BD06F0004691
:1006E00046EA010140EA020081EA0301B4EB5C043E
:1006F000C2BFD4EB0C0541EA045170BD41F4801136
:100700004FF0000E013C00F3AB8014F1360FDEBF5A
:10071000002001F0004170BDC4F10004203C35DA36
:100720000C341BDC04F11404C4F1200500FA05F3B9
:1007300020FA04F001FA05F240EA020001F000425A
:1007400021F0004110EBD37021FA04F642EB0601D0
:100750005EEA430E08BF20EAD37070BDC4F10C04FA
:10076000C4F1200500FA04F320FA05F001FA04F2BE
:1007700040EA020001F0004110EBD37041F10001AA
:100780005EEA430E08BF20EAD37070BDC4F12005B5
:1007900000FA05F24EEA020E20FA04F301FA05F21D
:1007A00043EA020321FA04F001F0004121FA04F2C5
:1007B00020EA020000EBD3705EEA430E08BF20EA95
:1007C000D37070BD94F0000F0FD101F000464000CF
:1007D00041EB010111F4801F08BF013CF7D041EA51
:1007E000060195F0000F18BF704703F00046520055
:1007F00043EB030313F4801F08BF013DF7D043EA26
:100800000603704794EA0C0F0CEA135518BF95EADB
:100810000C0F0CD050EA410618BF52EA4306D1D162
:1008200081EA030101F000414FF0000070BD50EA81
:10083000410606BF1046194652EA430619D094EA0B
:100840000C0F02D150EA013613D195EA0C0F05D1F5
:1008500052EA03361CBF104619460AD181EA030149
:1008600001F0004141F0FE4141F470014FF0000001
:1008700070BD41F0FE4141F4780170BD70B54FF09C
:10088000FF0C4CF4E06C1CEA11541DBF1CEA13551C
:1008900094EA0C0F95EA0C0F00F0A7F8A4EB0504FE
:1008A00081EA030E52EA03354FEA013100F08880F5
:1008B0004FEA03334FF0805545EA131343EA1263BE
:1008C0004FEA022245EA111545EA10654FEA002673
:1008D0000EF000419D4208BF964244F1FD0404F52C
:1008E000407402D25B084FEA3202B61A65EB030588
:1008F0005B084FEA32024FF480104FF4002CB6EB45
:10090000020E75EB030E22BFB61A754640EA0C00C4
:100910005B084FEA3202B6EB020E75EB030E22BF04
:10092000B61A754640EA5C005B084FEA3202B6EB45
:10093000020E75EB030E22BFB61A754640EA9C0004
:100940005B084FEA3202B6EB020E75EB030E22BFD4
:10095000B61A754640EADC0055EA060E18D04FEA92
:10096000051545EA16754FEA06164FEAC30343EA32
:1009700052734FEAC2025FEA1C1CC0D111F4801FFF
:100980000BD141EA00014FF000004FF0004CB6E7F8
:1009900011F4801F04BF01430020B4F1FD0C88BF97
:1009A000BCF5E06F3FF6AFAEB5EB030C04BFB6EBA2
:1009B000020C5FEA500C50F1000041EB045170BD95
:1009C0000EF0004E4EEA113114EB5C04C2BFD4EBC2
:1009D0000C0541EA045170BD41F480114FF0000E46
:1009E000013C90E645EA060E8DE60CEA135594EAC2
:1009F0000C0F08BF95EA0C0F3FF43BAF94EA0C0FC5
:100A00000AD150EA01347FF434AF95EA0C0F7FF439
:100A100025AF104619462CE795EA0C0F06D152EA8D
:100A200003353FF4FDAE1046194622E750EA410671
:100A300018BF52EA43067FF4C5AE50EA41047FF482
:100A40000DAF52EA43057FF4EBAE12E74FEA4102E5
:100A500012F5001215D211D56FF47873B3EB625210
:100A600012D94FEAC12343F0004343EA505311F037
:100A7000004F23FA02F018BF404270474FF00000C9
:100A8000704750EA013005D111F0004008BF6FF007
:100A9000004070474FF00000704700BF4FEA41022E
:100AA000B2F1E04324BFB3F5001CDCF1FE5C0DD9CC
:100AB00001F0004C4FEAC0024CEA5070B2F1004F16
:100AC00040EB830008BF20F00100704711F0804F19
:100AD00021D113F13872BCBF01F00040704741F4DE
:100AE00080114FEA5252C2F11802C2F1200C10FAE2
:100AF0000CF320FA02F018BF40F001004FEAC123C6
:100B00004FEAD32303FA0CFC40EA0C0023FA02F369
:100B10004FEA4303CCE77FEA625307D150EA01333F
:100B20001EBF4FF0FE4040F44000704701F000400F
:100B300040F0FE4040F40000704700BF7BB972B93E
:100B40000029BEBF00204FF0004106E008BF00288A
:100B50001CBF6FF000414FF0FF3000F0B5B9ADF1B0
:100B6000080C6DE904CE002909DB002B1ADB00F02C
:100B70004DF8DDF804E0DDE9022304B0704740429F
:100B800061EB4101002B1BDB00F040F8DDF804E0D5
:100B9000DDE9022304B0404261EB4101524263EBC4
:100BA00043037047524263EB430300F02FF8DDF834
:100BB00004E0DDE9022304B0404261EB41017047EB
:100BC000524263EB430300F021F8DDF804E0DDE975
:100BD000022304B0524263EB4303704753B94AB94E
:100BE000002908BF00281CBF4FF0FF314FF0FF3035
:100BF00000F06AB9ADF1080C6DE904CE00F006F81A
:100C0000DDF804E0DDE9022304B070472DE9F04788
:100C1000089D0C46002B4ED194468C458646B2FA70
:100C200082F262D94AB1C2F12003914020FA03F363
:100C30000CFA02FC194300FA02FE4FEA1C471FFAA5
:100C40008CF6B1FBF7F44FEA1E4307FB141143EA9D
:100C5000014304FB06F199420AD91CEB030304F19A
:100C6000FF3080F01281994240F20F81023C6344D0
:100C7000591A1FFA8EF3B1FBF7F007FB101143EA84
:100C8000014300FB06F69E420AD91CEB030300F168
:100C9000FF3180F0FC809E4240F2F98063440238CC
:100CA0009B1B40EA044000211DB1D3400022C5E94E
:100CB0000032BDE8F0878B4205D90DB1C5E90001CE
:100CC00000210846F5E7B3FA83F1002946D1A34293
:100CD00002D39042C0F0F080861A64EB0303012037
:100CE000002DE6D0C5E90063E3E7002A40F09080DC
:100CF000A1EB0C044FEA1C481FFA8CF70121B4FB4E
:100D0000F8F64FEA1E4308FB164443EA044307FB88
:100D100006F0984208D91CEB030306F1FF3402D217
:100D2000984200F2CD8026461C1A1FFA8EF3B4FBBF
:100D3000F8F008FB104443EA044300FB07F79F4226
:100D400008D91CEB030300F1FF3402D29F4200F2EA
:100D5000B0802046DB1B40EA0640A5E7C1F1200633
:100D60008B4022FA06F71F4320FA06FC04FA01F32F
:100D700043EA0C03F44000FA01F8380C4FEA134937
:100D8000B4FBF0FE1FFA87FC00FB1E4449EA044452
:100D90000EFB0CF9A14502FA01F20AD93C190EF139
:100DA000FF3A80F08480A14540F28180AEF1020ECE
:100DB0003C44A4EB09041FFA83F9B4FBF0F300FBF5
:100DC000134449EA044403FB0CFCA44507D93C192D
:100DD00003F1FF3067D2A44565D9023B3C4443EAA6
:100DE0000E40A0FB0293A4EB0C049C42CE469C4612
:100DF00051D34ED055B1B8EB0E0364EB0C0404FA9A
:100E000006F6CB401E43CC40C5E90064002150E704
:100E1000C2F1200320FA03F10CFA02FC24FA03F3D6
:100E200094400C434FEA1C4800FA02FE1FFA8CF76C
:100E3000B3FBF8F008FB1031230C43EA014300FB3D
:100E400007F1994208D91CEB030300F1FF362CD2BD
:100E500099422AD9023863445B1AA4B2B3FBF8F171
:100E600008FB113344EA034401FB07F3A34208D90A
:100E70001CEB040401F1FF3613D2A34211D902394D
:100E80006444E41A41EA004139E70446F0E60846C2
:100E900006E7C845AED2B9EB020E63EB070C01388A
:100EA000A8E73146EDE7034699E73046D4E7D64652
:100EB0007FE7634402384DE70646234608460FE7BE
:100EC000023E634430E700BF704700BF0149002085
:100ED00009F08CBEA125000808B5642008F09CF834
:100EE000FBE7000000B52D4E99B02D4D2D4C2E4A3C
:100EF00001A933681268019305922C4A2B68126885
:100F0000029307922A4A23681268039300230892E7
:100F1000284A8DF8103012688DF818300992264A48
:100F2000264812680A92264A12680B92254A1268CD
:100F30000C92254A12788DF83420244A12788DF8C4
:100F40003520234A12680E92224A12680F92224AD2
:100F500012681092214A127800688DF84420204AC5
:100F6000126812921F4A126813921F4A1268149252
:100F70001E4A126815921E4A12788DF858201D4A92
:100F800012788DF859201C4A126817921A4608F0F8
:100F90000CFF282008F040F8A9E700BFF803002064
:100FA000F4030020F0030020EC030020E8030020FD
:100FB000E4030020E0030020DC03002000480020C0
:100FC000D8030020100000200D0000200C0000209D
:100FD000D403002008000020D003002006000020D9
:100FE000CC030020C8030020C4030020C00300205D
:100FF0000500002004000020BC03002010B594B0C0
:101000001022002102240AA833F04EF914220021F4
:1010100003A833F049F91D4B192108A81A6C42F0B6
:1010200080521A641B6C03F080530193019B184B90
:101030001A6842F440421A6001221B6803F44043DC
:101040000293029B4FF48033CDE908234FF48003D1
:10105000CDE90E434FF4C873CDE91244CDE9101326
:1010600006F0AAFF06F046FC0F2300200621CDE97A
:1010700003344FF4A053CDE905034FF4805303A884
:10108000079307F081F914B010BD00BF003802408B
:10109000007000402DE980489BB0102200210125FE
:1010A0000DA84FF0104833F0FFF8002405F068FB5E
:1010B000C74B0DA8ADF834501094CDE90E8305F060
:1010C0007DFB17230DA88DF835508DF83C308DF839
:1010D000425005F073FB042005F060FBBFF34F8F17
:1010E000BFF36F8FBB4AC2F85042BFF34F8FBFF3BD
:1010F0006F8F536943F400335361BFF34F8FBFF3D6
:101100006F8FC2F88440BFF34F8FD2F8803043F620
:10111000E074C3F3C900C3F34E335B0103EA040672
:10112000014646EA81750139C2F86052F9D2203B86
:1011300013F1200FF2D1BFF34F8F536943F4803383
:101140005361BFF34F8FBFF36F8F04F0B3FF0024E1
:10115000FFF754FF142200210DA833F0A5F89E4B91
:1011600010219E481A6B01274FF010084FF0030B17
:1011700042F010024FF48059994D4FF0040A1A635F
:101180001A6B984E02F010020292029A1A6B42F009
:1011900002021A631A6B02F002020392039A1A6B9C
:1011A00042F001021A631A6B02F001020492049ADF
:1011B0001A6B42F040021A631A6B02F04002059269
:1011C000059A1A6B42F400721A631A6B02F40072E9
:1011D0000692069A1A6B42F008021A631A6B02F022
:1011E00008020792079A1A6B42F480621A631A6B1C
:1011F00002F480620892089A1A6B42F020021A6385
:101200001A6B02F020020992099A1A6B42F480725A
:101210001A631A6B02F480720A920A9A1A6B42F0ED
:1012200080021A631A6B02F080020B920B9A1A6BFF
:1012300042F004021A6300221B6B03F004030C93B8
:101240000C9B05F009FE01220821674805F004FE09
:1012500001224FF48051654805F0FEFD0022C021B7
:10126000634805F0F9FD00224021624805F0F4FDD5
:101270000DA95A48CDE90D87CDE90F4B05F068FC63
:1012800008230DA95848CDE90D37CDE90F4405F0E5
:101290005FFC0DA95548CDE90D97CDE90F4405F048
:1012A00057FCC0220DA95248CDE90D27CDE90F4BBF
:1012B00005F04EFC40220DA94E48CDE90D27CDE9A1
:1012C0000F4B05F045FC4C484C4984800160076297
:1012D000C0E9054405F09EFA49492846C5E90014CD
:1012E000C5E90244C5E90A44C5E90C4405F031FBEF
:1012F00039462846434D05F0E5FB40234FF4C072C4
:1013000041493046B460F461B462C6E905324FF435
:101310000062C6E908294FF002090722C6E9001455
:101320000DA9CDF84C90C6E903A8CDE90D92CDE901
:101330000FA2CDE911B907F07DFB29464FF6FF72E8
:1013400030460194C5E90078C5E9027407F092FBC4
:10135000384604F0D3FE29464FF6FF723046C5E901
:101360000098C5E9027407F085FB082329464FF66B
:10137000FF723046C5E90234C5E900B807F07AFBD0
:101380004FF40C734FF6FF72294601933046019BD0
:10139000AF60EB60C5E900A807F06CFB40F22B7171
:1013A00030461A4D07F085FB4FF0204343F2D2023E
:1013B000642040F215261A6004F0A0FE144B154A72
:1013C00028462C62C5E90023C5E9024724E000BF96
:1013D0001B00000300ED00E0003802400004024062
:1013E000980500201C040020002802400020024034
:1013F0000008024000180240D805002000300240DA
:1014000000B00240FC030020400100A04405002081
:101410009B676010005C0040C5E90444C5E90644D0
:1014200005F05BFE2146284606F07EF82146284658
:10143000544D06F09FF8342221460DEB020032F0A5
:1014400033FF514B2821352040F2352C2C61AC86DE
:1014500085F83640C5E900340923C5E905130B2397
:10146000C5E9070340F21B132846C5E9096340F2AA
:101470001D130526C5E90BC3C5E9024406F026F98C
:10148000FF214FF4F0724FF4887328460D9418939F
:10149000ADF864408DF866403C4DCDE912144FF430
:1014A0008061CDE914164FF04041CDE90E24CDE91D
:1014B000161222460DA9CDE9103906F0D2F93448AA
:1014C000344B4FF0180E0462C0E900374FF4A063AC
:1014D000C0E902A8C0E904E3C0E9064406F024FB21
:1014E00004F068FC04F0AEFB5C2005F037F900F076
:1014F000D7FD294B2846AC61AC83C5E900364FF4D3
:10150000E023C5E90244C5E9043404F009FE0E23D2
:101510000DA928461693149711941597CDE91244F6
:10152000CDE90D44CDE90F4404F076FE284604F0E1
:10153000F9FE4946284604F09DFF00F0DDFD00F06D
:10154000DAFD07F0DBFC154A2146154807F010FDCF
:10155000144B154A21461860144807F009FD144B36
:10156000144A21461860144807F002FD134B144A30
:1015700021461860134807F0FBFC134B186007F076
:10158000D7FCFEE79C04002000680140FC05002019
:1015900050040020001000A000640040185203080E
:1015A000D90E000818040020F45103080721000890
:1015B00014040020D0510308693C000810040020E6
:1015C000AC510308E50E00080C04002000000000E8
:1015D000F8B5B14C0021B14D22462B462DED028BC2
:1015E00004F0CBFE2668B6F5587F2DD1A36843BB27
:1015F0002369082B25D12C88A94B64BAA888A4B2EA
:1016000040BA1C6080B2A74B1A689442C8BF1C60E5
:10161000C4F5ED54FEF79EFF103499A3D3E90023DF
:10162000FFF702F824EAE474FFF710FA9E4B186003
:101630006FF0020394FBF3F464349C4B24EAE474EB
:101640001C60BDEC028BF8BD40F261339E4240F05D
:101650009180A368002B70D12369082B6DD16B8812
:10166000DFED938A5BBA9FB22B885BBA9BB207EE21
:10167000903AF8EE677A67EEA87A17EE900AFEF7CE
:101680007BFF81A3D3E90023FEF716FE80A3D3E9F5
:101690000023FEF7C9FFFFF701FA07EE907A854BAA
:1016A00008EE100AF8EE677A186067EEA87A17EE6F
:1016B000900AFEF761FF74A3D3E90023FEF7FCFD57
:1016C00073A3D3E90023FEF7AFFFFFF7E7F97A4BE7
:1016D00007EE900A1860724B1B68B3F52F7F2CDD64
:1016E000764A92ED007AB5EEC07AF1EE10FA04D4A3
:1016F000B4EEC78AF1EE10FA01D582ED008A40F609
:10170000C412934219DD6E4B93ED007AB5EEC07AA8
:10171000F1EE10FA04D4F4EEC77AF1EE10FA0CD51B
:10172000B0EE087AC3ED007A664BF4EEC77AF1EEBC
:1017300010FA4CBF012200221A70B6F55C7F4CD023
:10174000B6F5797F7FF47DAFA368002B7FF479AF86
:101750002369082B7FF475AF6B785B4A03F00103B4
:101760001370EB79594AD909C3F380131170584AA1
:10177000137066E7B6F55A7F40F0B880A368002B77
:101780007FF45FAF2369082B7FF45BAF2B889FED5D
:10179000517A5BBA9BB207EE903A4F4BF8EE677AFC
:1017A00067EE877AC3ED007A4BE7A368ABB923698C
:1017B000082B12D1288840BA80B2FEF7CBFE30A3A6
:1017C000D3E90023FEF730FFFFF740F9434B1860E1
:1017D000434B1A68904200DD1860A368002B7FF429
:1017E00030AF2369082B7FF42CAF95F90330033316
:1017F000092B3FF626AF01A252F823F05718000834
:10180000431600084F180008571800085D18000814
:1018100063180008691800086F1800087518000898
:101820007B180008A368002B7FF40BAF2369082BFB
:101830007FF407AF2B889FED1E7A5BBA9BB207EE51
:10184000903A284BF8EE677A67EE877AAAE7264B3C
:1018500052221A70F5E6244B4E22FAE7224B31222F
:10186000F7E7214B3222F4E71F4B3322F1E71E4BFF
:101870003422EEE71C4B3522EBE71B4B3622E8E720
:101880009A9999999999B93F3333333333535940DE
:1018900000000040E17A843F2C060020240600204E
:1018A000F8030020F4030020C0030020BC03002044
:1018B000CDCCCC3DD4030020D8030020080000206C
:1018C000100000200D0000200C000020050000206A
:1018D000060000206F12833AC4030020E0030020BA
:1018E000DC030020D003002004000020B6F55C7F5C
:1018F0003FF45BAF40F272339E4293D0B6F5787FEF
:101900007FF41BAFA368002B7FF49BAE2369082BE9
:101910007FF497AE28886F8840BAAE887FBAEC888B
:1019200080B276BABFB264BAA0F6AB20B6B2FEF708
:1019300011FEA4B21EA3D3E90023FEF775FEFFF744
:1019400085F81D4B18601D4B1A689042C8BF18607F
:10195000A7F6AB20FEF7FEFD15A3D3E90023FEF7A3
:1019600063FEFFF773F8164B1860A6F6AB20FEF780
:10197000F1FD0FA3D3E90023FEF756FEFFF766F84B
:10198000104B1860A4F6AB20FEF7E4FD08A3D3E9E2
:101990000023FEF749FEFFF759F80B4B18600B4B7D
:1019A0001A6890427FF74DAE18604AE6AFF30080A8
:1019B0009A9999999999B93FF0030020EC03002076
:1019C000C8030020CC030020E8030020E40300202B
:1019D0000268034B9A4201D104F07EBB704700BFFE
:1019E00000100040704700000D4B82B00F216FF0D7
:1019F00001001A6C42F080521A641A6C02F0805294
:101A00000092009A5A6C42F480425A6400225B6C45
:101A100003F480430193019B02B004F05FBE00BF5A
:101A20000038024010B588B004461422002103A8F3
:101A300032F03AFC2268174B9A4228D103F5EA3378
:101A4000032115481A6C42F000721A641A6C02F0F5
:101A500000720192019A1A6B42F002021A634FF46B
:101A600040721B6B03F002030293029B0223CDE939
:101A700003230923CDE9061303A905F069F814200F
:101A80000022052104F02AFE142004F059FE08B0BB
:101A900010BD00BF0064004000040240026882B034
:101AA000084B9A420BD1D3F8302803F5006342F477
:101AB00080521A631B6B03F480530193019B02B0A5
:101AC000704700BF003002400E4B07B502689A42D3
:101AD00015D1A3F5F04305215A201A6B42F40002F8
:101AE0001A6300221B6B03F400030193019B04F0B3
:101AF000F5FD5A2003B05DF804EB04F021BE03B0FD
:101B00005DF804FB00B0024010B5A8B004461422F2
:101B1000002102A832F0C8FB8422002107A832F07D
:101B2000C3FB2268174B9A422AD14FF4803307A88F
:101B3000079306F0F5FC08B1FFF754FF124C4FF481
:101B4000C07201211148236B43F080032363236B90
:101B500003F080030093009B1223CDE902230323AB
:101B6000CDE90413042302A9069304F0F1FF236CCA
:101B700043F400032364236C03F400030193019BEB
:101B800028B010BD005C004000380240001C02403C
:101B9000026808B5094B9A420FD1094A80210948C9
:101BA000136C23F40003136405F0B6F84FF480714E
:101BB0000448BDE8084005F0AFB808BD005C00402F
:101BC00000380240001C024070B5ACB0044614223C
:101BD000002106A832F068FB842200210BA832F015
:101BE00063FB2268484B9A4240F08C800823052012
:101BF00001240B934FF4C07310930223CDE91130ED
:101C00004FF400330BA8CDE9154306F089FC08B169
:101C1000FFF7E8FE3D4B002402250E265A6C06A96C
:101C20003B4842F080625A645A6C02F08062009233
:101C3000009A1A6B42F010021A631A6B02F010023B
:101C40000192019A1A6B42F400721A631A6B02F441
:101C500000720292029A1A6B42F480621A631A6B43
:101C600002F480620392039A1A6B42F040021A63F4
:101C70001A6B02F040020492049A1A6B42F48072CA
:101C80001A631B6B03F480730593059B1023CDE946
:101C90000635CDE908440A9604F05AFF4EF6FF7364
:101CA00006A91C480A96CDE90635CDE9084404F09A
:101CB0004FFFF72306A918480A96CDE90635CDE966
:101CC000084404F045FF4FF4805306A91348CDE9BA
:101CD00006350923CDE908440A9304F039FF4FF48F
:101CE000464306A90E480A96CDE90635CDE90844D3
:101CF00004F02EFF58202246052104F0EFFC582066
:101D000004F01EFD2CB070BD006801400038024098
:101D10000010024000240240002802400018024047
:101D200000200240142200212DE9F0418AB004462F
:101D30000DEB020032F0B8FA22682C4B9A4251D1D6
:101D40002B4B0225032409269A6B4FF0040805A9A2
:101D5000284842F0020200279A639A6B02F00202BE
:101D60000192019A1A6B42F010021A631A6B02F088
:101D700010020292029A1A6B42F002021A631A6B64
:101D800002F002020392039A1A6B42F008021A63ED
:101D90001B6B03F008030493049BCDE90585CDE993
:101DA000084604F0D5FE402305A91348CDE90535C2
:101DB0000A23CDE90774099304F0CAFE05A90E4869
:101DC0000996CDE90585CDE9077404F0C1FE4FF40D
:101DD000605305A909480996CDE90535CDE9077491
:101DE00004F0B6FE0AB0BDE8F08100BF001000A00C
:101DF000003802400010024000040240000C024083
:101E0000026808B50B4B9A4213D10B4A04210B48C8
:101E1000936B23F00203936304F07EFF4421084890
:101E200004F07AFF4FF460510648BDE8084004F022
:101E300073BF08BD001000A000380240001002402F
:101E400000040240000C0240F0B5002387B0039369
:101E5000294B1E68002E4DD10122022703250C2498
:101E60001A6001A9254B26489A6B42F001029A6339
:101E70009B6B03F001030093009B4FF68373CDE946
:101E80000454CDE9013704F063FE48F2331301A98D
:101E90001C480594CDE90137CDE9036504F058FEEF
:101EA0004CF2037301A918480594CDE90137CDE937
:101EB000036504F04DFE4FF63F0301A91348059456
:101EC000CDE90137CDE9036504F042FE282301A9DD
:101ED0000F480594CDE90137CDE9036504F038FEDC
:101EE000082301A90B480594CDE90137CDE9036525
:101EF00004F02EFE07B0F0BD480600200038024076
:101F00000010024000180240000C02400014024081
:101F1000001C024000080240214B1A6C42F01002E3
:101F200070B51A6488B01B6C054601A903A803F0BC
:101F300010030293029B06F0D5FA069B4BBB06F0FA
:101F4000C1FA184E184B336040F2E733F360174B79
:101F5000B0FBF3F3013B3046736000233361B360A1
:101F6000B36106F00DFF044680B9304606F0BAFDB5
:101F7000044658B9362004F0E3FB0F2D0DD8224655
:101F80002946362004F0AAFB094B1D60204608B004
:101F900070BD06F097FA4000D3E70124F6E700BFD2
:101FA000003802404C0600200010004040420F0064
:101FB000A80000207047FEE7FEE7FEE7FEE7704757
:101FC000014804F074BA00BFFC050020014806F087
:101FD000CBBD00BF4C060020014805F0E5BB00BFAB
:101FE0009C040020014804F0E2BC00BF98050020DA
:101FF0000120704708B532F00BFA162303604FF04A
:10200000FF3008BD08B532F003FA16230360FEE77F
:1020100070B50D4614460E46731B9C4201DC2046EB
:1020200070BDAFF3008006F8010BF5E770B50D4603
:1020300014460E46731B9C4201DC204670BD16F808
:10204000010BAFF30080F5E74FF0FF3070474FF41E
:10205000005300204B6070470120704700207047FC
:102060000B4A0346116810B509B90A491160106896
:1020700009490A4C0344091B8B4206D932F0C8F9BE
:102080000C2303604FF0FF3010BD1360FCE700BF6E
:10209000980600205888012000000520000A000052
:1020A00070470000DFF834D0002103E00C4B5B5890
:1020B000435004310B480C4B42189A42F6D30B4A5A
:1020C00002E0002342F8043B094B9A42F9D303F0A3
:1020D00009FF32F0A3F9FEF7DDFF7047000005208D
:1020E00058AB03080000002090010020A00300204E
:1020F00058880120FEE7704708B501F08FF9BDE868
:10210000084001F011B901F08BB940687047416097
:10211000704700004FF0E022D2F8FC3D43F080739E
:10212000C2F8FC3D054B064AD3F8B01F0A43C3F87A
:10213000B02F1A6842F001021A607047001000E0E8
:1021400055CEACC5521A02EB5302B2FBF3F0704706
:10215000014B5868704700BF001000E0704710B591
:1021600004460C2130F09DFE204610BD036810B5DA
:102170001B69044631B19847A26863689B1A0344FF
:10218000636010BD9847A060FBE70000024B702021
:10219000024A1360DB6818477C0000209C06002080
:1021A000704710B50446042130F07BFE204610BD78
:1021B00073B50E4E0D461446336813B9002002B0B5
:1021C00070BD1B69702098470028F7D033687020D5
:1021D00001AA0DF106015B699847BDF804300120A2
:1021E0002B60BDF806302360E9E700BF9C060020A5
:1021F0007FB501238DF817204FF47A72CDE90132B3
:102200000DF1170200920A460146054804F0D4FF7A
:1022100010B1034804F0B6FF07B05DF804FB00BF3F
:10222000440500207FB500230A464FF47A718DF8EB
:1022300017300123CDE901310DF11701009101465D
:10224000054805F093F810B1034804F09BFF9DF892
:10225000170007B05DF804FB44050020032823D8CD
:10226000DFE800F0020B131A104B102110481A6817
:10227000B2FA82F2520904F0EFBD0C4B40215A68C9
:10228000B2FA82F252090B48F5E7084B80219A68AE
:10229000B2FA82F25209F6E7044B40210648DA68A6
:1022A000B2FA82F25209E6E7704700BFA0060020AA
:1022B000000402400008024000180240032823D80E
:1022C000DFE800F0020B131A104B102110481A68B7
:1022D000003A18BF012204F0BFBD0C4B40215A68E0
:1022E000003A18BF01220B48F5E7084B80219A6895
:1022F000003A18BF0122F6E7044B40210648DA688D
:10230000003A18BF0122E6E7704700BFA006002090
:1023100000040240000802400018024003280FD8C1
:10232000DFE800F00206090B1021064804F099BD11
:1023300040210548FAE78021FBE740210348F5E703
:10234000704700BF0004024000080240001802402D
:1023500008B5032813D8DFE800F0020A0D0F10219A
:10236000084804F073FD431E5842584108BD4021FF
:102370000548F6E78021FBE740210448F1E700200B
:10238000F1E700BF000402400008024000180240CC
:1023900070B5084D00240126E0B2FFF7D9FF18B14F
:1023A0002B68012B18BF2E6001340435052CF3D1A6
:1023B00070BD00BFA0060020012380F8781080F8CF
:1023C000793070470020704741640039024B18BFD4
:1023D00001211970704700BF177B01200020704752
:1023E000836B0BB10846184770474FF6FF70704774
:1023F000406803689B6918477047000038B5044679
:1024000001F05CF9084923682046084DD3F88C3068
:1024100098470023284684F84A30FFF77BFE0123C3
:10242000256184F8703038BD000000C0B00600207F
:1024300001F0E6B801F0EAB870B501F069F91049A9
:102440000023C1F88430BFF34F8FD1F8803043F6BA
:10245000E074C3F3C900C3F34E335B0103EA04061F
:10246000024646EA8275013AC1F87452F9D2203B1D
:1024700013F1200FF2D1BFF34F8FBFF36F8F70BDF9
:1024800000ED00E001F046B901F096B801F068BA3D
:1024900001F070BA01F09AB810B5044617F0B6FA18
:1024A00023682046D3F8AC30BDE81040184716F03A
:1024B0000BBD10B504467C2130F0F3FC204610BD66
:1024C00090F834100D4B10B590F878401A788C4283
:1024D00009D03AB90A490B4A0888148810800122A9
:1024E0000C801A7010BD002AFCD0064A04491488DA
:1024F00008880C8010800022F3E700BF107B0120C9
:102500000E7B01200C7B012070B50D46194635B9B4
:10251000094B40F2D221094A094831F009FCC0E9CF
:102520000F52003A074B18BF01221A700368BDE82A
:102530007040D3F88C3018477C520308B45203081B
:1025400002530308167B012008B5094B1B888B42F8
:1025500003D8084B1B88934205D9074B9E21074A95
:10256000074831F0E5FB074B1980074B1A8008BD7F
:102570000C7B01200E7B012047530308AA5303085C
:1025800002530308127B0120147B0120034690F8BC
:102590007A0018B1586803681B6818477047000034
:1025A000014608B5034B186801B1012117F048FA3C
:1025B000012008BD187B0120034B00225A609A605D
:1025C000024A1A60704700BFB00600204452030858
:1025D0000121002208B5084606F0D4FD0A4B186018
:1025E00028B90A4B28210A4A0A4831F0A1FB0022E7
:1025F0000421012006F090FE074B186018B9074B24
:102600002C21034AF0E708BDC0060020C854030887
:102610001155030840550308BC0600208B550308DC
:10262000024B4FF0FF31186806F004BEC0060020D0
:10263000014B186806F03ABEC0060020024B00218C
:10264000186806F0F7BD00BFC0060020FFF7F0BF16
:102650000023034803491A46006806F0A3BE00BFE2
:10266000BC0600201400002013B50023074C01A96C
:102670001A46206806F0D8FE4FF0FF33002201A969
:10268000206806F0D1FE02B010BD00BFBC060020DD
:1026900003685B6C18470120704703689B6A184702
:1026A000FEE700000E4B82B01A6B42F400021A6380
:1026B0001A6B02F400020192019A1A6942F40002B4
:1026C0001A611A6922F400021A61064B064A1A615D
:1026D000064A5A614FF08062054B9A6002B070471B
:1026E00000380240980500207D290008A126000836
:1026F00000E100E040F2EF3070470000054B4FF082
:1027000080620360044BC3F88820BFF34F8FBFF390
:102710006F8F70472857030800E100E010B50446AA
:102720004FF45A61FFF7EAFF204630F0BAFB20462B
:1027300010BD000008B50A2809D8DFE800F006102F
:102740000E080808081010101000022008BD054BE4
:102750009021054A054831F0EBFA0020F6E7012008
:10276000F4E700BFCD550308E855030833560308C6
:1027700038B50C46887FFFF7DDFF174BA58AE28A44
:10278000586342EA054221695A64628BD963521B3D
:102790001A642568082D0ED19A611A6158620F4A91
:1027A000207F42EA0062DA61E2681A620C4A5961EB
:1027B000D9601A6038BD0022D8611A61E1680A0A3E
:1027C0004809C1F3C40102F4784200F4FC600243FA
:1027D0000A439A63034AECE700B002400900010093
:1027E000012302000123030008B50B280BD8DFE802
:1027F00000F00612100A0A0A0A080808080802204F
:1028000008BD0520FCE7054B6F21054A054831F05E
:102810008FFA0020F4E70120F2E700BFCD5503084E
:102820007C560308335603082DE9F04191F81D80CA
:102830000C464046FFF7D8FFA77F05463846FFF70E
:10284000D3FF06463846FFF775FFA18A628B434BDC
:10285000521A1A649A61228B521A1A61E28A5863D8
:1028600042EA014221695A646268D963DA602068E9
:10287000802828D0227F0FD8202866D0402864D016
:1028800004281AD045EA0265344BB84545F40035B2
:10289000DD6160D0324A44E0B0F5807F04D0B0F50D
:1028A000007FEFD12F4800E02F4840EA0262DA6152
:1028B000E2681A625E62596132E045EA026242F4FD
:1028C0000032DA61F6E7A068021DDA62227F45EA8B
:1028D000026545F40035DD615E625961017841B100
:1028E000012921D0214B4FF48D71214A214831F02B
:1028F0001FFADA69418822F47F42013922F010027E
:1029000042EA01220121DA61144BDA6942F0200225
:10291000DA61DA699206FCD410229A600029B9D0F3
:10292000154A1A60BDE8F081B2F1FF01DA6940880A
:1029300022F47F4218BF0121013822F0100242EA3E
:10294000002242F01002DA61DEE745EA0262034B40
:1029500042F40032B5E742F20132E2E700B0024051
:1029600001230100090002000A000200C656030804
:10297000E05603083356030801230200024B1B688C
:10298000586803685B691847187B012070B50446D6
:102990000A4B0C3000262546602260602672667263
:1029A00045F8203B294617F0A1F904F55A63EE607B
:1029B00024359D42FBD1204670BD00BF2857030837
:1029C000034B1A68D207FCD423229A60704700BFD9
:1029D00000B00240094B5A69D2030AD5BFF34F8FAA
:1029E00008440029A0EB010204DCBFF34F8FBFF3C2
:1029F0006F8F70472039C3F86822F2E700ED00E0DE
:102A000030B5104C2568ED07FCD423250904FF2BB5
:102A1000A56041F001014FF0020565636164E06368
:102A20000AD00949656241EA0363E361074B226208
:102A30006061E060236030BDE561039BA363044BEC
:102A4000F8E700BF00B002400900010001000200E9
:102A50000100030030B50F4C2568ED07FCD4232599
:102A60001204FF2BA56042F001024FF002056563DE
:102A70006264E063E16008D01B0643F00213E36187
:102A8000054B65626061236030BD044BE361012347
:102A9000F9E700BF00B0024001000200020002FF9F
:102AA00030B50B4C2568ED07FCD4232512041B061A
:102AB000A56042F00102022543F4003365636264BD
:102AC000E063E160E361034B65626061236030BDF8
:102AD00000B00240010002004069704790F84400D5
:102AE0007047036B23B9C06A003818BF01207047D4
:102AF0000120704780687047043010B50C460FC83D
:102B000084E80F0010BD704708B5034A40F2122157
:102B1000024B034831F00CF970570308097703089A
:102B2000CB57030810B50446482130F0BAF92046C7
:102B300010BD00002DE9F0431C46436BADF51F7D31
:102B400005460E461746002B37D0002203A8DFF8B3
:102B5000A890CDE901320EF035FD4FF4F47250210A
:102B6000249024A808F0E3FC3A46314624A809F052
:102B700037FC012124A808F0D5FD022324A88DF8F4
:102B8000D83008F070FEBDF898322B9ABDF89C62E0
:102B90009342A89F28BF1346419A964203EB4308ED
:102BA000A7EB430728BF1646479B9E4209D824A897
:102BB00008F0DAFD24A808F007FD0DF51F7DBDE83B
:102BC000F083012201A924A808F096FE6B6B03EBA9
:102BD0000800984201D83C44E6E759789A78C90041
:102BE00009EA022201F4FC610A4313F8031B42EADA
:102BF000D10224F8022BECE700F8FFFF0A4A02603A
:102C00000022C0E90522C0E90722C0E90922C0E983
:102C10000B22C0E90D12C0E90F2280F84420C0E960
:102C20000322C0E901227047A85A030810B40C46D9
:102C300011461A46036B3BB1036C806BE41A2044C7
:102C40005DF8044B31F038BBC06AF8E7036B10B590
:102C500073B1036C826BC91A5318525C98785C7814
:102C60000004DB7840EA0420104340EA036010BD12
:102C7000C36A5858FBE7036B43B1036CC91A836BF3
:102C80005A18585C527840EA02207047C36A585A72
:102C90007047000070B50446006B0D461646D8B16B
:102CA000E36B934208D209230D4A65210D4884F84D
:102CB00044300D4B31F03CF80368DB689847206BDB
:102CC0003246A16B03681B69984710B90D2384F83D
:102CD0004430A06B256470BDE06A0844FBE700BF88
:102CE00033580308CB570308205803082DE9F8434D
:102CF000436904462BB9234BAA21234A234831F0C8
:102D000017F808228169FFF7C5FFA16943F2300671
:102D100046F2643704312046FFF798FFA369184450
:102D2000A36A00F108029A4206D3012300206361DE
:102D3000236AA361BDE8F88363690930082201337F
:102D400020F0010120466361A161FFF7A3FFD4F8E1
:102D5000189020464946FFF78EFF09F10201804690
:102D60002046FFF788FF09F1040105462046FFF7DA
:102D70006DFFB045D2D1BD42D0D10028CED00120C8
:102D8000D8E700BF75580308BE580308CB5703089F
:102D90002DE9F04F0446ADF51F7D8A461646816940
:102DA00008229846FFF776FFA7692046391DFFF7EE
:102DB0004DFF07F10801024605462046FFF76AFF6E
:102DC000636B074633B93C4B40F2AB113B4A3C487E
:102DD00030F0AEFF002203A8CDE901320EF0F2FB85
:102DE0004FF4F4725021249024A808F0A0FB2A4646
:102DF000394624A809F0F4FA012124A808F092FC2D
:102E0000022324A88DF8D83008F02DFDBAF902501D
:102E1000479BAB4229D3BAF900904FEA4808BAF869
:102E200004702B9B08FB05664F44BAF80250DFF88C
:102E300094B03FB29F4228BF1F46BAF8063009EB54
:102E4000490A1D44419B2DB29D4228BF1D46479B08
:102E5000AB4210D324A808F087FC24A808F0B4FBE8
:102E600001200DF51F7DBDE8F08F012201A924A8E6
:102E700008F042FDCCE7012201A924A808F03CFD9E
:102E8000626B49465244B94202F1030201D34644FF
:102E9000DDE712F8020C12F8013CC0000BEA032334
:102EA00000F4FC60034312F8030C43EAD00326F855
:102EB00011300131E7E700BFF15803084759030813
:102EC000CB57030800F8FFFF0129036838BF012131
:102ED000DB6A70B50D4604469847A84204D22368C1
:102EE0002046DB6A984705466B1EE669102220469D
:102EF00006EB031606F10801FFF7CCFE06F1100100
:102F00002046FFF7A3FE236A043B0344C4E90553AC
:102F100070BD0000002148222DE9F0410446816186
:102F200080F84410FFF7B6FEA6690423624A3146D2
:102F30002046FFF77BFE40B10323604AF22184F86C
:102F400044305F4B5F4830F0F3FE06F10801042384
:102F50005D4A2046A161FFF769FE30B10423574A5C
:102F6000FA2184F84430594BECE706F10C010423B4
:102F7000574A2046A161FFF759FE074638B105239D
:102F80004E4A40F2011184F84430524BDAE706F120
:102F900010012046FFF75AFE054620B94E4B40F27D
:102FA0000711464ACEE706F1140804234B4A20468F
:102FB0004146FFF73BFE002849D0062384F8443001
:102FC0000423474A06F118012046FFF72FFE002888
:102FD0003FD0072384F844304544424F0C2220461A
:102FE0002946FFF757FE05F1080604233A46204616
:102FF0003146FFF71BFE94F84430002848D0002BE0
:1030000048D1A36AAB4249D805F10C0304352046E8
:10301000A3612946FFF71AFE304429466062204624
:10302000FFF714FE0644042220463146FFF732FE25
:1030300004232D4A31462046FFF7F8FD002838D1F9
:103040000123E6616361A3692362BDE8F081012782
:10305000B6E7002FC0D006F120012046FFF7F6FDAD
:103060004FF47A7306F13001B0FBF3F06060204654
:10307000FFF7ECFD06F14001A0602046FFF7E6FDFA
:1030800006F14401E0602046FFF7E0FD2061A3E780
:10309000002BB9D00A2384F84430D6E7291D2046F6
:1030A000FFF7D4FD85190C2220462946FFF7F2FDD3
:1030B00099E70B23EFE700BFA1590308BF590308A5
:1030C000A6590308CB570308EC590308F159030824
:1030D000095A03080E5A0308245A0308305A0308F1
:1030E000355A03083A5A03083F5A0308C0E90A212F
:1030F00000220263FFF70EBF10B500230446084606
:10310000E3620B6821639B689847A0622046BDE894
:103110001040FFF7FFBEF0B4069FBDF81050BDF899
:10312000146032B12BB10495CDE90567F0BCFFF70F
:1031300001BDF0BC704700002DE9F04F994643698E
:1031400085B004460F4690462BB9294B7721294A72
:10315000294830F0EDFD08228169FFF79BFDA66943
:1031600020463146FFF787FDB11C83462046FFF716
:1031700082FD311D82462046FFF768FD06F10801F9
:10318000A36A054642189A4226D243F230039B4571
:1031900017D146F264339A4513D190B10246A1612A
:1031A0002046FFF777FD0E9B01462A462046CDF8C4
:1031B0000080CDE901933B46FFF7ADFF6369013322
:1031C0006361A3692B4405B908330133626A23F0B4
:1031D00001039342A36109D1012301206361236AA2
:1031E000A36180F0010005B0BDE8F08F0020F8E792
:1031F00075580308445A0308CB5703080120704749
:103200000C2070470C2303FB0100083070470C238F
:1032100003FB0100083070470120704742F26460F0
:10322000704742F2646303FB01000830704742F2CA
:10323000646303FB010008307047012070471020D1
:10324000704700EB01100830704700EB01100830A8
:103250007047084600F03EBF034B10B504460360BC
:1032600015F0BAF9204610BD505B030810B50446AE
:10327000FFF7F2FF142120462FF013FE204610BD69
:10328000034B10B50446036015F0A6F9204610BDA7
:103290001C5B030810B50446FFF7F2FF42F26C61B5
:1032A00020462FF0FEFD204610BD0000034B10B558
:1032B0000446036015F090F9204610BDE85A030853
:1032C00010B50446FFF7F2FF182120462FF0E9FD64
:1032D000204610BD094B10B50446036000F51A5096
:1032E0001830FFF7B9FF04F12C00FFF7C9FF04F114
:1032F0001400FFF7DBFF204610BD00BF845B03080E
:1033000008B50248FFF7E6FF08BD00BF941500208E
:1033100010B50446FFF7DEFF42F60C0120462FF001
:10332000C0FD204610BD00002DE9F34100F048FD2E
:103330000024054600F048FD234601462246284663
:1033400000941FF095FE274B274A2046274D1A6010
:1033500002F0EAF8264B274A27489A601FF0F0FD52
:103360002B68BFF35B8FDB0736D428462FF09BFD1D
:1033700090B3224C224F234B04F1140007F118069E
:1033800004F12C0823606060C4F80880E7602661BF
:1033900015F024F91C4B4046636115F01FF91B4BD7
:1033A0003846E36215F01AF904F50053184A03F29F
:1033B000AC60C3F8982602F047F9224607F11401E1
:1033C000304602F037F9304600F084FE114830F004
:1033D000CDFC28462FF073FD0F4802B0BDE8F04148
:1033E000FFF70CB87C7B01204007002090150020DF
:1033F00060070020440700201800002094150020DA
:103400002C3C0020845B0308E85A03081C5B03087B
:10341000505B030801330008C40600207047000019
:10342000014815F0BABD00BFC406002070B5244E97
:10343000244B254C3046254D2360FFF7A7FA28463C
:1034400024F028FF22481DF0F1F8224B00224FF40F
:10345000807121481A8683F858205A6683F87020B4
:103460005A67DC60C3E912121C49C3E91A121C49ED
:1034700099671C490B604FF4F07101801A48018074
:103480004FF488711948C3E90422C3E90622C3E94D
:103490000822C3E90A22C3E90E22C3E91022C3E9C4
:1034A0001422C3E91722C3E901650180104883F89B
:1034B000342001800F490A700F4A1A6070BD00BFA6
:1034C000EC0700206C5203088C15002060070020D8
:1034D00044070020C40600200C7B012001000001ED
:1034E00000000101187B0120127B01200E7B0120CE
:1034F000147B0120107B0120F85303080148FFF7DB
:10350000FDB800BFEC0700200020704781807047A5
:10351000C180704701817047418170477047704793
:1035200070477047704710B4C4880368121B8488C2
:103530005B6D091B12B25DF8044B09B218474FF6D8
:10354000FF7383814FF0FF3303621368C361106020
:103550007047002070478B88838001207047704738
:1035600080F82610704790F826007047002210B5AA
:10357000B1F90840B1F90A10028042808480C1800C
:1035800010BD0022028042808280C2807047017795
:10359000704780ED080A704780F82410704780F863
:1035A0002510704701207047983070478C30704765
:1035B0008430704770470000034B902283F85A23F1
:1035C00083F85823704700BF00E100E0094A0A4928
:1035D000D3680A48C3F30A03013B9BB20B8011690D
:1035E000C1F30A01013901801364536B43F00103F5
:1035F0005363704700680140A23D0020A03D0020B9
:10360000014BD3F8AC00704700680140024B012227
:10361000C3F8AC105A62704700680140124A5369FF
:10362000DB0370B51ED50023C2F88430BFF34F8F83
:10363000D2F8803043F6E074C3F3C900C3F34E33CD
:103640005B0103EA0406014646EA81750139C2F8C6
:103650007452F9D2203B13F1200FF2D1BFF34F8FF8
:10366000BFF36F8F70BD00BF00ED00E07047704783
:1036700070473823002201FB0333C25490F83830DE
:103680000BB9036C83647047704780F84C10704727
:1036900010B5044658212FF004FC204610BD10B58B
:1036A00004462C212FF0FDFB204610BD10B504462A
:1036B000BC212FF0F6FB204610BD000038B50446B3
:1036C00015F057FC23685D6E1BF038FE014620465E
:1036D000A8472368084A2046D3F888500023A2F55B
:1036E0007F31A847054B064A5A60064A1A649A6415
:1036F0004FF4FF225A6438BD00F807C0643E002032
:10370000BC3E002000F40BC015F01ABC15F024BC20
:1037100015F0E0BB15F04FBD90F8252012B10368FD
:103720005B6918477047000008B531B1044B40F29F
:103730009711044A044830F0FBFA90F8390008BDAC
:10374000905B0308A45B0308315D030810B531B139
:10375000064B40F29111064A064830F0E9FA4068FB
:1037600011460368BDE810401B6B1847905B0308C7
:10377000735D0308315D030808B529B1034B7A2155
:10378000034A044830F0D4FA006908BD905B03088E
:10379000245F0308315D030808B529B1054B832177
:1037A000054A064830F0C4FA41618160C0E906323A
:1037B00008BD00BF905B0308DC600308315D0308AF
:1037C00010B5044629B1274BA421274A274830F0D9
:1037D000AFFA052A34D8DFE802F003292F34393E46
:1037E000406803681B69984750B34FF0FF31606D24
:1037F00005F06CFC0023012294F83E1084F83B3065
:1038000084F83920A360636101B1226284F83E30FC
:103810006362E36A2BB90123206D84F83A3005F026
:1038200045FD606DBDE8104005F080BC002380F8C8
:10383000393084F83E3003E0036200238360436143
:1038400010BD0362002383604361F2E7002380F828
:1038500039300123EDE7003B18BF012380F83D30EC
:10386000EEE700BF905B03089B620308315D03082D
:1038700090F825201AB190F8242002B11860704702
:1038800070B50446164629B1314BE721314A32481A
:1038900030F04EFA90F8393033B1304B1B6893F862
:1038A0006B20436913444361E36A002B4DD0E16907
:1038B000D4E905325343A2684A43934220D2236A93
:1038C000002B42D04FF0FF31606D05F0FFFB236A03
:1038D0000BB10023E362E36AFBB90125606D05F0DB
:1038E00025FC94F839300BB9236A3BB1E36A2BB954
:1038F0000123206D84F83A3005F0D8FC284670BDCD
:1039000094F84C000028DDD09B1AB3FBF1F29942E9
:1039100098BF02F1FF326262D4E7002294F83C5073
:10392000A3623046E262E2682261A2680132A260CC
:10393000336333685B699847002DCED194F83D30EE
:10394000002BCBD184F83950C8E70125C9E700BF67
:10395000905B030872640308315D0308187B012043
:10396000034B4FF080629A604FF080729A6070470C
:1039700000E100E0084B4FF08062C3F88820BFF3FD
:103980004F8FBFF36F8F4FF08072C3F88820BFF363
:103990004F8FBFF36F8F704700E100E038B50346EB
:1039A00090F8380038BB01229860D8609A634FF4D1
:1039B000807258619A874FF4F0729861D8611862EA
:1039C00058629862D8621863586383F83E00CA86CA
:1039D0004FF4887281F834000A8708639A6C186182
:1039E00002F5FF24D3E9101529448C420AD9084B6B
:1039F0005821084A03E0084B40F2F511074A0848ED
:103A000030F096F91A6302F57F329C645A6338BD30
:103A1000D0670308106803081666030846660308A3
:103A2000315D0308002370B5124E05468380124BAA
:103A30000360336893F858200AB1D86C00B99868CD
:103A40000368DB6A98473368B0FA80F4D86C64097D
:103A500030B10368DB6A9847002808BF44F00104CE
:103A60002CB9064B2C21064A064830F061F928464D
:103A700070BD00BF187B0120B86A0308B66903084F
:103A8000146A03084D6A030870B5244E3568BFF305
:103A90005B8F15F001053FD130462FF004FA002866
:103AA0003AD01F4C1F4B04F134002561E584A56218
:103AB000A585C4E90035C4E902551DF016F804F1E6
:103AC000580018F03BFA184B2046A365174B40F8F6
:103AD000843BFFF7A7FF164B1648C4F88430243305
:103AE000C4F89050C4F88C306423C4F89C50C4F8D7
:103AF000A850C4E928350023C4F8AC30C4F8B0306D
:103B0000C4F8B430C4F8B8300B4BC4F8983030F077
:103B10002DF930462FF0D3F9014870BDA43D0020A7
:103B2000A83D0020689C0308D86A0308506B03086E
:103B30001C9C0308B5350008FC9B030810B5144C09
:103B4000236823B3134B144A1B6C11888B4213D187
:103B5000124B198803F0B2FE226892F86A300133E2
:103B600082F86A30FEF774FD206815F04FFF0020E0
:103B7000BDE81040FEF772BB03F0A0FE20680368AA
:103B80001B6A98470020BDE81040FEF797BB10BDA8
:103B9000187B012000680140A23D0020A03D0020CC
:103BA0002DE9F74304464FF4707894F83A304FF01B
:103BB000FF31002B31D0606D05F088FA276BA36AC6
:103BC000BB4200D1676B266A656856B32B683146E5
:103BD00028465B6A98470023236284F83B30606D77
:103BE00005F0A4FA2B684FF4F0723946CDF8008046
:103BF00028465E694FF48873B0474FF0FF310646A0
:103C0000606D05F063FA94F83B30E3B1002384F86B
:103C10003B30606D05F08AFAC7E7206D05F00AFBBE
:103C2000C3E7636A002BDAD02B682846D3E90993EF
:103C30009847616A01442846C847A368626A666279
:103C40001344A360CBE7E7625EB12B6828469B6A0A
:103C5000984701380023E06084F83C6084F83A30EB
:103C6000D7E70120F6E70000014808B5FFF798FF05
:103C7000643E00200368042270B504465E6A002397
:103C80000D46B0474FF0FF31606D05F01FFA382345
:103C900003FB0542D16A09B10021D16203FB05454E
:103CA000012385F83B30002385F83930606DBDE88D
:103CB000704005F03BBA38B500EB810304460D4671
:103CC000114658680368DB68984729462046FFF785
:103CD000D1FF38BD70B50D461146044600EB850294
:103CE0005068026896681A46B04729462046FFF792
:103CF000C1FF70BD38B5164900251648FEF77EFF96
:103D0000154C164B01202A46294623604FF4807338
:103D1000A564A38784F84C0084F83E50C4E910558C
:103D2000C4E91455C4E90155C4E90355C4E905556E
:103D3000C4E90755C4E90955C4E90B55C4E90D5553
:103D400005F020FA2065284605F07EF9606538BD4B
:103D5000043F0020BC3E0020643E00209C6B030812
:103D6000704708B5062921D8DFE801F004080C10D7
:103D700014181C0001F024FC006808BD01F020FCB0
:103D80004068FAE701F01CFC8068F6E701F018FCD7
:103D9000C068F2E701F014FC0069EEE701F010FCE6
:103DA0004069EAE701F00CFC8069E6E70020E4E7FF
:103DB00010B5044604212FF074F8204610BD000011
:103DC00000487047E86B03080420704713B50024CF
:103DD00051B1036801AA01948DF803409C680DF16C
:103DE0000303A04702B010BD0846FBE7C089704737
:103DF000008A7047C088704780887047807A00F0DA
:103E00007F007047807AC00970470020704700002B
:103E10009FED010A704700BF00000000704710B519
:103E2000044608212FF03DF8204610BD704770472A
:103E300000F598730868496803C370477047704776
:103E40004160704770470000064BC0F84801C0F859
:103E50004C310023C0F8503100F5A273C0F8403156
:103E6000704700BF093F0008012303727047704785
:103E7000704710B441680346C2689B68541001EB58
:103E80006200D20748BF0A595DF8044B48BFD358B7
:103E900018470346406830B19A681AB9D86800F0EC
:103EA000010070470120704710B504460C212EF028
:103EB000F8FF204610BD10B5044610212EF0F1FF8A
:103EC000204610BD10B504464FF4AE712EF0E9FF48
:103ED000204610BD10B51BF031FA0368BDE8104054
:103EE000DB6B184710B50446D0F8400158B10368A1
:103EF000DB68984738B1D4F8400103689B6898475D
:103F00000023C4F8403110BD2DE9F14FD0E9556AC6
:103F10000746B06803681B6A984742F26363984299
:103F200005D8444BA321444A44482FF001FF706850
:103F300003681B6A98470F2803D8414BA4213E4AC7
:103F4000F2E7F06803681B6A98470B2803D83D4BDB
:103F5000A521394AE8E7DFF8F4901BF0EFF90430C7
:103F60001BF02AFAD9F8000010B10368DB68984703
:103F7000D9F8000010B103681B689847DFF8D080BB
:103F8000D8F8000010B103685B699847D7F83C0186
:103F900010B103685B689847D8F8000010B1036857
:103FA0001B689847D7F83C0110B103689B68984795
:103FB000F06800214FF0000B03685B6A9847224BC2
:103FC0000446C0F804B080F808B059460360B068F1
:103FD00003685B6A9847054601F092FB7068594692
:103FE00003685B6A98470646294601F067FB331D64
:103FF000C7F83C612846C9F80040C8F80050CAF824
:1040000000302B68C6F808A0DB68EE639847336879
:1040100030461B689847214628461DF077FA2368EA
:1040200020461B699847236820465B6901B0BDE8BC
:10403000F04F1847486C0308D66C0308A86D0308B6
:10404000EF6D0308926E0308AC6F0308607B0120DC
:104050005C7B0120044B1B6893F858200AB1D86C94
:1040600000B99868704700BF187B0120F8B5174663
:1040700004460E461BF072FA124B00251C602946BE
:10408000114B2360114BC4E95135114B1868C4E939
:1040900053550368C4E94F559B68C4E95576984762
:1040A000284601F041FAFFF7D5FF25F046FFFFF75C
:1040B000D1FF25F0BDFFFFF7CDFF25F0C5FF20465E
:1040C000F8BD00BF6C7B0120586F0308406F0308E8
:1040D000187B0120064BC0F84801C0F84C31002382
:1040E000C0F8503100F5A273C0F84031704700BFEE
:1040F000093F0008406A7047806A704770478B88A4
:10410000C069DB0A0A6850F823001044704710B5F4
:104110000446BAB1107B68B1537BD27A1B0203F418
:10412000E0631A43236A03EB82031A888A4202D1AE
:1041300093F9020010BD05D80138043380B200287D
:10414000F3D1F7E70020F5E710B504462C212EF057
:10415000A8FE204610BD000030B58BB00446BDF867
:1041600060500895BDF85C5007959DF85050069535
:104170009DF84C5005959DF8485004959DF8445085
:1041800003959DF8405002959DF83C500195BDF86F
:10419000385000951CF066FD064B20462360159BA9
:1041A000E361169B2362199B63621A9BA3620BB0A7
:1041B00030BD00BFD06F030870477047704770472D
:1041C000704730B585B00368044601816D460146ED
:1041D000D3F884303C342846984795E8070084E8B3
:1041E000070005B030BD30B585B003680446418195
:1041F0006D460146D3F884303C342846984795E80C
:10420000070084E8070005B030BD0022028042802C
:104210008280C280704780F836107047036870B59E
:1042200004461B6B154698472368204629465B6E5B
:10423000BDE87040184700207047806C7047704799
:10424000704710B504464C212EF02BFE204610BDC1
:10425000034B10B50446036019F05CFB204610BD0B
:1042600080720308064B10B50446036019F052FB38
:1042700042F2646120462EF014FE204610BD00BFBD
:104280008072030808B5FFF747FA08BD036870B5E8
:104290005E6B0446114B8DB21B682BB9104B6C2121
:1042A000104A11482FF044FD1049828D098891422F
:1042B00003D80F4B6D210B4AF3E713F812200D4B77
:1042C0001B6853F8220003681B6B9847291A334672
:1042D000204609B2BDE87040184700BF707B01203E
:1042E0003070030872700308AD700308747B0120FE
:1042F000F4700308787B0120036870B504461B6BDB
:10430000154698472368204629465B6BBDE87040F8
:10431000184770B504461D46BDF91060FFF7ECFF65
:104320002368294620469B6B9847236831462046E0
:10433000DB6BBDE8704018470022C0E90122C0E9EC
:104340000322C0E90522C0E907224FF4807282846B
:10435000014A0260704700BF8871030838B50446FF
:104360000D46262200212FF09FFF2046FFF7E4FF95
:10437000064B2046294623602B88E384FF2384F8DC
:10438000283018F0C2FB204638BD00BF3CA003080F
:1043900000224FF0FF318260C0E90021704710B564
:1043A0000446FFF7F5FF204610BD000010B5044697
:1043B000002126222FF078FF2046FFF7BDFF094B92
:1043C0004FF47F0204F13C002360074BA3624FF6D9
:1043D000FF73A3850023C4E90C322387FFF7D8FFBE
:1043E000204610BD5C9E0308406C030810B50446CF
:1043F000FFF7DCFF024B204623600023A36410BDBF
:10440000F07103082DE9F04F0446A7B000271CF017
:10441000D1FEA046A54B26223946E76304F16C067F
:1044200048F8403B40462FF03FFF4046FFF784FFEF
:104430009F4B04F5037930462364FF23A7664FF6AC
:10444000FF7584F866304FF4887A18F0ADF9484665
:10445000FFF7CCFF04F5167304F6B81B1846039358
:10446000FFF7C4FF04F5297318460493FFF7BEFF56
:1044700004F53C7318461093FFF798FF04F54E734C
:1044800018460593FFF7B2FF04F5617318460693CB
:10449000FFF7ACFF04F5747318461193FFF7A6FFFE
:1044A00004F21C4318461293FFF7A0FF04F58D6336
:1044B00018461393FFF79AFF04F2B4431846149377
:1044C000FFF794FF04F5A06318461593FFF78EFFDE
:1044D00004F24C5318461693FFF788FF04F5B363B4
:1044E00018461793FFF782FF04F2E4531846079328
:1044F000FFF75CFF04F22C6318460893FFF756FFA2
:1045000004F2746318460993FFF750FF04F2BC638A
:1045100018460A93FFF74AFF04F2047318460B93F8
:10452000FFF744FF04F24C7318460C93FFF73EFF6D
:1045300004F2947318461893FFF758FF04F5FC63D0
:1045400018461993FFF752FF04F62C0318460D93F3
:10455000FFF72CFF04F6740318460E93FFF726FFAF
:1045600004F6BC0318460F93FFF720FF04F604136C
:1045700023A9ADF88C5018461A93FFF7EFFE04F507
:10458000136323A9ADF88C5018461B93FFF7E6FE82
:1045900004F65C13251D18461C9316F06BFF04F6F9
:1045A000A41318461D93FFF73DFA424B4FF4E15117
:1045B00004F64420C4F8A4392433C4F8B079C4F80C
:1045C000AC3919F09DF93A4640464FF4F07339463C
:1045D000CDF800A0FFF79DFE4FF07F4341462846EF
:1045E000A3664FF0FF3814F0DBF9304623A9ADF88D
:1045F0008C7014F067F94FF4F07330463A46394640
:10460000CDF800A0FFF785FE30468822F02118F093
:1046100076F9304664226FF0B30118F0F5F93B46A5
:1046200042F2283230463946009713F0F8FF304600
:104630003946DFF898A018F091F986230822304611
:10464000022118F047F93046012118F0E5F830460C
:10465000012118F0E4F8314628461EAE14F0A0F906
:10466000B022FD214846FFF747FED4F80C324946F8
:104670003046D3F88430C4F83C82A4F8407298479E
:1046800004F5127396E8070083E80700DAF80030B3
:104690002BB9094B6021094A09482FF049FB094B06
:1046A0001B88ABB9084B6121044AF5E78072030807
:1046B000EC9E03081C9C0308307003083271030849
:1046C000AD700308747B0120F4700308707B012037
:1046D000D24B3946186800F063FFD14A03460521E2
:1046E00058461EF025FA4846C4F854B217F09EFF0B
:1046F000DFF834B32523484623A9CDF88CB0ADF8B4
:10470000903017F0B3FF4946284614F049F9B0221B
:104710004FF48F710398FFF7EFFDD4F858320399E7
:104720003046D3F8843004F6C219C4F88882A4F85D
:104730008C72984704F5257396E8070083E8070014
:10474000DAF80030002BA4D0B64A1388012BA9D97F
:10475000B24B0121186800F023FFB14A034605213E
:1047600048461EF0E5F90398C4F8A09204F6CC1967
:1047700017F05CFF242323A90398ADF89030CDF8FF
:104780008CB017F073FF0399284614F009F9DF2263
:10479000FC210498FFF7B0FDD4F8A4320499304608
:1047A000D3F88430C4F8D482A4F8D872984704F5BA
:1047B000387396E8070083E80700DAF80030002B2A
:1047C0003FF467AF974A1388022B7FF66BAF934B8A
:1047D0000221186800F0E4FE914A0346052148468C
:1047E0001EF0A6F90498C4F8EC9204F6D61917F056
:1047F0001DFF232323A90498ADF89030CDF88CB089
:1048000017F034FF0499284614F0CAF8E02240F269
:104810002D111098FFF770FD10993046C4F82083D1
:10482000A4F8247317F088FC04F54B7396E807008E
:1048300083E80700222323A91098ADF89030CDF823
:104840008CB017F013FF1099284614F0A9F808222D
:1048500018210598FFF750FDD4F8383305993046F4
:10486000D3F88430C4F86883A4F86C73984704F5CF
:104870005D7396E8070083E80700DAF80030002B44
:104880003FF407AF674A1388072B7FF60BAF634BE4
:104890000721186800F084FE614A03460521484656
:1048A0001EF046F90598C4F8809317F0BFFE212347
:1048B00023A90598ADF89030CDF88CB017F0D6FE4E
:1048C0000599284614F06CF8862212210698FFF705
:1048D00013FDD4F8843330460699D3F88430C4F8F5
:1048E000B483A4F8B873984704F5707396E807008A
:1048F00083E80700DAF8003004F51E66002B3FF469
:10490000C8AE484A1388052B7FF6CCAE434B052131
:104910004FF0FF3A4FF00009186800F041FE404A9E
:10492000034605213046DFF804811EF001F90698A0
:10493000C4F8CC6323AE17F079FE192331460698EC
:10494000ADF89030CDF88CB017F090FE069928465F
:1049500014F026F8472213211198FFF7CDFC3046BA
:10496000C4F800A404F6EA1BA4F80494FFF710FDB1
:1049700004F20C4396E8070083E80700D8F80030FB
:10498000002B3FF486AE274F3B88062B7FF68AAE7E
:10499000224B0621186800F003FE214A0346052138
:1049A00058461EF0C5F81198C4F818B404F6F41B64
:1049B00017F03CFE1C491E23119823913146ADF897
:1049C000903017F053FE1199284613F0E9FFE522C5
:1049D00042211298FFF790FC3046C4F84CA4A4F88A
:1049E0005094FFF7D5FC04F58B6396E8070083E845
:1049F0000700D8F80030002B3FF44BAE3B88032B68
:104A00007FF650AE054B0321186800F0C9FD044A3B
:104A10000346052158461EF08BF809E07C7B0120F7
:104A2000188F0308747B0120406C0308707B012001
:104A30001298C4F864B404F6FE1B17F0F7FDD749CA
:104A40001123129823913146ADF8903017F00EFEE5
:104A50001299284613F0A4FFC72242211398FFF7AA
:104A60004BFC3046C4F898A4A4F89C94FFF790FC43
:104A700004F2A44396E8070083E80700D8F8003062
:104A8000002B3FF406AE3B88042B7FF60BAEC44BE5
:104A90000421186800F084FDC24A034605215846E7
:104AA0001EF046F81398C4F8B0B417F0BFFDBB4928
:104AB0001023139823913146ADF8903017F0D6FDAE
:104AC0001399284613F06CFF082240F2A3111498A2
:104AD000FFF712FCC4F8E4A43046A4F8E894FFF70A
:104AE00057FC04F59E6304F6082A96E8070083E85D
:104AF0000700D8F80030002B3FF4CBAD3B880D2BDE
:104B00007FF6D0ADA64B0D21186800F049FDA54AEF
:104B10000346052150461EF00BF81498C4F8FCA477
:104B200017F084FD9D491823149823913146ADF860
:104B3000903017F09BFD1499284613F031FF862220
:104B40004FF4CC711598FFF7D7FB6FF0FF03304699
:104B5000A4F83495C4F83035FFF71AFC04F23C533E
:104B600096E8070083E80700D8F8003004F612261C
:104B7000002B3FF48EAD3B88092B7FF693AD884B1D
:104B8000092123AFDFF8149218684FF0000800F0F5
:104B900007FD844A034605213046DFF810B21DF0B8
:104BA000C7FF1598C4F8486504F61C2617F03EFDAB
:104BB0001C2339461598ADF89030CDF88C9017F03D
:104BC00055FD1599284613F0EBFE472240F2A3113C
:104BD0001698FFF791FB6FF0FF033846A4F8808525
:104BE000C4F87C35FFF7D4FB04F5B16397E8070000
:104BF00083E80700DBF80030002B3FF44AAD6A4A37
:104C000013880B2B7FF64EAD654B0B214FF0FF3A0F
:104C1000186800F0C5FC634A0346052130461DF0C4
:104C200087FF1698C4F8946504F6262617F0FEFC54
:104C3000172339461698ADF89030CDF88C9017F0C0
:104C400015FD1699284613F0ABFEC72240F28911D4
:104C50001798FFF751FB3846C4F8C8A5A4F8CC85CF
:104C6000FFF796FB04F2D45397E8070083E80700A8
:104C7000DBF80030002B3FF40CAD4B4A1388082BB7
:104C80007FF610AD464B0821186800F089FC454AB4
:104C90000346052130461DF04BFF1798C4F8E06528
:104CA0001EAE17F0C3FC1B2339461798ADF89030A1
:104CB000CDF88C9017F0DAFC1799284613F070FEA7
:104CC000372209210798FFF717FB07993046C4F8E8
:104CD00014A6A4F8188617F02FFA079901F13C03DF
:104CE00096E8070083E80700202339460798ADF8C7
:104CF0009030CDF88C9017F0B9FC0799284613F046
:104D00004FFEB32209210898FFF7F6FA08993046BA
:104D1000C4F85CA6A4F8608617F00EFA089901F1B1
:104D20003C0396E8070083E80700162339460898F5
:104D3000ADF89030CDF88C9017F098FC0899284683
:104D400013F02EFEF72209210998FFF7D5FA0999E9
:104D50003046C4F8A4A6A4F8A88617F0EDF909997E
:104D600001F13C0396E8070083E807001323394666
:104D70000998ADF89030CDF88C9017F077FC099930
:104D8000284613F00DFEDB2209210A98FFF7B4FA3A
:104D90000A993046C4F8ECA60AE000BF406C03084C
:104DA0007C7B0120188F0308747B0120707B01201D
:104DB000A4F8F08617F0C0F90A9901F13C0396E8CF
:104DC000070083E80700122339460A98ADF89030AF
:104DD000CDF88C9017F04AFC0A99284613F0E0FDB4
:104DE000752209210B98FFF787FA0B993046C4F812
:104DF00034A7A4F8388717F09FF90B9901F13C0309
:104E000096E8070083E807001F2339460B98ADF8A2
:104E10009030CDF88C9017F029FC0B99284613F0B0
:104E2000BFFD37224FF4B9710C98FFF765FA0C9962
:104E30003046C4F87CA7A4F8808717F07DF90C9958
:104E400001F13C0396E8070083E807001523394683
:104E50000C98ADF89030CDF88C9017F007FC0C99B9
:104E6000284613F09DFD232240F28B111898FFF77E
:104E700043FA3846C4F8C4A7A4F8C887FFF788FAED
:104E800004F5FA6397E8070083E8070004F5236157
:104E9000DBF800300391002B3FF4FBAB8D4A138805
:104EA0000C2B7FF6FFAB8C4B0C21186800F078FBC5
:104EB0008A4A0346052103981DF03AFE0399189883
:104EC000C4F8DC1717F0B2FB0F2339461898ADF879
:104ED0009030CDF88C9017F0C9FB1899284613F044
:104EE0005FFD622240F28B111998FFF705FA3846F0
:104EF000C4F810A8A4F81488FFF74AFA04F61C03B3
:104F000097E8070083E8070004F63A21DBF8003051
:104F10000391002B3FF4BDAB6E4A13880A2B7FF63A
:104F2000C1AB6D4B0A21186800F03AFB6B4A03468F
:104F3000052103981DF0FCFD039B1998C4F828383F
:104F400017F074FB0E2339461998ADF89030CDF860
:104F50008C9017F08BFB1999284613F021FDB32292
:104F60000D9840F27711FFF7C7F90D993046C4F854
:104F70005CA8A4F8608817F0DFF80D9B96E807009E
:104F80003C33CDF88C9083E807001D2339460D98FB
:104F9000ADF8903017F06AFB0D99284613F000FD2C
:104FA00075220E9840F28111FFF7A6F90E9930464E
:104FB000C4F8A4A8A4F8A88817F0BEF80E9B96E839
:104FC00007003C33CDF88C9083E807001423394662
:104FD0000E98ADF8903017F049FB0E99284613F063
:104FE000DFFCF5220F984FF4B771FFF785F90F99A1
:104FF0003046C4F8ECA8A4F8F08817F09DF80F9B91
:1050000096E807003C33CDF88C9083E807001A231C
:1050100039460F98ADF8903017F028FB0F992846C5
:1050200013F0BEFC3C221A98D821FFF765F9032340
:1050300039461A98ADF88C3017F067FD1A99284652
:1050400013F0AEFC6C221B984FF48671FFF754F9F5
:10505000012339461B98ADF88C3017F056FD1B998B
:10506000284613F09DFC4FF48873424641461C9835
:1050700000934FF4F073FFF74CF94FF4F0532846C8
:105080001C99C4F888394FF48853C4F89C89C4F833
:105090008C394FF40C53C4F89489C4F890394FF408
:1050A000345384F88189C4F898394FF0FF23C4F849
:1050B000B0394FF4FC63A4F8B4391D9BC4F88439AB
:1050C000842384F8823913F06BFC204627B0BDE8B6
:1050D000F08F00BF747B01207C7B0120188F0308B8
:1050E0007047000030B5164D8FB02C68BFF35B8F52
:1050F00014F0010421D128462DF0D5FEE8B13F235C
:10510000012210490993104B10480893104B0A9440
:105110000594CDE906430423CDE9033212230D2281
:105120000093CDE90B44CDE90144FFF715F8094898
:105130002EF01CFE28462DF0C2FE04480FB030BDF4
:10514000844600209C840890F0AA0308884600202A
:105150000CAB0308E15000087047000030B5164D55
:105160008FB02C68BFF35B8F14F0010421D1284667
:105170002DF099FEE8B13F23012210490993104B0D
:1051800010480893104B0A940594CDE90643042374
:10519000CDE903321E230B220093CDE90B44CDE968
:1051A0000144FEF7D9FF09482EF0E0FD28462DF016
:1051B00086FE04480FB030BDB446002054850890E8
:1051C000F4AA0308B846002010AB030859510008A0
:1051D0007047000030B5164D8FB02C68BFF35B8F61
:1051E00014F0010421D128462DF05DFEE8B13F23E3
:1051F000012210490993104B10480893104B0A9450
:105200000594CDE906430423CDE9033224230B2280
:105210000093CDE90B44CDE90144FEF79DFF094819
:105220002EF0A4FD28462DF04AFE04480FB030BDF4
:10523000E4460020F0850890F8AA0308E84600201C
:1052400014AB0308D15100087047000030B5164D6B
:105250008FB02C68BFF35B8F14F0010421D1284676
:105260002DF021FEE8B13F230D2210490993104B88
:1052700010480893104B0A94079301230194049358
:10528000CDE905430423CDE902432623CDE90B44B0
:105290000093FEF761FF09482EF068FD28462DF0C7
:1052A0000EFE04480FB030BD144700208C860890D5
:1052B000FCAA03081847002018AB0308495200084D
:1052C0007047000030B5174D8FB02C68BFF35B8F6F
:1052D00014F0010422D128462DF0E5FDF0B13F2362
:1052E000012211490993114B11480893114B0A945B
:1052F0000594CDE906430423CDE903322C230D2286
:1053000000932D23CDE90B44CDE90144FEF724FFA2
:1053100009482EF02BFD28462DF0D1FD04480FB092
:1053200030BD00BF444700204487089000AB03080D
:10533000484700201CAB0308C1520008704700001A
:1053400030B5174D8FB02C68BFF35B8F14F001049C
:1053500022D128462DF0A7FDF0B1124B01221249AF
:1053600012480A940594CDE90B433F230993104B4F
:105370000893104BCDE906430423CDE903320A23F9
:1053800009220093CDE90144FEF7E6FE0A482EF01B
:10539000EDFC28462DF093FD04480FB030BD00BF52
:1053A00074470020AC720308FC87089078470020FF
:1053B00004AB030820AB03083D530008704700000E
:1053C00030B5174D8FB02C68BFF35B8F14F001041C
:1053D00023D128462DF067FDF8B1124B1A2212494D
:1053E00012480A940194CDE90B433F230993104BD3
:1053F0000893104B07930123CDE90543049304233D
:10540000CDE902430C2300930E23FEF7A5FE0A48C4
:105410002EF0ACFC28462DF052FD04480FB030BDF4
:10542000A4470020AC7203087C880890A84700209D
:1054300008AB030824AB0308BD53000800207047E5
:10544000002070470EB403B503AB002153F8042BC2
:1054500001931AF00BFF02B05DF804EB03B0704744
:105460000CB407B504AB53F8042B01931AF0FEFEFD
:1054700003B05DF804EB02B070470000436C10B558
:10548000044673B3038F2BB9184BC521184A19482A
:105490002EF04EFCC38E00EB43035B8C0BB31CF071
:1054A00093FD238F012B03D8134BCB21134AEEE737
:1054B000E28E40F63F10531C9BB2092B194688BF61
:1054C000A3F10A0104EB4101498C814209D10A2B65
:1054D00004EB420228BF0023508C04EB43035884A2
:1054E00051842046BDE810401CF070BC02770308D0
:1054F0000B770308B6770308007803080E780308D3
:105500001CF02DBC10B586B002AC84E806001A462B
:105510000AAB214605930193099B0093089B19F060
:105520008FFA06B010BD000038B518BB124B1348F7
:105530001C681349B4B122682244026062682244A4
:105540000A60A26814440F4B00221A8000F038F859
:10555000054600F033F80C4B1C600C4B1D600C4BE7
:10556000188007E00B4B03600B4B0B600B4B1C6868
:10557000002CE8D138BD00BFE0470020D84700200C
:10558000D4470020DC470020707B0120787B01207D
:10559000747B0120808A0890E8890890548B0890D9
:1055A000044B1B6853F82100034B1B6803EB4000BE
:1055B000704700BFD4470020D847002026207047FE
:1055C00000487047E447002010B50B4CFFF73EFE43
:1055D0002060FFF7FFFD6060FFF774FEA060FFF73B
:1055E000EFFEE060FFF7ACFE2061FFF7B7FD606102
:1055F000FFF778FDA06110BDE447002010B500243E
:1056000004600C6014601C6010BD704710B5044647
:105610004FF4AE712DF045FC204610BD10B5044688
:10562000D0F8580100F01EF82046BDE8104019F0EF
:1056300021BF000010B50446FEF718FD014B2046BF
:10564000236010BDE878030800225C2110B50446F1
:105650000260012004F038FB014B1860204610BDA9
:1056600000480020084B0022084910B5044618687D
:1056700004F065FD012806D1206804490368BDE8EF
:1056800010409B68184710BD0048002004480020C7
:10569000704704387047704710B5044610212DF04C
:1056A00000FC204610BDA0F10400F5E7C06800F042
:1056B00047B8A0F10400FFF7F9BF00000022C16065
:1056C0008260024A02601C32426070473C790308E3
:1056D00070470000034B10B504460360FEF7B8FDA9
:1056E000204610BD7879030810B50446FFF7F2FF95
:1056F00042F2646120462DF0D4FB204610BD00002C
:1057000010B50446FEF77EFE014B2046236010BD17
:1057100078790308054B064A1A606FF0FF02054BC3
:105720001A604FF0FF32044B1A607047684800203F
:105730000000FFFF6448002060480020FEF77FBDA6
:10574000F0B5C74E0D4609680446336899422DED01
:10575000028B83B014D000F16C07384617F0FEF8C6
:1057600038461AF0AEFE2B68BE4A052104F6C21078
:105770001DF0DEF904F516701AF0A3FE2B683360F5
:105780006B68726893420BD0B64A052104F6F41098
:105790001DF0CEF904F21C401AF093FE6B687360A2
:1057A000AB68B268934213D0AE4A052104F61220CA
:1057B0001DF0BEF92B7B002B00F0B981AA4B1B68B2
:1057C00004F5A060C4F830351AF07BFEAB68B36016
:1057D0002B6A326A93420BD0A24A052104F6CC1000
:1057E0001DF0A6F904F529701AF06BFE2B6A3362DE
:1057F0006B6A726A93420BD09A4A052104F6FE1036
:105800001DF096F904F58D601AF05BFE6B6A736209
:10581000AB69B26993420BD0924A052104F6EA10B3
:105820001DF086F904F574701AF04BFEAB69B36194
:1058300095ED0A7AD6ED0A7A9FED8C8A77EE677A33
:10584000F5EEC07AF1EE10FA48BFF1EE677AF4EEA9
:10585000C87AF1EE10FA0ED401AB854A052104F6A0
:105860001C208DED017A1DF061FB04F24C501AF002
:1058700028FEAB6AB36295ED0B7AD6ED0B7A77EE24
:10588000677AF5EEC07AF1EE10FA48BFF1EE677A6A
:10589000F4EEC87AF1EE10FA22D401AB744A052175
:1058A00004F63A208DED017A1DF040FBD5ED0B7A20
:1058B000F5EEC07AF1EE10FA54BF0123002384F80C
:1058C000053895F83030002B00F03381664B1B68AB
:1058D00004F5FC60C4F810381AF0F3FDEB6AF362CB
:1058E00095ED0D7AD6ED0D7A77EE677AF5EEC07A02
:1058F000F1EE10FA48BFF1EE677AF4EEC87AF1EEF5
:1059000010FA0ED401AB5A4A052104F608208DED99
:10591000017A1DF00BFB04F2B4401AF0D2FD6B6B60
:10592000736395ED0E7AD6ED0E7A77EE677AF5EE23
:10593000C07AF1EE10FA48BFF1EE677AF4EEC87A59
:10594000F1EE10FA19D401AB494A052104F52360A0
:105950008DED017A1DF0EAFAD5ED0E7A04F294701D
:10596000F5EEC07AF1EE10FA54BF0123002384F85B
:10597000B9371AF0A6FDAB6BB36395ED0F7AD6ED90
:105980000F7A77EE677AF5EEC07AF1EE10FA48BF3B
:10599000F1EE677AF4EEC87AF1EE10FA0ED401ABAC
:1059A000334A052104F51E608DED017A1DF0BEFA23
:1059B00004F561701AF085FDEB6BF36395ED137AD6
:1059C000D6ED137ADFED2B6A77EE677AF5EEC07AC3
:1059D000F1EE10FA48BFF1EE677AF4EEE67AF1EEF6
:1059E00010FA0ED401AB244A052104F626208DEDD1
:1059F000017A1DF09BFA04F5B3601AF062FDEB6CBE
:105A0000F364AB6CB26C93420BD0164A052104F6DA
:105A1000D6101DF08DF804F54E701AF052FDAB6CE7
:105A2000B36495F8553096F855209A420DD0134A34
:105A3000052104F6B8101DF07BF804F503701AF088
:105A400040FD95F8553086F8553095F8403096F879
:105A500040209A421FD0002B6DD0034B10E000BFB6
:105A60001C000020768C030868480020CDCCCC3D7B
:105A7000647903080AD7233C697903080181030884
:105A80001B6804F56170C4F8B4331AF01AFD95F878
:105A9000403086F8403095F8543096F854209A42B9
:105AA00009D084F8553904F513601AF00AFD95F809
:105AB000543086F8543095F8313096F831209A42B7
:105AC00015D0002B39D02A4B1B6804F24C50C4F877
:105AD0007C351AF0F6FC95F8313004F6041084F8A1
