:020000040800F2
:10000000000005207D1F00088D1E00088F1E0008BF
:10001000911E0008931E0008951E000800000000B5
:1000200000000000000000000000000071950008C2
:10003000971E000800000000119600087596000841
:10004000CD1F0008CD1F0008CD1F0008CD1F0008E0
:10005000CD1F0008CD1F0008CD1F0008CD1F0008D0
:10006000CD1F0008CD1F0008CD1F0008CD1F0008C0
:10007000CD1F0008CD1F0008CD1F0008CD1F0008B0
:10008000CD1F0008CD1F0008CD1F0008CD1F0008A0
:10009000991E0008CD1F0008CD1F0008CD1F0008C5
:1000A000CD1F0008CD1F0008CD1F0008CD1F000880
:1000B000CD1F0008CD1F0008CD1F0008CD1F000870
:1000C000CD1F0008CD1F0008CD1F0008CD1F000860
:1000D000CD1F0008CD1F0008CD1F0008CD1F000850
:1000E000CD1F0008CD1F0008CD1F0008CD1F000840
:1000F000CD1F0008CD1F0008CD1F0008CD1F000830
:10010000CD1F0008CD1F0008CD1F0008CD1F00081F
:10011000CD1F0008CD1F0008A51E0008CD1F000838
:10012000CD1F0008CD1F0008CD1F0008CD1F0008FF
:10013000CD1F0008CD1F0008CD1F0008CD1F0008EF
:10014000CD1F0008CD1F0008CD1F0008CD1F0008DF
:10015000CD1F0008CD1F0008CD1F0008CD1F0008CF
:10016000CD1F0008CD1F0008CD1F0008CD1F0008BF
:10017000CD1F0008CD1F0008CD1F000800000000A3
:10018000CD1F0008CD1F0008CD1F0008CD1F00089F
:10019000CD1F0008CD1F0008CD1F0008CD1F00088F
:1001A000B11E0008CD1F0008BD1E0008CD1F0008AD
:1001B000CD1F0008CD1F0008CD1F0008CD1F00086F
:0801C000CD1F0008CD1F00084F
:1001D00010B5054C237833B9044B13B10448AFF381
:1001E00000800123237010BD4003002000000000A8
:1001F000804E030808B5034B1BB103490348AFF316
:10020000008008BD0000000044030020804E030869
:1002100001F0FF01102A2BDB10F0070F08D010F8B7
:10022000013B013A8B422DD010F0070F42B3F6D1BB
:10023000F0B441EA012141EA014122F007047FF0D4
:1002400000070023F0E80256083C85EA010586EA2B
:10025000010685FA47F5A3FA87F586FA47F6A5FA67
:1002600087F68EB9EED1F0BC01F0FF0102F0070273
:1002700032B110F8013B013A83EA010313B1F8D11E
:100280000020704701387047002D06BF35460338FF
:10029000073815F0010F07D1013015F4807F02BF38
:1002A000013015F4C03F0130F0BC0138704700BF89
:1002B00081F0004102E000BF83F0004330B54FEA17
:1002C00041044FEA430594EA050F08BF90EA020F84
:1002D0001FBF54EA000C55EA020C7FEA645C7FEA17
:1002E000655C00F0E2804FEA5454D4EB5555B8BF3A
:1002F0006D420CDD2C4480EA020281EA030382EAAB
:10030000000083EA010180EA020281EA0303362D3C
:1003100088BF30BD11F0004F4FEA01314FF4801C0F
:100320004CEA113102D0404261EB410113F0004F21
:100330004FEA03334CEA133302D0524263EB4303D8
:1003400094EA050F00F0A780A4F10104D5F1200E76
:100350000DDB02FA0EFC22FA05F2801841F10001D1
:1003600003FA0EF2801843FA05F359410EE0A5F1A5
:1003700020050EF1200E012A03FA0EFC28BF4CF0D6
:10038000020C43FA05F3C01851EBE37101F000458C
:1003900007D54FF0000EDCF1000C7EEB00006EEB99
:1003A0000101B1F5801F1BD3B1F5001F0CD3490823
:1003B0005FEA30004FEA3C0C04F101044FEA44527A
:1003C00012F5800F80F09A80BCF1004F08BF5FEA01
:1003D000500C50F1000041EB045141EA050130BDE1
:1003E0005FEA4C0C404141EB0101013C28BFB1F5F3
:1003F000801FE9D291F0000F04BF01460020B1FA3E
:1004000081F308BF2033A3F10B03B3F120020CDA10
:100410000C3208DD02F1140CC2F10C0201FA0CF0EE
:1004200021FA02F10CE002F11402D8BFC2F1200C53
:1004300001FA02F120FA0CFCDCBF41EA0C01904009
:10044000E41AA2BF01EB0451294330BD6FEA040452
:100450001F3C1CDA0C340EDC04F11404C4F120023D
:1004600020FA04F001FA02F340EA030021FA04F34F
:1004700045EA030130BDC4F10C04C4F1200220FAA6
:1004800002F001FA04F340EA0300294630BD21FAE4
:1004900004F0294630BD94F0000F83F4801306BFAA
:1004A00081F480110134013D4EE77FEA645C18BF9E
:1004B0007FEA655C29D094EA050F08BF90EA020F35
:1004C00005D054EA000C04BF1946104630BD91EA2D
:1004D000030F1EBF0021002030BD5FEA545C05D130
:1004E0004000494128BF41F0004130BD14F580046F
:1004F0003CBF01F5801130BD01F0004545F0FE41E3
:1005000041F470014FF0000030BD7FEA645C1ABF17
:10051000194610467FEA655C1CBF0B46024650EA4E
:10052000013406BF52EA033591EA030F41F400217A
:1005300030BD00BF90F0000F04BF0021704730B500
:100540004FF4806404F132044FF000054FF00001D5
:1005500050E700BF90F0000F04BF0021704730B596
:100560004FF4806404F1320410F0004548BF40426B
:100570004FF000013EE700BF42004FEAE2014FEAC0
:1005800031014FEA02701FBF12F07F4393F07F4F9B
:1005900081F06051704732F07F4208BF704793F09E
:1005A0007F4F04BF41F40021704730B54FF46074B1
:1005B00001F0004521F000411CE700BF50EA0102B4
:1005C00008BF704730B54FF000050AE050EA01025D
:1005D00008BF704730B511F0004502D5404261EBCD
:1005E00041014FF4806404F132045FEA915C3FF40E
:1005F000D8AE4FF003025FEADC0C18BF03325FEAAB
:10060000DC0C18BF033202EBDC02C2F1200300FA5B
:1006100003FC20FA02F001FA03FE40EA0E0021FA80
:1006200002F11444BDE600BF70B54FF0FF0C4CF46E
:10063000E06C1CEA11541DBF1CEA135594EA0C0F20
:1006400095EA0C0F00F0DEF82C4481EA030621EA5B
:100650004C5123EA4C5350EA013518BF52EA033596
:1006600041F4801143F4801338D0A0FB02CE4FF048
:100670000005E1FB02E506F00042E0FB03E54FF078
:100680000006E1FB03569CF0000F18BF4EF0010E70
:10069000A4F1FF04B6F5007F64F5407404D25FEA6C
:1006A0004E0E6D4146EB060642EAC62141EA55511F
:1006B0004FEAC52040EA5E504FEACE2EB4F1FD0C61
:1006C00088BFBCF5E06F1ED8BEF1004F08BF5FEADF
:1006D000500E50F1000041EB045170BD06F0004691
:1006E00046EA010140EA020081EA0301B4EB5C043E
:1006F000C2BFD4EB0C0541EA045170BD41F4801136
:100700004FF0000E013C00F3AB8014F1360FDEBF5A
:10071000002001F0004170BDC4F10004203C35DA36
:100720000C341BDC04F11404C4F1200500FA05F3B9
:1007300020FA04F001FA05F240EA020001F000425A
:1007400021F0004110EBD37021FA04F642EB0601D0
:100750005EEA430E08BF20EAD37070BDC4F10C04FA
:10076000C4F1200500FA04F320FA05F001FA04F2BE
:1007700040EA020001F0004110EBD37041F10001AA
:100780005EEA430E08BF20EAD37070BDC4F12005B5
:1007900000FA05F24EEA020E20FA04F301FA05F21D
:1007A00043EA020321FA04F001F0004121FA04F2C5
:1007B00020EA020000EBD3705EEA430E08BF20EA95
:1007C000D37070BD94F0000F0FD101F000464000CF
:1007D00041EB010111F4801F08BF013CF7D041EA51
:1007E000060195F0000F18BF704703F00046520055
:1007F00043EB030313F4801F08BF013DF7D043EA26
:100800000603704794EA0C0F0CEA135518BF95EADB
:100810000C0F0CD050EA410618BF52EA4306D1D162
:1008200081EA030101F000414FF0000070BD50EA81
:10083000410606BF1046194652EA430619D094EA0B
:100840000C0F02D150EA013613D195EA0C0F05D1F5
:1008500052EA03361CBF104619460AD181EA030149
:1008600001F0004141F0FE4141F470014FF0000001
:1008700070BD41F0FE4141F4780170BD70B54FF09C
:10088000FF0C4CF4E06C1CEA11541DBF1CEA13551C
:1008900094EA0C0F95EA0C0F00F0A7F8A4EB0504FE
:1008A00081EA030E52EA03354FEA013100F08880F5
:1008B0004FEA03334FF0805545EA131343EA1263BE
:1008C0004FEA022245EA111545EA10654FEA002673
:1008D0000EF000419D4208BF964244F1FD0404F52C
:1008E000407402D25B084FEA3202B61A65EB030588
:1008F0005B084FEA32024FF480104FF4002CB6EB45
:10090000020E75EB030E22BFB61A754640EA0C00C4
:100910005B084FEA3202B6EB020E75EB030E22BF04
:10092000B61A754640EA5C005B084FEA3202B6EB45
:10093000020E75EB030E22BFB61A754640EA9C0004
:100940005B084FEA3202B6EB020E75EB030E22BFD4
:10095000B61A754640EADC0055EA060E18D04FEA92
:10096000051545EA16754FEA06164FEAC30343EA32
:1009700052734FEAC2025FEA1C1CC0D111F4801FFF
:100980000BD141EA00014FF000004FF0004CB6E7F8
:1009900011F4801F04BF01430020B4F1FD0C88BF97
:1009A000BCF5E06F3FF6AFAEB5EB030C04BFB6EBA2
:1009B000020C5FEA500C50F1000041EB045170BD95
:1009C0000EF0004E4EEA113114EB5C04C2BFD4EBC2
:1009D0000C0541EA045170BD41F480114FF0000E46
:1009E000013C90E645EA060E8DE60CEA135594EAC2
:1009F0000C0F08BF95EA0C0F3FF43BAF94EA0C0FC5
:100A00000AD150EA01347FF434AF95EA0C0F7FF439
:100A100025AF104619462CE795EA0C0F06D152EA8D
:100A200003353FF4FDAE1046194622E750EA410671
:100A300018BF52EA43067FF4C5AE50EA41047FF482
:100A40000DAF52EA43057FF4EBAE12E74FEA4102E5
:100A500012F5001215D211D56FF47873B3EB625210
:100A600012D94FEAC12343F0004343EA505311F037
:100A7000004F23FA02F018BF404270474FF00000C9
:100A8000704750EA013005D111F0004008BF6FF007
:100A9000004070474FF00000704700BF4FEA41022E
:100AA000B2F1E04324BFB3F5001CDCF1FE5C0DD9CC
:100AB00001F0004C4FEAC0024CEA5070B2F1004F16
:100AC00040EB830008BF20F00100704711F0804F19
:100AD00021D113F13872BCBF01F00040704741F4DE
:100AE00080114FEA5252C2F11802C2F1200C10FAE2
:100AF0000CF320FA02F018BF40F001004FEAC123C6
:100B00004FEAD32303FA0CFC40EA0C0023FA02F369
:100B10004FEA4303CCE77FEA625307D150EA01333F
:100B20001EBF4FF0FE4040F44000704701F000400F
:100B300040F0FE4040F40000704700BF7BB972B93E
:100B40000029BEBF00204FF0004106E008BF00288A
:100B50001CBF6FF000414FF0FF3000F0B5B9ADF1B0
:100B6000080C6DE904CE002909DB002B1ADB00F02C
:100B70004DF8DDF804E0DDE9022304B0704740429F
:100B800061EB4101002B1BDB00F040F8DDF804E0D5
:100B9000DDE9022304B0404261EB4101524263EBC4
:100BA00043037047524263EB430300F02FF8DDF834
:100BB00004E0DDE9022304B0404261EB41017047EB
:100BC000524263EB430300F021F8DDF804E0DDE975
:100BD000022304B0524263EB4303704753B94AB94E
:100BE000002908BF00281CBF4FF0FF314FF0FF3035
:100BF00000F06AB9ADF1080C6DE904CE00F006F81A
:100C0000DDF804E0DDE9022304B070472DE9F04788
:100C1000089D0C46002B4ED194468C458646B2FA70
:100C200082F262D94AB1C2F12003914020FA03F363
:100C30000CFA02FC194300FA02FE4FEA1C471FFAA5
:100C40008CF6B1FBF7F44FEA1E4307FB141143EA9D
:100C5000014304FB06F199420AD91CEB030304F19A
:100C6000FF3080F01281994240F20F81023C6344D0
:100C7000591A1FFA8EF3B1FBF7F007FB101143EA84
:100C8000014300FB06F69E420AD91CEB030300F168
:100C9000FF3180F0FC809E4240F2F98063440238CC
:100CA0009B1B40EA044000211DB1D3400022C5E94E
:100CB0000032BDE8F0878B4205D90DB1C5E90001CE
:100CC00000210846F5E7B3FA83F1002946D1A34293
:100CD00002D39042C0F0F080861A64EB0303012037
:100CE000002DE6D0C5E90063E3E7002A40F09080DC
:100CF000A1EB0C044FEA1C481FFA8CF70121B4FB4E
:100D0000F8F64FEA1E4308FB164443EA044307FB88
:100D100006F0984208D91CEB030306F1FF3402D217
:100D2000984200F2CD8026461C1A1FFA8EF3B4FBBF
:100D3000F8F008FB104443EA044300FB07F79F4226
:100D400008D91CEB030300F1FF3402D29F4200F2EA
:100D5000B0802046DB1B40EA0640A5E7C1F1200633
:100D60008B4022FA06F71F4320FA06FC04FA01F32F
:100D700043EA0C03F44000FA01F8380C4FEA134937
:100D8000B4FBF0FE1FFA87FC00FB1E4449EA044452
:100D90000EFB0CF9A14502FA01F20AD93C190EF139
:100DA000FF3A80F08480A14540F28180AEF1020ECE
:100DB0003C44A4EB09041FFA83F9B4FBF0F300FBF5
:100DC000134449EA044403FB0CFCA44507D93C192D
:100DD00003F1FF3067D2A44565D9023B3C4443EAA6
:100DE0000E40A0FB0293A4EB0C049C42CE469C4612
:100DF00051D34ED055B1B8EB0E0364EB0C0404FA9A
:100E000006F6CB401E43CC40C5E90064002150E704
:100E1000C2F1200320FA03F10CFA02FC24FA03F3D6
:100E200094400C434FEA1C4800FA02FE1FFA8CF76C
:100E3000B3FBF8F008FB1031230C43EA014300FB3D
:100E400007F1994208D91CEB030300F1FF362CD2BD
:100E500099422AD9023863445B1AA4B2B3FBF8F171
:100E600008FB113344EA034401FB07F3A34208D90A
:100E70001CEB040401F1FF3613D2A34211D902394D
:100E80006444E41A41EA004139E70446F0E60846C2
:100E900006E7C845AED2B9EB020E63EB070C01388A
:100EA000A8E73146EDE7034699E73046D4E7D64652
:100EB0007FE7634402384DE70646234608460FE7BE
:100EC000023E634430E700BF704700BF0149002085
:100ED00009F04CBD7924000808B5642007F056FFDE
:100EE000FBE7000000B52A4E97B02A4D2A4C2B4A4A
:100EF00069463368126800930492294A2B68126885
:100F000001930692274A23681268029300230792EE
:100F1000254A8DF80C3012688DF814300892234A57
:100F2000234812680992234A12680A92224A1268D8
:100F30000B9201228DF83020204A12788DF8312052
:100F40001F4A12680D921F4A12680E921E4A1268BA
:100F50000F921E4A12788DF840201D4A00681268D0
:100F600011921C4A126812921B4A126813921B4A71
:100F7000126814921A4A12788DF854204E228DF875
:100F800055201A4608F0D1FD282007F0FFFEAEE7F5
:100F90009C0300209803002094030020900300206D
:100FA0008C0300208803002084030020800300209D
:100FB000282B00207C03002078030020060000205E
:100FC00074030020700300206C0300200500002043
:100FD0006803002064030020600300205C030020FD
:100FE0000400002010B594B01022002102240AA8A9
:100FF00033F008F81422002103A833F003F81C4B47
:101000000C2108A81A6C42F080521A641B6C03F081
:1010100080530193019B174B1A6842F440421A60B7
:1010200001221B6803F440430293029B4FF4803378
:10103000CDE908234FF48003CDE90E43C023CDE969
:101040001244CDE9101306F071FE06F00DFB0F23DC
:1010500000200621CDE903344FF4A053CDE9050368
:101060004FF4805303A8079307F048F814B010BD5D
:1010700000380240007000402DE980489BB01022EB
:10108000002101250DA84FF0104832F0BBFF0024CD
:1010900005F030FAC74B0DA8ADF834501094CDE9E7
:1010A0000E8305F045FA17230DA88DF835508DF8FD
:1010B0003C308DF8425005F03BFA042005F028FA48
:1010C000BFF34F8FBFF36F8FBB4AC2F85042BFF3DD
:1010D0004F8FBFF36F8F536943F400335361BFF3F6
:1010E0004F8FBFF36F8FC2F88440BFF34F8FD2F89A
:1010F000803043F6E074C3F3C900C3F34E335B01A1
:1011000003EA0406014646EA81750139C2F86052D5
:10111000F9D2203B13F1200FF2D1BFF34F8F536967
:1011200043F480335361BFF34F8FBFF36F8F04F0ED
:101130007BFE0024FFF756FF142200210DA832F099
:1011400061FF9E4B10219E481A6B01274FF010083B
:101150004FF0030B42F010024FF48059994D4FF0BD
:10116000040A1A631A6B984E02F010020292029A55
:101170001A6B42F002021A631A6B02F00202039227
:10118000039A1A6B42F001021A631A6B02F0010211
:101190000492049A1A6B42F040021A631A6B02F02E
:1011A00040020592059A1A6B42F400721A631A6B98
:1011B00002F400720692069A1A6B42F008021A6351
:1011C0001A6B02F008020792079A1A6B42F48062C7
:1011D0001A631A6B02F480620892089A1A6B42F042
:1011E00020021A631A6B02F020020992099A1A6B04
:1011F00042F480721A631A6B02F480720A920A9A9D
:101200001A6B42F080021A631A6B02F080020B9292
:101210000B9A1A6B42F004021A6300221B6B03F054
:1012200004030C930C9B05F0D1FC012208216748B4
:1012300005F0CCFC01224FF48051654805F0C6FC56
:101240000022C021634805F0C1FC00224021624811
:1012500005F0BCFC0DA95A48CDE90D87CDE90F4B2F
:1012600005F030FB08230DA95848CDE90D37CDE92D
:101270000F4405F027FB0DA95548CDE90D97CDE9A1
:101280000F4405F01FFBC0220DA95248CDE90D27E0
:10129000CDE90F4B05F016FB40220DA94E48CDE9D4
:1012A0000D27CDE90F4B05F00DFB4C484C498480D0
:1012B00001600762C0E9054405F066F9494928461E
:1012C000C5E90014C5E90244C5E90A44C5E90C446E
:1012D00005F0F9F939462846434D05F0ADFA4023AB
:1012E0004FF4C07241493046B460F461B462C6E95B
:1012F00005324FF40062C6E908294FF002090722BF
:10130000C6E900140DA9CDF84C90C6E903A8CDE9B3
:101310000D92CDE90FA2CDE911B907F045FA2946A2
:101320004FF6FF7230460194C5E90078C5E90274B2
:1013300007F05AFA384604F09BFD29464FF6FF7233
:101340003046C5E90098C5E9027407F04DFA082354
:1013500029464FF6FF723046C5E90234C5E900B8A8
:1013600007F042FA4FF40C734FF6FF7229460193CF
:101370003046019BAF60EB60C5E900A807F034FA86
:1013800040F22B7130461A4D07F04DFA4FF02043D2
:1013900043F2D202642040F215261A6004F068FD80
:1013A000144B154A28462C62C5E90023C5E90247BB
:1013B00024E000BF1B00000300ED00E00038024005
:1013C000000402403C050020C00300200028024029
:1013D0000020024000080240001802407C05002066
:1013E0000030024000B00240A0030020400100A0F5
:1013F000E8040020FFEAC000005C0040C5E90444A6
:10140000C5E9064405F023FD2146284605F046FFC0
:1014100021462846544D05F067FF342221460DEB46
:10142000020032F0EFFD514B2821352040F2352CDF
:101430002C61AC8685F83640C5E900340923C5E93E
:1014400005130B23C5E9070340F21B132846C5E922
:10145000096340F21D130526C5E90BC3C5E9024423
:1014600005F0EEFFFF214FF4F0724FF48873284629
:101470000D941893ADF864408DF866403C4DCDE96D
:1014800012144FF48061CDE914164FF04041CDE9BC
:101490000E24CDE9161222460DA9CDE9103906F029
:1014A0009AF83448344B4FF0180E0462C0E9003704
:1014B0004FF4A063C0E902A8C0E904E3C0E9064410
:1014C00006F0ECF904F030FB04F076FA5C2004F04E
:1014D000FFFF00F051FD294B2846AC61AC83C5E904
:1014E00000364FF4E023C5E90244C5E9043404F0B2
:1014F000D1FC0E230DA92846169314971194159725
:10150000CDE91244CDE90D44CDE90F4404F03EFD90
:10151000284604F0C1FD4946284604F065FE00F067
:1015200057FD00F054FD07F0A3FB154A214615486E
:1015300007F0D8FB144B154A21461860144807F0F1
:10154000D1FB144B144A21461860144807F0CAFB1B
:10155000134B144A21461860134807F0C3FB134B82
:10156000186007F09FFBFEE7400400200068014080
:10157000A0050020F4030020001000A0006400403B
:10158000704F0308D90E0008BC0300204C4F03081D
:10159000DF1F0008B8030020284F0308393B00086C
:1015A000B4030020044F0308E50E0008B003002038
:1015B000F8B5A74C0021A74D22462B462DED028BF6
:1015C00004F095FD2668B6F5587F20D1A368002B5E
:1015D00040F0AB802369082B40F0A7802B889E4AFF
:1015E0005BBAA8889BB240BA136080B29B4A11686C
:1015F0008B42C8BF1360FEF7ADFF8FA3D3E9002372
:10160000FFF712F8FFF722FA954B18608DE040F2D1
:1016100061339E4273D1A368002B5AD12369082BF2
:1016200057D16B88DFED8F8A5BBA9FB22B885BBA8C
:101630009BB207EE903AF8EE677A67EEA87A17EE5B
:10164000900AFEF799FF7EA3D3E90023FEF734FE4C
:101650007DA3D3E90023FEF7E7FFFFF71FFA07EEAC
:10166000907A814B08EE100AF8EE677A186067EE00
:10167000A87A17EE900AFEF77FFF71A3D3E9002343
:10168000FEF71AFE70A3D3E90023FEF7CDFFFFF7A4
:1016900005FA764B07EE900A18606F4B1B68B3F59E
:1016A0002F7F16DD724A92ED007AB4EEC78AF1EE12
:1016B00010FA48BF82ED008A40F6C412934208DD5A
:1016C0006C4B93ED007AF4EEC77AF1EE10FA00D588
:1016D0001860B6F5797F28D1A36833BB2369082B3E
:1016E00023D16B78644A03F001031370EB79634AEA
:1016F000D909C3F380131170614A137015E0B6F570
:101700005A7F41D1A36883B92369082B0DD12B8857
:101710009FED5C7A5BBA9BB207EE903A5A4BF8EEBB
:10172000677A67EE877AC3ED007ABDEC028BF8BD6D
:10173000A368002BF9D12369082BF6D1288840BA79
:1017400080B2FEF707FF3CA3D3E90023FEF76CFF4E
:10175000FFF77CF94D4B18604D4B1A689042E4DD61
:1017600053E7A368002BE0D12369082BDDD12B8838
:101770009FED3C7A5BBA9BB207EE903A454BF8EE90
:10178000677A67EE877ACEE7B6F55C7FD0D040F215
:1017900072339E42E5D0B6F5787F9AD1A368002BCC
:1017A000C3D12369082BC0D128886F8840BAAE887E
:1017B0007FBAEC8880B276BABFB264BAA0F6AB202A
:1017C000B6B2FEF7C7FEA4B21BA3D3E90023FEF70F
:1017D0002BFFFFF73BF9304B1860304B1A689042F3
:1017E000C8BF1860A7F6AB20FEF7B4FE12A3D3E97A
:1017F0000023FEF719FFFFF729F9294B1860A6F619
:10180000AB20FEF7A7FE0CA3D3E90023FEF70CFFE5
:10181000FFF71CF9234B1860A4F6AB20FEF79AFEE5
:1018200005A3D3E90023FEF7FFFEFFF70FF91E4BD8
:1018300018601E4B91E700BF9A9999999999B93F01
:10184000333333333353594000000040E17A843F4F
:10185000D0050020C80500209C030020980300202C
:101860005C030020CDCCCC3D740300207C03002021
:1018700070030020780300200600002004000020F0
:10188000050000206F12833A6003002084030020CB
:10189000800300206C0300209403002090030020AC
:1018A00064030020680300208C03002088030020CC
:1018B0000268034B9A4201D104F0C8BA704700BFD6
:1018C00000100040704700000D4B82B00F216FF0F8
:1018D00001001A6C42F080521A641A6C02F08052B5
:1018E0000092009A5A6C42F480425A6400225B6C67
:1018F00003F480430193019B02B004F0A9BD00BF33
:101900000038024010B588B004461422002103A814
:1019100032F078FB2268174B9A4228D103F5EA335C
:10192000032115481A6C42F000721A641A6C02F016
:1019300000720192019A1A6B42F002021A634FF48C
:1019400040721B6B03F002030293029B0223CDE95A
:1019500003230923CDE9061303A904F0B3FF1420E0
:101960000022052104F074FD142004F0A3FD08B04A
:1019700010BD00BF0064004000040240026882B055
:10198000084B9A420BD1D3F8302803F5006342F498
:1019900080521A631B6B03F480530193019B02B0C6
:1019A000704700BF003002400E4B07B502689A42F4
:1019B00015D1A3F5F04305215A201A6B42F4000219
:1019C0001A6300221B6B03F400030193019B04F0D4
:1019D0003FFD5A2003B05DF804EB04F06BBD03B08B
:1019E0005DF804FB00B0024010B5A8B00446142214
:1019F000002102A832F006FB8422002107A832F061
:101A000001FB2268174B9A422AD14FF4803307A872
:101A1000079306F03FFC08B1FFF754FF124C4FF458
:101A2000C07201211148236B43F080032363236BB1
:101A300003F080030093009B1223CDE902230323CC
:101A4000CDE90413042302A9069304F03BFF236CA1
:101A500043F400032364236C03F400030193019B0C
:101A600028B010BD005C004000380240001C02405D
:101A7000026808B5094B9A420FD1094A80210948EA
:101A8000136C23F40003136405F000F84FF4807125
:101A90000448BDE8084004F0F9BF08BD005C004000
:101AA00000380240001C024070B5ACB0044614225D
:101AB000002106A832F0A6FA842200210BA832F0F9
:101AC000A1FA2268464B9A4240F0878008230BA86F
:101AD0000B93322310930223CDE911330123159385
:101AE00006F0D8FB08B1FFF7EDFE3E4B00240225BF
:101AF0000E265A6C06A93C4842F080625A645A6C21
:101B000002F080620092009A1A6B42F010021A638F
:101B10001A6B02F010020192019A1A6B42F40072E1
:101B20001A631A6B02F400720292029A1A6B42F460
:101B300080621A631A6B02F480620392039A1A6B32
:101B400042F040021A631A6B02F040020492049AB7
:101B50001A6B42F480721A631B6B03F48073059353
:101B6000059B1023CDE90635CDE908440A9604F01B
:101B7000A9FE4EF6FF7306A91C480A96CDE9063564
:101B8000CDE9084404F09EFEF72306A918480A96FA
:101B9000CDE90635CDE9084404F094FE4FF48053B6
:101BA00006A91448CDE906350923CDE908440A936E
:101BB00004F088FE4FF4464306A90F480A96CDE983
:101BC0000635CDE9084404F07DFE58202246052163
:101BD00004F03EFC582004F06DFC2CB070BD00BF3A
:101BE000006801400038024000100240002402401A
:101BF0000028024000180240002002401422002168
:101C00002DE9F0418AB004460DEB020032F0FAF9FA
:101C100022682C4B9A4251D12B4B022503240926D2
:101C20009A6B4FF0040805A9284842F002020027E9
:101C30009A639A6B02F002020192019A1A6B42F0C7
:101C400010021A631A6B02F010020292029A1A6BC7
:101C500042F002021A631A6B02F002020392039A24
:101C60001A6B42F008021A631B6B03F0080304931B
:101C7000049BCDE90585CDE9084604F023FE402309
:101C800005A91348CDE905350A23CDE90774099361
:101C900004F018FE05A90E480996CDE90585CDE9A1
:101CA000077404F00FFE4FF4605305A90948099624
:101CB000CDE90535CDE9077404F004FE0AB0BDE8AE
:101CC000F08100BF001000A0003802400010024068
:101CD00000040240000C0240026808B50B4B9A4217
:101CE00013D10B4A04210B48936B23F00203936337
:101CF00004F0CCFE4421084804F0C8FE4FF46051C3
:101D00000648BDE8084004F0C1BE08BD001000A0B0
:101D1000003802400010024000040240000C024063
:101D2000F0B5002387B00393294B1E68002E4DD1D8
:101D30000122022703250C241A6001A9254B2648FD
:101D40009A6B42F001029A639B6B03F001030093CC
:101D5000009B4FF68373CDE90454CDE9013704F0BD
:101D6000B1FD48F2331301A91C480594CDE90137B0
:101D7000CDE9036504F0A6FD4CF2037301A91848F0
:101D80000594CDE90137CDE9036504F09BFD4FF6DD
:101D90003F0301A913480594CDE90137CDE9036557
:101DA00004F090FD282301A90F480594CDE90137DF
:101DB000CDE9036504F086FD082301A90B480594CD
:101DC000CDE90137CDE9036504F07CFD07B0F0BD36
:101DD000EC050020003802400010024000180240CC
:101DE000000C024000140240001C024000080240A7
:101DF000214B1A6C42F0100270B51A6488B01B6C4B
:101E0000054601A903A803F010030293029B06F004
:101E100023FA069B4BBB06F00FFA184E184B3360A3
:101E200040F2E733F360174BB0FBF3F3013B30466E
:101E3000736000233361B360B36106F05BFE044658
:101E400080B9304606F008FD044658B9362004F043
:101E500031FB0F2D0DD822462946362004F0F8FA22
:101E6000094B1D60204608B070BD06F0E5F9400042
:101E7000D3E70124F6E700BF00380240F005002058
:101E80000010004040420F00400000207047FEE775
:101E9000FEE7FEE7FEE77047014804F0C2B900BF65
:101EA000A0050020014806F019BD00BFF005002084
:101EB000014805F033BB00BF40040020014804F096
:101EC00030BC00BF3C0500200120704708B532F04F
:101ED0004DF9162303604FF0FF3008BD08B532F00E
:101EE00045F916230360FEE770B50D4614460E460D
:101EF000731B9C4201DC204670BDAFF3008006F8E6
:101F0000010BF5E770B50D4614460E46731B9C4257
:101F100001DC204670BD16F8010BAFF30080F5E739
:101F20004FF0FF3070474FF4005300204B60704774
:101F300001207047002070470B4A0346116810B516
:101F400009B90A491160106809490A4C0344091B80
:101F50008B4206D932F00AF90C2303604FF0FF30B0
:101F600010BD1360FCE700BF3C060020D06B0120D1
:101F700000000520000A000070470000DFF834D0A0
:101F8000002103E00C4B5B58435004310B480C4BD1
:101F900042189A42F6D30B4A02E0002342F8043B6F
:101FA000094B9A42F9D303F057FE32F0E5F8FFF7F8
:101FB00063F8704700000520B0A803080000002067
:101FC0002801002040030020D06B0120FEE770476D
:101FD00008B501F08BF9BDE8084001F00FB901F038
:101FE00087B9406870474160704700004FF0E022B9
:101FF000D2F8FC3D43F08073C2F8FC3D054B064A25
:10200000D3F8B01F0A43C3F8B02F1A6842F0010298
:102010001A607047001000E055CEACC5521A02EBB2
:102020005302B2FBF3F07047014B5868704700BF92
:10203000001000E0704710B504460C2130F0DFFDC1
:10204000204610BD036810B51B69044631B198479E
:10205000A26863689B1A0344636010BD9847A06040
:10206000FBE70000024B7020024A1360DB68184750
:102070001400002040060020704710B504460421DB
:1020800030F0BDFD204610BD73B50E4E0D46144612
:10209000336813B9002002B070BD1B6970209847E7
:1020A0000028F7D03368702001AA0DF106015B69A2
:1020B0009847BDF8043001202B60BDF8063023603E
:1020C000E9E700BF400600207FB501238DF8172007
:1020D0004FF47A72CDE901320DF1170200920A46EF
:1020E0000146054804F022FF10B1034804F004FF44
:1020F00007B05DF804FB00BFE80400207FB50023B3
:102100000A464FF47A718DF817300123CDE9013179
:102110000DF1170100910146054804F0E1FF10B1EF
:10212000034804F0E9FE9DF8170007B05DF804FBD2
:10213000E8040020032823D8DFE800F0020B131A7C
:10214000104B102110481A68B2FA82F2520904F0BA
:102150003DBD0C4B40215A68B2FA82F252090B483D
:10216000F5E7084B80219A68B2FA82F25209F6E745
:10217000044B40210648DA68B2FA82F25209E6E7D7
:10218000704700BF440600200004024000080240DF
:1021900000180240032823D8DFE800F0020B131ACE
:1021A000104B102110481A68003A18BF012204F0A1
:1021B0000DBD0C4B40215A68003A18BF01220B4854
:1021C000F5E7084B80219A68003A18BF0122F6E72C
:1021D000044B40210648DA68003A18BF0122E6E7BE
:1021E000704700BF4406002000040240000802407F
:1021F0000018024003280FD8DFE800F00206090BA0
:102200001021064804F0E7BC40210548FAE7802188
:10221000FBE740210348F5E7704700BF0004024098
:10222000000802400018024008B5032813D8DFE870
:1022300000F0020A0D0F1021084804F0C1FC431EF3
:102240005842584108BD40210548F6E78021FBE788
:1022500040210448F1E70020F1E700BF00040240FC
:10226000000802400018024070B5084D0024012605
:10227000E0B2FFF7D9FF18B12B68012B18BF2E6011
:1022800001340435052CF3D170BD00BF4406002095
:10229000012380F8781080F879307047002070476B
:1022A00041640039024B18BF01211970704700BF0B
:1022B0008F5E012000207047836B0BB108461847E2
:1022C00070474FF6FF707047406803689B69184776
:1022D0007047000038B5044601F058F908492368F2
:1022E0002046084DD3F88C3098470023284684F8C0
:1022F0004A30FFF77BFE0123256184F8703038BD3A
:10230000000000C05406002001F0E2B801F0E6B879
:1023100070B501F065F910490023C1F88430BFF3AE
:102320004F8FD1F8803043F6E074C3F3C900C3F394
:102330004E335B0103EA0406024646EA8275013A1F
:10234000C1F87452F9D2203B13F1200FF2D1BFF340
:102350004F8FBFF36F8F70BD00ED00E001F042B909
:1023600001F092B801F064BA01F06CBA01F096B8CD
:1023700010B5044617F00AFA23682046D3F8AC30AB
:10238000BDE81040184716F05FBC10B504467C212C
:1023900030F035FC204610BD90F834100D4B10B5D0
:1023A00090F878401A788C4209D03AB90A490B4A19
:1023B00008881488108001220C801A7010BD002A31
:1023C000FCD0064A0449148808880C80108000223A
:1023D000F3E700BF885E0120865E0120845E012055
:1023E00070B50D46194635B9094B40F2D221094A5C
:1023F000094831F04BFBC0E90F52003A074B18BFB8
:1024000001221A700368BDE87040D3F88C30184779
:10241000D44F03080C5003085A5003088E5E012065
:1024200008B5094B1B888B4203D8084B1B88934285
:1024300005D9074B9E21074A074831F027FB074B78
:102440001980074B1A8008BD845E0120865E01203A
:102450009F500308025103085A5003088A5E012066
:102460008C5E0120034690F87A0018B15868036822
:102470001B68184770470000014608B5034B1868F1
:1024800001B1012117F09CF9012008BD905E0120E7
:10249000034B00225A609A60024A1A60704700BFDC
:1024A000540600209C4F03080121002208B508466D
:1024B00006F022FD0A4B186028B90A4B28210A4A67
:1024C0000A4831F0E3FA00220421012006F0DEFD83
:1024D000074B186018B9074B2C21034AF0E708BDD9
:1024E000640600202052030869520308985203082A
:1024F00060060020E3520308024B4FF0FF311868DA
:1025000006F052BD64060020014B186806F088BD35
:1025100064060020024B0021186806F045BD00BF8C
:1025200064060020FFF7F0BF0023034803491A4662
:10253000006806F0F1BD00BF600600200800002022
:1025400013B50023074C01A91A46206806F026FEA1
:102550004FF0FF33002201A9206806F01FFE02B0F1
:1025600010BD00BF6006002003685B6C18470120A7
:10257000704703689B6A1847FEE700000E4B82B065
:102580001A6B42F400021A631A6B02F40002019201
:10259000019A1A6942F400021A611A6922F40002CF
:1025A0001A61064B064A1A61064A5A614FF0806268
:1025B000054B9A6002B07047003802403C0500208D
:1025C000552800087925000800E100E040F2EF30CE
:1025D00070470000054B4FF080620360044BC3F866
:1025E0008820BFF34F8FBFF36F8F7047805403086D
:1025F00000E100E010B504464FF45A61FFF7EAFF2E
:10260000204630F0FCFA204610BD000008B50A282C
:1026100009D8DFE800F006100E08080808101010AE
:102620001000022008BD054B9021054A054831F0F5
:102630002DFA0020F6E70120F4E700BF2553030838
:10264000405303088B53030838B50C46887FFFF7C7
:10265000DDFF174BA58AE28A586342EA05422169E9
:102660005A64628BD963521B1A642568082D0ED1F7
:102670009A611A6158620F4A207F42EA0062DA6169
:10268000E2681A620C4A5961D9601A6038BD0022AA
:10269000D8611A61E1680A0A4809C1F3C40102F469
:1026A000784200F4FC6002430A439A63034AECE771
:1026B00000B00240090001000123020001230300D1
:1026C00008B50B280BD8DFE800F00612100A0A0A3A
:1026D0000A0808080808022008BD0520FCE7054B89
:1026E0006F21054A054831F0D1F90020F4E70120B7
:1026F000F2E700BF25530308D45303088B530308A4
:102700002DE9F04191F81D800C464046FFF7D8FFB7
:10271000A77F05463846FFF7D3FF06463846FFF742
:1027200075FFA18A628B434B521A1A649A61228BFD
:10273000521A1A61E28A586342EA014221695A64D4
:102740006268D963DA602068802828D0227F0FD899
:10275000202866D0402864D004281AD045EA0265B3
:10276000344BB84545F40035DD6160D0324A44E071
:10277000B0F5807F04D0B0F5007FEFD12F4800E0A6
:102780002F4840EA0262DA61E2681A625E625961C9
:1027900032E045EA026242F40032DA61F6E7A0680C
:1027A000021DDA62227F45EA026545F40035DD61EB
:1027B0005E625961017841B1012921D0214B4FF46A
:1027C0008D71214A214831F061F9DA69418822F49A
:1027D0007F42013922F0100242EA01220121DA612E
:1027E000144BDA6942F02002DA61DA699206FCD40D
:1027F00010229A600029B9D0154A1A60BDE8F0810C
:10280000B2F1FF01DA69408822F47F4218BF01214A
:10281000013822F0100242EA002242F01002DA618E
:10282000DEE745EA0262034B42F40032B5E742F2CA
:102830000132E2E700B0024001230100090002007A
:102840000A0002001E540308385403088B5303087F
:1028500001230200024B1B68586803685B69184734
:10286000905E012070B504460A4B0C3000262546C8
:10287000602260602672667245F8203B294617F098
:10288000F5F804F55A63EE6024359D42FBD12046ED
:1028900070BD00BF80540308034B1A68D207FCD4F4
:1028A00023229A60704700BF00B00240094B5A696A
:1028B000D2030AD5BFF34F8F08440029A0EB0102D1
:1028C00004DCBFF34F8FBFF36F8F70472039C3F81D
:1028D0006822F2E700ED00E030B5104C2568ED0706
:1028E000FCD423250904FF2BA56041F001014FF022
:1028F000020565636164E0630AD00949656241EAE3
:102900000363E361074B22626061E060236030BDD6
:10291000E561039BA363044BF8E700BF00B00240EE
:1029200009000100010002000100030030B50F4C56
:102930002568ED07FCD423251204FF2BA56042F087
:1029400001024FF0020565636264E063E16008D054
:102950001B0643F00213E361054B6562606123606F
:1029600030BD044BE3610123F9E700BF00B0024032
:1029700001000200020002FF30B50B4C2568ED0794
:10298000FCD4232512041B06A56042F00102022597
:1029900043F4003365636264E063E160E361034B29
:1029A00065626061236030BD00B00240010002003A
:1029B0004069704790F844007047036B23B9C06AC0
:1029C000003818BF012070470120704780687047A9
:1029D000043010B50C460FC884E80F0010BD7047D6
:1029E00008B5034A40F21221024B034831F04EF879
:1029F000C8540308617403082355030810B504463E
:102A0000482130F0FCF8204610BD00002DE9F043CD
:102A10001C46436BADF51F7D05460E461746002B41
:102A200037D0002203A8DFF8A890CDE901320EF0DC
:102A300089FC4FF4F4725021249024A808F037FC4C
:102A40003A46314624A809F08BFB012124A808F05E
:102A500029FD022324A88DF8D83008F0C4FDBDF864
:102A600098322B9ABDF89C629342A89F28BF1346C8
:102A7000419A964203EB4308A7EB430728BF16464B
:102A8000479B9E4209D824A808F02EFD24A808F0F0
:102A90005BFC0DF51F7DBDE8F083012201A924A890
:102AA00008F0EAFD6B6B03EB0800984201D83C4448
:102AB000E6E759789A78C90009EA022201F4FC6134
:102AC0000A4313F8031B42EAD10224F8022BECE775
:102AD00000F8FFFF0A4A02600022C0E90522C0E9AF
:102AE0000722C0E90922C0E90B22C0E90D12C0E9A2
:102AF0000F2280F84420C0E90322C0E90122704778
:102B00000058030810B40C4611461A46036B3BB13B
:102B1000036C806BE41A20445DF8044B31F07ABA00
:102B2000C06AF8E7036B10B573B1036C826BC91A06
:102B30005318525C98785C780004DB7840EA0420F3
:102B4000104340EA036010BDC36A5858FBE7036BAB
:102B500043B1036CC91A836B5A18585C527840EA27
:102B600002207047C36A585A7047000070B5044687
:102B7000006B0D461646D8B1E36B934208D2092389
:102B80000D4A65210D4884F844300D4B30F07EFF2E
:102B90000368DB689847206B3246A16B03681B69AA
:102BA000984710B90D2384F84430A06B256470BD9C
:102BB000E06A0844FBE700BF8B5503082355030870
:102BC000785503082DE9F843436904462BB9234B94
:102BD000AA21234A234830F059FF08228169FFF7D0
:102BE000C5FFA16943F2300646F26437043120463E
:102BF000FFF798FFA3691844A36A00F108029A42FC
:102C000006D3012300206361236AA361BDE8F88332
:102C1000636909300822013320F001012046636115
:102C2000A161FFF7A3FFD4F8189020464946FFF7AB
:102C30008EFF09F1020180462046FFF788FF09F167
:102C4000040105462046FFF76DFFB045D2D1BD42D5
:102C5000D0D10028CED00120D8E700BFCD55030841
:102C600016560308235503082DE9F04F0446ADF529
:102C70001F7D8A461646816908229846FFF776FF2F
:102C8000A7692046391DFFF74DFF07F108010246ED
:102C900005462046FFF76AFF636B074633B93C4B96
:102CA00040F2AB113B4A3C4830F0F0FE002203A852
:102CB000CDE901320EF046FB4FF4F472502124901E
:102CC00024A808F0F4FA2A46394624A809F048FA5C
:102CD000012124A808F0E6FB022324A88DF8D830AF
:102CE00008F081FCBAF90250479BAB4229D3BAF9EC
:102CF00000904FEA4808BAF804702B9B08FB056661
:102D00004F44BAF80250DFF894B03FB29F4228BF58
:102D10001F46BAF8063009EB490A1D44419B2DB203
:102D20009D4228BF1D46479BAB4210D324A808F004
:102D3000DBFB24A808F008FB01200DF51F7DBDE892
:102D4000F08F012201A924A808F096FCCCE701220B
:102D500001A924A808F090FC626B49465244B9428C
:102D600002F1030201D34644DDE712F8020C12F827
:102D7000013CC0000BEA032300F4FC60034312F89B
:102D8000030C43EAD00326F811300131E7E700BF16
:102D9000495603089F5603082355030800F8FFFF10
:102DA0000129036838BF0121DB6A70B50D4604466E
:102DB0009847A84204D223682046DB6A9847054614
:102DC0006B1EE6691022204606EB031606F1080189
:102DD000FFF7CCFE06F110012046FFF7A3FE236AA1
:102DE000043B0344C4E9055370BD000000214822A0
:102DF0002DE9F0410446816180F84410FFF7B6FEEA
:102E0000A6690423624A31462046FFF77BFE40B1A3
:102E10000323604AF22184F844305F4B5F4830F06E
:102E200035FE06F1080104235D4A2046A161FFF743
:102E300069FE30B10423574AFA2184F84430594BD3
:102E4000ECE706F10C010423574A2046A161FFF785
:102E500059FE074638B105234E4A40F2011184F865
:102E60004430524BDAE706F110012046FFF75AFED4
:102E7000054620B94E4B40F20711464ACEE706F10F
:102E8000140804234B4A20464146FFF73BFE002826
:102E900049D0062384F844300423474A06F1180138
:102EA0002046FFF72FFE00283FD0072384F8443048
:102EB0004544424F0C2220462946FFF757FE05F1B4
:102EC000080604233A4620463146FFF71BFE94F8D5
:102ED0004430002848D0002B48D1A36AAB4249D8DF
:102EE00005F10C0304352046A3612946FFF71AFEBD
:102EF0003044294660622046FFF714FE064404224F
:102F000020463146FFF732FE04232D4A3146204643
:102F1000FFF7F8FD002838D10123E6616361A3695A
:102F20002362BDE8F0810127B6E7002FC0D006F18B
:102F300020012046FFF7F6FD4FF47A7306F13001C9
:102F4000B0FBF3F060602046FFF7ECFD06F14001B6
:102F5000A0602046FFF7E6FD06F14401E060204650
:102F6000FFF7E0FD2061A3E7002BB9D00A2384F826
:102F70004430D6E7291D2046FFF7D4FD85190C22E1
:102F800020462946FFF7F2FD99E70B23EFE700BF44
:102F9000F956030817570308FE560308235503087C
:102FA0004457030849570308615703086657030845
:102FB0007C570308885703088D5703089257030866
:102FC00097570308C0E90A2100220263FFF70EBFEA
:102FD00010B5002304460846E3620B6821639B6832
:102FE0009847A0622046BDE81040FFF7FFBEF0B44E
:102FF000069FBDF81050BDF8146032B12BB1049596
:10300000CDE90567F0BCFFF701BDF0BC70470000DB
:103010002DE9F04F9946436985B004460F46904626
:103020002BB9294B7721294A294830F02FFD082256
:103030008169FFF79BFDA66920463146FFF787FDB2
:10304000B11C83462046FFF782FD311D8246204693
:10305000FFF768FD06F10801A36A054642189A4287
:1030600026D243F230039B4517D146F264339A458A
:1030700013D190B10246A1612046FFF777FD0E9B68
:1030800001462A462046CDF80080CDE901933B4613
:10309000FFF7ADFF636901336361A3692B4405B991
:1030A00008330133626A23F001039342A36109D11B
:1030B000012301206361236AA36180F0010005B050
:1030C000BDE8F08F0020F8E7CD5503089C570308B2
:1030D00023550308012070470C2070470C2303FB85
:1030E0000100083070470C2303FB010008307047D3
:1030F0000120704740F6E810704740F6E81303FBE4
:1031000001000830704740F6E81303FB0100083067
:103110007047012070471020704700EB0110083005
:10312000704700EB011008307047084600F03ABFC6
:10313000034B10B50446036015F00EF9204610BD90
:10314000A858030810B50446FFF7F2FF14212046E3
:103150002FF055FD204610BD034B10B5044603600B
:1031600015F0FAF8204610BD7458030810B504464F
:10317000FFF7F2FF4FF41F6120462FF040FD20467D
:1031800010BD0000034B10B50446036015F0E4F8D1
:10319000204610BD4058030810B50446FFF7F2FF63
:1031A000182120462FF02BFD204610BD084B10B5EE
:1031B0000446036000F61C20FFF7BAFF04F12C0060
:1031C000FFF7CAFF04F11400FFF7DCFF204610BD33
:1031D000DC58030808B50248FFF7E8FF08BD00BF48
:1031E0003815002010B50446FFF7E0FF4FF43961B1
:1031F00020462FF004FD204610BD00002DE9F341CC
:1032000000F046FD0024054600F046FD2346014639
:103210002246284600941FF0AFF8274B274A204645
:10322000274D1A6002F088F8264B274A27489A60F3
:103230001FF00AF82B68BFF35B8FDB0735D42846F5
:103240002FF0DFFC88B3224C224B04F6342604F125
:10325000140004F12C0804F61C2723606060C4F8F5
:103260000880E760266115F079F81B4B40466361E2
:1032700015F074F8194B3846E36215F06FF8184BE7
:1032800004F52360C4F81C3A02F0E6F8224604F57F
:103290002361304602F0D6F8304600F083FE114834
:1032A00030F012FC28462FF0B8FC0F4802B0BDE801
:1032B000F041FFF70FB800BFF45E0120E4060020E4
:1032C0003415002004070020E80600200C00002030
:1032D00038150020DC5803084058030874580308C8
:1032E000A8580308D5310008680600207047000080
:1032F000014815F012BD00BF6806002070B5244ECD
:10330000244B254C3046254D2360FFF7ABFA284669
:1033100024F044F922481CF00DFB224B00224FF40C
:10332000807121481A8683F858205A6683F87020E5
:103330005A67DC60C3E912121C49C3E91A121C491E
:1033400099671C490B604FF4F07101801A480180A5
:103350004FF488711948C3E90422C3E90622C3E97E
:103360000822C3E90A22C3E90E22C3E91022C3E9F5
:103370001422C3E91722C3E901650180104883F8CC
:10338000342001800F490A700F4A1A6070BD00BFD7
:1033900090070020C44F03083015002004070020C8
:1033A000E806002068060020845E0120010000017C
:1033B00000000101905E01208A5E0120865E0120EE
:1033C0008C5E0120885E0120505103080148FFF700
:1033D00001B900BF9007002000207047818070472E
:1033E000C1807047018170474181704770477047C5
:1033F00070477047704710B4C4880368121B8488F4
:103400005B6D091B12B25DF8044B09B218474FF609
:10341000FF7383814FF0FF3303621368C361106051
:103420007047002070478B88838001207047704769
:1034300080F82610704790F826007047002210B5DB
:10344000B1F90840B1F90A10028042808480C1803D
:1034500010BD0022028042808280C28070470177C6
:10346000704780ED080A704780F82410704780F894
:103470002510704701207047983070478C30704796
:103480008430704770470000034B902283F85A2322
:1034900083F85823704700BF00E100E0094A0A4959
:1034A000D3680A48C3F30A03013B9BB20B8011693E
:1034B000C1F30A01013901801364536B43F0010326
:1034C0005363704700680140CA200020C8200020D4
:1034D000014BD3F8AC00704700680140024B012259
:1034E000C3F8AC105A62704700680140124A536931
:1034F000DB0370B51ED50023C2F88430BFF34F8FB5
:10350000D2F8803043F6E074C3F3C900C3F34E33FE
:103510005B0103EA0406014646EA81750139C2F8F7
:103520007452F9D2203B13F1200FF2D1BFF34F8F29
:10353000BFF36F8F70BD00BF00ED00E070477047B4
:1035400070473823002201FB0333C25490F838300F
:103550000BB9036C83647047704780F84C10704758
:1035600010B5044658212FF04AFB204610BD10B577
:1035700004462C212FF043FB204610BD10B5044615
:10358000BC212FF03CFB204610BD000038B504469E
:1035900015F0AFFB23685D6E1BF054F80146204622
:1035A000A8472368084A2046D3F888500023A2F58C
:1035B0007F31A847054B064A5A60064A1A649A6446
:1035C0004FF4FF225A6438BD00F807C08C21002058
:1035D000E421002000F40BC015F072BB15F07CBB99
:1035E00015F038BB15F0A7BC90F8252012B1036880
:1035F0005B6918477047000008B531B1044B40F2D1
:103600009711044A044830F041FA90F8390008BD97
:10361000E8580308FC580308895A030810B531B16B
:10362000064B40F29111064A064830F02FFA4068E6
:1036300011460368BDE810401B6B1847E8580308A3
:10364000CB5A0308895A030808B529B1034B7A21DC
:10365000034A044830F01AFA006908BDE858030824
:103660007C5C0308895A030808B529B1054B8321FE
:10367000054A064830F00AFA41618160C0E9063225
:1036800008BD00BFE8580308345E0308895A0308E0
:1036900010B5044629B1274BA421274A274830F00A
:1036A000F5F9052A34D8DFE802F003292F34393E32
:1036B000406803681B69984750B34FF0FF31606D55
:1036C00005F0BEFB0023012294F83E1084F83B3045
:1036D00084F83920A360636101B1226284F83E302E
:1036E0006362E36A2BB90123206D84F83A3005F058
:1036F00097FC606DBDE8104005F0D2BB002380F858
:10370000393084F83E3003E0036200238360436174
:1037100010BD0362002383604361F2E7002380F859
:1037200039300123EDE7003B18BF012380F83D301D
:10373000EEE700BFE8580308F35F0308895A03085F
:1037400090F825201AB190F8242002B11860704733
:1037500070B50446164629B1314BE721314A32484B
:1037600030F094F990F8393033B1304B1B6893F84E
:103770006B20436913444361E36A002B4DD0E16938
:10378000D4E905325343A2684A43934220D2236AC4
:10379000002B42D04FF0FF31606D05F051FB236AE2
:1037A0000BB10023E362E36AFBB90125606D05F00C
:1037B00077FB94F839300BB9236A3BB1E36A2BB934
:1037C0000123206D84F83A3005F02AFC284670BDAC
:1037D00094F84C000028DDD09B1AB3FBF1F299421B
:1037E00098BF02F1FF326262D4E7002294F83C50A5
:1037F000A3623046E262E2682261A2680132A260FE
:10380000336333685B699847002DCED194F83D301F
:10381000002BCBD184F83950C8E70125C9E700BF98
:10382000E8580308CA610308895A0308905E01201A
:10383000034B4FF080629A604FF080729A6070473D
:1038400000E100E0084B4FF08062C3F88820BFF32E
:103850004F8FBFF36F8F4FF08072C3F88820BFF394
:103860004F8FBFF36F8F704700E100E038B503461C
:1038700090F8380038BB01229860D8609A634FF402
:10388000807258619A874FF4F0729861D86118621B
:1038900058629862D8621863586383F83E00CA86FB
:1038A0004FF4887281F834000A8708639A6C1861B3
:1038B00002F5FF24D3E9101529448C420AD9084B9C
:1038C0005821084A03E0084B40F2F511074A08481E
:1038D00030F0DCF81A6302F57F329C645A6338BD1D
:1038E00028650308686503086E6303089E63030880
:1038F000895A0308002370B5124E05468380124B87
:103900000360336893F858200AB1D86C00B99868FE
:103910000368DB6A98473368B0FA80F4D86C6409AE
:1039200030B10368DB6A9847002808BF44F00104FF
:103930002CB9064B2C21064A064830F0A7F8284639
:1039400070BD00BF905E0120106803080E67030879
:103950006C670308A567030870B5244E3568BFF38C
:103960005B8F15F001053FD130462FF04AF9002852
:103970003AD01F4C1F4B04F134002561E584A56249
:10398000A585C4E90035C4E902551CF032FA04F1FA
:10399000580017F06BFC184B2046A365174B40F8F6
:1039A000843BFFF7A7FF164B1648C4F88430243336
:1039B000C4F89050C4F88C306423C4F89C50C4F808
:1039C000A850C4E928350023C4F8AC30C4F8B0309E
:1039D000C4F8B430C4F8B8300B4BC4F8983030F0A9
:1039E00073F830462FF019F9014870BDCC20002043
:1039F000D0200020C099030830680308A868030895
:103A000074990308853400085499030810B5144CC0
:103A1000236823B3134B144A1B6C11888B4213D1B8
:103A2000124B198803F004FE226892F86A300133C1
:103A300082F86A30FEF778FD206815F0A7FE0020B6
:103A4000BDE81040FEF776BB03F0F2FD2068036886
:103A50001B6A98470020BDE81040FEF79BBB10BDD5
:103A6000905E012000680140CA200020C82000208C
:103A70002DE9F74304464FF4707894F83A304FF04C
:103A8000FF31002B31D0606D05F0DAF9276BA36AA6
:103A9000BB4200D1676B266A656856B32B68314616
:103AA00028465B6A98470023236284F83B30606DA8
:103AB00005F0F6F92B684FF4F0723946CDF8008026
:103AC00028465E694FF48873B0474FF0FF310646D1
:103AD000606D05F0B5F994F83B30E3B1002384F84C
:103AE0003B30606D05F0DCF9C7E7206D05F05CFA4E
:103AF000C3E7636A002BDAD02B682846D3E9099321
:103B00009847616A01442846C847A368626A6662AA
:103B10001344A360CBE7E7625EB12B6828469B6A3B
:103B2000984701380023E06084F83C6084F83A301C
:103B3000D7E70120F6E70000014808B5FFF798FF36
:103B40008C2100200368042270B504465E6A0023BD
:103B50000D46B0474FF0FF31606D05F071F9382325
:103B600003FB0542D16A09B10021D16203FB05457F
:103B7000012385F83B30002385F83930606DBDE8BE
:103B8000704005F08DB938B500EB810304460D4651
:103B9000114658680368DB68984729462046FFF7B6
:103BA000D1FF38BD70B50D461146044600EB8502C5
:103BB0005068026896681A46B04729462046FFF7C3
:103BC000C1FF70BD38B5164900251648FEF782FFC3
:103BD000154C164B01202A46294623604FF480736A
:103BE000A564A38784F84C0084F83E50C4E91055BE
:103BF000C4E91455C4E90155C4E90355C4E90555A0
:103C0000C4E90755C4E90955C4E90B55C4E90D5584
:103C100005F072F92065284605F0D0F8606538BDDA
:103C20002C220020E42100208C210020F4680308CD
:103C3000704708B5062921D8DFE801F004080C1008
:103C400014181C0001F0C4FB006808BD01F0C0FBA3
:103C50004068FAE701F0BCFB8068F6E701F0B8FBCA
:103C6000C068F2E701F0B4FB0069EEE701F0B0FBD9
:103C70004069EAE701F0ACFB8069E6E70020E4E791
:103C800010B5044604212EF0BAFF204610BD0000F6
:103C900000487047406903080420704713B50024AA
:103CA00051B1036801AA01948DF803409C680DF19D
:103CB0000303A04702B010BD0846FBE7C089704768
:103CC000008A7047C088704780887047807A00F00B
:103CD0007F007047807AC00970470020704700005D
:103CE0009FED010A704700BF00000000704710B54B
:103CF000044608212EF083FF204610BD7047704710
:103D000000F598730868496803C3704770477047A7
:103D10004160704770470000064BC0F84801C0F88A
:103D20004C310023C0F8503100F5A273C0F8403187
:103D3000704700BFD93D00080123037270477047E8
:103D4000704710B441680346C2689B68541001EB89
:103D50006200D20748BF0A595DF8044B48BFD358E8
:103D600018470346406830B19A681AB9D86800F01D
:103D7000010070470120704710B504460C212EF059
:103D80003EFF204610BD10B5044610212EF037FF2F
:103D9000204610BD10B504464FF4AE712EF02FFF33
:103DA000204610BD10B51AF04DFC0368BDE8104068
:103DB000DB6B184710B50446D0F8400158B10368D2
:103DC000DB68984738B1D4F8400103689B6898478E
:103DD0000023C4F8403110BD2DE9F14FD0E9556AF8
:103DE0000746B06803681B6A984740F6E713984295
:103DF00005D8444BA321444A44482FF047FE70683D
:103E000003681B6A98470F2803D8414BA4213E4AF8
:103E1000F2E7F06803681B6A98470B2803D83D4B0C
:103E2000A521394AE8E7DFF8F4901AF00BFC0430DA
:103E30001AF046FCD9F8000010B10368DB68984717
:103E4000D9F8000010B103681B689847DFF8D080EC
:103E5000D8F8000010B103685B699847D7F83C01B7
:103E600010B103685B689847D8F8000010B1036888
:103E70001B689847D7F83C0110B103689B689847C6
:103E8000F06800214FF0000B03685B6A9847224BF3
:103E90000446C0F804B080F808B059460360B06822
:103EA00003685B6A9847054601F032FB7068594623
:103EB00003685B6A98470646294601F007FB331DF5
:103EC000C7F83C612846C9F80040C8F80050CAF855
:103ED00000302B68C6F808A0DB68EE6398473368AB
:103EE00030461B689847214628461CF093FC2368FF
:103EF00020461B699847236820465B6901B0BDE8EE
:103F0000F04F1847A06903082E6A0308006B0308E6
:103F1000476B0308EA6B0308046D0308D85E0120B1
:103F2000D45E0120044B1B6893F858200AB1D86C6A
:103F300000B99868704700BF905E0120F8B5174639
:103F400004460E461AF08EFC124B00251C602946D2
:103F5000114B2360114BC4E95135114B1868C4E96A
:103F600053550368C4E94F559B68C4E95576984793
:103F7000284601F0E1F9FFF7D5FF25F062F9FFF7D8
:103F8000D1FF25F0D9F9FFF7CDFF25F0E1F9204663
:103F9000F8BD00BFE45E0120B06C0308986C030814
:103FA000905E0120064BC0F84801C0F84C31002358
:103FB000C0F8503100F5A273C0F84031704700BF1F
:103FC000D93D0008406A7047806A704770478B8807
:103FD000C069DB0A0A6850F823001044704710B526
:103FE0000446BAB1107B68B1537BD27A1B0203F44A
:103FF000E0631A43236A03EB82031A888A4202D1E0
:1040000093F9020010BD05D80138043380B20028AE
:10401000F3D1F7E70020F5E710B504462C212EF088
:10402000EEFD204610BD000030B58BB00446BDF853
:1040300060500895BDF85C5007959DF85050069566
:104040009DF84C5005959DF8485004959DF84450B6
:1040500003959DF8405002959DF83C500195BDF8A0
:10406000385000951BF082FF064B20462360159BBD
:10407000E361169B2362199B63621A9BA3620BB0D8
:1040800030BD00BF286D0308704770477047704708
:10409000704730B585B00368044601816D4601461E
:1040A000D3F884303C342846984795E8070084E8E4
:1040B000070005B030BD30B585B0036804464181C6
:1040C0006D460146D3F884303C342846984795E83D
:1040D000070084E8070005B030BD0022028042805E
:1040E0008280C280704780F836107047036870B5D0
:1040F00004461B6B154698472368204629465B6E8D
:10410000BDE87040184700207047806C70477047CA
:104110007047704710B504464C212EF070FD2046C4
:1041200010BD10B5044640F6E8112EF068FD20469B
:1041300010BD08B5FFF758FA08BD0000036870B558
:104140005E6B0446114B8DB21B682BB9104B6C2172
:10415000104A11482FF09AFC1049828D098891422B
:1041600003D80F4B6D210B4AF3E713F812200D4BC8
:104170001B6853F8220003681B6B9847291A3346C3
:10418000204609B2BDE87040184700BFE85E012034
:10419000886D0308CA6D0308056E0308EC5E0120F4
:1041A0004C6E0308F05E0120036870B504461B6B7B
:1041B000154698472368204629465B6BBDE870404A
:1041C000184770B504461D46BDF91060FFF7ECFFB7
:1041D0002368294620469B6B984723683146204632
:1041E000DB6BBDE8704018470022C0E90122C0E93E
:1041F0000322C0E90522C0E907224FF480728284BD
:10420000014A0260704700BFE06E030838B50446FB
:104210000D46262200212FF0F5FE2046FFF7E4FF91
:10422000064B2046294623602B88E384FF2384F82D
:10423000283017F002FE204638BD00BF649C0308FA
:1042400000224FF0FF318260C0E90021704710B5B5
:104250000446FFF7F5FF204610BD000010B50446E8
:10426000002126222FF0CEFE2046FFF7BDFF094B8E
:104270004FF47F0204F13C002360074BA3624FF62A
:10428000FF73A3850023C4E90C322387FFF7D8FF0F
:10429000204610BD849A03089869030810B50446A7
:1042A000FFF7DCFF024B204623600023A36410BD10
:1042B000486F03082DE9F04F0446A5B000271CF015
:1042C000FDF8A046984B26223946E76304F16C06B8
:1042D00048F8403B40462FF095FE4046FFF784FFEC
:1042E000924B04F5037930462364FF23A7664FF60B
:1042F000FF7584F866304FF4887A17F0EDFB484676
:10430000FFF7CCFF04F5167304F65C1B1846039305
:10431000FFF7C4FF04F5297318460493FFF7BEFFA7
:1043200004F53C7318461093FFF798FF04F54E739D
:1043300018460593FFF7B2FF04F56173184606931C
:10434000FFF7ACFF04F5747318461193FFF7A6FF4F
:1043500004F21C4318461293FFF7A0FF04F58D6387
:1043600018461393FFF79AFF04F2B44318461493C8
:10437000FFF794FF04F5A06318461593FFF78EFF2F
:1043800004F24C5318461693FFF788FF04F5B36305
:1043900018461793FFF782FF04F2E4531846079379
:1043A000FFF75CFF04F22C6318460893FFF756FFF3
:1043B00004F2746318460993FFF750FF04F2BC63DC
:1043C00018460A93FFF74AFF04F2047318460B934A
:1043D000FFF744FF04F24C7318460C93FFF73EFFBF
:1043E00004F2947318461893FFF758FF04F5FC6322
:1043F00018461993FFF752FF04F62C0318460D9345
:10440000FFF72CFF04F6740318460E93FFF726FF00
:1044100004F6BC0318460F93FFF720FF04F60413BD
:1044200021A9ADF8845018461A93FFF7EFFE04F562
:10443000136321A9ADF8845018461B93FFF7E6FEDD
:104440003A4640464FF4F0733946CDF800A0FFF7E6
:10445000B8FE251D4FF07F43414628464FF0FF38F8
:10446000A36614F05DF9304621A9ADF8847014F00C
:10447000E9F84FF4F07330463A463946CDF800A0DB
:10448000FFF79FFE30468822F02117F0D0FB304620
:1044900064226FF0B30117F04FFC3B4642F2283222
:1044A00030463946009713F07AFF30463946DFF838
:1044B00094A017F0EBFB862308223046022117F068
:1044C000A1FB3046012117F03FFB3046012117F0D8
:1044D0003EFB314628461CAE14F022F9B022FD21E5
:1044E0004846FFF761FED4F80C3249463046D3F80F
:1044F0008430C4F83C82A4F84072984704F51273E3
:1045000096E8070083E80700DAF800302BB9084B7B
:104510006021084A08482FF0B9FA084B1B889BB95C
:10452000074B6121034AF5E7D86F0308149B030882
:10453000886D03088A6E0308056E0308EC5E01208F
:104540004C6E0308E85E0120D24B3946186800F033
:104550002FFFD14A0346052158461DF06DFC484601
:10456000C4F854B217F0FAF9DFF834B325234846FB
:1045700021A9CDF884B0ADF8883017F00FFA49467C
:10458000284614F0CDF8B0224FF48F710398FFF74E
:104590000BFED4F8583203993046D3F8843004F631
:1045A0006619C4F88882A4F88C72984704F52573BC
:1045B00096E8070083E80700DAF80030002BA6D061
:1045C000B64A1388012BABD9B24B0121186800F011
:1045D000EFFEB14A0346052148461DF02DFC039825
:1045E000C4F8A09204F5176917F0B8F9242321A99B
:1045F0000398ADF88830CDF884B017F0CFF903995F
:10460000284614F08DF8DF22FC210498FFF7CCFD3A
:10461000D4F8A43204993046D3F88430C4F8D48254
:10462000A4F8D872984704F5387396E8070083E831
:104630000700DAF80030002B3FF469AF974A13887F
:10464000022B7FF66DAF934B0221186800F0B0FE8D
:10465000914A0346052148461DF0EEFB0498C4F834
:10466000EC9204F67A1917F079F9232321A904981A
:10467000ADF88830CDF884B017F090F90499284649
:1046800014F04EF8E02240F22D111098FFF78CFD47
:1046900010993046C4F82083A4F8247316F0E4FE81
:1046A00004F54B7396E8070083E80700222321A94D
:1046B0001098ADF88830CDF884B017F06FF91099E4
:1046C000284614F02DF8082218210598FFF76CFDF4
:1046D000D4F8383305993046D3F88430C4F8688369
:1046E000A4F86C73984704F55D7396E8070083E8B7
:1046F0000700DAF80030002B3FF409AF674A13884F
:10470000072B7FF60DAF634B0721186800F050FEB2
:10471000614A0346052148461DF08EFB0598C4F802
:10472000809317F01BF9212321A90598ADF8883053
:10473000CDF884B017F032F90599284613F0F0FF50
:10474000862212210698FFF72FFDD4F884333046D5
:104750000699D3F88430C4F8B483A4F8B8739847A2
:1047600004F5707396E8070083E80700DAF8003074
:1047700004F68416002B3FF4CAAE484A1388052B72
:104780007FF6CEAE434B05214FF0FF3A4FF00009C4
:10479000186800F00DFE404A034605213046DFF858
:1047A00004811DF049FB0698C4F8CC6321AE17F0D4
:1047B000D5F8192331460698ADF88830CDF884B085
:1047C00017F0ECF80699284613F0AAFF47221321A8
:1047D0001198FFF7E9FC3046C4F800A404F68E1BDC
:1047E000A4F80494FFF72CFD04F20C4396E80700AC
:1047F00083E80700D8F80030002B3FF488AE274F3D
:104800003B88062B7FF68CAE224B0621186800F001
:10481000CFFD214A0346052158461DF00DFB119896
:10482000C4F818B404F6981B17F098F81C491E2316
:10483000119821913146ADF8883017F0AFF81199F1
:10484000284613F06DFFE52242211298FFF7ACFCD9
:104850003046C4F84CA4A4F85094FFF7F1FC04F5DA
:104860008B6396E8070083E80700D8F80030002B38
:104870003FF44DAE3B88032B7FF652AE054B032130
:10488000186800F095FD044A0346052158461DF0BE
:10489000D3FA09E0F45E0120708C0308EC5E01207D
:1048A00098690308E85E01201298C4F864B404F61D
:1048B000A21B17F053F8D7491123129821913146C2
:1048C000ADF8883017F06AF81299284613F028FFDF
:1048D000C72242211398FFF767FC3046C4F898A41A
:1048E000A4F89C94FFF7ACFC04F2A44396E80700FC
:1048F00083E80700D8F80030002B3FF408AE3B886F
:10490000042B7FF60DAEC44B0421186800F050FD57
:10491000C24A0346052158461DF08EFA1398C4F882
:10492000B0B417F01BF8BB491023139821913146FE
:10493000ADF8883017F032F81399284613F0F0FEDE
:10494000082240F2A3111498FFF72EFCC4F8E4A447
:104950003046A4F8E894FFF773FC04F59E6304F670
:10496000AC1A96E8070083E80700D8F80030002B5F
:104970003FF4CDAD3B880D2B7FF6D2ADA64B0D217C
:10498000186800F015FDA54A0346052150461DF0A4
:1049900053FA1498C4F8FCA416F0E0FF9D491823BC
:1049A000149821913146ADF8883016F0F7FF14992C
:1049B000284613F0B5FE86224FF4CC711598FFF708
:1049C000F3FB6FF0FF033046A4F83495C4F830359C
:1049D000FFF736FC04F23C5396E8070083E8070033
:1049E000D8F8003004F6B616002B3FF490AD3B88A3
:1049F000092B7FF695AD884B092121AFDFF8148292
:104A0000186800F0D5FC854A034605213046DFF8DA
:104A100014B21DF011FA1598C4F8486504F51C6627
:104A200016F09CFF1C2339461598ADF88830CDF858
:104A3000848016F0B3FF1599284613F071FE4722C3
:104A400040F2A3111698FFF7AFFB6FF0FF03384653
:104A5000A4F88095C4F87C35FFF7F2FB04F5B16348
:104A600097E8070083E80700DBF80030002B3FF4ED
:104A70004EAD6B4A13880B2B7FF652AD664B0B2164
:104A80004FF0FF3A186800F093FC644A0346052192
:104A900030461DF0D1F91698C4F8946504F6CA168C
:104AA00016F05CFF172339461698ADF88830CDF81C
:104AB000848016F073FF1699284613F031FEC72242
:104AC00040F289111798FFF76FFB3846C4F8C8A564
:104AD000A4F8CC95FFF7B4FB04F2D45397E8070091
:104AE00083E80700DBF80030002B3FF410AD4C4AA0
:104AF0001388082B7FF614AD474B0821186800F087
:104B000057FC464A0346052130461DF095F9179893
:104B1000C4F8E0651CAE16F021FF1B233946179838
:104B2000ADF88830CDF8848016F038FF1799284604
:104B300013F0F6FD372209210798FFF735FB079997
:104B40003046C4F814A6A4F8189616F08DFC079900
:104B500001F13C0396E8070083E80700202339466B
:104B60000798ADF88830CDF8848016F017FF0799C4
:104B7000284613F0D5FDB32209210898FFF714FB4E
:104B800008993046C4F85CA6A4F8609616F06CFC50
:104B9000089901F13C0396E8070083E80700162313
:104BA00039460898ADF88830CDF8848016F0F6FEC6
:104BB0000899284613F0B4FDF72209210998FFF758
:104BC000F3FA09993046C4F8A4A6A4F8A89616F0FA
:104BD0004BFC099901F13C0396E8070083E80700C4
:104BE000132339460998ADF88830CDF8848016F043
:104BF000D5FE0999284613F093FDDB2209210A9876
:104C0000FFF7D2FA0A993046C4F8ECA6A4F8F09659
:104C10000AE000BF98690308F45E0120708C030865
:104C2000EC5E0120E85E012016F01EFC0A9901F1FD
:104C30003C0396E8070083E80700122339460A98E8
:104C4000ADF88830CDF8848016F0A8FE0A99284681
:104C500013F066FD752209210B98FFF7A5FA0B9951
:104C60003046C4F834A7A4F8389716F0FDFB0B992A
:104C700001F13C0396E8070083E807001F2339464B
:104C80000B98ADF88830CDF8848016F087FE0B992C
:104C9000284613F045FD37224FF4B9710C98FFF701
:104CA00083FA0C993046C4F87CA7A4F8809716F0D4
:104CB000DBFB0C9901F13C0396E8070083E8070051
:104CC000152339460C98ADF88830CDF8848016F05D
:104CD00065FE0C99284613F023FD232240F28B1128
:104CE0001898FFF761FA3846C4F8C4A7A4F8C89723
:104CF000FFF7A6FA04F5FA6397E8070083E80700D0
:104D000004F6D411DBF800300391002B3FF4FFAB25
:104D1000744A13880C2B7FF603AC734B0C21186874
:104D200000F046FB714A0346052103981DF084F804
:104D300003991898C4F8DC1716F010FE0F233946B3
:104D40001898ADF88830CDF8848016F027FE1899B1
:104D5000284613F0E5FC622240F28B111998FFF708
:104D600023FA3846C4F810A8A4F81498FFF768FA94
:104D700004F61C0397E8070083E8070004F6DE1139
:104D8000DBF800300391002B3FF4C1AB554A138888
:104D90000A2B7FF6C5AB544B0A21186800F008FBBC
:104DA000524A0346052103981DF046F8039B1998C3
:104DB000C4F8283816F0D2FD0E2339461998ADF8FC
:104DC0008830CDF8848016F0E9FD1999284613F053
:104DD000A7FCB3220D9840F27711FFF7E5F90D9982
:104DE0003046C4F85CA8A4F8609816F03DFB0D9B13
:104DF00096E807003C33CDF8848083E807001D2344
:104E000039460D98ADF8883016F0C8FD0D99284642
:104E100013F086FC75220E9840F28111FFF7C4F959
:104E20000E993046C4F8A4A8A4F8A89816F01CFB64
:104E30000E9B96E807003C33CDF8848083E807009A
:104E4000142339460E98ADF8883016F0A7FD0E9958
:104E5000284613F065FCF8220F984FF4B871FFF75D
:104E6000A3F90F993046C4F8ECA8A4F8F09816F00E
:104E7000FBFA0F9B96E807003C33CDF8848083E86B
:104E800007001A2339460F98ADF8883016F086FDD2
:104E90000F99284613F044FC3C221A98D821FFF7BA
:104EA00083F9032339461A98ADF8843016F0C5FF0C
:104EB0001A99284613F034FC6C221B984FF4867123
:104EC000FFF772F9012339461B98ADF8843016F0CC
:104ED000B4FF28461B9913F023FC204625B0BDE8FB
:104EE000F08F00BFEC5E0120F45E0120708C03089F
:104EF0007047000030B5164D8FB02C68BFF35B8F44
:104F000014F0010421D128462DF07BFEE8B13F23A7
:104F1000012210490993104B10480893104B0A9432
:104F20000594CDE906430423CDE9033212230D2273
:104F30000093CDE90B44CDE90144FFF775F809482A
:104F40002EF0C2FD28462DF068FE04480FB030BD9B
:104F5000AC2900209C84089048A80308B0290020B0
:104F600064A80308F14E00087047000030B5164DE4
:104F70008FB02C68BFF35B8F14F0010421D1284659
:104F80002DF03FFEE8B13F23012210490993104B59
:104F900010480893104B0A940594CDE90643042366
:104FA000CDE903321E230B220093CDE90B44CDE95A
:104FB0000144FFF739F809482EF086FD28462DF008
:104FC0002CFE04480FB030BDDC2900205485089029
:104FD0004CA80308E029002068A80308694F0008CE
:104FE0007047000030B5164D8FB02C68BFF35B8F53
:104FF00014F0010421D128462DF003FEE8B13F232F
:10500000012210490993104B10480893104B0A9441
:105010000594CDE906430423CDE9033224230B2272
:105020000093CDE90B44CDE90144FEF7FDFF0948AB
:105030002EF04AFD28462DF0F0FD04480FB030BD9B
:105040000C2A0020F085089050A80308102A0020A0
:105050006CA80308E14F00087047000030B5164DFA
:105060008FB02C68BFF35B8F14F0010421D1284668
:105070002DF0C7FDE8B13F230D2210490993104BD5
:1050800010480893104B0A9407930123019404934A
:10509000CDE905430423CDE902432623CDE90B44A2
:1050A0000093FEF7C1FF09482EF00EFD28462DF0B3
:1050B000B4FD04480FB030BD3C2A00208C86089017
:1050C00054A80308402A002070A80308595000087B
:1050D0007047000030B5174D8FB02C68BFF35B8F61
:1050E00014F0010422D128462DF08BFDF0B13F23AE
:1050F000012211490993114B11480893114B0A944D
:105100000594CDE906430423CDE903322C230D2277
:1051100000932D23CDE90B44CDE90144FEF784FF34
:1051200009482EF0D1FC28462DF077FD04480FB039
:1051300030BD00BF6C2A00204487089058A803089F
:10514000702A002074A80308D1500008704700009E
:1051500030B5174D8FB02C68BFF35B8F14F001048E
:1051600022D128462DF04DFDF0B1124B01221249FB
:1051700012480A940594CDE90B433F230993104B41
:105180000893104BCDE906430423CDE903320A23EB
:1051900009220093CDE90144FEF746FF0A482EF0AC
:1051A00093FC28462DF039FD04480FB030BD00BFF8
:1051B0009C2A002004700308FC870890A02A002085
:1051C0005CA8030878A803084D5100087047000048
:1051D00030B5174D8FB02C68BFF35B8F14F001040E
:1051E00023D128462DF00DFDF8B1124B1A22124999
:1051F00012480A940194CDE90B433F230993104BC5
:105200000893104B07930123CDE90543049304232E
:10521000CDE902430C2300930E23FEF705FF0A4855
:105220002EF052FC28462DF0F8FC04480FB030BD9B
:10523000CC2A0020047003087C880890D02A002023
:1052400060A803087CA80308CD510008002070471F
:10525000002070470EB403B503AB002153F8042BB4
:1052600001931AF087F902B05DF804EB03B07047C0
:105270000CB407B504AB53F8042B01931AF07AF978
:1052800003B05DF804EB02B070470000436C10B54A
:10529000044673B3038F2BB9184BC521184A19481C
:1052A0002EF0F4FBC38E00EB43035B8C0BB31CF0BE
:1052B0000FF8238F012B03D8134BCB21134AEEE7B2
:1052C000E28E40F63F10531C9BB2092B194688BF53
:1052D000A3F10A0104EB4101498C814209D10A2B57
:1052E00004EB420228BF0023508C04EB4303588494
:1052F00051842046BDE810401BF0ECBE5A740308F0
:10530000637403080E75030858750308667503086F
:105310001BF0A9BE10B586B002AC84E806001A46A0
:105320000AAB214605930193099B0093089B18F053
:105330000BFD06B010BD000038B518BB124B13486A
:105340001C681349B4B12268224402606268224496
:105350000A60A26814440F4B00221A8000F038F84B
:10536000054600F033F80C4B1C600C4B1D600C4BD9
:10537000188007E00B4B03600B4B0B600B4B1C685A
:10538000002CE8D138BD00BF082B0020002B0020E6
:10539000FC2A0020042B0020E85E0120F05E0120A2
:1053A000EC5E0120808A0890E8890890548B089070
:1053B000044B1B6853F82100034B1B6803EB4000B0
:1053C000704700BFFC2A0020002B002026207047D9
:1053D000004870470C2B002010B50B4CFFF73EFE29
:1053E0002060FFF7FFFD6060FFF774FEA060FFF72D
:1053F000EFFEE060FFF7ACFE2061FFF7B7FD6061F4
:10540000FFF778FDA06110BD0C2B002010B5002423
:1054100004600C6014601C6010BD704710B5044639
:105420004FF4AE712DF0EBFB204610BD10B50446D5
:10543000D0F8580100F01EF82046BDE8104019F0E1
:105440009DB9000010B50446FEF778FD014B2046DB
:10545000236010BD407603080022582110B5044691
:105460000260012004F0F0FA014B1860204610BDE4
:10547000282B0020084B0022084910B50446186864
:1054800004F01DFD012806D1206804490368BDE829
:1054900010409B68184710BD282B00202C2B0020A3
:1054A000704704387047704710B5044610212DF03E
:1054B000A6FB204610BDA0F10400F5E7C06800F08F
:1054C00047B8A0F10400FFF7F9BF00000022C16057
:1054D0008260024A02601C32426070479476030880
:1054E00070470000034B10B504460360FEF70FFE43
:1054F000204610BDD076030810B50446FFF7F2FF32
:1055000040F6E81120462DF07AFB204610BD000041
:1055100010B50446FEF7CEFE014B2046236010BDB9
:10552000D0760308054B064A1A606FF0FF02054B60
:105530001A604FF0FF32044B1A6070478C2B00202A
:105540000000FFFF882B0020842B0020FEF7E0BD29
:10555000F0B5C94E0D4609680446336899422DEDF1
:10556000028B83B014D000F16C07384616F08EFB26
:1055700038461AF02AF92B68C04A052104F666104D
:105580001CF05AFC04F516701AF01FF92B683360F2
:105590006B68726893420BD0B84A052104F69810E4
:1055A0001CF04AFC04F21C401AF00FF96B6873609F
:1055B000AB68B268934213D0B04A052104F6B61026
:1055C0001CF03AFC2B7B002B00F08581AC4B1B6858
:1055D00004F5A060C4F830351AF0F7F8AB68B36092
:1055E0002B6A326A93420BD0A44A052104F5176056
:1055F0001CF022FC04F529701AF0E7F82B6A3362DC
:105600006B6A726A93420BD09C4A052104F6A21081
:105610001CF012FC04F58D601AF0D7F86B6A736207
:10562000AB69B26993420BD0944A052104F68E10FF
:105630001CF002FC04F574701AF0C7F8AB69B36192
:1056400095ED0A7AD6ED0A7A9FED8E8A77EE677A23
:10565000F5EEC07AF1EE10FA48BFF1EE677AF4EE9B
:10566000C87AF1EE10FA0ED401AB874A052104F591
:105670001C608DED017A1CF0DDFD04F24C501AF037
:10568000A4F8AB6AB36295ED0B7AD6ED0B7A77EEA0
:10569000677AF5EEC07AF1EE10FA48BFF1EE677A5C
:1056A000F4EEC87AF1EE10FA17D401AB764A052170
:1056B00004F6DE108DED017A1CF0BCFD95F830305B
:1056C000002B00F00A816E4B1B6804F5FC60C4F8E7
:1056D00010381AF07AF8EB6AF36295ED0D7AD6ED90
:1056E0000D7A77EE677AF5EEC07AF1EE10FA48BFE0
:1056F000F1EE677AF4EEC87AF1EE10FA0ED401AB4F
:10570000614A052104F6AC108DED017A1CF092FD82
:1057100004F2B4401AF059F86B6B736395ED0E7A8E
:10572000D6ED0E7A77EE677AF5EEC07AF1EE10FAE2
:1057300048BFF1EE677AF4EEC87AF1EE10FA0ED4B3
:1057400001AB514A052104F6D4108DED017A1CF00D
:1057500071FD04F294701AF038F8AB6BB36395EDF9
:105760000F7AD6ED0F7A77EE677AF5EEC07AF1EE22
:1057700010FA48BFF1EE677AF4EEC87AF1EE10FA4B
:105780000ED401AB404A052104F684108DED017A58
:105790001CF050FD04F561701AF017F8EB6BF36321
:1057A00095ED137AD6ED137ADFED386A77EE677AE6
:1057B000F5EEC07AF1EE10FA48BFF1EE677AF4EE3A
:1057C000E67AF1EE10FA0ED401AB314A052104F667
:1057D000CA108DED017A1CF02DFD04F5B36019F0AF
:1057E000F4FFEB6CF364AB6CB26C93420BD0234AC6
:1057F000052104F67A101CF01FFB04F54E7019F019
:10580000E4FFAB6CB36495F8553096F855209A4296
:105810000DD0204A052104F65C101CF00DFB04F5A8
:10582000037019F0D2FF95F8553086F8553095F889
:10583000403096F840209A420DD0002B4FD0104BAC
:105840001B6804F56170C4F8B43319F0BEFF95F815
:10585000403086F8403095F8543096F854209A42FB
:105860001AD084F8553904F5136019F0AEFF95F895
:10587000543086F854300FE0902B0020CE89030876
:105880008C2B0020CDCCCC3DBC7603080AD7233C22
:10589000C1760308597E030895F8313096F8312017
:1058A0009A4214D0EBB1104B1B6804F24C50C4F870
:1058B0007C3519F08AFF95F8313004F6041084F82D
:1058C000293919F082FF95F8313086F8313003B06C
:1058D000BDEC028BF0BD054B79E6044BF4E6044BBE
:1058E000AEE7024BE0E700BF8C2B0020882B0020A6
:1058F000842B002000B54FF4807295B04FF080717A
:1059000003460C9205220F9101210692002201917B
:105910000B92139200920B48CDE90312CDE90D22B0
:10592000CDE91122102206A902924FF480020592BD
:105930006A4602F05DF8003818BF012015B05DF826
:1059400004FB00BFE82B002000B54FF4807395B036
:1059500041F2883217480C93062306A906930023C8
:10596000CDE90D330F930B931393CDE9113301F070
:10597000FAFFE0B9022301224FF4800104900D48A0
:10598000CDE900331023CDE9023205236A46CDE983
:1059900005134FF0807306A90F9341F2883302F08C
:1059A00027F8003818BF012015B05DF804FB01206E
:1059B000FAE700BFE82B002000B54FF4807391B0E8
:1059C0004FF040720E480893EB2302A902934FF464
:1059D000406309934FF4005305930023CDE90A3245
:1059E0000A220F9307926A46CDE90D33CDE90033C1
:1059F00002F04FF8003818BF012011B05DF804FB29
:105A0000E82B0020454B01219A6B42F00202F0B5D1
:105A10009A638DB09A6B0924414D042702F002026B
:105A2000002628460092009A9A6942F002029A6182
:105A30009A6922F002029A611A6B42F002021A631A
:105A40001A6B02F002020192019A1A6B42F00202F2
:105A50001A631A6B02F002020292029A1A6B42F067
:105A600008021A631A6B02F008020392039A1A6B77
:105A700042F008021A631A6B02F008020492049AB8
:105A80001A6B42F010021A631A6B02F010020592B0
:105A9000059A1A6B42F008021A6340221B6B03F04E
:105AA00008030693069B0223CDE907230323CDE9D0
:105AB00009130A2307A90B9300F004FF07A928463E
:105AC000079709960B9400F0FDFE4FF4006307A9B9
:105AD0000B941D440793284600F0F4FE4FF48053C6
