:020000040800F2
:1000000000000520652200087521000877210008FE
:10001000792100087B2100087D21000800000000F4
:1000200000000000000000000000000011B90008FE
:100030007F21000800000000B1B9000815BA0008CF
:10004000B5220008B5220008B5220008B522000834
:10005000B5220008B5220008B5220008B522000824
:10006000B5220008B5220008B5220008B522000814
:10007000B5220008B5220008B5220008B522000804
:10008000B5220008B5220008B5220008B5220008F4
:1000900081210008B5220008B5220008B522000819
:1000A000B5220008B5220008B5220008B5220008D4
:1000B000B5220008B5220008B5220008B5220008C4
:1000C000B5220008B5220008B5220008B5220008B4
:1000D000B5220008B5220008B5220008B5220008A4
:1000E000B5220008B5220008B5220008B522000894
:1000F000B5220008B5220008B5220008B522000884
:10010000B5220008B5220008B5220008B522000873
:10011000B5220008B52200088D210008B52200088C
:10012000B5220008B5220008B5220008B522000853
:10013000B5220008B5220008B5220008B522000843
:10014000B5220008B5220008B5220008B522000833
:10015000B5220008B5220008B5220008B522000823
:10016000B5220008B5220008B5220008B522000813
:10017000B5220008B5220008B522000800000000E2
:10018000B5220008B5220008B5220008B5220008F3
:10019000B5220008B5220008B5220008B5220008E3
:1001A00099210008B5220008A5210008B522000801
:1001B000B5220008B5220008B5220008B5220008C3
:0801C000B5220008B522000879
:1001D00010B5054C237833B9044B13B10448AFF381
:1001E00000800123237010BD4003002000000000A8
:1001F000BC79030808B5034B1BB103490348AFF3AF
:10020000008008BD0000000044030020BC79030802
:1002100001F0FF01102A2BDB10F0070F08D010F8B7
:10022000013B013A8B422DD010F0070F42B3F6D1BB
:10023000F0B441EA012141EA014122F007047FF0D4
:1002400000070023F0E80256083C85EA010586EA2B
:10025000010685FA47F5A3FA87F586FA47F6A5FA67
:1002600087F68EB9EED1F0BC01F0FF0102F0070273
:1002700032B110F8013B013A83EA010313B1F8D11E
:100280000020704701387047002D06BF35460338FF
:10029000073815F0010F07D1013015F4807F02BF38
:1002A000013015F4C03F0130F0BC0138704700BF89
:1002B00081F0004102E000BF83F0004330B54FEA17
:1002C00041044FEA430594EA050F08BF90EA020F84
:1002D0001FBF54EA000C55EA020C7FEA645C7FEA17
:1002E000655C00F0E2804FEA5454D4EB5555B8BF3A
:1002F0006D420CDD2C4480EA020281EA030382EAAB
:10030000000083EA010180EA020281EA0303362D3C
:1003100088BF30BD11F0004F4FEA01314FF4801C0F
:100320004CEA113102D0404261EB410113F0004F21
:100330004FEA03334CEA133302D0524263EB4303D8
:1003400094EA050F00F0A780A4F10104D5F1200E76
:100350000DDB02FA0EFC22FA05F2801841F10001D1
:1003600003FA0EF2801843FA05F359410EE0A5F1A5
:1003700020050EF1200E012A03FA0EFC28BF4CF0D6
:10038000020C43FA05F3C01851EBE37101F000458C
:1003900007D54FF0000EDCF1000C7EEB00006EEB99
:1003A0000101B1F5801F1BD3B1F5001F0CD3490823
:1003B0005FEA30004FEA3C0C04F101044FEA44527A
:1003C00012F5800F80F09A80BCF1004F08BF5FEA01
:1003D000500C50F1000041EB045141EA050130BDE1
:1003E0005FEA4C0C404141EB0101013C28BFB1F5F3
:1003F000801FE9D291F0000F04BF01460020B1FA3E
:1004000081F308BF2033A3F10B03B3F120020CDA10
:100410000C3208DD02F1140CC2F10C0201FA0CF0EE
:1004200021FA02F10CE002F11402D8BFC2F1200C53
:1004300001FA02F120FA0CFCDCBF41EA0C01904009
:10044000E41AA2BF01EB0451294330BD6FEA040452
:100450001F3C1CDA0C340EDC04F11404C4F120023D
:1004600020FA04F001FA02F340EA030021FA04F34F
:1004700045EA030130BDC4F10C04C4F1200220FAA6
:1004800002F001FA04F340EA0300294630BD21FAE4
:1004900004F0294630BD94F0000F83F4801306BFAA
:1004A00081F480110134013D4EE77FEA645C18BF9E
:1004B0007FEA655C29D094EA050F08BF90EA020F35
:1004C00005D054EA000C04BF1946104630BD91EA2D
:1004D000030F1EBF0021002030BD5FEA545C05D130
:1004E0004000494128BF41F0004130BD14F580046F
:1004F0003CBF01F5801130BD01F0004545F0FE41E3
:1005000041F470014FF0000030BD7FEA645C1ABF17
:10051000194610467FEA655C1CBF0B46024650EA4E
:10052000013406BF52EA033591EA030F41F400217A
:1005300030BD00BF90F0000F04BF0021704730B500
:100540004FF4806404F132044FF000054FF00001D5
:1005500050E700BF90F0000F04BF0021704730B596
:100560004FF4806404F1320410F0004548BF40426B
:100570004FF000013EE700BF42004FEAE2014FEAC0
:1005800031014FEA02701FBF12F07F4393F07F4F9B
:1005900081F06051704732F07F4208BF704793F09E
:1005A0007F4F04BF41F40021704730B54FF46074B1
:1005B00001F0004521F000411CE700BF50EA0102B4
:1005C00008BF704730B54FF000050AE050EA01025D
:1005D00008BF704730B511F0004502D5404261EBCD
:1005E00041014FF4806404F132045FEA915C3FF40E
:1005F000D8AE4FF003025FEADC0C18BF03325FEAAB
:10060000DC0C18BF033202EBDC02C2F1200300FA5B
:1006100003FC20FA02F001FA03FE40EA0E0021FA80
:1006200002F11444BDE600BF70B54FF0FF0C4CF46E
:10063000E06C1CEA11541DBF1CEA135594EA0C0F20
:1006400095EA0C0F00F0DEF82C4481EA030621EA5B
:100650004C5123EA4C5350EA013518BF52EA033596
:1006600041F4801143F4801338D0A0FB02CE4FF048
:100670000005E1FB02E506F00042E0FB03E54FF078
:100680000006E1FB03569CF0000F18BF4EF0010E70
:10069000A4F1FF04B6F5007F64F5407404D25FEA6C
:1006A0004E0E6D4146EB060642EAC62141EA55511F
:1006B0004FEAC52040EA5E504FEACE2EB4F1FD0C61
:1006C00088BFBCF5E06F1ED8BEF1004F08BF5FEADF
:1006D000500E50F1000041EB045170BD06F0004691
:1006E00046EA010140EA020081EA0301B4EB5C043E
:1006F000C2BFD4EB0C0541EA045170BD41F4801136
:100700004FF0000E013C00F3AB8014F1360FDEBF5A
:10071000002001F0004170BDC4F10004203C35DA36
:100720000C341BDC04F11404C4F1200500FA05F3B9
:1007300020FA04F001FA05F240EA020001F000425A
:1007400021F0004110EBD37021FA04F642EB0601D0
:100750005EEA430E08BF20EAD37070BDC4F10C04FA
:10076000C4F1200500FA04F320FA05F001FA04F2BE
:1007700040EA020001F0004110EBD37041F10001AA
:100780005EEA430E08BF20EAD37070BDC4F12005B5
:1007900000FA05F24EEA020E20FA04F301FA05F21D
:1007A00043EA020321FA04F001F0004121FA04F2C5
:1007B00020EA020000EBD3705EEA430E08BF20EA95
:1007C000D37070BD94F0000F0FD101F000464000CF
:1007D00041EB010111F4801F08BF013CF7D041EA51
:1007E000060195F0000F18BF704703F00046520055
:1007F00043EB030313F4801F08BF013DF7D043EA26
:100800000603704794EA0C0F0CEA135518BF95EADB
:100810000C0F0CD050EA410618BF52EA4306D1D162
:1008200081EA030101F000414FF0000070BD50EA81
:10083000410606BF1046194652EA430619D094EA0B
:100840000C0F02D150EA013613D195EA0C0F05D1F5
:1008500052EA03361CBF104619460AD181EA030149
:1008600001F0004141F0FE4141F470014FF0000001
:1008700070BD41F0FE4141F4780170BD70B54FF09C
:10088000FF0C4CF4E06C1CEA11541DBF1CEA13551C
:1008900094EA0C0F95EA0C0F00F0A7F8A4EB0504FE
:1008A00081EA030E52EA03354FEA013100F08880F5
:1008B0004FEA03334FF0805545EA131343EA1263BE
:1008C0004FEA022245EA111545EA10654FEA002673
:1008D0000EF000419D4208BF964244F1FD0404F52C
:1008E000407402D25B084FEA3202B61A65EB030588
:1008F0005B084FEA32024FF480104FF4002CB6EB45
:10090000020E75EB030E22BFB61A754640EA0C00C4
:100910005B084FEA3202B6EB020E75EB030E22BF04
:10092000B61A754640EA5C005B084FEA3202B6EB45
:10093000020E75EB030E22BFB61A754640EA9C0004
:100940005B084FEA3202B6EB020E75EB030E22BFD4
:10095000B61A754640EADC0055EA060E18D04FEA92
:10096000051545EA16754FEA06164FEAC30343EA32
:1009700052734FEAC2025FEA1C1CC0D111F4801FFF
:100980000BD141EA00014FF000004FF0004CB6E7F8
:1009900011F4801F04BF01430020B4F1FD0C88BF97
:1009A000BCF5E06F3FF6AFAEB5EB030C04BFB6EBA2
:1009B000020C5FEA500C50F1000041EB045170BD95
:1009C0000EF0004E4EEA113114EB5C04C2BFD4EBC2
:1009D0000C0541EA045170BD41F480114FF0000E46
:1009E000013C90E645EA060E8DE60CEA135594EAC2
:1009F0000C0F08BF95EA0C0F3FF43BAF94EA0C0FC5
:100A00000AD150EA01347FF434AF95EA0C0F7FF439
:100A100025AF104619462CE795EA0C0F06D152EA8D
:100A200003353FF4FDAE1046194622E750EA410671
:100A300018BF52EA43067FF4C5AE50EA41047FF482
:100A40000DAF52EA43057FF4EBAE12E74FEA4102E5
:100A500012F5001215D211D56FF47873B3EB625210
:100A600012D94FEAC12343F0004343EA505311F037
:100A7000004F23FA02F018BF404270474FF00000C9
:100A8000704750EA013005D111F0004008BF6FF007
:100A9000004070474FF00000704700BF4FEA41022E
:100AA000B2F1E04324BFB3F5001CDCF1FE5C0DD9CC
:100AB00001F0004C4FEAC0024CEA5070B2F1004F16
:100AC00040EB830008BF20F00100704711F0804F19
:100AD00021D113F13872BCBF01F00040704741F4DE
:100AE00080114FEA5252C2F11802C2F1200C10FAE2
:100AF0000CF320FA02F018BF40F001004FEAC123C6
:100B00004FEAD32303FA0CFC40EA0C0023FA02F369
:100B10004FEA4303CCE77FEA625307D150EA01333F
:100B20001EBF4FF0FE4040F44000704701F000400F
:100B300040F0FE4040F40000704700BF7BB972B93E
:100B40000029BEBF00204FF0004106E008BF00288A
:100B50001CBF6FF000414FF0FF3000F0B5B9ADF1B0
:100B6000080C6DE904CE002909DB002B1ADB00F02C
:100B70004DF8DDF804E0DDE9022304B0704740429F
:100B800061EB4101002B1BDB00F040F8DDF804E0D5
:100B9000DDE9022304B0404261EB4101524263EBC4
:100BA00043037047524263EB430300F02FF8DDF834
:100BB00004E0DDE9022304B0404261EB41017047EB
:100BC000524263EB430300F021F8DDF804E0DDE975
:100BD000022304B0524263EB4303704753B94AB94E
:100BE000002908BF00281CBF4FF0FF314FF0FF3035
:100BF00000F06AB9ADF1080C6DE904CE00F006F81A
:100C0000DDF804E0DDE9022304B070472DE9F04788
:100C1000089D0C46002B4ED194468C458646B2FA70
:100C200082F262D94AB1C2F12003914020FA03F363
:100C30000CFA02FC194300FA02FE4FEA1C471FFAA5
:100C40008CF6B1FBF7F44FEA1E4307FB141143EA9D
:100C5000014304FB06F199420AD91CEB030304F19A
:100C6000FF3080F01281994240F20F81023C6344D0
:100C7000591A1FFA8EF3B1FBF7F007FB101143EA84
:100C8000014300FB06F69E420AD91CEB030300F168
:100C9000FF3180F0FC809E4240F2F98063440238CC
:100CA0009B1B40EA044000211DB1D3400022C5E94E
:100CB0000032BDE8F0878B4205D90DB1C5E90001CE
:100CC00000210846F5E7B3FA83F1002946D1A34293
:100CD00002D39042C0F0F080861A64EB0303012037
:100CE000002DE6D0C5E90063E3E7002A40F09080DC
:100CF000A1EB0C044FEA1C481FFA8CF70121B4FB4E
:100D0000F8F64FEA1E4308FB164443EA044307FB88
:100D100006F0984208D91CEB030306F1FF3402D217
:100D2000984200F2CD8026461C1A1FFA8EF3B4FBBF
:100D3000F8F008FB104443EA044300FB07F79F4226
:100D400008D91CEB030300F1FF3402D29F4200F2EA
:100D5000B0802046DB1B40EA0640A5E7C1F1200633
:100D60008B4022FA06F71F4320FA06FC04FA01F32F
:100D700043EA0C03F44000FA01F8380C4FEA134937
:100D8000B4FBF0FE1FFA87FC00FB1E4449EA044452
:100D90000EFB0CF9A14502FA01F20AD93C190EF139
:100DA000FF3A80F08480A14540F28180AEF1020ECE
:100DB0003C44A4EB09041FFA83F9B4FBF0F300FBF5
:100DC000134449EA044403FB0CFCA44507D93C192D
:100DD00003F1FF3067D2A44565D9023B3C4443EAA6
:100DE0000E40A0FB0293A4EB0C049C42CE469C4612
:100DF00051D34ED055B1B8EB0E0364EB0C0404FA9A
:100E000006F6CB401E43CC40C5E90064002150E704
:100E1000C2F1200320FA03F10CFA02FC24FA03F3D6
:100E200094400C434FEA1C4800FA02FE1FFA8CF76C
:100E3000B3FBF8F008FB1031230C43EA014300FB3D
:100E400007F1994208D91CEB030300F1FF362CD2BD
:100E500099422AD9023863445B1AA4B2B3FBF8F171
:100E600008FB113344EA034401FB07F3A34208D90A
:100E70001CEB040401F1FF3613D2A34211D902394D
:100E80006444E41A41EA004139E70446F0E60846C2
:100E900006E7C845AED2B9EB020E63EB070C01388A
:100EA000A8E73146EDE7034699E73046D4E7D64652
:100EB0007FE7634402384DE70646234608460FE7BE
:100EC000023E634430E700BF704700BF0149002085
:100ED0000BF01CBF6127000808B564200AF02CF94C
:100EE000FBE700002DE98048DFF8ACA1A9B04B4B2F
:100EF000DAED00AA1B680093494B1968494B05912C
:100F000093ED00AA484B93F80090484B93F800B03B
:100F1000474B1B680193474B1B680293464BD3ED2D
:100F2000009A464B93ED009A454B93F80080454B51
:100F30001B680393444B1A68444B0492D3ED008A18
:100F4000434B93ED008A434B1F78434B1E78434B32
:100F50001D68434B1C68434B1B680693424B1B6840
:100F60000793424B1B680893414B1B680993414B05
:100F70001B680A93404B1B680B93404B1B680C93F8
:100F80003F4B1B788DF834303E4B1B788DF8353055
:100F90003D4B1B680E9307F03BF94FF47A73009AB0
:100FA00005991492019A159106A91992029ACDED0C
:100FB00016AA1B92039A8DED17AA2092049A8DF817
:100FC000609021928DF861B0CDED1D9A8DED1E9A45
:100FD0008DF87C80CDED228A8DED238A8DF890707E
:100FE0008DF89160B0FBF3F30F93284B28481B68F2
:100FF00090ED007B10930023264811931A468DF83C
:1010000068308DF870308DED127BCDE92554006885
:101010000AF05BFF28200AF08FF868E798030020A9
:10102000940300201C00002019000020180000205C
:10103000A8030020A40300208C030020140000203B
:101040008803002084030020800300207C0300200C
:10105000100000200C000020780300207403002002
:1010600008000020B4030020B0030020AC030020DF
:10107000A00300209C030020700300206C030020CC
:1010800005000020040000205C030020680300200D
:1010900060030020EC4E00209003002010B594B0B7
:1010A0001022002102240AA835F04AFD1422002152
:1010B00003A835F045FD1D4B192108A81A6C42F014
:1010C00080521A641B6C03F080530193019B184BF0
:1010D0001A6842F440421A6001221B6803F440433C
:1010E0000293029B4FF48033CDE908234FF4800331
:1010F000CDE90E434FF4C873CDE91244CDE9101386
:1011000008F0EAFF08F086FC0F2300200621CDE955
:1011100003344FF4A053CDE905034FF4805303A8E3
:10112000079309F0C1F914B010BD00BF00380240A8
:10113000007000402DE980489BB01022002101255D
:101140000DA84FF0104835F0FBFC002407F0A8FB79
:10115000C74B0DA8ADF834501094CDE90E8307F0BD
:10116000BDFB17230DA88DF835508DF83C308DF858
:10117000425007F0B3FB042007F0A0FBBFF34F8FF2
:10118000BFF36F8FBB4AC2F85042BFF34F8FBFF31C
:101190006F8F536943F400335361BFF34F8FBFF335
:1011A0006F8FC2F88440BFF34F8FD2F8803043F680
:1011B000E074C3F3C900C3F34E335B0103EA0406D2
:1011C000014646EA81750139C2F86052F9D2203BE6
:1011D00013F1200FF2D1BFF34F8F536943F48033E3
:1011E0005361BFF34F8FBFF36F8F06F0F3FF0024FF
:1011F000FFF754FF142200210DA835F0A1FC9E4BEF
:1012000010219E481A6B01274FF010084FF0030B76
:1012100042F010024FF48059994D4FF0040A1A63BE
:101220001A6B984E02F010020292029A1A6B42F068
:1012300002021A631A6B02F002020392039A1A6BFB
:1012400042F001021A631A6B02F001020492049A3E
:101250001A6B42F040021A631A6B02F040020592C8
:10126000059A1A6B42F400721A631A6B02F4007248
:101270000692069A1A6B42F008021A631A6B02F081
:1012800008020792079A1A6B42F480621A631A6B7B
:1012900002F480620892089A1A6B42F020021A63E4
:1012A0001A6B02F020020992099A1A6B42F48072BA
:1012B0001A631A6B02F480720A920A9A1A6B42F04D
:1012C00080021A631A6B02F080020B920B9A1A6B5F
:1012D00042F004021A6300221B6B03F004030C9318
:1012E0000C9B07F049FE01220821674807F044FEE5
:1012F00001224FF48051654807F03EFE0022C021D4
:10130000634807F039FE00224021624807F034FEAE
:101310000DA95A48CDE90D87CDE90F4B07F0A8FC80
:1013200008230DA95848CDE90D37CDE90F4407F042
:101330009FFC0DA95548CDE90D97CDE90F4407F065
:1013400097FCC0220DA95248CDE90D27CDE90F4BDE
:1013500007F08EFC40220DA94E48CDE90D27CDE9BE
:101360000F4B07F085FC4C484C49848001600762B4
:10137000C0E9054407F0DEFA49492846C5E90014EA
:10138000C5E90244C5E90A44C5E90C4407F071FB0C
:1013900039462846434D07F025FC40234FF4C072E0
:1013A00041493046B460F461B462C6E905324FF495
:1013B0000062C6E908294FF002090722C6E90014B5
:1013C0000DA9CDF84C90C6E903A8CDE90D92CDE961
:1013D0000FA2CDE911B909F0BDFB29464FF6FF7206
:1013E00030460194C5E90078C5E9027409F0D2FBE2
:1013F000384606F013FF29464FF6FF723046C5E91E
:101400000098C5E9027409F0C5FB082329464FF688
:10141000FF723046C5E90234C5E900B809F0BAFBED
:101420004FF40C734FF6FF72294601933046019B2F
:10143000AF60EB60C5E900A809F0ACFB40F22B718E
:1014400030461A4D09F0C5FB4FF0204343F2D2025B
:10145000642040F215261A6006F0E0FE144B154A8F
:1014600028462C62C5E90023C5E9024724E000BFF5
:101470001B00000300ED00E00038024000040240C1
:1014800054050020D803002000280240002002401C
:10149000000802400018024094050020003002407D
:1014A00000B00240B8030020400100A00005002069
:1014B0009B676010005C0040C5E90444C5E9064430
:1014C00007F09BFE2146284608F0BEF82146284634
:1014D000544D08F0DFF8342221460DEB020035F0C0
:1014E0002FFB514B2821352040F2352C2C61AC8646
:1014F00085F83640C5E900340923C5E905130B23F7
:10150000C5E9070340F21B132846C5E9096340F209
:101510001D130526C5E90BC3C5E9024408F066F9A9
:10152000FF214FF4F0724FF4887328460D941893FE
:10153000ADF864408DF866403C4DCDE912144FF48F
:101540008061CDE914164FF04041CDE90E24CDE97C
:10155000161222460DA9CDE9103908F012FA3448C6
:10156000344B4FF0180E0462C0E900374FF4A0630B
:10157000C0E902A8C0E904E3C0E9064408F064FB3E
:1015800006F0A8FC06F0EEFB5C2007F077F900F00F
:1015900067FE294B2846AC61AC83C5E900364FF4A1
:1015A000E023C5E90244C5E9043406F049FE0E23F0
:1015B0000DA928461693149711941597CDE9124456
:1015C000CDE90D44CDE90F4406F0B6FE284606F0FD
:1015D00039FF4946284606F0DDFF00F06DFE00F0B9
:1015E0006AFE09F01BFD154A2146154809F050FD19
:1015F000144B154A21461860144809F049FD144B54
:10160000144A21461860144809F042FD134B144A4D
:1016100021461860134809F03BFD134B186009F090
:1016200017FDFEE75804002000680140B8050020BF
:101630000C040020001000A000640040B07A0308F1
:10164000D90E0008D40300208C7A0308C7220008B2
:10165000D0030020687A0308293E0008CC0300204C
:10166000447A0308E50E0008C803002000000000CB
:10167000F8B56F4D00216F4E2A4633462DED028B93
:1016800006F00BFF2F6840F226739F4277D1AB68BC
:1016900053B92B69022B07D13378012B04D1664A49
:1016A000136883F00103136040F272339F4200F02D
:1016B0009A81B7F5787F40F06381AB68002B40F0EA
:1016C000D2812B69082B40F0CE813088778840BAD0
:1016D000B5887FBAF48880B26DBABFB264BAA0F69A
:1016E000AB20ADB2FEF736FFA4B24DA3D3E9002381
:1016F000FEF79AFFFFF7AAF9504B1860504B1A6893
:101700009042C8BF1860A7F6AB20FEF723FF44A3A2
:10171000D3E90023FEF788FFFFF798F9494B1860DB
:10172000494B1B68322B04DD484B1A689042C8BFF6
:101730001860A5F6AB20FEF70DFF39A3D3E900230F
:10174000FEF772FFFFF782F9414B1860414B1A68B0
:101750009042C8BF1860A4F6AB20FEF7FBFE30A392
:10176000D3E90023FEF760FFFFF770F93A4B1860EA
:101770003A4B1A68904240F37681186073E1B7F5EE
:10178000587F79D1AB684BBB2B69082B26D13488A5
:10179000334B64BAB088A4B240BA1C6080B2314BFB
:1017A0001A689442C8BF1C60C4F5EA54FEF7D2FE22
:1017B0000C341BA3D3E9002324EAE474FEF734FFBE
:1017C000FFF744F9284B002C1860B8BF0334274BAF
:1017D000A410C4F1640424EAE4741C6040F273436E
:1017E0009F4240F04081AB68002B40F03C812B6968
:1017F000082B40F03881B37872781B02F07843EA06
:1018000002431843FEF796FE07A3D3E90023FEF731
:101810000BFF174BC3E9000125E100BFAFF30080C8
:101820009A9999999999B93F000000E04D62503F0B
:10183000E8050020E0050020B4030020A8030020F4
:10184000A403002074030020A0030020080000204F
:1018500084030020800300209803002094030020CC
:10186000B0030020AC0300206C0300205C030020C8
:1018700060030020CDCCCC3D40F261339F4240F06C
:101880000E81AB68002B7BD12B69082B78D1738834
:101890005FED088A5BBA9CB233885BBA9BB207EEF5
:1018A000903AF8EE677A67EEA87A17EE900AFEF79C
:1018B00063FE9DA3D3E90023FEF7FEFC9CA3D3E9BE
:1018C0000023FEF7B1FEFFF7E9F807EE904A9C4BC4
:1018D00008EE100AF8EE677A186067EEA87A17EE3D
:1018E000900AFEF749FE90A3D3E90023FEF7E4FC3B
:1018F0008FA3D3E90023FEF797FEFFF7CFF8914BB4
:1019000007EE900A1860904B1B68B3F52F7F37DD08
:101910008E4A92ED007AB5EEC07AF1EE10FA04D458
:10192000B4EEC78AF1EE10FA0CD5B0EE0C7A82ED67
:10193000008A874AB4EEC78AF1EE10FA4CBF012143
:101940000021117040F6C412934219DD814B93EDD2
:10195000007AB5EEC07AF1EE10FA04D4F4EEC77A4C
:10196000F1EE10FA0CD5B0EE087AC3ED007A7A4B9E
:10197000F4EEC77AF1EE10FA4CBF012200221A7081
:10198000B7F55C7F00F0AA80B7F5797F7FF426AFCA
:10199000AB68002B67D12B69082B64D173786F4A31
:1019A00003F001031370F3796D4AD909C3F380136F
:1019B00011706C4A137056E0AB68002B7FF40EAFC9
:1019C0002B69082B7FF40AAF33889FED677A5BBAE7
:1019D0009BB207EE903A654BF8EE677A67EE877A2E
:1019E000C3ED007AFAE6AB68002B3CD12B69082BDB
:1019F00039D133889FED5E7A5BBA9BB207EE903A9D
:101A00005C4BF8EE677A67EE877AC3ED007A4E4B4F
:101A10001B68B3F5FA6F18DD574B93ED007AB5EEFE
:101A2000C07AF1EE10FA04D4B4EEE77AF1EE10FACF
:101A30000BDDB2EE097AC3ED007AF4EEC77AF1EE6F
:101A400010FA42BF4D4B01221A70F3889FED467A7F
:101A50005BBA9BB207EE903A494BF8EE677A67EEB5
:101A6000877AC3ED007ABDEC028BF8BD454B52225C
:101A70001A70F8E7434B4E22FAE7424B3122F7E760
:101A8000404B3222F4E73F4B3322F1E73D4B342207
:101A9000EEE73C4B3522EBE73A4B3622E8E7B7F569
:101AA0005A7F89D0B7F55C7F7FF4FEADAB68ABB9E8
:101AB0002B69082B12D1308840BA80B2FEF74AFD5C
:101AC0001DA3D3E90023FEF7AFFDFEF7BFFF2E4BAA
:101AD00018602E4B1A68904200DD1860AB68002B2E
:101AE000C1D12B69082BBED196F903300333092BE2
:101AF0003FF674AE01A252F823F000BF751A000839
:101B0000DD1700086D1A0008751A00087B1A000816
:101B1000811A0008871A00088D1A0008931A000815
:101B2000991A0008AFF300803333333333535940ED
:101B300000000040E17A843F9A9999999999B93FB8
:101B40008C03002090030020B0030020140000202C
:101B5000880300201C00002019000020180000202D
:101B6000050000200C0000206F12833A7003002053
:101B7000CDCCCC3D7C030020100000207803002059
:101B80006803002004000020A00300209C03002024
:101B90000268034B9A4201D106F02EBB704700BF8A
:101BA00000100040704700000D4B82B00F216FF015
:101BB00001001A6C42F080521A641A6C02F08052D2
:101BC0000092009A5A6C42F480425A6400225B6C84
:101BD00003F480430193019B02B006F00FBE00BFE7
:101BE0000038024010B588B004461422002103A832
:101BF00034F0A6FF2268174B9A4228D103F5EA3346
:101C0000032115481A6C42F000721A641A6C02F033
:101C100000720192019A1A6B42F002021A634FF4A9
:101C200040721B6B03F002030293029B0223CDE977
:101C300003230923CDE9061303A907F019F814209B
:101C40000022052106F0DAFD142006F009FE08B096
:101C500010BD00BF0064004000040240026882B072
:101C6000084B9A420BD1D3F8302803F5006342F4B5
:101C700080521A631B6B03F480530193019B02B0E3
:101C8000704700BF003002400E4B07B502689A4211
:101C900015D1A3F5F04305215A201A6B42F4000236
:101CA0001A6300221B6B03F400030193019B06F0EF
:101CB000A5FD5A2003B05DF804EB06F0D1BD03B0DA
:101CC0005DF804FB00B0024010B5A8B00446142231
:101CD000002102A834F034FF8422002107A834F048
:101CE0002FFF2268174B9A422AD14FF4803307A85E
:101CF000079308F0A5FC08B1FFF754FF124C4FF40E
:101D0000C07201211148236B43F080032363236BCE
:101D100003F080030093009B1223CDE902230323E9
:101D2000CDE90413042302A9069306F0A1FF236C56
:101D300043F400032364236C03F400030193019B29
:101D400028B010BD005C004000380240001C02407A
:101D5000026808B5094B9A420FD1094A8021094807
:101D6000136C23F40003136407F066F84FF48071DA
:101D70000448BDE8084007F05FB808BD005C0040BB
:101D800000380240001C024070B5ACB0044614227A
:101D9000002106A834F0D4FE842200210BA834F0E0
:101DA000CFFE2268484B9A4240F08C8008230520E1
:101DB00001240B934FF4C07310930223CDE911302B
:101DC0004FF400330BA8CDE9154308F039FC08B1F6
:101DD000FFF7E8FE3D4B002402250E265A6C06A9AB
:101DE0003B4842F080625A645A6C02F08062009272
:101DF000009A1A6B42F010021A631A6B02F010027A
:101E00000192019A1A6B42F400721A631A6B02F47F
:101E100000720292029A1A6B42F480621A631A6B81
:101E200002F480620392039A1A6B42F040021A6332
:101E30001A6B02F040020492049A1A6B42F4807208
:101E40001A631B6B03F480730593059B1023CDE984
:101E50000635CDE908440A9606F00AFF4EF6FF73F0
:101E600006A91C480A96CDE90635CDE9084406F0D6
:101E7000FFFEF72306A918480A96CDE90635CDE9F5
:101E8000084406F0F5FE4FF4805306A91348CDE947
:101E900006350923CDE908440A9306F0E9FE4FF41C
:101EA000464306A90E480A96CDE90635CDE9084411
:101EB00006F0DEFE58202246052106F09FFC582041
:101EC00006F0CEFC2CB070BD006801400038024026
:101ED0000010024000240240002802400018024086
:101EE00000200240142200212DE9F0418AB004466E
:101EF0000DEB020034F024FE22682C4B9A4251D1A3
:101F00002B4B0225032409269A6B4FF0040805A9E0
:101F1000284842F0020200279A639A6B02F00202FC
:101F20000192019A1A6B42F010021A631A6B02F0C6
:101F300010020292029A1A6B42F002021A631A6BA2
:101F400002F002020392039A1A6B42F008021A632B
:101F50001B6B03F008030493049BCDE90585CDE9D1
:101F6000084606F085FE402305A91348CDE905354E
:101F70000A23CDE90774099306F07AFE05A90E48F5
:101F80000996CDE90585CDE9077406F071FE4FF499
:101F9000605305A909480996CDE90535CDE90774CF
:101FA00006F066FE0AB0BDE8F08100BF001000A098
:101FB000003802400010024000040240000C0240C1
:101FC000026808B50B4B9A4213D10B4A04210B4807
:101FD000936B23F00203936306F02EFF442108481D
:101FE00006F02AFF4FF460510648BDE8084006F0AD
:101FF00023BF08BD001000A00038024000100240BE
:1020000000040240000C0240F0B5002387B00393A7
:10201000294B1E68002E4DD10122022703250C24D6
:102020001A6001A9254B26489A6B42F001029A6377
:102030009B6B03F001030093009B4FF68373CDE984
:102040000454CDE9013706F013FE48F2331301A919
:102050001C480594CDE90137CDE9036506F008FE7B
:102060004CF2037301A918480594CDE90137CDE975
:10207000036506F0FDFD4FF63F0301A913480594E3
:10208000CDE90137CDE9036506F0F2FD282301A96A
:102090000F480594CDE90137CDE9036506F0E8FD69
:1020A000082301A90B480594CDE90137CDE9036563
:1020B00006F0DEFD07B0F0BD040600200038024047
:1020C0000010024000180240000C024000140240C0
:1020D000001C024000080240214B1A6C42F0100222
:1020E00070B51A6488B01B6C054601A903A803F0FB
:1020F00010030293029B08F085FA069B4BBB08F085
:1021000071FA184E184B336040F2E733F360174B07
:10211000B0FBF3F3013B3046736000233361B360DF
:10212000B36108F0BDFE044680B9304608F06AFD90
:10213000044658B9362006F093FB0F2D0DD82246E1
:102140002946362006F05AFB094B1D60204608B090
:1021500070BD08F047FA4000D3E70124F6E700BF5E
:1021600000380240080600200010004040420F00E6
:10217000580000207047FEE7FEE7FEE7FEE77047E5
:10218000014806F024BA00BFB8050020014808F055
:102190007BBD00BF08060020014807F095BB00BFCB
:1021A00058040020014806F092BC00BF54050020EE
:1021B0000120704708B534F077FD162303604FF017
:1021C000FF3008BD08B534F06FFD16230360FEE74D
:1021D00070B50D4614460E46731B9C4201DC20462A
:1021E00070BDAFF3008006F8010BF5E770B50D4642
:1021F00014460E46731B9C4201DC204670BD16F847
:10220000010BAFF30080F5E74FF0FF3070474FF45C
:10221000005300204B60704701207047002070473A
:102220000B4A0346116810B509B90A4911601068D4
:1022300009490A4C0344091B8B4206D934F034FD8A
:102240000C2303604FF0FF3010BD1360FCE700BFAC
:10225000540600208890012000000520000A00009C
:1022600070470000DFF834D0002103E00C4B5B58CE
:10227000435004310B480C4B42189A42F6D30B4A98
:1022800002E0002342F8043B094B9A42F9D305F0DF
:10229000B9FE34F00FFDFEF74DFF7047000005203A
:1022A000A8D60308000000204001002040030020C1
:1022B00088900120FEE7704708B501F08FF9BDE86E
:1022C000084001F011B901F08BB9406870474160D6
:1022D000704700004FF0E022D2F8FC3D43F08073DD
:1022E000C2F8FC3D054B064AD3F8B01F0A43C3F8B9
:1022F000B02F1A6842F001021A607047001000E027
:1023000055CEACC5521A02EB5302B2FBF3F0704744
:10231000014B5868704700BF001000E0704710B5CF
:1023200004460C2133F009FA204610BD036810B5AD
:102330001B69044631B19847A26863689B1A03443D
:10234000636010BD9847A060FBE70000024B70205F
:10235000024A1360DB6818472C0000205806002052
:10236000704710B50446042133F0E7F9204610BD4C
:1023700073B50E4E0D461446336813B9002002B0F3
:1023800070BD1B69702098470028F7D03368702013
:1023900001AA0DF106015B699847BDF804300120E0
:1023A0002B60BDF806302360E9E700BF5806002027
:1023B0007FB501238DF817204FF47A72CDE90132F1
:1023C0000DF1170200920A460146054806F084FF07
:1023D00010B1034806F066FF07B05DF804FB00BFCC
:1023E000000500207FB500230A464FF47A718DF86E
:1023F00017300123CDE901310DF11701009101469C
:10240000054807F043F810B1034806F04BFF9DF86C
:10241000170007B05DF804FB00050020032823D84F
:10242000DFE800F0020B131A104B102110481A6855
:10243000B2FA82F2520906F09FBD0C4B40215A6855
:10244000B2FA82F252090B48F5E7084B80219A68EC
:10245000B2FA82F25209F6E7044B40210648DA68E4
:10246000B2FA82F25209E6E7704700BF5C0600202C
:10247000000402400008024000180240032823D84C
:10248000DFE800F0020B131A104B102110481A68F5
:10249000003A18BF012206F06FBD0C4B40215A686C
:1024A000003A18BF01220B48F5E7084B80219A68D3
:1024B000003A18BF0122F6E7044B40210648DA68CB
:1024C000003A18BF0122E6E7704700BF5C06002013
:1024D00000040240000802400018024003280FD800
:1024E000DFE800F00206090B1021064806F049BD9E
:1024F00040210548FAE78021FBE740210348F5E742
:10250000704700BF0004024000080240001802406B
:1025100008B5032813D8DFE800F0020A0D0F1021D8
:10252000084806F023FD431E5842584108BD40218B
:102530000548F6E78021FBE740210448F1E7002049
:10254000F1E700BF0004024000080240001802400A
:1025500070B5084D00240126E0B2FFF7D9FF18B18D
:102560002B68012B18BF2E6001340435052CF3D1E4
:1025700070BD00BF5C060020012380F8781080F851
:10258000793070470020704741640039024B18BF12
:1025900001211970704700BF478301200020704758
:1025A000836B0BB10846184770474FF6FF707047B2
:1025B000406803689B6918477047000038B50446B7
:1025C00001F05CF9084923682046084DD3F88C30A7
:1025D00098470023284684F84A30FFF77BFE012302
:1025E000256184F8703038BD000000C06C06002002
:1025F00001F0E6B801F0EAB870B501F069F91049E8
:102600000023C1F88430BFF34F8FD1F8803043F6F8
:10261000E074C3F3C900C3F34E335B0103EA04065D
:10262000024646EA8275013AC1F87452F9D2203B5B
:1026300013F1200FF2D1BFF34F8FBFF36F8F70BD37
:1026400000ED00E001F046B901F096B801F068BA7B
:1026500001F070BA01F09AB810B5044619F066FAA4
:1026600023682046D3F8AC30BDE81040184718F076
:10267000BBBC10B504467C2133F05FF8204610BD8A
:1026800090F834100D4B10B590F878401A788C42C1
:1026900009D03AB90A490B4A0888148810800122E7
:1026A0000C801A7010BD002AFCD0064A0449148818
:1026B00008880C8010800022F3E700BF40830120CF
:1026C0003E8301203C83012070B50D46194635B983
:1026D000094B40F2D221094A094833F075FFC0E99D
:1026E0000F52003A074B18BF01221A700368BDE869
:1026F0007040D3F88C301847147B03084C7B0308D8
:102700009A7B03084683012008B5094B1B888B423E
:1027100003D8084B1B88934205D9074B9E21074AD3
:10272000074833F051FF074B1980074B1A8008BD4B
:102730003C8301203E830120DF7B0308427C0308A9
:102740009A7B03084283012044830120034690F8CA
:102750007A0018B1586803681B6818477047000072
:10276000014608B5034B186801B1012119F0F8F9C9
:10277000012008BD48830120034B00225A609A6063
:10278000024A1A60704700BF6C060020DC7A03081A
:102790000121002208B5084608F084FD0A4B1860A4
:1027A00028B90A4B28210A4A0A4833F00DFF0022B3
:1027B0000421012008F040FE074B186018B9074BB0
:1027C0002C21034AF0E708BD7C060020607D030849
:1027D000A97D0308D87D030878060020237E03081E
:1027E000024B4FF0FF31186808F0B4BD7C060020A2
:1027F000014B186808F0EABD7C060020024B00215E
:10280000186808F0A7BD00BF7C060020FFF7F0BFE6
:102810000023034803491A46006808F053BE00BF6E
:10282000780600202000002013B50023074C01A9E2
:102830001A46206808F088FE4FF0FF33002201A9F5
:10284000206808F081FE02B010BD00BF78060020AD
:1028500003685B6C18470120704703689B6A184740
:10286000FEE700000E4B82B01A6B42F400021A63BE
:102870001A6B02F400020192019A1A6942F40002F2
:102880001A611A6922F400021A61064B064A1A619B
:10289000064A5A614FF08062054B9A6002B0704759
:1028A00000380240540500203D2B00086128000834
:1028B00000E100E040F2EF3070470000054B4FF0C0
:1028C00080620360044BC3F88820BFF34F8FBFF3CF
:1028D0006F8F7047C07F030800E100E010B5044629
:1028E0004FF45A61FFF7EAFF204632F026FF2046F8
:1028F00010BD000008B50A2809D8DFE800F006106E
:102900000E080808081010101000022008BD054B22
:102910009021054A054833F057FE0020F6E70120D4
:10292000F4E700BF657E0308807E0308CB7E0308C2
:1029300038B50C46887FFFF7DDFF174BA58AE28A82
:10294000586342EA054221695A64628BD963521B7B
:102950001A642568082D0ED19A611A6158620F4ACF
:10296000207F42EA0062DA61E2681A620C4A596129
:10297000D9601A6038BD0022D8611A61E1680A0A7C
:102980004809C1F3C40102F4784200F4FC60024338
:102990000A439A63034AECE700B0024009000100D1
:1029A000012302000123030008B50B280BD8DFE840
:1029B00000F00612100A0A0A0A080808080802208D
:1029C00008BD0520FCE7054B6F21054A054833F09B
:1029D000FBFD0020F4E70120F2E700BF657E03085D
:1029E000147F0308CB7E03082DE9F04191F81D8088
:1029F0000C464046FFF7D8FFA77F05463846FFF74D
:102A0000D3FF06463846FFF775FFA18A628B434B1A
:102A1000521A1A649A61228B521A1A61E28A586316
:102A200042EA014221695A646268D963DA60206827
:102A3000802828D0227F0FD8202866D0402864D054
:102A400004281AD045EA0265344BB84545F40035F0
:102A5000DD6160D0324A44E0B0F5807F04D0B0F54B
:102A6000007FEFD12F4800E02F4840EA0262DA6190
:102A7000E2681A625E62596132E045EA026242F43B
:102A80000032DA61F6E7A068021DDA62227F45EAC9
:102A9000026545F40035DD615E625961017841B13E
:102AA000012921D0214B4FF48D71214A214833F067
:102AB0008BFDDA69418822F47F42013922F010024D
:102AC00042EA01220121DA61144BDA6942F0200264
:102AD000DA61DA699206FCD410229A600029B9D032
:102AE000154A1A60BDE8F081B2F1FF01DA69408849
:102AF00022F47F4218BF0121013822F0100242EA7D
:102B0000002242F01002DA61DEE745EA0262034B7E
:102B100042F40032B5E742F20132E2E700B002408F
:102B200001230100090002000A0002005E7F030881
:102B3000787F0308CB7E030801230200024B1B6849
:102B4000586803685B6918474883012070B50446DC
:102B50000A4B0C30002625466022606026726672A1
:102B600045F8203B294619F051F904F55A63EE6007
:102B700024359D42FBD1204670BD00BFC07F0308B5
:102B8000034B1A68D207FCD423229A60704700BF17
:102B900000B00240094B5A69D2030AD5BFF34F8FE8
:102BA00008440029A0EB010204DCBFF34F8FBFF300
:102BB0006F8F70472039C3F86822F2E700ED00E01C
:102BC00030B5104C2568ED07FCD423250904FF2BF4
:102BD000A56041F001014FF0020565636164E063A7
:102BE0000AD00949656241EA0363E361074B226247
:102BF0006061E060236030BDE561039BA363044B2B
:102C0000F8E700BF00B00240090001000100020027
:102C10000100030030B50F4C2568ED07FCD42325D7
:102C20001204FF2BA56042F001024FF0020565631C
:102C30006264E063E16008D01B0643F00213E361C5
:102C4000054B65626061236030BD044BE361012385
:102C5000F9E700BF00B0024001000200020002FFDD
:102C600030B50B4C2568ED07FCD4232512041B0658
:102C7000A56042F00102022543F4003365636264FB
:102C8000E063E160E361034B65626061236030BD36
:102C900000B00240010002004069704790F8440013
:102CA0007047036B23B9C06A003818BF0120704712
:102CB0000120704780687047043010B50C460FC87B
:102CC00084E80F0010BD704708B5034A40F2122196
:102CD000024B034833F078FC08800308A9A00308DE
:102CE0006380030810B50446482132F026FD2046D3
:102CF00010BD00002DE9F0431C46436BADF51F7D70
:102D000005460E461746002B37D0002203A8DFF8F1
:102D1000A890CDE9013210F0E5FC4FF4F472502197
:102D2000249024A80AF093FC3A46314624A80BF0DC
:102D3000E7FB012124A80AF085FD022324A88DF8D1
:102D4000D8300AF020FEBDF898322B9ABDF89C626C
:102D50009342A89F28BF1346419A964203EB43082B
:102D6000A7EB430728BF1646479B9E4209D824A8D5
:102D70000AF08AFD24A80AF0B7FC0DF51F7DBDE816
:102D8000F083012201A924A80AF046FE6B6B03EB35
:102D90000800984201D83C44E6E759789A78C9007F
:102DA00009EA022201F4FC610A4313F8031B42EA18
:102DB000D10224F8022BECE700F8FFFF0A4A026078
:102DC0000022C0E90522C0E90722C0E90922C0E9C2
:102DD0000B22C0E90D12C0E90F2280F84420C0E99F
:102DE0000322C0E9012270474083030810B40C4657
:102DF00011461A46036B3BB1036C806BE41A204406
:102E00005DF8044B33F0A4BEC06AF8E7036B10B55D
:102E100073B1036C826BC91A5318525C98785C7852
:102E20000004DB7840EA0420104340EA036010BD50
:102E3000C36A5858FBE7036B43B1036CC91A836B31
:102E40005A18585C527840EA02207047C36A585AB0
:102E50007047000070B50446006B0D461646D8B1A9
:102E6000E36B934208D209230D4A65210D4884F88B
:102E700044300D4B33F0A8FB0368DB689847206BA8
:102E80003246A16B03681B69984710B90D2384F87B
:102E90004430A06B256470BDE06A0844FBE700BFC6
:102EA000CB80030863800308B88003082DE9F8434A
:102EB000436904462BB9234BAA21234A234833F004
:102EC00083FB08228169FFF7C5FFA16943F2300641
:102ED00046F2643704312046FFF798FFA36918448F
:102EE000A36A00F108029A4206D30123002063611D
:102EF000236AA361BDE8F8836369093008220133BE
:102F000020F0010120466361A161FFF7A3FFD4F81F
:102F1000189020464946FFF78EFF09F102018046CE
:102F20002046FFF788FF09F1040105462046FFF718
:102F30006DFFB045D2D1BD42D0D10028CED0012006
:102F4000D8E700BF0D81030856810308638003089A
:102F50002DE9F04F0446ADF51F7D8A46164681697E
:102F600008229846FFF776FFA7692046391DFFF72C
:102F70004DFF07F10801024605462046FFF76AFFAC
:102F8000636B074633B93C4B40F2AB113B4A3C48BC
:102F900033F01AFB002203A8CDE9013210F0A2FBA6
:102FA0004FF4F4725021249024A80AF050FB2A46D2
:102FB000394624A80BF0A4FA012124A80AF042FC07
:102FC000022324A88DF8D8300AF0DDFCBAF90250AB
:102FD000479BAB4229D3BAF900904FEA4808BAF8A8
:102FE00004702B9B08FB05664F44BAF80250DFF8CB
:102FF00094B03FB29F4228BF1F46BAF8063009EB93
:10300000490A1D44419B2DB29D4228BF1D46479B46
:10301000AB4210D324A80AF037FC24A80AF064FBC2
:1030200001200DF51F7DBDE8F08F012201A924A824
:103030000AF0F2FCCCE7012201A924A80AF0ECFC7A
:10304000626B49465244B94202F1030201D346443D
:10305000DDE712F8020C12F8013CC0000BEA032372
:1030600000F4FC60034312F8030C43EAD00326F893
:1030700011300131E7E700BF89810308DF810308D0
:103080006380030800F8FFFF0129036838BF0121AE
:10309000DB6A70B50D4604469847A84204D22368FF
:1030A0002046DB6A984705466B1EE66910222046DB
:1030B00006EB031606F10801FFF7CCFE06F110013E
:1030C0002046FFF7A3FE236A043B0344C4E90553EB
:1030D00070BD0000002148222DE9F04104468161C5
:1030E00080F84410FFF7B6FEA6690423624A314611
:1030F0002046FFF77BFE40B10323604AF22184F8AB
:1031000044305F4B5F4833F05FFA06F10801042357
:103110005D4A2046A161FFF769FE30B10423574A9A
:10312000FA2184F84430594BECE706F10C010423F2
:10313000574A2046A161FFF759FE074638B10523DB
:103140004E4A40F2011184F84430524BDAE706F15E
:1031500010012046FFF75AFE054620B94E4B40F2BB
:103160000711464ACEE706F1140804234B4A2046CD
:103170004146FFF73BFE002849D0062384F844303F
:103180000423474A06F118012046FFF72FFE0028C6
:103190003FD0072384F844304544424F0C22204658
:1031A0002946FFF757FE05F1080604233A46204654
:1031B0003146FFF71BFE94F84430002848D0002B1E
:1031C00048D1A36AAB4249D805F10C030435204627
:1031D000A3612946FFF71AFE304429466062204663
:1031E000FFF714FE0644042220463146FFF732FE64
:1031F00004232D4A31462046FFF7F8FD002838D138
:103200000123E6616361A3692362BDE8F0810127C0
:10321000B6E7002FC0D006F120012046FFF7F6FDEB
:103220004FF47A7306F13001B0FBF3F06060204692
:10323000FFF7ECFD06F14001A0602046FFF7E6FD38
:1032400006F14401E0602046FFF7E0FD2061A3E7BE
:10325000002BB9D00A2384F84430D6E7291D204634
:10326000FFF7D4FD85190C2220462946FFF7F2FD11
:1032700099E70B23EFE700BF398203085782030861
:103280003E8203086380030884820308898203085E
:10329000A1820308A6820308BC820308C88203082F
:1032A000CD820308D2820308D7820308C0E90A212D
:1032B00000220263FFF70EBF10B500230446084644
:1032C000E3620B6821639B689847A0622046BDE8D3
:1032D0001040FFF7FFBEF0B4069FBDF81050BDF8D8
:1032E000146032B12BB10495CDE90567F0BCFFF74E
:1032F00001BDF0BC704700002DE9F04F99464369CD
:1033000085B004460F4690462BB9294B7721294AB0
:10331000294833F059F908228169FFF79BFDA66916
:1033200020463146FFF787FDB11C83462046FFF754
:1033300082FD311D82462046FFF768FD06F1080137
:10334000A36A054642189A4226D243F230039B45AF
:1033500017D146F264339A4513D190B10246A16168
:103360002046FFF777FD0E9B01462A462046CDF802
:103370000080CDE901933B46FFF7ADFF6369013360
:103380006361A3692B4405B908330133626A23F0F2
:1033900001039342A36109D1012301206361236AE0
:1033A000A36180F0010005B0BDE8F08F0020F8E7D0
:1033B0000D810308DC820308638003080120704745
:1033C0000C2070470C2303FB0100083070470C23CE
:1033D00003FB0100083070470120704742F6F840B7
:1033E000704742F6F84303FB01000830704742F68D
:1033F000F84303FB0100083070470120704710209C
:10340000704700EB01100830704700EB01100830E6
:103410007047084600F0F0BF034B10B50446036048
:1034200017F06AF9204610BDE883030810B504467A
:10343000FFF7F2FF1421204632F07FF9204610BD3D
:10344000034B10B50446036017F056F9204610BD33
:10345000B483030810B50446FFF7F2FF4FF434516C
:10346000204632F06AF9204610BD0000034B10B52B
:103470000446036017F040F9204610BD808303081E
:1034800010B50446FFF7F2FF1821204632F055F937
:10349000204610BD094B10B50446036000F53450BA
:1034A0002C30FFF7B9FF04F12C00FFF7C9FF04F13E
:1034B0001400FFF7DBFF204610BD00BF1C8403088B
:1034C00008B50248FFF7E6FF08BD00BF5015002011
:1034D00010B50446FFF7DEFF42F6A061204632F049
:1034E0002CF9204610BD00002DE9F34100F054FDF9
:1034F0000024054600F054FD234601462246284696
:10350000009422F001FA284B284A2046284D1A60E0
:1035100003F082FD274B284A28489A6022F05CF984
:103520002B68BFF35B8FDB0737D4284632F007F9EF
:1035300098B3234C234B04F12C0804F114002360AE
:1035400008F534576060C4F8088007F11806E76092
:10355000266117F0D3F81C4B4046636117F0CEF894
:103560001A4B3846E36217F0C9F804F50053184ABD
:1035700004F53550C3F82C2D03F02EFE224604F539
:103580003551304603F01EFE304600F035FF11483D
:1035900033F038F8284632F0DEF80F4802B0BDE8C4
:1035A000F041FFF70BB800BFAC830120FC06002000
:1035B0004C1500201C0700200007002024000020DC
:1035C000501500201C84030880830308B48303087B
:1035D000E8830308C134000880060020704700001B
:1035E000014817F06ABD00BF8006002070B5244E68
:1035F000244B254C3046254D2360FFF7A7FA28467B
:1036000027F094FA22481FF01BFC224B00224FF4B3
:10361000807121481A8683F858205A6683F87020F2
:103620005A67DC60C3E912121C49C3E91A121C492B
:1036300099671C490B604FF4F07101801A480180B2
:103640004FF488711948C3E90422C3E90622C3E98B
:103650000822C3E90A22C3E90E22C3E91022C3E902
:103660001422C3E91722C3E901650180104883F8D9
:10367000342001800F490A700F4A1A6070BD00BFE4
:10368000A8070020047B0308481500201C07002021
:1036900000070020800600203C830120010000017B
:1036A0000000010148830120428301203E83012064
:1036B0004483012040830120907C03080148FFF7E8
:1036C000FDB800BFA8070020002070478180704728
:1036D000C1807047018170474181704770477047D2
:1036E00070477047704710B4C4880368121B848801
:1036F0005B6D091B12B25DF8044B09B218474FF617
:10370000FF7383814FF0FF3303621368C36110605E
:103710007047002070478B88838001207047704776
:1037200080F82610704790F826007047002210B5E8
:10373000B1F90840B1F90A10028042808480C1804A
:1037400010BD0022028042808280C28070470177D3
:10375000704780ED080A704780F82410704780F8A1
:103760002510704701207047983070478C307047A3
:103770008430704770470000034B902283F85A232F
:1037800083F85823704700BF00E100E0094A0A4966
:10379000D3680A48C3F30A03013B9BB20B8011694B
:1037A000C1F30A01013901801364536B43F0010333
:1037B0005363704700680140F2430020F04300204B
:1037C000014BD3F8AC00704700680140024B012266
:1037D000C3F8AC105A62704700680140124A53693E
:1037E000DB0370B51ED50023C2F88430BFF34F8FC2
:1037F000D2F8803043F6E074C3F3C900C3F34E330C
:103800005B0103EA0406014646EA81750139C2F804
:103810007452F9D2203B13F1200FF2D1BFF34F8F36
:10382000BFF36F8F70BD00BF00ED00E070477047C1
:1038300070473823002201FB0333C25490F838301C
:103840000BB9036C83647047704780F84C10704765
:1038500010B50446582131F070FF204610BD10B558
:1038600004462C2131F069FF204610BD10B50446F6
:10387000BC2131F062FF204610BD000038B504467F
:1038800017F007FC23685D6E1EF062F901462046C2
:10389000A8472368084A2046D3F888500023A2F599
:1038A0007F31A847054B064A5A60064A1A649A6453
:1038B0004FF4FF225A6438BD00F807C0B44400201A
:1038C0000C45002000F40BC017F0CABB17F0D4BBA6
:1038D00017F090BB17F0FFBC90F8252012B10368D9
:1038E0005B6918477047000008B531B1044B40F2DE
:1038F0009711044A044832F067FE90F8390008BD79
:10390000288403083C840308C985030810B531B135
:10391000064B40F29111064A064832F055FE4068C7
:1039200011460368BDE810401B6B18472884030844
:103930000B860308C985030808B529B1034B7A2112
:10394000034A044832F040FE006908BD2884030899
:10395000BC870308C985030808B529B1054B832135
:10396000054A064832F030FE41618160C0E9063206
:1039700008BD00BF2884030874890308C9850308AB
:1039800010B5044629B1274BA421274A274832F015
:103990001BFE052A34D8DFE802F003292F34393E14
:1039A000406803681B69984750B34FF0FF31606D62
:1039B00007F01CFC0023012294F83E1084F83B30F1
:1039C00084F83920A360636101B1226284F83E303B
:1039D0006362E36A2BB90123206D84F83A3007F063
:1039E000F5FC606DBDE8104007F030BC002380F8A6
:1039F000393084F83E3003E0036200238360436182
:103A000010BD0362002383604361F2E7002380F866
:103A100039300123EDE7003B18BF012380F83D302A
:103A2000EEE700BF28840308338B0308C985030829
:103A300090F825201AB190F8242002B11860704740
:103A400070B50446164629B1314BE721314A324858
:103A500032F0BAFD90F8393033B1304B1B6893F82F
:103A60006B20436913444361E36A002B4DD0E16945
:103A7000D4E905325343A2684A43934220D2236AD1
:103A8000002B42D04FF0FF31606D07F0AFFB236A8F
:103A90000BB10023E362E36AFBB90125606D07F017
:103AA000D5FB94F839300BB9236A3BB1E36A2BB9E3
:103AB0000123206D84F83A3007F088FC284670BD59
:103AC00094F84C000028DDD09B1AB3FBF1F2994228
:103AD00098BF02F1FF326262D4E7002294F83C50B2
:103AE000A3623046E262E2682261A2680132A2600B
:103AF000336333685B699847002DCED194F83D302D
:103B0000002BCBD184F83950C8E70125C9E700BFA5
:103B1000288403080A8D0308C98503084883012007
:103B2000034B4FF080629A604FF080729A6070474A
:103B300000E100E0084B4FF08062C3F88820BFF33B
:103B40004F8FBFF36F8F4FF08072C3F88820BFF3A1
:103B50004F8FBFF36F8F704700E100E038B5034629
:103B600090F8380038BB01229860D8609A634FF40F
:103B7000807258619A874FF4F0729861D861186228
:103B800058629862D8621863586383F83E00CA8608
:103B90004FF4887281F834000A8708639A6C1861C0
:103BA00002F5FF24D3E9101529448C420AD9084BA9
:103BB0005821084A03E0084B40F2F511074A08482B
:103BC00032F002FD1A6302F57F329C645A6338BDFD
:103BD00068900308A8900308AE8E0308DE8E0308E1
:103BE000C9850308002370B5124E05468380124B29
:103BF0000360336893F858200AB1D86C00B998680C
:103C00000368DB6A98473368B0FA80F4D86C6409BB
:103C100030B10368DB6A9847002808BF44F001040C
:103C20002CB9064B2C21064A064832F0CDFC28461A
:103C300070BD00BF48830120509303084E920308D3
:103C4000AC920308E592030870B5244E3568BFF3C3
:103C50005B8F15F001053FD1304631F070FD002833
:103C60003AD01F4C1F4B04F134002561E584A56256
:103C7000A585C4E90035C4E902551FF040FB04F1F5
:103C800058001AF0EBF9184B2046A365174B40F883
:103C9000843BFFF7A7FF164B1648C4F88430243343
:103CA000C4F89050C4F88C306423C4F89C50C4F815
:103CB000A850C4E928350023C4F8AC30C4F8B030AB
:103CC000C4F8B430C4F8B8300B4BC4F8983032F0B4
:103CD00099FC304631F03FFD014870BDF4430020AF
:103CE000F843002080C6030870930308E893030894
:103CF00034C603087537000814C6030810B5144C01
:103D0000236823B3134B144A1B6C11888B4213D1C5
:103D1000124B198805F062FE226892F86A3001336E
:103D200082F86A30FEF774FD206817F0FFFE00206D
:103D3000BDE81040FEF772BB05F050FE2068036836
:103D40001B6A98470020BDE81040FEF797BB10BDE6
:103D50004883012000680140F2430020F043002026
:103D60002DE9F74304464FF4707894F83A304FF059
:103D7000FF31002B31D0606D07F038FA276BA36A52
:103D8000BB4200D1676B266A656856B32B68314623
:103D900028465B6A98470023236284F83B30606DB5
:103DA00007F054FA2B684FF4F0723946CDF80080D2
:103DB00028465E694FF48873B0474FF0FF310646DE
:103DC000606D07F013FA94F83B30E3B1002384F8F8
:103DD0003B30606D07F03AFAC7E7206D07F0BAFA9A
:103DE000C3E7636A002BDAD02B682846D3E909932E
:103DF0009847616A01442846C847A368626A6662B8
:103E00001344A360CBE7E7625EB12B6828469B6A48
:103E1000984701380023E06084F83C6084F83A3029
:103E2000D7E70120F6E70000014808B5FFF798FF43
:103E3000B44400200368042270B504465E6A00237F
:103E40000D46B0474FF0FF31606D07F0CFF93823D2
:103E500003FB0542D16A09B10021D16203FB05458C
:103E6000012385F83B30002385F83930606DBDE8CB
:103E7000704007F0EBB938B500EB810304460D46FE
:103E8000114658680368DB68984729462046FFF7C3
:103E9000D1FF38BD70B50D461146044600EB8502D2
:103EA0005068026896681A46B04729462046FFF7D0
:103EB000C1FF70BD38B5164900251648FEF77EFFD4
:103EC000154C164B01202A46294623604FF4807377
:103ED000A564A38784F84C0084F83E50C4E91055CB
:103EE000C4E91455C4E90155C4E90355C4E90555AD
:103EF000C4E90755C4E90955C4E90B55C4E90D5592
:103F000007F0D0F92065284607F02EF9606538BD26
:103F1000544500200C450020B4440020349403088C
:103F2000704708B509292ED8DFE801F005090D1101
:103F300015191D21252903F0BBF8006808BD03F001
:103F4000B7F84068FAE703F0B3F88068F6E703F0E3
:103F5000AFF8C068F2E703F0ABF80069EEE703F0F2
:103F6000A7F84069EAE703F0A3F88069E6E703F001
:103F70009FF8C069E2E703F09BF8006ADEE703F010
:103F800097F8406ADAE70020D8E710B50446042124
:103F900031F0D3FB204610BD0048704780940308E1
:103FA0000420704713B5002451B1036801AA01949D
:103FB0008DF803409C680DF10303A04702B010BDCB
:103FC0000846FBE7C0897047008A7047C088704781
:103FD00080887047807A00F07F007047807AC0093F
:103FE00070470020704700009FED010A704700BF36
:103FF00000000000704710B50446082131F09DFB19
:10400000204610BD7047704700F5987308684968EE
:1040100003C37047704770474160704770470000A6
:10402000064BC0F84801C0F84C310023C0F85031AD
:1040300000F5A273C0F84031704700BF2D42000860
:104040000123037270477047704710B441680346FC
:10405000C2689B68541001EB6200D20748BF0A593E
:104060005DF8044B48BFD35818470346406830B149
:104070009A681AB9D86800F00100704701207047AB
:1040800010B504460C2131F058FB204610BD10B588
:104090000446102131F051FB204610BD10B50446F6
:1040A0004FF4AE7131F049FB204610BD10B51DF044
:1040B0004FFD0368BDE81040DB6B184710B50446A0
:1040C000D0F8400158B10368DB68984738B1D4F89C
:1040D000400103689B6898470023C4F8403110BD35
:1040E0002DE9F14FD0E9556A0746B06803681B6AAD
:1040F000984742F6F743984205D8444BA321444AD7
:10410000444832F061FA706803681B6A98470F28C8
:1041100003D8414BA4213E4AF2E7F06803681B6ACA
:1041200098470B2803D83D4BA521394AE8E7DFF82B
:10413000F4901DF00DFD04301DF048FDD9F800008D
:1041400010B10368DB689847D9F8000010B1036824
:104150001B689847DFF8D080D8F8000010B10368DA
:104160005B699847D7F83C0110B103685B689847D2
:10417000D8F8000010B103681B689847D7F83C01D5
:1041800010B103689B689847F06800214FF0000B5E
:1041900003685B6A9847224B0446C0F804B080F875
:1041A00008B059460360B06803685B6A98470546E3
:1041B00003F0C2FA7068594603685B6A984706467E
:1041C000294603F097FA331DC7F83C612846C9F821
:1041D0000040C8F80050CAF800302B68C6F808A0A4
:1041E000DB68EE639847336830461B689847214682
:1041F00028461FF0D7FD236820461B69984723688F
:1042000020465B6901B0BDE8F04F1847E094030811
:104210006E9503083C9603088396030826970308C7
:1042200010990308908301208C8301202DE9F14F20
:10423000D0E9556A0746B06803681B6A984742F29E
:104240006363984205D8444BA321444A444832F062
:10425000BBF9706803681B6A98470F2803D8414B65
:10426000A4213E4AF2E7F06803681B6A98470B28CE
:1042700003D83D4BA521394AE8E7DFF8F4901DF05B
:1042800067FC04301DF0A2FCD9F8000010B10368EF
:10429000DB689847D9F8000010B103681B6898479D
:1042A000DFF8D080D8F8000010B103685B69984748
:1042B000D7F83C0110B103685B689847D8F8000054
:1042C00010B103681B689847D7F83C0110B1036828
:1042D0009B689847F06800214FF0000B03685B6A09
:1042E0009847224B0446C0F804B080F808B05946FD
:1042F0000360B06803685B6A9847054602F0C8FF30
:104300007068594603685B6A98470646294602F07A
:104310009DFF331DC7F83C612846C9F80040C8F826
:104320000050CAF800302B68C6F808A0DB68EE63BE
:104330009847336830461B689847214628461FF047
:1043400031FD236820461B699847236820465B6936
:1043500001B0BDE8F04F1847E0940308C99703087F
:104360003C960308839603082697030810990308D0
:10437000908301208C830120044B1B6893F8582004
:104380000AB1D86C00B99868704700BF4883012013
:10439000F8B5174604460E461DF0EAFC124B002500
:1043A0001C602946114B2360114BC4E95135114B58
:1043B0001868C4E953550368C4E94F559B68C4E9BC
:1043C00055769847284602F027FEFFF7D5FF28F0DC
:1043D00000FAFFF7D1FF28F077FAFFF7CDFF28F0BA
:1043E0007FFA2046F8BD00BF9C830120BC980308DB
:1043F000A498030848830120064BC0F84801C0F880
:104400004C310023C0F8503100F5A273C0F84031A0
:10441000704700BF2D420008064BC0F84801C0F8A5
:104420004C310023C0F8503100F5A273C0F8403180
:10443000704700BFE1400008406A7047806A7047DB
:1044400070478B88C069DB0A0A6850F82300104463
:10445000704710B50446BAB1107B68B1537BD27A6D
:104460001B0203F4E0631A43236A03EB82031A88F6
:104470008A4202D193F9020010BD05D801380433F5
:1044800080B20028F3D1F7E70020F5E710B5044625
:104490002C2131F052F9204610BD000030B58BB010
:1044A0000446BDF860500895BDF85C5007959DF82E
:1044B000505006959DF84C5005959DF84850049530
:1044C0009DF8445003959DF8405002959DF83C504E
:1044D0000195BDF8385000951EF0CEFF064B2046E2
:1044E0002360159BE361169B2362199B63621A9BF1
:1044F000A3620BB030BD00BF34990308704770470A
:1045000070477047704730B585B003680446018135
:104510006D460146D3F884303C342846984795E8E8
:10452000070084E8070005B030BD30B585B00368EA
:10453000044641816D460146D3F884303C34284618
:10454000984795E8070084E8070005B030BD0022D1
:10455000028042808280C280704780F836107047A7
:10456000036870B504461B6B1546984723682046C0
:1045700029465B6EBDE87040184700207047806C8C
:1045800070477047704710B504464C2131F0D5F89C
:10459000204610BD034B10B5044603601BF0C4FD5C
:1045A000204610BDE49B0308064B10B5044603608B
:1045B0001BF0BAFD42F26461204631F0BEF820469D
:1045C00010BD00BFE49B030808B51DF0C1FABDE8AB
:1045D0000840FFF721BF08B5FFF77EF908BD0000CE
:1045E000036870B55E6B0446114B8DB21B682BB926
:1045F000104B6C21104A114831F0E6FF1049828DB2
:104600000988914203D80F4B6D210B4AF3E713F849
:1046100012200D4B1B6853F8220003681B6B984750
:10462000291A3346204609B2BDE87040184700BF3A
:10463000A083012094990308D6990308119A0308CE
:10464000A4830120589A0308A8830120036870B549
:1046500004461B6B154698472368204629465B6B2A
:10466000BDE87040184770B504461D46BDF910609E
:10467000FFF7ECFF2368294620469B6B9847236889
:1046800031462046DB6BBDE8704018470022C0E988
:104690000122C0E90322C0E90522C0E907224FF444
:1046A00080728284014A0260704700BFEC9A03085E
:1046B00038B504460D462622002132F041FA204644
:1046C000FFF7E4FF064B2046294623602B88E3844E
:1046D000FF2384F828301AF022FE204638BD00BFA0
:1046E00028CB030800224FF0FF318260C0E900218F
:1046F000704710B50446FFF7F5FF204610BD0000D7
:1047000010B504460021262232F01AFA2046FFF79F
:10471000BDFF094B4FF47F0204F13C002360074BBF
:10472000A3624FF6FF73A3850023C4E90C322387ED
:10473000FFF7D8FF204610BD48C90308D8940308E6
:1047400010B50446FFF7DCFF024B20462360002330
:10475000A36410BD549B03082DE9F04F0446A7B095
:1047600000261FF073F92746A64B26223146E66342
:1047700004F16C0547F8403B384632F0E1F9384621
:10478000FFF784FFA04B04F5037828462364FF233A
:10479000A6664FF6FF7984F8663004F1040B1AF030
:1047A0000DFC4046FFF7CCFF04F5167304F6B81A6B
:1047B00018460393FFF7C4FF04F5297318460493C2
:1047C000FFF7BEFF04F53C7318461093FFF798FF00
:1047D00004F54E7318460593FFF7B2FF04F56173B5
:1047E00018460693FFF7ACFF04F57473184611934F
:1047F000FFF7A6FF04F21C4318461293FFF7A0FF31
:1048000004F58D6318461393FFF79AFF04F2B4433F
:1048100018461493FFF794FF04F5A0631846159308
:10482000FFF78EFF04F24C5318461693FFF788FFEC
:1048300004F5B36318461793FFF782FF04F2E453BD
:1048400018460793FFF75CFF04F22C6318460893A1
:10485000FFF756FF04F2746318460993FFF750FF01
:1048600004F2BC6318460A93FFF74AFF04F204738C
:1048700018460B93FFF744FF04F24C7318460C9351
:10488000FFF73EFF04F2947318461893FFF758FFA2
:1048900004F5FC6318461993FFF752FF04F62C0346
:1048A00018460D93FFF72CFF04F6740318460E9379
:1048B000FFF726FF04F6BC0318460F93FFF720FF0F
:1048C00004F6041323A9ADF88C9018461A93FFF749
:1048D000EFFE04F5136323A9ADF88C9018461B93E3
:1048E000FFF7E6FE04F65C134FF4887918461C9334
:1048F00018F050FE04F6A41318461D93FFF772F942
:10490000424B4FF4E15104F64420C4F8A439243357
:10491000C4F8B069C4F8AC391BF0FCFB3246384629
:104920004FF4F0733146CDF80090FFF79CFE4FF046
:104930007F4339465846A3664FF0FF3716F0C0F85C
:10494000284623A9ADF88C6016F04CF84FF4F073AC
:10495000284632463146CDF80090FFF784FE2846BF
:104960008822F0211AF0D5FB284664226FF0B301AB
:104970001AF054FC334642F228322846314600965B
:1049800015F0DDFE28463146DFF898901AF0F0FB6E
:1049900086230822284602211AF0A6FB2846012178
:1049A0001AF044FB284601211AF043FB29465846D9
:1049B0001EAD16F085F8B022FD214046FFF746FEF9
:1049C000D4F80C3241462846D3F88430C4F83C72FF
:1049D000A4F84062984704F5127395E8070083E84D
:1049E0000700D9F800302BB9094B6021094A0A4861
:1049F00031F0EAFD094B1B88432B15D8084B612188
:104A0000044AF4E7E49B0308D8C9030834C6030842
:104A100094990308969A0308119A0308A483012025
:104A2000589A0308A0830120D14B4321186802F053
:104A30002FFBD04A03460521504620F0C5FC4046D6
:104A4000C4F854A21AF0FCF9DFF834A368234046F6
:104A500023A9CDF88CA0ADF890301AF011FA414698
:104A6000584616F02DF8B0224FF48F710398FFF7D7
:104A7000EDFDD4F8583203992846D3F8843004F673
:104A8000C218C4F88872A4F88C62984704F525739C
:104A900095E8070083E80700D9F80030002BA3D081
:104AA000B54A1388442BA9D9B14B4421186802F0A8
:104AB000EFFAB04A03460521404620F085FC0398F2
:104AC000C4F8A08204F6CC181AF0BAF9672323A917
:104AD0000398ADF89030CDF88CA01AF0D1F9039975
:104AE000584615F0EDFFDF22FC210498FFF7AEFDDC
:104AF000D4F8A43204992846D3F88430C4F8D47288
:104B0000A4F8D862984704F5387395E8070083E85D
:104B10000700D9F80030002B3FF466AF964A13889F
:104B2000452B7FF66BAF924B4521186802F0B0FA27
:104B3000904A03460521404620F046FC0498C4F8FC
:104B4000EC8204F6D6181AF07BF9662323A90498A0
:104B5000ADF89030CDF88CA01AF092F9049958462F
:104B600015F0AEFFE02240F22D111098FFF76EFD18
:104B700010992846C4F82073A4F8246319F0E6FEBF
:104B800004F54B7395E8070083E80700652323A924
:104B90001098ADF89030CDF88CA01AF071F91099FA
:104BA000584615F08DFF082218210598FFF74EFD95
:104BB000D4F8383305992846D3F88430C4F868739C
:104BC000A4F86C63984704F55D7395E8070083E8E3
:104BD0000700D9F80030002B3FF406AF664A13886F
:104BE0004A2B7FF60BAF624B4A21186802F050FA4D
:104BF000604A03460521404620F0E6FB0598C4F8CC
:104C000080831AF01DF9642323A90598ADF890302C
:104C1000CDF88CA01AF034F90599584615F050FFDC
:104C2000862212210698FFF711FDD4F88433284616
:104C30000699D3F88430C4F8B473A4F8B8639847DD
:104C400004F5707395E8070083E80700D9F8003091
:104C500004F51E65002B3FF4C7AE474A1388482B66
:104C60007FF6CCAE424B48214FF0FF394FF00008A1
:104C7000186802F00DFA3F4A0346052128463F4FC7
:104C800020F0A2FB0698C4F8CC5323AD1AF0D8F854
:104C90005C2329460698ADF89030CDF88CA01AF028
:104CA000EFF80699584615F00BFF4722132111988B
:104CB000FFF7CCFC2846C4F8009404F6EA1AA4F8DE
:104CC0000484FFF70FFD04F20C4395E8070083E826
:104CD00007003B68002B3FF487AE274E3388492BF3
:104CE0007FF68CAE224B4921186802F0D1F9214A97
:104CF00003460521504620F067FB1198C4F818A41C
:104D000004F6F41A1AF09CF81D49612311982391B6
:104D10002946ADF890301AF0B3F81199584615F0BD
:104D2000CFFEE52242211298FFF790FC2846C4F8F6
:104D30004C94A4F85084FFF7D5FC04F58B6395E8F8
:104D4000070083E807003B68002B3FF44DAE338833
:104D5000462B7FF653AE064B4621186802F098F9B1
:104D6000044A03460521504620F02EFB0AE000BF0E
:104D7000AC83012030B90308A4830120A083012063
:104D8000D89403081298C4F864A404F6FE1A1AF022
:104D900057F8D5495423129823912946ADF89030FD
:104DA0001AF06EF81299584615F08AFEC722422171
:104DB0001398FFF74BFC2846C4F89894A4F89C84F9
:104DC000FFF790FC04F2A44395E8070083E807008E
:104DD0003B68002B3FF408AE3388472B7FF60EAEBE
:104DE000C24B4721186802F053F9C14A0346052116
:104DF000504620F0E9FA1398C4F8B0A41AF020F84D
:104E0000B9495323139823912946ADF890301AF0ED
:104E100037F81399584615F053FE082240F2A311B3
:104E20001498FFF713FCC4F8E4942846A4F8E88427
:104E3000FFF758FC04F59E6304F6082995E807007F
:104E400083E807003B68002B3FF4CEAD3388502B3E
:104E50007FF6D4ADA54B5021186802F019F9A44A89
:104E600003460521484620F0AFFA1498C4F8FC9494
:104E700019F0E6FF9C495B23149823912946ADF86D
:104E8000903019F0FDFF1499584615F019FE86224E
:104E90004FF4CC711598FFF7D9FB6FF0FF0328464C
:104EA000A4F83485C4F83035FFF71CFC04F23C53F9
:104EB00095E8070083E807003B6804F61225002BFD
:104EC0003FF492AD33884C2B7FF698AD874B4C2145
:104ED00023AEDFF814821868002702F0D9F8844A5C
:104EE000034605212846DFF810A220F06DFA159838
:104EF000C4F8485504F61C2519F0A2FF5F2331467B
:104F00001598ADF89030CDF88C8019F0B9FF15994F
:104F1000584615F0D5FD472240F2A3111698FFF729
:104F200095FB6FF0FF033046A4F88075C4F87C351C
:104F3000FFF7D8FB04F5B16396E8070083E80700A4
:104F4000DAF80030002B3FF44FAD6A4A13884E2B3D
:104F50007FF654AD654B4E214FF0FF39186802F0D3
:104F600097F8634A03460521284620F02DFA169843
:104F7000C4F8945504F6262519F062FF5A233146E9
:104F80001698ADF89030CDF88C8019F079FF16990D
:104F9000584615F095FDC72240F289111798FFF782
:104FA00055FB3046C4F8C895A4F8CC75FFF79AFBBA
:104FB00004F2D45396E8070083E80700DAF80030DB
:104FC000002B3FF411AD4B4A13884B2B7FF616ADE7
:104FD000464B4B21186802F05BF8454A0346052111
:104FE000284620F0F1F91798C4F8E0551EAD19F0E5
:104FF00027FF5E2331461798ADF89030CDF88C80AE
:1050000019F03EFF1799584615F05AFD372209212D
:105010000798FFF71BFB07992846C4F81496A4F8D5
:10502000187619F093FC079901F13C0395E8070005
:1050300083E80700632331460798ADF89030CDF838
:105040008C8019F01DFF0799584615F039FDB322E1
:1050500009210898FFF7FAFA08992846C4F85C96DF
:10506000A4F8607619F072FC089901F13C0395E808
:10507000070083E80700592331460898ADF89030BF
:10508000CDF88C8019F0FCFE0899584615F018FDF3
:10509000F72209210998FFF7D9FA09992846C4F897
:1050A000A496A4F8A87619F051FC099901F13C03E3
:1050B00095E8070083E80700562331460998ADF8C4
:1050C0009030CDF88C8019F0DBFE0999584615F028
:1050D000F7FCDB2209210A98FFF7B8FA0A9928465B
:1050E000C4F8EC960AE000BFD8940308AC83012012
:1050F00030B90308A4830120A0830120A4F8F0762E
:1051000019F024FC0A9901F13C0395E8070083E8B3
:105110000700552331460A98ADF89030CDF88C80C1
:1051200019F0AEFE0A99584615F0CAFC75220921FD
:105130000B98FFF78BFA0B992846C4F83497A4F81C
:10514000387719F003FC0B9901F13C0395E807004F
:1051500083E807004FF062010B98CDF88C80ADF822
:105160009010314619F08CFE0B99584615F0A8FCAA
:1051700037224FF4B9710C98FFF768FA0C9928465A
:10518000C4F87C97A4F8807719F0E0FB0C9901F142
:105190003C0395E8070083E80700582331460C9844
:1051A000ADF89030CDF88C8019F06AFE0C99584615
:1051B00015F086FC232240F28B111898FFF746FA6F
:1051C0003046C4F8C497A4F8C877FFF78BFA04F503
:1051D000FA6396E8070083E8070004F52361DAF82C
:1051E00000300391002B3FF4FFAB8D4A13884F2B07
:1051F0007FF604AC8B4B4F21186801F049FF8A4AB7
:1052000003460521039820F0DFF803991898C4F8A5
:10521000DC1719F015FE522331461898ADF890307E
:10522000CDF88C8019F02CFE1899584615F048FCE2
:10523000622240F28B111998FFF708FA3046C4F841
:105240001098A4F81478FFF74DFA04F61C0396E8BA
:10525000070083E8070004F63A21DAF800300391EA
:10526000002B3FF4C1AB6E4A13884D2B7FF6C6ABC3
:105270006C4B4D21186801F00BFF6B4A034605216A
:10528000039820F0A1F8039B1998C4F8283819F066
:10529000D7FD512331461998ADF89030CDF88C8068
:1052A00019F0EEFD1999584615F00AFCB3220D9835
:1052B00040F27711FFF7CAF90D992846C4F85C98B7
:1052C000A4F8607819F042FB0D9B95E807003C3389
:1052D000CDF88C8083E80700602331460D98ADF847
:1052E000903019F0CDFD0D99584615F0E9FB752267
:1052F0000E9840F28111FFF7A9F90E992846C4F8DB
:10530000A498A4F8A87819F021FB0E9B95E8070053
:105310003C33CDF88C8083E80700572331460E9844
:10532000ADF8903019F0ACFD0E99584615F0C8FB59
:10533000F5220F984FF4B771FFF788F90F992846B7
:10534000C4F8EC98A4F8F07819F000FB0F9B95E8EE
:1053500007003C33CDF88C8083E807005D2331469D
:105360000F98ADF8903019F08BFD0F99584615F055
:10537000A7FB3C221A98D821FFF768F9032331468E
:105380001A98ADF88C3019F0CAFF1A99584615F0E2
:1053900097FB6C221B984FF48671FFF757F9012396
:1053A00031461B98ADF88C3019F0B9FF1B9958465F
:1053B00015F086FB4FF488733A4639461C980093E3
:1053C0004FF4F073FFF74FF94FF4F05358461C9920
:1053D000C4F888394FF48853C4F89C79C4F88C39E0
:1053E0004FF40C53C4F89479C4F890394FF4345303
:1053F00084F88179C4F898394FF0FF23C4F8B039A4
:105400004FF4FC63A4F8B4391D9BC4F88439842399
:1054100084F8823915F054FB204627B0BDE8F08FA0
:10542000A4830120AC83012030B903087047000039
:10543000034B10B5044603601AF076FE204610BDFB
:105440001C9C0308064B10B5044603601AF06CFE62
:1054500042F6F841204630F070F9204610BD00BFFA
:105460001C9C030808B51CF073FBBDE80840FEF760
:10547000C3BF000010B504462622002131F060FBB6
:105480002046FFF703F9044B20462360FF2384F8EE
:1054900026300023A36210BDD8C9030810B4C46B22
:1054A0004A01B4EB411F04D05DF8044BC26318F00D
:1054B0009FBF5DF8044B70472DE9F04F0446BFB025
:1054C00000261EF0C3FA2546DA4B04F16C09E663A8
:1054D00045F8403B2846FFF7CDFF4846FFF7CAFF97
:1054E00004F19803D44F04F1040A18460893FFF717
:1054F00027F904F1E40307F1240818460993FFF79C
:105500001FF904F5987318460A93FFF719F904F583
:10551000BE7318460B93FFF713F904F5E4731846AE
:105520000C93FFF70DF904F5057318460393FFF785
:1055300007F904F5187318460493FFF701F904F509
:105540002B7318462393FFF7FBF804F53E731846B8
:105550002493FFF7F5F804F5517318462593FFF7E8
:10556000EFF804F5647318462693FFF7E9F804F59D
:10557000777318462793FFF7E3F804F58563184619
:105580002893FFF7DDF804F2744318462993FFF7D8
:10559000D7F804F5986318462A93FFF7D1F804F278
:1055A0000C5318462B93FFF7CBF804F5AB63184662
:1055B0002C93FFF7C5F804F2A45318462D93FFF778
:1055C000BFF804F5BE6318462E93FFF7B9F804F24E
:1055D0003C6318462F93FFF7B3F804F5D1631846E0
:1055E0003093FFF7ADF804F2D46318460D93FFF73C
:1055F00087F804F21C7318460E93FFF781F804F243
:10560000647318460F93FFF77BF804F2AC731846E7
:105610001093FFF775F804F2F47318461193FFF72F
:105620006FF804F63C0318461293FFF769F804F686
:10563000840318461393FFF763F804F6CC03184667
:105640003193FFF77DF804F6181318463293FFF7ED
:1056500077F804F6641318461493FFF751F804F62C
:10566000AC1318461593FFF74BF804F6F4131846DD
:105670001693FFF745F804F63C2318461793FFF7F7
:105680003FF804F6842318461893FFF739F804F618
:10569000CC2318461993FFF733F804F61433184651
:1056A0001A93FFF72DF804F65C3318461B93FFF7A7
:1056B00027F804F6A43318461C93FFF721F804F6E4
:1056C000EC3318461D93FFF71BF804F634431846D5
:1056D0001E93FFF715F804F67C4318461F93FFF757
:1056E0000FF804F6C4431846059318F061FE04F65B
:1056F000345318463393FEF775FA04F64853C4F84A
:10570000347D1846C4F83C8DC4F8406D069318F0FB
:105710004FFE04F6B85318463493FEF763FA04F6C6
:10572000CC53C4F8B87D1846C4F8C08DC4F8C46D15
:105730002093FEF7E5FF04F6146318462193FEF765
:10574000DFFF04F65C631846079318F031FE04F699
:10575000CC6318463593FEF745FA04F56E63C4F83A
:10576000CC7E4FF6FF77262231461846C4F8D48EF9
:10577000C4F8D86E4FF488782293ADF8EC7031F00D
:10578000DFF92298FEF782FF2C4B3BA92298C4F840
:10579000E03EBDF8EC3084F8087F4FF07F47A4F876
:1057A000063F19F0BCFD04F586504FF4E151183066
:1057B0001AF0B0FC4FF4F073324628463146CDF86B
:1057C0000080FEF750FF29465046A76615F078F98D
:1057D0004FF4F073324648463146CDF80080FEF76C
:1057E00042FF49465046C4F8947015F069F91B22EF
:1057F0005C210898FEF72AFF36ADD4F898304FF0B8
:10580000FF3908992846D3F8843004F60C78C4F898
:10581000C890A4F8CC609847094F04F1D40395E8E8
:10582000070083E807003B689BB9064B6021064AE6
:105830000CE000BF1C9C030834C6030828CB0308F7
:10584000A083012094990308969A0308064830F033
:10585000BBFEDFF820B0BBF80030192B0CD8034B8F
:105860006121034AF2E700BF119A0308589A03081E
:10587000969A0308A4830120CE4B1921186801F0E1
:1058800007FCCD4A03460A2140461FF09DFD0898BB
:10589000C4F8E08019F0D4FADFF8248342233BA94E
:1058A0000898ADF8F030CDF8EC8019F0E9FA0899D5
:1058B000504615F005F91B22A6210998FEF7C6FEF1
:1058C000D4F8E43009992846D3F88430C4F8149108
:1058D000A4F81861984704F5907395E8070083E8E9
:1058E000070004F572623B680892002B9DD0BBF85C
:1058F0000030182BB3D9AF4B1821186801F0C8FB42
:105900000A210346AC4A08981FF05EFD089A0998E0
:10591000C4F82C2119F094FA20233BA90998ADF87A
:10592000F030CDF8EC8019F0ABFA0999504615F03B
:10593000C7F835226C210A98FEF788FED4F830317A
:105940000A992846D3F88430C4F86091A4F86461B9
:10595000984704F5B67395E8070083E8070004F656
:1059600034723B680892002B3FF45FAFBBF8003005
:10597000172B7FF674AF8F4B1721186801F088FB47
:105980000A2103468C4A08981FF01EFD089A0A98BF
:10599000C4F8782119F054FA3F233BA90A98ADF8CE
:1059A000F030CDF8EC8019F06BFA0A99504615F0FA
:1059B00087F83522B6210B98FEF748FED4F87C31E3
:1059C0000B992846D3F88430C4F8AC91A4F8B061A0
:1059D000984704F5DC7395E8070083E8070004F6B0
:1059E00048723B680892002B3FF41FAFBBF80030B1
:1059F000162B7FF634AF6F4B1621186801F048FB69
:105A00000A2103466C4A08981FF0DEFC089A0B989E
:105A1000C4F8C42119F014FA1F233BA90B98ADF860
:105A2000F030CDF8EC8019F02BFA0B99504615F0B8
:105A300047F81A2240F2A3110C98FEF707FED4F89B
:105A4000C83128460C99D3F88430C4F8F891A4F8EA
:105A5000FC61984704F5017395E8070083E80700A7
:105A60003B6804F65C75002B3FF4DFAEBBF80030FA
:105A7000122B7FF6F4AEDFF83CB1122136AE4FF0B8
:105A80000009DBF8000001F003FB4B4A03460A2142
:105A900028461FF099FC0C98C4F810523BAD19F041
:105AA000CFF93D2329460C98ADF8F030CDF8EC80C5
:105AB00019F0E6F90C99504615F002F81A224FF445
:105AC000AC710398FEF7C2FD4FF0FF32D4F81432E8
:105AD00030460399D3F88430C4F84422A4F848929D
