:020000040800F2
:1000000000000520351F0008511E0008531E00087F
:10001000551E0008571E0008591E00080000000069
:10002000000000000000000000000000918F0008A8
:100030005B1E000800000000319000089590000849
:10004000851F0008851F0008851F0008851F000800
:10005000851F0008851F0008851F0008851F0008F0
:10006000851F0008851F0008851F0008851F0008E0
:10007000851F0008851F0008851F0008851F0008D0
:10008000851F0008851F0008851F0008851F0008C0
:10009000851F0008851F0008851F0008851F0008B0
:1000A000851F0008851F0008851F0008851F0008A0
:1000B000851F0008851F0008851F0008851F000890
:1000C000851F0008851F0008851F0008851F000880
:1000D000851F0008851F0008851F0008851F000870
:1000E000851F0008851F0008851F0008851F000860
:1000F000851F0008851F0008851F0008851F000850
:10010000851F0008851F0008851F0008851F00083F
:10011000851F0008851F00085D1E0008851F000858
:10012000851F0008851F0008851F0008851F00081F
:10013000851F0008851F0008851F0008851F00080F
:10014000851F0008851F0008851F0008851F0008FF
:10015000851F0008851F0008851F0008851F0008EF
:10016000851F0008851F0008851F0008851F0008DF
:10017000851F0008851F0008851F0008000000007B
:10018000851F0008851F0008851F0008851F0008BF
:10019000851F0008851F0008851F0008851F0008AF
:1001A000691E0008851F0008751E0008851F0008CD
:1001B000851F0008851F0008851F0008851F00088F
:0801C000851F0008851F0008DF
:1001D00010B5054C237833B9044B13B10448AFF381
:1001E00000800123237010BD4003002000000000A8
:1001F000A048030808B5034B1BB103490348AFF3FC
:10020000008008BD0000000044030020A04803084F
:1002100001F0FF01102A2BDB10F0070F08D010F8B7
:10022000013B013A8B422DD010F0070F42B3F6D1BB
:10023000F0B441EA012141EA014122F007047FF0D4
:1002400000070023F0E80256083C85EA010586EA2B
:10025000010685FA47F5A3FA87F586FA47F6A5FA67
:1002600087F68EB9EED1F0BC01F0FF0102F0070273
:1002700032B110F8013B013A83EA010313B1F8D11E
:100280000020704701387047002D06BF35460338FF
:10029000073815F0010F07D1013015F4807F02BF38
:1002A000013015F4C03F0130F0BC0138704700BF89
:1002B00081F0004102E000BF83F0004330B54FEA17
:1002C00041044FEA430594EA050F08BF90EA020F84
:1002D0001FBF54EA000C55EA020C7FEA645C7FEA17
:1002E000655C00F0E2804FEA5454D4EB5555B8BF3A
:1002F0006D420CDD2C4480EA020281EA030382EAAB
:10030000000083EA010180EA020281EA0303362D3C
:1003100088BF30BD11F0004F4FEA01314FF4801C0F
:100320004CEA113102D0404261EB410113F0004F21
:100330004FEA03334CEA133302D0524263EB4303D8
:1003400094EA050F00F0A780A4F10104D5F1200E76
:100350000DDB02FA0EFC22FA05F2801841F10001D1
:1003600003FA0EF2801843FA05F359410EE0A5F1A5
:1003700020050EF1200E012A03FA0EFC28BF4CF0D6
:10038000020C43FA05F3C01851EBE37101F000458C
:1003900007D54FF0000EDCF1000C7EEB00006EEB99
:1003A0000101B1F5801F1BD3B1F5001F0CD3490823
:1003B0005FEA30004FEA3C0C04F101044FEA44527A
:1003C00012F5800F80F09A80BCF1004F08BF5FEA01
:1003D000500C50F1000041EB045141EA050130BDE1
:1003E0005FEA4C0C404141EB0101013C28BFB1F5F3
:1003F000801FE9D291F0000F04BF01460020B1FA3E
:1004000081F308BF2033A3F10B03B3F120020CDA10
:100410000C3208DD02F1140CC2F10C0201FA0CF0EE
:1004200021FA02F10CE002F11402D8BFC2F1200C53
:1004300001FA02F120FA0CFCDCBF41EA0C01904009
:10044000E41AA2BF01EB0451294330BD6FEA040452
:100450001F3C1CDA0C340EDC04F11404C4F120023D
:1004600020FA04F001FA02F340EA030021FA04F34F
:1004700045EA030130BDC4F10C04C4F1200220FAA6
:1004800002F001FA04F340EA0300294630BD21FAE4
:1004900004F0294630BD94F0000F83F4801306BFAA
:1004A00081F480110134013D4EE77FEA645C18BF9E
:1004B0007FEA655C29D094EA050F08BF90EA020F35
:1004C00005D054EA000C04BF1946104630BD91EA2D
:1004D000030F1EBF0021002030BD5FEA545C05D130
:1004E0004000494128BF41F0004130BD14F580046F
:1004F0003CBF01F5801130BD01F0004545F0FE41E3
:1005000041F470014FF0000030BD7FEA645C1ABF17
:10051000194610467FEA655C1CBF0B46024650EA4E
:10052000013406BF52EA033591EA030F41F400217A
:1005300030BD00BF90F0000F04BF0021704730B500
:100540004FF4806404F132044FF000054FF00001D5
:1005500050E700BF90F0000F04BF0021704730B596
:100560004FF4806404F1320410F0004548BF40426B
:100570004FF000013EE700BF42004FEAE2014FEAC0
:1005800031014FEA02701FBF12F07F4393F07F4F9B
:1005900081F06051704732F07F4208BF704793F09E
:1005A0007F4F04BF41F40021704730B54FF46074B1
:1005B00001F0004521F000411CE700BF50EA0102B4
:1005C00008BF704730B54FF000050AE050EA01025D
:1005D00008BF704730B511F0004502D5404261EBCD
:1005E00041014FF4806404F132045FEA915C3FF40E
:1005F000D8AE4FF003025FEADC0C18BF03325FEAAB
:10060000DC0C18BF033202EBDC02C2F1200300FA5B
:1006100003FC20FA02F001FA03FE40EA0E0021FA80
:1006200002F11444BDE600BF70B54FF0FF0C4CF46E
:10063000E06C1CEA11541DBF1CEA135594EA0C0F20
:1006400095EA0C0F00F0DEF82C4481EA030621EA5B
:100650004C5123EA4C5350EA013518BF52EA033596
:1006600041F4801143F4801338D0A0FB02CE4FF048
:100670000005E1FB02E506F00042E0FB03E54FF078
:100680000006E1FB03569CF0000F18BF4EF0010E70
:10069000A4F1FF04B6F5007F64F5407404D25FEA6C
:1006A0004E0E6D4146EB060642EAC62141EA55511F
:1006B0004FEAC52040EA5E504FEACE2EB4F1FD0C61
:1006C00088BFBCF5E06F1ED8BEF1004F08BF5FEADF
:1006D000500E50F1000041EB045170BD06F0004691
:1006E00046EA010140EA020081EA0301B4EB5C043E
:1006F000C2BFD4EB0C0541EA045170BD41F4801136
:100700004FF0000E013C00F3AB8014F1360FDEBF5A
:10071000002001F0004170BDC4F10004203C35DA36
:100720000C341BDC04F11404C4F1200500FA05F3B9
:1007300020FA04F001FA05F240EA020001F000425A
:1007400021F0004110EBD37021FA04F642EB0601D0
:100750005EEA430E08BF20EAD37070BDC4F10C04FA
:10076000C4F1200500FA04F320FA05F001FA04F2BE
:1007700040EA020001F0004110EBD37041F10001AA
:100780005EEA430E08BF20EAD37070BDC4F12005B5
:1007900000FA05F24EEA020E20FA04F301FA05F21D
:1007A00043EA020321FA04F001F0004121FA04F2C5
:1007B00020EA020000EBD3705EEA430E08BF20EA95
:1007C000D37070BD94F0000F0FD101F000464000CF
:1007D00041EB010111F4801F08BF013CF7D041EA51
:1007E000060195F0000F18BF704703F00046520055
:1007F00043EB030313F4801F08BF013DF7D043EA26
:100800000603704794EA0C0F0CEA135518BF95EADB
:100810000C0F0CD050EA410618BF52EA4306D1D162
:1008200081EA030101F000414FF0000070BD50EA81
:10083000410606BF1046194652EA430619D094EA0B
:100840000C0F02D150EA013613D195EA0C0F05D1F5
:1008500052EA03361CBF104619460AD181EA030149
:1008600001F0004141F0FE4141F470014FF0000001
:1008700070BD41F0FE4141F4780170BD70B54FF09C
:10088000FF0C4CF4E06C1CEA11541DBF1CEA13551C
:1008900094EA0C0F95EA0C0F00F0A7F8A4EB0504FE
:1008A00081EA030E52EA03354FEA013100F08880F5
:1008B0004FEA03334FF0805545EA131343EA1263BE
:1008C0004FEA022245EA111545EA10654FEA002673
:1008D0000EF000419D4208BF964244F1FD0404F52C
:1008E000407402D25B084FEA3202B61A65EB030588
:1008F0005B084FEA32024FF480104FF4002CB6EB45
:10090000020E75EB030E22BFB61A754640EA0C00C4
:100910005B084FEA3202B6EB020E75EB030E22BF04
:10092000B61A754640EA5C005B084FEA3202B6EB45
:10093000020E75EB030E22BFB61A754640EA9C0004
:100940005B084FEA3202B6EB020E75EB030E22BFD4
:10095000B61A754640EADC0055EA060E18D04FEA92
:10096000051545EA16754FEA06164FEAC30343EA32
:1009700052734FEAC2025FEA1C1CC0D111F4801FFF
:100980000BD141EA00014FF000004FF0004CB6E7F8
:1009900011F4801F04BF01430020B4F1FD0C88BF97
:1009A000BCF5E06F3FF6AFAEB5EB030C04BFB6EBA2
:1009B000020C5FEA500C50F1000041EB045170BD95
:1009C0000EF0004E4EEA113114EB5C04C2BFD4EBC2
:1009D0000C0541EA045170BD41F480114FF0000E46
:1009E000013C90E645EA060E8DE60CEA135594EAC2
:1009F0000C0F08BF95EA0C0F3FF43BAF94EA0C0FC5
:100A00000AD150EA01347FF434AF95EA0C0F7FF439
:100A100025AF104619462CE795EA0C0F06D152EA8D
:100A200003353FF4FDAE1046194622E750EA410671
:100A300018BF52EA43067FF4C5AE50EA41047FF482
:100A40000DAF52EA43057FF4EBAE12E74FF0FF3CE7
:100A500006E000BF4FF0010C02E000BF4FF0010CB8
:100A60004DF804CD4FEA410C7FEA6C5C4FEA430C31
:100A700018BF7FEA6C5C1BD001B050EA410C0CBF80
:100A800052EA430C91EA030F02BF90EA020F0020E2
:100A9000704710F1000F91EA030F58BF994208BF49
:100AA00090422CBFD8176FEAE37040F00100704706
:100AB0004FEA410C7FEA6C5C02D150EA013C07D15D
:100AC0004FEA430C7FEA6C5CD6D152EA033CD3D0A8
:100AD0005DF8040B704700BF8446104662468C46A2
:100AE0001946634600E000BF01B5FFF7B7FF0028D5
:100AF00048BF10F1000F01BD4DF808EDFFF7F4FFFE
:100B00000CBF012000205DF808FB00BF4DF808ED88
:100B1000FFF7EAFF34BF012000205DF808FB00BFAB
:100B20004DF808EDFFF7E0FF94BF012000205DF8CD
:100B300008FB00BF4DF808EDFFF7CEFF94BF012082
:100B400000205DF808FB00BF4DF808EDFFF7C4FF7B
:100B500034BF012000205DF808FB00BF4FEA4102CE
:100B6000B2F1E04324BFB3F5001CDCF1FE5C0DD90B
:100B700001F0004C4FEAC0024CEA5070B2F1004F55
:100B800040EB830008BF20F00100704711F0804F58
:100B900021D113F13872BCBF01F00040704741F41D
:100BA00080114FEA5252C2F11802C2F1200C10FA21
:100BB0000CF320FA02F018BF40F001004FEAC12305
:100BC0004FEAD32303FA0CFC40EA0C0023FA02F3A9
:100BD0004FEA4303CCE77FEA625307D150EA01337F
:100BE0001EBF4FF0FE4040F44000704701F000404F
:100BF00040F0FE4040F40000704700BF7BB972B97E
:100C00000029BEBF00204FF0004106E008BF0028C9
:100C10001CBF6FF000414FF0FF3000F0B5B9ADF1EF
:100C2000080C6DE904CE002909DB002B1ADB00F06B
:100C30004DF8DDF804E0DDE9022304B070474042DE
:100C400061EB4101002B1BDB00F040F8DDF804E014
:100C5000DDE9022304B0404261EB4101524263EB03
:100C600043037047524263EB430300F02FF8DDF873
:100C700004E0DDE9022304B0404261EB410170472A
:100C8000524263EB430300F021F8DDF804E0DDE9B4
:100C9000022304B0524263EB4303704753B94AB98D
:100CA000002908BF00281CBF4FF0FF314FF0FF3074
:100CB00000F06AB9ADF1080C6DE904CE00F006F859
:100CC000DDF804E0DDE9022304B070472DE9F047C8
:100CD000089D0C46002B4ED194468C458646B2FAB0
:100CE00082F262D94AB1C2F12003914020FA03F3A3
:100CF0000CFA02FC194300FA02FE4FEA1C471FFAE5
:100D00008CF6B1FBF7F44FEA1E4307FB141143EADC
:100D1000014304FB06F199420AD91CEB030304F1D9
:100D2000FF3080F01281994240F20F81023C63440F
:100D3000591A1FFA8EF3B1FBF7F007FB101143EAC3
:100D4000014300FB06F69E420AD91CEB030300F1A7
:100D5000FF3180F0FC809E4240F2F980634402380B
:100D60009B1B40EA044000211DB1D3400022C5E98D
:100D70000032BDE8F0878B4205D90DB1C5E900010D
:100D800000210846F5E7B3FA83F1002946D1A342D2
:100D900002D39042C0F0F080861A64EB0303012076
:100DA000002DE6D0C5E90063E3E7002A40F090801B
:100DB000A1EB0C044FEA1C481FFA8CF70121B4FB8D
:100DC000F8F64FEA1E4308FB164443EA044307FBC8
:100DD00006F0984208D91CEB030306F1FF3402D257
:100DE000984200F2CD8026461C1A1FFA8EF3B4FBFF
:100DF000F8F008FB104443EA044300FB07F79F4266
:100E000008D91CEB030300F1FF3402D29F4200F229
:100E1000B0802046DB1B40EA0640A5E7C1F1200672
:100E20008B4022FA06F71F4320FA06FC04FA01F36E
:100E300043EA0C03F44000FA01F8380C4FEA134976
:100E4000B4FBF0FE1FFA87FC00FB1E4449EA044491
:100E50000EFB0CF9A14502FA01F20AD93C190EF178
:100E6000FF3A80F08480A14540F28180AEF1020E0D
:100E70003C44A4EB09041FFA83F9B4FBF0F300FB34
:100E8000134449EA044403FB0CFCA44507D93C196C
:100E900003F1FF3067D2A44565D9023B3C4443EAE5
:100EA0000E40A0FB0293A4EB0C049C42CE469C4651
:100EB00051D34ED055B1B8EB0E0364EB0C0404FAD9
:100EC00006F6CB401E43CC40C5E90064002150E744
:100ED000C2F1200320FA03F10CFA02FC24FA03F316
:100EE00094400C434FEA1C4800FA02FE1FFA8CF7AC
:100EF000B3FBF8F008FB1031230C43EA014300FB7D
:100F000007F1994208D91CEB030300F1FF362CD2FC
:100F100099422AD9023863445B1AA4B2B3FBF8F1B0
:100F200008FB113344EA034401FB07F3A34208D949
:100F30001CEB040401F1FF3613D2A34211D902398C
:100F40006444E41A41EA004139E70446F0E6084601
:100F500006E7C845AED2B9EB020E63EB070C0138C9
:100F6000A8E73146EDE7034699E73046D4E7D64691
:100F70007FE7634402384DE70646234608460FE7FD
:100F8000023E634430E700BF704700BF01490020C4
:100F900009F0FCB93124000808B5642007F006FC0C
:100FA000FBE70000000000002DE98048A3B0C04B23
:100FB000B1EE0C8ABF4C1A68D4ED007AB2F5FA5F34
:100FC000F4EEC87AB4BF253200220192019A1A6069
:100FD000B94B1A68B2F5FA5FB4BF17320022029219
:100FE000029A1A60B54B1F68812FD4BF01376FF08A
:100FF0002707632F1F60D4BF002301230793B04B43
:101000001E68812ED4BF01366FF02706632E1E6046
:10101000D4BF002301230893AA4B1A68952AD4BF92
:1010200001326FF027020392039A1A60A64B1A68E6
:10103000812AD4BF01326FF027020492049A1A6009
:10104000A24B1A68EF2AD4BF02F1040A4FF0000A3B
:10105000C3F800A09E4B1A68EF2AD4BF02F1020B1E
:101060004FF0000BF1EE10FAC3F800B080F260818F
:1010700017EE900AFFF780FA7DA3D3E90023FFF76C
:101080001DF9FFF76BFD09EE100A84ED009A914CF3
:10109000D4ED007AF4EEC87AF1EE10FA80F24B81CA
:1010A00017EE900AFFF768FA73A3D3E90023FFF75E
:1010B00005F9FFF753FD08EE900AF0EE087AC4ED4B
:1010C000008A854CB1EE027AF4EEE78AF0EE007AFF
:1010D000F1EE10FAB4EEE79AD4ED007A4CBF01239A
:1010E0000023F1EE10FAF4EEC77A09934CBF012306
:1010F0000023F1EE10FA0A9380F2208117EE900A95
:10110000FFF73AFA5EA3D3E90023FFF7D7F8FFF71A
:1011100025FD0590DDED057ADFF8D481C4ED007A78
:10112000D8F80000FFF728FA04460D4656A3D3E985
:101130000023FFF7FFFC002840F0058120462946E8
:101140004DA3D3E90023FFF7B9F8FFF707FD069099
:10115000DDED067AC8ED007ADFF89881D8F8000056
:10116000FFF70AFA04460D4649A3D3E90023FFF727
:10117000E1FC002840F0EC802046294646A3D3E954
:101180000023FFF79BF8FFF7E9FC08EE100AF2EEE8
:10119000087A88ED008AB4EEE78AF1EE10FA4CBFC7
:1011A000012300230B934D4B1D68312DD4BF043513
:1011B0006FF027051D604A4B1C68592CD4BF0134C1
:1011C0006FF027041C60474B1868FFF7D5F980467D
:1011D000894633A3D3E90023FFF7ACFC002840F095
:1011E000BA804046494630A3D3E90023FFF766F8AA
:1011F000FFF7B4FC3C4A3B4B3C4918601368DFF8EE
:10120000F8C0632BDDED057A1096D4BF01330023BF
:10121000CDED197A13600A78DDED067A82F0010EC1
:10122000019ACDF854B00C92029A81F800E09CF833
:1012300000108DED169A4E29CDED178ACDE90D27B8
:10124000079A14BF4E2152218DF83C20089A8CF841
:1012500000108DF84420039A1292049ACDE9132AC3
:10126000099A8DF860200A9A8DF8612046E000BF47
:101270009A9999999999A93F7B14AE47E17A943F3D
:101280007B14AE47E17AA43F9A99999999991340B2
:101290006666666666662D409A9999999999B93FEE
:1012A000CDCCCCCCCCCCFC3FB81E85EB51B89E3F0E
:1012B0009C0300207C03002098030020940300205E
:1012C000900300208C03002088030020840300206A
:1012D00080030020780300207403002068030020AE
:1012E00064030020600300205C0300200500002050
:1012F000700300206C03002004000020CDED1A7A5A
:101300000B9A1F902093002314488DF870201A46E2
:101310008DF885100CA900688DED1B8A8DF884E08E
:10132000CDE91D5408F011F9282007F03FFA3EE6F8
:101330009FED0B9AA9E6DFED0A8ABEE6DFED087A9B
:10134000CDED057AE6E6DFED067ACDED067AFFE62D
:10135000B2EE068A1BE700204CE700BFDC2A002023
:101360000000000010B594B01022002102240AA849
:1013700032F058FB1422002103A832F053FB1D4B1E
:10138000192108A81A6C42F080521A641B6C03F0F1
:1013900080530193019B184B1A6842F440421A6033
:1013A00001221B6803F440430293029B4FF48033F5
:1013B000CDE908234FF48003CDE90E434FF4D873F1
:1013C000CDE91244CDE9101306F0C0F905F05CFE3A
:1013D0000F2300200721CDE903344FF4A053CDE9BA
:1013E00005034FF4805303A8079306F097FB14B04E
:1013F00010BD00BF00380240007000402DE9804859
:101400009BB01022002101250DA84FF0104932F0A9
:1014100009FB002404F07EFDC74B0DA8ADF8345045
:101420001094CDE90E9304F093FD17230DA88DF8C9
:1014300035508DF83C308DF8425004F089FD042081
:1014400004F076FDBFF34F8FBFF36F8FBB4AC2F836
:101450005042BFF34F8FBFF36F8F536943F4003394
:101460005361BFF34F8FBFF36F8FC2F88440BFF358
:101470004F8FD2F8803043F6E074C3F3C900C3F352
:101480004E335B0103EA0406014646EA81750139E1
:10149000C2F86052F9D2203B13F1200FF2D1BFF312
:1014A0004F8F536943F480335361BFF34F8FBFF3C2
:1014B0006F8F04F095FC0024FFF754FF14220021E5
:1014C0000DA832F0AFFA9E4B10219E481A6B0127EF
:1014D0004FF010084FF0030B42F010024FF4805A07
:1014E000994D4FF004091A631A6B984E02F01002DE
:1014F0000292029A1A6B42F002021A631A6B02F00D
:1015000002020392039A1A6B42F001021A631A6BE9
:1015100002F001020492049A1A6B42F040021A632C
:101520001A6B02F040020592059A1A6B42F400729F
:101530001A631A6B02F400720692069A1A6B42F052
:1015400008021A631A6B02F008020792079A1A6BD4
:1015500042F480621A631A6B02F480620892089A5D
:101560001A6B42F020021A631A6B02F020020992F1
:10157000099A1A6B42F480721A631A6B02F4807231
:101580000A920A9A1A6B42F080021A631A6B02F0EE
:1015900080020B920B9A1A6B42F004021A6300222B
:1015A0001B6B03F004030C930C9B05F01FF8012246
:1015B0000821674805F01AF801224FF48051654868
:1015C00005F014F80022C021634805F00FF800224E
:1015D0004021624805F00AF80DA95A48CDE90D8767
:1015E000CDE90F4B04F07EFE08230DA95848CDE944
:1015F0000D37CDE90F4404F075FE0DA95548CDE92E
:101600000DA7CDE90F4404F06DFEC0220DA952488C
:10161000CDE90D27CDE90F4B04F064FE40220DA962
:101620004E48CDE90D27CDE90F4B04F05BFE4C4849
:101630004C49848001600762C0E9054404F0B4FCB1
:1016400049492846C5E90014C5E90244C5E90A44E8
:10165000C5E90C4404F047FD39462846434D04F0E3
:10166000FBFD40234FF4C07241493046B460F46141
:10167000B462C6E905324FF40062C6E9082A4FF0A9
:10168000020A0722C6E900140DA9CDF84CA0C6E94C
:101690000398CDE90DA2CDE90F92CDE911BA06F07C
:1016A00093FD29464FF6FF7230460194C5E9007854
:1016B000C5E9027406F0A8FD384604F0B5FB2946DA
:1016C0004FF6FF723046C5E900A8C5E9027406F07E
:1016D0009BFD082329464FF6FF723046C5E900B846
:1016E000C5E9023406F090FD4FF40C734FF6FF721B
:1016F000294601933046019BAF60EB60C5E9009835
:1017000006F082FD40F22B7130461A4D06F09BFD2B
:101710004FF0204343F2D202642040F215261A60B3
:1017200004F082FB144B154A28462C62C5E90023BD
:10173000C5E9024724E000BF1B00000300ED00E004
:1017400000380240000402403C050020C003002095
:101750000028024000200240000802400018024019
:101760007C0500200030024000B00240A0030020B1
:10177000400100A0E804002068474020005C0040D1
:10178000C5E90444C5E9064405F071F82146284638
:1017900005F094FA21462846424D05F0B5FA342268
:1017A00021460DEB020032F03DF93F4B2821352058
:1017B00040F2352C2C61AC8685F83640C5E9003402
:1017C0000923C5E905130B23C5E9070340F21B13E1
:1017D0002846C5E9096340F21D13C5E90244C5E97D
:1017E0000BC305F03DFBFF214FF4806E4FF4F07208
:1017F0004FF4887328460D941893ADF864408DF823
:101800006640CDE912140521CDE914E14FF04041C5
:10181000CDE90E24CDE9161222460DA9CDE9103AE4
:1018200005F0E9FB2148224B0462C0E90037C0E91A
:1018300002984FF4A0634FF01808C0E90644C0E9CD
:10184000048305F03BFD04F04BF904F091F85C20B3
:1018500004F04EFB00F06CFB00F096FB00F093FBF5
:1018600006F016FF134A2146134806F04BFF134BB0
:10187000134A21461860134806F044FF124B134ADE
:1018800021461860124806F03DFF124B124A2146CD
:101890001860124806F036FF114B186006F012FF70
:1018A000FEE700BF4004002000680140F403002070
:1018B000001000A090490308990F0008BC03002005
:1018C0006C490308971F0008B80300204849030823
:1018D000F13A0008B403002024490308A90F0008C6
:1018E000B00300200268034B9A4201D104F08ABA87
:1018F000704700BF00100040704700000D4B82B0E1
:101900000F216FF001001A6C42F080521A641A6CB9
:1019100002F080520092009A5A6C42F480425A645B
:1019200000225B6C03F480430193019B02B004F03E
:101930009FBA00BF00380240026882B0084B9A424A
:101940000BD1D3F8302803F5006342F480521A63B8
:101950001B6B03F480530193019B02B0704700BFDF
:10196000003002400E4B07B502689A4215D1A3F52C
:10197000F04305215A201A6B42F400021A63002238
:101980001B6B03F400030193019B04F071FA5A20CE
:1019900003B05DF804EB04F09DBA03B05DF804FBFE
:1019A00000B0024010B5A8B004461422002102A8DD
:1019B00032F038F88422002107A832F033F8226888
:1019C000174B9A422AD14FF4803307A8079306F0A9
:1019D00071F908B1FFF790FF124C4FF4C07201216A
:1019E0001148236B43F080032363236B03F08003D0
:1019F0000093009B1223CDE902230323CDE90413B6
:101A0000042302A9069304F06DFC236C43F4000345
:101A10002364236C03F400030193019B28B010BDE1
:101A2000005C004000380240001C0240026808B51B
:101A3000094B9A420FD1094A80210948136C23F4BB
:101A40000003136404F032FD4FF480710448BDE8D4
:101A5000084004F02BBD08BD005C00400038024087
:101A6000001C024070B5ACB004461422002106A848
:101A700031F0D8FF842200210BA831F0D3FF226877
:101A8000484B9A4240F08C800823052001240B9398
:101A90004FF4C07310930223CDE911304FF400339B
:101AA0000BA8CDE9154306F005F908B1FFF724FFAF
:101AB0003D4B002402250E265A6C06A93B4842F0F5
:101AC00080625A645A6C02F080620092009A1A6B2B
:101AD00042F010021A631A6B02F010020192019A8E
:101AE0001A6B42F400721A631A6B02F400720292CB
:101AF000029A1A6B42F480621A631A6B02F48062D3
:101B00000392039A1A6B42F040021A631A6B02F0B6
:101B100040020492049A1A6B42F480721A631B6B9F
:101B200003F480730593059B1023CDE90635CDE9B9
:101B300008440A9604F0D6FB4EF6FF7306A91C482B
:101B40000A96CDE90635CDE9084404F0CBFBF7232E
:101B500006A918480A96CDE90635CDE9084404F0EF
:101B6000C1FB4FF4805306A91348CDE9063509237C
:101B7000CDE908440A9304F0B5FB4FF4464306A9A7
:101B80000E480A96CDE90635CDE9084404F0AAFBD3
:101B900058202246052104F06BF9582004F09AF9E8
:101BA0002CB070BD006801400038024000100240B7
:101BB0000024024000280240001802400020024099
:101BC000142200212DE9F0418AB004460DEB0200F9
:101BD00031F028FF22682C4B9A4251D12B4B022521
:101BE000032409269A6B4FF0040805A9284842F0FF
:101BF000020200279A639A6B02F002020192019A94
:101C00001A6B42F010021A631A6B02F01002029271
:101C1000029A1A6B42F002021A631A6B02F0020275
:101C20000392039A1A6B42F008021A631B6B03F0CB
:101C300008030493049BCDE90585CDE9084604F02B
:101C400051FB402305A91348CDE905350A23CDE909
:101C50000774099304F046FB05A90E480996CDE9DF
:101C60000585CDE9077404F03DFB4FF4605305A9E9
:101C700009480996CDE90535CDE9077404F032FB32
:101C80000AB0BDE8F08100BF001000A0003802409B
:101C90000010024000040240000C0240026808B537
:101CA0000B4B9A4213D10B4A04210B48936B23F040
:101CB0000203936304F0FAFB4421084804F0F6FBA6
:101CC0004FF460510648BDE8084004F0EFBB08BD82
:101CD000001000A000380240001002400004024042
:101CE000000C0240F0B5002387B00393294B1E6817
:101CF000002E4DD10122022703250C241A6001A9D0
:101D0000254B26489A6B42F001029A639B6B03F0C5
:101D100001030093009B4FF68373CDE90454CDE992
:101D2000013704F0DFFA48F2331301A91C48059487
:101D3000CDE90137CDE9036504F0D4FA4CF2037321
:101D400001A918480594CDE90137CDE9036504F0F0
:101D5000C9FA4FF63F0301A913480594CDE90137AD
:101D6000CDE9036504F0BEFA282301A90F480594C4
:101D7000CDE90137CDE9036504F0B4FA082301A9E0
:101D80000B480594CDE90137CDE9036504F0AAFAC3
:101D900007B0F0BDA005002000380240001002404E
:101DA00000180240000C024000140240001C0240D7
:101DB00000080240214B1A6C42F0100270B51A6400
:101DC00088B01B6C054601A903A803F01003029319
:101DD000029B05F051FF069B4BBB05F03DFF184EE3
:101DE000184B336040F2E733F360174BB0FBF3F36B
:101DF000013B3046736000233361B360B36106F08A
:101E000089FB044680B9304606F036FA044658B9D4
:101E1000362004F05FF80F2D0DD8224629463620D3
:101E200004F026F8094B1D60204608B070BD05F08F
:101E300013FF4000D3E70124F6E700BF003802405B
:101E4000A40500200010004040420F004000002088
:101E50007047FEE7FEE7FEE7FEE77047014806F041
:101E60004DBA00BFA4050020014805F067B800BFC7
:101E700040040020014804F064B900BF3C05002084
:101E80000120704708B531F081FE162303604FF042
:101E9000FF3008BD08B531F079FE16230360FEE778
:101EA00070B50D4614460E46731B9C4201DC20465D
:101EB00070BDAFF3008006F8010BF5E770B50D4675
:101EC00014460E46731B9C4201DC204670BD16F87A
:101ED000010BAFF30080F5E74FF0FF3070474FF490
:101EE000005300204B60704701207047002070476E
:101EF0000B4A0346116810B509B90A491160106808
:101F000009490A4C0344091B8B4206D931F03EFEB5
:101F10000C2303604FF0FF3010BD1360FCE700BFDF
:101F2000F0050020886B012000000520000A000059
:101F300070470000DFF834D0002103E00C4B5B5801
:101F4000435004310B480C4B42189A42F6D30B4ACB
:101F500002E0002342F8043B094B9A42F9D303F014
:101F600057FE31F019FEFFF749FA704700000520CF
:101F7000D0A2030800000020280100204003002018
:101F8000846B0120FEE7704708B501F08BF9BDE8CE
:101F9000084001F00FB901F087B94068704741600F
:101FA000704700004FF0E022D2F8FC3D43F0807310
:101FB000C2F8FC3D054B064AD3F8B01F0A43C3F8EC
:101FC000B02F1A6842F001021A607047001000E05A
:101FD00055CEACC5521A02EB5302B2FBF3F0704778
:101FE000014B5868704700BF001000E0704710B503
:101FF00004460C2130F013FB204610BD036810B5D9
:102000001B69044631B19847A26863689B1A034470
:10201000636010BD9847A060FBE70000024B702092
:10202000024A1360DB68184714000020F405002002
:10203000704710B50446042130F0F1FA204610BD77
:1020400073B50E4E0D461446336813B9002002B026
:1020500070BD1B69702098470028F7D03368702046
:1020600001AA0DF106015B699847BDF80430012013
:102070002B60BDF806302360E9E700BFF4050020BF
:102080007FB501238DF817204FF47A72CDE9013224
:102090000DF1170200920A460146054804F056FC6D
:1020A00010B1034804F038FC07B05DF804FB00BF32
:1020B000E80400207FB500230A464FF47A718DF8BA
:1020C00017300123CDE901310DF1170100910146CF
:1020D000054804F015FD10B1034804F01DFC9DF8FF
:1020E000170007B05DF804FBE8040020032823D89C
:1020F000DFE800F0020B131A104B102110481A6889
:10210000B2FA82F2520904F071BA0C4B40215A68BB
:10211000B2FA82F252090B48F5E7084B80219A681F
:10212000B2FA82F25209F6E7044B40210648DA6817
:10213000B2FA82F25209E6E7704700BFF8050020C4
:10214000000402400008024000180240032823D87F
:10215000DFE800F0020B131A104B102110481A6828
:10216000003A18BF012204F041BA0C4B40215A68D2
:10217000003A18BF01220B48F5E7084B80219A6806
:10218000003A18BF0122F6E7044B40210648DA68FE
:10219000003A18BF0122E6E7704700BFF8050020AB
:1021A00000040240000802400018024003280FD833
:1021B000DFE800F00206090B1021064804F01BBA04
:1021C00040210548FAE78021FBE740210348F5E775
:1021D000704700BF0004024000080240001802409F
:1021E00008B5032813D8DFE800F0020A0D0F10210C
:1021F000084804F0F5F9431E5842584108BD4021F3
:102200000548F6E78021FBE740210448F1E700207C
:10221000F1E700BF0004024000080240001802403D
:1022200070B5084D00240126E0B2FFF7D9FF18B1C0
:102230002B68012B18BF2E6001340435052CF3D117
:1022400070BD00BFF8050020012380F8781080F8E9
:10225000793070470020704741640039024B18BF45
:1022600001211970704700BF435E012000207047B4
:10227000836B0BB10846184770474FF6FF707047E5
:10228000406803689B6918477047000038B50446EA
:1022900001F058F9084923682046084DD3F88C30DE
:1022A00098470023284684F84A30FFF77BFE012335
:1022B000256184F8703038BD000000C00806002099
:1022C00001F0E2B801F0E6B870B501F065F9104927
:1022D0000023C1F88430BFF34F8FD1F8803043F62C
:1022E000E074C3F3C900C3F34E335B0103EA040691
:1022F000024646EA8275013AC1F87452F9D2203B8F
:1023000013F1200FF2D1BFF34F8FBFF36F8F70BD6A
:1023100000ED00E001F042B901F092B801F064BABA
:1023200001F06CBA01F096B810B5044616F03EFF05
:1023300023682046D3F8AC30BDE81040184716F0AB
:1023400093B910B504467C2130F069F9204610BDE0
:1023500090F834100D4B10B590F878401A788C42F4
:1023600009D03AB90A490B4A08881488108001221A
:102370000C801A7010BD002AFCD0064A044914884B
:1023800008880C8010800022F3E700BF3C5E01202B
:102390003A5E0120385E012070B50D46194635B908
:1023A000094B40F2D221094A094831F07FF8C0E9CF
:1023B0000F52003A074B18BF01221A700368BDE89C
:1023C0007040D3F88C301847F44903082C4A0308AE
:1023D0007A4A0308425E012008B5094B1B888B42EC
:1023E00003D8084B1B88934205D9074B9E21074A07
:1023F000074831F05BF8074B1980074B1A8008BD7E
:10240000385E01203A5E0120BF4A0308224B0308D0
:102410007A4A03083E5E0120405E0120034690F8A0
:102420007A0018B1586803681B68184770470000A5
:10243000014608B5034B186801B1012116F0D0FE22
:10244000012008BD445E0120034B00225A609A60BF
:10245000024A1A60704700BF08060020BC49030802
:102460000121002208B5084606F056FA0A4B18600A
:1024700028B90A4B28210A4A0A4831F017F80022E5
:102480000421012006F012FB074B186018B9074B16
:102490002C21034AF0E708BD18060020404C030831
:1024A000894C0308B84C030814060020034D0308A8
:1024B000024B4FF0FF31186806F086BA180600206C
:1024C000014B186806F0BCBA18060020024B002128
:1024D000186806F079BA00BF18060020FFF7F0BFB1
:1024E0000023034803491A46006806F025BB00BFD5
:1024F000140600200800002013B50023074C01A992
:102500001A46206806F05AFB4FF0FF33002201A95B
:10251000206806F053FB02B010BD00BF1406002077
:1025200003685B6C18470120704703689B6A184773
:10253000FEE700000E4B82B01A6B42F400021A63F1
:102540001A6B02F400020192019A1A6942F4000225
:102550001A611A6922F400021A61064B064A1A61CE
:10256000064A5A614FF08062054B9A6002B070478C
:10257000003802403C0500200D28000831250008E5
:1025800000E100E040F2EF3070470000054B4FF0F3
:1025900080620360044BC3F88820BFF34F8FBFF302
:1025A0006F8F7047A04E030800E100E010B50446AD
:1025B0004FF45A61FFF7EAFF204630F030F820462A
:1025C00010BD000008B50A2809D8DFE800F00610A1
:1025D0000E080808081010101000022008BD054B56
:1025E0009021054A054830F061FF0020F6E7012000
:1025F000F4E700BF454D0308604D0308AB4D0308E9
:1026000038B50C46887FFFF7DDFF174BA58AE28AB5
:10261000586342EA054221695A64628BD963521BAE
:102620001A642568082D0ED19A611A6158620F4A02
:10263000207F42EA0062DA61E2681A620C4A59615C
:10264000D9601A6038BD0022D8611A61E1680A0AAF
:102650004809C1F3C40102F4784200F4FC6002436B
:102660000A439A63034AECE700B002400900010004
:10267000012302000123030008B50B280BD8DFE873
:1026800000F00612100A0A0A0A08080808080220C0
:1026900008BD0520FCE7054B6F21054A054830F0D1
:1026A00005FF0020F4E70120F2E700BF454D0308D5
:1026B000F44D0308AB4D03082DE9F04191F81D805E
:1026C0000C464046FFF7D8FFA77F05463846FFF780
:1026D000D3FF06463846FFF775FFA18A628B434B4E
:1026E000521A1A649A61228B521A1A61E28A58634A
:1026F00042EA014221695A646268D963DA6020685B
:10270000802828D0227F0FD8202866D0402864D087
:1027100004281AD045EA0265344BB84545F4003523
:10272000DD6160D0324A44E0B0F5807F04D0B0F57E
:10273000007FEFD12F4800E02F4840EA0262DA61C3
:10274000E2681A625E62596132E045EA026242F46E
:102750000032DA61F6E7A068021DDA62227F45EAFC
:10276000026545F40035DD615E625961017841B171
:10277000012921D0214B4FF48D71214A214830F09D
:1027800095FEDA69418822F47F42013922F0100275
:1027900042EA01220121DA61144BDA6942F0200297
:1027A000DA61DA699206FCD410229A600029B9D065
:1027B000154A1A60BDE8F081B2F1FF01DA6940887C
:1027C00022F47F4218BF0121013822F0100242EAB0
:1027D000002242F01002DA61DEE745EA0262034BB2
:1027E00042F40032B5E742F20132E2E700B00240C3
:1027F00001230100090002000A0002003E4E030806
:10280000584E0308AB4D030801230200024B1B681E
:10281000586803685B691847445E012070B5044638
:102820000A4B0C30002625466022606026726672D4
:1028300045F8203B294616F029FE04F55A63EE6060
:1028400024359D42FBD1204670BD00BFA04E030839
:10285000034B1A68D207FCD423229A60704700BF4A
:1028600000B00240094B5A69D2030AD5BFF34F8F1B
:1028700008440029A0EB010204DCBFF34F8FBFF333
:102880006F8F70472039C3F86822F2E700ED00E04F
:1028900030B5104C2568ED07FCD423250904FF2B27
:1028A000A56041F001014FF0020565636164E063DA
:1028B0000AD00949656241EA0363E361074B22627A
:1028C0006061E060236030BDE561039BA363044B5E
:1028D000F8E700BF00B0024009000100010002005B
:1028E0000100030030B50F4C2568ED07FCD423250B
:1028F0001204FF2BA56042F001024FF00205656350
:102900006264E063E16008D01B0643F00213E361F8
:10291000054B65626061236030BD044BE3610123B8
:10292000F9E700BF00B0024001000200020002FF10
:1029300030B50B4C2568ED07FCD4232512041B068B
:10294000A56042F00102022543F40033656362642E
:10295000E063E160E361034B65626061236030BD69
:1029600000B00240010002004069704790F8440046
:102970007047036B23B9C06A003818BF0120704745
:102980000120704780687047043010B50C460FC8AE
:1029900084E80F0010BD704708B5034A40F21221C9
:1029A000024B034830F082FDE84E0308816E0308B5
:1029B000434F030810B5044648212FF030FE20464F
:1029C00010BD00002DE9F0431C46436BADF51F7DA3
:1029D00005460E461746002B37D0002203A8DFF825
:1029E000A890CDE901320EF0BDF94FF4F4725021F8
:1029F000249024A808F06BF93A46314624A809F03F
:102A0000BFF8012124A808F05DFA022324A88DF85C
:102A1000D83008F0F8FABDF898322B9ABDF89C62CD
:102A20009342A89F28BF1346419A964203EB43085E
:102A3000A7EB430728BF1646479B9E4209D824A808
:102A400008F062FA24A808F08FF90DF51F7DBDE8A3
:102A5000F083012201A924A808F01EFB6B6B03EB95
:102A60000800984201D83C44E6E759789A78C900B2
:102A700009EA022201F4FC610A4313F8031B42EA4B
:102A8000D10224F8022BECE700F8FFFF0A4A0260AB
:102A90000022C0E90522C0E90722C0E90922C0E9F5
:102AA0000B22C0E90D12C0E90F2280F84420C0E9D2
:102AB0000322C0E9012270472052030810B40C46DB
:102AC00011461A46036B3BB1036C806BE41A204439
:102AD0005DF8044B30F0AEBFC06AF8E7036B10B589
:102AE00073B1036C826BC91A5318525C98785C7886
:102AF0000004DB7840EA0420104340EA036010BD84
:102B0000C36A5858FBE7036B43B1036CC91A836B64
:102B10005A18585C527840EA02207047C36A585AE3
:102B20007047000070B50446006B0D461646D8B1DC
:102B3000E36B934208D209230D4A65210D4884F8BE
:102B400044300D4B30F0B2FC0368DB689847206BD3
:102B50003246A16B03681B69984710B90D2384F8AE
:102B60004430A06B256470BDE06A0844FBE700BFF9
:102B7000AB4F0308434F0308984F03082DE9F84370
:102B8000436904462BB9234BAA21234A234830F03A
:102B90008DFC08228169FFF7C5FFA16943F2300669
:102BA00046F2643704312046FFF798FFA3691844C2
:102BB000A36A00F108029A4206D301230020636150
:102BC000236AA361BDE8F8836369093008220133F1
:102BD00020F0010120466361A161FFF7A3FFD4F853
:102BE000189020464946FFF78EFF09F10201804602
:102BF0002046FFF788FF09F1040105462046FFF74C
:102C00006DFFB045D2D1BD42D0D10028CED0012039
:102C1000D8E700BFED4F030836500308434F0308C1
:102C20002DE9F04F0446ADF51F7D8A4616468169B1
:102C300008229846FFF776FFA7692046391DFFF75F
:102C40004DFF07F10801024605462046FFF76AFFDF
:102C5000636B074633B93C4B40F2AB113B4A3C48EF
:102C600030F024FC002203A8CDE901320EF07AF8FE
:102C70004FF4F4725021249024A808F028F82A4632
:102C8000394624A808F07CFF012124A808F01AF98D
:102C9000022324A88DF8D83008F0B5F9BAF902500B
:102CA000479BAB4229D3BAF900904FEA4808BAF8DB
:102CB00004702B9B08FB05664F44BAF80250DFF8FE
:102CC00094B03FB29F4228BF1F46BAF8063009EBC6
:102CD000490A1D44419B2DB29D4228BF1D46479B7A
:102CE000AB4210D324A808F00FF924A808F03CF850
:102CF00001200DF51F7DBDE8F08F012201A924A858
:102D000008F0CAF9CCE7012201A924A808F0C4F907
:102D1000626B49465244B94202F1030201D3464470
:102D2000DDE712F8020C12F8013CC0000BEA0323A5
:102D300000F4FC60034312F8030C43EAD00326F8C6
:102D400011300131E7E700BF69500308BF500308A5
:102D5000434F030800F8FFFF0129036838BF012132
:102D6000DB6A70B50D4604469847A84204D2236832
:102D70002046DB6A984705466B1EE669102220460E
:102D800006EB031606F10801FFF7CCFE06F1100171
:102D90002046FFF7A3FE236A043B0344C4E905531E
:102DA00070BD0000002148222DE9F04104468161F8
:102DB00080F84410FFF7B6FEA6690423624A314644
:102DC0002046FFF77BFE40B10323604AF22184F8DE
:102DD00044305F4B5F4830F069FB06F10801042383
:102DE0005D4A2046A161FFF769FE30B10423574ACE
:102DF000FA2184F84430594BECE706F10C01042326
:102E0000574A2046A161FFF759FE074638B105230E
:102E10004E4A40F2011184F84430524BDAE706F191
:102E200010012046FFF75AFE054620B94E4B40F2EE
:102E30000711464ACEE706F1140804234B4A204600
:102E40004146FFF73BFE002849D0062384F8443072
:102E50000423474A06F118012046FFF72FFE0028F9
:102E60003FD0072384F844304544424F0C2220468B
:102E70002946FFF757FE05F1080604233A46204687
:102E80003146FFF71BFE94F84430002848D0002B51
:102E900048D1A36AAB4249D805F10C03043520465A
:102EA000A3612946FFF71AFE304429466062204696
:102EB000FFF714FE0644042220463146FFF732FE97
:102EC00004232D4A31462046FFF7F8FD002838D16B
:102ED0000123E6616361A3692362BDE8F0810127F4
:102EE000B6E7002FC0D006F120012046FFF7F6FD1F
:102EF0004FF47A7306F13001B0FBF3F060602046C6
:102F0000FFF7ECFD06F14001A0602046FFF7E6FD6B
:102F100006F14401E0602046FFF7E0FD2061A3E7F1
:102F2000002BB9D00A2384F84430D6E7291D204667
:102F3000FFF7D4FD85190C2220462946FFF7F2FD44
:102F400099E70B23EFE700BF195103083751030836
:102F50001E510308434F03086451030869510308D5
:102F600081510308865103089C510308A8510308A6
:102F7000AD510308B2510308B7510308C0E90A2153
:102F800000220263FFF70EBF10B500230446084677
:102F9000E3620B6821639B689847A0622046BDE806
:102FA0001040FFF7FFBEF0B4069FBDF81050BDF80B
:102FB000146032B12BB10495CDE90567F0BCFFF781
:102FC00001BDF0BC704700002DE9F04F9946436900
:102FD00085B004460F4690462BB9294B7721294AE4
:102FE000294830F063FA08228169FFF79BFDA66942
:102FF00020463146FFF787FDB11C83462046FFF788
:1030000082FD311D82462046FFF768FD06F108016A
:10301000A36A054642189A4226D243F230039B45E2
:1030200017D146F264339A4513D190B10246A1619B
:103030002046FFF777FD0E9B01462A462046CDF835
:103040000080CDE901933B46FFF7ADFF6369013393
:103050006361A3692B4405B908330133626A23F025
:1030600001039342A36109D1012301206361236A13
:10307000A36180F0010005B0BDE8F08F0020F8E703
:10308000ED4F0308BC510308434F0308012070476C
:103090000C2070470C2303FB0100083070470C2301
:1030A00003FB0100083070470120704740F6E8102C
:1030B000704740F6E81303FB01000830704740F604
:1030C000E81303FB0100083070470120704710200F
:1030D000704700EB01100830704700EB011008301A
:1030E0007047084600F03ABF034B10B50446036032
:1030F00014F042FE204610BDC852030810B5044625
:10310000FFF7F2FF142120462FF089FA204610BD68
:10311000034B10B50446036014F02EFE204610BD8C
:103120009452030810B50446FFF7F2FF4FF41F61F5
:1031300020462FF074FA204610BD0000034B10B556
:103140000446036014F018FE204610BD60520308C8
:1031500010B50446FFF7F2FF182120462FF05FFA62
:10316000204610BD084B10B50446036000F61C2035
:10317000FFF7BAFF04F12C00FFF7CAFF04F11400B7
:10318000FFF7DCFF204610BDFC52030808B50248DB
:10319000FFF7E8FF08BD00BFEC14002010B504469F
:1031A000FFF7E0FF4FF4396120462FF038FA204650
:1031B00010BD00002DE9F34100F046FD0024054656
:1031C00000F046FD234601462246284600941EF0A4
:1031D000E3FD274B274A2046274D1A6002F088F866
:1031E000264B274A27489A601EF03EFD2B68BFF306
:1031F0005B8FDB0735D428462FF013FA88B3224CB7
:10320000224B04F6342604F1140004F12C0804F6D1
:103210001C2723606060C4F80880E760266114F012
:10322000ADFD1B4B4046636114F0A8FD194B3846B9
:10323000E36214F0A3FD184B04F52360C4F81C3AB4
:1032400002F0E6F8224604F52361304602F0D6F893
:10325000304600F083FE114830F046F928462FF042
:10326000ECF90F4802B0BDE8F041FFF70FB800BF1E
:10327000A85E012098060020E8140020B80600206F
:103280009C0600200C000020EC140020FC520308D7
:103290006052030894520308C85203088D31000895
:1032A0001C06002070470000014815F046BA00BF18
:1032B0001C06002070B5244E244B254C3046254D6D
:1032C0002360FFF7ABFA284623F078FE22481CF073
:1032D00041F8224B00224FF4807121481A8683F86E
:1032E00058205A6683F870205A67DC60C3E91212CE
:1032F0001C49C3E91A121C4999671C490B604FF419
:10330000F07101801A4801804FF488711948C3E9AF
:103310000422C3E90622C3E90822C3E90A22C3E959
:103320000E22C3E91022C3E91422C3E91722C3E91C
:1033300001650180104883F8342001800F490A702C
:103340000F4A1A6070BD00BF44070020E44903081B
:10335000E4140020B80600209C0600201C06002073
:10336000385E01200100000100000101445E0120DF
:103370003E5E01203A5E0120405E01203C5E01205D
:10338000704B03080148FFF701B900BF4407002054
:103390000020704781807047C1807047018170476D
:1033A000418170477047704770477047704710B44D
:1033B000C4880368121B84885B6D091B12B25DF818
:1033C000044B09B218474FF6FF7383814FF0FF3368
:1033D00003621368C36110607047002070478B88D8
:1033E000838001207047704780F82610704790F85E
:1033F00026007047002210B5B1F90840B1F90A1053
:10340000028042808480C18010BD00220280428000
:103410008280C28070470177704780ED080A70474C
:1034200080F82410704780F82510704701207047FD
:10343000983070478C307047843070477047000078
:10344000034B902283F85A2383F85823704700BF18
:1034500000E100E0094A0A49D3680A48C3F30A03B5
:10346000013B9BB20B801169C1F30A010139018054
:103470001364536B43F001035363704700680140CA
:103480007E2000207C200020014BD3F8AC00704748
:1034900000680140024B0122C3F8AC105A62704729
:1034A00000680140124A5369DB0370B51ED5002342
:1034B000C2F88430BFF34F8FD2F8803043F6E07407
:1034C000C3F3C900C3F34E335B0103EA04060146AC
:1034D00046EA81750139C2F87452F9D2203B13F1E2
:1034E000200FF2D1BFF34F8FBFF36F8F70BD00BFBE
:1034F00000ED00E07047704770473823002201FB61
:103500000333C25490F838300BB9036C83647047AE
:10351000704780F84C10704710B5044658212FF0C2
:103520007EF8204610BD10B504462C212FF077F808
:10353000204610BD10B50446BC212FF070F820467F
:1035400010BD000038B5044615F0E3F823685D6E41
:103550001AF088FD01462046A8472368084A2046FD
:10356000D3F888500023A2F57F31A847054B064ABF
:103570005A60064A1A649A644FF4FF225A6438BDAE
:1035800000F807C0402100209821002000F40BC063
:1035900015F0A6B815F0B0B815F06CB815F0DBB999
:1035A00090F8252012B103685B6918477047000046
:1035B00008B531B1044B40F29711044A04482FF08A
:1035C00075FF90F8390008BD085303081C53030821
:1035D000A954030810B531B1064B40F29111064AC7
:1035E00006482FF063FF406811460368BDE81040AD
:1035F0001B6B184708530308EB540308A95403082E
:1036000008B529B1034B7A21034A04482FF04EFF35
:10361000006908BD085303089C560308A954030811
:1036200008B529B1054B8321054A06482FF03EFF16
:1036300041618160C0E9063208BD00BF085303083C
:1036400054580308A954030810B5044629B1274B60
:10365000A421274A27482FF029FF052A34D8DFE87C
:1036600002F003292F34393E406803681B699847EC
:1036700050B34FF0FF31606D05F0F2F800230122E6
:1036800094F83E1084F83B3084F83920A3606361DD
:1036900001B1226284F83E306362E36A2BB90123F0
:1036A000206D84F83A3005F0CBF9606DBDE810402C
:1036B00005F006B9002380F8393084F83E3003E085
:1036C000036200238360436110BD036200238360B3
:1036D0004361F2E7002380F839300123EDE7003B36
:1036E00018BF012380F83D30EEE700BF0853030800
:1036F000135A0308A954030890F825201AB190F82A
:10370000242002B11860704770B50446164629B1EE
:10371000314BE721314A32482FF0C8FE90F839305A
:1037200033B1304B1B6893F86B20436913444361FA
:10373000E36A002B4DD0E169D4E905325343A26816
:103740004A43934220D2236A002B42D04FF0FF31EC
:10375000606D05F085F8236A0BB10023E362E36A2C
:10376000FBB90125606D05F0ABF894F839300BB961
:10377000236A3BB1E36A2BB90123206D84F83A3008
:1037800005F05EF9284670BD94F84C000028DDD0A5
:103790009B1AB3FBF1F2994298BF02F1FF326262C9
:1037A000D4E7002294F83C50A3623046E262E2681B
:1037B0002261A2680132A260336333685B69984773
:1037C000002DCED194F83D30002BCBD184F8395068
:1037D000C8E70125C9E700BF08530308EA5B0308EF
:1037E000A9540308445E0120034B4FF080629A60A5
:1037F0004FF080729A60704700E100E0084B4FF094
:103800008062C3F88820BFF34F8FBFF36F8F4FF0F4
:103810008072C3F88820BFF34F8FBFF36F8F70475C
:1038200000E100E038B5034690F8380038BB0122CB
:103830009860D8609A634FF4807258619A874FF409
:10384000F0729861D861186258629862D862186301
:10385000586383F83E00CA864FF4887281F83400BA
:103860000A8708639A6C186102F5FF24D3E91015E2
:1038700029448C420AD9084B5821084A03E0084BD6
:1038800040F2F511074A08482FF010FE1A6302F5BE
:103890007F329C645A6338BD485F0308885F030821
:1038A0008E5D0308BE5D0308A9540308002370B5AC
:1038B000124E05468380124B0360336893F85820FC
:1038C0000AB1D86C00B998680368DB6A9847336816
:1038D000B0FA80F4D86C640930B10368DB6A9847A9
:1038E000002808BF44F001042CB9064B2C21064ADD
:1038F00006482FF0DBFD284670BD00BF445E012066
:10390000306203082E6103088C610308C561030857
:1039100070B5244E3568BFF35B8F15F001053FD1BC
:1039200030462EF07EFE00283AD01F4C1F4B04F18B
:1039300034002561E584A562A585C4E90035C4E9A4
:1039400002551BF066FF04F1580017F09FF9184B61
:103950002046A365174B40F8843BFFF7A7FF164BA3
:103960001648C4F884302433C4F89050C4F88C301E
:103970006423C4F89C50C4F8A850C4E92835002337
:10398000C4F8AC30C4F8B030C4F8B430C4F8B830BF
:103990000B4BC4F898302FF0A7FD30462EF04DFEAB
:1039A000014870BD8020002084200020E09303089F
:1039B00050620308C8620308949303083D3400086A
:1039C0007493030810B5144C236823B3134B144AA3
:1039D0001B6C11888B4213D1124B198803F038FBF2
:1039E000226892F86A30013382F86A30FEF778FD77
:1039F000206815F0DBFB0020BDE81040FEF776BB29
:103A000003F026FB206803681B6A98470020BDE886
:103A10001040FEF79BBB10BD445E012000680140D2
:103A20007E2000207C2000202DE9F74304464FF43F
:103A3000707894F83A304FF0FF31002B31D0606D40
:103A400004F00EFF276BA36ABB4200D1676B266AA6
:103A5000656856B32B68314628465B6A9847002351
:103A6000236284F83B30606D04F02AFF2B684FF42A
:103A7000F0723946CDF8008028465E694FF48873AD
:103A8000B0474FF0FF310646606D04F0E9FE94F850
:103A90003B30E3B1002384F83B30606D04F010FF4D
:103AA000C7E7206D04F090FFC3E7636A002BDAD00C
:103AB0002B682846D3E909939847616A0144284650
:103AC000C847A368626A66621344A360CBE7E762F3
:103AD0005EB12B6828469B6A984701380023E06056
:103AE00084F83C6084F83A30D7E70120F6E700001C
:103AF000014808B5FFF798FF402100200368042221
:103B000070B504465E6A00230D46B0474FF0FF31A2
:103B1000606D04F0A5FE382303FB0542D16A09B1AC
:103B20000021D16203FB0545012385F83B300023CA
:103B300085F83930606DBDE8704004F0C1BE38B51D
:103B400000EB810304460D46114658680368DB68A4
:103B5000984729462046FFF7D1FF38BD70B50D467E
:103B60001146044600EB85025068026896681A46C2
:103B7000B04729462046FFF7C1FF70BD38B516494A
:103B800000251648FEF782FF154C164B01202A46E9
:103B9000294623604FF48073A564A38784F84C0002
:103BA00084F83E50C4E91055C4E91455C4E90155E0
:103BB000C4E90355C4E90555C4E90755C4E90955E5
:103BC000C4E90B55C4E90D5504F0A6FE206528464E
:103BD00004F004FE606538BDE0210020982100203B
:103BE0004021002014630308704708B5062921D836
:103BF000DFE801F004080C1014181C0001F0C4FBED
:103C0000006808BD01F0C0FB4068FAE701F0BCFBAA
:103C10008068F6E701F0B8FBC068F2E701F0B4FB9A
:103C20000069EEE701F0B0FB4069EAE701F0ACFBA8
:103C30008069E6E70020E4E710B5044604212EF091
:103C4000EEFC204610BD000000487047606303088A
:103C50000420704713B5002451B1036801AA0194F0
:103C60008DF803409C680DF10303A04702B010BD1E
:103C70000846FBE7C0897047008A7047C0887047D4
:103C800080887047807A00F07F007047807AC00992
:103C900070470020704700009FED010A704700BF89
:103CA00000000000704710B5044608212EF0B7FC54
:103CB000204610BD7047704700F598730868496842
:103CC00003C37047704770474160704770470000FA
:103CD000064BC0F84801C0F84C310023C0F8503101
:103CE00000F5A273C0F84031704700BF913D000855
:103CF0000123037270477047704710B44168034650
:103D0000C2689B68541001EB6200D20748BF0A5991
:103D10005DF8044B48BFD35818470346406830B19C
:103D20009A681AB9D86800F00100704701207047FE
:103D300010B504460C212EF072FC204610BD10B5C3
:103D4000044610212EF06BFC204610BD10B5044631
:103D50004FF4AE712EF063FC204610BD10B51AF082
:103D600081F90368BDE81040DB6B184710B50446C5
:103D7000D0F8400158B10368DB68984738B1D4F8EF
:103D8000400103689B6898470023C4F8403110BD88
:103D90002DE9F14FD0E9556A0746B06803681B6A00
:103DA000984740F6E713984205D8444BA321444A6C
:103DB00044482FF07BFB706803681B6A98470F2804
:103DC00003D8414BA4213E4AF2E7F06803681B6A1E
:103DD00098470B2803D83D4BA521394AE8E7DFF87F
:103DE000F4901AF03FF904301AF07AF9D9F800008B
:103DF00010B10368DB689847D9F8000010B1036878
:103E00001B689847DFF8D080D8F8000010B103682D
:103E10005B699847D7F83C0110B103685B68984725
:103E2000D8F8000010B103681B689847D7F83C0128
:103E300010B103689B689847F06800214FF0000BB1
:103E400003685B6A9847224B0446C0F804B080F8C8
:103E500008B059460360B06803685B6A9847054636
:103E600001F032FB7068594603685B6A9847064662
:103E7000294601F007FB331DC7F83C612846C9F805
:103E80000040C8F80050CAF800302B68C6F808A0F7
:103E9000DB68EE639847336830461B6898472146D5
:103EA00028461CF0C7F9236820461B6998472368F9
:103EB00020465B6901B0BDE8F04F1847C0630308B6
:103EC0004E64030820650308676503080A66030853
:103ED000246703088C5E0120885E0120044B1B6868
:103EE00093F858200AB1D86C00B99868704700BFA1
:103EF000445E0120F8B5174604460E461AF0C2F992
:103F0000124B00251C602946114B2360114BC4E95C
:103F10005135114B1868C4E953550368C4E94F552E
:103F20009B68C4E955769847284601F0E1F9FFF708
:103F3000D5FF24F096FEFFF7D1FF24F00DFFFFF729
:103F4000CDFF24F015FF2046F8BD00BF985E01208C
:103F5000D0660308B8660308445E0120064BC0F82B
:103F60004801C0F84C310023C0F8503100F5A2736D
:103F7000C0F84031704700BF913D0008406A70476B
:103F8000806A704770478B88C069DB0A0A6850F8FE
:103F900023001044704710B50446BAB1107B68B1D5
:103FA000537BD27A1B0203F4E0631A43236A03EBC8
:103FB00082031A888A4202D193F9020010BD05D803
:103FC0000138043380B20028F3D1F7E70020F5E789
:103FD00010B504462C212EF022FB204610BD000017
:103FE00030B58BB00446BDF860500895BDF85C5004
:103FF00007959DF8505006959DF84C5005959DF8F5
:10400000485004959DF8445003959DF84050029502
:104010009DF83C500195BDF8385000951BF0B6FC5A
:10402000064B20462360159BE361169B2362199B78
:1040300063621A9BA3620BB030BD00BF48670308E0
:104040007047704770477047704730B585B0036858
:10405000044601816D460146D3F884303C3428463D
:10406000984795E8070084E8070005B030BD30B5F3
:1040700085B00368044641816D460146D3F884301B
:104080003C342846984795E8070084E8070005B0C7
:1040900030BD0022028042808280C280704780F85A
:1040A00036107047036870B504461B6B1546984779
:1040B0002368204629465B6EBDE870401847002003
:1040C0007047806C704770477047704710B5044662
:1040D0004C212EF0A4FA204610BD10B5044640F63F
:1040E000E8112EF09CFA204610BD08B5FFF758FAEB
:1040F00008BD0000036870B55E6B0446114B8DB2BD
:104100001B682BB9104B6C21104A11482FF0CEF9C7
:104110001049828D0988914203D80F4B6D210B4ABB
:10412000F3E713F812200D4B1B6853F822000368C5
:104130001B6B9847291A3346204609B2BDE87040E8
:10414000184700BF9C5E0120A8670308EA670308C0
:1041500025680308A05E01206C680308A45E0120A6
:10416000036870B504461B6B1546984723682046C4
:1041700029465B6BBDE87040184770B504461D4684
:10418000BDF91060FFF7ECFF2368294620469B6BC2
:104190009847236831462046DB6BBDE870401847DE
:1041A0000022C0E90122C0E90322C0E90522C0E9DA
:1041B00007224FF480728284014A0260704700BF78
:1041C0000069030838B504460D46262200212FF069
:1041D00029FC2046FFF7E4FF064B204629462360D2
:1041E0002B88E384FF2384F8283017F036FB204621
:1041F00038BD00BF8496030800224FF0FF31826073
:10420000C0E90021704710B50446FFF7F5FF2046CE
:1042100010BD000010B50446002126222FF002FC3C
:104220002046FFF7BDFF094B4FF47F0204F13C002D
:104230002360074BA3624FF6FF73A3850023C4E9F5
:104240000C322387FFF7D8FF204610BDA494030843
:10425000B863030810B50446FFF7DCFF024B2046A5
:1042600023600023A36410BD686903082DE9F04FA3
:104270000446A5B000271BF031FEA046984B26222D
:104280003946E76304F16C0648F8403B40462FF09E
:10429000C9FB4046FFF784FF924B04F50379304693
:1042A0002364FF23A7664FF6FF7584F866304FF44A
:1042B000887A17F021F94846FFF7CCFF04F516730A
:1042C00004F65C1B18460393FFF7C4FF04F529733B
:1042D00018460493FFF7BEFF04F53C73184610938D
:1042E000FFF798FF04F54E7318460593FFF7B2FFEA
:1042F00004F5617318460693FFF7ACFF04F5747379
:1043000018461193FFF7A6FF04F21C4318461293B8
:10431000FFF7A0FF04F58D6318461393FFF79AFF8C
:1043200004F2B44318461493FFF794FF04F5A06316
:1043300018461593FFF78EFF04F24C531846169358
:10434000FFF788FF04F5B36318461793FFF782FF62
:1043500004F2E45318460793FFF75CFF04F22C6362
:1043600018460893FFF756FF04F274631846099342
:10437000FFF750FF04F2BC6318460A93FFF74AFFA9
:1043800004F2047318460B93FFF744FF04F24C73D6
:1043900018460C93FFF73EFF04F2947318461893E7
:1043A000FFF758FF04F5FC6318461993FFF752FF17
:1043B00004F62C0318460D93FFF72CFF04F6740344
:1043C00018460E93FFF726FF04F6BC0318460F931A
:1043D000FFF720FF04F6041321A9ADF88450184616
:1043E0001A93FFF7EFFE04F5136321A9ADF884508B
:1043F00018461B93FFF7E6FE3A4640464FF4F0732B
:104400003946CDF800A0FFF7B8FE251D4FF07F43D9
:10441000414628464FF0FF38A36613F091FE304620
:1044200021A9ADF8847013F01DFE4FF4F0733046EF
:104430003A463946CDF800A0FFF79FFE3046882265
:10444000F02117F004F9304664226FF0B30117F041
:1044500083F93B4642F2283230463946009713F042
:10446000AEFC30463946DFF894A017F01FF98623DA
:1044700008223046022117F0D5F83046012117F006
:1044800073F83046012117F072F8314628461CAE09
:1044900013F056FEB022FD214846FFF761FED4F826
:1044A0000C3249463046D3F88430C4F83C82A4F834
:1044B0004072984704F5127396E8070083E80700F6
:1044C000DAF800302BB9084B6021084A08482EF072
:1044D000EDFF084B1B889BB9074B6121034AF5E7A9
:1044E000F869030834950308A8670308AA68030855
:1044F00025680308A05E01206C6803089C5E01200B
:10450000D24B3946186800F02FFFD14A03460521E7
:1045100058461DF0A1F94846C4F854B216F02EFFD3
:10452000DFF834B32523484621A9CDF884B0ADF88F
:10453000883016F043FF4946284613F001FEB022AA
:104540004FF48F710398FFF70BFED4F8583203999C
:104550003046D3F8843004F66619C4F88882A4F88B
:104560008C72984704F5257396E8070083E80700E6
:10457000DAF80030002BA6D0B64A1388012BABD94D
:10458000B24B0121186800F0EFFEB14A0346052145
:1045900048461DF061F90398C4F8A09204F5176924
:1045A00016F0ECFE242321A90398ADF88830CDF84D
:1045B00084B016F003FF0399284613F0C1FDDF22F3
:1045C000FC210498FFF7CCFDD4F8A43204993046BE
:1045D000D3F88430C4F8D482A4F8D872984704F58C
:1045E000387396E8070083E80700DAF80030002BFC
:1045F0003FF469AF974A1388022B7FF66DAF934B58
:104600000221186800F0B0FE914A03460521484691
:104610001DF022F90498C4F8EC9204F67A1916F009
:10462000ADFE232321A90498ADF88830CDF884B0DD
:1046300016F0C4FE0499284613F082FDE02240F2F1
:104640002D111098FFF78CFD10993046C4F8208387
:10465000A4F8247316F018FC04F54B7396E80700D1
:1046600083E80700222321A91098ADF88830CDF8FF
:1046700084B016F0A3FE1099284613F061FD0822BD
:1046800018210598FFF76CFDD4F8383305993046AA
:10469000D3F88430C4F86883A4F86C73984704F5A1
:1046A0005D7396E8070083E80700DAF80030002B16
:1046B0003FF409AF674A1388072B7FF60DAF634BB2
:1046C0000721186800F050FE614A0346052148465C
:1046D0001DF0C2F80598C4F8809316F04FFE212310
:1046E00021A90598ADF88830CDF884B016F066FEA3
:1046F0000599284613F024FD862212210698FFF71B
:104700002FFDD4F8843330460699D3F88430C4F8AA
:10471000B483A4F8B873984704F5707396E807005B
:1047200083E80700DAF8003004F68416002B3FF423
:10473000CAAE484A1388052B7FF6CEAE434B0521FF
:104740004FF0FF3A4FF00009186800F00DFE404AA4
:10475000034605213046DFF804811DF07DF80698F8
:10476000C4F8CC6321AE16F009FE19233146069831
:10477000ADF88830CDF884B016F020FE06992846B2
:1047800013F0DEFC472213211198FFF7E9FC3046B5
:10479000C4F800A404F68E1BA4F80494FFF72CFDC3
:1047A00004F20C4396E8070083E80700D8F80030CD
:1047B000002B3FF488AE274F3B88062B7FF68CAE4C
:1047C000224B0621186800F0CFFD214A034605213F
:1047D00058461DF041F81198C4F818B404F6981B17
:1047E00016F0CCFD1C491E23119821913146ADF8DD
:1047F000883016F0E3FD1199284613F0A1FCE5225C
:1048000042211298FFF7ACFC3046C4F84CA4A4F83F
:104810005094FFF7F1FC04F58B6396E8070083E8FA
:104820000700D8F80030002B3FF44DAE3B88032B37
:104830007FF652AE054B0321186800F095FD044A3F
:104840000346052158461DF007F809E0A85E01203F
:1048500090860308A05E0120B86303089C5E0120D7
:104860001298C4F864B404F6A21B16F087FDD74969
:104870001123129821913146ADF8883016F09EFD33
:104880001299284613F05CFCC72242211398FFF7C7
:1048900067FC3046C4F898A4A4F89C94FFF7ACFCDD
:1048A00004F2A44396E8070083E80700D8F8003034
:1048B000002B3FF408AE3B88042B7FF60DAEC44BB3
:1048C0000421186800F050FDC24A034605215846ED
:1048D0001CF0C2FF1398C4F8B0B416F04FFDBB49EA
:1048E0001023139821913146ADF8883016F066FDFB
:1048F0001399284613F024FC082240F2A3111498BF
:10490000FFF72EFCC4F8E4A43046A4F8E894FFF7BF
:1049100073FC04F59E6304F6AC1A96E8070083E87E
:104920000700D8F80030002B3FF4CDAD3B880D2BAD
:104930007FF6D2ADA64B0D21186800F015FDA54AF3
:104940000346052150461CF087FF1498C4F8FCA4C8
:1049500016F014FD9D491823149821913146ADF8A5
:10496000883016F02BFD1499284613F0E9FB8622B7
:104970004FF4CC711598FFF7F3FB6FF0FF0330464F
:10498000A4F83495C4F83035FFF736FC04F23C53F4
:1049900096E8070083E80700D8F8003004F6B6165A
:1049A000002B3FF490AD3B88092B7FF695AD884BEB
:1049B000092121AFDFF81482186800F0D5FC854A80
:1049C000034605213046DFF814B21CF045FF159868
:1049D000C4F8486504F51C6616F0D0FC1C23394663
:1049E0001598ADF88830CDF8848016F0E7FC15995D
:1049F000284613F0A5FB472240F2A3111698FFF7B3
:104A0000AFFB6FF0FF033846A4F88095C4F87C35FF
:104A1000FFF7F2FB04F5B16397E8070083E80700AE
:104A2000DBF80030002B3FF44EAD6B4A13880B2BA4
:104A30007FF652AD664B0B214FF0FF3A186800F03D
:104A400093FC644A0346052130461CF005FF169886
:104A5000C4F8946504F6CA1616F090FC172339467C
:104A60001698ADF88830CDF8848016F0A7FC16991A
:104A7000284613F065FBC72240F289111798FFF70B
:104A80006FFB3846C4F8C8A5A4F8CC95FFF7B4FB73
:104A900004F2D45397E8070083E80700DBF80030FE
:104AA000002B3FF410AD4C4A1388082B7FF614AD51
:104AB000474B0821186800F057FC464A0346052179
:104AC00030461CF0C9FE1798C4F8E0651CAE16F01D
:104AD00055FC1B2339461798ADF88830CDF88480F3
:104AE00016F06CFC1799284613F02AFB372209218F
:104AF0000798FFF735FB07993046C4F814A6A4F8C9
:104B0000189616F0C1F9079901F13C0396E80700E1
:104B100083E80700202339460798ADF88830CDF8A0
:104B2000848016F04BFC0799284613F009FBB3224A
:104B300009210898FFF714FB08993046C4F85CA6D1
:104B4000A4F8609616F0A0F9089901F13C0396E8E4
:104B5000070083E80700162339460898ADF8883027
:104B6000CDF8848016F02AFC0899284613F0E8FA5C
:104B7000F72209210998FFF7F3FA09993046C4F89A
:104B8000A4A6A4F8A89616F07FF9099901F13C03B0
:104B900096E8070083E80700132339460998ADF823
:104BA0008830CDF8848016F009FC0999284613F066
:104BB000C7FADB2209210A98FFF7D2FA0A99304690
:104BC000C4F8ECA6A4F8F0960AE000BFB8630308A6
:104BD000A85E012090860308A05E01209C5E012053
:104BE00016F052F90A9901F13C0396E8070083E8B0
:104BF0000700122339460A98ADF88830CDF8848032
:104C000016F0DCFB0A99284613F09AFA752209215E
:104C10000B98FFF7A5FA0B993046C4F834A7A4F80F
:104C2000389716F031F90B9901F13C0396E807002B
:104C300083E807001F2339460B98ADF88830CDF87C
:104C4000848016F0BBFB0B99284613F079FA3722C3
:104C50004FF4B9710C98FFF783FA0C993046C4F8F9
:104C60007CA7A4F8809716F00FF90C9901F13C038A
:104C700096E8070083E80700152339460C98ADF83D
:104C80008830CDF8848016F099FB0C99284613F0F3
:104C900057FA232240F28B111898FFF761FA384631
:104CA000C4F8C4A7A4F8C897FFF7A6FA04F5FA63F6
:104CB00097E8070083E8070004F6D411DBF800301A
:104CC0000391002B3FF4FFAB744A13880C2B7FF643
:104CD00003AC734B0C21186800F046FB714A034685
:104CE000052103981CF0B8FD03991898C4F8DC1747
:104CF00016F044FB0F2339461898ADF88830CDF8EC
:104D0000848016F05BFB1899284613F019FA62228A
:104D100040F28B111998FFF723FA3846C4F810A80F
:104D2000A4F81498FFF768FA04F61C0397E8070044
:104D300083E8070004F6DE11DBF800300391002B56
:104D40003FF4C1AB554A13880A2B7FF6C5AB544BD1
:104D50000A21186800F008FB524A0346052103980F
:104D60001CF07AFD039B1998C4F8283816F006FB4E
:104D70000E2339461998ADF88830CDF8848016F0A6
:104D80001DFB1999284613F0DBF9B3220D9840F268
:104D90007711FFF7E5F90D993046C4F85CA8A4F83F
:104DA000609816F071F80D9B96E807003C33CDF83B
:104DB000848083E807001D2339460D98ADF88830BC
:104DC00016F0FCFA0D99284613F0BAF975220E98E0
:104DD00040F28111FFF7C4F90E993046C4F8A4A837
:104DE000A4F8A89816F050F80E9B96E807003C33FC
:104DF000CDF8848083E80700142339460E98ADF877
:104E0000883016F0DBFA0E99284613F099F9F8224B
:104E10000F984FF4B871FFF7A3F90F993046C4F813
:104E2000ECA8A4F8F09816F02FF80F9B96E807006E
:104E30003C33CDF8848083E807001A2339460F9865
:104E4000ADF8883016F0BAFA0F99284613F078F9C1
:104E50003C221A98D821FFF783F9032339461A9880
:104E6000ADF8843016F0F9FC1A99284613F068F969
:104E70006C221B984FF48671FFF772F901233946B3
:104E80001B98ADF8843016F0E8FC28461B9913F007
:104E900057F9204625B0BDE8F08F00BFA05E012085
:104EA000A85E0120908603087047000030B5164DBB
:104EB0008FB02C68BFF35B8F14F0010421D128461A
:104EC0002DF0AFFBE8B13F23012210490993104BAD
:104ED00010480893104B0A940594CDE90643042327
:104EE000CDE9033212230D220093CDE90B44CDE925
:104EF0000144FFF775F809482EF0F6FA28462DF020
:104F00009CFB04480FB030BD602900209C840890B1
:104F100068A203086429002084A20308A94E00089F
:104F20007047000030B5164D8FB02C68BFF35B8F13
:104F300014F0010421D128462DF073FBE8B13F2382
:104F4000012210490993104B10480893104B0A9402
:104F50000594CDE906430423CDE903321E230B2239
:104F60000093CDE90B44CDE90144FFF739F8094836
:104F70002EF0BAFA28462DF060FB04480FB030BD81
:104F800090290020548508906CA2030894290020E1
:104F900088A20308214F00087047000030B5164D65
:104FA0008FB02C68BFF35B8F14F0010421D1284629
:104FB0002DF037FBE8B13F23012210490993104B34
:104FC00010480893104B0A940594CDE90643042336
:104FD000CDE9033224230B220093CDE90B44CDE924
:104FE0000144FEF7FDFF09482EF07EFA28462DF019
:104FF00024FB04480FB030BDC0290020F085089084
:1050000070A20308C42900208CA20308994F00084D
:105010007047000030B5164D8FB02C68BFF35B8F22
:1050200014F0010421D128462DF0FBFAE8B13F230A
:105030000D2210490993104B10480893104B0A9405
:105040000793012301940493CDE905430423CDE99B
:1050500002432623CDE90B440093FEF7C1FF094824
:105060002EF042FA28462DF0E8FA04480FB030BD81
:10507000F02900208C86089074A20308F4290020EF
:1050800090A20308115000087047000030B5174D7A
:105090008FB02C68BFF35B8F14F0010422D1284637
:1050A0002DF0BFFAF0B13F23012211490993114BB2
:1050B00011480893114B0A940594CDE90643042343
:1050C000CDE903322C230D2200932D23CDE90B448F
:1050D000CDE90144FEF784FF09482EF005FA284681
:1050E0002DF0ABFA04480FB030BD00BF202A0020DD
:1050F0004487089078A20308242A002094A2030879
:10510000895000087047000030B5174D8FB02C68EB
:10511000BFF35B8F14F0010422D128462DF081FAF1
:10512000F0B1124B0122124912480A940594CDE9BC
:105130000B433F230993104B0893104BCDE90643D3
:105140000423CDE903320A2309220093CDE9014467
:10515000FEF746FF0A482EF0C7F928462DF06DFAF3
:1051600004480FB030BD00BF502A0020246A030855
:10517000FC870890542A00207CA2030898A2030808
:10518000055100087047000030B5174D8FB02C68EE
:10519000BFF35B8F14F0010423D128462DF041FAB0
:1051A000F8B1124B1A22124912480A940194CDE91F
:1051B0000B433F230993104B0893104B0793012394
:1051C000CDE9054304930423CDE902430C23009366
:1051D0000E23FEF705FF0A482EF086F928462DF02B
:1051E0002CFA04480FB030BD802A0020246A03083E
:1051F0007C880890842A002080A203089CA20308CF
:105200008551000800207047002070470EB403B598
:1052100003AB002153F8042B019319F0BBFE02B03D
:105220005DF804EB03B070470CB407B504AB53F85A
:10523000042B019319F0AEFE03B05DF804EB02B04D
:1052400070470000436C10B5044673B3038F2BB94D
:10525000184BC521184A19482EF028F9C38E00EBC7
:1052600043035B8C0BB31BF043FD238F012B03D84F
:10527000134BCB21134AEEE7E28E40F63F10531C4E
:105280009BB2092B194688BFA3F10A0104EB410127
:10529000498C814209D10A2B04EB420228BF00232A
:1052A000508C04EB4303588451842046BDE81040E1
:1052B0001BF020BC7A6E0308836E03082E6F030870
:1052C000786F0308866F03081BF0DDBB10B586B04E
:1052D00002AC84E806001A460AAB21460593019306
:1052E000099B0093089B18F03FFA06B010BD000020
:1052F00038B518BB124B13481C681349B4B1226867
:1053000022440260626822440A60A26814440F4B7F
:1053100000221A8000F038F8054600F033F80C4BF4
:105320001C600C4B1D600C4B188007E00B4B03609E
:105330000B4B0B600B4B1C68002CE8D138BD00BF39
:10534000BC2A0020B42A0020B02A0020B82A00205D
:105350009C5E0120A45E0120A05E0120808A08904E
:10536000E8890890548B0890044B1B6853F821007F
:10537000034B1B6803EB4000704700BFB02A0020BE
:10538000B42A00202620704700487047C02A002019
:1053900010B50B4CFFF73EFE2060FFF7FFFD60608D
:1053A000FFF774FEA060FFF7EFFEE060FFF7ACFED2
:1053B0002061FFF7B7FD6061FFF778FDA06110BDC8
:1053C000C02A002010B5002404600C6014601C602A
:1053D00010BD704710B504464FF4AE712DF01FF9A3
:1053E000204610BD10B50446D0F8580100F01EF854
:1053F0002046BDE8104018F0D1BE000010B50446AC
:10540000FEF778FD014B2046236010BD6070030855
:105410000022582110B504460260012004F024F84F
:10542000014B1860204610BDDC2A0020084B0022EA
:10543000084910B50446186804F051FA012806D14D
:10544000206804490368BDE810409B68184710BDF8
:10545000DC2A0020E02A002070470438704770479B
:1054600010B5044610212DF0DAF8204610BDA0F149
:105470000400F5E7C06800F047B8A0F10400FFF7AA
:10548000F9BF00000022C1608260024A02601C3243
:1054900042607047B470030870470000034B10B5BA
:1054A00004460360FEF70FFE204610BDF0700308AF
:1054B00010B50446FFF7F2FF40F6E81120462DF044
:1054C000AEF8204610BD000010B50446FEF7CEFE33
:1054D000014B2046236010BDF0700308054B064ABF
:1054E0001A606FF0FF02054B1A604FF0FF32044B59
:1054F0001A607047402B00200000FFFF3C2B00206B
:10550000382B0020FEF7E0BDF0B5C94E0D46096806
:105510000446336899422DED028B83B014D000F11C
:105520006C07384616F0C2F8384619F05EFE2B6854
:10553000C04A052104F666101CF08EF904F51670B9
:1055400019F053FE2B6833606B68726893420BD07E
:10555000B84A052104F698101CF07EF904F21C40AC
:1055600019F043FE6B687360AB68B268934213D066
:10557000B04A052104F6B6101CF06EF92B7B002B07
:1055800000F08581AC4B1B6804F5A060C4F8303591
:1055900019F02BFEAB68B3602B6A326A93420BD0D2
:1055A000A44A052104F517601CF056F904F529708A
:1055B00019F01BFE2B6A33626B6A726A93420BD03E
:1055C0009C4A052104F6A2101CF046F904F58D60F2
:1055D00019F00BFE6B6A7362AB69B26993420BD030
:1055E000944A052104F68E101CF036F904F5747007
:1055F00019F0FBFDAB69B36195ED0A7AD6ED0A7A35
:105600009FED8E8A77EE677AF5EEC07AF1EE10FAAA
:1056100048BFF1EE677AF4EEC87AF1EE10FA0ED4D4
:1056200001AB874A052104F51C608DED017A1CF061
:1056300011FB04F24C5019F0D8FDAB6AB36295ED42
:105640000B7AD6ED0B7A77EE677AF5EEC07AF1EE4B
:1056500010FA48BFF1EE677AF4EEC87AF1EE10FA6C
:1056600017D401AB764A052104F6DE108DED017AE0
:105670001CF0F0FA95F83030002B00F00A816E4BE8
:105680001B6804F5FC60C4F8103819F0AEFDEB6A35
:10569000F36295ED0D7AD6ED0D7A77EE677AF5EE39
:1056A000C07AF1EE10FA48BFF1EE677AF4EEC87AEC
:1056B000F1EE10FA0ED401AB614A052104F6AC10EC
:1056C0008DED017A1CF0C6FA04F2B44019F08DFD9C
:1056D0006B6B736395ED0E7AD6ED0E7A77EE677A83
:1056E000F5EEC07AF1EE10FA48BFF1EE677AF4EE0B
:1056F000C87AF1EE10FA0ED401AB514A052104F636
:10570000D4108DED017A1CF0A5FA04F2947019F012
:105710006CFDAB6BB36395ED0F7AD6ED0F7A77EE38
:10572000677AF5EEC07AF1EE10FA48BFF1EE677ACB
:10573000F4EEC87AF1EE10FA0ED401AB404A05211E
:1057400004F684108DED017A1CF084FA04F5617082
:1057500019F04BFDEB6BF36395ED137AD6ED137AED
:10576000DFED386A77EE677AF5EEC07AF1EE10FA7F
:1057700048BFF1EE677AF4EEE67AF1EE10FA0ED455
:1057800001AB314A052104F6CA108DED017A1CF0F7
:1057900061FA04F5B36019F028FDEB6CF364AB6CAF
:1057A000B26C93420BD0234A052104F67A101CF008
:1057B00053F804F54E7019F018FDAB6CB36495F80E
:1057C000553096F855209A420DD0204A052104F60E
:1057D0005C101CF041F804F5037019F006FD95F813
:1057E000553086F8553095F8403096F840209A426A
:1057F0000DD0002B4FD0104B1B6804F56170C4F81E
:10580000B43319F0F2FC95F8403086F8403095F842
:10581000543096F854209A421AD084F8553904F539
:10582000136019F0E2FC95F8543086F854300FE01C
:10583000442B0020EE830308402B0020CDCCCC3D30
:10584000DC7003080AD7233CE17003087978030869
:1058500095F8313096F831209A4214D0EBB1104BC4
:105860001B6804F24C50C4F87C3519F0BEFC95F866
:10587000313004F6041084F8293919F0B6FC95F893
:10588000313086F8313003B0BDEC028BF0BD054BF2
:1058900079E6044BF4E6044BAEE7024BE0E700BFC9
:1058A000402B00203C2B0020382B002000B54FF46B
:1058B000807295B04FF0807103460C9205220F91D3
:1058C00001210692002201910B92139200920B4843
:1058D000CDE90312CDE90D22CDE91122102206A94E
:1058E00002924FF4800205926A4601F091FD003861
:1058F00018BF012015B05DF804FB00BF9C2B0020F1
:1059000000B54FF4807395B041F2883217480C937C
:10591000062306A906930023CDE90D330F930B93BD
:105920001393CDE9113301F02EFDE0B902230122DA
:105930004FF4800104900D48CDE900331023CDE9E8
:10594000023205236A46CDE905134FF0807306A99C
:105950000F9341F2883301F05BFD003818BF01203E
:1059600015B05DF804FB0120FAE700BF9C2B002076
:1059700000B54FF4807391B04FF040720E48089319
:10598000EB2302A902934FF4406309934FF40053B1
:1059900005930023CDE90A320A220F9307926A4643
:1059A000CDE90D33CDE9003301F083FD003818BF98
:1059B000012011B05DF804FB9C2B0020454B012118
:1059C0009A6B42F00202F0B59A638DB09A6B09248B
:1059D000414D042702F00202002628460092009A58
:1059E0009A6942F002029A619A6922F002029A616F
:1059F0001A6B42F002021A631A6B02F00202019261
:105A0000019A1A6B42F002021A631A6B02F0020248
:105A10000292029A1A6B42F008021A631A6B02F0A1
:105A200008020392039A1A6B42F008021A631A6B77
:105A300002F008020492049A1A6B42F010021A63F0
:105A40001A6B02F010020592059A1A6B42F00802D6
:105A50001A6340221B6B03F008030693069B022384
:105A6000CDE907230323CDE909130A2307A90B93E3
:105A700000F038FC07A92846079709960B9400F018
:105A800031FC4FF4006307A90B941D44079328468B
:105A900000F028FC4FF4805307A9284607930B9485
:105AA00000F020FC07A90D4807970B9400F01AFCA2
:105AB0004FF4005307A928460B94079300F012FCFB
:105AC00032460F215C2000F0D3F95C2000F002FA8E
:105AD0000DB0F0BD0038024000040240001002404A
