:020000040800F2
:1000000000000520D5200008E51F0008E71F0008B4
:10001000E91F0008EB1F0008ED1F000800000000AA
:1000200000000000000000000000000091A5000892
:10003000EF1F00080000000031A6000895A6000888
:100040002521000825210008252100082521000878
:100050002521000825210008252100082521000868
:100060002521000825210008252100082521000858
:100070002521000825210008252100082521000848
:100080002521000825210008252100082521000838
:10009000F11F00082521000825210008252100085E
:1000A0002521000825210008252100082521000818
:1000B0002521000825210008252100082521000808
:1000C00025210008252100082521000825210008F8
:1000D00025210008252100082521000825210008E8
:1000E00025210008252100082521000825210008D8
:1000F00025210008252100082521000825210008C8
:1001000025210008252100082521000825210008B7
:100110002521000825210008FD1F000825210008D1
:100120002521000825210008252100082521000897
:100130002521000825210008252100082521000887
:100140002521000825210008252100082521000877
:100150002521000825210008252100082521000867
:100160002521000825210008252100082521000857
:100170002521000825210008252100080000000095
:100180002521000825210008252100082521000837
:100190002521000825210008252100082521000827
:1001A0000920000825210008152000082521000845
:1001B0002521000825210008252100082521000807
:0801C00025210008252100089B
:1001D00010B5054C237833B9044B13B10448AFF381
:1001E00000800123237010BDA00300200000000048
:1001F0003C66030808B5034B1BB103490348AFF342
:10020000008008BD00000000A40300203C66030835
:1002100001F0FF01102A2BDB10F0070F08D010F8B7
:10022000013B013A8B422DD010F0070F42B3F6D1BB
:10023000F0B441EA012141EA014122F007047FF0D4
:1002400000070023F0E80256083C85EA010586EA2B
:10025000010685FA47F5A3FA87F586FA47F6A5FA67
:1002600087F68EB9EED1F0BC01F0FF0102F0070273
:1002700032B110F8013B013A83EA010313B1F8D11E
:100280000020704701387047002D06BF35460338FF
:10029000073815F0010F07D1013015F4807F02BF38
:1002A000013015F4C03F0130F0BC0138704700BF89
:1002B00081F0004102E000BF83F0004330B54FEA17
:1002C00041044FEA430594EA050F08BF90EA020F84
:1002D0001FBF54EA000C55EA020C7FEA645C7FEA17
:1002E000655C00F0E2804FEA5454D4EB5555B8BF3A
:1002F0006D420CDD2C4480EA020281EA030382EAAB
:10030000000083EA010180EA020281EA0303362D3C
:1003100088BF30BD11F0004F4FEA01314FF4801C0F
:100320004CEA113102D0404261EB410113F0004F21
:100330004FEA03334CEA133302D0524263EB4303D8
:1003400094EA050F00F0A780A4F10104D5F1200E76
:100350000DDB02FA0EFC22FA05F2801841F10001D1
:1003600003FA0EF2801843FA05F359410EE0A5F1A5
:1003700020050EF1200E012A03FA0EFC28BF4CF0D6
:10038000020C43FA05F3C01851EBE37101F000458C
:1003900007D54FF0000EDCF1000C7EEB00006EEB99
:1003A0000101B1F5801F1BD3B1F5001F0CD3490823
:1003B0005FEA30004FEA3C0C04F101044FEA44527A
:1003C00012F5800F80F09A80BCF1004F08BF5FEA01
:1003D000500C50F1000041EB045141EA050130BDE1
:1003E0005FEA4C0C404141EB0101013C28BFB1F5F3
:1003F000801FE9D291F0000F04BF01460020B1FA3E
:1004000081F308BF2033A3F10B03B3F120020CDA10
:100410000C3208DD02F1140CC2F10C0201FA0CF0EE
:1004200021FA02F10CE002F11402D8BFC2F1200C53
:1004300001FA02F120FA0CFCDCBF41EA0C01904009
:10044000E41AA2BF01EB0451294330BD6FEA040452
:100450001F3C1CDA0C340EDC04F11404C4F120023D
:1004600020FA04F001FA02F340EA030021FA04F34F
:1004700045EA030130BDC4F10C04C4F1200220FAA6
:1004800002F001FA04F340EA0300294630BD21FAE4
:1004900004F0294630BD94F0000F83F4801306BFAA
:1004A00081F480110134013D4EE77FEA645C18BF9E
:1004B0007FEA655C29D094EA050F08BF90EA020F35
:1004C00005D054EA000C04BF1946104630BD91EA2D
:1004D000030F1EBF0021002030BD5FEA545C05D130
:1004E0004000494128BF41F0004130BD14F580046F
:1004F0003CBF01F5801130BD01F0004545F0FE41E3
:1005000041F470014FF0000030BD7FEA645C1ABF17
:10051000194610467FEA655C1CBF0B46024650EA4E
:10052000013406BF52EA033591EA030F41F400217A
:1005300030BD00BF90F0000F04BF0021704730B500
:100540004FF4806404F132044FF000054FF00001D5
:1005500050E700BF90F0000F04BF0021704730B596
:100560004FF4806404F1320410F0004548BF40426B
:100570004FF000013EE700BF42004FEAE2014FEAC0
:1005800031014FEA02701FBF12F07F4393F07F4F9B
:1005900081F06051704732F07F4208BF704793F09E
:1005A0007F4F04BF41F40021704730B54FF46074B1
:1005B00001F0004521F000411CE700BF50EA0102B4
:1005C00008BF704730B54FF000050AE050EA01025D
:1005D00008BF704730B511F0004502D5404261EBCD
:1005E00041014FF4806404F132045FEA915C3FF40E
:1005F000D8AE4FF003025FEADC0C18BF03325FEAAB
:10060000DC0C18BF033202EBDC02C2F1200300FA5B
:1006100003FC20FA02F001FA03FE40EA0E0021FA80
:1006200002F11444BDE600BF70B54FF0FF0C4CF46E
:10063000E06C1CEA11541DBF1CEA135594EA0C0F20
:1006400095EA0C0F00F0DEF82C4481EA030621EA5B
:100650004C5123EA4C5350EA013518BF52EA033596
:1006600041F4801143F4801338D0A0FB02CE4FF048
:100670000005E1FB02E506F00042E0FB03E54FF078
:100680000006E1FB03569CF0000F18BF4EF0010E70
:10069000A4F1FF04B6F5007F64F5407404D25FEA6C
:1006A0004E0E6D4146EB060642EAC62141EA55511F
:1006B0004FEAC52040EA5E504FEACE2EB4F1FD0C61
:1006C00088BFBCF5E06F1ED8BEF1004F08BF5FEADF
:1006D000500E50F1000041EB045170BD06F0004691
:1006E00046EA010140EA020081EA0301B4EB5C043E
:1006F000C2BFD4EB0C0541EA045170BD41F4801136
:100700004FF0000E013C00F3AB8014F1360FDEBF5A
:10071000002001F0004170BDC4F10004203C35DA36
:100720000C341BDC04F11404C4F1200500FA05F3B9
:1007300020FA04F001FA05F240EA020001F000425A
:1007400021F0004110EBD37021FA04F642EB0601D0
:100750005EEA430E08BF20EAD37070BDC4F10C04FA
:10076000C4F1200500FA04F320FA05F001FA04F2BE
:1007700040EA020001F0004110EBD37041F10001AA
:100780005EEA430E08BF20EAD37070BDC4F12005B5
:1007900000FA05F24EEA020E20FA04F301FA05F21D
:1007A00043EA020321FA04F001F0004121FA04F2C5
:1007B00020EA020000EBD3705EEA430E08BF20EA95
:1007C000D37070BD94F0000F0FD101F000464000CF
:1007D00041EB010111F4801F08BF013CF7D041EA51
:1007E000060195F0000F18BF704703F00046520055
:1007F00043EB030313F4801F08BF013DF7D043EA26
:100800000603704794EA0C0F0CEA135518BF95EADB
:100810000C0F0CD050EA410618BF52EA4306D1D162
:1008200081EA030101F000414FF0000070BD50EA81
:10083000410606BF1046194652EA430619D094EA0B
:100840000C0F02D150EA013613D195EA0C0F05D1F5
:1008500052EA03361CBF104619460AD181EA030149
:1008600001F0004141F0FE4141F470014FF0000001
:1008700070BD41F0FE4141F4780170BD70B54FF09C
:10088000FF0C4CF4E06C1CEA11541DBF1CEA13551C
:1008900094EA0C0F95EA0C0F00F0A7F8A4EB0504FE
:1008A00081EA030E52EA03354FEA013100F08880F5
:1008B0004FEA03334FF0805545EA131343EA1263BE
:1008C0004FEA022245EA111545EA10654FEA002673
:1008D0000EF000419D4208BF964244F1FD0404F52C
:1008E000407402D25B084FEA3202B61A65EB030588
:1008F0005B084FEA32024FF480104FF4002CB6EB45
:10090000020E75EB030E22BFB61A754640EA0C00C4
:100910005B084FEA3202B6EB020E75EB030E22BF04
:10092000B61A754640EA5C005B084FEA3202B6EB45
:10093000020E75EB030E22BFB61A754640EA9C0004
:100940005B084FEA3202B6EB020E75EB030E22BFD4
:10095000B61A754640EADC0055EA060E18D04FEA92
:10096000051545EA16754FEA06164FEAC30343EA32
:1009700052734FEAC2025FEA1C1CC0D111F4801FFF
:100980000BD141EA00014FF000004FF0004CB6E7F8
:1009900011F4801F04BF01430020B4F1FD0C88BF97
:1009A000BCF5E06F3FF6AFAEB5EB030C04BFB6EBA2
:1009B000020C5FEA500C50F1000041EB045170BD95
:1009C0000EF0004E4EEA113114EB5C04C2BFD4EBC2
:1009D0000C0541EA045170BD41F480114FF0000E46
:1009E000013C90E645EA060E8DE60CEA135594EAC2
:1009F0000C0F08BF95EA0C0F3FF43BAF94EA0C0FC5
:100A00000AD150EA01347FF434AF95EA0C0F7FF439
:100A100025AF104619462CE795EA0C0F06D152EA8D
:100A200003353FF4FDAE1046194622E750EA410671
:100A300018BF52EA43067FF4C5AE50EA41047FF482
:100A40000DAF52EA43057FF4EBAE12E74FEA4102E5
:100A500012F5001215D211D56FF47873B3EB625210
:100A600012D94FEAC12343F0004343EA505311F037
:100A7000004F23FA02F018BF404270474FF00000C9
:100A8000704750EA013005D111F0004008BF6FF007
:100A9000004070474FF00000704700BF4FEA41022E
:100AA000B2F1E04324BFB3F5001CDCF1FE5C0DD9CC
:100AB00001F0004C4FEAC0024CEA5070B2F1004F16
:100AC00040EB830008BF20F00100704711F0804F19
:100AD00021D113F13872BCBF01F00040704741F4DE
:100AE00080114FEA5252C2F11802C2F1200C10FAE2
:100AF0000CF320FA02F018BF40F001004FEAC123C6
:100B00004FEAD32303FA0CFC40EA0C0023FA02F369
:100B10004FEA4303CCE77FEA625307D150EA01333F
:100B20001EBF4FF0FE4040F44000704701F000400F
:100B300040F0FE4040F40000704700BF7BB972B93E
:100B40000029BEBF00204FF0004106E008BF00288A
:100B50001CBF6FF000414FF0FF3000F0B5B9ADF1B0
:100B6000080C6DE904CE002909DB002B1ADB00F02C
:100B70004DF8DDF804E0DDE9022304B0704740429F
:100B800061EB4101002B1BDB00F040F8DDF804E0D5
:100B9000DDE9022304B0404261EB4101524263EBC4
:100BA00043037047524263EB430300F02FF8DDF834
:100BB00004E0DDE9022304B0404261EB41017047EB
:100BC000524263EB430300F021F8DDF804E0DDE975
:100BD000022304B0524263EB4303704753B94AB94E
:100BE000002908BF00281CBF4FF0FF314FF0FF3035
:100BF00000F06AB9ADF1080C6DE904CE00F006F81A
:100C0000DDF804E0DDE9022304B070472DE9F04788
:100C1000089D0C46002B4ED194468C458646B2FA70
:100C200082F262D94AB1C2F12003914020FA03F363
:100C30000CFA02FC194300FA02FE4FEA1C471FFAA5
:100C40008CF6B1FBF7F44FEA1E4307FB141143EA9D
:100C5000014304FB06F199420AD91CEB030304F19A
:100C6000FF3080F01281994240F20F81023C6344D0
:100C7000591A1FFA8EF3B1FBF7F007FB101143EA84
:100C8000014300FB06F69E420AD91CEB030300F168
:100C9000FF3180F0FC809E4240F2F98063440238CC
:100CA0009B1B40EA044000211DB1D3400022C5E94E
:100CB0000032BDE8F0878B4205D90DB1C5E90001CE
:100CC00000210846F5E7B3FA83F1002946D1A34293
:100CD00002D39042C0F0F080861A64EB0303012037
:100CE000002DE6D0C5E90063E3E7002A40F09080DC
:100CF000A1EB0C044FEA1C481FFA8CF70121B4FB4E
:100D0000F8F64FEA1E4308FB164443EA044307FB88
:100D100006F0984208D91CEB030306F1FF3402D217
:100D2000984200F2CD8026461C1A1FFA8EF3B4FBBF
:100D3000F8F008FB104443EA044300FB07F79F4226
:100D400008D91CEB030300F1FF3402D29F4200F2EA
:100D5000B0802046DB1B40EA0640A5E7C1F1200633
:100D60008B4022FA06F71F4320FA06FC04FA01F32F
:100D700043EA0C03F44000FA01F8380C4FEA134937
:100D8000B4FBF0FE1FFA87FC00FB1E4449EA044452
:100D90000EFB0CF9A14502FA01F20AD93C190EF139
:100DA000FF3A80F08480A14540F28180AEF1020ECE
:100DB0003C44A4EB09041FFA83F9B4FBF0F300FBF5
:100DC000134449EA044403FB0CFCA44507D93C192D
:100DD00003F1FF3067D2A44565D9023B3C4443EAA6
:100DE0000E40A0FB0293A4EB0C049C42CE469C4612
:100DF00051D34ED055B1B8EB0E0364EB0C0404FA9A
:100E000006F6CB401E43CC40C5E90064002150E704
:100E1000C2F1200320FA03F10CFA02FC24FA03F3D6
:100E200094400C434FEA1C4800FA02FE1FFA8CF76C
:100E3000B3FBF8F008FB1031230C43EA014300FB3D
:100E400007F1994208D91CEB030300F1FF362CD2BD
:100E500099422AD9023863445B1AA4B2B3FBF8F171
:100E600008FB113344EA034401FB07F3A34208D90A
:100E70001CEB040401F1FF3613D2A34211D902394D
:100E80006444E41A41EA004139E70446F0E60846C2
:100E900006E7C845AED2B9EB020E63EB070C01388A
:100EA000A8E73146EDE7034699E73046D4E7D64652
:100EB0007FE7634402384DE70646234608460FE7BE
:100EC000023E634430E700BF704700BF0149002085
:100ED0000AF05CBDD125000808B5642008F06AFF5F
:100EE000FBE7000000B52E4E99B02E4D2E4C2F4A38
:100EF000694633681268009305922D4A2B68126880
:100F0000019307922B4A23681268029308922A4A97
:100F10002A4B12681B680992294A0393002312681E
:100F20008DF810300A92274A8DF81830126826483A
:100F30000B92264A12680C92254A12788DF83420BA
:100F4000244A12788DF83520234A12680E92234ADB
:100F500012680F92224A126800681092214A127891
:100F60008DF84420204A12681292204A1268139287
:100F70001F4A126814921F4A126815921E4A12786C
:100F80008DF858201D4A12788DF859201C4A126895
:100F900017921A4609F0D9FD282008F00BFFA6E7A2
:100FA000FC030020F8030020F4030020EC030020E1
:100FB000E8030020E4030020E0030020F003002009
:100FC000DC030020D8030020484800201000002047
:100FD0000D0000200C000020D40300200800002099
:100FE000D003002006000020CC030020C80300200E
:100FF000C4030020C00300200500002004000020DE
:10100000BC03002010B594B01022002102240AA8CD
:1010100034F0D6FB1422002103A834F0D1FB1D4B81
:10102000192108A81A6C42F080521A641B6C03F054
:1010300080530193019B184B1A6842F440421A6096
:1010400001221B6803F440430293029B4FF4803358
:10105000CDE908234FF48003CDE90E434FF4C87364
:10106000CDE91244CDE9101307F074FE07F010FB30
:101070000F2300200621CDE903344FF4A053CDE91E
:1010800005034FF4805303A8079308F04BF814B0FE
:1010900010BD00BF00380240007000402DE98048BC
:1010A0009BB01022002101250DA84FF0104834F00C
:1010B00087FB002406F032FAC74B0DA8ADF8345078
:1010C0001094CDE90E8306F047FA17230DA88DF88A
:1010D00035508DF83C308DF8425006F03DFA042032
:1010E00006F02AFABFF34F8FBFF36F8FBB4AC2F8E7
:1010F0005042BFF34F8FBFF36F8F536943F40033F8
:101100005361BFF34F8FBFF36F8FC2F88440BFF3BB
:101110004F8FD2F8803043F6E074C3F3C900C3F3B5
:101120004E335B0103EA0406014646EA8175013944
:10113000C2F86052F9D2203B13F1200FF2D1BFF375
:101140004F8F536943F480335361BFF34F8FBFF325
:101150006F8F05F07DFE0024FFF754FF142200215D
:101160000DA834F02DFB9E4B10219E481A6B0127D1
:101170004FF010084FF0030B42F010024FF480596B
:10118000994D4FF0040A1A631A6B984E02F0100240
:101190000292029A1A6B42F002021A631A6B02F070
:1011A00002020392039A1A6B42F001021A631A6B4D
:1011B00002F001020492049A1A6B42F040021A6390
:1011C0001A6B02F040020592059A1A6B42F4007203
:1011D0001A631A6B02F400720692069A1A6B42F0B6
:1011E00008021A631A6B02F008020792079A1A6B38
:1011F00042F480621A631A6B02F480620892089AC1
:101200001A6B42F020021A631A6B02F02002099254
:10121000099A1A6B42F480721A631A6B02F4807294
:101220000A920A9A1A6B42F080021A631A6B02F051
:1012300080020B920B9A1A6B42F004021A6300228E
:101240001B6B03F004030C930C9B06F0D3FC0122F0
:101250000821674806F0CEFC01224FF48051654812
:1012600006F0C8FC0022C021634806F0C3FC00223F
:101270004021624806F0BEFC0DA95A48CDE90D8711
:10128000CDE90F4B06F032FB08230DA95848CDE9F4
:101290000D37CDE90F4406F029FB0DA95548CDE9DE
:1012A0000D97CDE90F4406F021FBC0220DA952484D
:1012B000CDE90D27CDE90F4B06F018FB40220DA913
:1012C0004E48CDE90D27CDE90F4B06F00FFB4C48FA
:1012D0004C49848001600762C0E9054406F068F962
:1012E00049492846C5E90014C5E90244C5E90A444C
:1012F000C5E90C4406F0FBF939462846434D06F093
:10130000AFFA40234FF4C07241493046B460F461F3
:10131000B462C6E905324FF40062C6E908294FF00D
:1013200002090722C6E900140DA9CDF84C90C6E9C0
:1013300003A8CDE90D92CDE90FA2CDE911B908F0CE
:1013400047FA29464FF6FF7230460194C5E9007806
:10135000C5E9027408F05CFA384605F09DFD29469F
:101360004FF6FF723046C5E90098C5E9027408F0EF
:101370004FFA082329464FF6FF723046C5E902347A
:10138000C5E900B808F044FA4FF40C734FF6FF7249
:10139000294601933046019BAF60EB60C5E900A888
:1013A00008F036FA40F22B7130461A4D08F04FFA29
:1013B0004FF0204343F2D202642040F215261A6017
:1013C00005F06AFD144B154A28462C62C5E9002336
:1013D000C5E9024724E000BF1B00000300ED00E068
:1013E00000380240000402409C0500202004002038
:1013F000002802400020024000080240001802407D
:10140000DC0500200030024000B002400004002053
:10141000400100A0480500209B676010005C004070
:10142000C5E90444C5E9064406F025FD21462846E1
:1014300006F048FF21462846544D06F069FF342245
:1014400021460DEB020034F0BBF9514B2821352029
:1014500040F2352C2C61AC8685F83640C5E9003465
:101460000923C5E905130B23C5E9070340F21B1344
:101470002846C5E9096340F21D130526C5E90BC3DB
:10148000C5E9024406F0F0FFFF214FF4F0724FF47B
:10149000887328460D941893ADF864408DF8664023
:1014A0003C4DCDE912144FF48061CDE914164FF094
:1014B0004041CDE90E24CDE9161222460DA9CDE911
:1014C000103907F09CF83448344B4FF0180E046282
:1014D000C0E900374FF4A063C0E902A8C0E904E303
:1014E000C0E9064407F0EEF905F032FB05F078FAA2
:1014F0005C2006F001F800F0EBFD294B2846AC61BA
:10150000AC83C5E900364FF4E023C5E90244C5E9E0
:10151000043405F0D3FC0E230DA928461693149726
:1015200011941597CDE91244CDE90D44CDE90F444E
:1015300005F040FD284605F0C3FD4946284605F064
:1015400067FE00F0F1FD00F0EEFD08F0A5FB154A86
:101550002146154808F0DAFB144B154A214618605D
:10156000144808F0D3FB144B144A21461860144861
:1015700008F0CCFB134B144A21461860134808F0BE
:10158000C5FB134B186008F0A1FBFEE7A004002088
:10159000006801400006002054040020001000A054
:1015A0000064004030670308D90E00081C040020C6
:1015B0000C6703083721000818040020E8660308B8
:1015C000993C000814040020C4660308E50E0008D6
:1015D0001004002000000000F8B5B14C0021B14D0E
:1015E00022462B462DED028B05F095FD266840F234
:1015F00026739E4266D1A36853B92369022B07D193
:101600002B78012B04D1A84A136883F001031360DF
:1016100040F272339E4200F07381B6F5787F40F05D
:10162000FC80A368002B7CD12369082B79D1288802
:101630006F8840BAAE887FBAEC8880B276BABFB203
:1016400064BAA0F6AB20B6B2FEF784FFA4B28EA3B4
:10165000D3E90023FEF7E8FFFFF7F8F9934B186092
:10166000934B1A689042C8BF1860A7F6AB20FEF7EC
:1016700071FF85A3D3E90023FEF7D6FFFFF7E6F954
:101680008C4B1860A6F6AB20FEF764FF7EA3D3E96F
:101690000023FEF7C9FFFFF7D9F9874B1860A4F6BE
:1016A000AB20FEF757FF78A3D3E90023FEF7BCFF7A
:1016B000FFF7CCF9814B1860814B1A68904230DDFE
:1016C00018602EE0B6F5587F2ED1A3684BBB236976
:1016D000082B26D12C887B4B64BAA888A4B240BAC8
:1016E0001C6080B2784B1A689442C8BF1C60C4F575
:1016F000EA54FEF72FFF0C3463A3D3E9002324EA56
:10170000E474FEF791FFFFF7A1F9704B002C18600D
:10171000B8BF03346E4BA410C4F1640424EAE4742B
:101720001C60BDEC028BF8BD40F261339E4240F07C
:101730001581A368002B70D12369082B6DD16B88AC
:10174000DFED6E8A5BBA9FB22B885BBA9BB207EE65
:10175000903AF8EE677A67EEA87A17EE900AFEF7ED
:101760000BFF4BA3D3E90023FEF7A6FD4AA3D3E961
:101770000023FEF759FFFFF791F907EE907A554BDA
:1017800008EE100AF8EE677A186067EEA87A17EE8E
:10179000900AFEF7F1FE3EA3D3E90023FEF78CFD8D
:1017A0003DA3D3E90023FEF73FFFFFF777F94A4B4C
:1017B00007EE900A1860434B1B68B3F52F7F2CDDB2
:1017C000464A92ED007AB5EEC07AF1EE10FA04D4F2
:1017D000B4EEC78AF1EE10FA01D582ED008A40F628
:1017E000C412934219DD3E4B93ED007AB5EEC07AF8
:1017F000F1EE10FA04D4F4EEC77AF1EE10FA0CD53B
:10180000B0EE087AC3ED007A364BF4EEC77AF1EE0B
:1018100010FA4CBF012200221A70B6F55C7F00F06E
:10182000BD80B6F5797F7FF47CAFA368002B7FF491
:1018300078AF2369082B7FF474AF6B782A4A03F0E2
:1018400001031370EB79294AD909C3F3801311708E
:10185000274A137065E7A368002B7FF462AF236902
:10186000082B7FF45EAF2B889FED227A5BBA9BB288
:1018700007EE903A204BF8EE677A67EE877AC3ED71
:10188000007A4EE7AFF300809A9999999999B93FF8
:10189000333333333353594000000040E17A843FFF
:1018A0003006002028060020FC030020F003002062
:1018B000EC030020C8030020CC030020E803002034
:1018C000E4030020F8030020F4030020C0030020FC
:1018D000BC030020D4030020D8030020080000200F
:1018E000100000200D0000200C000020050000204A
:1018F000060000206F12833AC4030020CDCCCC3DFB
:10190000A368002B7FF40DAF2369082B7FF409AF88
:101910002B881FED067A5BBA9BB207EE903A344BE8
:10192000F8EE677A67EE877AA9E7324B52221A708F
:10193000F7E6304B4E22FAE72E4B3122F7E72D4BDC
:101940003222F4E72B4B3322F1E72A4B3422EEE725
:10195000284B3522EBE7274B3622E8E7B6F55A7FCE
:101960003FF479AFB6F55C7F7FF452AEA368ABB9B4
:101970002369082B12D1288840BA80B2FEF7EAFD0D
:1019800019A3D3E90023FEF74FFEFFF75FF81A4BC8
:1019900018601A4B1A68904200DD1860A368002B8B
:1019A0007FF4BFAE2369082B7FF4BBAE95F90330FB
:1019B0000333092B3FF6B5AE01A252F823F000BF66
:1019C00033190008231700082B19000833190008E1
:1019D000391900083F190008451900084B1900087B
:1019E00051190008571900089A9999999999B93F7E
:1019F000D003002004000020E0030020DC030020CE
:101A00000268034B9A4201D105F034BA704700BF17
:101A100000100040704700000D4B82B00F216FF0A6
:101A200001001A6C42F080521A641A6C02F0805263
:101A30000092009A5A6C42F480425A6400225B6C15
:101A400003F480430193019B02B005F015BD00BF74
:101A50000038024010B588B004461422002103A8C3
:101A600033F0AEFE2268174B9A4228D103F5EA33D1
:101A7000032115481A6C42F000721A641A6C02F0C5
:101A800000720192019A1A6B42F002021A634FF43B
:101A900040721B6B03F002030293029B0223CDE909
:101AA00003230923CDE9061303A905F01FFF142022
:101AB0000022052105F0E0FC142005F00FFD08B020
:101AC00010BD00BF0064004000040240026882B004
:101AD000084B9A420BD1D3F8302803F5006342F447
:101AE00080521A631B6B03F480530193019B02B075
:101AF000704700BF003002400E4B07B502689A42A3
:101B000015D1A3F5F04305215A201A6B42F40002C7
:101B10001A6300221B6B03F400030193019B05F081
:101B2000ABFC5A2003B05DF804EB05F0D7BC03B062
:101B30005DF804FB00B0024010B5A8B004461422C2
:101B4000002102A833F03CFE8422002107A833F0D4
:101B500037FE2268174B9A422AD14FF4803307A8E8
:101B6000079307F0ABFB08B1FFF754FF124C4FF49B
:101B7000C07201211148236B43F080032363236B60
:101B800003F080030093009B1223CDE9022303237B
:101B9000CDE90413042302A9069305F0A7FE236CE4
:101BA00043F400032364236C03F400030193019BBB
:101BB00028B010BD005C004000380240001C02400C
:101BC000026808B5094B9A420FD1094A8021094899
:101BD000136C23F40003136405F06CFF4FF4807161
:101BE0000448BDE8084005F065BF08BD005C004042
:101BF00000380240001C024070B5ACB0044614220C
:101C0000002106A833F0DCFD842200210BA833F06C
:101C1000D7FD2268484B9A4240F08C80082305206B
:101C200001240B934FF4C07310930223CDE91130BC
:101C30004FF400330BA8CDE9154307F03FFB08B183
:101C4000FFF7E8FE3D4B002402250E265A6C06A93C
:101C50003B4842F080625A645A6C02F08062009203
:101C6000009A1A6B42F010021A631A6B02F010020B
:101C70000192019A1A6B42F400721A631A6B02F411
:101C800000720292029A1A6B42F480621A631A6B13
:101C900002F480620392039A1A6B42F040021A63C4
:101CA0001A6B02F040020492049A1A6B42F480729A
:101CB0001A631B6B03F480730593059B1023CDE916
:101CC0000635CDE908440A9605F010FE4EF6FF737E
:101CD00006A91C480A96CDE90635CDE9084405F069
:101CE00005FEF72306A918480A96CDE90635CDE981
:101CF000084405F0FBFD4FF4805306A91348CDE9D5
:101D000006350923CDE908440A9305F0EFFD4FF4A9
:101D1000464306A90E480A96CDE90635CDE90844A2
:101D200005F0E4FD58202246052105F0A5FB5820CA
:101D300005F0D4FB2CB070BD0068014000380240B3
:101D40000010024000240240002802400018024017
:101D500000200240142200212DE9F0418AB00446FF
:101D60000DEB020033F02CFD22682C4B9A4251D12E
:101D70002B4B0225032409269A6B4FF0040805A972
:101D8000284842F0020200279A639A6B02F002028E
:101D90000192019A1A6B42F010021A631A6B02F058
:101DA00010020292029A1A6B42F002021A631A6B34
:101DB00002F002020392039A1A6B42F008021A63BD
:101DC0001B6B03F008030493049BCDE90585CDE963
:101DD000084605F08BFD402305A91348CDE90535DC
:101DE0000A23CDE90774099305F080FD05A90E4883
:101DF0000996CDE90585CDE9077405F077FD4FF427
:101E0000605305A909480996CDE90535CDE9077460
:101E100005F06CFD0AB0BDE8F08100BF001000A025
:101E2000003802400010024000040240000C024052
:101E3000026808B50B4B9A4213D10B4A04210B4898
:101E4000936B23F00203936305F034FE44210848AA
:101E500005F030FE4FF460510648BDE8084005F03B
:101E600029BE08BD001000A000380240001002404A
:101E700000040240000C0240F0B5002387B0039339
:101E8000294B1E68002E4DD10122022703250C2468
:101E90001A6001A9254B26489A6B42F001029A6309
:101EA0009B6B03F001030093009B4FF68373CDE916
:101EB0000454CDE9013705F019FD48F2331301A9A7
:101EC0001C480594CDE90137CDE9036505F00EFD09
:101ED0004CF2037301A918480594CDE90137CDE907
:101EE000036505F003FD4FF63F0301A91348059470
:101EF000CDE90137CDE9036505F0F8FC282301A9F8
:101F00000F480594CDE90137CDE9036505F0EEFCF6
:101F1000082301A90B480594CDE90137CDE90365F4
:101F200005F0E4FC07B0F0BD4C060020003802408C
:101F30000010024000180240000C02400014024051
:101F4000001C024000080240214B1A6C42F01002B3
:101F500070B51A6488B01B6C054601A903A803F08C
:101F600010030293029B07F08BF9069B4BBB07F013
:101F700077F9184E184B336040F2E733F360174B94
:101F8000B0FBF3F3013B3046736000233361B36071
:101F9000B36107F0C3FD044680B9304607F070FC1A
:101FA000044658B9362005F099FA0F2D0DD822466F
:101FB0002946362005F060FA094B1D60204608B01E
:101FC00070BD07F04DF94000D3E70124F6E700BFEC
:101FD00000380240500600200010004040420F0030
:101FE000AC0000207047FEE7FEE7FEE7FEE7704723
:101FF000014805F02AB900BF00060020014807F09B
:1020000081BC00BF50060020014806F09BBA00BF0B
:10201000A0040020014805F098BB00BF9C050020EB
:102020000120704708B533F07FFC162303604FF0A2
:10203000FF3008BD08B533F077FC16230360FEE7D8
:1020400070B50D4614460E46731B9C4201DC2046BB
:1020500070BDAFF3008006F8010BF5E770B50D46D3
:1020600014460E46731B9C4201DC204670BD16F8D8
:10207000010BAFF30080F5E74FF0FF3070474FF4EE
:10208000005300204B6070470120704700207047CC
:102090000B4A0346116810B509B90A491160106866
:1020A00009490A4C0344091B8B4206D933F03CFC16
:1020B0000C2303604FF0FF3010BD1360FCE700BF3E
:1020C0009C060020A888012000000520000A0000CE
:1020D00070470000DFF834D0002103E00C4B5B5860
:1020E000435004310B480C4B42189A42F6D30B4A2A
:1020F00002E0002342F8043B094B9A42F9D304F072
:10210000BFFD33F017FCFEF7C9FF70470000052044
:10211000FCC203080000002094010020A00300205E
:10212000A4880120FEE7704708B501F08FF9BDE8EB
:10213000084001F011B901F08BB940687047416067
:10214000704700004FF0E022D2F8FC3D43F080736E
:10215000C2F8FC3D054B064AD3F8B01F0A43C3F84A
:10216000B02F1A6842F001021A607047001000E0B8
:1021700055CEACC5521A02EB5302B2FBF3F07047D6
:10218000014B5868704700BF001000E0704710B561
:1021900004460C2132F011F9204610BD036810B539
:1021A0001B69044631B19847A26863689B1A0344CF
:1021B000636010BD9847A060FBE70000024B7020F1
:1021C000024A1360DB68184780000020A006002048
:1021D000704710B50446042132F0EFF8204610BDD8
:1021E00073B50E4E0D461446336813B9002002B085
:1021F00070BD1B69702098470028F7D033687020A5
:1022000001AA0DF106015B699847BDF80430012071
:102210002B60BDF806302360E9E700BFA006002070
:102220007FB501238DF817204FF47A72CDE9013282
:102230000DF1170200920A460146054805F08AFE94
:1022400010B1034805F06CFE07B05DF804FB00BF59
:10225000480500207FB500230A464FF47A718DF8B7
:1022600017300123CDE901310DF11701009101462D
:10227000054805F049FF10B1034805F051FE9DF8EF
:10228000170007B05DF804FB48050020032823D899
:10229000DFE800F0020B131A104B102110481A68E7
:1022A000B2FA82F2520905F0A5BC0C4B40215A68E3
:1022B000B2FA82F252090B48F5E7084B80219A687E
:1022C000B2FA82F25209F6E7044B40210648DA6876
:1022D000B2FA82F25209E6E7704700BFA406002076
:1022E000000402400008024000180240032823D8DE
:1022F000DFE800F0020B131A104B102110481A6887
:10230000003A18BF012205F075BC0C4B40215A68F9
:10231000003A18BF01220B48F5E7084B80219A6864
:10232000003A18BF0122F6E7044B40210648DA685C
:10233000003A18BF0122E6E7704700BFA40600205C
:1023400000040240000802400018024003280FD891
:10235000DFE800F00206090B1021064805F04FBC2B
:1023600040210548FAE78021FBE740210348F5E7D3
:10237000704700BF000402400008024000180240FD
:1023800008B5032813D8DFE800F0020A0D0F10216A
:10239000084805F029FC431E5842584108BD402119
:1023A0000548F6E78021FBE740210448F1E70020DB
:1023B000F1E700BF0004024000080240001802409C
:1023C00070B5084D00240126E0B2FFF7D9FF18B11F
:1023D0002B68012B18BF2E6001340435052CF3D176
:1023E00070BD00BFA4060020012380F8781080F89B
:1023F000793070470020704741640039024B18BFA4
:1024000001211970704700BF637B012000207047D5
:10241000836B0BB10846184770474FF6FF70704743
:10242000406803689B6918477047000038B5044648
:1024300001F05CF9084923682046084DD3F88C3038
:1024400098470023284684F84A30FFF77BFE012393
:10245000256184F8703038BD000000C0B40600204B
:1024600001F0E6B801F0EAB870B501F069F9104979
:102470000023C1F88430BFF34F8FD1F8803043F68A
:10248000E074C3F3C900C3F34E335B0103EA0406EF
:10249000024646EA8275013AC1F87452F9D2203BED
:1024A00013F1200FF2D1BFF34F8FBFF36F8F70BDC9
:1024B00000ED00E001F046B901F096B801F068BA0D
:1024C00001F070BA01F09AB810B5044618F06EF930
:1024D00023682046D3F8AC30BDE81040184717F009
:1024E000C3BB10B504467C2131F067FF204610BD08
:1024F00090F834100D4B10B590F878401A788C4253
:1025000009D03AB90A490B4A088814881080012278
:102510000C801A7010BD002AFCD0064A04491488A9
:1025200008880C8010800022F3E700BF5C7B01204C
:102530005A7B0120587B012070B50D46194635B9EC
:10254000094B40F2D221094A094832F07DFEC0E928
:102550000F52003A074B18BF01221A700368BDE8FA
:102560007040D3F88C30184794670308CC67030891
:102570001A680308627B012008B5094B1B888B424F
:1025800003D8084B1B88934205D9074B9E21074A65
:10259000074832F059FE074B1980074B1A8008BDD7
:1025A000587B01205A7B01205F680308C26803083A
:1025B0001A6803085E7B0120607B0120034690F8C7
:1025C0007A0018B1586803681B6818477047000004
:1025D000014608B5034B186801B1012118F000F954
:1025E000012008BD647B0120034B00225A609A60E1
:1025F000024A1A60704700BFB40600205C670308F7
:102600000121002208B5084607F08AFC0A4B186031
:1026100028B90A4B28210A4A0A4832F015FE00223E
:102620000421012007F046FD074B186018B9074B3D
:102630002C21034AF0E708BDC4060020E069030826
:10264000296A0308586A0308C0060020A36A030821
:10265000024B4FF0FF31186807F0BABCC4060020E7
:10266000014B186807F0F0BCC4060020024B0021A3
:10267000186807F0ADBC00BFC4060020FFF7F0BF2C
:102680000023034803491A46006807F059BD00BFFC
:10269000C00600201400002013B50023074C01A938
:1026A0001A46206807F08EFD4FF0FF33002201A983
:1026B000206807F087FD02B010BD00BFC0060020F3
:1026C00003685B6C18470120704703689B6A1847D2
:1026D000FEE700000E4B82B01A6B42F400021A6350
:1026E0001A6B02F400020192019A1A6942F4000284
:1026F0001A611A6922F400021A61064B064A1A612D
:10270000064A5A614FF08062054B9A6002B07047EA
:10271000003802409C050020AD290008D1260008A1
:1027200000E100E040F2EF3070470000054B4FF051
:1027300080620360044BC3F88820BFF34F8FBFF360
:102740006F8F7047406C030800E100E010B504464D
:102750004FF45A61FFF7EAFF204631F02EFE204683
:1027600010BD000008B50A2809D8DFE800F00610FF
:102770000E080808081010101000022008BD054BB4
:102780009021054A054832F05FFD0020F6E7012060
:10279000F4E700BFE56A0308006B03084B6B03080E
:1027A00038B50C46887FFFF7DDFF174BA58AE28A14
:1027B000586342EA054221695A64628BD963521B0D
:1027C0001A642568082D0ED19A611A6158620F4A61
:1027D000207F42EA0062DA61E2681A620C4A5961BB
:1027E000D9601A6038BD0022D8611A61E1680A0A0E
:1027F0004809C1F3C40102F4784200F4FC600243CA
:102800000A439A63034AECE700B002400900010062
:10281000012302000123030008B50B280BD8DFE8D1
:1028200000F00612100A0A0A0A080808080802201E
:1028300008BD0520FCE7054B6F21054A054832F02D
:1028400003FD0020F4E70120F2E700BFE56A03087A
:10285000946B03084B6B03082DE9F04191F81D8040
:102860000C464046FFF7D8FFA77F05463846FFF7DE
:10287000D3FF06463846FFF775FFA18A628B434BAC
:10288000521A1A649A61228B521A1A61E28A5863A8
:1028900042EA014221695A646268D963DA602068B9
:1028A000802828D0227F0FD8202866D0402864D0E6
:1028B00004281AD045EA0265344BB84545F4003582
:1028C000DD6160D0324A44E0B0F5807F04D0B0F5DD
:1028D000007FEFD12F4800E02F4840EA0262DA6122
:1028E000E2681A625E62596132E045EA026242F4CD
:1028F0000032DA61F6E7A068021DDA62227F45EA5B
:10290000026545F40035DD615E625961017841B1CF
:10291000012921D0214B4FF48D71214A214832F0F9
:1029200093FCDA69418822F47F42013922F01002D7
:1029300042EA01220121DA61144BDA6942F02002F5
:10294000DA61DA699206FCD410229A600029B9D0C3
:10295000154A1A60BDE8F081B2F1FF01DA694088DA
:1029600022F47F4218BF0121013822F0100242EA0E
:10297000002242F01002DA61DEE745EA0262034B10
:1029800042F40032B5E742F20132E2E700B0024021
:1029900001230100090002000A000200DE6B0308A7
:1029A000F86B03084B6B030801230200024B1B6802
:1029B000586803685B691847647B012070B504465A
:1029C0000A4B0C3000262546602260602672667233
:1029D00045F8203B294618F059F804F55A63EE6093
:1029E00024359D42FBD1204670BD00BF406C0308DA
:1029F000034B1A68D207FCD423229A60704700BFA9
:102A000000B00240094B5A69D2030AD5BFF34F8F79
:102A100008440029A0EB010204DCBFF34F8FBFF391
:102A20006F8F70472039C3F86822F2E700ED00E0AD
:102A300030B5104C2568ED07FCD423250904FF2B85
:102A4000A56041F001014FF0020565636164E06338
:102A50000AD00949656241EA0363E361074B2262D8
:102A60006061E060236030BDE561039BA363044BBC
:102A7000F8E700BF00B002400900010001000200B9
:102A80000100030030B50F4C2568ED07FCD4232569
:102A90001204FF2BA56042F001024FF002056563AE
:102AA0006264E063E16008D01B0643F00213E36157
:102AB000054B65626061236030BD044BE361012317
:102AC000F9E700BF00B0024001000200020002FF6F
:102AD00030B50B4C2568ED07FCD4232512041B06EA
:102AE000A56042F00102022543F40033656362648D
:102AF000E063E160E361034B65626061236030BDC8
:102B000000B00240010002004069704790F84400A4
:102B10007047036B23B9C06A003818BF01207047A3
:102B20000120704780687047043010B50C460FC80C
:102B300084E80F0010BD704708B5034A40F2122127
:102B4000024B034832F080FB886C0308298D030890
:102B5000E36C030810B50446482131F02EFC2046F2
:102B600010BD00002DE9F0431C46436BADF51F7D01
:102B700005460E461746002B37D0002203A8DFF883
:102B8000A890CDE901320FF0EDFB4FF4F472502123
:102B9000249024A809F09BFB3A46314624A80AF069
:102BA000EFFA012124A809F08DFC022324A88DF856
:102BB000D83009F028FDBDF898322B9ABDF89C62F8
:102BC0009342A89F28BF1346419A964203EB4308BD
:102BD000A7EB430728BF1646479B9E4209D824A867
:102BE00009F092FC24A809F0BFFB0DF51F7DBDE89C
:102BF000F083012201A924A809F04EFD6B6B03EBC1
:102C00000800984201D83C44E6E759789A78C90010
:102C100009EA022201F4FC610A4313F8031B42EAA9
:102C2000D10224F8022BECE700F8FFFF0A4A026009
:102C30000022C0E90522C0E90722C0E90922C0E953
:102C40000B22C0E90D12C0E90F2280F84420C0E930
:102C50000322C0E901227047C06F030810B40C467C
:102C600011461A46036B3BB1036C806BE41A204497
:102C70005DF8044B32F0ACBDC06AF8E7036B10B5E9
:102C800073B1036C826BC91A5318525C98785C78E4
:102C90000004DB7840EA0420104340EA036010BDE2
:102CA000C36A5858FBE7036B43B1036CC91A836BC3
:102CB0005A18585C527840EA02207047C36A585A42
:102CC0007047000070B50446006B0D461646D8B13B
:102CD000E36B934208D209230D4A65210D4884F81D
:102CE00044300D4B32F0B0FA0368DB689847206B34
:102CF0003246A16B03681B69984710B90D2384F80D
:102D00004430A06B256470BDE06A0844FBE700BF57
:102D10004B6D0308E36C0308386D03082DE9F84395
:102D2000436904462BB9234BAA21234A234832F096
:102D30008BFA08228169FFF7C5FFA16943F23006CB
:102D400046F2643704312046FFF798FFA369184420
:102D5000A36A00F108029A4206D3012300206361AE
:102D6000236AA361BDE8F88363690930082201334F
:102D700020F0010120466361A161FFF7A3FFD4F8B1
:102D8000189020464946FFF78EFF09F10201804660
:102D90002046FFF788FF09F1040105462046FFF7AA
:102DA0006DFFB045D2D1BD42D0D10028CED0012098
:102DB000D8E700BF8D6D0308D66D0308E36C0308E8
:102DC0002DE9F04F0446ADF51F7D8A461646816910
:102DD00008229846FFF776FFA7692046391DFFF7BE
:102DE0004DFF07F10801024605462046FFF76AFF3E
:102DF000636B074633B93C4B40F2AB113B4A3C484E
:102E000032F022FA002203A8CDE901320FF0AAFA2B
:102E10004FF4F4725021249024A809F058FA2A465D
:102E2000394624A80AF0ACF9012124A809F04AFB8C
:102E3000022324A88DF8D83009F0E5FBBAF9025036
:102E4000479BAB4229D3BAF900904FEA4808BAF839
:102E500004702B9B08FB05664F44BAF80250DFF85C
:102E600094B03FB29F4228BF1F46BAF8063009EB24
:102E7000490A1D44419B2DB29D4228BF1D46479BD8
:102E8000AB4210D324A809F03FFB24A809F06CFA48
:102E900001200DF51F7DBDE8F08F012201A924A8B6
:102EA00009F0FAFBCCE7012201A924A809F0F4FB00
:102EB000626B49465244B94202F1030201D34644CF
:102EC000DDE712F8020C12F8013CC0000BEA032304
:102ED00000F4FC60034312F8030C43EAD00326F825
:102EE00011300131E7E700BF096E03085F6E030888
:102EF000E36C030800F8FFFF0129036838BF0121D4
:102F0000DB6A70B50D4604469847A84204D2236890
:102F10002046DB6A984705466B1EE669102220466C
:102F200006EB031606F10801FFF7CCFE06F11001CF
:102F30002046FFF7A3FE236A043B0344C4E905537C
:102F400070BD0000002148222DE9F0410446816156
:102F500080F84410FFF7B6FEA6690423624A3146A2
:102F60002046FFF77BFE40B10323604AF22184F83C
:102F700044305F4B5F4832F067F906F108010423E3
:102F80005D4A2046A161FFF769FE30B10423574A2C
:102F9000FA2184F84430594BECE706F10C01042384
:102FA000574A2046A161FFF759FE074638B105236D
:102FB0004E4A40F2011184F84430524BDAE706F1F0
:102FC00010012046FFF75AFE054620B94E4B40F24D
:102FD0000711464ACEE706F1140804234B4A20465F
:102FE0004146FFF73BFE002849D0062384F84430D1
:102FF0000423474A06F118012046FFF72FFE002858
:103000003FD0072384F844304544424F0C222046E9
:103010002946FFF757FE05F1080604233A462046E5
:103020003146FFF71BFE94F84430002848D0002BAF
:1030300048D1A36AAB4249D805F10C0304352046B8
:10304000A3612946FFF71AFE3044294660622046F4
:10305000FFF714FE0644042220463146FFF732FEF5
:1030600004232D4A31462046FFF7F8FD002838D1C9
:103070000123E6616361A3692362BDE8F081012752
:10308000B6E7002FC0D006F120012046FFF7F6FD7D
:103090004FF47A7306F13001B0FBF3F06060204624
:1030A000FFF7ECFD06F14001A0602046FFF7E6FDCA
:1030B00006F14401E0602046FFF7E0FD2061A3E750
:1030C000002BB9D00A2384F84430D6E7291D2046C6
:1030D000FFF7D4FD85190C2220462946FFF7F2FDA3
:1030E00099E70B23EFE700BFB96E0308D76E03081B
:1030F000BE6E0308E36C0308046F0308096F03083E
:10310000216F0308266F03083C6F0308486F03080C
:103110004D6F0308526F0308576F0308C0E90A2177
:1031200000220263FFF70EBF10B5002304460846D5
:10313000E3620B6821639B689847A0622046BDE864
:103140001040FFF7FFBEF0B4069FBDF81050BDF869
:10315000146032B12BB10495CDE90567F0BCFFF7DF
:1031600001BDF0BC704700002DE9F04F994643695E
:1031700085B004460F4690462BB9294B7721294A42
:10318000294832F061F808228169FFF79BFDA669A2
:1031900020463146FFF787FDB11C83462046FFF7E6
:1031A00082FD311D82462046FFF768FD06F10801C9
:1031B000A36A054642189A4226D243F230039B4541
:1031C00017D146F264339A4513D190B10246A161FA
:1031D0002046FFF777FD0E9B01462A462046CDF894
:1031E0000080CDE901933B46FFF7ADFF63690133F2
:1031F0006361A3692B4405B908330133626A23F084
:1032000001039342A36109D1012301206361236A71
:10321000A36180F0010005B0BDE8F08F0020F8E761
:103220008D6D03085C6F0308E36C03080120704791
:103230000C2070470C2303FB0100083070470C235F
:1032400003FB0100083070470120704742F2A8607C
:10325000704742F2A86303FB01000830704742F256
:10326000A86303FB0100083070470120704710205D
:10327000704700EB01100830704700EB0110083078
:103280007047084600F0E4BF034B10B504460360E6
:1032900016F072F8204610BD6870030810B5044699
:1032A000FFF7F2FF1421204631F087F8204610BDC9
:1032B000034B10B50446036016F05EF8204610BDBF
:1032C0003470030810B50446FFF7F2FF42F2B06114
:1032D000204631F072F8204610BD0000034B10B5B7
:1032E0000446036016F048F8204610BD007003083D
:1032F00010B50446FFF7F2FF1821204631F05DF8C3
:10330000204610BD094B10B50446036000F51B5064
:103310001C30FFF7B9FF04F12C00FFF7C9FF04F1DF
:103320001400FFF7DBFF204610BD00BF9C700308B0
:1033300008B50248FFF7E6FF08BD00BF981500205A
:1033400010B50446FFF7DEFF42F65001204631F08B
:1033500034F8204610BD00002DE9F34100F048FD8F
:103360000024054600F048FD234601462246284633
:10337000009421F009F9274B274A2046274D1A606F
:1033800002F05CFF264B274A27489A6021F064F838
:103390002B68BFF35B8FDB0736D4284631F00FF87C
:1033A00090B3224C224F234B04F1140007F118066E
:1033B00004F12C0823606060C4F80880E76026618F
:1033C00015F0DCFF1C4B4046636115F0D7FF1B4B2B
:1033D0003846E36215F0D2FF04F50053184A03F5AE
:1033E000DE60C3F8DC2602F0B9FF224607F11401C3
:1033F000304602F0A9FF304600F02AFF114831F0B4
:1034000041FF284630F0E7FF0F4802B0BDE8F04129
:10341000FFF70CB8C87B012044070020941500205A
:10342000640700204807002018000020981500209D
:10343000743C00209C70030800700308347003087B
:103440006870030831330008C80600207047000088
:10345000014816F072BC00BFC806002070B5244EAB
:10346000244B254C3046254D2360FFF7A7FA28460C
:1034700026F09CF922481EF023FB224B00224FF439
:10348000807121481A8683F858205A6683F8702084
:103490005A67DC60C3E912121C49C3E91A121C49BD
:1034A00099671C490B604FF4F07101801A48018044
:1034B0004FF488711948C3E90422C3E90622C3E91D
:1034C0000822C3E90A22C3E90E22C3E91022C3E994
:1034D0001422C3E91722C3E901650180104883F86B
:1034E000342001800F490A700F4A1A6070BD00BF76
:1034F000F00700208467030890150020640700206F
:1035000048070020C8060020587B01200100000168
:1035100000000101647B01205E7B01205A7B0120B9
:10352000607B01205C7B0120106903080148FFF7E4
:10353000FDB800BFF0070020002070478180704771
:10354000C180704701817047418170477047704763
:1035500070477047704710B4C4880368121B848892
:103560005B6D091B12B25DF8044B09B218474FF6A8
:10357000FF7383814FF0FF3303621368C3611060F0
:103580007047002070478B88838001207047704708
:1035900080F82610704790F826007047002210B57A
:1035A000B1F90840B1F90A10028042808480C180DC
:1035B00010BD0022028042808280C2807047017765
:1035C000704780ED080A704780F82410704780F833
:1035D0002510704701207047983070478C30704735
:1035E0008430704770470000034B902283F85A23C1
:1035F00083F85823704700BF00E100E0094A0A49F8
:10360000D3680A48C3F30A03013B9BB20B801169DC
:10361000C1F30A01013901801364536B43F00103C4
:103620005363704700680140EA3D0020E83D0020F8
:10363000014BD3F8AC00704700680140024B0122F7
:10364000C3F8AC105A62704700680140124A5369CF
:10365000DB0370B51ED50023C2F88430BFF34F8F53
:10366000D2F8803043F6E074C3F3C900C3F34E339D
:103670005B0103EA0406014646EA81750139C2F896
:103680007452F9D2203B13F1200FF2D1BFF34F8FC8
:10369000BFF36F8F70BD00BF00ED00E07047704753
:1036A00070473823002201FB0333C25490F83830AE
:1036B0000BB9036C83647047704780F84C107047F7
:1036C00010B50446582130F078FE204610BD10B5E4
:1036D00004462C2130F071FE204610BD10B5044682
:1036E000BC2130F06AFE204610BD000038B504460B
:1036F00016F00FFB23685D6E1DF06AF80146204648
:10370000A8472368084A2046D3F888500023A2F52A
:103710007F31A847054B064A5A60064A1A649A64E4
:103720004FF4FF225A6438BD00F807C0AC3E0020B9
:10373000043F002000F40BC016F0D2BA16F0DCBA39
:1037400016F098BA16F007BC90F8252012B103685D
:103750005B6918477047000008B531B1044B40F26F
:103760009711044A044831F06FFD90F8390008BD04
:10377000A8700308BC7003084972030810B531B182
:10378000064B40F29111064A064831F05DFD406853
:1037900011460368BDE810401B6B1847A87003086A
:1037A0008B7203084972030808B529B1034B7A21CB
:1037B000034A044831F048FD006908BDA8700308B9
:1037C0003C7403084972030808B529B1054B8321ED
:1037D000054A064831F038FD41618160C0E9063292
:1037E00008BD00BFA8700308F475030849720308F8
:1037F00010B5044629B1274BA421274A274831F0A8
:1038000023FD052A34D8DFE802F003292F34393E9E
:10381000406803681B69984750B34FF0FF31606DF3
:1038200006F022FB0023012294F83E1084F83B307E
:1038300084F83920A360636101B1226284F83E30CC
:103840006362E36A2BB90123206D84F83A3006F0F5
:10385000FBFB606DBDE8104006F036BB002380F82E
:10386000393084F83E3003E0036200238360436113
:1038700010BD0362002383604361F2E7002380F8F8
:1038800039300123EDE7003B18BF012380F83D30BC
:10389000EEE700BFA8700308B37703084972030876
:1038A00090F825201AB190F8242002B118607047D2
:1038B00070B50446164629B1314BE721314A3248EA
:1038C00031F0C2FC90F8393033B1304B1B6893F8BB
:1038D0006B20436913444361E36A002B4DD0E169D7
:1038E000D4E905325343A2684A43934220D2236A63
:1038F000002B42D04FF0FF31606D06F0B5FA236A1D
:103900000BB10023E362E36AFBB90125606D06F0A9
:10391000DBFA94F839300BB9236A3BB1E36A2BB96F
:103920000123206D84F83A3006F08EFB284670BDE6
:1039300094F84C000028DDD09B1AB3FBF1F29942B9
:1039400098BF02F1FF326262D4E7002294F83C5043
:10395000A3623046E262E2682261A2680132A2609C
:10396000336333685B699847002DCED194F83D30BE
:10397000002BCBD184F83950C8E70125C9E700BF37
:10398000A87003088A79030849720308647B012040
:10399000034B4FF080629A604FF080729A607047DC
:1039A00000E100E0084B4FF08062C3F88820BFF3CD
:1039B0004F8FBFF36F8F4FF08072C3F88820BFF333
:1039C0004F8FBFF36F8F704700E100E038B50346BB
:1039D00090F8380038BB01229860D8609A634FF4A1
:1039E000807258619A874FF4F0729861D8611862BA
:1039F00058629862D8621863586383F83E00CA869A
:103A00004FF4887281F834000A8708639A6C186151
:103A100002F5FF24D3E9101529448C420AD9084B3A
:103A20005821084A03E0084B40F2F511074A0848BC
:103A300031F00AFC1A6302F57F329C645A6338BD88
:103A4000E87C0308287D03082E7B03085E7B0308BF
:103A500049720308002370B5124E05468380124B4D
:103A60000360336893F858200AB1D86C00B998689D
:103A70000368DB6A98473368B0FA80F4D86C64094D
:103A800030B10368DB6A9847002808BF44F001049E
:103A90002CB9064B2C21064A064831F0D5FB2846A6
:103AA00070BD00BF647B0120D07F0308CE7E030879
:103AB0002C7F0308657F030870B5244E3568BFF37B
:103AC0005B8F15F001053FD1304630F078FC0028BF
:103AD0003AD01F4C1F4B04F134002561E584A562E8
:103AE000A585C4E90035C4E902551EF048FA04F181
:103AF000580019F0F3F8184B2046A365174B40F80F
:103B0000843BFFF7A7FF164B1648C4F884302433D4
:103B1000C4F89050C4F88C306423C4F89C50C4F8A6
:103B2000A850C4E928350023C4F8AC30C4F8B0303C
:103B3000C4F8B430C4F8B8300B4BC4F8983031F046
:103B4000A1FB304630F047FC014870BDEC3D002041
:103B5000F03D0020F0B20308F07F030868800308FE
:103B6000A4B20308E535000884B2030810B5144C6C
:103B7000236823B3134B144A1B6C11888B4213D157
:103B8000124B198804F068FD226892F86A300133FC
:103B900082F86A30FEF774FD206816F007FE0020F8
:103BA000BDE81040FEF772BB04F056FD20680368C4
:103BB0001B6A98470020BDE81040FEF797BB10BD78
:103BC000647B012000680140EA3D0020E83D0020C0
:103BD0002DE9F74304464FF4707894F83A304FF0EB
:103BE000FF31002B31D0606D06F03EF9276BA36AE0
:103BF000BB4200D1676B266A656856B32B683146B5
:103C000028465B6A98470023236284F83B30606D46
:103C100006F05AF92B684FF4F0723946CDF800805F
:103C200028465E694FF48873B0474FF0FF3106466F
:103C3000606D06F019F994F83B30E3B1002384F885
:103C40003B30606D06F040F9C7E7206D06F0C0F923
:103C5000C3E7636A002BDAD02B682846D3E90993BF
:103C60009847616A01442846C847A368626A666249
:103C70001344A360CBE7E7625EB12B6828469B6ADA
:103C8000984701380023E06084F83C6084F83A30BB
:103C9000D7E70120F6E70000014808B5FFF798FFD5
:103CA000AC3E00200368042270B504465E6A00231F
:103CB0000D46B0474FF0FF31606D06F0D5F8382360
:103CC00003FB0542D16A09B10021D16203FB05451E
:103CD000012385F83B30002385F83930606DBDE85D
:103CE000704006F0F1B838B500EB810304460D468C
:103CF000114658680368DB68984729462046FFF755
:103D0000D1FF38BD70B50D461146044600EB850263
:103D10005068026896681A46B04729462046FFF761
:103D2000C1FF70BD38B5164900251648FEF77EFF65
:103D3000154C164B01202A46294623604FF4807308
:103D4000A564A38784F84C0084F83E50C4E910555C
:103D5000C4E91455C4E90155C4E90355C4E905553E
:103D6000C4E90755C4E90955C4E90B55C4E90D5523
:103D700006F0D6F82065284606F034F8606538BDB0
:103D80004C3F0020043F0020AC3E0020B4800308DC
:103D9000704708B5062921D8DFE801F004080C10A7
:103DA00014181C0002F096FA006808BD02F092FA9E
:103DB0004068FAE702F08EFA8068F6E702F08AFAC5
:103DC000C068F2E702F086FA0069EEE702F082FAD4
:103DD0004069EAE702F07EFA8069E6E70020E4E75E
:103DE00010B50446042130F0E8FA204610BD00006A
:103DF00000487047008103080420704713B5002471
:103E000051B1036801AA01948DF803409C680DF13B
:103E10000303A04702B010BD0846FBE7C089704706
:103E2000008A7047C088704780887047807A00F0A9
:103E30007F007047807AC0097047002070470000FB
:103E40009FED010A704700BF00000000704710B5E9
:103E50000446082130F0B1FA204610BD7047704783
:103E600000F598730868496803C370477047704746
:103E70004160704770470000064BC0F84801C0F829
:103E80004C310023C0F8503100F5A273C0F8403126
:103E9000704700BF854000080123037270477047D8
:103EA000704710B441680346C2689B68541001EB28
:103EB0006200D20748BF0A595DF8044B48BFD35887
:103EC00018470346406830B19A681AB9D86800F0BC
:103ED000010070470120704710B504460C2130F0F6
:103EE0006CFA204610BD10B50446102130F065FA7A
:103EF000204610BD10B504464FF4AE7130F05DFAA7
:103F0000204610BD10B51CF063FC0368BDE81040EE
:103F1000DB6B184710B50446D0F8400158B1036870
:103F2000DB68984738B1D4F8400103689B6898472C
:103F30000023C4F8403110BD2DE9F14FD0E9556A96
:103F40000746B06803681B6A984742F2A763984225
:103F500005D8444BA321444A444831F075F97068B0
:103F600003681B6A98470F2803D8414BA4213E4A97
:103F7000F2E7F06803681B6A98470B2803D83D4BAB
:103F8000A521394AE8E7DFF8F4901CF021FC043061
:103F90001CF05CFCD9F8000010B10368DB6898479E
:103FA000D9F8000010B103681B689847DFF8D0808B
:103FB000D8F8000010B103685B699847D7F83C0156
:103FC00010B103685B689847D8F8000010B1036827
:103FD0001B689847D7F83C0110B103689B68984765
:103FE000F06800214FF0000B03685B6A9847224B92
:103FF0000446C0F804B080F808B059460360B068C1
:1040000003685B6A9847054602F07CFC7068594675
:1040100003685B6A98470646294602F051FC331D47
:10402000C7F83C612846C9F80040C8F80050CAF8F3
:1040300000302B68C6F808A0DB68EE639847336849
:1040400030461B689847214628461EF0EBFC236843
:1040500020461B699847236820465B6901B0BDE88C
:10406000F04F184760810308EE810308BC82030803
:1040700003830308A683030890850308AC7B012013
:10408000A87B01202DE9F14FD0E9556A0746B068B9
:1040900003681B6A984742F26363984205D8444B11
:1040A000A321444A444831F0CFF8706803681B6A82
:1040B00098470F2803D8414BA4213E4AF2E7F06805
:1040C00003681B6A98470B2803D83D4BA521394A42
:1040D000E8E7DFF8F4901CF07BFB04301CF0B6FB43
:1040E000D9F8000010B10368DB689847D9F80000E0
:1040F00010B103681B689847DFF8D080D8F800003B
:1041000010B103685B699847D7F83C0110B10368A8
:104110005B689847D8F8000010B103681B6898479F
:10412000D7F83C0110B103689B689847F0680021FC
:104130004FF0000B03685B6A9847224B0446C0F8B7
:1041400004B080F808B059460360B06803685B6A41
:104150009847054602F05EF97068594603685B6A45
:1041600098470646294602F033F9331DC7F83C61EB
:104170002846C9F80040C8F80050CAF800302B683B
:10418000C6F808A0DB68EE639847336830461B68C2
:104190009847214628461EF045FC236820461B69A7
:1041A0009847236820465B6901B0BDE8F04F184787
:1041B0006081030849840308BC8203080383030861
:1041C000A683030890850308AC7B0120A87B01200F
:1041D000044B1B6893F858200AB1D86C00B9986852
:1041E000704700BF647B0120F8B5174604460E46B1
:1041F0001CF0FEFB124B00251C602946114B23606E
:10420000114BC4E95135114B1868C4E95355036883
:10421000C4E94F559B68C4E955769847284602F093
:104220000DF8FFF7D5FF27F014F9FFF7D1FF27F0BE
:104230008BF9FFF7CDFF27F093F92046F8BD00BFBB
:10424000B87B01203C85030824850308647B01209A
:10425000064BC0F84801C0F84C310023C0F850317B
:1042600000F5A273C0F84031704700BF85400008D8
:10427000064BC0F84801C0F84C310023C0F850315B
:1042800000F5A273C0F84031704700BF393F000805
:10429000406A7047806A704770478B88C069DB0A44
:1042A0000A6850F823001044704710B50446BAB1AC
:1042B000107B68B1537BD27A1B0203F4E0631A438C
:1042C000236A03EB82031A888A4202D193F902001F
:1042D00010BD05D80138043380B20028F3D1F7E7C8
:1042E0000020F5E710B504462C2130F066F8204692
:1042F00010BD000030B58BB00446BDF86050089585
:10430000BDF85C5007959DF8505006959DF84C50AF
:1043100005959DF8485004959DF8445003959DF8E7
:10432000405002959DF83C500195BDF838500095DD
:104330001DF0E2FE064B20462360159BE361169BB1
:104340002362199B63621A9BA3620BB030BD00BF4E
:10435000B48503087047704770477047704730B5A1
:1043600085B00368044601816D460146D3F8843068
:104370003C342846984795E8070084E8070005B0D4
:1043800030BD30B585B00368044641816D460146B5
:10439000D3F884303C342846984795E8070084E8F1
:1043A000070005B030BD0022028042808280C280BA
:1043B000704780F836107047036870B504461B6B71
:1043C000154698472368204629465B6EBDE8704035
:1043D000184700207047806C70477047704710B5D1
:1043E00004464C212FF0E9FF204610BD034B10B5C9
:1043F000044603601AF0D8FC204610BD6488030808
:10440000064B10B5044603601AF0CEFC42F264611C
:1044100020462FF0D2FF204610BD00BF648803085D
:1044200008B51CF0D5F9BDE80840FFF721BF08B575
:10443000FFF78AF908BD0000036870B55E6B04469B
:10444000114B8DB21B682BB9104B6C21104A1148CF
:1044500030F0FAFE1049828D0988914203D80F4B43
:104460006D210B4AF3E713F812200D4B1B6853F82C
:10447000220003681B6B9847291A3346204609B26D
:10448000BDE87040184700BFBC7B012014860308BC
:104490005686030891860308C07B0120D88603084E
:1044A000C47B0120036870B504461B6B1546984712
:1044B0002368204629465B6BBDE87040184770B5FD
:1044C00004461D46BDF91060FFF7ECFF236829463E
:1044D00020469B6B9847236831462046DB6BBDE83E
:1044E000704018470022C0E90122C0E90322C0E958
:1044F0000522C0E907224FF480728284014A0260DB
:10450000704700BF6C87030838B504460D46262265
:10451000002131F055F92046FFF7E4FF064B204615
:10452000294623602B88E384FF2384F8283019F080
:1045300036FD204638BD00BF98B7030800224FF073
:10454000FF318260C0E90021704710B50446FFF7D3
:10455000F5FF204610BD000010B5044600212622BC
:1045600031F02EF92046FFF7BDFF094B4FF47F02D3
:1045700004F13C002360074BA3624FF6FF73A38551
:104580000023C4E90C322387FFF7D8FF204610BD73
:10459000B8B503085881030810B50446FFF7DCFFDF
:1045A000024B204623600023A36410BDD487030878
:1045B0002DE9F04F0446A7B000271EF087F8A0466B
:1045C000A64B26223946E76304F16C0648F8403BC7
:1045D000404631F0F5F84046FFF784FFA04B04F564
:1045E000037930462364FF23A7664FF6FF7584F8EE
:1045F00066304FF4887A19F021FB4846FFF7CCFF6C
:1046000004F5167304F6B81B18460393FFF7C4FFAE
:1046100004F5297318460493FFF7BEFF04F53C73B5
:1046200018461093FFF798FF04F54E73184605934C
:10463000FFF7B2FF04F5617318460693FFF7ACFF6E
:1046400004F5747318461193FFF7A6FF04F21C4398
:1046500018461293FFF7A0FF04F58D6318461393D5
:10466000FFF79AFF04F2B44318461493FFF794FF40
:1046700004F5A06318461593FFF78EFF04F24C5320
:1046800018461693FFF788FF04F5B363184617938F
:10469000FFF782FF04F2E45318460793FFF75CFF2D
:1046A00004F22C6318460893FFF756FF04F2746374
:1046B00018460993FFF750FF04F2BC6318460A93AB
:1046C000FFF74AFF04F2047318460B93FFF744FF09
:1046D00004F24C7318460C93FFF73EFF04F29473F8
:1046E00018461893FFF758FF04F5FC631846199312
:1046F000FFF752FF04F62C0318460D93FFF72CFF2B
:1047000004F6740318460E93FFF726FF04F6BC0365
:1047100018460F93FFF720FF04F6041323A9ADF802
:104720008C5018461A93FFF7EFFE04F5136323A984
:10473000ADF88C5018461B93FFF7E6FE04F65C13A9
:10474000251D18461C9317F065FD04F6A4131846A2
:104750001D93FFF77FF9434B4FF4E15104F64420DA
:10476000C4F8A4392433C4F8B079C4F8AC391AF0C9
:1047700011FB3A4640464FF4F0733946CDF800A09D
:10478000FFF79DFE4FF07F4341462846A3664FF05A
:10479000FF3814F0D5FF304623A9ADF88C7014F023
:1047A00061FF4FF4F07330463A463946CDF800A029
:1047B000FFF785FE30468822F02119F0EAFA3046EC
:1047C00064226FF0B30119F069FB3B4642F22832D4
:1047D00030463946009714F0F2FD30463946DFF88E
:1047E0009CA019F005FB862308223046022119F00F
:1047F000BBFA3046012119F059FA3046012119F06F
:1048000058FA314628461EAE14F09AFFB022FD2118
:104810004846FFF747FED4F80C3249463046D3F8F5
:104820008430C4F83C82A4F84072984704F51273AF
:1048300096E8070083E80700DAF800302BB90A4B46
:1048400060210A4A0A4830F0FFFC0A4B1B881C2BE7
:1048500016D8094B6121054AF4E700BF64880308B4
:1048600048B60308A4B20308148603081687030891
:1048700091860308C07B0120D8860308BC7B0120F9
:10488000D24B1C21186801F015FDD14A03460521C1
:1048900058461FF0D9FB4846C4F854B219F010F935
:1048A000DFF834B34123484623A9CDF88CB0ADF8E6
:1048B000903019F025F94946284614F041FFB022FE
:1048C0004FF48F710398FFF7EDFDD4F85832039938
:1048D0003046D3F8843004F6C219C4F88882A4F8AC
:1048E0008C72984704F5257396E8070083E8070063
:1048F000DAF80030002BA2D0B64A13881D2BA8D9B5
:10490000B24B1D21186801F0D5FCB14A03460521C0
:1049100048461FF099FB0398C4F8A09204F6CC19FE
:1049200019F0CEF8402323A90398ADF89030CDF8C4
:104930008CB019F0E5F80399284614F001FFDF2246
:10494000FC210498FFF7AEFDD4F8A4320499304658
:10495000D3F88430C4F8D482A4F8D872984704F508
:10496000387396E8070083E80700DAF80030002B78
:104970003FF465AF974A13881E2B7FF66AAF934BBF
:104980001E21186801F096FC914A0346052148460D
:104990001FF05AFB0498C4F8EC9204F6D61919F0EB
:1049A0008FF83F2323A90498ADF89030CDF88CB050
:1049B00019F0A6F80499284614F0C2FEE02240F24D
:1049C0002D111098FFF76EFD10993046C4F8208322
:1049D000A4F8247318F0FAFD04F54B7396E8070069
:1049E00083E807003E2323A91098ADF89030CDF856
:1049F0008CB019F085F81099284614F0A1FE082211
:104A000018210598FFF74EFDD4F838330599304644
:104A1000D3F88430C4F86883A4F86C73984704F51D
:104A20005D7396E8070083E80700DAF80030002B92
:104A30003FF405AF674A1388232B7FF60AAF634B19
:104A40002321186801F036FC614A034605214846D7
:104A50001FF0FAFA0598C4F8809319F031F83D2355
:104A600023A90598ADF89030CDF88CB019F048F82E
:104A70000599284614F064FE862212210698FFF755
:104A800011FDD4F8843330460699D3F88430C4F845
:104A9000B483A4F8B873984704F5707396E80700D8
:104AA00083E80700DAF8003004F51E66002B3FF4B7
:104AB000C6AE484A1388212B7FF6CBAE434B21214B
:104AC0004FF0FF3A4FF00009186801F0F3FB404A3D
:104AD000034605213046DFF804811FF0B5FA069839
:104AE000C4F8CC6323AE18F0EBFF352331460698AB
:104AF000ADF89030CDF88CB019F002F80699284640
:104B000014F01EFE472213211198FFF7CBFC30460C
:104B1000C4F800A404F6EA1BA4F80494FFF70EFD01
:104B200004F20C4396E8070083E80700D8F8003049
:104B3000002B3FF484AE274F3B88222B7FF689AEB3
:104B4000224B2221186801F0B5FB214A03460521BA
:104B500058461FF079FA1198C4F818B404F6F41BFB
:104B600018F0AEFF1C493A23119823913146ADF855
:104B7000903018F0C5FF1199284614F0E1FDE522A8
:104B800042211298FFF78EFC3046C4F84CA4A4F8DA
:104B90005094FFF7D3FC04F58B6396E8070083E895
:104BA0000700D8F80030002B3FF449AE3B881F2B9C
:104BB0007FF64FAE054B1F21186801F07BFB044ABE
:104BC0000346052158461FF03FFA09E0C87B012043
:104BD000A0A50308C07B012058810308BC7B0120ED
:104BE0001298C4F864B404F6FE1B18F069FFD549A6
:104BF0002D23129823913146ADF8903018F080FFA4
:104C00001299284614F09CFDC72242211398FFF701
:104C100049FC3046C4F898A4A4F89C94FFF78EFC95
:104C200004F2A44396E8070083E80700D8F80030B0
:104C3000002B3FF404AE3B88202B7FF60AAEC24B1C
:104C40002021186801F036FBC04A0346052158466A
:104C50001FF0FAF91398C4F8B0B418F031FFB9494D
:104C60002C23139823913146ADF8903018F048FF6B
:104C70001399284614F064FD082240F2A3111498F9
:104C8000FFF710FCC4F8E4A43046A4F8E894FFF75A
:104C900055FC04F59E6304F6082A96E8070083E8AD
:104CA0000700D8F80030002B3FF4C9AD3B88292B12
:104CB0007FF6CFADA44B2921186801F0FBFAA34A77
:104CC0000346052150461FF0BFF91498C4F8FCA410
:104CD00018F0F6FE9B493423149823913146ADF821
:104CE000903018F00DFF1499284614F029FD862203
:104CF0004FF4CC711598FFF7D5FB6FF0FF033046EA
:104D0000A4F83495C4F83035FFF718FC04F23C538E
:104D100096E8070083E80700D8F8003004F612266A
:104D2000002B3FF48CAD3B88252B7FF692AD864B54
:104D3000252123AFDFF80C9218684FF0000801F02E
:104D4000B9FA824A0346052130461FF07DF91598CD
:104D5000C4F8486504F61C2618F0B2FE382339461C
:104D60001598ADF89030CDF88C9018F0C9FE1599D3
:104D7000284614F0E5FC472240F2A3111698FFF7ED
:104D800091FB6FF0FF033846A4F88085C4F87C35AA
:104D9000FFF7D4FB04F5B16397E8070083E8070049
:104DA0006B490B68002B3FF44AAD6A4A1388272BE6
:104DB0007FF64FAD644B27214FF0FF3A186801F0A2
:104DC00079FA624A0346052130461FF03DF91698EC
:104DD000C4F8946504F6262618F072FE332339468B
:104DE0001698ADF89030CDF88C9018F089FE169991
:104DF000284614F0A5FCC72240F289111798FFF746
:104E000051FB3846C4F8C8A5A4F8CC85FFF796FB3B
:104E100004F2D45397E8070083E807004C490B6875
:104E2000002B3FF40CAD4B4A1388242B7FF611ADB9
:104E3000454B24214FF0370B186801F03BFA434AE9
:104E40000346052130461FF0FFF81798C4F8E065C7
:104E50001EAE18F035FE39461798ADF890B0CDF873
:104E60008C9018F04DFE1799284614F069FC5A46AC
:104E700009210798FFF716FB07993046C4F814A6D6
:104E8000A4F8188618F0A2FB079800F13C0396E8F6
:104E9000070083E807004FF03C003946CDF88C90BE
:104EA000ADF89000079818F02BFE0799284614F0EB
:104EB00047FCB32209210898FFF7F4FA0899304615
:104EC000C4F85CA6A4F8608618F080FB089800F18E
:104ED0003C0396E8070083E8070032233946089828
:104EE000ADF89030CDF88C9018F00AFE089928465D
:104EF00014F026FCF72209210998FFF7D3FA099943
:104F00003046C4F8A4A6A4F8A88618F05FFB099858
:104F100000F13C0396E8070083E807002F23394699
:104F20000998ADF89030CDF88C9018F0E9FD09990A
:104F3000284614F005FCDB2209210A98FFF7B2FA93
:104F40000AE000BF58810308C87B0120A0A5030820
:104F5000BC7B0120C07B01200A993046C4F8ECA636
:104F6000A4F8F08618F032FB0A9800F13C0396E8AA
:104F7000070083E807002E2339460A98ADF89030E1
:104F8000CDF88C9018F0BCFD0A99284614F0D8FB97
:104F9000752209210B98FFF785FA0B993046C4F862
:104FA00034A7A4F8388718F011FB0B9800F13C03E4
:104FB00096E8070083E807003B2339460B98ADF8D5
:104FC0009030CDF88C9018F09BFD0B99284614F08A
:104FD000B7FB5A464FF4B9710C98FFF763FA0C9976
:104FE0003046C4F87CA7A4F8808704F5236B18F03A
:104FF000EDFA0C9800F13C0396E8070083E80700FF
:10500000312339460C98ADF89030CDF88C9018F0DB
:1050100077FD0C99284614F093FB232240F28B1164
:105020001898FFF73FFA3846C4F8C4A7A4F8C88711
:10503000FFF784FA04F5FA6397E8070083E80700AE
:105040008E490B68002B3FF4FAAB8D4A1388282B4E
:105050007FF6FFAB8B4B2821186801F02BF98A4AA9
:105060000346052158461EF0EFFF1898C4F8DCB738
:1050700004F63A2B18F024FD2B2339461898ADF886
:105080009030CDF88C9018F03BFD1899284614F01C
:1050900057FB622240F28B111998FFF703FA38464A
:1050A000C4F810A8A4F81488FFF748FA04F61C0303
:1050B00097E8070083E8070070490B68002B3FF46E
:1050C000BEAB6F4A1388262B7FF6C3AB6D4B2621F0
:1050D000186801F0EFF86C4A0346052158461EF0A7
:1050E000B3FF1998C4F828B818F0EAFC2A23394607
:1050F0001998ADF89030CDF88C9018F001FD199901
:10510000284614F01DFBB3220D9840F27711FFF7EB
:10511000C9F90D993046C4F85CA8A4F8608818F065
:1051200055FA0D9B96E807003C33CDF88C9083E848
:105130000700392339460D98ADF8903018F0E0FC9F
:105140000D99284614F0FCFA75220E9840F2811150
:10515000FFF7A8F90E993046C4F8A4A8A4F8A888C7
:1051600018F034FA0E9B96E807003C33CDF88C908B
:1051700083E80700302339460E98ADF8903018F0D8
:10518000BFFC0E99284614F0DBFAF5220F984FF475
:10519000B771FFF787F90F993046C4F8ECA8A4F867
:1051A000F08818F013FA0F9B96E807003C33CDF80F
:1051B0008C9083E80700362339460F98ADF890307D
:1051C00018F09EFC0F99284614F0BAFA3C221A985F
:1051D000D821FFF767F9032339461A98ADF88C30C8
:1051E00018F0DDFE1A99284614F0AAFA6C221B98D2
:1051F0004FF48671FFF756F9012339461B98ADF835
:105200008C3018F0CCFE1B99284614F099FA4FF414
:105210008873424641461C9800934FF4F073FFF7A1
:105220004EF94FF4F05328461C99C4F888394FF4CE
:105230008853C4F89C89C4F88C394FF40C53C4F8D3
:105240009489C4F890394FF4345384F88189C4F8B0
:1052500098394FF0FF23C4F8B0394FF4FC63A4F839
:10526000B4391D9BC4F88439842384F8823914F03E
:1052700067FA204627B0BDE8F08F00BFBC7B012055
:10528000C07B0120C87B0120A0A503087047000057
:10529000034B10B50446036019F086FD204610BD8F
:1052A0009C880308064B10B50446036019F07CFD8A
:1052B00042F2A86120462FF080F8204610BD00BFC2
:1052C0009C88030808B51BF083FABDE80840FEF788
:1052D000BFBF0000094A4FF4807102600022818440
:1052E000FF21826280F82610C0E90122C0E9032272
:1052F000C0E90522C0E90722704700BF48B603088D
:1053000010B4C46B4A01B4EB411F04D05DF8044BE8
:10531000C26317F0ADBE5DF8044B70472DE9F04F46
:105320000446ABB000251DF0D1F9A146E34B04F1D2
:105330006C0B04F19808E56304F1E00749F8403B81
:105340004846FFF7C7FF5846FFF7C4FF4046FFF740
:1053500003F93846FFF700F904F59473DFF860A30A
:1053600018460693FFF7F8F804F5B8730AF1240617
:1053700018460793FFF7F0F804F5DC731846089316
:10538000FFF7EAF804F5007318460993FFF7E4F80D
:1053900004F5127318460A93FFF7DEF804F5247338
:1053A00018460B93FFF7D8F804F5367318460C939C
:1053B000FFF7D2F804F5487318460D93FFF7CCF8C1
:1053C00004F55A7318460E93FFF7C6F804F56C738C
:1053D00018460F93FFF7C0F804F57E731846109334
:1053E000FFF7BAF804F5886318461193FFF7B4F88D
:1053F00004F5916318461293FFF7AEF804F59A632B
:1054000018461393FFF7A8F804F5A36318461493FE
:10541000FFF7A2F804F5AC6318461593FFF79CF864
:1054200004F5B56318461693FFF796F804F5BE63C6
:1054300018461793FFF790F804F5C76318461893BA
:10544000FFF78AF804F5D06318461993FFF784F83C
:1054500004F5D96318461A93FFF77EF804F5E26362
:1054600018461B93FFF778F804F5EB6318461C9376
:10547000FFF772F804F5F46318461D93FFF76CF814
:1054800004F5FD6318461E93FFF766F804F5036301
:1054900018461F93FFF760F804F678031846029346
:1054A00017F0C6FD04F6E80318462093FEF7D2FA7B
:1054B00004F6FC03C4F8E8A8C4F8F0681846C4F879
:1054C000F458039317F0B4FD04F66C1318462193B7
:1054D000FEF7C0FA04F51863C4F86CA9C4F874693F
:1054E0001846C4F87859049317F0A2FD04F51F6319
:1054F00018462293FEF7AEFA04F60423C4F8F0A986
:10550000C4F8F8691846C4F8FC59059317F090FDE3
:1055100004F6742318462393FEF79CFA04F68820B9
:10552000C4F874AA4FF4E151C4F87C6A4FF07F4A82
:10553000C4F8805A261D19F02DFC4FF488732A46B2
:105540002946484600934FF4F073FEF7B8FF4946EA
:105550003046C4F868A014F0F3F84FF488732A4674
:105560002946584600934FF4F0730DF19009FEF769
:10557000A6FF59463046C4F894A04FF0FF3A14F005
:10558000DFF8132240465A21DFF838B1FEF78AFFD0
:1055900041464846C4F8C8A0A4F8CC5018F016F804
:1055A00004F1D40399E8070083E807001B2328A926
:1055B0004046CDF8A0B0ADF8A43018F0A1FA4146AD
:1055C000304614F0BDF83B2238466421FEF76AFFEE
:1055D00039464846C4F810A1A4F814514FF0080801
:1055E00017F0F4FF04F58E7399E8070083E80700CD
:1055F000182328A93846CDF8A0B0ADF8A43018F08B
:105600007FFA3946304614F09BF8772206989E219F
:10561000FEF748FF06994846C4F858A1A4F85C5123
:105620000C2717F0D3FF04F5B27399E8070083E85D
:105630000700162328A90698ADF8A430CDF8A0B02D
:1056400018F05EFA0699304614F07AF8932207981B
:105650009E21FEF727FF07994846C4F8A0A1A4F8A9
:10566000A45117F0B3FF04F5D67399E8070083E857
:105670000700142328A90798ADF8A430CDF8A0B0EE
:1056800018F03EFA0799304614F05AF8CB220898E1
:105690009E21FEF707FF08994846C4F8E8A1A4F840
:1056A000EC5117F093FF04F5FA7399E8070083E8CB
:1056B00007004FF0120328A906E000BF9C880308EA
:1056C000A4B20308588103080898ADF8A430CDF8B7
:1056D000A0B018F015FA0899304614F031F8E62217
:1056E00009989E21FEF7DEFE09994846C4F830A2CB
:1056F000A4F8345217F06AFF04F50F7399E8070015
:1057000083E807004FF00F0328A90998ADF8A430EB
:10571000CDF8A0B018F0F4F90999304614F010F85B
:1057200020220A984FF4AE71FEF7BCFE0A99484653
:10573000C4F878A2A4F87C5217F048FF04F521734E
:1057400099E8070083E807000E2328A90A98ADF816
:10575000A430CDF8A0B018F0D3F90A99304613F070
:10576000EFFF40220B984FF4AE71FEF79BFE0B99B2
:105770004846C4F8C0A2A4F8C45217F027FF04F5A5
:10578000337399E8070083E8070028A90B98CDF840
:10579000A0B0ADF8A47018F0B3F90B99304613F02F
:1057A000CFFF88220C9840F27911FEF77BFE0C990E
:1057B0004846C4F808A3A4F80C5317F007FF04F5F3
:1057C000457399E8070083E807000A2328A90C9885
:1057D000ADF8A430CDF8A0B018F092F90C9930468D
:1057E00013F0AEFFAD220D9840F27911FEF75AFE8C
:1057F0000D994846C4F850A3A4F8545317F0E6FE98
:1058000004F5577399E8070083E8070028A90D9865
:10581000CDF8A0B0ADF8A48018F072F90D9930461B
:1058200013F08EFFCB220E9840F27911FEF73AFE6C
:105830000E994846C4F898A3A4F89C5317F0C6FEE6
:1058400004F5697399E8070083E80700062328A98F
:105850000E98ADF8A430CDF8A0B018F051F90E991B
:10586000304613F06DFFE6220F984FF4C071FEF73B
:1058700019FE0F994846C4F8E0A3A4F8E45317F0C2
:10588000A5FE04F57B7399E8070083E8070028A9C3
:105890000F98CDF8A0B0ADF8A45018F031F90F99D9
:1058A000304613F04DFF172239461098FEF7FAFDE7
:1058B00010994846C4F828A4A4F82C5417F086FE82
:1058C00004F2344399E8070083E807001A2328A963
:1058D0001098ADF8A430CDF8A0B018F011F91099D7
:1058E000304613F02DFF252211984FF48571FEF7F5
:1058F000D9FD11994846C4F870A4A4F8745417F05F
:1059000065FE04F27C4399E8070083E80700112351
:1059100028A91198ADF8A430CDF8A0B018F0F0F88F
:105920001199304613F00CFF96221298F121FEF7E0
:10593000B9FD12994846C4F8B8A4A4F8BC5417F0AD
:1059400045FE04F2C44399E8070083E807000D23ED
:1059500028A91298ADF8A430CDF8A0B018F0D0F86E
:105960001299304613F0ECFE442239461398FEF7A4
:1059700099FD13994846C4F800A5A4F8045517F0FA
:1059800025FE04F20C5C99E807008CE80700192258
:1059900028A91398ADF8A420CDF8A0B018F0B0F85D
:1059A0001399304613F0CCFE7E2239461498FEF748
:1059B00079FD14994846C4F848A5A4F84C5517F049
:1059C00005FE04F2545C99E807008CE807001722F2
:1059D00028A91498ADF8A420CDF8A0B018F090F83C
:1059E0001499304613F0ACFE0D23962215981946F3
:1059F000FEF758FD15994846C4F890A5A4F89455AB
:105A000017F0E4FD04F29C5399E8070083E80700CF
:105A1000152328A91598ADF8A430CDF8A0B018F03A
:105A20006FF81599304613F08BFEBC22414616984C
:105A3000FEF738FD16994846C4F8D8A5A4F8DC55F9
:105A400017F0C4FD04F2E45399E8070083E8070067
:105A5000052328A91698ADF8A430CDF8A0B018F009
:105A60004FF81699304613F06BFE632241461798A3
:105A7000FEF718FD17994846C4F820A6A4F8245646
:105A80004FF0040817F0A2FD04F22C6399E8070018
:105A900083E8070028A91798CDF8A0B0ADF8A48036
:105AA00018F02EF81799304613F04AFE424618981F
:105AB000EF21FEF7F7FC18994846C4F868A6A4F849
:105AC0006C564FF0030817F081FD04F2746399E8F7
:105AD000070083E8070028A91898CDF8A0B0ADF812
