:020000040800F2
:10000000000005205522000865210008672100082E
:10001000692100086B2100086D2100080000000024
:10002000000000000000000000000000F1B7000820
:100030006F2100080000000091B80008F5B8000822
:10004000A5220008A5220008A5220008A522000874
:10005000A5220008A5220008A5220008A522000864
:10006000A5220008A5220008A5220008A522000854
:10007000A5220008A5220008A5220008A522000844
:10008000A5220008A5220008A5220008A522000834
:1000900071210008A5220008A5220008A522000859
:1000A000A5220008A5220008A5220008A522000814
:1000B000A5220008A5220008A5220008A522000804
:1000C000A5220008A5220008A5220008A5220008F4
:1000D000A5220008A5220008A5220008A5220008E4
:1000E000A5220008A5220008A5220008A5220008D4
:1000F000A5220008A5220008A5220008A5220008C4
:10010000A5220008A5220008A5220008A5220008B3
:10011000A5220008A52200087D210008A5220008CC
:10012000A5220008A5220008A5220008A522000893
:10013000A5220008A5220008A5220008A522000883
:10014000A5220008A5220008A5220008A522000873
:10015000A5220008A5220008A5220008A522000863
:10016000A5220008A5220008A5220008A522000853
:10017000A5220008A5220008A52200080000000012
:10018000A5220008A5220008A5220008A522000833
:10019000A5220008A5220008A5220008A522000823
:1001A00089210008A522000895210008A522000841
:1001B000A5220008A5220008A5220008A522000803
:0801C000A5220008A522000899
:1001D00010B5054C237833B9044B13B10448AFF381
:1001E00000800123237010BD4003002000000000A8
:1001F0009C78030808B5034B1BB103490348AFF3D0
:10020000008008BD00000000440300209C78030823
:1002100001F0FF01102A2BDB10F0070F08D010F8B7
:10022000013B013A8B422DD010F0070F42B3F6D1BB
:10023000F0B441EA012141EA014122F007047FF0D4
:1002400000070023F0E80256083C85EA010586EA2B
:10025000010685FA47F5A3FA87F586FA47F6A5FA67
:1002600087F68EB9EED1F0BC01F0FF0102F0070273
:1002700032B110F8013B013A83EA010313B1F8D11E
:100280000020704701387047002D06BF35460338FF
:10029000073815F0010F07D1013015F4807F02BF38
:1002A000013015F4C03F0130F0BC0138704700BF89
:1002B00081F0004102E000BF83F0004330B54FEA17
:1002C00041044FEA430594EA050F08BF90EA020F84
:1002D0001FBF54EA000C55EA020C7FEA645C7FEA17
:1002E000655C00F0E2804FEA5454D4EB5555B8BF3A
:1002F0006D420CDD2C4480EA020281EA030382EAAB
:10030000000083EA010180EA020281EA0303362D3C
:1003100088BF30BD11F0004F4FEA01314FF4801C0F
:100320004CEA113102D0404261EB410113F0004F21
:100330004FEA03334CEA133302D0524263EB4303D8
:1003400094EA050F00F0A780A4F10104D5F1200E76
:100350000DDB02FA0EFC22FA05F2801841F10001D1
:1003600003FA0EF2801843FA05F359410EE0A5F1A5
:1003700020050EF1200E012A03FA0EFC28BF4CF0D6
:10038000020C43FA05F3C01851EBE37101F000458C
:1003900007D54FF0000EDCF1000C7EEB00006EEB99
:1003A0000101B1F5801F1BD3B1F5001F0CD3490823
:1003B0005FEA30004FEA3C0C04F101044FEA44527A
:1003C00012F5800F80F09A80BCF1004F08BF5FEA01
:1003D000500C50F1000041EB045141EA050130BDE1
:1003E0005FEA4C0C404141EB0101013C28BFB1F5F3
:1003F000801FE9D291F0000F04BF01460020B1FA3E
:1004000081F308BF2033A3F10B03B3F120020CDA10
:100410000C3208DD02F1140CC2F10C0201FA0CF0EE
:1004200021FA02F10CE002F11402D8BFC2F1200C53
:1004300001FA02F120FA0CFCDCBF41EA0C01904009
:10044000E41AA2BF01EB0451294330BD6FEA040452
:100450001F3C1CDA0C340EDC04F11404C4F120023D
:1004600020FA04F001FA02F340EA030021FA04F34F
:1004700045EA030130BDC4F10C04C4F1200220FAA6
:1004800002F001FA04F340EA0300294630BD21FAE4
:1004900004F0294630BD94F0000F83F4801306BFAA
:1004A00081F480110134013D4EE77FEA645C18BF9E
:1004B0007FEA655C29D094EA050F08BF90EA020F35
:1004C00005D054EA000C04BF1946104630BD91EA2D
:1004D000030F1EBF0021002030BD5FEA545C05D130
:1004E0004000494128BF41F0004130BD14F580046F
:1004F0003CBF01F5801130BD01F0004545F0FE41E3
:1005000041F470014FF0000030BD7FEA645C1ABF17
:10051000194610467FEA655C1CBF0B46024650EA4E
:10052000013406BF52EA033591EA030F41F400217A
:1005300030BD00BF90F0000F04BF0021704730B500
:100540004FF4806404F132044FF000054FF00001D5
:1005500050E700BF90F0000F04BF0021704730B596
:100560004FF4806404F1320410F0004548BF40426B
:100570004FF000013EE700BF42004FEAE2014FEAC0
:1005800031014FEA02701FBF12F07F4393F07F4F9B
:1005900081F06051704732F07F4208BF704793F09E
:1005A0007F4F04BF41F40021704730B54FF46074B1
:1005B00001F0004521F000411CE700BF50EA0102B4
:1005C00008BF704730B54FF000050AE050EA01025D
:1005D00008BF704730B511F0004502D5404261EBCD
:1005E00041014FF4806404F132045FEA915C3FF40E
:1005F000D8AE4FF003025FEADC0C18BF03325FEAAB
:10060000DC0C18BF033202EBDC02C2F1200300FA5B
:1006100003FC20FA02F001FA03FE40EA0E0021FA80
:1006200002F11444BDE600BF70B54FF0FF0C4CF46E
:10063000E06C1CEA11541DBF1CEA135594EA0C0F20
:1006400095EA0C0F00F0DEF82C4481EA030621EA5B
:100650004C5123EA4C5350EA013518BF52EA033596
:1006600041F4801143F4801338D0A0FB02CE4FF048
:100670000005E1FB02E506F00042E0FB03E54FF078
:100680000006E1FB03569CF0000F18BF4EF0010E70
:10069000A4F1FF04B6F5007F64F5407404D25FEA6C
:1006A0004E0E6D4146EB060642EAC62141EA55511F
:1006B0004FEAC52040EA5E504FEACE2EB4F1FD0C61
:1006C00088BFBCF5E06F1ED8BEF1004F08BF5FEADF
:1006D000500E50F1000041EB045170BD06F0004691
:1006E00046EA010140EA020081EA0301B4EB5C043E
:1006F000C2BFD4EB0C0541EA045170BD41F4801136
:100700004FF0000E013C00F3AB8014F1360FDEBF5A
:10071000002001F0004170BDC4F10004203C35DA36
:100720000C341BDC04F11404C4F1200500FA05F3B9
:1007300020FA04F001FA05F240EA020001F000425A
:1007400021F0004110EBD37021FA04F642EB0601D0
:100750005EEA430E08BF20EAD37070BDC4F10C04FA
:10076000C4F1200500FA04F320FA05F001FA04F2BE
:1007700040EA020001F0004110EBD37041F10001AA
:100780005EEA430E08BF20EAD37070BDC4F12005B5
:1007900000FA05F24EEA020E20FA04F301FA05F21D
:1007A00043EA020321FA04F001F0004121FA04F2C5
:1007B00020EA020000EBD3705EEA430E08BF20EA95
:1007C000D37070BD94F0000F0FD101F000464000CF
:1007D00041EB010111F4801F08BF013CF7D041EA51
:1007E000060195F0000F18BF704703F00046520055
:1007F00043EB030313F4801F08BF013DF7D043EA26
:100800000603704794EA0C0F0CEA135518BF95EADB
:100810000C0F0CD050EA410618BF52EA4306D1D162
:1008200081EA030101F000414FF0000070BD50EA81
:10083000410606BF1046194652EA430619D094EA0B
:100840000C0F02D150EA013613D195EA0C0F05D1F5
:1008500052EA03361CBF104619460AD181EA030149
:1008600001F0004141F0FE4141F470014FF0000001
:1008700070BD41F0FE4141F4780170BD70B54FF09C
:10088000FF0C4CF4E06C1CEA11541DBF1CEA13551C
:1008900094EA0C0F95EA0C0F00F0A7F8A4EB0504FE
:1008A00081EA030E52EA03354FEA013100F08880F5
:1008B0004FEA03334FF0805545EA131343EA1263BE
:1008C0004FEA022245EA111545EA10654FEA002673
:1008D0000EF000419D4208BF964244F1FD0404F52C
:1008E000407402D25B084FEA3202B61A65EB030588
:1008F0005B084FEA32024FF480104FF4002CB6EB45
:10090000020E75EB030E22BFB61A754640EA0C00C4
:100910005B084FEA3202B6EB020E75EB030E22BF04
:10092000B61A754640EA5C005B084FEA3202B6EB45
:10093000020E75EB030E22BFB61A754640EA9C0004
:100940005B084FEA3202B6EB020E75EB030E22BFD4
:10095000B61A754640EADC0055EA060E18D04FEA92
:10096000051545EA16754FEA06164FEAC30343EA32
:1009700052734FEAC2025FEA1C1CC0D111F4801FFF
:100980000BD141EA00014FF000004FF0004CB6E7F8
:1009900011F4801F04BF01430020B4F1FD0C88BF97
:1009A000BCF5E06F3FF6AFAEB5EB030C04BFB6EBA2
:1009B000020C5FEA500C50F1000041EB045170BD95
:1009C0000EF0004E4EEA113114EB5C04C2BFD4EBC2
:1009D0000C0541EA045170BD41F480114FF0000E46
:1009E000013C90E645EA060E8DE60CEA135594EAC2
:1009F0000C0F08BF95EA0C0F3FF43BAF94EA0C0FC5
:100A00000AD150EA01347FF434AF95EA0C0F7FF439
:100A100025AF104619462CE795EA0C0F06D152EA8D
:100A200003353FF4FDAE1046194622E750EA410671
:100A300018BF52EA43067FF4C5AE50EA41047FF482
:100A40000DAF52EA43057FF4EBAE12E74FEA4102E5
:100A500012F5001215D211D56FF47873B3EB625210
:100A600012D94FEAC12343F0004343EA505311F037
:100A7000004F23FA02F018BF404270474FF00000C9
:100A8000704750EA013005D111F0004008BF6FF007
:100A9000004070474FF00000704700BF4FEA41022E
:100AA000B2F1E04324BFB3F5001CDCF1FE5C0DD9CC
:100AB00001F0004C4FEAC0024CEA5070B2F1004F16
:100AC00040EB830008BF20F00100704711F0804F19
:100AD00021D113F13872BCBF01F00040704741F4DE
:100AE00080114FEA5252C2F11802C2F1200C10FAE2
:100AF0000CF320FA02F018BF40F001004FEAC123C6
:100B00004FEAD32303FA0CFC40EA0C0023FA02F369
:100B10004FEA4303CCE77FEA625307D150EA01333F
:100B20001EBF4FF0FE4040F44000704701F000400F
:100B300040F0FE4040F40000704700BF7BB972B93E
:100B40000029BEBF00204FF0004106E008BF00288A
:100B50001CBF6FF000414FF0FF3000F0B5B9ADF1B0
:100B6000080C6DE904CE002909DB002B1ADB00F02C
:100B70004DF8DDF804E0DDE9022304B0704740429F
:100B800061EB4101002B1BDB00F040F8DDF804E0D5
:100B9000DDE9022304B0404261EB4101524263EBC4
:100BA00043037047524263EB430300F02FF8DDF834
:100BB00004E0DDE9022304B0404261EB41017047EB
:100BC000524263EB430300F021F8DDF804E0DDE975
:100BD000022304B0524263EB4303704753B94AB94E
:100BE000002908BF00281CBF4FF0FF314FF0FF3035
:100BF00000F06AB9ADF1080C6DE904CE00F006F81A
:100C0000DDF804E0DDE9022304B070472DE9F04788
:100C1000089D0C46002B4ED194468C458646B2FA70
:100C200082F262D94AB1C2F12003914020FA03F363
:100C30000CFA02FC194300FA02FE4FEA1C471FFAA5
:100C40008CF6B1FBF7F44FEA1E4307FB141143EA9D
:100C5000014304FB06F199420AD91CEB030304F19A
:100C6000FF3080F01281994240F20F81023C6344D0
:100C7000591A1FFA8EF3B1FBF7F007FB101143EA84
:100C8000014300FB06F69E420AD91CEB030300F168
:100C9000FF3180F0FC809E4240F2F98063440238CC
:100CA0009B1B40EA044000211DB1D3400022C5E94E
:100CB0000032BDE8F0878B4205D90DB1C5E90001CE
:100CC00000210846F5E7B3FA83F1002946D1A34293
:100CD00002D39042C0F0F080861A64EB0303012037
:100CE000002DE6D0C5E90063E3E7002A40F09080DC
:100CF000A1EB0C044FEA1C481FFA8CF70121B4FB4E
:100D0000F8F64FEA1E4308FB164443EA044307FB88
:100D100006F0984208D91CEB030306F1FF3402D217
:100D2000984200F2CD8026461C1A1FFA8EF3B4FBBF
:100D3000F8F008FB104443EA044300FB07F79F4226
:100D400008D91CEB030300F1FF3402D29F4200F2EA
:100D5000B0802046DB1B40EA0640A5E7C1F1200633
:100D60008B4022FA06F71F4320FA06FC04FA01F32F
:100D700043EA0C03F44000FA01F8380C4FEA134937
:100D8000B4FBF0FE1FFA87FC00FB1E4449EA044452
:100D90000EFB0CF9A14502FA01F20AD93C190EF139
:100DA000FF3A80F08480A14540F28180AEF1020ECE
:100DB0003C44A4EB09041FFA83F9B4FBF0F300FBF5
:100DC000134449EA044403FB0CFCA44507D93C192D
:100DD00003F1FF3067D2A44565D9023B3C4443EAA6
:100DE0000E40A0FB0293A4EB0C049C42CE469C4612
:100DF00051D34ED055B1B8EB0E0364EB0C0404FA9A
:100E000006F6CB401E43CC40C5E90064002150E704
:100E1000C2F1200320FA03F10CFA02FC24FA03F3D6
:100E200094400C434FEA1C4800FA02FE1FFA8CF76C
:100E3000B3FBF8F008FB1031230C43EA014300FB3D
:100E400007F1994208D91CEB030300F1FF362CD2BD
:100E500099422AD9023863445B1AA4B2B3FBF8F171
:100E600008FB113344EA034401FB07F3A34208D90A
:100E70001CEB040401F1FF3613D2A34211D902394D
:100E80006444E41A41EA004139E70446F0E60846C2
:100E900006E7C845AED2B9EB020E63EB070C01388A
:100EA000A8E73146EDE7034699E73046D4E7D64652
:100EB0007FE7634402384DE70646234608460FE7BE
:100EC000023E634430E700BF704700BF0149002085
:100ED0000BF08CBE5127000808B564200AF09AF880
:100EE000FBE700002DE98048DFF8ACA1A9B04B4B2F
:100EF000DAED00AA1B680093494B1968494B05912C
:100F000093ED00AA484B93F80090484B93F800B03B
:100F1000474B1B680193474B1B680293464BD3ED2D
:100F2000009A464B93ED009A454B93F80080454B51
:100F30001B680393444B1A68444B0492D3ED008A18
:100F4000434B93ED008A434B1F78434B1E78434B32
:100F50001D68434B1C68434B1B680693424B1B6840
:100F60000793424B1B680893414B1B680993414B05
:100F70001B680A93404B1B680B93404B1B680C93F8
:100F80003F4B1B788DF834303E4B1B788DF8353055
:100F90003D4B1B680E9307F0A9F84FF47A73009A43
:100FA00005991492019A159106A91992029ACDED0C
:100FB00016AA1B92039A8DED17AA2092049A8DF817
:100FC000609021928DF861B0CDED1D9A8DED1E9A45
:100FD0008DF87C80CDED228A8DED238A8DF890707E
:100FE0008DF89160B0FBF3F30F93284B28481B68F2
:100FF00090ED007B10930023264811931A468DF83C
:1010000068308DF870308DED127BCDE92554006885
:101010000AF0CBFE282009F0FDFF68E798030020C6
:10102000940300201C00002019000020180000205C
:10103000A8030020A40300208C030020140000203B
:101040008803002084030020800300207C0300200C
:10105000100000200C000020780300207403002002
:1010600008000020B4030020B0030020AC030020DF
:10107000A00300209C030020700300206C030020CC
:1010800005000020040000205C030020680300200D
:1010900060030020444E00209003002010B594B05F
:1010A0001022002102240AA835F0BAFC14220021E3
:1010B00003A835F0B5FC1D4B192108A81A6C42F0A5
:1010C00080521A641B6C03F080530193019B184BF0
:1010D0001A6842F440421A6001221B6803F440433C
:1010E0000293029B4FF48033CDE908234FF4800331
:1010F000CDE90E434FF4C873CDE91244CDE9101386
:1011000008F058FF08F0F4FB0F2300200621CDE97A
:1011100003344FF4A053CDE905034FF4805303A8E3
:10112000079309F02FF914B010BD00BF003802403A
:10113000007000402DE980489BB01022002101255D
:101140000DA84FF0104835F06BFC002407F016FB9B
:10115000C74B0DA8ADF834501094CDE90E8307F0BD
:101160002BFB17230DA88DF835508DF83C308DF8EA
:10117000425007F021FB042007F00EFBBFF34F8F16
:10118000BFF36F8FBB4AC2F85042BFF34F8FBFF31C
:101190006F8F536943F400335361BFF34F8FBFF335
:1011A0006F8FC2F88440BFF34F8FD2F8803043F680
:1011B000E074C3F3C900C3F34E335B0103EA0406D2
:1011C000014646EA81750139C2F86052F9D2203BE6
:1011D00013F1200FF2D1BFF34F8F536943F48033E3
:1011E0005361BFF34F8FBFF36F8F06F061FF002491
:1011F000FFF754FF142200210DA835F011FC9E4B7F
:1012000010219E481A6B01274FF010084FF0030B76
:1012100042F010024FF48059994D4FF0040A1A63BE
:101220001A6B984E02F010020292029A1A6B42F068
:1012300002021A631A6B02F002020392039A1A6BFB
:1012400042F001021A631A6B02F001020492049A3E
:101250001A6B42F040021A631A6B02F040020592C8
:10126000059A1A6B42F400721A631A6B02F4007248
:101270000692069A1A6B42F008021A631A6B02F081
:1012800008020792079A1A6B42F480621A631A6B7B
:1012900002F480620892089A1A6B42F020021A63E4
:1012A0001A6B02F020020992099A1A6B42F48072BA
:1012B0001A631A6B02F480720A920A9A1A6B42F04D
:1012C00080021A631A6B02F080020B920B9A1A6B5F
:1012D00042F004021A6300221B6B03F004030C9318
:1012E0000C9B07F0B7FD01220821674807F0B2FD0B
:1012F00001224FF48051654807F0ACFD0022C02167
:10130000634807F0A7FD00224021624807F0A2FDD4
:101310000DA95A48CDE90D87CDE90F4B07F016FC12
:1013200008230DA95848CDE90D37CDE90F4407F042
:101330000DFC0DA95548CDE90D97CDE90F4407F0F7
:1013400005FCC0220DA95248CDE90D27CDE90F4B70
:1013500007F0FCFB40220DA94E48CDE90D27CDE951
:101360000F4B07F0F3FB4C484C4984800160076247
:10137000C0E9054407F04CFA49492846C5E900147C
:10138000C5E90244C5E90A44C5E90C4407F0DFFA9F
:1013900039462846434D07F093FB40234FF4C07273
:1013A00041493046B460F461B462C6E905324FF495
:1013B0000062C6E908294FF002090722C6E90014B5
:1013C0000DA9CDF84C90C6E903A8CDE90D92CDE961
:1013D0000FA2CDE911B909F02BFB29464FF6FF7298
:1013E00030460194C5E90078C5E9027409F040FB74
:1013F000384606F081FE29464FF6FF723046C5E9B1
:101400000098C5E9027409F033FB082329464FF61A
:10141000FF723046C5E90234C5E900B809F028FB7F
:101420004FF40C734FF6FF72294601933046019B2F
:10143000AF60EB60C5E900A809F01AFB40F22B7120
:1014400030461A4D09F033FB4FF0204343F2D202ED
:10145000642040F215261A6006F04EFE144B154A21
:1014600028462C62C5E90023C5E9024724E000BFF5
:101470001B00000300ED00E00038024000040240C1
:1014800054050020D803002000280240002002401C
:10149000000802400018024094050020003002407D
:1014A00000B00240B8030020400100A00005002069
:1014B0009B676010005C0040C5E90444C5E9064430
:1014C00007F009FE2146284608F02CF82146284658
:1014D000544D08F04DF8342221460DEB020035F052
:1014E0009FFA514B2821352040F2352C2C61AC86D7
:1014F00085F83640C5E900340923C5E905130B23F7
:10150000C5E9070340F21B132846C5E9096340F209
:101510001D130526C5E90BC3C5E9024408F0D4F83C
:10152000FF214FF4F0724FF4887328460D941893FE
:10153000ADF864408DF866403C4DCDE912144FF48F
:101540008061CDE914164FF04041CDE90E24CDE97C
:10155000161222460DA9CDE9103908F080F9344859
:10156000344B4FF0180E0462C0E900374FF4A0630B
:10157000C0E902A8C0E904E3C0E9064408F0D2FAD1
:1015800006F016FC06F05CFB5C2007F0E5F800F0C6
:101590005FFE294B2846AC61AC83C5E900364FF4A9
:1015A000E023C5E90244C5E9043406F0B7FD0E2383
:1015B0000DA928461693149711941597CDE9124456
:1015C000CDE90D44CDE90F4406F024FE284606F08F
:1015D000A7FE4946284606F04BFF00F065FE00F0E6
:1015E00062FE09F089FC154A2146154809F0BEFC47
:1015F000144B154A21461860144809F0B7FC144BE7
:10160000144A21461860144809F0B0FC134B144AE0
:1016100021461860134809F0A9FC134B186009F023
:1016200085FCFEE75804002000680140B805002052
:101630000C040020001000A0006400409079030812
:10164000D90E0008D40300206C790308B7220008E3
:10165000D003002048790308193E0008CC0300207D
:1016600024790308E50E0008C803002000000000EC
:10167000F8B56B4D00216B4E2A4633462DED028B9B
:1016800006F079FE2F6840F226739F4277D1AB684F
:1016900053B92B69022B07D13378012B04D1624A4D
:1016A000136883F00103136040F272339F4200F02D
:1016B0009281B7F5787F40F05B81AB68002B40F0FA
:1016C000CA812B69082B40F0C6813088778840BAE0
:1016D000B5887FBAF48880B26DBABFB264BAA0F69A
:1016E000AB20ADB2FEF736FFA4B249A3D3E9002385
:1016F000FEF79AFFFFF7AAF94C4B18604C4B1A689B
:101700009042C8BF1860A7F6AB20FEF723FF40A3A6
:10171000D3E90023FEF788FFFFF798F9454B1860DF
:10172000454B1B68322B04DD444B1A689042C8BFFE
:101730001860A5F6AB20FEF70DFF35A3D3E9002313
:10174000FEF772FFFFF782F93D4B18603D4B1A68B8
:101750009042C8BF1860A4F6AB20FEF7FBFE2CA396
:10176000D3E90023FEF760FFFFF770F9364B1860EE
:10177000364B1A68904240F36E8118606BE1B7F502
:10178000587F71D1AB684BBB2B69082B26D13488AD
:101790002F4B64BAB088A4B240BA1C6080B22D4B03
:1017A0001A689442C8BF1C60C4F5EA54FEF7D2FE22
:1017B0000C3417A3D3E9002324EAE474FEF734FFC2
:1017C000FFF744F9244B002C1860B8BF0334234BB7
:1017D000A410C4F1640424EAE4741C6040F273436E
:1017E0009F4240F03881AB68002B40F034812B6978
:1017F000082B40F03081306800BAFEF79BFE06A34C
:10180000D3E90023FEF710FF154BC3E9000122E1E5
:101810009A9999999999B93FFCA9F1D24D62503F93
:10182000E8050020E0050020B4030020A803002004
:10183000A403002074030020A0030020080000205F
:1018400084030020800300209803002094030020DC
:10185000B0030020AC0300206C0300205C030020D8
:1018600060030020CDCCCC3D40F261339F4240F07C
:101870000E81AB68002B7BD12B69082B78D1738844
:101880005FED088A5BBA9CB233885BBA9BB207EE05
:10189000903AF8EE677A67EEA87A17EE900AFEF7AC
:1018A0006BFE9DA3D3E90023FEF706FD9CA3D3E9BD
:1018B0000023FEF7B9FEFFF7F1F807EE904A9C4BC4
:1018C00008EE100AF8EE677A186067EEA87A17EE4D
:1018D000900AFEF751FE90A3D3E90023FEF7ECFC3B
:1018E0008FA3D3E90023FEF79FFEFFF7D7F8914BB4
:1018F00007EE900A1860904B1B68B3F52F7F37DD19
:101900008E4A92ED007AB5EEC07AF1EE10FA04D468
:10191000B4EEC78AF1EE10FA0CD5B0EE0C7A82ED77
:10192000008A874AB4EEC78AF1EE10FA4CBF012153
:101930000021117040F6C412934219DD814B93EDE2
:10194000007AB5EEC07AF1EE10FA04D4F4EEC77A5C
:10195000F1EE10FA0CD5B0EE087AC3ED007A7A4BAE
:10196000F4EEC77AF1EE10FA4CBF012200221A7091
:10197000B7F55C7F00F0AA80B7F5797F7FF42EAFD2
:10198000AB68002B67D12B69082B64D173786F4A41
:1019900003F001031370F3796D4AD909C3F380137F
:1019A00011706C4A137056E0AB68002B7FF416AFD1
:1019B0002B69082B7FF412AF33889FED677A5BBAEF
:1019C0009BB207EE903A654BF8EE677A67EE877A3E
:1019D000C3ED007A02E7AB68002B3CD12B69082BE2
:1019E00039D133889FED5E7A5BBA9BB207EE903AAD
:1019F0005C4BF8EE677A67EE877AC3ED007A4E4B60
:101A00001B68B3F5FA6F18DD574B93ED007AB5EE0E
:101A1000C07AF1EE10FA04D4B4EEE77AF1EE10FADF
:101A20000BDDB2EE097AC3ED007AF4EEC77AF1EE7F
:101A300010FA42BF4D4B01221A70F3889FED467A8F
:101A40005BBA9BB207EE903A494BF8EE677A67EEC5
:101A5000877AC3ED007ABDEC028BF8BD454B52226C
:101A60001A70F8E7434B4E22FAE7424B3122F7E770
:101A7000404B3222F4E73F4B3322F1E73D4B342217
:101A8000EEE73C4B3522EBE73A4B3622E8E7B7F579
:101A90005A7F89D0B7F55C7F7FF406AEAB68ABB9EF
:101AA0002B69082B12D1308840BA80B2FEF752FD64
:101AB0001DA3D3E90023FEF7B7FDFEF7C7FF2E4BAA
:101AC00018602E4B1A68904200DD1860AB68002B3E
:101AD000C1D12B69082BBED196F903300333092BF2
:101AE0003FF67CAE01A252F823F000BF651A000851
:101AF000DD1700085D1A0008651A00086B1A000857
:101B0000711A0008771A00087D1A0008831A000865
:101B1000891A0008AFF3008033333333335359400D
:101B200000000040E17A843F9A9999999999B93FC8
:101B30008C03002090030020B0030020140000203C
:101B4000880300201C00002019000020180000203D
:101B5000050000200C0000206F12833A7003002063
:101B6000CDCCCC3D7C030020100000207803002069
:101B70006803002004000020A00300209C03002034
:101B80000268034B9A4201D106F0A4BA704700BF25
:101B900000100040704700000D4B82B00F216FF025
:101BA00001001A6C42F080521A641A6C02F08052E2
:101BB0000092009A5A6C42F480425A6400225B6C94
:101BC00003F480430193019B02B006F085BD00BF82
:101BD0000038024010B588B004461422002103A842
:101BE00034F01EFF2268174B9A4228D103F5EA33DE
:101BF000032115481A6C42F000721A641A6C02F044
:101C000000720192019A1A6B42F002021A634FF4B9
:101C100040721B6B03F002030293029B0223CDE987
:101C200003230923CDE9061303A906F08FFF14202F
:101C30000022052106F050FD142006F07FFD08B0BB
:101C400010BD00BF0064004000040240026882B082
:101C5000084B9A420BD1D3F8302803F5006342F4C5
:101C600080521A631B6B03F480530193019B02B0F3
:101C7000704700BF003002400E4B07B502689A4221
:101C800015D1A3F5F04305215A201A6B42F4000246
:101C90001A6300221B6B03F400030193019B06F0FF
:101CA0001BFD5A2003B05DF804EB06F047BD03B0FE
:101CB0005DF804FB00B0024010B5A8B00446142241
:101CC000002102A834F0ACFE8422002107A834F0E1
:101CD000A7FE2268174B9A422AD14FF4803307A8F7
:101CE000079308F01BFC08B1FFF754FF124C4FF4A8
:101CF000C07201211148236B43F080032363236BDF
:101D000003F080030093009B1223CDE902230323F9
:101D1000CDE90413042302A9069306F017FF236CF0
:101D200043F400032364236C03F400030193019B39
:101D300028B010BD005C004000380240001C02408A
:101D4000026808B5094B9A420FD1094A8021094817
:101D5000136C23F40003136406F0DCFF4FF480716E
:101D60000448BDE8084006F0D5BF08BD005C00404F
:101D700000380240001C024070B5ACB0044614228A
:101D8000002106A834F04CFE842200210BA834F078
:101D900047FE2268484B9A4240F08C800823052079
:101DA00001240B934FF4C07310930223CDE911303B
:101DB0004FF400330BA8CDE9154308F0AFFB08B191
:101DC000FFF7E8FE3D4B002402250E265A6C06A9BB
:101DD0003B4842F080625A645A6C02F08062009282
:101DE000009A1A6B42F010021A631A6B02F010028A
:101DF0000192019A1A6B42F400721A631A6B02F490
:101E000000720292029A1A6B42F480621A631A6B91
:101E100002F480620392039A1A6B42F040021A6342
:101E20001A6B02F040020492049A1A6B42F4807218
:101E30001A631B6B03F480730593059B1023CDE994
:101E40000635CDE908440A9606F080FE4EF6FF738B
:101E500006A91C480A96CDE90635CDE9084406F0E6
:101E600075FEF72306A918480A96CDE90635CDE98F
:101E7000084406F06BFE4FF4805306A91348CDE9E1
:101E800006350923CDE908440A9306F05FFE4FF4B6
:101E9000464306A90E480A96CDE90635CDE9084421
:101EA00006F054FE58202246052106F015FC582065
:101EB00006F044FC2CB070BD0068014000380240C0
:101EC0000010024000240240002802400018024096
:101ED00000200240142200212DE9F0418AB004467E
:101EE0000DEB020034F09CFD22682C4B9A4251D13C
:101EF0002B4B0225032409269A6B4FF0040805A9F1
:101F0000284842F0020200279A639A6B02F002020C
:101F10000192019A1A6B42F010021A631A6B02F0D6
:101F200010020292029A1A6B42F002021A631A6BB2
:101F300002F002020392039A1A6B42F008021A633B
:101F40001B6B03F008030493049BCDE90585CDE9E1
:101F5000084606F0FBFD402305A91348CDE90535E9
:101F60000A23CDE90774099306F0F0FD05A90E4890
:101F70000996CDE90585CDE9077406F0E7FD4FF434
:101F8000605305A909480996CDE90535CDE90774DF
:101F900006F0DCFD0AB0BDE8F08100BF001000A033
:101FA000003802400010024000040240000C0240D1
:101FB000026808B50B4B9A4213D10B4A04210B4817
:101FC000936B23F00203936306F0A4FE44210848B8
:101FD00006F0A0FE4FF460510648BDE8084006F048
:101FE00099BE08BD001000A0003802400010024059
:101FF00000040240000C0240F0B5002387B00393B8
:10200000294B1E68002E4DD10122022703250C24E6
:102010001A6001A9254B26489A6B42F001029A6387
:102020009B6B03F001030093009B4FF68373CDE994
:102030000454CDE9013706F089FD48F2331301A9B4
:102040001C480594CDE90137CDE9036506F07EFD16
:102050004CF2037301A918480594CDE90137CDE985
:10206000036506F073FD4FF63F0301A9134805947D
:10207000CDE90137CDE9036506F068FD282301A904
:102080000F480594CDE90137CDE9036506F05EFD03
:10209000082301A90B480594CDE90137CDE9036573
:1020A00006F054FD07B0F0BD0406002000380240E1
:1020B0000010024000180240000C024000140240D0
:1020C000001C024000080240214B1A6C42F0100232
:1020D00070B51A6488B01B6C054601A903A803F00B
:1020E00010030293029B08F0FBF9069B4BBB08F020
:1020F000E7F9184E184B336040F2E733F360174BA3
:10210000B0FBF3F3013B3046736000233361B360EF
:10211000B36108F033FE044680B9304608F0E0FCB5
:10212000044658B9362006F009FB0F2D0DD822467B
:102130002946362006F0D0FA094B1D60204608B02B
:1021400070BD08F0BDF94000D3E70124F6E700BFF9
:1021500000380240080600200010004040420F00F6
:10216000580000207047FEE7FEE7FEE7FEE77047F5
:10217000014806F09AB900BFB8050020014808F0F0
:10218000F1BC00BF08060020014807F00BBB00BFF0
:1021900058040020014806F008BC00BF5405002088
:1021A0000120704708B534F0EFFC162303604FF0B0
:1021B000FF3008BD08B534F0E7FC16230360FEE7E6
:1021C00070B50D4614460E46731B9C4201DC20463A
:1021D00070BDAFF3008006F8010BF5E770B50D4652
:1021E00014460E46731B9C4201DC204670BD16F857
:1021F000010BAFF30080F5E74FF0FF3070474FF46D
:10220000005300204B60704701207047002070474A
:102210000B4A0346116810B509B90A4911601068E4
:1022200009490A4C0344091B8B4206D934F0ACFC23
:102230000C2303604FF0FF3010BD1360FCE700BFBC
:1022400054060020E08F012000000520000A000055
:1022500070470000DFF834D0002103E00C4B5B58DE
:10226000435004310B480C4B42189A42F6D30B4AA8
:1022700002E0002342F8043B094B9A42F9D305F0EF
:102280002FFE34F087FCFEF755FF70470000052055
:1022900084D50308000000204001002040030020F6
:1022A000E08F0120FEE7704708B501F08FF9BDE827
:1022B000084001F011B901F08BB9406870474160E6
:1022C000704700004FF0E022D2F8FC3D43F08073ED
:1022D000C2F8FC3D054B064AD3F8B01F0A43C3F8C9
:1022E000B02F1A6842F001021A607047001000E037
:1022F00055CEACC5521A02EB5302B2FBF3F0704755
:10230000014B5868704700BF001000E0704710B5DF
:1023100004460C2133F081F9204610BD036810B546
:102320001B69044631B19847A26863689B1A03444D
:10233000636010BD9847A060FBE70000024B70206F
:10234000024A1360DB6818472C0000205806002062
:10235000704710B50446042133F05FF9204610BDE4
:1023600073B50E4E0D461446336813B9002002B003
:1023700070BD1B69702098470028F7D03368702023
:1023800001AA0DF106015B699847BDF804300120F0
:102390002B60BDF806302360E9E700BF5806002037
:1023A0007FB501238DF817204FF47A72CDE9013201
:1023B0000DF1170200920A460146054806F0FAFEA2
:1023C00010B1034806F0DCFE07B05DF804FB00BF67
:1023D000000500207FB500230A464FF47A718DF87E
:1023E00017300123CDE901310DF1170100910146AC
:1023F000054806F0B9FF10B1034806F0C1FE9DF88C
:10240000170007B05DF804FB00050020032823D85F
:10241000DFE800F0020B131A104B102110481A6865
:10242000B2FA82F2520906F015BD0C4B40215A68EF
:10243000B2FA82F252090B48F5E7084B80219A68FC
:10244000B2FA82F25209F6E7044B40210648DA68F4
:10245000B2FA82F25209E6E7704700BF5C0600203C
:10246000000402400008024000180240032823D85C
:10247000DFE800F0020B131A104B102110481A6805
:10248000003A18BF012206F0E5BC0C4B40215A6807
:10249000003A18BF01220B48F5E7084B80219A68E3
:1024A000003A18BF0122F6E7044B40210648DA68DB
:1024B000003A18BF0122E6E7704700BF5C06002023
:1024C00000040240000802400018024003280FD810
:1024D000DFE800F00206090B1021064806F0BFBC39
:1024E00040210548FAE78021FBE740210348F5E752
:1024F000704700BF0004024000080240001802407C
:1025000008B5032813D8DFE800F0020A0D0F1021E8
:10251000084806F099FC431E5842584108BD402126
:102520000548F6E78021FBE740210448F1E7002059
:10253000F1E700BF0004024000080240001802401A
:1025400070B5084D00240126E0B2FFF7D9FF18B19D
:102550002B68012B18BF2E6001340435052CF3D1F4
:1025600070BD00BF5C060020012380F8781080F861
:10257000793070470020704741640039024B18BF22
:1025800001211970704700BF9F8201200020704711
:10259000836B0BB10846184770474FF6FF707047C2
:1025A000406803689B6918477047000038B50446C7
:1025B00001F05CF9084923682046084DD3F88C30B7
:1025C00098470023284684F84A30FFF77BFE012312
:1025D000256184F8703038BD000000C06C06002012
:1025E00001F0E6B801F0EAB870B501F069F91049F8
:1025F0000023C1F88430BFF34F8FD1F8803043F609
:10260000E074C3F3C900C3F34E335B0103EA04066D
:10261000024646EA8275013AC1F87452F9D2203B6B
:1026200013F1200FF2D1BFF34F8FBFF36F8F70BD47
:1026300000ED00E001F046B901F096B801F068BA8B
:1026400001F070BA01F09AB810B5044619F0DEF93D
:1026500023682046D3F8AC30BDE81040184718F086
:1026600033BC10B504467C2132F0D7FF204610BDA4
:1026700090F834100D4B10B590F878401A788C42D1
:1026800009D03AB90A490B4A0888148810800122F7
:102690000C801A7010BD002AFCD0064A0449148828
:1026A00008880C8010800022F3E700BF9882012088
:1026B000968201209482012070B50D46194635B9E5
:1026C000094B40F2D221094A094833F0EDFEC0E936
:1026D0000F52003A074B18BF01221A700368BDE879
:1026E0007040D3F88C301847F47903082C7A03082B
:1026F0007A7A03089E82012008B5094B1B888B4219
:1027000003D8084B1B88934205D9074B9E21074AE3
:10271000074833F0C9FE074B1980074B1A8008BDE4
:102720009482012096820120BF7A0308227B03084D
:102730007A7A03089A8201209C820120034690F84D
:102740007A0018B1586803681B6818477047000082
:10275000014608B5034B186801B1012119F070F961
:10276000012008BDA0820120034B00225A609A601C
:10277000024A1A60704700BF6C060020BC7903084B
:102780000121002208B5084608F0FAFC0A4B18603F
:1027900028B90A4B28210A4A0A4833F085FE00224C
:1027A0000421012008F0B6FD074B186018B9074B4B
:1027B0002C21034AF0E708BD7C060020407C03087A
:1027C000897C0308B87C030878060020037D030891
:1027D000024B4FF0FF31186808F02ABD7C0600203C
:1027E000014B186808F060BD7C060020024B0021F8
:1027F000186808F01DBD00BF7C060020FFF7F0BF81
:102800000023034803491A46006808F0C9BD00BF09
:10281000780600202000002013B50023074C01A9F2
:102820001A46206808F0FEFD4FF0FF33002201A990
:10283000206808F0F7FD02B010BD00BF7806002048
:1028400003685B6C18470120704703689B6A184750
:10285000FEE700000E4B82B01A6B42F400021A63CE
:102860001A6B02F400020192019A1A6942F4000202
:102870001A611A6922F400021A61064B064A1A61AB
:10288000064A5A614FF08062054B9A6002B0704769
:1028900000380240540500202D2B00085128000864
:1028A00000E100E040F2EF3070470000054B4FF0D0
:1028B00080620360044BC3F88820BFF34F8FBFF3DF
:1028C0006F8F7047A07E030800E100E010B504465A
:1028D0004FF45A61FFF7EAFF204632F09EFE204691
:1028E00010BD000008B50A2809D8DFE800F006107E
:1028F0000E080808081010101000022008BD054B33
:102900009021054A054833F0CFFD0020F6E701206D
:10291000F4E700BF457D0308607D0308AB7D030835
:1029200038B50C46887FFFF7DDFF174BA58AE28A92
:10293000586342EA054221695A64628BD963521B8B
:102940001A642568082D0ED19A611A6158620F4ADF
:10295000207F42EA0062DA61E2681A620C4A596139
:10296000D9601A6038BD0022D8611A61E1680A0A8C
:102970004809C1F3C40102F4784200F4FC60024348
:102980000A439A63034AECE700B0024009000100E1
:10299000012302000123030008B50B280BD8DFE850
:1029A00000F00612100A0A0A0A080808080802209D
:1029B00008BD0520FCE7054B6F21054A054833F0AB
:1029C00073FD0020F4E70120F2E700BF457D030816
:1029D000F47D0308AB7D03082DE9F04191F81D80DB
:1029E0000C464046FFF7D8FFA77F05463846FFF75D
:1029F000D3FF06463846FFF775FFA18A628B434B2B
:102A0000521A1A649A61228B521A1A61E28A586326
:102A100042EA014221695A646268D963DA60206837
:102A2000802828D0227F0FD8202866D0402864D064
:102A300004281AD045EA0265344BB84545F4003500
:102A4000DD6160D0324A44E0B0F5807F04D0B0F55B
:102A5000007FEFD12F4800E02F4840EA0262DA61A0
:102A6000E2681A625E62596132E045EA026242F44B
:102A70000032DA61F6E7A068021DDA62227F45EAD9
:102A8000026545F40035DD615E625961017841B14E
:102A9000012921D0214B4FF48D71214A214833F077
:102AA00003FDDA69418822F47F42013922F01002E5
:102AB00042EA01220121DA61144BDA6942F0200274
:102AC000DA61DA699206FCD410229A600029B9D042
:102AD000154A1A60BDE8F081B2F1FF01DA69408859
:102AE00022F47F4218BF0121013822F0100242EA8D
:102AF000002242F01002DA61DEE745EA0262034B8F
:102B000042F40032B5E742F20132E2E700B002409F
:102B100001230100090002000A0002003E7E0308B2
:102B2000587E0308AB7D030801230200024B1B689B
:102B3000586803685B691847A082012070B5044695
:102B40000A4B0C30002625466022606026726672B1
:102B500045F8203B294619F0C9F804F55A63EE60A0
:102B600024359D42FBD1204670BD00BFA07E0308E6
:102B7000034B1A68D207FCD423229A60704700BF27
:102B800000B00240094B5A69D2030AD5BFF34F8FF8
:102B900008440029A0EB010204DCBFF34F8FBFF310
:102BA0006F8F70472039C3F86822F2E700ED00E02C
:102BB00030B5104C2568ED07FCD423250904FF2B04
:102BC000A56041F001014FF0020565636164E063B7
:102BD0000AD00949656241EA0363E361074B226257
:102BE0006061E060236030BDE561039BA363044B3B
:102BF000F8E700BF00B00240090001000100020038
:102C00000100030030B50F4C2568ED07FCD42325E7
:102C10001204FF2BA56042F001024FF0020565632C
:102C20006264E063E16008D01B0643F00213E361D5
:102C3000054B65626061236030BD044BE361012395
:102C4000F9E700BF00B0024001000200020002FFED
:102C500030B50B4C2568ED07FCD4232512041B0668
:102C6000A56042F00102022543F40033656362640B
:102C7000E063E160E361034B65626061236030BD46
:102C800000B00240010002004069704790F8440023
:102C90007047036B23B9C06A003818BF0120704722
:102CA0000120704780687047043010B50C460FC88B
:102CB00084E80F0010BD704708B5034A40F21221A6
:102CC000024B034833F0F0FBE87E0308899F0308BA
:102CD000437F030810B50446482132F09EFC20468D
:102CE00010BD00002DE9F0431C46436BADF51F7D80
:102CF00005460E461746002B37D0002203A8DFF802
:102D0000A890CDE9013210F05DFC4FF4F47250212F
:102D1000249024A80AF00BFC3A46314624A80BF074
:102D20005FFB012124A80AF0FDFC022324A88DF8F2
:102D3000D8300AF098FDBDF898322B9ABDF89C6205
:102D40009342A89F28BF1346419A964203EB43083B
:102D5000A7EB430728BF1646479B9E4209D824A8E5
:102D60000AF002FD24A80AF02FFC0DF51F7DBDE836
:102D7000F083012201A924A80AF0BEFD6B6B03EBCE
:102D80000800984201D83C44E6E759789A78C9008F
:102D900009EA022201F4FC610A4313F8031B42EA28
:102DA000D10224F8022BECE700F8FFFF0A4A026088
:102DB0000022C0E90522C0E90722C0E90922C0E9D2
:102DC0000B22C0E90D12C0E90F2280F84420C0E9AF
:102DD0000322C0E9012270472082030810B40C4688
:102DE00011461A46036B3BB1036C806BE41A204416
:102DF0005DF8044B33F01CBEC06AF8E7036B10B5F6
:102E000073B1036C826BC91A5318525C98785C7862
:102E10000004DB7840EA0420104340EA036010BD60
:102E2000C36A5858FBE7036B43B1036CC91A836B41
:102E30005A18585C527840EA02207047C36A585AC0
:102E40007047000070B50446006B0D461646D8B1B9
:102E5000E36B934208D209230D4A65210D4884F89B
:102E600044300D4B33F020FB0368DB689847206B40
:102E70003246A16B03681B69984710B90D2384F88B
:102E80004430A06B256470BDE06A0844FBE700BFD6
:102E9000AB7F0308437F0308987F03082DE9F843BD
:102EA000436904462BB9234BAA21234A234833F014
:102EB000FBFA08228169FFF7C5FFA16943F23006DA
:102EC00046F2643704312046FFF798FFA36918449F
:102ED000A36A00F108029A4206D30123002063612D
:102EE000236AA361BDE8F8836369093008220133CE
:102EF00020F0010120466361A161FFF7A3FFD4F830
:102F0000189020464946FFF78EFF09F102018046DE
:102F10002046FFF788FF09F1040105462046FFF728
:102F20006DFFB045D2D1BD42D0D10028CED0012016
:102F3000D8E700BFED7F030836800308437F03080E
:102F40002DE9F04F0446ADF51F7D8A46164681698E
:102F500008229846FFF776FFA7692046391DFFF73C
:102F60004DFF07F10801024605462046FFF76AFFBC
:102F7000636B074633B93C4B40F2AB113B4A3C48CC
:102F800033F092FA002203A8CDE9013210F01AFBC7
:102F90004FF4F4725021249024A80AF0C8FA2A466B
:102FA000394624A80BF01CFA012124A80AF0BAFB28
:102FB000022324A88DF8D8300AF055FCBAF9025043
:102FC000479BAB4229D3BAF900904FEA4808BAF8B8
:102FD00004702B9B08FB05664F44BAF80250DFF8DB
:102FE00094B03FB29F4228BF1F46BAF8063009EBA3
:102FF000490A1D44419B2DB29D4228BF1D46479B57
:10300000AB4210D324A80AF0AFFB24A80AF0DCFAE4
:1030100001200DF51F7DBDE8F08F012201A924A834
:103020000AF06AFCCCE7012201A924A80AF064FC9A
:10303000626B49465244B94202F1030201D346444D
:10304000DDE712F8020C12F8013CC0000BEA032382
:1030500000F4FC60034312F8030C43EAD00326F8A3
:1030600011300131E7E700BF69800308BF80030822
:10307000437F030800F8FFFF0129036838BF0121DF
:10308000DB6A70B50D4604469847A84204D223680F
:103090002046DB6A984705466B1EE66910222046EB
:1030A00006EB031606F10801FFF7CCFE06F110014E
:1030B0002046FFF7A3FE236A043B0344C4E90553FB
:1030C00070BD0000002148222DE9F04104468161D5
:1030D00080F84410FFF7B6FEA6690423624A314621
:1030E0002046FFF77BFE40B10323604AF22184F8BB
:1030F00044305F4B5F4833F0D7F906F108010423F1
:103100005D4A2046A161FFF769FE30B10423574AAA
:10311000FA2184F84430594BECE706F10C01042302
:10312000574A2046A161FFF759FE074638B10523EB
:103130004E4A40F2011184F84430524BDAE706F16E
:1031400010012046FFF75AFE054620B94E4B40F2CB
:103150000711464ACEE706F1140804234B4A2046DD
:103160004146FFF73BFE002849D0062384F844304F
:103170000423474A06F118012046FFF72FFE0028D6
:103180003FD0072384F844304544424F0C22204668
:103190002946FFF757FE05F1080604233A46204664
:1031A0003146FFF71BFE94F84430002848D0002B2E
:1031B00048D1A36AAB4249D805F10C030435204637
:1031C000A3612946FFF71AFE304429466062204673
:1031D000FFF714FE0644042220463146FFF732FE74
:1031E00004232D4A31462046FFF7F8FD002838D148
:1031F0000123E6616361A3692362BDE8F0810127D1
:10320000B6E7002FC0D006F120012046FFF7F6FDFB
:103210004FF47A7306F13001B0FBF3F060602046A2
:10322000FFF7ECFD06F14001A0602046FFF7E6FD48
:1032300006F14401E0602046FFF7E0FD2061A3E7CE
:10324000002BB9D00A2384F84430D6E7291D204644
:10325000FFF7D4FD85190C2220462946FFF7F2FD21
:1032600099E70B23EFE700BF1981030837810308B3
:103270001E810308437F03086481030869810308F2
:1032800081810308868103089C810308A8810308C3
:10329000AD810308B2810308B7810308C0E90A21A0
:1032A00000220263FFF70EBF10B500230446084654
:1032B000E3620B6821639B689847A0622046BDE8E3
:1032C0001040FFF7FFBEF0B4069FBDF81050BDF8E8
:1032D000146032B12BB10495CDE90567F0BCFFF75E
:1032E00001BDF0BC704700002DE9F04F99464369DD
:1032F00085B004460F4690462BB9294B7721294AC1
:10330000294833F0D1F808228169FFF79BFDA669AF
:1033100020463146FFF787FDB11C83462046FFF764
:1033200082FD311D82462046FFF768FD06F1080147
:10333000A36A054642189A4226D243F230039B45BF
:1033400017D146F264339A4513D190B10246A16178
:103350002046FFF777FD0E9B01462A462046CDF812
:103360000080CDE901933B46FFF7ADFF6369013370
:103370006361A3692B4405B908330133626A23F002
:1033800001039342A36109D1012301206361236AF0
:10339000A36180F0010005B0BDE8F08F0020F8E7E0
:1033A000ED7F0308BC810308437F030801207047B9
:1033B0000C2070470C2303FB0100083070470C23DE
:1033C00003FB0100083070470120704742F650406F
:1033D000704742F6504303FB01000830704742F645
:1033E000504303FB01000830704701207047102054
:1033F000704700EB01100830704700EB01100830F7
:103400007047084600F0F0BF034B10B50446036058
:1034100017F0E2F8204610BDC882030810B5044634
:10342000FFF7F2FF1421204632F0F7F8204610BDD6
:10343000034B10B50446036017F0CEF8204610BDCC
:103440009482030810B50446FFF7F2FF42F6584194
:10345000204632F0E2F8204610BD0000034B10B5C4
:103460000446036017F0B8F8204610BD60820308D8
:1034700010B50446FFF7F2FF1821204632F0CDF8D0
:10348000204610BD094B10B50446036000F53250CC
:103490000430FFF7B9FF04F12C00FFF7C9FF04F176
:1034A0001400FFF7DBFF204610BD00BFFC820308BD
:1034B00008B50248FFF7E6FF08BD00BF5015002021
:1034C00010B50446FFF7DEFF42F6F851204632F011
:1034D000A4F8204610BD00002DE9F34100F054FD92
:1034E0000024054600F054FD2346014622462846A6
:1034F000009422F079F9274B274A2046274D1A607D
:1035000003F00EFD264B274A27489A6022F0D4F894
:103510002B68BFF35B8FDB0736D4284632F07FF889
:1035200090B3224C224F234B04F1140007F11806EC
:1035300004F12C0823606060C4F80880E76026610D
:1035400017F04CF81C4B4046636117F047F81B4BD3
:103550003846E36217F042F804F50053184A03F6C0
:103560009840C3F8842C03F0BBFD224607F11401F8
:10357000304603F0ABFD304600F036FF114832F024
:10358000B1FF284632F057F80F4802B0BDE8F041CD
:10359000FFF70CB804830120FC0600204C15002026
:1035A0001C070020000700202400002050150020E8
:1035B000D4410020FC82030860820308948203083F
:1035C000C8820308B134000880060020704700005C
:1035D000014817F0E2BC00BF8006002070B5244E01
:1035E000244B254C3046254D2360FFF7A7FA28468B
:1035F00027F00CFA22481FF093FB224B00224FF4D5
:10360000807121481A8683F858205A6683F8702002
:103610005A67DC60C3E912121C49C3E91A121C493B
:1036200099671C490B604FF4F07101801A480180C2
:103630004FF488711948C3E90422C3E90622C3E99B
:103640000822C3E90A22C3E90E22C3E91022C3E912
:103650001422C3E91722C3E901650180104883F8E9
:10366000342001800F490A700F4A1A6070BD00BFF4
:10367000A8070020E4790308481500201C07002053
:103680000007002080060020948201200100000134
:1036900000000101A08201209A820120968201206F
:1036A0009C82012098820120707B03080148FFF76B
:1036B000FDB800BFA8070020002070478180704738
:1036C000C1807047018170474181704770477047E2
:1036D00070477047704710B4C4880368121B848811
:1036E0005B6D091B12B25DF8044B09B218474FF627
:1036F000FF7383814FF0FF3303621368C36110606F
:103700007047002070478B88838001207047704786
:1037100080F82610704790F826007047002210B5F8
:10372000B1F90840B1F90A10028042808480C1805A
:1037300010BD0022028042808280C28070470177E3
:10374000704780ED080A704780F82410704780F8B1
:103750002510704701207047983070478C307047B3
:103760008430704770470000034B902283F85A233F
:1037700083F85823704700BF00E100E0094A0A4976
:10378000D3680A48C3F30A03013B9BB20B8011695B
:10379000C1F30A01013901801364536B43F0010343
:1037A00053637047006801404A43002048430020AB
:1037B000014BD3F8AC00704700680140024B012276
:1037C000C3F8AC105A62704700680140124A53694E
:1037D000DB0370B51ED50023C2F88430BFF34F8FD2
:1037E000D2F8803043F6E074C3F3C900C3F34E331C
:1037F0005B0103EA0406014646EA81750139C2F815
:103800007452F9D2203B13F1200FF2D1BFF34F8F46
:10381000BFF36F8F70BD00BF00ED00E070477047D1
:1038200070473823002201FB0333C25490F838302C
:103830000BB9036C83647047704780F84C10704775
:1038400010B50446582131F0E8FE204610BD10B5F1
:1038500004462C2131F0E1FE204610BD10B504468F
:10386000BC2131F0DAFE204610BD000038B5044618
:1038700017F07FFB23685D6E1EF0DAF801462046E4
:10388000A8472368084A2046D3F888500023A2F5A9
:103890007F31A847054B064A5A60064A1A649A6463
:1038A0004FF4FF225A6438BD00F807C00C440020D2
:1038B0006444002000F40BC017F042BB17F04CBB6F
:1038C00017F008BB17F077BC90F8252012B10368F9
:1038D0005B6918477047000008B531B1044B40F2EE
:1038E0009711044A044832F0DFFD90F8390008BD12
:1038F000088303081C830308A984030810B531B1A9
:10390000064B40F29111064A064832F0CDFD406860
:1039100011460368BDE810401B6B18470883030875
:10392000EB840308A984030808B529B1034B7A2165
:10393000034A044832F0B8FD006908BD0883030853
:103940009C860308A984030808B529B1054B832187
:10395000054A064832F0A8FD41618160C0E906329F
:1039600008BD00BF0883030854880308A98403081E
:1039700010B5044629B1274BA421274A274832F025
:1039800093FD052A34D8DFE802F003292F34393EAD
:10399000406803681B69984750B34FF0FF31606D72
:1039A00007F092FB0023012294F83E1084F83B308C
:1039B00084F83920A360636101B1226284F83E304B
:1039C0006362E36A2BB90123206D84F83A3007F073
:1039D0006BFC606DBDE8104007F0A6BB002380F8CB
:1039E000393084F83E3003E0036200238360436192
:1039F00010BD0362002383604361F2E7002380F877
:103A000039300123EDE7003B18BF012380F83D303A
:103A1000EEE700BF08830308138A0308A98403089C
:103A200090F825201AB190F8242002B11860704750
:103A300070B50446164629B1314BE721314A324868
:103A400032F032FD90F8393033B1304B1B6893F8C7
:103A50006B20436913444361E36A002B4DD0E16955
:103A6000D4E905325343A2684A43934220D2236AE1
:103A7000002B42D04FF0FF31606D07F025FB236A29
:103A80000BB10023E362E36AFBB90125606D07F027
:103A90004BFB94F839300BB9236A3BB1E36A2BB97D
:103AA0000123206D84F83A3007F0FEFB284670BDF4
:103AB00094F84C000028DDD09B1AB3FBF1F2994238
:103AC00098BF02F1FF326262D4E7002294F83C50C2
:103AD000A3623046E262E2682261A2680132A2601B
:103AE000336333685B699847002DCED194F83D303D
:103AF000002BCBD184F83950C8E70125C9E700BFB6
:103B000008830308EA8B0308A9840308A082012024
:103B1000034B4FF080629A604FF080729A6070475A
:103B200000E100E0084B4FF08062C3F88820BFF34B
:103B30004F8FBFF36F8F4FF08072C3F88820BFF3B1
:103B40004F8FBFF36F8F704700E100E038B5034639
:103B500090F8380038BB01229860D8609A634FF41F
:103B6000807258619A874FF4F0729861D861186238
:103B700058629862D8621863586383F83E00CA8618
:103B80004FF4887281F834000A8708639A6C1861D0
:103B900002F5FF24D3E9101529448C420AD9084BB9
:103BA0005821084A03E0084B40F2F511074A08483B
:103BB00032F07AFC1A6302F57F329C645A6338BD96
:103BC000488F0308888F03088E8D0308BE8D030875
:103BD000A9840308002370B5124E05468380124B5A
:103BE0000360336893F858200AB1D86C00B998681C
:103BF0000368DB6A98473368B0FA80F4D86C6409CC
:103C000030B10368DB6A9847002808BF44F001041C
:103C10002CB9064B2C21064A064832F045FC2846B2
:103C200070BD00BFA0820120309203082E910308CE
:103C30008C910308C591030870B5244E3568BFF315
:103C40005B8F15F001053FD1304631F0E8FC0028CC
:103C50003AD01F4C1F4B04F134002561E584A56266
:103C6000A585C4E90035C4E902551FF0B8FA04F18E
:103C700058001AF063F9184B2046A365174B40F81B
:103C8000843BFFF7A7FF164B1648C4F88430243353
:103C9000C4F89050C4F88C306423C4F89C50C4F825
:103CA000A850C4E928350023C4F8AC30C4F8B030BB
:103CB000C4F8B430C4F8B8300B4BC4F8983032F0C4
:103CC00011FC304631F0B7FC014870BD4C43002078
:103CD0005043002060C5030850920308C8920308AF
:103CE00014C5030865370008F4C4030810B5144C64
:103CF000236823B3134B144A1B6C11888B4213D1D6
:103D0000124B198805F0D8FD226892F86A30013309
:103D100082F86A30FEF774FD206817F077FE002005
:103D2000BDE81040FEF772BB05F0C6FD20680368D1
:103D30001B6A98470020BDE81040FEF797BB10BDF6
:103D4000A0820120006801404A430020484300202F
:103D50002DE9F74304464FF4707894F83A304FF069
:103D6000FF31002B31D0606D07F0AEF9276BA36AED
:103D7000BB4200D1676B266A656856B32B68314633
:103D800028465B6A98470023236284F83B30606DC5
:103D900007F0CAF92B684FF4F0723946CDF800806D
:103DA00028465E694FF48873B0474FF0FF310646EE
:103DB000606D07F089F994F83B30E3B1002384F893
:103DC0003B30606D07F0B0F9C7E7206D07F030FABF
:103DD000C3E7636A002BDAD02B682846D3E909933E
:103DE0009847616A01442846C847A368626A6662C8
:103DF0001344A360CBE7E7625EB12B6828469B6A59
:103E0000984701380023E06084F83C6084F83A3039
:103E1000D7E70120F6E70000014808B5FFF798FF53
:103E20000C4400200368042270B504465E6A002337
:103E30000D46B0474FF0FF31606D07F045F938236C
:103E400003FB0542D16A09B10021D16203FB05459C
:103E5000012385F83B30002385F83930606DBDE8DB
:103E6000704007F061B938B500EB810304460D4698
:103E7000114658680368DB68984729462046FFF7D3
:103E8000D1FF38BD70B50D461146044600EB8502E2
:103E90005068026896681A46B04729462046FFF7E0
:103EA000C1FF70BD38B5164900251648FEF77EFFE4
:103EB000154C164B01202A46294623604FF4807387
:103EC000A564A38784F84C0084F83E50C4E91055DB
:103ED000C4E91455C4E90155C4E90355C4E90555BD
:103EE000C4E90755C4E90955C4E90B55C4E90D55A2
:103EF00007F046F92065284607F0A4F8606538BD4C
:103F0000AC440020644400200C44002014930308B7
:103F1000704708B509292ED8DFE801F005090D1111
:103F200015191D21252903F047F8006808BD03F085
:103F300043F84068FAE703F03FF88068F6E703F0DB
:103F40003BF8C068F2E703F037F80069EEE703F0EA
:103F500033F84069EAE703F02FF88069E6E703F0F9
:103F60002BF8C069E2E703F027F8006ADEE703F008
:103F700023F8406ADAE70020D8E710B504460421A8
:103F800031F04BFB204610BD00487047609303089A
:103F90000420704713B5002451B1036801AA0194AD
:103FA0008DF803409C680DF10303A04702B010BDDB
:103FB0000846FBE7C0897047008A7047C088704791
:103FC00080887047807A00F07F007047807AC0094F
:103FD00070470020704700009FED010A704700BF46
:103FE00000000000704710B50446082131F015FBB1
:103FF000204610BD7047704700F5987308684968FF
:1040000003C37047704770474160704770470000B6
:10401000064BC0F84801C0F84C310023C0F85031BD
:1040200000F5A273C0F84031704700BF1D42000880
:104030000123037270477047704710B4416803460C
:10404000C2689B68541001EB6200D20748BF0A594E
:104050005DF8044B48BFD35818470346406830B159
:104060009A681AB9D86800F00100704701207047BB
:1040700010B504460C2131F0D0FA204610BD10B521
:104080000446102131F0C9FA204610BD10B504468F
:104090004FF4AE7131F0C1FA204610BD10B51DF0DD
:1040A000C7FC0368BDE81040DB6B184710B5044639
:1040B000D0F8400158B10368DB68984738B1D4F8AC
:1040C000400103689B6898470023C4F8403110BD45
:1040D0002DE9F14FD0E9556A0746B06803681B6ABD
:1040E000984742F64F43984205D8444BA321444A8F
:1040F000444832F0D9F9706803681B6A98470F2862
:1041000003D8414BA4213E4AF2E7F06803681B6ADA
:1041100098470B2803D83D4BA521394AE8E7DFF83B
:10412000F4901DF085FC04301DF0C0FCD9F80000AF
:1041300010B10368DB689847D9F8000010B1036834
:104140001B689847DFF8D080D8F8000010B10368EA
:104150005B699847D7F83C0110B103685B689847E2
:10416000D8F8000010B103681B689847D7F83C01E5
:1041700010B103689B689847F06800214FF0000B6E
:1041800003685B6A9847224B0446C0F804B080F885
:1041900008B059460360B06803685B6A98470546F3
:1041A00003F04EFA7068594603685B6A9847064602
:1041B000294603F023FA331DC7F83C612846C9F8A5
:1041C0000040C8F80050CAF800302B68C6F808A0B4
:1041D000DB68EE639847336830461B689847214692
:1041E00028461FF04FFD236820461B699847236827
:1041F00020465B6901B0BDE8F04F1847C093030843
:104200004E9403081C95030863950308069603085B
:10421000F0970308E8820120E48201202DE9F14FA4
:10422000D0E9556A0746B06803681B6A984742F2AE
:104230006363984205D8444BA321444A444832F072
:1042400033F9706803681B6A98470F2803D8414BFD
:10425000A4213E4AF2E7F06803681B6A98470B28DE
:1042600003D83D4BA521394AE8E7DFF8F4901DF06B
:10427000DFFB04301DF01AFCD9F8000010B1036810
:10428000DB689847D9F8000010B103681B689847AD
:10429000DFF8D080D8F8000010B103685B69984758
:1042A000D7F83C0110B103685B689847D8F8000064
:1042B00010B103681B689847D7F83C0110B1036838
:1042C0009B689847F06800214FF0000B03685B6A19
:1042D0009847224B0446C0F804B080F808B059460D
:1042E0000360B06803685B6A9847054602F054FFB4
:1042F0007068594603685B6A98470646294602F08B
:1043000029FF331DC7F83C612846C9F80040C8F8AA
:104310000050CAF800302B68C6F808A0DB68EE63CE
:104320009847336830461B689847214628461FF057
:10433000A9FC236820461B699847236820465B69CF
:1043400001B0BDE8F04F1847C0930308A9960308D1
:104350001C9503086395030806960308F097030865
:10436000E8820120E4820120044B1B6893F8582066
:104370000AB1D86C00B99868704700BFA0820120CC
:10438000F8B5174604460E461DF062FC124B002598
:104390001C602946114B2360114BC4E95135114B68
:1043A0001868C4E953550368C4E94F559B68C4E9CC
:1043B00055769847284602F0B3FDFFF7D5FF28F061
:1043C00078F9FFF7D1FF28F0EFF9FFF7CDFF28F0DC
:1043D000F7F92046F8BD00BFF48201209C9703083E
:1043E00084970308A0820120064BC0F84801C0F85A
:1043F0004C310023C0F8503100F5A273C0F84031B1
:10440000704700BF1D420008064BC0F84801C0F8C5
:104410004C310023C0F8503100F5A273C0F8403190
:10442000704700BFD1400008406A7047806A7047FB
:1044300070478B88C069DB0A0A6850F82300104473
:10444000704710B50446BAB1107B68B1537BD27A7D
:104450001B0203F4E0631A43236A03EB82031A8806
:104460008A4202D193F9020010BD05D80138043305
:1044700080B20028F3D1F7E70020F5E710B5044635
:104480002C2131F0CAF8204610BD000030B58BB0A9
:104490000446BDF860500895BDF85C5007959DF83E
:1044A000505006959DF84C5005959DF84850049540
:1044B0009DF8445003959DF8405002959DF83C505E
:1044C0000195BDF8385000951EF046FF064B20467A
:1044D0002360159BE361169B2362199B63621A9B01
:1044E000A3620BB030BD00BF14980308704770473B
:1044F00070477047704730B585B003680446018146
:104500006D460146D3F884303C342846984795E8F8
:10451000070084E8070005B030BD30B585B00368FA
:10452000044641816D460146D3F884303C34284628
:10453000984795E8070084E8070005B030BD0022E1
:10454000028042808280C280704780F836107047B7
:10455000036870B504461B6B1546984723682046D0
:1045600029465B6EBDE87040184700207047806C9C
:1045700070477047704710B504464C2131F04DF834
:10458000204610BD034B10B5044603601BF03CFDF4
:10459000204610BDC49A0308064B10B504460360BC
:1045A0001BF032FD42F26461204631F036F82046BD
:1045B00010BD00BFC49A030808B51DF039FABDE864
:1045C0000840FFF721BF08B5FFF77EF908BD0000DE
:1045D000036870B55E6B0446114B8DB21B682BB936
:1045E000104B6C21104A114831F05EFF1049828D4A
:1045F0000988914203D80F4B6D210B4AF3E713F85A
:1046000012200D4B1B6853F8220003681B6B984760
:10461000291A3346204609B2BDE87040184700BF4A
:10462000F882012074980308B6980308F1980308EB
:10463000FC8201203899030800830120036870B5CB
:1046400004461B6B154698472368204629465B6B3A
:10465000BDE87040184770B504461D46BDF91060AE
:10466000FFF7ECFF2368294620469B6B9847236899
:1046700031462046DB6BBDE8704018470022C0E998
:104680000122C0E90322C0E90522C0E907224FF454
:1046900080728284014A0260704700BFCC9903088F
:1046A00038B504460D462622002132F0B9F92046DD
:1046B000FFF7E4FF064B2046294623602B88E3845E
:1046C000FF2384F828301AF09AFD204638BD00BF39
:1046D00008CA030800224FF0FF318260C0E90021C0
:1046E000704710B50446FFF7F5FF204610BD0000E7
:1046F00010B504460021262232F092F92046FFF739
:10470000BDFF094B4FF47F0204F13C002360074BCF
:10471000A3624FF6FF73A3850023C4E90C322387FD
:10472000FFF7D8FF204610BD28C80308B893030838
:1047300010B50446FFF7DCFF024B20462360002340
:10474000A36410BD349A03082DE9F04F0446A7B0C6
:1047500000271FF0EBF8A046A64B26223946E76358
:1047600004F16C0648F8403B404632F059F94046A7
:10477000FFF784FFA04B04F5037930462364FF2341
:10478000A7664FF6FF7584F866304FF4887A1AF002
:1047900085FB4846FFF7CCFF04F5167304F6B81BFB
:1047A00018460393FFF7C4FF04F5297318460493D2
:1047B000FFF7BEFF04F53C7318461093FFF798FF10
:1047C00004F54E7318460593FFF7B2FF04F56173C5
:1047D00018460693FFF7ACFF04F57473184611935F
:1047E000FFF7A6FF04F21C4318461293FFF7A0FF41
:1047F00004F58D6318461393FFF79AFF04F2B44350
:1048000018461493FFF794FF04F5A0631846159318
:10481000FFF78EFF04F24C5318461693FFF788FFFC
:1048200004F5B36318461793FFF782FF04F2E453CD
:1048300018460793FFF75CFF04F22C6318460893B1
:10484000FFF756FF04F2746318460993FFF750FF11
:1048500004F2BC6318460A93FFF74AFF04F204739C
:1048600018460B93FFF744FF04F24C7318460C9361
:10487000FFF73EFF04F2947318461893FFF758FFB2
:1048800004F5FC6318461993FFF752FF04F62C0356
:1048900018460D93FFF72CFF04F6740318460E9389
:1048A000FFF726FF04F6BC0318460F93FFF720FF1F
:1048B00004F6041323A9ADF88C5018461A93FFF799
:1048C000EFFE04F5136323A9ADF88C5018461B9333
:1048D000FFF7E6FE04F65C13251D18461C9318F03E
:1048E000C9FD04F6A41318461D93FFF773F9434B53
:1048F0004FF4E15104F64420C4F8A4392433C4F839
:10490000B079C4F8AC391BF075FB3A4640464FF419
:10491000F0733946CDF800A0FFF79DFE4FF07F43BE
:1049200041462846A3664FF0FF3816F039F8304666
:1049300023A9ADF88C7015F0C5FF4FF4F073304625
:104940003A463946CDF800A0FFF785FE304688226A
:10495000F0211AF04EFB304664226FF0B3011AF0DA
:10496000CDFB3B4642F2283230463946009715F0DF
:1049700056FE30463946DFF89CA01AF069FB8623C4
:104980000822304602211AF01FFB304601211AF09E
:10499000BDFA304601211AF0BCFA314628461EAE57
:1049A00015F0FEFFB022FD214846FFF747FED4F880
:1049B0000C3249463046D3F88430C4F83C82A4F81F
:1049C0004072984704F5127396E8070083E80700E1
:1049D000DAF800302BB90A4B60210A4A0A4831F054
:1049E00063FD0A4B1B88402B16D8094B6121054AF1
:1049F000F4E700BFC49A0308B8C8030814C5030845
:104A00007498030876990308F1980308FC82012042
:104A100038990308F8820120D24B4021186802F02F
:104A2000BBFAD14A03460521584620F03DFC4846D2
:104A3000C4F854B21AF074F9DFF834B36523484669
:104A400023A9CDF88CB0ADF890301AF089F9494619
:104A5000284615F0A5FFB0224FF48F710398FFF799
:104A6000EDFDD4F8583203993046D3F8843004F67B
:104A7000C219C4F88882A4F88C72984704F525738B
:104A800096E8070083E80700DAF80030002BA2D090
:104A9000B64A1388412BA8D9B24B4121186802F0BD
:104AA0007BFAB14A03460521484620F0FDFB0398F6
:104AB000C4F8A09204F6CC191AF032F9642323A9A1
:104AC0000398ADF89030CDF88CB01AF049F90399FD
:104AD000284615F065FFDF22FC210498FFF7AEFDA4
:104AE000D4F8A43204993046D3F88430C4F8D48280
:104AF000A4F8D872984704F5387396E8070083E85D
:104B00000700DAF80030002B3FF465AF974A1388AE
:104B1000422B7FF66AAF934B4221186802F03CFAB1
:104B2000914A03460521484620F0BEFB0498C4F88C
:104B3000EC9204F6D6191AF0F3F8632323A904982B
:104B4000ADF89030CDF88CB01AF00AF904992846E7
:104B500015F026FFE02240F22D111098FFF76EFDB0
:104B600010993046C4F82083A4F8247319F05EFE2F
:104B700004F54B7396E8070083E80700622323A936
:104B80001098ADF89030CDF88CB01AF0E9F8109983
:104B9000284615F005FF082218210598FFF74EFD5D
:104BA000D4F8383305993046D3F88430C4F8688394
:104BB000A4F86C73984704F55D7396E8070083E8E2
:104BC0000700DAF80030002B3FF405AF674A13887E
:104BD000472B7FF60AAF634B4721186802F0DCF9D8
:104BE000614A03460521484620F05EFB0598C4F85B
:104BF00080931AF095F8612323A90598ADF89030B9
:104C0000CDF88CB01AF0ACF80599284615F0C8FE1E
:104C1000862212210698FFF711FDD4F8843330461E
:104C20000699D3F88430C4F8B483A4F8B8739847CD
:104C300004F5707396E8070083E80700DAF800309F
:104C400004F51E66002B3FF4C6AE484A1388452B78
:104C50007FF6CBAE434B45214FF0FF3A4FF00009B2
:104C6000186802F099F9404A034605213046DFF8FA
:104C7000048120F019FB0698C4F8CC6323AE1AF027
:104C80004FF8592331460698ADF89030CDF88CB0E6
:104C90001AF066F80699284615F082FE472213217D
:104CA0001198FFF7CBFC3046C4F800A404F6EA1BC9
:104CB000A4F80494FFF70EFD04F20C4396E80700F5
:104CC00083E80700D8F80030002B3FF484AE274F6C
:104CD0003B88462B7FF689AE224B4621186802F0AE
:104CE0005BF9214A03460521584620F0DDFA119868
:104CF000C4F818B404F6F41B1AF012F81C495E2329
:104D0000119823913146ADF890301AF029F8119995
:104D1000284615F045FEE52242211298FFF78EFC49
:104D20003046C4F84CA4A4F85094FFF7D3FC04F523
:104D30008B6396E8070083E80700D8F80030002B63
:104D40003FF449AE3B88432B7FF64FAE054B4321E2
:104D5000186802F021F9044A03460521584620F05C
:104D6000A3FA09E00483012010B80308FC820120A3
:104D7000B8930308F88201201298C4F864B404F6CA
:104D8000FE1B19F0CDFFD7495123129823913146CC
:104D9000ADF8903019F0E4FF1299284615F000FEA6
:104DA000C72242211398FFF749FC3046C4F898A463
:104DB000A4F89C94FFF78EFC04F2A44396E8070045
:104DC00083E80700D8F80030002B3FF404AE3B889E
:104DD000442B7FF60AAEC44B4421186802F0DCF87D
:104DE000C24A03460521584620F05EFA1398C4F8DB
:104DF000B0B419F095FFBB49502313982391314665
:104E0000ADF8903019F0ACFF1399284615F0C8FDA5
:104E1000082240F2A3111498FFF710FCC4F8E4A490
:104E20003046A4F8E894FFF755FC04F59E6304F6B9
:104E3000082A96E8070083E80700D8F80030002B1E
:104E40003FF4C9AD3B884D2B7FF6CFADA64B4D212E
:104E5000186802F0A1F8A54A03460521504620F043
:104E600023FA1498C4F8FCA419F05AFF9D4958235A
:104E7000149823913146ADF8903019F071FF1499D0
:104E8000284615F08DFD86224FF4CC711598FFF75A
:104E9000D5FB6FF0FF033046A4F83495C4F83035E5
:104EA000FFF718FC04F23C5396E8070083E807007C
:104EB000D8F8003004F61226002B3FF48CAD3B8866
:104EC000492B7FF692AD884B492123AFDFF814922E
:104ED00018684FF0000802F05FF8844A0346052185
:104EE0003046DFF810B220F0DFF91598C4F84865B5
:104EF00004F61C2619F014FF5C2339461598ADF80A
:104F00009030CDF88C9019F02BFF1599284615F0AC
:104F100047FD472240F2A3111698FFF78FFB6FF071
:104F2000FF033846A4F88085C4F87C35FFF7D2FB30
:104F300004F5B16397E8070083E80700DBF8003069
:104F4000002B3FF448AD6A4A13884B2B7FF64DADDA
:104F5000654B4B214FF0FF3A186802F01DF8634A89
:104F600003460521304620F09FF91698C4F8946551
:104F700004F6262619F0D4FE572339461698ADF8C4
:104F80009030CDF88C9019F0EBFE1699284615F06C
:104F900007FDC72240F289111798FFF74FFB3846EB
:104FA000C4F8C8A5A4F8CC85FFF794FB04F2D45349
:104FB00097E8070083E80700DBF80030002B3FF498
:104FC0000AAD4B4A1388482B7FF60FAD464B48215C
:104FD000186801F0E1FF454A03460521304620F0FC
:104FE00063F91798C4F8E0651EAE19F099FE5B23CB
:104FF00039461798ADF89030CDF88C9019F0B0FE86
:105000001799284615F0CCFC372209210798FFF79D
:1050100015FB07993046C4F814A6A4F8188619F0B1
:1050200005FC079901F13C0396E8070083E80700B7
:10503000602339460798ADF89030CDF88C9019F080
:105040008FFE0799284615F0ABFCB322092108987A
:10505000FFF7F4FA08993046C4F85CA6A4F8608615
:1050600019F0E4FB089901F13C0396E8070083E896
:105070000700562339460898ADF89030CDF88C904B
:1050800019F06EFE0899284615F08AFCF7220921CE
:105090000998FFF7D3FA09993046C4F8A4A6A4F8F2
:1050A000A88619F0C3FB099901F13C0396E80700B3
:1050B00083E80700532339460998ADF89030CDF8BE
:1050C0008C9019F04DFE0999284615F069FCDB22F9
:1050D00009210A98FFF7B2FA0A993046C4F8ECA6FB
:1050E0000AE000BFB89303080483012010B8030846
:1050F000FC820120F8820120A4F8F08619F096FBCA
:105100000A9901F13C0396E8070083E8070052235F
:1051100039460A98ADF89030CDF88C9019F020FE01
:105120000A99284615F03CFC752209210B98FFF7D7
:1051300085FA0B993046C4F834A7A4F8388719F0DB
:1051400075FB0B9901F13C0396E8070083E8070023
:105150005F2339460B98ADF89030CDF88C9019F05C
:10516000FFFD0B99284615F01BFC37224FF4B9714F
:105170000C98FFF763FA0C993046C4F87CA7A4F8A2
:10518000808719F053FB0C9901F13C0396E8070066
:1051900083E80700552339460C98ADF89030CDF8D8
:1051A0008C9019F0DDFD0C99284615F0F9FB2322AF
:1051B00040F28B111898FFF741FA3846C4F8C4A79B
:1051C000A4F8C887FFF786FA04F5FA6397E80700A2
:1051D00083E8070004F52361DBF800300391002B1E
:1051E0003FF4F9AB8D4A13884C2B7FF6FEAB8C4B0A
:1051F0004C21186801F0D0FE8A4A03460521039825
:1052000020F052F803991898C4F8DC1719F088FDBB
:105210004F2339461898ADF89030CDF88C9019F09E
:105220009FFD1899284615F0BBFB622240F28B11B6
:105230001998FFF703FA3846C4F810A8A4F81488A0
:10524000FFF748FA04F61C0397E8070083E8070015
:1052500004F63A21DBF800300391002B3FF4BBAB9E
:105260006E4A13884A2B7FF6C0AB6D4B4A211868F3
:1052700001F092FE6B4A03460521039820F014F8D2
:10528000039B1998C4F8283819F04AFD4E23394673
:105290001998ADF89030CDF88C9019F061FD1999FE
:1052A000284615F07DFBB3220D9840F27711FFF7E9
:1052B000C5F90D993046C4F85CA8A4F8608819F0C7
:1052C000B5FA0D9B96E807003C33CDF88C9083E847
:1052D00007005D2339460D98ADF8903019F040FD78
:1052E0000D99284615F05CFB75220E9840F281114D
:1052F000FFF7A4F90E993046C4F8A4A8A4F8A8882A
:1053000019F094FA0E9B96E807003C33CDF88C9088
:1053100083E80700542339460E98ADF8903019F011
:105320001FFD0E99284615F03BFBF5220F984FF410
:10533000B771FFF783F90F993046C4F8ECA8A4F8C9
:10534000F08819F073FA0F9B96E807003C33CDF80C
:105350008C9083E807005A2339460F98ADF89030B7
:1053600019F0FEFC0F99284615F01AFB3C221A98FA
:10537000D821FFF763F9032339461A98ADF88C302A
:1053800019F03DFF1A99284615F00AFB6C221B986C
:105390004FF48671FFF752F9012339461B98ADF897
:1053A0008C3019F02CFF1B99284615F0F9FA4FF4B0
:1053B0008873424641461C9800934FF4F073FFF700
:1053C0004AF94FF4F05328461C99C4F888394FF431
:1053D0008853C4F89C89C4F88C394FF40C53C4F832
:1053E0009489C4F890394FF4345384F88189C4F80F
:1053F00098394FF0FF23C4F8B0394FF4FC63A4F898
:10540000B4391D9BC4F88439842384F8823915F09B
:10541000C7FA204627B0BDE8F08F00BFFC8201200C
:105420000483012010B8030870470000034B10B537
:10543000044603601AF0E8FD204610BDFC9A0308FC
:10544000064B10B5044603601AF0DEFD42F65041EB
:10545000204630F0E2F8204610BD00BFFC9A030859
:1054600008B51CF0E5FABDE80840FEF7BDBF000036
:1054700010B504462622002131F0D2FA2046FFF76B
:10548000FDF8044B20462360FF2384F826300023D8
:10549000A36210BDB8C8030810B4C46B4A01B4EBD2
:1054A000411F04D05DF8044BC26318F011BF5DF8D2
:1054B000044B70472DE9F04F0446BDB000261EF0A6
:1054C00035FA2546D54B04F16C09E66345F8403BB7
:1054D0002846FFF7CDFF4846FFF7CAFF04F19803BF
:1054E000CF4F04F1040A18460893FFF721F904F19D
:1054F000E40307F1240818460993FFF719F904F5A6
:10550000987318460A93FFF713F904F5BE7318460B
:105510000B93FFF70DF904F5E47318460C93FFF7AE
:1055200007F904F5057318460393FFF701F904F52D
:10553000187318460493FFF7FBF804F52B7318460D
:105540002293FFF7F5F804F53E7318462393FFF70F
:10555000EFF804F5517318462493FFF7E9F804F5C2
:10556000647318462593FFF7E3F804F5777318463C
:105570002693FFF7DDF804F5856318462793FFF7B8
:10558000D7F804F2744318462893FFF7D1F804F5CE
:10559000986318462993FFF7CBF804F20C5318468A
:1055A0002A93FFF7C5F804F5AB6318462B93FFF772
:1055B000BFF804F2A45318462C93FFF7B9F804F58A
:1055C000BE6318462D93FFF7B3F804F23C63184608
:1055D0002E93FFF7ADF804F5D16318460D93FFF74E
:1055E00087F804F5DA6318460E93FFF781F804F59F
:1055F000E36318460F93FFF77BF804F5EC63184656
:105600001093FFF775F804F5F56318461193FFF74B
:105610006FF804F5FE6318461293FFF769F804F675
:10562000380318461393FFF763F804F50863184628
:105630002F93FFF77DF804F6CC0318463093FFF75D
:1056400077F804F6181318461493FFF751F804F589
:10565000166318461593FFF74BF804F6A81318467F
:105660001693FFF745F804F51F6318461793FFF7E5
:105670003FF804F6382318461893FFF739F804F575
:10568000286318461993FFF733F804F6C823184621
:105690001A93FFF72DF804F5316318461B93FFF7B3
:1056A00027F804F6583318461C93FFF721F804F541
:1056B0003A6318461D93FFF71BF804F6E8331846C3
:1056C0001E93FFF715F804F543631846059318F089
:1056D000DFFD04F54A6318463193FEF77BFA04F6C2
:1056E000B443C4F8A07C1846C4F8A88CC4F8AC6CC9
:1056F000069318F0CDFD04F6245318463293FEF7B6
:1057000069FA04F63853C4F8247D1846C4F82C8D81
:10571000C4F8306D1F93FEF7EBFF04F5586318468D
:105720002093FEF7E5FF04F6C8531846079318F0D8
:10573000AFFD04F6386318463393FEF74BFA04F6D0
:105740004C63C4F8387E4FF6FF7726223146184660
:10575000C4F8408EC4F8446E4FF488782193ADF8B5
:10576000E47031F05DF92198FEF788FF2D4B39A9DF
:105770002198C4F84C3EBDF8E43084F8747E4FF0B4
:105780007F47A4F8723E19F03AFD04F581504FF4BA
:10579000E15110301AF02EFC4FF4F07332462846D7
:1057A0003146CDF80080FEF756FF29465046A766E1
:1057B00015F0F6F84FF4F073324648463146CDF80E
:1057C0000080FEF748FF49465046C4F8947015F033
:1057D000E7F81A225C210898FEF730FF34ADD4F8C0
:1057E00098304FF0FF3908992846D3F8843004F6F2
:1057F0007868C4F8C890A4F8CC6098470A4F04F1C0
:10580000D40395E8070083E807003B68A3B9074B7A
:105810006021074A074830F047FE00BFFC9A0308A2
:1058200014C5030808CA0308F88201207498030805
:1058300076990308F1980308DFF818B0BBF8003038
:10584000182B09D8014B6121014AE3E73899030875
:1058500076990308FC820120CE4B1821186801F0CC
:105860009BFBCD4A03460A2140461FF01DFD0898C8
:10587000C4F8E08019F054FADFF824833F2339A9F3
:105880000898ADF8E830CDF8E48019F069FA089985
:10589000504615F085F81A22A6210998FEF7CEFE8B
:1058A000D4F8E43009992846D3F88430C4F8149128
:1058B000A4F81861984704F5907395E8070083E809
:1058C000070004F68C623B680892002B9FD0BBF85F
:1058D0000030172BB6D9AF4B1721186801F05CFBCD
:1058E0000A210346AC4A08981FF0DEFC089A099882
:1058F000C4F82C2119F014FA1F2339A90998ADF81E
:10590000E830CDF8E48019F02BFA0999504615F0EB
:1059100047F836226C210A98FEF790FED4F8303111
:105920000A992846D3F88430C4F86091A4F86461D9
:10593000984704F5B67395E8070083E8070004F577
:105940006A623B680892002B3FF461AFBBF80030FD
:10595000162B7FF677AF8F4B1621186801F01CFBD2
:105960000A2103468C4A08981FF09EFC089A0A9860
:10597000C4F8782119F0D4F93C2339A90A98ADF874
:10598000E830CDF8E48019F0EBF90A99504615F0AB
:1059900007F83622B6210B98FEF750FED4F87C317A
:1059A0000B992846D3F88430C4F8AC91A4F8B061C0
:1059B000984704F5DC7395E8070083E8070004F6D0
:1059C000B4623B680892002B3FF421AFBBF8003073
:1059D000152B7FF637AF6F4B1521186801F0DCFAF5
:1059E0000A2103466C4A08981FF05EFC089A0B983F
:1059F000C4F8C42119F094F91E2339A90B98ADF805
:105A0000E830CDF8E48019F0ABF90B99504614F06A
:105A1000C7FF1A224FF4D1710C98FEF70FFED4F88D
:105A2000C83128460C99D3F88430C4F8F891A4F80A
:105A3000FC61984704F5017395E8070083E80700C7
:105A40003B6804F6C865002B3FF4E1AEBBF80030BC
:105A5000112B7FF6F7AEDFF83CB1112134AE4FF0D9
:105A60000009DBF8000001F097FA4B4A03460A21CF
:105A700028461FF019FC0C98C4F8105239AD19F0E3
:105A80004FF93A2329460C98ADF8E830CDF8E48078
:105A900019F066F90C99504614F082FF1A224FF45F
:105AA000AB710398FEF7CAFD4FF0FF32D4F8143201
:105AB00030460399D3F88430C4F84422A4F84892BD
:105AC0009847039ADFF8DC8002F13C0396E8070070
:105AD00083E8070004F6DC62D8F800300892002B57
