:020000040800F2
:1000000000000520D5200008E51F0008E71F0008B4
:10001000E91F0008EB1F0008ED1F000800000000AA
:1000200000000000000000000000000091AE000889
:10003000EF1F00080000000031AF000895AF000876
:100040002521000825210008252100082521000878
:100050002521000825210008252100082521000868
:100060002521000825210008252100082521000858
:100070002521000825210008252100082521000848
:100080002521000825210008252100082521000838
:10009000F11F00082521000825210008252100085E
:1000A0002521000825210008252100082521000818
:1000B0002521000825210008252100082521000808
:1000C00025210008252100082521000825210008F8
:1000D00025210008252100082521000825210008E8
:1000E00025210008252100082521000825210008D8
:1000F00025210008252100082521000825210008C8
:1001000025210008252100082521000825210008B7
:100110002521000825210008FD1F000825210008D1
:100120002521000825210008252100082521000897
:100130002521000825210008252100082521000887
:100140002521000825210008252100082521000877
:100150002521000825210008252100082521000867
:100160002521000825210008252100082521000857
:100170002521000825210008252100080000000095
:100180002521000825210008252100082521000837
:100190002521000825210008252100082521000827
:1001A0000920000825210008152000082521000845
:1001B0002521000825210008252100082521000807
:0801C00025210008252100089B
:1001D00010B5054C237833B9044B13B10448AFF381
:1001E00000800123237010BD0004002000000000E7
:1001F0003C6F030808B5034B1BB103490348AFF339
:10020000008008BD00000000040400203C6F0308CB
:1002100001F0FF01102A2BDB10F0070F08D010F8B7
:10022000013B013A8B422DD010F0070F42B3F6D1BB
:10023000F0B441EA012141EA014122F007047FF0D4
:1002400000070023F0E80256083C85EA010586EA2B
:10025000010685FA47F5A3FA87F586FA47F6A5FA67
:1002600087F68EB9EED1F0BC01F0FF0102F0070273
:1002700032B110F8013B013A83EA010313B1F8D11E
:100280000020704701387047002D06BF35460338FF
:10029000073815F0010F07D1013015F4807F02BF38
:1002A000013015F4C03F0130F0BC0138704700BF89
:1002B00081F0004102E000BF83F0004330B54FEA17
:1002C00041044FEA430594EA050F08BF90EA020F84
:1002D0001FBF54EA000C55EA020C7FEA645C7FEA17
:1002E000655C00F0E2804FEA5454D4EB5555B8BF3A
:1002F0006D420CDD2C4480EA020281EA030382EAAB
:10030000000083EA010180EA020281EA0303362D3C
:1003100088BF30BD11F0004F4FEA01314FF4801C0F
:100320004CEA113102D0404261EB410113F0004F21
:100330004FEA03334CEA133302D0524263EB4303D8
:1003400094EA050F00F0A780A4F10104D5F1200E76
:100350000DDB02FA0EFC22FA05F2801841F10001D1
:1003600003FA0EF2801843FA05F359410EE0A5F1A5
:1003700020050EF1200E012A03FA0EFC28BF4CF0D6
:10038000020C43FA05F3C01851EBE37101F000458C
:1003900007D54FF0000EDCF1000C7EEB00006EEB99
:1003A0000101B1F5801F1BD3B1F5001F0CD3490823
:1003B0005FEA30004FEA3C0C04F101044FEA44527A
:1003C00012F5800F80F09A80BCF1004F08BF5FEA01
:1003D000500C50F1000041EB045141EA050130BDE1
:1003E0005FEA4C0C404141EB0101013C28BFB1F5F3
:1003F000801FE9D291F0000F04BF01460020B1FA3E
:1004000081F308BF2033A3F10B03B3F120020CDA10
:100410000C3208DD02F1140CC2F10C0201FA0CF0EE
:1004200021FA02F10CE002F11402D8BFC2F1200C53
:1004300001FA02F120FA0CFCDCBF41EA0C01904009
:10044000E41AA2BF01EB0451294330BD6FEA040452
:100450001F3C1CDA0C340EDC04F11404C4F120023D
:1004600020FA04F001FA02F340EA030021FA04F34F
:1004700045EA030130BDC4F10C04C4F1200220FAA6
:1004800002F001FA04F340EA0300294630BD21FAE4
:1004900004F0294630BD94F0000F83F4801306BFAA
:1004A00081F480110134013D4EE77FEA645C18BF9E
:1004B0007FEA655C29D094EA050F08BF90EA020F35
:1004C00005D054EA000C04BF1946104630BD91EA2D
:1004D000030F1EBF0021002030BD5FEA545C05D130
:1004E0004000494128BF41F0004130BD14F580046F
:1004F0003CBF01F5801130BD01F0004545F0FE41E3
:1005000041F470014FF0000030BD7FEA645C1ABF17
:10051000194610467FEA655C1CBF0B46024650EA4E
:10052000013406BF52EA033591EA030F41F400217A
:1005300030BD00BF90F0000F04BF0021704730B500
:100540004FF4806404F132044FF000054FF00001D5
:1005500050E700BF90F0000F04BF0021704730B596
:100560004FF4806404F1320410F0004548BF40426B
:100570004FF000013EE700BF42004FEAE2014FEAC0
:1005800031014FEA02701FBF12F07F4393F07F4F9B
:1005900081F06051704732F07F4208BF704793F09E
:1005A0007F4F04BF41F40021704730B54FF46074B1
:1005B00001F0004521F000411CE700BF50EA0102B4
:1005C00008BF704730B54FF000050AE050EA01025D
:1005D00008BF704730B511F0004502D5404261EBCD
:1005E00041014FF4806404F132045FEA915C3FF40E
:1005F000D8AE4FF003025FEADC0C18BF03325FEAAB
:10060000DC0C18BF033202EBDC02C2F1200300FA5B
:1006100003FC20FA02F001FA03FE40EA0E0021FA80
:1006200002F11444BDE600BF70B54FF0FF0C4CF46E
:10063000E06C1CEA11541DBF1CEA135594EA0C0F20
:1006400095EA0C0F00F0DEF82C4481EA030621EA5B
:100650004C5123EA4C5350EA013518BF52EA033596
:1006600041F4801143F4801338D0A0FB02CE4FF048
:100670000005E1FB02E506F00042E0FB03E54FF078
:100680000006E1FB03569CF0000F18BF4EF0010E70
:10069000A4F1FF04B6F5007F64F5407404D25FEA6C
:1006A0004E0E6D4146EB060642EAC62141EA55511F
:1006B0004FEAC52040EA5E504FEACE2EB4F1FD0C61
:1006C00088BFBCF5E06F1ED8BEF1004F08BF5FEADF
:1006D000500E50F1000041EB045170BD06F0004691
:1006E00046EA010140EA020081EA0301B4EB5C043E
:1006F000C2BFD4EB0C0541EA045170BD41F4801136
:100700004FF0000E013C00F3AB8014F1360FDEBF5A
:10071000002001F0004170BDC4F10004203C35DA36
:100720000C341BDC04F11404C4F1200500FA05F3B9
:1007300020FA04F001FA05F240EA020001F000425A
:1007400021F0004110EBD37021FA04F642EB0601D0
:100750005EEA430E08BF20EAD37070BDC4F10C04FA
:10076000C4F1200500FA04F320FA05F001FA04F2BE
:1007700040EA020001F0004110EBD37041F10001AA
:100780005EEA430E08BF20EAD37070BDC4F12005B5
:1007900000FA05F24EEA020E20FA04F301FA05F21D
:1007A00043EA020321FA04F001F0004121FA04F2C5
:1007B00020EA020000EBD3705EEA430E08BF20EA95
:1007C000D37070BD94F0000F0FD101F000464000CF
:1007D00041EB010111F4801F08BF013CF7D041EA51
:1007E000060195F0000F18BF704703F00046520055
:1007F00043EB030313F4801F08BF013DF7D043EA26
:100800000603704794EA0C0F0CEA135518BF95EADB
:100810000C0F0CD050EA410618BF52EA4306D1D162
:1008200081EA030101F000414FF0000070BD50EA81
:10083000410606BF1046194652EA430619D094EA0B
:100840000C0F02D150EA013613D195EA0C0F05D1F5
:1008500052EA03361CBF104619460AD181EA030149
:1008600001F0004141F0FE4141F470014FF0000001
:1008700070BD41F0FE4141F4780170BD70B54FF09C
:10088000FF0C4CF4E06C1CEA11541DBF1CEA13551C
:1008900094EA0C0F95EA0C0F00F0A7F8A4EB0504FE
:1008A00081EA030E52EA03354FEA013100F08880F5
:1008B0004FEA03334FF0805545EA131343EA1263BE
:1008C0004FEA022245EA111545EA10654FEA002673
:1008D0000EF000419D4208BF964244F1FD0404F52C
:1008E000407402D25B084FEA3202B61A65EB030588
:1008F0005B084FEA32024FF480104FF4002CB6EB45
:10090000020E75EB030E22BFB61A754640EA0C00C4
:100910005B084FEA3202B6EB020E75EB030E22BF04
:10092000B61A754640EA5C005B084FEA3202B6EB45
:10093000020E75EB030E22BFB61A754640EA9C0004
:100940005B084FEA3202B6EB020E75EB030E22BFD4
:10095000B61A754640EADC0055EA060E18D04FEA92
:10096000051545EA16754FEA06164FEAC30343EA32
:1009700052734FEAC2025FEA1C1CC0D111F4801FFF
:100980000BD141EA00014FF000004FF0004CB6E7F8
:1009900011F4801F04BF01430020B4F1FD0C88BF97
:1009A000BCF5E06F3FF6AFAEB5EB030C04BFB6EBA2
:1009B000020C5FEA500C50F1000041EB045170BD95
:1009C0000EF0004E4EEA113114EB5C04C2BFD4EBC2
:1009D0000C0541EA045170BD41F480114FF0000E46
:1009E000013C90E645EA060E8DE60CEA135594EAC2
:1009F0000C0F08BF95EA0C0F3FF43BAF94EA0C0FC5
:100A00000AD150EA01347FF434AF95EA0C0F7FF439
:100A100025AF104619462CE795EA0C0F06D152EA8D
:100A200003353FF4FDAE1046194622E750EA410671
:100A300018BF52EA43067FF4C5AE50EA41047FF482
:100A40000DAF52EA43057FF4EBAE12E74FEA4102E5
:100A500012F5001215D211D56FF47873B3EB625210
:100A600012D94FEAC12343F0004343EA505311F037
:100A7000004F23FA02F018BF404270474FF00000C9
:100A8000704750EA013005D111F0004008BF6FF007
:100A9000004070474FF00000704700BF4FEA41022E
:100AA000B2F1E04324BFB3F5001CDCF1FE5C0DD9CC
:100AB00001F0004C4FEAC0024CEA5070B2F1004F16
:100AC00040EB830008BF20F00100704711F0804F19
:100AD00021D113F13872BCBF01F00040704741F4DE
:100AE00080114FEA5252C2F11802C2F1200C10FAE2
:100AF0000CF320FA02F018BF40F001004FEAC123C6
:100B00004FEAD32303FA0CFC40EA0C0023FA02F369
:100B10004FEA4303CCE77FEA625307D150EA01333F
:100B20001EBF4FF0FE4040F44000704701F000400F
:100B300040F0FE4040F40000704700BF7BB972B93E
:100B40000029BEBF00204FF0004106E008BF00288A
:100B50001CBF6FF000414FF0FF3000F0B5B9ADF1B0
:100B6000080C6DE904CE002909DB002B1ADB00F02C
:100B70004DF8DDF804E0DDE9022304B0704740429F
:100B800061EB4101002B1BDB00F040F8DDF804E0D5
:100B9000DDE9022304B0404261EB4101524263EBC4
:100BA00043037047524263EB430300F02FF8DDF834
:100BB00004E0DDE9022304B0404261EB41017047EB
:100BC000524263EB430300F021F8DDF804E0DDE975
:100BD000022304B0524263EB4303704753B94AB94E
:100BE000002908BF00281CBF4FF0FF314FF0FF3035
:100BF00000F06AB9ADF1080C6DE904CE00F006F81A
:100C0000DDF804E0DDE9022304B070472DE9F04788
:100C1000089D0C46002B4ED194468C458646B2FA70
:100C200082F262D94AB1C2F12003914020FA03F363
:100C30000CFA02FC194300FA02FE4FEA1C471FFAA5
:100C40008CF6B1FBF7F44FEA1E4307FB141143EA9D
:100C5000014304FB06F199420AD91CEB030304F19A
:100C6000FF3080F01281994240F20F81023C6344D0
:100C7000591A1FFA8EF3B1FBF7F007FB101143EA84
:100C8000014300FB06F69E420AD91CEB030300F168
:100C9000FF3180F0FC809E4240F2F98063440238CC
:100CA0009B1B40EA044000211DB1D3400022C5E94E
:100CB0000032BDE8F0878B4205D90DB1C5E90001CE
:100CC00000210846F5E7B3FA83F1002946D1A34293
:100CD00002D39042C0F0F080861A64EB0303012037
:100CE000002DE6D0C5E90063E3E7002A40F09080DC
:100CF000A1EB0C044FEA1C481FFA8CF70121B4FB4E
:100D0000F8F64FEA1E4308FB164443EA044307FB88
:100D100006F0984208D91CEB030306F1FF3402D217
:100D2000984200F2CD8026461C1A1FFA8EF3B4FBBF
:100D3000F8F008FB104443EA044300FB07F79F4226
:100D400008D91CEB030300F1FF3402D29F4200F2EA
:100D5000B0802046DB1B40EA0640A5E7C1F1200633
:100D60008B4022FA06F71F4320FA06FC04FA01F32F
:100D700043EA0C03F44000FA01F8380C4FEA134937
:100D8000B4FBF0FE1FFA87FC00FB1E4449EA044452
:100D90000EFB0CF9A14502FA01F20AD93C190EF139
:100DA000FF3A80F08480A14540F28180AEF1020ECE
:100DB0003C44A4EB09041FFA83F9B4FBF0F300FBF5
:100DC000134449EA044403FB0CFCA44507D93C192D
:100DD00003F1FF3067D2A44565D9023B3C4443EAA6
:100DE0000E40A0FB0293A4EB0C049C42CE469C4612
:100DF00051D34ED055B1B8EB0E0364EB0C0404FA9A
:100E000006F6CB401E43CC40C5E90064002150E704
:100E1000C2F1200320FA03F10CFA02FC24FA03F3D6
:100E200094400C434FEA1C4800FA02FE1FFA8CF76C
:100E3000B3FBF8F008FB1031230C43EA014300FB3D
:100E400007F1994208D91CEB030300F1FF362CD2BD
:100E500099422AD9023863445B1AA4B2B3FBF8F171
:100E600008FB113344EA034401FB07F3A34208D90A
:100E70001CEB040401F1FF3613D2A34211D902394D
:100E80006444E41A41EA004139E70446F0E60846C2
:100E900006E7C845AED2B9EB020E63EB070C01388A
:100EA000A8E73146EDE7034699E73046D4E7D64652
:100EB0007FE7634402384DE70646234608460FE7BE
:100EC000023E634430E700BF704700BF0149002085
:100ED0000BF0DCB9D125000808B5642009F0EAFB65
:100EE000FBE7000000B52E4E99B02E4D2E4C2F4A38
:100EF000694633681268009305922D4A2B68126880
:100F0000019307922B4A23681268029308922A4A97
:100F10002A4B12681B680992294A0393002312681E
:100F20008DF810300A92274A8DF81830126826483A
:100F30000B92264A12680C92254A12788DF83420BA
:100F4000244A12788DF83520234A12680E92234ADB
:100F500012680F92224A126800681092214A127891
:100F60008DF84420204A12681292204A1268139287
:100F70001F4A126814921F4A126815921E4A12786C
:100F80008DF858201D4A12788DF859201C4A126895
:100F900017921A460AF059FA282009F08BFBA6E7A7
:100FA0005C04002058040020540400204C0400205D
:100FB0004804002044040020400400205004002085
:100FC0003C04002038040020504E00201000002077
:100FD0000D0000200C000020340400200800002038
:100FE00030040020060000202C04002028040020EB
:100FF000240400202004002005000020040000201C
:101000001C04002010B594B01022002102240AA86C
:1010100035F056F81422002103A835F051F81D4B85
:10102000192108A81A6C42F080521A641B6C03F054
:1010300080530193019B184B1A6842F440421A6096
:1010400001221B6803F440430293029B4FF4803358
:10105000CDE908234FF48003CDE90E434FF4C87364
:10106000CDE91244CDE9101308F0F4FA07F090FF2F
:101070000F2300200621CDE903344FF4A053CDE91E
:1010800005034FF4805303A8079308F0CBFC14B07A
:1010900010BD00BF00380240007000402DE98048BC
:1010A0009BB01022002101250DA84FF0104835F00B
:1010B00007F8002406F0B2FEC74B0DA8ADF8345077
:1010C0001094CDE90E8306F0C7FE17230DA88DF806
:1010D00035508DF83C308DF8425006F0BDFE0420AE
:1010E00006F0AAFEBFF34F8FBFF36F8FBB4AC2F863
:1010F0005042BFF34F8FBFF36F8F536943F40033F8
:101100005361BFF34F8FBFF36F8FC2F88440BFF3BB
:101110004F8FD2F8803043F6E074C3F3C900C3F3B5
:101120004E335B0103EA0406014646EA8175013944
:10113000C2F86052F9D2203B13F1200FF2D1BFF375
:101140004F8F536943F480335361BFF34F8FBFF325
:101150006F8F06F0FDFA0024FFF754FF14220021E0
:101160000DA834F0ADFF9E4B10219E481A6B01274D
:101170004FF010084FF0030B42F010024FF480596B
:10118000994D4FF0040A1A631A6B984E02F0100240
:101190000292029A1A6B42F002021A631A6B02F070
:1011A00002020392039A1A6B42F001021A631A6B4D
:1011B00002F001020492049A1A6B42F040021A6390
:1011C0001A6B02F040020592059A1A6B42F4007203
:1011D0001A631A6B02F400720692069A1A6B42F0B6
:1011E00008021A631A6B02F008020792079A1A6B38
:1011F00042F480621A631A6B02F480620892089AC1
:101200001A6B42F020021A631A6B02F02002099254
:10121000099A1A6B42F480721A631A6B02F4807294
:101220000A920A9A1A6B42F080021A631A6B02F051
:1012300080020B920B9A1A6B42F004021A6300228E
:101240001B6B03F004030C930C9B07F053F9012272
:101250000821674807F04EF901224FF48051654894
:1012600007F048F90022C021634807F043F9002243
:101270004021624807F03EF90DA95A48CDE90D8793
:10128000CDE90F4B06F0B2FF08230DA95848CDE970
:101290000D37CDE90F4406F0A9FF0DA95548CDE95A
:1012A0000D97CDE90F4406F0A1FFC0220DA95248C9
:1012B000CDE90D27CDE90F4B06F098FF40220DA98F
:1012C0004E48CDE90D27CDE90F4B06F08FFF4C4876
:1012D0004C49848001600762C0E9054406F0E8FDDE
:1012E00049492846C5E90014C5E90244C5E90A444C
:1012F000C5E90C4406F07BFE39462846434D06F00E
:101300002FFF40234FF4C07241493046B460F4616E
:10131000B462C6E905324FF40062C6E908294FF00D
:1013200002090722C6E900140DA9CDF84C90C6E9C0
:1013300003A8CDE90D92CDE90FA2CDE911B908F0CE
:10134000C7FE29464FF6FF7230460194C5E9007882
:10135000C5E9027408F0DCFE384606F01DFA29469D
:101360004FF6FF723046C5E90098C5E9027408F0EF
:10137000CFFE082329464FF6FF723046C5E90234F6
:10138000C5E900B808F0C4FE4FF40C734FF6FF72C5
:10139000294601933046019BAF60EB60C5E900A888
:1013A00008F0B6FE40F22B7130461A4D08F0CFFE21
:1013B0004FF0204343F2D202642040F215261A6017
:1013C00006F0EAF9144B154A28462C62C5E90023B9
:1013D000C5E9024724E000BF1B00000300ED00E068
:1013E0000038024000040240FC0500208004002078
:1013F000002802400020024000080240001802407D
:101400003C0600200030024000B002406004002092
:10141000400100A0A80500209B676010005C004010
:10142000C5E90444C5E9064407F0A5F92146284664
:1014300007F0C8FB21462846544D07F0E9FB34224B
:1014400021460DEB020034F03BFE514B28213520A4
:1014500040F2352C2C61AC8685F83640C5E9003465
:101460000923C5E905130B23C5E9070340F21B1344
:101470002846C5E9096340F21D130526C5E90BC3DB
:10148000C5E9024407F070FCFF214FF4F0724FF4FD
:10149000887328460D941893ADF864408DF8664023
:1014A0003C4DCDE912144FF48061CDE914164FF094
:1014B0004041CDE90E24CDE9161222460DA9CDE911
:1014C000103907F01CFD3448344B4FF0180E0462FD
:1014D000C0E900374FF4A063C0E902A8C0E904E303
:1014E000C0E9064407F06EFE05F0B2FF05F0F8FE15
:1014F0005C2006F081FC00F0EBFD294B2846AC6136
:10150000AC83C5E900364FF4E023C5E90244C5E9E0
:10151000043406F053F90E230DA9284616931497A8
:1015200011941597CDE91244CDE90D44CDE90F444E
:1015300006F0C0F9284606F043FA4946284606F068
:10154000E7FA00F0F1FD00F0EEFD09F025F8154A8C
:101550002146154809F05AF8144B154A21461860DF
:10156000144809F053F8144B144A214618601448E3
:1015700009F04CF8134B144A21461860134809F03F
:1015800045F8134B186009F021F8FEE7000500202C
:101590000068014060060020B4040020001000A094
:1015A0000064004030700308D90E00087C0400205D
:1015B0000C7003083721000878040020E86F030846
:1015C000993C000874040020C46F0308E50E00086D
:1015D0007004002000000000F8B5B14C0021B14DAE
:1015E00022462B462DED028B06F015FA266840F2B6
:1015F00026739E4266D1A36853B92369022B07D193
:101600002B78012B04D1A84A136883F001031360DF
:1016100040F272339E4200F07381B6F5787F40F05D
:10162000FC80A368002B7CD12369082B79D1288802
:101630006F8840BAAE887FBAEC8880B276BABFB203
:1016400064BAA0F6AB20B6B2FEF784FFA4B28EA3B4
:10165000D3E90023FEF7E8FFFFF7F8F9934B186092
:10166000934B1A689042C8BF1860A7F6AB20FEF7EC
:1016700071FF85A3D3E90023FEF7D6FFFFF7E6F954
:101680008C4B1860A6F6AB20FEF764FF7EA3D3E96F
:101690000023FEF7C9FFFFF7D9F9874B1860A4F6BE
:1016A000AB20FEF757FF78A3D3E90023FEF7BCFF7A
:1016B000FFF7CCF9814B1860814B1A68904230DDFE
:1016C00018602EE0B6F5587F2ED1A3684BBB236976
:1016D000082B26D12C887B4B64BAA888A4B240BAC8
:1016E0001C6080B2784B1A689442C8BF1C60C4F575
:1016F000EA54FEF72FFF0C3463A3D3E9002324EA56
:10170000E474FEF791FFFFF7A1F9704B002C18600D
:10171000B8BF03346E4BA410C4F1640424EAE4742B
:101720001C60BDEC028BF8BD40F261339E4240F07C
:101730001581A368002B70D12369082B6DD16B88AC
:10174000DFED6E8A5BBA9FB22B885BBA9BB207EE65
:10175000903AF8EE677A67EEA87A17EE900AFEF7ED
:101760000BFF4BA3D3E90023FEF7A6FD4AA3D3E961
:101770000023FEF759FFFFF791F907EE907A554BDA
:1017800008EE100AF8EE677A186067EEA87A17EE8E
:10179000900AFEF7F1FE3EA3D3E90023FEF78CFD8D
:1017A0003DA3D3E90023FEF73FFFFFF777F94A4B4C
:1017B00007EE900A1860434B1B68B3F52F7F2CDDB2
:1017C000464A92ED007AB5EEC07AF1EE10FA04D4F2
:1017D000B4EEC78AF1EE10FA01D582ED008A40F628
:1017E000C412934219DD3E4B93ED007AB5EEC07AF8
:1017F000F1EE10FA04D4F4EEC77AF1EE10FA0CD53B
:10180000B0EE087AC3ED007A364BF4EEC77AF1EE0B
:1018100010FA4CBF012200221A70B6F55C7F00F06E
:10182000BD80B6F5797F7FF47CAFA368002B7FF491
:1018300078AF2369082B7FF474AF6B782A4A03F0E2
:1018400001031370EB79294AD909C3F3801311708E
:10185000274A137065E7A368002B7FF462AF236902
:10186000082B7FF45EAF2B889FED227A5BBA9BB288
:1018700007EE903A204BF8EE677A67EE877AC3ED71
:10188000007A4EE7AFF300809A9999999999B93FF8
:10189000333333333353594000000040E17A843FFF
:1018A00090060020880600205C04002050040020E0
:1018B0004C040020280400202C04002048040020B0
:1018C0004404002058040020540400202004002078
:1018D0001C040020340400203804002008000020EC
:1018E000100000200D0000200C000020050000204A
:1018F000060000206F12833A24040020CDCCCC3D9A
:10190000A368002B7FF40DAF2369082B7FF409AF88
:101910002B881FED067A5BBA9BB207EE903A344BE8
:10192000F8EE677A67EE877AA9E7324B52221A708F
:10193000F7E6304B4E22FAE72E4B3122F7E72D4BDC
:101940003222F4E72B4B3322F1E72A4B3422EEE725
:10195000284B3522EBE7274B3622E8E7B6F55A7FCE
:101960003FF479AFB6F55C7F7FF452AEA368ABB9B4
:101970002369082B12D1288840BA80B2FEF7EAFD0D
:1019800019A3D3E90023FEF74FFEFFF75FF81A4BC8
:1019900018601A4B1A68904200DD1860A368002B8B
:1019A0007FF4BFAE2369082B7FF4BBAE95F90330FB
:1019B0000333092B3FF6B5AE01A252F823F000BF66
:1019C00033190008231700082B19000833190008E1
:1019D000391900083F190008451900084B1900087B
:1019E00051190008571900089A9999999999B93F7E
:1019F0003004002004000020400400203C040020AB
:101A00000268034B9A4201D105F0B4BE704700BF93
:101A100000100040704700000D4B82B00F216FF0A6
:101A200001001A6C42F080521A641A6C02F0805263
:101A30000092009A5A6C42F480425A6400225B6C15
:101A400003F480430193019B02B006F095B900BFF7
:101A50000038024010B588B004461422002103A8C3
:101A600034F02EFB2268174B9A4228D103F5EA3353
:101A7000032115481A6C42F000721A641A6C02F0C5
:101A800000720192019A1A6B42F002021A634FF43B
:101A900040721B6B03F002030293029B0223CDE909
:101AA00003230923CDE9061303A906F09FFB1420A5
:101AB0000022052106F060F9142006F08FF908B025
:101AC00010BD00BF0064004000040240026882B004
:101AD000084B9A420BD1D3F8302803F5006342F447
:101AE00080521A631B6B03F480530193019B02B075
:101AF000704700BF003002400E4B07B502689A42A3
:101B000015D1A3F5F04305215A201A6B42F40002C7
:101B10001A6300221B6B03F400030193019B06F080
:101B20002BF95A2003B05DF804EB06F057B903B067
:101B30005DF804FB00B0024010B5A8B004461422C2
:101B4000002102A834F0BCFA8422002107A834F056
:101B5000B7FA2268174B9A422AD14FF4803307A86C
:101B6000079308F02BF808B1FFF754FF124C4FF41D
:101B7000C07201211148236B43F080032363236B60
:101B800003F080030093009B1223CDE9022303237B
:101B9000CDE90413042302A9069306F027FB236C66
:101BA00043F400032364236C03F400030193019BBB
:101BB00028B010BD005C004000380240001C02400C
:101BC000026808B5094B9A420FD1094A8021094899
:101BD000136C23F40003136406F0ECFB4FF48071E4
:101BE0000448BDE8084006F0E5BB08BD005C0040C5
:101BF00000380240001C024070B5ACB0044614220C
:101C0000002106A834F05CFA842200210BA834F0ED
:101C100057FA2268484B9A4240F08C8008230520EE
:101C200001240B934FF4C07310930223CDE91130BC
:101C30004FF400330BA8CDE9154307F0BFFF08B1FF
:101C4000FFF7E8FE3D4B002402250E265A6C06A93C
:101C50003B4842F080625A645A6C02F08062009203
:101C6000009A1A6B42F010021A631A6B02F010020B
:101C70000192019A1A6B42F400721A631A6B02F411
:101C800000720292029A1A6B42F480621A631A6B13
:101C900002F480620392039A1A6B42F040021A63C4
:101CA0001A6B02F040020492049A1A6B42F480729A
:101CB0001A631B6B03F480730593059B1023CDE916
:101CC0000635CDE908440A9606F090FA4EF6FF7301
:101CD00006A91C480A96CDE90635CDE9084406F068
:101CE00085FAF72306A918480A96CDE90635CDE905
:101CF000084406F07BFA4FF4805306A91348CDE957
:101D000006350923CDE908440A9306F06FFA4FF42B
:101D1000464306A90E480A96CDE90635CDE90844A2
:101D200006F064FA58202246052106F025F85820CE
:101D300006F054F82CB070BD006801400038024035
:101D40000010024000240240002802400018024017
:101D500000200240142200212DE9F0418AB00446FF
:101D60000DEB020034F0ACF922682C4B9A4251D1B1
:101D70002B4B0225032409269A6B4FF0040805A972
:101D8000284842F0020200279A639A6B02F002028E
:101D90000192019A1A6B42F010021A631A6B02F058
:101DA00010020292029A1A6B42F002021A631A6B34
:101DB00002F002020392039A1A6B42F008021A63BD
:101DC0001B6B03F008030493049BCDE90585CDE963
:101DD000084606F00BFA402305A91348CDE905355E
:101DE0000A23CDE90774099306F000FA05A90E4805
:101DF0000996CDE90585CDE9077406F0F7F94FF4AA
:101E0000605305A909480996CDE90535CDE9077460
:101E100006F0ECF90AB0BDE8F08100BF001000A0A8
:101E2000003802400010024000040240000C024052
:101E3000026808B50B4B9A4213D10B4A04210B4898
:101E4000936B23F00203936306F0B4FA442108482D
:101E500006F0B0FA4FF460510648BDE8084006F0BD
:101E6000A9BA08BD001000A00038024000100240CE
:101E700000040240000C0240F0B5002387B0039339
:101E8000294B1E68002E4DD10122022703250C2468
:101E90001A6001A9254B26489A6B42F001029A6309
:101EA0009B6B03F001030093009B4FF68373CDE916
:101EB0000454CDE9013706F099F948F2331301A92A
:101EC0001C480594CDE90137CDE9036506F08EF98C
:101ED0004CF2037301A918480594CDE90137CDE907
:101EE000036506F083F94FF63F0301A913480594F3
:101EF000CDE90137CDE9036506F078F9282301A97A
:101F00000F480594CDE90137CDE9036506F06EF978
:101F1000082301A90B480594CDE90137CDE90365F4
:101F200006F064F907B0F0BDAC06002000380240AE
:101F30000010024000180240000C02400014024051
:101F4000001C024000080240214B1A6C42F01002B3
:101F500070B51A6488B01B6C054601A903A803F08C
:101F600010030293029B07F00BFE069B4BBB07F08E
:101F7000F7FD184E184B336040F2E733F360174B10
:101F8000B0FBF3F3013B3046736000233361B36071
:101F9000B36108F043FA044680B9304608F0F0F81F
:101FA000044658B9362005F019FF0F2D0DD82246EA
:101FB0002946362005F0E0FE094B1D60204608B09A
:101FC00070BD07F0CDFD4000D3E70124F6E700BF68
:101FD00000380240B00600200010004040420F00D0
:101FE0000C0100207047FEE7FEE7FEE7FEE77047C2
:101FF000014805F0AABD00BF60060020014808F0B6
:1020000001B900BFB0060020014806F01BBF00BFA9
:1020100000050020014806F018B800BFFC050020AC
:102020000120704708B534F0FFF8162303604FF025
:10203000FF3008BD08B534F0F7F816230360FEE75B
:1020400070B50D4614460E46731B9C4201DC2046BB
:1020500070BDAFF3008006F8010BF5E770B50D46D3
:1020600014460E46731B9C4201DC204670BD16F8D8
:10207000010BAFF30080F5E74FF0FF3070474FF4EE
:10208000005300204B6070470120704700207047CC
:102090000B4A0346116810B509B90A491160106866
:1020A00009490A4C0344091B8B4206D934F0BCF899
:1020B0000C2303604FF0FF3010BD1360FCE700BF3E
:1020C000FC060020B08E012000000520000A000060
:1020D00070470000DFF834D0002103E00C4B5B5860
:1020E000435004310B480C4B42189A42F6D30B4A2A
:1020F00002E0002342F8043B094B9A42F9D305F071
:102100003FFA34F097F8FEF7C9FF7047000005204A
:1021100004CC030800000020F4010020000400208B
:10212000AC8E0120FEE7704708B501F08FF9BDE8DD
:10213000084001F011B901F08BB940687047416067
:10214000704700004FF0E022D2F8FC3D43F080736E
:10215000C2F8FC3D054B064AD3F8B01F0A43C3F84A
:10216000B02F1A6842F001021A607047001000E0B8
:1021700055CEACC5521A02EB5302B2FBF3F07047D6
:10218000014B5868704700BF001000E0704710B561
:1021900004460C2132F091FD204610BD036810B5B5
:1021A0001B69044631B19847A26863689B1A0344CF
:1021B000636010BD9847A060FBE70000024B7020F1
:1021C000024A1360DB681847E00000200007002087
:1021D000704710B50446042132F06FFD204610BD53
:1021E00073B50E4E0D461446336813B9002002B085
:1021F00070BD1B69702098470028F7D033687020A5
:1022000001AA0DF106015B699847BDF80430012071
:102210002B60BDF806302360E9E700BF000700200F
:102220007FB501238DF817204FF47A72CDE9013282
:102230000DF1170200920A460146054806F00AFB16
:1022400010B1034806F0ECFA07B05DF804FB00BFDC
:10225000A80500207FB500230A464FF47A718DF857
:1022600017300123CDE901310DF11701009101462D
:10227000054806F0C9FB10B1034806F0D1FA9DF8F5
:10228000170007B05DF804FBA8050020032823D839
:10229000DFE800F0020B131A104B102110481A68E7
:1022A000B2FA82F2520906F025B90C4B40215A6865
:1022B000B2FA82F252090B48F5E7084B80219A687E
:1022C000B2FA82F25209F6E7044B40210648DA6876
:1022D000B2FA82F25209E6E7704700BF0407002015
:1022E000000402400008024000180240032823D8DE
:1022F000DFE800F0020B131A104B102110481A6887
:10230000003A18BF012206F0F5B80C4B40215A687C
:10231000003A18BF01220B48F5E7084B80219A6864
:10232000003A18BF0122F6E7044B40210648DA685C
:10233000003A18BF0122E6E7704700BF04070020FB
:1023400000040240000802400018024003280FD891
:10235000DFE800F00206090B1021064806F0CFB8AE
:1023600040210548FAE78021FBE740210348F5E7D3
:10237000704700BF000402400008024000180240FD
:1023800008B5032813D8DFE800F0020A0D0F10216A
:10239000084806F0A9F8431E5842584108BD40219C
:1023A0000548F6E78021FBE740210448F1E70020DB
:1023B000F1E700BF0004024000080240001802409C
:1023C00070B5084D00240126E0B2FFF7D9FF18B11F
:1023D0002B68012B18BF2E6001340435052CF3D176
:1023E00070BD00BF04070020012380F8781080F83A
:1023F000793070470020704741640039024B18BFA4
:1024000001211970704700BF6B81012000207047C7
:10241000836B0BB10846184770474FF6FF70704743
:10242000406803689B6918477047000038B5044648
:1024300001F05CF9084923682046084DD3F88C3038
:1024400098470023284684F84A30FFF77BFE012393
:10245000256184F8703038BD000000C014070020EA
:1024600001F0E6B801F0EAB870B501F069F9104979
:102470000023C1F88430BFF34F8FD1F8803043F68A
:10248000E074C3F3C900C3F34E335B0103EA0406EF
:10249000024646EA8275013AC1F87452F9D2203BED
:1024A00013F1200FF2D1BFF34F8FBFF36F8F70BDC9
:1024B00000ED00E001F046B901F096B801F068BA0D
:1024C00001F070BA01F09AB810B5044618F0EEFDAC
:1024D00023682046D3F8AC30BDE81040184718F008
:1024E00043B810B504467C2132F0E7FB204610BD0E
:1024F00090F834100D4B10B590F878401A788C4253
:1025000009D03AB90A490B4A088814881080012278
:102510000C801A7010BD002AFCD0064A04491488A9
:1025200008880C8010800022F3E700BF648101203E
:10253000628101206081012070B50D46194635B9D0
:10254000094B40F2D221094A094833F0FDFAC0E9AB
:102550000F52003A074B18BF01221A700368BDE8FA
:102560007040D3F88C30184794700308CC7003087F
:102570001A7103086A81012008B5094B1B888B4238
:1025800003D8084B1B88934205D9074B9E21074A65
:10259000074833F0D9FA074B1980074B1A8008BD5A
:1025A00060810120628101205F710308C27103080C
:1025B0001A7103086681012068810120034690F8A2
:1025C0007A0018B1586803681B6818477047000004
:1025D000014608B5034B186801B1012118F080FDD0
:1025E000012008BD6C810120034B00225A609A60D3
:1025F000024A1A60704700BF140700205C7003088D
:102600000121002208B5084608F00AF90A4B1860B3
:1026100028B90A4B28210A4A0A4833F095FA0022C1
:102620000421012008F0C6F9074B186018B9074BC0
:102630002C21034AF0E708BD24070020E0720308BC
:10264000297303085873030820070020A3730308A5
:10265000024B4FF0FF31186808F03AB92407002008
:10266000014B186808F070B924070020024B0021C4
:10267000186808F02DB900BF24070020FFF7F0BF4D
:102680000023034803491A46006808F0D9B900BF7F
:10269000200700201400002013B50023074C01A9D7
:1026A0001A46206808F00EFA4FF0FF33002201A905
:1026B000206808F007FA02B010BD00BF2007002014
:1026C00003685B6C18470120704703689B6A1847D2
:1026D000FEE700000E4B82B01A6B42F400021A6350
:1026E0001A6B02F400020192019A1A6942F4000284
:1026F0001A611A6922F400021A61064B064A1A612D
:10270000064A5A614FF08062054B9A6002B07047EA
:1027100000380240FC050020AD290008D126000841
:1027200000E100E040F2EF3070470000054B4FF051
:1027300080620360044BC3F88820BFF34F8FBFF360
:102740006F8F70474075030800E100E010B5044644
:102750004FF45A61FFF7EAFF204632F0AEFA204606
:1027600010BD000008B50A2809D8DFE800F00610FF
:102770000E080808081010101000022008BD054BB4
:102780009021054A054833F0DFF90020F6E70120E3
:10279000F4E700BFE5730308007403084B740308F3
:1027A00038B50C46887FFFF7DDFF174BA58AE28A14
:1027B000586342EA054221695A64628BD963521B0D
:1027C0001A642568082D0ED19A611A6158620F4A61
:1027D000207F42EA0062DA61E2681A620C4A5961BB
:1027E000D9601A6038BD0022D8611A61E1680A0A0E
:1027F0004809C1F3C40102F4784200F4FC600243CA
:102800000A439A63034AECE700B002400900010062
:10281000012302000123030008B50B280BD8DFE8D1
:1028200000F00612100A0A0A0A080808080802201E
:1028300008BD0520FCE7054B6F21054A054833F02C
:1028400083F90020F4E70120F2E700BFE5730308F5
:10285000947403084B7403082DE9F04191F81D802E
:102860000C464046FFF7D8FFA77F05463846FFF7DE
:10287000D3FF06463846FFF775FFA18A628B434BAC
:10288000521A1A649A61228B521A1A61E28A5863A8
:1028900042EA014221695A646268D963DA602068B9
:1028A000802828D0227F0FD8202866D0402864D0E6
:1028B00004281AD045EA0265344BB84545F4003582
:1028C000DD6160D0324A44E0B0F5807F04D0B0F5DD
:1028D000007FEFD12F4800E02F4840EA0262DA6122
:1028E000E2681A625E62596132E045EA026242F4CD
:1028F0000032DA61F6E7A068021DDA62227F45EA5B
:10290000026545F40035DD615E625961017841B1CF
:10291000012921D0214B4FF48D71214A214833F0F8
:1029200013F9DA69418822F47F42013922F010025A
:1029300042EA01220121DA61144BDA6942F02002F5
:10294000DA61DA699206FCD410229A600029B9D0C3
:10295000154A1A60BDE8F081B2F1FF01DA694088DA
:1029600022F47F4218BF0121013822F0100242EA0E
:10297000002242F01002DA61DEE745EA0262034B10
:1029800042F40032B5E742F20132E2E700B0024021
:1029900001230100090002000A000200DE7403089E
:1029A000F87403084B74030801230200024B1B68F0
:1029B000586803685B6918476C81012070B504464C
:1029C0000A4B0C3000262546602260602672667233
:1029D00045F8203B294618F0D9FC04F55A63EE600F
:1029E00024359D42FBD1204670BD00BF40750308D1
:1029F000034B1A68D207FCD423229A60704700BFA9
:102A000000B00240094B5A69D2030AD5BFF34F8F79
:102A100008440029A0EB010204DCBFF34F8FBFF391
:102A20006F8F70472039C3F86822F2E700ED00E0AD
:102A300030B5104C2568ED07FCD423250904FF2B85
:102A4000A56041F001014FF0020565636164E06338
:102A50000AD00949656241EA0363E361074B2262D8
:102A60006061E060236030BDE561039BA363044BBC
:102A7000F8E700BF00B002400900010001000200B9
:102A80000100030030B50F4C2568ED07FCD4232569
:102A90001204FF2BA56042F001024FF002056563AE
:102AA0006264E063E16008D01B0643F00213E36157
:102AB000054B65626061236030BD044BE361012317
:102AC000F9E700BF00B0024001000200020002FF6F
:102AD00030B50B4C2568ED07FCD4232512041B06EA
:102AE000A56042F00102022543F40033656362648D
:102AF000E063E160E361034B65626061236030BDC8
:102B000000B00240010002004069704790F84400A4
:102B10007047036B23B9C06A003818BF01207047A3
:102B20000120704780687047043010B50C460FC80C
:102B300084E80F0010BD704708B5034A40F2122127
:102B4000024B034833F000F8887503082996030800
:102B5000E375030810B50446482132F0AEF820466C
:102B600010BD00002DE9F0431C46436BADF51F7D01
:102B700005460E461746002B37D0002203A8DFF883
:102B8000A890CDE9013210F06DF84FF4F4725021A5
:102B9000249024A80AF01BF83A46314624A80AF0EB
:102BA0006FFF012124A80AF00DF9022324A88DF853
:102BB000D8300AF0A8F9BDF898322B9ABDF89C627B
:102BC0009342A89F28BF1346419A964203EB4308BD
:102BD000A7EB430728BF1646479B9E4209D824A867
:102BE0000AF012F924A80AF03FF80DF51F7DBDE8A0
:102BF000F083012201A924A80AF0CEF96B6B03EB44
:102C00000800984201D83C44E6E759789A78C90010
:102C100009EA022201F4FC610A4313F8031B42EAA9
:102C2000D10224F8022BECE700F8FFFF0A4A026009
:102C30000022C0E90522C0E90722C0E90922C0E953
:102C40000B22C0E90D12C0E90F2280F84420C0E930
:102C50000322C0E901227047C078030810B40C4673
:102C600011461A46036B3BB1036C806BE41A204497
:102C70005DF8044B33F02CBAC06AF8E7036B10B56B
:102C800073B1036C826BC91A5318525C98785C78E4
:102C90000004DB7840EA0420104340EA036010BDE2
:102CA000C36A5858FBE7036B43B1036CC91A836BC3
:102CB0005A18585C527840EA02207047C36A585A42
:102CC0007047000070B50446006B0D461646D8B13B
:102CD000E36B934208D209230D4A65210D4884F81D
:102CE00044300D4B32F030FF0368DB689847206BAF
:102CF0003246A16B03681B69984710B90D2384F80D
:102D00004430A06B256470BDE06A0844FBE700BF57
:102D10004B760308E3750308387603082DE9F8437A
:102D2000436904462BB9234BAA21234A234832F096
:102D30000BFF08228169FFF7C5FFA16943F2300646
:102D400046F2643704312046FFF798FFA369184420
:102D5000A36A00F108029A4206D3012300206361AE
:102D6000236AA361BDE8F88363690930082201334F
:102D700020F0010120466361A161FFF7A3FFD4F8B1
:102D8000189020464946FFF78EFF09F10201804660
:102D90002046FFF788FF09F1040105462046FFF7AA
:102DA0006DFFB045D2D1BD42D0D10028CED0012098
:102DB000D8E700BF8D760308D6760308E3750308CD
:102DC0002DE9F04F0446ADF51F7D8A461646816910
:102DD00008229846FFF776FFA7692046391DFFF7BE
:102DE0004DFF07F10801024605462046FFF76AFF3E
:102DF000636B074633B93C4B40F2AB113B4A3C484E
:102E000032F0A2FE002203A8CDE901320FF02AFF22
:102E10004FF4F4725021249024A809F0D8FE2A46D9
:102E2000394624A80AF02CFE012124A809F0CAFF83
:102E3000022324A88DF8D8300AF065F8BAF90250B8
:102E4000479BAB4229D3BAF900904FEA4808BAF839
:102E500004702B9B08FB05664F44BAF80250DFF85C
:102E600094B03FB29F4228BF1F46BAF8063009EB24
:102E7000490A1D44419B2DB29D4228BF1D46479BD8
:102E8000AB4210D324A809F0BFFF24A809F0ECFE40
:102E900001200DF51F7DBDE8F08F012201A924A8B6
:102EA0000AF07AF8CCE7012201A924A80AF074F804
:102EB000626B49465244B94202F1030201D34644CF
:102EC000DDE712F8020C12F8013CC0000BEA032304
:102ED00000F4FC60034312F8030C43EAD00326F825
:102EE00011300131E7E700BF097703085F77030876
:102EF000E375030800F8FFFF0129036838BF0121CB
:102F0000DB6A70B50D4604469847A84204D2236890
:102F10002046DB6A984705466B1EE669102220466C
:102F200006EB031606F10801FFF7CCFE06F11001CF
:102F30002046FFF7A3FE236A043B0344C4E905537C
:102F400070BD0000002148222DE9F0410446816156
:102F500080F84410FFF7B6FEA6690423624A3146A2
:102F60002046FFF77BFE40B10323604AF22184F83C
:102F700044305F4B5F4832F0E7FD06F1080104235F
:102F80005D4A2046A161FFF769FE30B10423574A2C
:102F9000FA2184F84430594BECE706F10C01042384
:102FA000574A2046A161FFF759FE074638B105236D
:102FB0004E4A40F2011184F84430524BDAE706F1F0
:102FC00010012046FFF75AFE054620B94E4B40F24D
:102FD0000711464ACEE706F1140804234B4A20465F
:102FE0004146FFF73BFE002849D0062384F84430D1
:102FF0000423474A06F118012046FFF72FFE002858
:103000003FD0072384F844304544424F0C222046E9
:103010002946FFF757FE05F1080604233A462046E5
:103020003146FFF71BFE94F84430002848D0002BAF
:1030300048D1A36AAB4249D805F10C0304352046B8
:10304000A3612946FFF71AFE3044294660622046F4
:10305000FFF714FE0644042220463146FFF732FEF5
:1030600004232D4A31462046FFF7F8FD002838D1C9
:103070000123E6616361A3692362BDE8F081012752
:10308000B6E7002FC0D006F120012046FFF7F6FD7D
:103090004FF47A7306F13001B0FBF3F06060204624
:1030A000FFF7ECFD06F14001A0602046FFF7E6FDCA
:1030B00006F14401E0602046FFF7E0FD2061A3E750
:1030C000002BB9D00A2384F84430D6E7291D2046C6
:1030D000FFF7D4FD85190C2220462946FFF7F2FDA3
:1030E00099E70B23EFE700BFB9770308D777030809
:1030F000BE770308E375030804780308097803081A
:1031000021780308267803083C78030848780308E8
:103110004D7803085278030857780308C0E90A215C
:1031200000220263FFF70EBF10B5002304460846D5
:10313000E3620B6821639B689847A0622046BDE864
:103140001040FFF7FFBEF0B4069FBDF81050BDF869
:10315000146032B12BB10495CDE90567F0BCFFF7DF
:1031600001BDF0BC704700002DE9F04F994643695E
:1031700085B004460F4690462BB9294B7721294A42
:10318000294832F0E1FC08228169FFF79BFDA6691E
:1031900020463146FFF787FDB11C83462046FFF7E6
:1031A00082FD311D82462046FFF768FD06F10801C9
:1031B000A36A054642189A4226D243F230039B4541
:1031C00017D146F264339A4513D190B10246A161FA
:1031D0002046FFF777FD0E9B01462A462046CDF894
:1031E0000080CDE901933B46FFF7ADFF63690133F2
:1031F0006361A3692B4405B908330133626A23F084
:1032000001039342A36109D1012301206361236A71
:10321000A36180F0010005B0BDE8F08F0020F8E761
:103220008D7603085C780308E37503080120704776
:103230000C2070470C2303FB0100083070470C235F
:1032400003FB0100083070470120704742F6B4309C
:10325000704742F6B43303FB01000830704742F672
:10326000B43303FB01000830704701207047102081
:10327000704700EB01100830704700EB0110083078
:103280007047084600F0F0BF034B10B504460360DA
:1032900016F0F2FC204610BD6879030810B504460C
:1032A000FFF7F2FF1421204631F007FD204610BD44
:1032B000034B10B50446036016F0DEFC204610BD3B
:1032C0003479030810B50446FFF7F2FF42F6BC312B
:1032D000204631F0F2FC204610BD0000034B10B533
:1032E0000446036016F0C8FC204610BD00790308B0
:1032F00010B50446FFF7F2FF1821204631F0DDFC3F
:10330000204610BD094B10B50446036000F52F5050
:103310002830FFF7B9FF04F12C00FFF7C9FF04F1D3
:103320001400FFF7DBFF204610BD00BF9C790308A7
:1033300008B50248FFF7E6FF08BD00BFF8150020FA
:1033400010B50446FFF7DEFF42F65C51204631F02F
:10335000B4FC204610BD00002DE9F34100F054FDFF
:103360000024054600F054FD234601462246284627
:10337000009421F089FD274B274A2046274D1A60EB
:1033800003F060FB264B274A27489A6021F0E4FCB3
:103390002B68BFF35B8FDB0735D4284631F08FFCF9
:1033A00088B3224C224B04F5305604F1140004F18A
:1033B0002C08204F23606060C4F80880E760266115
:1033C00016F05CFC1C4B4046636116F057FC1B4B2F
:1033D0003846E36216F052FC04F50053184A03F62F
:1033E000FC30C3F8E82B03F0C7FB2246311F304600
:1033F00003F0B8FB304600F037FF124832F0C2FB52
:10340000284631F068FC104802B0BDE8F041FFF7F3
:103410000DB800BFD0810120A4070020F4150020C2
:10342000C4070020A807002018000020F81500207D
:103430009C790308E04100200079030834790308EF
:10344000687903083133000828070020704700001E
:10345000014817F0F2B800BF2807002070B5244ECD
:10346000244B254C3046254D2360FFF7A7FA28460C
:1034700026F01CFE22481EF0A3FF224B00224FF430
:10348000807121481A8683F858205A6683F8702084
:103490005A67DC60C3E912121C49C3E91A121C49BD
:1034A00099671C490B604FF4F07101801A48018044
:1034B0004FF488711948C3E90422C3E90622C3E91D
:1034C0000822C3E90A22C3E90E22C3E91022C3E994
:1034D0001422C3E91722C3E901650180104883F86B
:1034E000342001800F490A700F4A1A6070BD00BF76
:1034F0005008002084700308F0150020C407002045
:10350000A807002028070020608101200100000199
:10351000000001016C81012066810120628101208F
:103520006881012064810120107203080148FFF7BF
:10353000FDB800BF50080020002070478180704710
:10354000C180704701817047418170477047704763
:1035500070477047704710B4C4880368121B848892
:103560005B6D091B12B25DF8044B09B218474FF6A8
:10357000FF7383814FF0FF3303621368C3611060F0
:103580007047002070478B88838001207047704708
:1035900080F82610704790F826007047002210B57A
:1035A000B1F90840B1F90A10028042808480C180DC
:1035B00010BD0022028042808280C2807047017765
:1035C000704780ED080A704780F82410704780F833
:1035D0002510704701207047983070478C30704735
:1035E0008430704770470000034B902283F85A23C1
:1035F00083F85823704700BF00E100E0094A0A49F8
:10360000D3680A48C3F30A03013B9BB20B801169DC
:10361000C1F30A01013901801364536B43F00103C4
:103620005363704700680140564300205443002014
:10363000014BD3F8AC00704700680140024B0122F7
:10364000C3F8AC105A62704700680140124A5369CF
:10365000DB0370B51ED50023C2F88430BFF34F8F53
:10366000D2F8803043F6E074C3F3C900C3F34E339D
:103670005B0103EA0406014646EA81750139C2F896
:103680007452F9D2203B13F1200FF2D1BFF34F8FC8
:10369000BFF36F8F70BD00BF00ED00E07047704753
:1036A00070473823002201FB0333C25490F83830AE
:1036B0000BB9036C83647047704780F84C107047F7
:1036C00010B50446582131F0F8FA204610BD10B567
:1036D00004462C2131F0F1FA204610BD10B5044605
:1036E000BC2131F0EAFA204610BD000038B504468E
:1036F00016F08FFF23685D6E1DF0EAFC0146204640
:10370000A8472368084A2046D3F888500023A2F52A
:103710007F31A847054B064A5A60064A1A649A64E4
:103720004FF4FF225A6438BD00F807C01844002047
:103730007044002000F40BC016F052BF16F05CBFBE
:1037400016F018BF17F087B890F8252012B103685B
:103750005B6918477047000008B531B1044B40F26F
:103760009711044A044832F0EFF990F8390008BD87
:10377000A8790308BC790308497B030810B531B167
:10378000064B40F29111064A064832F0DDF94068D6
:1037900011460368BDE810401B6B1847A879030861
:1037A0008B7B0308497B030808B529B1034B7A21B9
:1037B000034A044832F0C8F9006908BDA879030833
:1037C0003C7D0308497B030808B529B1054B8321DB
:1037D000054A064832F0B8F941618160C0E9063215
:1037E00008BD00BFA8790308F47E0308497B0308DD
:1037F00010B5044629B1274BA421274A274832F0A7
:10380000A3F9052A34D8DFE802F003292F34393E22
:10381000406803681B69984750B34FF0FF31606DF3
:1038200006F0A2FF0023012294F83E1084F83B30FA
:1038300084F83920A360636101B1226284F83E30CC
:103840006362E36A2BB90123206D84F83A3007F0F4
:103850007BF8606DBDE8104006F0B6BF002380F82D
:10386000393084F83E3003E0036200238360436113
:1038700010BD0362002383604361F2E7002380F8F8
:1038800039300123EDE7003B18BF012380F83D30BC
:10389000EEE700BFA8790308B3800308497B03085B
:1038A00090F825201AB190F8242002B118607047D2
:1038B00070B50446164629B1314BE721314A3248EA
:1038C00032F042F990F8393033B1304B1B6893F83D
:1038D0006B20436913444361E36A002B4DD0E169D7
:1038E000D4E905325343A2684A43934220D2236A63
:1038F000002B42D04FF0FF31606D06F035FF236A98
:103900000BB10023E362E36AFBB90125606D06F0A9
:103910005BFF94F839300BB9236A3BB1E36A2BB9EA
:103920000123206D84F83A3007F00EF8284670BD68
:1039300094F84C000028DDD09B1AB3FBF1F29942B9
:1039400098BF02F1FF326262D4E7002294F83C5043
:10395000A3623046E262E2682261A2680132A2609C
:10396000336333685B699847002DCED194F83D30BE
:10397000002BCBD184F83950C8E70125C9E700BF37
:10398000A87903088A820308497B03086C81012017
:10399000034B4FF080629A604FF080729A607047DC
:1039A00000E100E0084B4FF08062C3F88820BFF3CD
:1039B0004F8FBFF36F8F4FF08072C3F88820BFF333
:1039C0004F8FBFF36F8F704700E100E038B50346BB
:1039D00090F8380038BB01229860D8609A634FF4A1
:1039E000807258619A874FF4F0729861D8611862BA
:1039F00058629862D8621863586383F83E00CA869A
:103A00004FF4887281F834000A8708639A6C186151
:103A100002F5FF24D3E9101529448C420AD9084B3A
:103A20005821084A03E0084B40F2F511074A0848BC
:103A300032F08AF81A6302F57F329C645A6338BD0B
:103A4000E8850308288603082E8403085E8403089B
:103A5000497B0308002370B5124E05468380124B44
:103A60000360336893F858200AB1D86C00B998689D
:103A70000368DB6A98473368B0FA80F4D86C64094D
:103A800030B10368DB6A9847002808BF44F001049E
:103A90002CB9064B2C21064A064832F055F8284628
:103AA00070BD00BF6C810120D0880308CE87030859
:103AB0002C8803086588030870B5244E3568BFF369
:103AC0005B8F15F001053FD1304631F0F8F8002842
:103AD0003AD01F4C1F4B04F134002561E584A562E8
:103AE000A585C4E90035C4E902551EF0C8FE04F1FD
:103AF000580019F073FD184B2046A365174B40F88A
:103B0000843BFFF7A7FF164B1648C4F884302433D4
:103B1000C4F89050C4F88C306423C4F89C50C4F8A6
:103B2000A850C4E928350023C4F8AC30C4F8B0303C
:103B3000C4F8B430C4F8B8300B4BC4F8983032F045
:103B400021F8304631F0C7F8014870BD58430020D5
:103B50005C430020F8BB0308F08803086889030869
:103B6000ACBB0308E53500088CBB030810B5144C4A
:103B7000236823B3134B144A1B6C11888B4213D157
:103B8000124B198805F0E8F9226892F86A3001337F
:103B900082F86A30FEF774FD206817F087FA00207B
:103BA000BDE81040FEF772BB05F0D6F92068036847
:103BB0001B6A98470020BDE81040FEF797BB10BD78
:103BC0006C810120006801405643002054430020CE
:103BD0002DE9F74304464FF4707894F83A304FF0EB
:103BE000FF31002B31D0606D06F0BEFD276BA36A5C
:103BF000BB4200D1676B266A656856B32B683146B5
:103C000028465B6A98470023236284F83B30606D46
:103C100006F0DAFD2B684FF4F0723946CDF80080DB
:103C200028465E694FF48873B0474FF0FF3106466F
:103C3000606D06F099FD94F83B30E3B1002384F801
:103C40003B30606D06F0C0FDC7E7206D06F040FE1A
:103C5000C3E7636A002BDAD02B682846D3E90993BF
:103C60009847616A01442846C847A368626A666249
:103C70001344A360CBE7E7625EB12B6828469B6ADA
:103C8000984701380023E06084F83C6084F83A30BB
:103C9000D7E70120F6E70000014808B5FFF798FFD5
:103CA000184400200368042270B504465E6A0023AD
:103CB0000D46B0474FF0FF31606D06F055FD3823DB
:103CC00003FB0542D16A09B10021D16203FB05451E
:103CD000012385F83B30002385F83930606DBDE85D
:103CE000704006F071BD38B500EB810304460D4607
:103CF000114658680368DB68984729462046FFF755
:103D0000D1FF38BD70B50D461146044600EB850263
:103D10005068026896681A46B04729462046FFF761
:103D2000C1FF70BD38B5164900251648FEF77EFF65
:103D3000154C164B01202A46294623604FF4807308
:103D4000A564A38784F84C0084F83E50C4E910555C
:103D5000C4E91455C4E90155C4E90355C4E905553E
:103D6000C4E90755C4E90955C4E90B55C4E90D5523
:103D700006F056FD2065284606F0B4FC606538BDA7
:103D8000B84400207044002018440020B48903087F
:103D9000704708B509292ED8DFE801F005090D1193
:103DA00015191D21252902F099FE006808BD02F0B1
:103DB00095FE4068FAE702F091FE8068F6E702F0AF
:103DC0008DFEC068F2E702F089FE0069EEE702F0BE
:103DD00085FE4069EAE702F081FE8069E6E702F0CD
:103DE0007DFEC069E2E702F079FE006ADEE702F0DC
:103DF00075FE406ADAE70020D8E710B504460421D2
:103E000030F05BFF204610BD00487047008A030871
:103E10000420704713B5002451B1036801AA01942E
:103E20008DF803409C680DF10303A04702B010BD5C
:103E30000846FBE7C0897047008A7047C088704712
:103E400080887047807A00F07F007047807AC009D0
:103E500070470020704700009FED010A704700BFC7
:103E600000000000704710B50446082130F025FF1F
:103E7000204610BD7047704700F598730868496880
:103E800003C3704770477047416070477047000038
:103E9000064BC0F84801C0F84C310023C0F850313F
:103EA00000F5A273C0F84031704700BF9D40000884
:103EB0000123037270477047704710B4416803468E
:103EC000C2689B68541001EB6200D20748BF0A59D0
:103ED0005DF8044B48BFD35818470346406830B1DB
:103EE0009A681AB9D86800F001007047012070473D
:103EF00010B504460C2130F0E0FE204610BD10B590
:103F00000446102130F0D9FE204610BD10B50446FD
:103F10004FF4AE7130F0D1FE204610BD10B51DF04B
:103F2000D7F80368BDE81040DB6B184710B50446AE
:103F3000D0F8400158B10368DB68984738B1D4F82D
:103F4000400103689B6898470023C4F8403110BDC6
:103F50002DE9F14FD0E9556A0746B06803681B6A3E
:103F6000984742F6B333984205D8444BA321444ABC
:103F7000444831F0E9FD706803681B6A98470F28D0
:103F800003D8414BA4213E4AF2E7F06803681B6A5C
:103F900098470B2803D83D4BA521394AE8E7DFF8BD
:103FA000F4901DF095F804301DF0D0F8D9F8000019
:103FB00010B10368DB689847D9F8000010B10368B6
:103FC0001B689847DFF8D080D8F8000010B103686C
:103FD0005B699847D7F83C0110B103685B68984764
:103FE000D8F8000010B103681B689847D7F83C0167
:103FF00010B103689B689847F06800214FF0000BF0
:1040000003685B6A9847224B0446C0F804B080F806
:1040100008B059460360B06803685B6A9847054674
:1040200003F092F87068594603685B6A9847064641
:10403000294603F067F8331DC7F83C612846C9F8E4
:104040000040C8F80050CAF800302B68C6F808A035
:10405000DB68EE639847336830461B689847214613
:1040600028461FF05FF9236820461B69984723689C
:1040700020465B6901B0BDE8F04F1847608A03082D
:10408000EE8A0308BC8B0308038C0308A68C030884
:10409000908E0308B4810120B08101202DE9F14FF9
:1040A000D0E9556A0746B06803681B6A984742F230
:1040B0006363984205D8444BA321444A444831F0F5
:1040C00043FD706803681B6A98470F2803D8414B6B
:1040D000A4213E4AF2E7F06803681B6A98470B2860
:1040E00003D83D4BA521394AE8E7DFF8F4901CF0EE
:1040F000EFFF04301DF02AF8D9F8000010B1036872
:10410000DB689847D9F8000010B103681B6898472E
:10411000DFF8D080D8F8000010B103685B699847D9
:10412000D7F83C0110B103685B689847D8F80000E5
:1041300010B103681B689847D7F83C0110B10368B9
:104140009B689847F06800214FF0000B03685B6A9A
:104150009847224B0446C0F804B080F808B059468E
:104160000360B06803685B6A9847054602F060FD2B
:104170007068594603685B6A98470646294602F00C
:1041800035FD331DC7F83C612846C9F80040C8F822
:104190000050CAF800302B68C6F808A0DB68EE6350
:1041A0009847336830461B689847214628461FF0D9
:1041B000B9F8236820461B699847236820465B6945
:1041C00001B0BDE8F04F1847608A0308498D030825
:1041D000BC8B0308038C0308A68C0308908E03088D
:1041E000B4810120B0810120044B1B6893F8582052
:1041F0000AB1D86C00B99868704700BF6C81012083
:10420000F8B5174604460E461DF072F8124B00250D
:104210001C602946114B2360114BC4E95135114BE9
:104220001868C4E953550368C4E94F559B68C4E94D
:1042300055769847284602F005FCFFF7D5FF27F092
:1042400088FDFFF7D1FF27F0FFFDFFF7CDFF27F037
:1042500007FE2046F8BD00BFC08101203C8E030848
:10426000248E03086C810120064BC0F84801C0F879
:104270004C310023C0F8503100F5A273C0F8403132
:10428000704700BF9D400008064BC0F84801C0F8C9
:104290004C310023C0F8503100F5A273C0F8403112
:1042A000704700BF513F0008406A7047806A7047FE
:1042B00070478B88C069DB0A0A6850F823001044F5
:1042C000704710B50446BAB1107B68B1537BD27AFF
:1042D0001B0203F4E0631A43236A03EB82031A8888
:1042E0008A4202D193F9020010BD05D80138043387
:1042F00080B20028F3D1F7E70020F5E710B50446B7
:104300002C2130F0DAFC204610BD000030B58BB017
:104310000446BDF860500895BDF85C5007959DF8BF
:10432000505006959DF84C5005959DF848500495C1
:104330009DF8445003959DF8405002959DF83C50DF
:104340000195BDF8385000951EF056FB064B2046EF
:104350002360159BE361169B2362199B63621A9B82
:10436000A3620BB030BD00BFB48E03087047704726
:1043700070477047704730B585B0036804460181C7
:104380006D460146D3F884303C342846984795E87A
:10439000070084E8070005B030BD30B585B003687C
:1043A000044641816D460146D3F884303C342846AA
:1043B000984795E8070084E8070005B030BD002263
:1043C000028042808280C280704780F83610704739
:1043D000036870B504461B6B154698472368204652
:1043E00029465B6EBDE87040184700207047806C1E
:1043F00070477047704710B504464C2130F05DFCA3
:10440000204610BD034B10B5044603601BF04CF969
:10441000204610BD64910308064B10B504460360A6
:104420001BF042F942F26461204630F046FC20461F
:1044300010BD00BF6491030808B51CF049FEBDE83B
:104440000840FFF721BF08B5FFF77EF908BD00005F
:10445000036870B55E6B0446114B8DB21B682BB9B7
:10446000104B6C21104A114831F06EFB1049828DBF
:104470000988914203D80F4B6D210B4AF3E713F8DB
:1044800012200D4B1B6853F8220003681B6B9847E2
:10449000291A3346204609B2BDE87040184700BFCC
:1044A000C4810120148F0308568F0308918F0308DD
:1044B000C8810120D88F0308CC810120036870B522
:1044C00004461B6B154698472368204629465B6BBC
:1044D000BDE87040184770B504461D46BDF9106030
:1044E000FFF7ECFF2368294620469B6B984723681B
:1044F00031462046DB6BBDE8704018470022C0E91A
:104500000122C0E90322C0E90522C0E907224FF4D5
:1045100080728284014A0260704700BF6C90030879
:1045200038B504460D462622002131F0C9FD20464B
:10453000FFF7E4FF064B2046294623602B88E384DF
:10454000FF2384F828301AF0AAF9204638BD00BFAE
:10455000A0C0030800224FF0FF318260C0E90021B3
:10456000704710B50446FFF7F5FF204610BD000068
:1045700010B504460021262231F0A2FD2046FFF7A7
:10458000BDFF094B4FF47F0204F13C002360074B51
:10459000A3624FF6FF73A3850023C4E90C3223877F
:1045A000FFF7D8FF204610BDC0BE0308588A030895
:1045B00010B50446FFF7DCFF024B204623600023C2
:1045C000A36410BDD49003082DE9F04F0446A7B0B2
:1045D00000271EF0FBFCA046A64B26223946E763C7
:1045E00004F16C0648F8403B404631F069FD404616
:1045F000FFF784FFA04B04F5037930462364FF23C3
:10460000A7664FF6FF7584F866304FF4887A19F084
:1046100095FF4846FFF7CCFF04F5167304F6B81B68
:1046200018460393FFF7C4FF04F529731846049353
:10463000FFF7BEFF04F53C7318461093FFF798FF91
:1046400004F54E7318460593FFF7B2FF04F5617346
:1046500018460693FFF7ACFF04F5747318461193E0
:10466000FFF7A6FF04F21C4318461293FFF7A0FFC2
:1046700004F58D6318461393FFF79AFF04F2B443D1
:1046800018461493FFF794FF04F5A063184615939A
:10469000FFF78EFF04F24C5318461693FFF788FF7E
:1046A00004F5B36318461793FFF782FF04F2E4534F
:1046B00018460793FFF75CFF04F22C631846089333
:1046C000FFF756FF04F2746318460993FFF750FF93
:1046D00004F2BC6318460A93FFF74AFF04F204731E
:1046E00018460B93FFF744FF04F24C7318460C93E3
:1046F000FFF73EFF04F2947318461893FFF758FF34
:1047000004F5FC6318461993FFF752FF04F62C03D7
:1047100018460D93FFF72CFF04F6740318460E930A
:10472000FFF726FF04F6BC0318460F93FFF720FFA0
:1047300004F6041323A9ADF88C5018461A93FFF71A
:10474000EFFE04F5136323A9ADF88C5018461B93B4
:10475000FFF7E6FE04F65C13251D18461C9318F0BF
:10476000D9F904F6A41318461D93FFF773F9434BC8
:104770004FF4E15104F64420C4F8A4392433C4F8BA
:10478000B079C4F8AC391AF085FF3A4640464FF488
:10479000F0733946CDF800A0FFF79DFE4FF07F4340
:1047A00041462846A3664FF0FF3815F049FC3046D5
:1047B00023A9ADF88C7015F0D5FB4FF4F07330469B
:1047C0003A463946CDF800A0FFF785FE30468822EC
:1047D000F02119F05EFF304664226FF0B30119F04A
:1047E000DDFF3B4642F2283230463946009715F04D
:1047F00066FA30463946DFF89CA019F079FF862327
:1048000008223046022119F02FFF3046012119F00D
:10481000CDFE3046012119F0CCFE314628461EAEB1
:1048200015F00EFCB022FD214846FFF747FED4F8F4
:104830000C3249463046D3F88430C4F83C82A4F8A0
:104840004072984704F5127396E8070083E8070062
:10485000DAF800302BB90A4B60210A4A0A4831F0D5
:1048600073F90A4B1B88302B16D8094B6121054A76
:10487000F4E700BF6491030850BF0308ACBB030812
:10488000148F030816900308918F0308C881012034
:10489000D88F0308C4810120D24B3021186802F060
:1048A0000DF9D14A03460521584620F04DF84846F7
:1048B000C4F854B219F084FDDFF834B355234846E8
:1048C00023A9CDF88CB0ADF8903019F099FD494688
:1048D000284615F0B5FBB0224FF48F710398FFF70F
:1048E000EDFDD4F8583203993046D3F8843004F6FD
:1048F000C219C4F88882A4F88C72984704F525730D
:1049000096E8070083E80700DAF80030002BA2D011
:10491000B64A1388312BA8D9B24B3121186802F05E
:10492000CDF8B14A03460521484620F00DF803981A
:10493000C4F8A09204F6CC1919F042FD542323A91F
:104940000398ADF89030CDF88CB019F059FD03996B
:10495000284615F075FBDF22FC210498FFF7AEFD19
:10496000D4F8A43204993046D3F88430C4F8D48201
:10497000A4F8D872984704F5387396E8070083E8DE
:104980000700DAF80030002B3FF465AF974A138830
:10499000322B7FF66AAF934B3221186802F08EF803
:1049A000914A0346052148461FF0CEFF0498C4F8FB
:1049B000EC9204F6D61919F003FD532323A90498A9
:1049C000ADF89030CDF88CB019F01AFD0499284656
:1049D00015F036FBE02240F22D111098FFF76EFD26
:1049E00010993046C4F82083A4F8247319F06EFAA5
:1049F00004F54B7396E8070083E80700522323A9C8
:104A00001098ADF89030CDF88CB019F0F9FC1099F1
:104A1000284615F015FB082218210598FFF74EFDD2
:104A2000D4F8383305993046D3F88430C4F8688315
:104A3000A4F86C73984704F55D7396E8070083E863
:104A40000700DAF80030002B3FF405AF674A1388FF
:104A5000372B7FF60AAF634B3721186802F02EF828
:104A6000614A0346052148461FF06EFF0598C4F8C9
:104A7000809319F0A5FC512323A90598ADF8903037
:104A8000CDF88CB019F0BCFC0599284615F0D8FA81
:104A9000862212210698FFF711FDD4F884333046A0
:104AA0000699D3F88430C4F8B483A4F8B87398474F
:104AB00004F5707396E8070083E80700DAF8003021
:104AC00004F51E66002B3FF4C6AE484A1388352B0A
:104AD0007FF6CBAE434B35214FF0FF3A4FF0000944
:104AE000186801F0EBFF404A034605213046DFF825
:104AF00004811FF029FF0698C4F8CC6323AE19F097
:104B00005FFC492331460698ADF89030CDF88CB063
:104B100019F076FC0699284615F092FA47221321DF
:104B20001198FFF7CBFC3046C4F800A404F6EA1B4A
:104B3000A4F80494FFF70EFD04F20C4396E8070076
:104B400083E80700D8F80030002B3FF484AE274FED
:104B50003B88362B7FF689AE224B3621186801F050
:104B6000ADFF214A0346052158461FF0EDFE11987E
:104B7000C4F818B404F6F41B19F022FC1C494E23A7
:104B8000119823913146ADF8903019F039FC119904
:104B9000284615F055FAE52242211298FFF78EFCBF
:104BA0003046C4F84CA4A4F85094FFF7D3FC04F5A5
:104BB0008B6396E8070083E80700D8F80030002BE5
:104BC0003FF449AE3B88332B7FF64FAE054B332184
:104BD000186801F073FF044A0346052158461FF088
:104BE000B3FE09E0D0810120A8AE0308C8810120EE
:104BF000588A0308C48101201298C4F864B404F6EA
:104C0000FE1B19F0DDFBD749412312982391314651
:104C1000ADF8903019F0F4FB1299284615F010FA0F
:104C2000C72242211398FFF749FC3046C4F898A4E4
:104C3000A4F89C94FFF78EFC04F2A44396E80700C6
:104C400083E80700D8F80030002B3FF404AE3B881F
:104C5000342B7FF60AAEC44B3421186801F02EFFC6
:104C6000C24A0346052158461FF06EFE1398C4F849
:104C7000B0B419F0A5FBBB494023139823913146EA
:104C8000ADF8903019F0BCFB1399284615F0D8F90F
:104C9000082240F2A3111498FFF710FCC4F8E4A412
:104CA0003046A4F8E894FFF755FC04F59E6304F63B
:104CB000082A96E8070083E80700D8F80030002BA0
:104CC0003FF4C9AD3B883D2B7FF6CFADA64B3D21D0
:104CD000186801F0F3FEA54A0346052150461FF06F
:104CE00033FE1498C4F8FCA419F06AFB9D494823CC
:104CF000149823913146ADF8903019F081FB149946
:104D0000284615F09DF986224FF4CC711598FFF7CF
:104D1000D5FB6FF0FF033046A4F83495C4F8303566
:104D2000FFF718FC04F23C5396E8070083E80700FD
:104D3000D8F8003004F61226002B3FF48CAD3B88E7
:104D4000392B7FF692AD884B392123AFDFF81492CF
:104D500018684FF0000801F0B1FE844A03460521AF
:104D60003046DFF810B21FF0EFFD1598C4F8486523
:104D700004F61C2619F024FB4C2339461598ADF88F
:104D80009030CDF88C9019F03BFB1599284615F022
:104D900057F9472240F2A3111698FFF78FFB6FF0E7
:104DA000FF033846A4F88085C4F87C35FFF7D2FBB2
:104DB00004F5B16397E8070083E80700DBF80030EB
:104DC000002B3FF448AD6A4A13883B2B7FF64DAD6C
:104DD000654B3B214FF0FF3A186801F06FFE634AC4
:104DE0000346052130461FF0AFFD1698C4F89465C0
:104DF00004F6262619F0E4FA472339461698ADF84A
:104E00009030CDF88C9019F0FBFA1699284615F0E1
:104E100017F9C72240F289111798FFF74FFB384660
:104E2000C4F8C8A5A4F8CC85FFF794FB04F2D453CA
:104E300097E8070083E80700DBF80030002B3FF419
:104E40000AAD4B4A1388382B7FF60FAD464B3821FD
:104E5000186801F033FE454A0346052130461FF02D
:104E600073FD1798C4F8E0651EAE19F0A9FA4B233C
:104E700039461798ADF89030CDF88C9019F0C0FAFB
:104E80001799284615F0DCF8372209210798FFF713
:104E900015FB07993046C4F814A6A4F8188619F033
:104EA00015F8079901F13C0396E8070083E807002D
:104EB000502339460798ADF89030CDF88C9019F012
:104EC0009FFA0799284615F0BBF8B32209210898E4
:104ED000FFF7F4FA08993046C4F85CA6A4F8608697
:104EE00018F0F4FF089901F13C0396E8070083E805
:104EF0000700462339460898ADF89030CDF88C90DD
:104F000019F07EFA0899284615F09AF8F722092137
:104F10000998FFF7D3FA09993046C4F8A4A6A4F873
:104F2000A88618F0D3FF099901F13C0396E8070021
:104F300083E80700432339460998ADF89030CDF84F
:104F40008C9019F05DFA0999284615F079F8DB2262
:104F500009210A98FFF7B2FA0A993046C4F8ECA67C
:104F60000AE000BF588A0308D0810120A8AE0308D8
:104F7000C8810120C4810120A4F8F08618F0A6FFA2
:104F80000A9901F13C0396E8070083E807004223F1
:104F900039460A98ADF89030CDF88C9019F030FA77
:104FA0000A99284615F04CF8752209210B98FFF74D
:104FB00085FA0B993046C4F834A7A4F8388718F05E
:104FC00085FF0B9901F13C0396E8070083E8070091
:104FD0004F2339460B98ADF89030CDF88C9019F0EE
:104FE0000FFA0B99284615F02BF837224FF4B971B8
:104FF0000C98FFF763FA0C993046C4F87CA7A4F824
:10500000808718F063FF0C9901F13C0396E80700D4
:1050100083E80700452339460C98ADF89030CDF869
:105020008C9019F0EDF90C99284615F009F8232217
:1050300040F28B111898FFF741FA3846C4F8C4A71C
:10504000A4F8C887FFF786FA04F5FA6397E8070023
:1050500083E8070004F52361DBF800300391002B9F
:105060003FF4F9AB8D4A13883C2B7FF6FEAB8C4B9B
:105070003C21186801F022FD8A4A03460521039865
:105080001FF062FC03991898C4F8DC1719F098F91E
:105090003F2339461898ADF89030CDF88C9019F030
:1050A000AFF91899284614F0CBFF622240F28B1119
:1050B0001998FFF703FA3846C4F810A8A4F8148822
:1050C000FFF748FA04F61C0397E8070083E8070097
:1050D00004F63A21DBF800300391002B3FF4BBAB20
:1050E0006E4A13883A2B7FF6C0AB6D4B3A21186895
:1050F00001F0E4FC6B4A0346052103981FF024FCF1
:10510000039B1998C4F8283819F05AF93E233946F8
:105110001998ADF89030CDF88C9019F071F9199973
:10512000284614F08DFFB3220D9840F27711FFF757
:10513000C5F90D993046C4F85CA8A4F8608818F049
:10514000C5FE0D9B96E807003C33CDF88C9083E8B4
:1051500007004D2339460D98ADF8903019F050F9FD
:105160000D99284614F06CFF75220E9840F28111BB
:10517000FFF7A4F90E993046C4F8A4A8A4F8A888AB
:1051800018F0A4FE0E9B96E807003C33CDF88C90F7
:1051900083E80700442339460E98ADF8903019F0A3
:1051A0002FF90E99284614F04BFFF5220F984FF473
:1051B000B771FFF783F90F993046C4F8ECA8A4F84B
:1051C000F08818F083FE0F9B96E807003C33CDF87B
:1051D0008C9083E807004A2339460F98ADF8903049
:1051E00019F00EF90F99284614F02AFF3C221A985C
:1051F000D821FFF763F9032339461A98ADF88C30AC
:1052000019F04DFB1A99284614F01AFF6C221B98CE
:105210004FF48671FFF752F9012339461B98ADF818
:105220008C3019F03CFB1B99284614F009FF4FF411
:105230008873424641461C9800934FF4F073FFF781
:105240004AF94FF4F05328461C99C4F888394FF4B2
:105250008853C4F89C89C4F88C394FF40C53C4F8B3
:105260009489C4F890394FF4345384F88189C4F890
:1052700098394FF0FF23C4F8B0394FF4FC63A4F819
:10528000B4391D9BC4F88439842384F8823914F01E
:10529000D7FE204627B0BDE8F08F00BFC8810120AF
:1052A000D0810120A8AE030870470000034B10B561
:1052B000044603601AF0F8F9204610BD9C910308DB
:1052C000064B10B5044603601AF0EEF942F6B4310D
:1052D00020462FF0F2FC204610BD00BF9C91030831
:1052E00008B51BF0F5FEBDE80840FEF7BDBF0000A5
:1052F00010B504462622002130F0E2FE2046FFF7DA
:10530000FDF8044B20462360FF2384F82630002359
:10531000A36210BD50BF030810B4C46B4A01B4EBC4
:10532000411F04D05DF8044BC26318F021BB5DF847
:10533000044B70472DE9F04F0446BDB000261DF028
:1053400045FE2546E04B04F16C0A04F1980BE66338
:105350004FF4887945F8403B2846FFF7C9FF50468F
:10536000FFF7C6FF5846FFF723F904F1E403DFF81F
:10537000608318460693FFF71BF904F5987308F14C
:10538000240718460793FFF713F904F5BE73184670
:105390000893FFF70DF904F5E47318461593FFF72A
:1053A000E7F804F5047318461693FFF7E1F804F5DF
:1053B000167318461793FFF7DBF804F528731846A1
:1053C0001893FFF7D5F804F53A7318461993FFF7C9
:1053D000CFF804F54C7318461A93FFF7C9F804F593
:1053E0005E7318461B93FFF7C3F804F570731846F5
:1053F0001C93FFF7BDF804F5816318461D93FFF772
:10540000B7F804F58A6318461E93FFF7B1F804F560
:10541000936318461F93FFF7ABF804F59C63184697
:105420002093FFF7A5F804F5A56318462193FFF72D
:105430009FF804F5AE6318462293FFF799F804F538
:10544000B76318462393FFF793F804F5C063184633
:105450002493FFF78DF804F5C96318462593FFF7E9
:1054600087F804F5D26318462693FFF781F804F510
:10547000DB6318462793FFF77BF804F5E4631846CF
:105480002893FFF775F804F5ED6318462993FFF7A5
:105490006FF804F5F66318462A93FFF769F804F5E8
:1054A000FF6318462B93FFF763F804F5046318466F
:1054B0002C93FFF75DF804F6880318462D93FFF749
:1054C00057F804F50D6318462E93FFF751F804F6CC
:1054D000181318462F93FFF74BF804F51663184678
:1054E0003093FFF745F804F6A81318463193FFF7F9
:1054F0003FF804F51F6318460993FFF739F804F6DF
:10550000382318460A93FFF733F804F52863184642
:105510000B93FFF72DF804F6C82318460C93FFF7FA
:1055200027F804F5316318460D93FFF721F804F6C8
:10553000583318460E93FFF71BF804F53A631846E4
:105540000F93FFF715F804F6E8331846029318F0A6
:10555000EFF904F6584318463293FEF77BFA04F647
:105560006C43C4F8588C1846C4F8607CC4F8646C6A
:10557000039318F0DDF904F6DC4318463393FEF785
:1055800069FA04F54F63C4F8DC8C1846C4F8E47C6F
:10559000C4F8E86C1093FEF7EBFF04F63853184696
:1055A0001193FEF7E5FF04F558631846049318F0CD
:1055B000BFF904F55F6318463493FEF74BFA04F61F
:1055C0000463C4F8F08D1846C4F8F87DC4F8FC6D87
:1055D0001293FEF7CDFF04F64C6318461393FEF7C3
:1055E000C7FF04F694631846059318F0A1F904F672
:1055F000047318463593FEF72DFA04F61873C4F8B1
:105600000C7F4FF6FF77262231461846C4F8048FE8
:10561000C4F8106F4FF07F481493ADF8E87030F085
:105620004FFD1498FEF76AFF284B3AA91498C4F866
:10563000183FBDF8E83084F8407F271DA4F83E3FAE
:1056400019F02DF94FF4E15104F694701AF022F894
:105650004FF4F073324628463146CDF80090FEF7FD
:105660003AFF29463846C4F8688014F0E9FC4FF444
:10567000F0736FF0010250463146CDF80090FEF70E
:105680002AFF51463846C4F8948014F0D9FC1922F8
:105690005D215846FEF712FF36ADD4F898304FF032
:1056A000FF3859462846D3F8843004F64479C4F8C4
:1056B000C880A4F8CC609847DFF818A004F1D403A0
:1056C00095E8070008E000BF9C910308A0C003080C
:1056D000ACBB0308C481012083E80700DAF800307E
:1056E0002BB9074B6021074A074830F02DFA074BCA
:1056F0001B88032B0ED8064B6121024AF4E700BF3A
:10570000148F030816900308918F0308C8810120A5
:10571000D88F0308D64B0321186801F0CFF9D54A7A
:1057200003460A2148461FF00FF95846C4F8E09096
:1057300018F046FEDFF844932F2358463AA9CDF8D7
:10574000E890ADF8EC3018F05BFE5946384614F09E
:1057500077FC1922A5210698FEF7B0FED4F8E430B4
:1057600006992846D3F8843004F6587BC4F814818F
:10577000A4F81861984704F5907395E8070083E84A
:105780000700DAF80030002BABD0BB4A1388022B9D
:10579000B1D9B74B0221186801F090F9B54A034618
:1057A0000A2158461FF0D0F80698C4F82CB104F628
:1057B0006C7B18F005FE4FF00C010698ADF8EC106C
:1057C0003AA9CDF8E89018F01BFE0699384614F077
:1057D00037FC35226D210798FEF770FED4F8303182
:1057E00007992846D3F88430C4F86081A4F864612E
:1057F000984704F5B67395E8070083E80700DAF8E0
:105800000030002B3FF46DAF9B4A1388012B7FF6CD
:1058100072AF974B0121186801F050F9954A034681
:105820000A2158461FF090F80798C4F878B104F59B
:10583000786B18F0C5FD2C233AA90798ADF8EC3029
:10584000CDF8E89018F0DCFD0799384614F0F8FB25
:105850003522B5210898FEF731FED4F87C3108993D
:105860002846D3F88430C4F8AC81A4F8B0619847D6
:1058700004F5DC7395E8070083E80700DAF80030E8
:10588000002B3FF42EAF7C4A1388002B3FF433AF3C
:10589000774B31464FF0060A186801F00FF9754A48
:1058A00003460A2158461FF04FF80898C4F8C4B1BF
:1058B0004FF0210B18F084FD0B233AA90898ADF89E
:1058C000EC30CDF8E89018F09BFD0899384614F0BC
:1058D000B7FB1A22159840F2A311FEF7EFFD1599B8
:1058E0002846C4F8F881A4F8FC6118F0EFFA04F532
:1058F000017395E8070083E807002A233AA9159861
:10590000ADF8EC30CDF8E89018F07AFD15993846EE
:1059100014F096FB1A2216984FF4AC71FEF7CEFDE8
:1059200016992846C4F84082A4F8446218F0CEFACA
:1059300004F5137395E8070083E8070012233AA9DA
:105940001698ADF8EC30CDF8E89018F059FD16999E
:10595000384614F075FB3822179840F2A311FEF771
:10596000ADFD17992846C4F88882A4F88C6218F017
:10597000ADFA04F5257395E8070083E807002823AE
:105980003AA91798ADF8EC30CDF8E89018F038FD4A
:105990001799384614F054FB5422189840F2B3116A
:1059A000FEF78CFD18992846C4F8D082A4F8D4627A
:1059B00018F08CFA04F5377395E8070083E80700C0
:1059C00010233AA91898ADF8EC30CDF8E89018F00B
:1059D00017FD1899384614F033FB382219984FF404
:1059E000AC71FEF76BFD19992846C4F81883A4F82A
:1059F0001C6318F06BFA04F5497395E8070083E817
:105A0000070011233AA91998ADF8EC30CDF8E890C9
:105A100018F0F6FC1999384614F012FB54221A9823
:105A20004FF4B471FEF74AFD1A992846C4F8608312
:105A3000A4F8646318F04AFA04F55B7395E807006C
:105A400083E807004FF00F033AA91A98ADF8EC303D
:105A5000CDF8E89018F0D4FC1A99384614F0F0FA12
:105A60008C221B9840F2AB11FEF728FD08E000BF26
:105A7000D0810120A8AE0308C8810120588A0308FC
:105A80001B992846C4F8A883A4F8AC6318F01EFA42
:105A900004F56D7395E8070083E807004FF02603CF
:105AA0003AA91B98ADF8EC30CDF8E89018F0A8FCB6
:105AB0001B99384614F0C4FAA8221C9840F2AB1186
:105AC000FEF7FCFC1C992846C4F8F083A4F8F463A4
:105AD00018F0FCF904F57F7395E8070083E80700E8
