:020000040800F2
:10000000000005204523000855220008572200085B
:10001000592200085B2200085D2200080000000051
:10002000000000000000000000000000A19A00088D
:100030005F22000800000000419B0008A59B00080B
:1000400095230008952300089523000895230008B0
:1000500095230008952300089523000895230008A0
:100060009523000895230008952300089523000890
:100070009523000895230008952300089523000880
:100080009523000895230008952300089523000870
:100090006122000895230008952300089523000895
:1000A0009523000895230008952300089523000850
:1000B0009523000895230008952300089523000840
:1000C0009523000895230008952300089523000830
:1000D0009523000895230008952300089523000820
:1000E0009523000895230008952300089523000810
:1000F0009523000895230008952300089523000800
:1001000095230008952300089523000895230008EF
:1001100095230008952300086D2200089523000808
:1001200095230008952300089523000895230008CF
:1001300095230008952300089523000895230008BF
:1001400095230008952300089523000895230008AF
:10015000952300089523000895230008952300089F
:10016000952300089523000895230008952300088F
:10017000952300089523000895230008000000003F
:10018000952300089523000895230008952300086F
:10019000952300089523000895230008952300085F
:1001A000792200089523000885220008952300087D
:1001B000952300089523000895230008952300083F
:0801C0009523000895230008B7
:1001D00010B5054C237833B9044B13B10448AFF381
:1001E00000800123237010BD800300200000000068
:1001F000D453030808B5034B1BB103490348AFF3BD
:10020000008008BD0000000084030020D4530308D0
:1002100001F0FF01102A2BDB10F0070F08D010F8B7
:10022000013B013A8B422DD010F0070F42B3F6D1BB
:10023000F0B441EA012141EA014122F007047FF0D4
:1002400000070023F0E80256083C85EA010586EA2B
:10025000010685FA47F5A3FA87F586FA47F6A5FA67
:1002600087F68EB9EED1F0BC01F0FF0102F0070273
:1002700032B110F8013B013A83EA010313B1F8D11E
:100280000020704701387047002D06BF35460338FF
:10029000073815F0010F07D1013015F4807F02BF38
:1002A000013015F4C03F0130F0BC0138704700BF89
:1002B00081F0004102E000BF83F0004330B54FEA17
:1002C00041044FEA430594EA050F08BF90EA020F84
:1002D0001FBF54EA000C55EA020C7FEA645C7FEA17
:1002E000655C00F0E2804FEA5454D4EB5555B8BF3A
:1002F0006D420CDD2C4480EA020281EA030382EAAB
:10030000000083EA010180EA020281EA0303362D3C
:1003100088BF30BD11F0004F4FEA01314FF4801C0F
:100320004CEA113102D0404261EB410113F0004F21
:100330004FEA03334CEA133302D0524263EB4303D8
:1003400094EA050F00F0A780A4F10104D5F1200E76
:100350000DDB02FA0EFC22FA05F2801841F10001D1
:1003600003FA0EF2801843FA05F359410EE0A5F1A5
:1003700020050EF1200E012A03FA0EFC28BF4CF0D6
:10038000020C43FA05F3C01851EBE37101F000458C
:1003900007D54FF0000EDCF1000C7EEB00006EEB99
:1003A0000101B1F5801F1BD3B1F5001F0CD3490823
:1003B0005FEA30004FEA3C0C04F101044FEA44527A
:1003C00012F5800F80F09A80BCF1004F08BF5FEA01
:1003D000500C50F1000041EB045141EA050130BDE1
:1003E0005FEA4C0C404141EB0101013C28BFB1F5F3
:1003F000801FE9D291F0000F04BF01460020B1FA3E
:1004000081F308BF2033A3F10B03B3F120020CDA10
:100410000C3208DD02F1140CC2F10C0201FA0CF0EE
:1004200021FA02F10CE002F11402D8BFC2F1200C53
:1004300001FA02F120FA0CFCDCBF41EA0C01904009
:10044000E41AA2BF01EB0451294330BD6FEA040452
:100450001F3C1CDA0C340EDC04F11404C4F120023D
:1004600020FA04F001FA02F340EA030021FA04F34F
:1004700045EA030130BDC4F10C04C4F1200220FAA6
:1004800002F001FA04F340EA0300294630BD21FAE4
:1004900004F0294630BD94F0000F83F4801306BFAA
:1004A00081F480110134013D4EE77FEA645C18BF9E
:1004B0007FEA655C29D094EA050F08BF90EA020F35
:1004C00005D054EA000C04BF1946104630BD91EA2D
:1004D000030F1EBF0021002030BD5FEA545C05D130
:1004E0004000494128BF41F0004130BD14F580046F
:1004F0003CBF01F5801130BD01F0004545F0FE41E3
:1005000041F470014FF0000030BD7FEA645C1ABF17
:10051000194610467FEA655C1CBF0B46024650EA4E
:10052000013406BF52EA033591EA030F41F400217A
:1005300030BD00BF90F0000F04BF0021704730B500
:100540004FF4806404F132044FF000054FF00001D5
:1005500050E700BF90F0000F04BF0021704730B596
:100560004FF4806404F1320410F0004548BF40426B
:100570004FF000013EE700BF42004FEAE2014FEAC0
:1005800031014FEA02701FBF12F07F4393F07F4F9B
:1005900081F06051704732F07F4208BF704793F09E
:1005A0007F4F04BF41F40021704730B54FF46074B1
:1005B00001F0004521F000411CE700BF50EA0102B4
:1005C00008BF704730B54FF000050AE050EA01025D
:1005D00008BF704730B511F0004502D5404261EBCD
:1005E00041014FF4806404F132045FEA915C3FF40E
:1005F000D8AE4FF003025FEADC0C18BF03325FEAAB
:10060000DC0C18BF033202EBDC02C2F1200300FA5B
:1006100003FC20FA02F001FA03FE40EA0E0021FA80
:1006200002F11444BDE600BF70B54FF0FF0C4CF46E
:10063000E06C1CEA11541DBF1CEA135594EA0C0F20
:1006400095EA0C0F00F0DEF82C4481EA030621EA5B
:100650004C5123EA4C5350EA013518BF52EA033596
:1006600041F4801143F4801338D0A0FB02CE4FF048
:100670000005E1FB02E506F00042E0FB03E54FF078
:100680000006E1FB03569CF0000F18BF4EF0010E70
:10069000A4F1FF04B6F5007F64F5407404D25FEA6C
:1006A0004E0E6D4146EB060642EAC62141EA55511F
:1006B0004FEAC52040EA5E504FEACE2EB4F1FD0C61
:1006C00088BFBCF5E06F1ED8BEF1004F08BF5FEADF
:1006D000500E50F1000041EB045170BD06F0004691
:1006E00046EA010140EA020081EA0301B4EB5C043E
:1006F000C2BFD4EB0C0541EA045170BD41F4801136
:100700004FF0000E013C00F3AB8014F1360FDEBF5A
:10071000002001F0004170BDC4F10004203C35DA36
:100720000C341BDC04F11404C4F1200500FA05F3B9
:1007300020FA04F001FA05F240EA020001F000425A
:1007400021F0004110EBD37021FA04F642EB0601D0
:100750005EEA430E08BF20EAD37070BDC4F10C04FA
:10076000C4F1200500FA04F320FA05F001FA04F2BE
:1007700040EA020001F0004110EBD37041F10001AA
:100780005EEA430E08BF20EAD37070BDC4F12005B5
:1007900000FA05F24EEA020E20FA04F301FA05F21D
:1007A00043EA020321FA04F001F0004121FA04F2C5
:1007B00020EA020000EBD3705EEA430E08BF20EA95
:1007C000D37070BD94F0000F0FD101F000464000CF
:1007D00041EB010111F4801F08BF013CF7D041EA51
:1007E000060195F0000F18BF704703F00046520055
:1007F00043EB030313F4801F08BF013DF7D043EA26
:100800000603704794EA0C0F0CEA135518BF95EADB
:100810000C0F0CD050EA410618BF52EA4306D1D162
:1008200081EA030101F000414FF0000070BD50EA81
:10083000410606BF1046194652EA430619D094EA0B
:100840000C0F02D150EA013613D195EA0C0F05D1F5
:1008500052EA03361CBF104619460AD181EA030149
:1008600001F0004141F0FE4141F470014FF0000001
:1008700070BD41F0FE4141F4780170BD70B54FF09C
:10088000FF0C4CF4E06C1CEA11541DBF1CEA13551C
:1008900094EA0C0F95EA0C0F00F0A7F8A4EB0504FE
:1008A00081EA030E52EA03354FEA013100F08880F5
:1008B0004FEA03334FF0805545EA131343EA1263BE
:1008C0004FEA022245EA111545EA10654FEA002673
:1008D0000EF000419D4208BF964244F1FD0404F52C
:1008E000407402D25B084FEA3202B61A65EB030588
:1008F0005B084FEA32024FF480104FF4002CB6EB45
:10090000020E75EB030E22BFB61A754640EA0C00C4
:100910005B084FEA3202B6EB020E75EB030E22BF04
:10092000B61A754640EA5C005B084FEA3202B6EB45
:10093000020E75EB030E22BFB61A754640EA9C0004
:100940005B084FEA3202B6EB020E75EB030E22BFD4
:10095000B61A754640EADC0055EA060E18D04FEA92
:10096000051545EA16754FEA06164FEAC30343EA32
:1009700052734FEAC2025FEA1C1CC0D111F4801FFF
:100980000BD141EA00014FF000004FF0004CB6E7F8
:1009900011F4801F04BF01430020B4F1FD0C88BF97
:1009A000BCF5E06F3FF6AFAEB5EB030C04BFB6EBA2
:1009B000020C5FEA500C50F1000041EB045170BD95
:1009C0000EF0004E4EEA113114EB5C04C2BFD4EBC2
:1009D0000C0541EA045170BD41F480114FF0000E46
:1009E000013C90E645EA060E8DE60CEA135594EAC2
:1009F0000C0F08BF95EA0C0F3FF43BAF94EA0C0FC5
:100A00000AD150EA01347FF434AF95EA0C0F7FF439
:100A100025AF104619462CE795EA0C0F06D152EA8D
:100A200003353FF4FDAE1046194622E750EA410671
:100A300018BF52EA43067FF4C5AE50EA41047FF482
:100A40000DAF52EA43057FF4EBAE12E74FF0FF3CE7
:100A500006E000BF4FF0010C02E000BF4FF0010CB8
:100A60004DF804CD4FEA410C7FEA6C5C4FEA430C31
:100A700018BF7FEA6C5C1BD001B050EA410C0CBF80
:100A800052EA430C91EA030F02BF90EA020F0020E2
:100A9000704710F1000F91EA030F58BF994208BF49
:100AA00090422CBFD8176FEAE37040F00100704706
:100AB0004FEA410C7FEA6C5C02D150EA013C07D15D
:100AC0004FEA430C7FEA6C5CD6D152EA033CD3D0A8
:100AD0005DF8040B704700BF8446104662468C46A2
:100AE0001946634600E000BF01B5FFF7B7FF0028D5
:100AF00048BF10F1000F01BD4DF808EDFFF7F4FFFE
:100B00000CBF012000205DF808FB00BF4DF808ED88
:100B1000FFF7EAFF34BF012000205DF808FB00BFAB
:100B20004DF808EDFFF7E0FF94BF012000205DF8CD
:100B300008FB00BF4DF808EDFFF7CEFF94BF012082
:100B400000205DF808FB00BF4DF808EDFFF7C4FF7B
:100B500034BF012000205DF808FB00BF4FEA4102CE
:100B600012F5001215D211D56FF47873B3EB6252FF
:100B700012D94FEAC12343F0004343EA505311F026
:100B8000004F23FA02F018BF404270474FF00000B8
:100B9000704750EA013005D111F0004008BF6FF0F6
:100BA000004070474FF00000704700BF4FEA41021D
:100BB000B2F1E04324BFB3F5001CDCF1FE5C0DD9BB
:100BC00001F0004C4FEAC0024CEA5070B2F1004F05
:100BD00040EB830008BF20F00100704711F0804F08
:100BE00021D113F13872BCBF01F00040704741F4CD
:100BF00080114FEA5252C2F11802C2F1200C10FAD1
:100C00000CF320FA02F018BF40F001004FEAC123B4
:100C10004FEAD32303FA0CFC40EA0C0023FA02F358
:100C20004FEA4303CCE77FEA625307D150EA01332E
:100C30001EBF4FF0FE4040F44000704701F00040FE
:100C400040F0FE4040F40000704700BF7BB972B92D
:100C50000029BEBF00204FF0004106E008BF002879
:100C60001CBF6FF000414FF0FF3000F0B5B9ADF19F
:100C7000080C6DE904CE002909DB002B1ADB00F01B
:100C80004DF8DDF804E0DDE9022304B0704740428E
:100C900061EB4101002B1BDB00F040F8DDF804E0C4
:100CA000DDE9022304B0404261EB4101524263EBB3
:100CB00043037047524263EB430300F02FF8DDF823
:100CC00004E0DDE9022304B0404261EB41017047DA
:100CD000524263EB430300F021F8DDF804E0DDE964
:100CE000022304B0524263EB4303704753B94AB93D
:100CF000002908BF00281CBF4FF0FF314FF0FF3024
:100D000000F06AB9ADF1080C6DE904CE00F006F808
:100D1000DDF804E0DDE9022304B070472DE9F04777
:100D2000089D0C46002B4ED194468C458646B2FA5F
:100D300082F262D94AB1C2F12003914020FA03F352
:100D40000CFA02FC194300FA02FE4FEA1C471FFA94
:100D50008CF6B1FBF7F44FEA1E4307FB141143EA8C
:100D6000014304FB06F199420AD91CEB030304F189
:100D7000FF3080F01281994240F20F81023C6344BF
:100D8000591A1FFA8EF3B1FBF7F007FB101143EA73
:100D9000014300FB06F69E420AD91CEB030300F157
:100DA000FF3180F0FC809E4240F2F98063440238BB
:100DB0009B1B40EA044000211DB1D3400022C5E93D
:100DC0000032BDE8F0878B4205D90DB1C5E90001BD
:100DD00000210846F5E7B3FA83F1002946D1A34282
:100DE00002D39042C0F0F080861A64EB0303012026
:100DF000002DE6D0C5E90063E3E7002A40F09080CB
:100E0000A1EB0C044FEA1C481FFA8CF70121B4FB3C
:100E1000F8F64FEA1E4308FB164443EA044307FB77
:100E200006F0984208D91CEB030306F1FF3402D206
:100E3000984200F2CD8026461C1A1FFA8EF3B4FBAE
:100E4000F8F008FB104443EA044300FB07F79F4215
:100E500008D91CEB030300F1FF3402D29F4200F2D9
:100E6000B0802046DB1B40EA0640A5E7C1F1200622
:100E70008B4022FA06F71F4320FA06FC04FA01F31E
:100E800043EA0C03F44000FA01F8380C4FEA134926
:100E9000B4FBF0FE1FFA87FC00FB1E4449EA044441
:100EA0000EFB0CF9A14502FA01F20AD93C190EF128
:100EB000FF3A80F08480A14540F28180AEF1020EBD
:100EC0003C44A4EB09041FFA83F9B4FBF0F300FBE4
:100ED000134449EA044403FB0CFCA44507D93C191C
:100EE00003F1FF3067D2A44565D9023B3C4443EA95
:100EF0000E40A0FB0293A4EB0C049C42CE469C4601
:100F000051D34ED055B1B8EB0E0364EB0C0404FA88
:100F100006F6CB401E43CC40C5E90064002150E7F3
:100F2000C2F1200320FA03F10CFA02FC24FA03F3C5
:100F300094400C434FEA1C4800FA02FE1FFA8CF75B
:100F4000B3FBF8F008FB1031230C43EA014300FB2C
:100F500007F1994208D91CEB030300F1FF362CD2AC
:100F600099422AD9023863445B1AA4B2B3FBF8F160
:100F700008FB113344EA034401FB07F3A34208D9F9
:100F80001CEB040401F1FF3613D2A34211D902393C
:100F90006444E41A41EA004139E70446F0E60846B1
:100FA00006E7C845AED2B9EB020E63EB070C013879
:100FB000A8E73146EDE7034699E73046D4E7D64641
:100FC0007FE7634402384DE70646234608460FE7AD
:100FD000023E634430E700BF704700BF0149002074
:100FE00009F05CBF4128000808B5642008F068F9E2
:100FF000FBE70000000000002DE98048A3B0C04BD3
:10100000B1EE0C8ABF4C1A68D4ED007AB2F5FA5FE3
:10101000F4EEC87AB4BF253200220192019A1A6018
:10102000B94B1A68B2F5FA5FB4BF173200220292C8
:10103000029A1A60B54B1F68812FD4BF01376FF039
:101040002707632F1F60D4BF002301230793B04BF2
:101050001E68812ED4BF01366FF02706632E1E60F6
:10106000D4BF002301230893AA4B1A68952AD4BF42
:1010700001326FF027020392039A1A60A64B1A6896
:10108000812AD4BF01326FF027020492049A1A60B9
:10109000A24B1A68EF2AD4BF02F1040A4FF0000AEB
:1010A000C3F800A09E4B1A68EF2AD4BF02F1020BCE
:1010B0004FF0000BF1EE10FAC3F800B080F260813F
:1010C00017EE900AFFF758FA7DA3D3E90023FFF744
:1010D000F5F8FFF76BFD09EE100A84ED009A914CCC
:1010E000D4ED007AF4EEC87AF1EE10FA80F24B817A
:1010F00017EE900AFFF740FA73A3D3E90023FFF736
:10110000DDF8FFF753FD08EE900AF0EE087AC4ED23
:10111000008A854CB1EE027AF4EEE78AF0EE007AAE
:10112000F1EE10FAB4EEE79AD4ED007A4CBF012349
:101130000023F1EE10FAF4EEC77A09934CBF0123B5
:101140000023F1EE10FA0A9380F2208117EE900A44
:10115000FFF712FA5EA3D3E90023FFF7AFF8FFF71A
:1011600025FD0590DDED057ADFF8D481C4ED007A28
:10117000D8F80000FFF700FA04460D4656A3D3E95D
:101180000023FFF7D7FC002840F0058120462946C0
:101190004DA3D3E90023FFF791F8FFF707FD069071
:1011A000DDED067AC8ED007ADFF89881D8F8000006
:1011B000FFF7E2F904460D4649A3D3E90023FFF700
:1011C000B9FC002840F0EC802046294646A3D3E92C
:1011D0000023FFF773F8FFF7E9FC08EE100AF2EEC0
:1011E000087A88ED008AB4EEE78AF1EE10FA4CBF77
:1011F000012300230B934D4B1D68312DD4BF0435C3
:101200006FF027051D604A4B1C68592CD4BF013470
:101210006FF027041C60474B1868FFF7ADF9804654
:10122000894633A3D3E90023FFF784FC002840F06C
:10123000BA804046494630A3D3E90023FFF73EF881
:10124000FFF7B4FC3C4A3B4B3C4918601368DFF89D
:10125000F8C0632BDDED057A1096D4BF013300236F
:10126000CDED197A13600A78DDED067A82F0010E71
:10127000019ACDF854B00C92029A81F800E09CF8E3
:1012800000108DED169A4E29CDED178ACDE90D2768
:10129000079A14BF4E2152218DF83C20089A8CF8F1
:1012A00000108DF84420039A1292049ACDE9132A73
:1012B000099A8DF860200A9A8DF8612046E000BFF7
:1012C0009A9999999999A93F7B14AE47E17A943FED
:1012D0007B14AE47E17AA43F9A9999999999134062
:1012E0006666666666662D409A9999999999B93F9E
:1012F000CDCCCCCCCCCCFC3FB81E85EB51B89E3FBE
:10130000DC030020BC030020D8030020D40300200D
:10131000D0030020CC030020C8030020C403002019
:10132000C0030020B8030020B4030020A80300205D
:10133000A4030020A00300209C030020050000203F
:10134000B0030020AC03002004000020CDED1A7A89
:101350000B9A1F902093002314488DF870201A4692
:101360008DF885100CA900688DED1B8A8DF884E03E
:10137000CDE91D5408F071FE282007F0A1FF3EE6DC
:101380009FED0B9AA9E6DFED0A8ABEE6DFED087A4B
:10139000CDED057AE6E6DFED067ACDED067AFFE6DD
:1013A000B2EE068A1BE700204CE700BFE4470020AE
:1013B0000000000010B594B01022002102240AA8F9
:1013C00033F0CAF81422002103A833F0C5F81D4BEE
:1013D000192108A81A6C42F080521A641B6C03F0A1
:1013E00080530193019B184B1A6842F440421A60E3
:1013F00001221B6803F440430293029B4FF48033A5
:10140000CDE908234FF48003CDE90E434FF4C873B0
:10141000CDE91244CDE9101306F022FF06F0BEFB21
:101420000F2300200621CDE903344FF4A053CDE96A
:1014300005034FF4805303A8079307F0F9F814B09D
:1014400010BD00BF00380240007000402DE9804808
:101450009BB01022002101250DA84FF0104833F059
:101460007BF8002405F0E0FAC74B0DA8ADF8345026
:101470001094CDE90E8305F0F5FA17230DA88DF829
:1014800035508DF83C308DF8425005F0EBFA0420D1
:1014900005F0D8FABFF34F8FBFF36F8FBB4AC2F886
:1014A0005042BFF34F8FBFF36F8F536943F4003344
:1014B0005361BFF34F8FBFF36F8FC2F88440BFF308
:1014C0004F8FD2F8803043F6E074C3F3C900C3F302
:1014D0004E335B0103EA0406014646EA8175013991
:1014E000C2F86052F9D2203B13F1200FF2D1BFF3C2
:1014F0004F8F536943F480335361BFF34F8FBFF372
:101500006F8F04F02BFF0024FFF754FF14220021FB
:101510000DA833F021F89E4B10219E481A6B01272D
:101520004FF010084FF0030B42F010024FF48059B7
:10153000994D4FF0040A1A631A6B984E02F010028C
:101540000292029A1A6B42F002021A631A6B02F0BC
:1015500002020392039A1A6B42F001021A631A6B99
:1015600002F001020492049A1A6B42F040021A63DC
:101570001A6B02F040020592059A1A6B42F400724F
:101580001A631A6B02F400720692069A1A6B42F002
:1015900008021A631A6B02F008020792079A1A6B84
:1015A00042F480621A631A6B02F480620892089A0D
:1015B0001A6B42F020021A631A6B02F020020992A1
:1015C000099A1A6B42F480721A631A6B02F48072E1
:1015D0000A920A9A1A6B42F080021A631A6B02F09E
:1015E00080020B920B9A1A6B42F004021A630022DB
:1015F0001B6B03F004030C930C9B05F081FD01228F
:101600000821674805F07CFD01224FF480516548B0
:1016100005F076FD0022C021634805F071FD00222F
:101620004021624805F06CFD0DA95A48CDE90D87AF
:10163000CDE90F4B05F0E0FB08230DA95848CDE993
:101640000D37CDE90F4405F0D7FB0DA95548CDE97D
:101650000D97CDE90F4405F0CFFBC0220DA95248EC
:10166000CDE90D27CDE90F4B05F0C6FB40220DA9B2
:101670004E48CDE90D27CDE90F4B05F0BDFB4C4899
:101680004C49848001600762C0E9054405F016FA00
:1016900049492846C5E90014C5E90244C5E90A4498
:1016A000C5E90C4405F0A9FA39462846434D05F032
:1016B0005DFB40234FF4C07241493046B460F46191
:1016C000B462C6E905324FF40062C6E908294FF05A
:1016D00002090722C6E900140DA9CDF84C90C6E90D
:1016E00003A8CDE90D92CDE90FA2CDE911B907F01C
:1016F000F5FA29464FF6FF7230460194C5E90078A5
:10170000C5E9027407F00AFB384604F04BFE29468F
:101710004FF6FF723046C5E90098C5E9027407F03C
:10172000FDFA082329464FF6FF723046C5E9023418
:10173000C5E900B807F0F2FA4FF40C734FF6FF72E8
:10174000294601933046019BAF60EB60C5E900A8D4
:1017500007F0E4FA40F22B7130461A4D07F0FDFA1B
:101760004FF0204343F2D202642040F215261A6063
:1017700004F018FE144B154A28462C62C5E90023D4
:10178000C5E9024724E000BF1B00000300ED00E0B4
:1017900000380240000402407C05002000040020C4
:1017A00000280240002002400008024000180240C9
:1017B000BC0500200030024000B00240E0030020E1
:1017C000400100A0280500209B676010005C0040DD
:1017D000C5E90444C5E9064405F0D3FD2146284681
:1017E00005F0F6FF21462846544D06F017F834223E
:1017F00021460DEB020032F0AFFE514B282135207F
:1018000040F2352C2C61AC8685F83640C5E90034B1
:101810000923C5E905130B23C5E9070340F21B1390
:101820002846C5E9096340F21D130526C5E90BC327
:10183000C5E9024406F09EF8FF214FF4F0724FF420
:10184000887328460D941893ADF864408DF866406F
:101850003C4DCDE912144FF48061CDE914164FF0E0
:101860004041CDE90E24CDE9161222460DA9CDE95D
:10187000103906F04AF93448344B4FF0180E046220
:10188000C0E900374FF4A063C0E902A8C0E904E34F
:10189000C0E9064406F09CFA04F0E0FB04F026FBE5
:1018A0005C2005F0AFF800F04BFD294B2846AC61F9
:1018B000AC83C5E900364FF4E023C5E90244C5E92D
:1018C000043404F081FD0E230DA9284616931497C5
:1018D00011941597CDE91244CDE90D44CDE90F449B
:1018E00004F0EEFD284604F071FE4946284604F057
:1018F00015FF00F051FD00F04EFD07F053FC154AB6
:101900002146154807F088FC144B154A21461860FB
:10191000144807F081FC144B144A214618601448FF
:1019200007F07AFC134B144A21461860134807F05D
:1019300073FC134B186007F04FFCFEE78004002097
:1019400000680140E005002034040020001000A0E1
:1019500000640040C8540308E90F0008FC0300209D
:10196000A4540308A7230008F803002080540308A8
:10197000093F0008F40300205C540308F90F000835
:10198000F003002000000000F8B5A34C0021A34D97
:1019900022462B462DED028B04F043FE2668B6F559
:1019A000587F20D1A368002B40F0A2802369082B28
:1019B00040F09E802B889A4A5BBAA8889BB240BAB6
:1019C000136080B2974A11688B42C8BF1360FEF75C
:1019D000C1FD8BA3D3E90023FEF726FEFFF7BEF877
:1019E000914B186084E040F261339E426AD1A36853
:1019F000002B5AD12369082B57D16B88DFED8B8AD6
:101A00005BBA9FB22B885BBA9BB207EE903AF8EEB6
:101A1000677A67EEA87A17EE900AFEF7ADFD7AA313
:101A2000D3E90023FEF748FC79A3D3E90023FEF7AE
:101A3000FBFDFFF7BBF807EE907A7D4B08EE100A2E
:101A4000F8EE677A186067EEA87A17EE900AFEF74C
:101A500093FD6DA3D3E90023FEF72EFC6CA3D3E91D
:101A60000023FEF7E1FDFFF7A1F8724B07EE900AA5
:101A700018606B4B1B68B3F52F7F16DD6E4A92ED35
:101A8000007AB4EEC78AF1EE10FA48BF82ED008A00
:101A900040F6C412934208DD684B93ED007AF4EEF1
:101AA000C77AF1EE10FA00D51860B6F5797F1FD12C
:101AB000A368EBB92369082B1AD1EB79604ADB09DB
:101AC000137015E0B6F55A7F41D1A36883B9236935
:101AD000082B0DD12B889FED5B7A5BBA9BB207EE8A
:101AE000903A594BF8EE677A67EE877AC3ED007A41
:101AF000BDEC028BF8BDA368002BF9D12369082B3C
:101B0000F6D1288840BA80B2FEF724FD3CA3D3E981
:101B10000023FEF789FDFFF721F84C4B18604C4B72
:101B20001A689042E4DD5CE7A368002BE0D12369EA
:101B3000082BDDD12B889FED3D7A5BBA9BB207EE77
:101B4000903A444BF8EE677A67EE877ACEE7B6F5BF
:101B50005C7FD0D040F272339E42E5D0B6F5787FFC
:101B6000A3D1A368002BC3D12369082BC0D1288837
:101B70006F8840BAAE887FBAEC8880B276BABFB2BE
:101B800064BAA0F6AB20B6B2FEF7E4FCA4B21CA384
:101B9000D3E90023FEF748FDFEF7E0FF2E4B186067
:101BA0002E4B1A689042C8BF1860A7F6AB20FEF70C
:101BB000D1FC13A3D3E90023FEF736FDFEF7CEFFD9
:101BC000274B1860A6F6AB20FEF7C4FC0CA3D3E9A4
:101BD0000023FEF729FDFEF7C1FF224B1860A4F693
:101BE000AB20FEF7B7FC06A3D3E90023FEF71CFDEC
:101BF000FEF7B4FF1C4B18601C4B91E7AFF300805D
:101C00009A9999999999B93F33333333335359405A
:101C100000000040E17A843F100600200806002002
:101C2000DC030020D80300209C030020CDCCCC3D59
:101C3000B4030020BC030020B0030020B803002040
:101C4000050000206F12833AA0030020C403002087
:101C5000C0030020AC030020D4030020D0030020E8
:101C6000A4030020A8030020CC030020C803002008
:101C70000268034B9A4201D104F082BB704700BF57
:101C800000100040704700000D4B82B00F216FF034
:101C900001001A6C42F080521A641A6C02F08052F1
:101CA0000092009A5A6C42F480425A6400225B6CA3
:101CB00003F480430193019B02B004F063BE00BFB4
:101CC0000038024010B588B004461422002103A851
:101CD00032F042FC2268174B9A4228D103F5EA33CE
:101CE000032115481A6C42F000721A641A6C02F053
:101CF00000720192019A1A6B42F002021A634FF4C9
:101D000040721B6B03F002030293029B0223CDE996
:101D100003230923CDE9061303A905F06DF8142068
:101D20000022052104F02EFE142004F05DFE08B010
:101D300010BD00BF0064004000040240026882B091
:101D4000084B9A420BD1D3F8302803F5006342F4D4
:101D500080521A631B6B03F480530193019B02B002
:101D6000704700BF003002400E4B07B502689A4230
:101D700015D1A3F5F04305215A201A6B42F4000255
:101D80001A6300221B6B03F400030193019B04F010
:101D9000F9FD5A2003B05DF804EB04F025BE03B052
:101DA0005DF804FB00B0024010B5A8B00446142250
:101DB000002102A832F0D0FB8422002107A832F0D3
:101DC000CBFB2268174B9A422AD14FF4803307A8E5
:101DD000079306F0F9FC08B1FFF754FF124C4FF4DB
:101DE000C07201211148236B43F080032363236BEE
:101DF00003F080030093009B1223CDE90223032309
:101E0000CDE90413042302A9069304F0F5FF236C23
:101E100043F400032364236C03F400030193019B48
:101E200028B010BD005C004000380240001C024099
:101E3000026808B5094B9A420FD1094A8021094826
:101E4000136C23F40003136405F0BAF84FF48071A7
:101E50000448BDE8084005F0B3B808BD005C004088
:101E600000380240001C024070B5ACB00446142299
:101E7000002106A832F070FB842200210BA832F06A
:101E80006BFB2268484B9A4240F08C800823052067
:101E900001240B934FF4C07310930223CDE911304A
:101EA0004FF400330BA8CDE9154306F08DFC08B1C3
:101EB000FFF7E8FE3D4B002402250E265A6C06A9CA
:101EC0003B4842F080625A645A6C02F08062009291
:101ED000009A1A6B42F010021A631A6B02F0100299
:101EE0000192019A1A6B42F400721A631A6B02F49F
:101EF00000720292029A1A6B42F480621A631A6BA1
:101F000002F480620392039A1A6B42F040021A6351
:101F10001A6B02F040020492049A1A6B42F4807227
:101F20001A631B6B03F480730593059B1023CDE9A3
:101F30000635CDE908440A9604F05EFF4EF6FF73BD
:101F400006A91C480A96CDE90635CDE9084404F0F7
:101F500053FFF72306A918480A96CDE90635CDE9BF
:101F6000084404F049FF4FF4805306A91348CDE913
:101F700006350923CDE908440A9304F03DFF4FF4E8
:101F8000464306A90E480A96CDE90635CDE9084430
:101F900004F032FF58202246052104F0F3FC5820BB
:101FA00004F022FD2CB070BD0068014000380240F2
:101FB00000100240002402400028024000180240A5
:101FC00000200240142200212DE9F0418AB004468D
:101FD0000DEB020032F0C0FA22682C4B9A4251D12C
:101FE0002B4B0225032409269A6B4FF0040805A900
:101FF000284842F0020200279A639A6B02F002021C
:102000000192019A1A6B42F010021A631A6B02F0E5
:1020100010020292029A1A6B42F002021A631A6BC1
:1020200002F002020392039A1A6B42F008021A634A
:102030001B6B03F008030493049BCDE90585CDE9F0
:10204000084604F0D9FE402305A91348CDE905351B
:102050000A23CDE90774099304F0CEFE05A90E48C2
:102060000996CDE90585CDE9077404F0C5FE4FF466
:10207000605305A909480996CDE90535CDE90774EE
:1020800004F0BAFE0AB0BDE8F08100BF001000A065
:10209000003802400010024000040240000C0240E0
:1020A000026808B50B4B9A4213D10B4A04210B4826
:1020B000936B23F00203936304F082FF44210848EA
:1020C00004F07EFF4FF460510648BDE8084004F07C
:1020D00077BF08BD001000A0003802400010024089
:1020E00000040240000C0240F0B5002387B00393C7
:1020F000294B1E68002E4DD10122022703250C24F6
:102100001A6001A9254B26489A6B42F001029A6396
:102110009B6B03F001030093009B4FF68373CDE9A3
:102120000454CDE9013704F067FE48F2331301A9E6
:102130001C480594CDE90137CDE9036504F05CFE48
:102140004CF2037301A918480594CDE90137CDE994
:10215000036504F051FE4FF63F0301A913480594AF
:10216000CDE90137CDE9036504F046FE282301A936
:102170000F480594CDE90137CDE9036504F03CFE35
:10218000082301A90B480594CDE90137CDE9036582
:1021900004F032FE07B0F0BD2C06002000380240EB
:1021A0000010024000180240000C024000140240DF
:1021B000001C024000080240214B1A6C42F0100241
:1021C00070B51A6488B01B6C054601A903A803F01A
:1021D00010030293029B06F0D9FA069B4BBB06F054
:1021E000C5FA184E184B336040F2E733F360174BD3
:1021F000B0FBF3F3013B3046736000233361B360FF
:10220000B36106F011FF044680B9304606F0BEFD0A
:10221000044658B9362004F0E7FB0F2D0DD82246AE
:102220002946362004F0AEFB094B1D60204608B05D
:1022300070BD06F09BFA4000D3E70124F6E700BF2B
:1022400000380240300600200010004040420F00DD
:10225000980000207047FEE7FEE7FEE7FEE77047C4
:10226000014804F078BA00BFE0050020014806F0FC
:10227000CFBD00BF30060020014805F0E9BB00BF1C
:1022800080040020014804F0E6BC00BF7C0500206B
:102290000120704708B532F013FA162303604FF09F
:1022A000FF3008BD08B532F00BFA16230360FEE7D5
:1022B00070B50D4614460E46731B9C4201DC204649
:1022C00070BDAFF3008006F8010BF5E770B50D4661
:1022D00014460E46731B9C4201DC204670BD16F866
:1022E000010BAFF30080F5E74FF0FF3070474FF47C
:1022F000005300204B60704701207047002070475A
:102300000B4A0346116810B509B90A4911601068F3
:1023100009490A4C0344091B8B4206D932F0D0F913
:102320000C2303604FF0FF3010BD1360FCE700BFCB
:102330007C0600203888012000000520000A0000EB
:1023400070470000DFF834D0002103E00C4B5B58ED
:10235000435004310B480C4B42189A42F6D30B4AB7
:1023600002E0002342F8043B094B9A42F9D303F000
:102370000DFF32F0ABF9FFF769F870470000052058
:1023800008AE030800000020800100208003002028
:1023900038880120FEE7704708B501F08FF9BDE8E5
:1023A000084001F011B901F08BB9406870474160F5
:1023B000704700004FF0E022D2F8FC3D43F08073FC
:1023C000C2F8FC3D054B064AD3F8B01F0A43C3F8D8
:1023D000B02F1A6842F001021A607047001000E046
:1023E00055CEACC5521A02EB5302B2FBF3F0704764
:1023F000014B5868704700BF001000E0704710B5EF
:1024000004460C2130F0A5FE204610BD036810B52F
:102410001B69044631B19847A26863689B1A03445C
:10242000636010BD9847A060FBE70000024B70207E
:10243000024A1360DB6818476C0000208006002009
:10244000704710B50446042130F083FE204610BDCD
:1024500073B50E4E0D461446336813B9002002B012
:1024600070BD1B69702098470028F7D03368702032
:1024700001AA0DF106015B699847BDF804300120FF
:102480002B60BDF806302360E9E700BF800600201E
:102490007FB501238DF817204FF47A72CDE9013210
:1024A0000DF1170200920A460146054804F0D8FFD4
:1024B00010B1034804F0BAFF07B05DF804FB00BF99
:1024C000280500207FB500230A464FF47A718DF865
:1024D00017300123CDE901310DF1170100910146BB
:1024E000054805F097F810B1034804F09FFF9DF8E8
:1024F000170007B05DF804FB28050020032823D847
:10250000DFE800F0020B131A104B102110481A6874
:10251000B2FA82F2520904F0F3BD0C4B40215A6822
:10252000B2FA82F252090B48F5E7084B80219A680B
:10253000B2FA82F25209F6E7044B40210648DA6803
:10254000B2FA82F25209E6E7704700BF8406002023
:10255000000402400008024000180240032823D86B
:10256000DFE800F0020B131A104B102110481A6814
:10257000003A18BF012204F0C3BD0C4B40215A6839
:10258000003A18BF01220B48F5E7084B80219A68F2
:10259000003A18BF0122F6E7044B40210648DA68EA
:1025A000003A18BF0122E6E7704700BF840600200A
:1025B00000040240000802400018024003280FD81F
:1025C000DFE800F00206090B1021064804F09DBD6B
:1025D00040210548FAE78021FBE740210348F5E761
:1025E000704700BF0004024000080240001802408B
:1025F00008B5032813D8DFE800F0020A0D0F1021F8
:10260000084804F077FD431E5842584108BD402158
:102610000548F6E78021FBE740210448F1E7002068
:10262000F1E700BF00040240000802400018024029
:1026300070B5084D00240126E0B2FFF7D9FF18B1AC
:102640002B68012B18BF2E6001340435052CF3D103
:1026500070BD00BF84060020012380F8781080F848
:10266000793070470020704741640039024B18BF31
:1026700001211970704700BFF77A012000207047D0
:10268000836B0BB10846184770474FF6FF707047D1
:10269000406803689B6918477047000038B50446D6
:1026A00001F05CF9084923682046084DD3F88C30C6
:1026B00098470023284684F84A30FFF77BFE012321
:1026C000256184F8703038BD000000C094060020F9
:1026D00001F0E6B801F0EAB870B501F069F9104907
:1026E0000023C1F88430BFF34F8FD1F8803043F618
:1026F000E074C3F3C900C3F34E335B0103EA04067D
:10270000024646EA8275013AC1F87452F9D2203B7A
:1027100013F1200FF2D1BFF34F8FBFF36F8F70BD56
:1027200000ED00E001F046B901F096B801F068BA9A
:1027300001F070BA01F09AB810B5044617F0BEFA6D
:1027400023682046D3F8AC30BDE81040184716F097
:1027500013BD10B504467C2130F0FBFC204610BDB3
:1027600090F834100D4B10B590F878401A788C42E0
:1027700009D03AB90A490B4A088814881080012206
:102780000C801A7010BD002AFCD0064A0449148837
:1027900008880C8010800022F3E700BFF07A012047
:1027A000EE7A0120EC7A012070B50D46194635B954
:1027B000094B40F2D221094A094831F011FCC0E925
:1027C0000F52003A074B18BF01221A700368BDE888
:1027D0007040D3F88C3018472C5503086455030813
:1027E000B2550308F67A012008B5094B1B888B42C5
:1027F00003D8084B1B88934205D9074B9E21074AF3
:10280000074831F0EDFB074B1980074B1A8008BDD4
:10281000EC7A0120EE7A0120F75503085A56030896
:10282000B2550308F27A0120F47A0120034690F8A9
:102830007A0018B1586803681B6818477047000091
:10284000014608B5034B186801B1012117F050FA91
:10285000012008BDF87A0120034B00225A609A60DB
:10286000024A1A60704700BF94060020F45403081F
:102870000121002208B5084606F0D8FD0A4B186071
:1028800028B90A4B28210A4A0A4831F0A9FB00223C
:102890000421012006F094FE074B186018B9074B7D
:1028A0002C21034AF0E708BDA4060020785703084E
:1028B000C1570308F0570308A00600203B5803083F
:1028C000024B4FF0FF31186806F008BEA406002046
:1028D000014B186806F03EBEA4060020024B002102
:1028E000186806F0FBBD00BFA4060020FFF7F0BF8C
:1028F0000023034803491A46006806F0A7BE00BF3C
:10290000A00600200800002013B50023074C01A9F1
:102910001A46206806F0DCFE4FF0FF33002201A9C2
:10292000206806F0D5FE02B010BD00BFA006002052
:1029300003685B6C18470120704703689B6A18475F
:10294000FEE700000E4B82B01A6B42F400021A63DD
:102950001A6B02F400020192019A1A6942F4000211
:102960001A611A6922F400021A61064B064A1A61BA
:10297000064A5A614FF08062054B9A6002B0704778
:10298000003802407C0500201D2C00084129000869
:1029900000E100E040F2EF3070470000054B4FF0DF
:1029A00080620360044BC3F88820BFF34F8FBFF3EE
:1029B0006F8F7047D859030800E100E010B5044656
:1029C0004FF45A61FFF7EAFF204630F0C2FB204681
:1029D00010BD000008B50A2809D8DFE800F006108D
:1029E0000E080808081010101000022008BD054B42
:1029F0009021054A054831F0F3FA0020F6E701205E
:102A0000F4E700BF7D58030898580308E35803080B
:102A100038B50C46887FFFF7DDFF174BA58AE28AA1
:102A2000586342EA054221695A64628BD963521B9A
:102A30001A642568082D0ED19A611A6158620F4AEE
:102A4000207F42EA0062DA61E2681A620C4A596148
:102A5000D9601A6038BD0022D8611A61E1680A0A9B
:102A60004809C1F3C40102F4784200F4FC60024357
:102A70000A439A63034AECE700B0024009000100F0
:102A8000012302000123030008B50B280BD8DFE85F
:102A900000F00612100A0A0A0A08080808080220AC
:102AA00008BD0520FCE7054B6F21054A054831F0BC
:102AB00097FA0020F4E70120F2E700BF7D580308F1
:102AC0002C590308E35803082DE9F04191F81D80C3
:102AD0000C464046FFF7D8FFA77F05463846FFF76C
:102AE000D3FF06463846FFF775FFA18A628B434B3A
:102AF000521A1A649A61228B521A1A61E28A586336
:102B000042EA014221695A646268D963DA60206846
:102B1000802828D0227F0FD8202866D0402864D073
:102B200004281AD045EA0265344BB84545F400350F
:102B3000DD6160D0324A44E0B0F5807F04D0B0F56A
:102B4000007FEFD12F4800E02F4840EA0262DA61AF
:102B5000E2681A625E62596132E045EA026242F45A
:102B60000032DA61F6E7A068021DDA62227F45EAE8
:102B7000026545F40035DD615E625961017841B15D
:102B8000012921D0214B4FF48D71214A214831F088
:102B900027FADA69418822F47F42013922F01002D3
:102BA00042EA01220121DA61144BDA6942F0200283
:102BB000DA61DA699206FCD410229A600029B9D051
:102BC000154A1A60BDE8F081B2F1FF01DA69408868
:102BD00022F47F4218BF0121013822F0100242EA9C
:102BE000002242F01002DA61DEE745EA0262034B9E
:102BF00042F40032B5E742F20132E2E700B00240AF
:102C000001230100090002000A00020076590308AE
:102C100090590308E358030801230200024B1B6884
:102C2000586803685B691847F87A012070B5044654
:102C30000A4B0C30002625466022606026726672C0
:102C400045F8203B294617F0A9F904F55A63EE60D0
:102C500024359D42FBD1204670BD00BFD8590308E2
:102C6000034B1A68D207FCD423229A60704700BF36
:102C700000B00240094B5A69D2030AD5BFF34F8F07
:102C800008440029A0EB010204DCBFF34F8FBFF31F
:102C90006F8F70472039C3F86822F2E700ED00E03B
:102CA00030B5104C2568ED07FCD423250904FF2B13
:102CB000A56041F001014FF0020565636164E063C6
:102CC0000AD00949656241EA0363E361074B226266
:102CD0006061E060236030BDE561039BA363044B4A
:102CE000F8E700BF00B00240090001000100020047
:102CF0000100030030B50F4C2568ED07FCD42325F7
:102D00001204FF2BA56042F001024FF0020565633B
:102D10006264E063E16008D01B0643F00213E361E4
:102D2000054B65626061236030BD044BE3610123A4
:102D3000F9E700BF00B0024001000200020002FFFC
:102D400030B50B4C2568ED07FCD4232512041B0677
:102D5000A56042F00102022543F40033656362641A
:102D6000E063E160E361034B65626061236030BD55
:102D700000B00240010002004069704790F8440032
:102D80007047036B23B9C06A003818BF0120704731
:102D90000120704780687047043010B50C460FC89A
:102DA00084E80F0010BD704708B5034A40F21221B5
:102DB000024B034831F014F9205A0308B97903088B
:102DC0007B5A030810B50446482130F0C2F920466A
:102DD00010BD00002DE9F0431C46436BADF51F7D8F
:102DE00005460E461746002B37D0002203A8DFF811
:102DF000A890CDE901320EF03DFD4FF4F472502160
:102E0000249024A808F0EBFC3A46314624A809F0A7
:102E10003FFC012124A808F0DDFD022324A88DF841
:102E2000D83008F078FEBDF898322B9ABDF89C6235
:102E30009342A89F28BF1346419A964203EB43084A
:102E4000A7EB430728BF1646479B9E4209D824A8F4
:102E500008F0E2FD24A808F00FFD0DF51F7DBDE888
:102E6000F083012201A924A808F09EFE6B6B03EBFE
:102E70000800984201D83C44E6E759789A78C9009E
:102E800009EA022201F4FC610A4313F8031B42EA37
:102E9000D10224F8022BECE700F8FFFF0A4A026097
:102EA0000022C0E90522C0E90722C0E90922C0E9E1
:102EB0000B22C0E90D12C0E90F2280F84420C0E9BE
:102EC0000322C0E901227047585D030810B40C4684
:102ED00011461A46036B3BB1036C806BE41A204425
:102EE0005DF8044B31F040BBC06AF8E7036B10B5E6
:102EF00073B1036C826BC91A5318525C98785C7872
:102F00000004DB7840EA0420104340EA036010BD6F
:102F1000C36A5858FBE7036B43B1036CC91A836B50
:102F20005A18585C527840EA02207047C36A585ACF
:102F30007047000070B50446006B0D461646D8B1C8
:102F4000E36B934208D209230D4A65210D4884F8AA
:102F500044300D4B31F044F80368DB689847206B30
:102F60003246A16B03681B69984710B90D2384F89A
:102F70004430A06B256470BDE06A0844FBE700BFE5
:102F8000E35A03087B5A0308D05A03082DE9F84393
:102F9000436904462BB9234BAA21234A234831F025
:102FA0001FF808228169FFF7C5FFA16943F23006C7
:102FB00046F2643704312046FFF798FFA3691844AE
:102FC000A36A00F108029A4206D30123002063613C
:102FD000236AA361BDE8F8836369093008220133DD
:102FE00020F0010120466361A161FFF7A3FFD4F83F
:102FF000189020464946FFF78EFF09F102018046EE
:103000002046FFF788FF09F1040105462046FFF737
:103010006DFFB045D2D1BD42D0D10028CED0012025
:10302000D8E700BF255B03086E5B03087B5A0308E3
:103030002DE9F04F0446ADF51F7D8A46164681699D
:1030400008229846FFF776FFA7692046391DFFF74B
:103050004DFF07F10801024605462046FFF76AFFCB
:10306000636B074633B93C4B40F2AB113B4A3C48DB
:1030700030F0B6FF002203A8CDE901320EF0FAFBD2
:103080004FF4F4725021249024A808F0A8FB2A469B
:10309000394624A809F0FCFA012124A808F09AFC7A
:1030A000022324A88DF8D83008F035FDBAF9025073
:1030B000479BAB4229D3BAF900904FEA4808BAF8C7
:1030C00004702B9B08FB05664F44BAF80250DFF8EA
:1030D00094B03FB29F4228BF1F46BAF8063009EBB2
:1030E000490A1D44419B2DB29D4228BF1D46479B66
:1030F000AB4210D324A808F08FFC24A808F0BCFB36
:1031000001200DF51F7DBDE8F08F012201A924A843
:1031100008F04AFDCCE7012201A924A808F044FDEB
:10312000626B49465244B94202F1030201D346445C
:10313000DDE712F8020C12F8013CC0000BEA032391
:1031400000F4FC60034312F8030C43EAD00326F8B2
:1031500011300131E7E700BFA15B0308F75B03080B
:103160007B5A030800F8FFFF0129036838BF0121DB
:10317000DB6A70B50D4604469847A84204D223681E
:103180002046DB6A984705466B1EE66910222046FA
:1031900006EB031606F10801FFF7CCFE06F110015D
:1031A0002046FFF7A3FE236A043B0344C4E905530A
:1031B00070BD0000002148222DE9F04104468161E4
:1031C00080F84410FFF7B6FEA6690423624A314630
:1031D0002046FFF77BFE40B10323604AF22184F8CA
:1031E00044305F4B5F4830F0FBFE06F108010423DA
:1031F0005D4A2046A161FFF769FE30B10423574ABA
:10320000FA2184F84430594BECE706F10C01042311
:10321000574A2046A161FFF759FE074638B10523FA
:103220004E4A40F2011184F84430524BDAE706F17D
:1032300010012046FFF75AFE054620B94E4B40F2DA
:103240000711464ACEE706F1140804234B4A2046EC
:103250004146FFF73BFE002849D0062384F844305E
:103260000423474A06F118012046FFF72FFE0028E5
:103270003FD0072384F844304544424F0C22204677
:103280002946FFF757FE05F1080604233A46204673
:103290003146FFF71BFE94F84430002848D0002B3D
:1032A00048D1A36AAB4249D805F10C030435204646
:1032B000A3612946FFF71AFE304429466062204682
:1032C000FFF714FE0644042220463146FFF732FE83
:1032D00004232D4A31462046FFF7F8FD002838D157
:1032E0000123E6616361A3692362BDE8F0810127E0
:1032F000B6E7002FC0D006F120012046FFF7F6FD0B
:103300004FF47A7306F13001B0FBF3F060602046B1
:10331000FFF7ECFD06F14001A0602046FFF7E6FD57
:1033200006F14401E0602046FFF7E0FD2061A3E7DD
:10333000002BB9D00A2384F84430D6E7291D204653
:10334000FFF7D4FD85190C2220462946FFF7F2FD30
:1033500099E70B23EFE700BF515C03086F5C03089C
:10336000565C03087B5A03089C5C0308A15C0308B5
:10337000B95C0308BE5C0308D45C0308E05C030886
:10338000E55C0308EA5C0308EF5C0308C0E90A2176
:1033900000220263FFF70EBF10B500230446084663
:1033A000E3620B6821639B689847A0622046BDE8F2
:1033B0001040FFF7FFBEF0B4069FBDF81050BDF8F7
:1033C000146032B12BB10495CDE90567F0BCFFF76D
:1033D00001BDF0BC704700002DE9F04F99464369EC
:1033E00085B004460F4690462BB9294B7721294AD0
:1033F000294830F0F5FD08228169FFF79BFDA66999
:1034000020463146FFF787FDB11C83462046FFF773
:1034100082FD311D82462046FFF768FD06F1080156
:10342000A36A054642189A4226D243F230039B45CE
:1034300017D146F264339A4513D190B10246A16187
:103440002046FFF777FD0E9B01462A462046CDF821
:103450000080CDE901933B46FFF7ADFF636901337F
:103460006361A3692B4405B908330133626A23F011
:1034700001039342A36109D1012301206361236AFF
:10348000A36180F0010005B0BDE8F08F0020F8E7EF
:10349000255B0308F45C03087B5A0308012070478E
:1034A0000C2070470C2303FB0100083070470C23ED
:1034B00003FB0100083070470120704742F264604E
:1034C000704742F2646303FB01000830704742F228
:1034D000646303FB0100083070470120704710202F
:1034E000704700EB01100830704700EB0110083006
:1034F0007047084600F03EBF034B10B5044603601A
:1035000015F0C2F9204610BD005E030810B5044650
:10351000FFF7F2FF142120462FF01BFE204610BDBE
:10352000034B10B50446036015F0AEF9204610BDFC
:10353000CC5D030810B50446FFF7F2FF42F26C6160
:1035400020462FF006FE204610BD0000034B10B5AC
:103550000446036015F098F9204610BD985D0308F5
:1035600010B50446FFF7F2FF182120462FF0F1FDB9
:10357000204610BD094B10B50446036000F51A50F3
:103580001830FFF7B9FF04F12C00FFF7C9FF04F171
:103590001400FFF7DBFF204610BD00BF345E0308B8
:1035A00008B50248FFF7E6FF08BD00BF7815002008
:1035B00010B50446FFF7DEFF42F60C0120462FF05F
:1035C000C8FD204610BD00002DE9F34100F048FD84
:1035D0000024054600F048FD2346014622462846C1
:1035E00000941FF09DFE274B274A2046274D1A6066
:1035F00002F0EAF8264B274A27489A601FF0F8FDA8
:103600002B68BFF35B8FDB0736D428462FF0A3FD72
:1036100090B3224C224F234B04F1140007F11806FB
:1036200004F12C0823606060C4F80880E76026611C
:1036300015F02CF91C4B4046636115F027F91B4B24
:103640003846E36215F022F904F50053184A03F2F4
:10365000AC60C3F8982602F047F9224607F114013E
:10366000304602F037F9304600F084FE114830F061
:10367000D5FC28462FF07BFD0F4802B0BDE8F04195
:10368000FFF70CB85C7B0120240700207415002094
:1036900044070020280700200C0000207815002097
:1036A000103C0020345E0308985D0308CC5D0308DD
:1036B000005E0308A1350008A8060020704700003E
:1036C000014815F0C2BD00BFA806002070B5244E09
:1036D000244B254C3046254D2360FFF7A7FA28469A
:1036E00024F030FF22481DF0F9F8224B00224FF45D
:1036F000807121481A8683F858205A6683F8702012
:103700005A67DC60C3E912121C49C3E91A121C494A
:1037100099671C490B604FF4F07101801A480180D1
:103720004FF488711948C3E90422C3E90622C3E9AA
:103730000822C3E90A22C3E90E22C3E91022C3E921
:103740001422C3E91722C3E901650180104883F8F8
:10375000342001800F490A700F4A1A6070BD00BF03
:10376000D00700201C5503087015002044070020D6
:1037700028070020A8060020EC7A012001000001A3
:1037800000000101F87A0120F27A0120EE7A01208E
:10379000F47A0120F07A0120A85603080148FFF7C7
:1037A000FDB800BFD007002000207047818070471F
:1037B000C1807047018170474181704770477047F1
:1037C00070477047704710B4C4880368121B848820
:1037D0005B6D091B12B25DF8044B09B218474FF636
:1037E000FF7383814FF0FF3303621368C36110607E
:1037F0007047002070478B88838001207047704796
:1038000080F82610704790F826007047002210B507
:10381000B1F90840B1F90A10028042808480C18069
:1038200010BD0022028042808280C28070470177F2
:10383000704780ED080A704780F82410704780F8C0
:103840002510704701207047983070478C307047C2
:103850008430704770470000034B902283F85A234E
:1038600083F85823704700BF00E100E0094A0A4985
:10387000D3680A48C3F30A03013B9BB20B8011696A
:10388000C1F30A01013901801364536B43F0010352
:103890005363704700680140863D0020843D00204E
:1038A000014BD3F8AC00704700680140024B012285
:1038B000C3F8AC105A62704700680140124A53695D
:1038C000DB0370B51ED50023C2F88430BFF34F8FE1
:1038D000D2F8803043F6E074C3F3C900C3F34E332B
:1038E0005B0103EA0406014646EA81750139C2F824
:1038F0007452F9D2203B13F1200FF2D1BFF34F8F56
:10390000BFF36F8F70BD00BF00ED00E070477047E0
:1039100070473823002201FB0333C25490F838303B
:103920000BB9036C83647047704780F84C10704784
:1039300010B5044658212FF00CFC204610BD10B5E0
:1039400004462C212FF005FC204610BD10B504467E
:10395000BC212FF0FEFB204610BD000038B5044608
:1039600015F05FFC23685D6E1BF040FE01462046AB
:10397000A8472368084A2046D3F888500023A2F5B8
:103980007F31A847054B064A5A60064A1A649A6472
:103990004FF4FF225A6438BD00F807C0483E0020AB
:1039A000A03E002000F40BC015F022BC15F02CBC8A
:1039B00015F0E8BB15F057BD90F8252012B103684B
:1039C0005B6918477047000008B531B1044B40F2FD
:1039D0009711044A044830F003FB90F8390008BD01
:1039E000405E0308545E0308E15F030810B531B17F
:1039F000064B40F29111064A064830F0F1FA406851
:103A000011460368BDE810401B6B1847405E030871
:103A100023600308E15F030808B529B1034B7A214D
:103A2000034A044830F0DCFA006908BD405E030830
:103A3000D4610308E15F030808B529B1054B832170
:103A4000054A064830F0CCFA41618160C0E906328F
:103A500008BD00BF405E03088C630308E15F0308F4
:103A600010B5044629B1274BA421274A274830F036
:103A7000B7FA052A34D8DFE802F003292F34393E9B
:103A8000406803681B69984750B34FF0FF31606D81
:103A900005F070FC0023012294F83E1084F83B30BE
:103AA00084F83920A360636101B1226284F83E305A
:103AB0006362E36A2BB90123206D84F83A3005F084
:103AC00049FD606DBDE8104005F084BC002380F81E
:103AD000393084F83E3003E00362002383604361A1
:103AE00010BD0362002383604361F2E7002380F886
:103AF00039300123EDE7003B18BF012380F83D304A
:103B0000EEE700BF405E03084B650308E15F030872
:103B100090F825201AB190F8242002B1186070475F
:103B200070B50446164629B1314BE721314A324877
:103B300030F056FA90F8393033B1304B1B6893F8B7
:103B40006B20436913444361E36A002B4DD0E16964
:103B5000D4E905325343A2684A43934220D2236AF0
:103B6000002B42D04FF0FF31606D05F003FC236A5B
:103B70000BB10023E362E36AFBB90125606D05F038
:103B800029FC94F839300BB9236A3BB1E36A2BB9AD
:103B90000123206D84F83A3005F0DCFC284670BD26
:103BA00094F84C000028DDD09B1AB3FBF1F2994247
:103BB00098BF02F1FF326262D4E7002294F83C50D1
:103BC000A3623046E262E2682261A2680132A2602A
:103BD000336333685B699847002DCED194F83D304C
:103BE000002BCBD184F83950C8E70125C9E700BFC5
:103BF000405E030822670308E15F0308F87A0120AA
:103C0000034B4FF080629A604FF080729A60704769
:103C100000E100E0084B4FF08062C3F88820BFF35A
:103C20004F8FBFF36F8F4FF08072C3F88820BFF3C0
:103C30004F8FBFF36F8F704700E100E038B5034648
:103C400090F8380038BB01229860D8609A634FF42E
:103C5000807258619A874FF4F0729861D861186247
:103C600058629862D8621863586383F83E00CA8627
:103C70004FF4887281F834000A8708639A6C1861DF
:103C800002F5FF24D3E9101529448C420AD9084BC8
:103C90005821084A03E0084B40F2F511074A08484A
:103CA00030F09EF91A6302F57F329C645A6338BD86
:103CB000806A0308C06A0308C6680308F668030838
:103CC000E15F0308002370B5124E05468380124B56
:103CD0000360336893F858200AB1D86C00B998682B
:103CE0000368DB6A98473368B0FA80F4D86C6409DB
:103CF00030B10368DB6A9847002808BF44F001042C
:103D00002CB9064B2C21064A064830F069F92846A2
:103D100070BD00BFF87A0120686D0308666C030867
:103D2000C46C0308FD6C030870B5244E3568BFF3FE
:103D30005B8F15F001053FD130462FF00CFA0028BB
:103D40003AD01F4C1F4B04F134002561E584A56275
:103D5000A585C4E90035C4E902551DF01EF804F13B
:103D6000580018F043FA184B2046A365174B40F84B
:103D7000843BFFF7A7FF164B1648C4F88430243362
:103D8000C4F89050C4F88C306423C4F89C50C4F834
:103D9000A850C4E928350023C4F8AC30C4F8B030CA
:103DA000C4F8B430C4F8B8300B4BC4F8983030F0D5
:103DB00035F930462FF0DBF9014870BD883D002011
:103DC0008C3D0020189F0308886D0308006E0308CF
:103DD000CC9E030855380008AC9E030810B5144C5F
:103DE000236823B3134B144A1B6C11888B4213D1E5
:103DF000124B198803F0B6FE226892F86A3001333C
:103E000082F86A30FEF774FD206815F057FF002035
:103E1000BDE81040FEF772BB03F0A4FE2068036803
:103E20001B6A98470020BDE81040FEF797BB10BD05
:103E3000F87A012000680140863D0020843D002082
:103E40002DE9F74304464FF4707894F83A304FF078
:103E5000FF31002B31D0606D05F08CFA276BA36A1F
:103E6000BB4200D1676B266A656856B32B68314642
:103E700028465B6A98470023236284F83B30606DD4
:103E800005F0A8FA2B684FF4F0723946CDF800809F
:103E900028465E694FF48873B0474FF0FF310646FD
:103EA000606D05F067FA94F83B30E3B1002384F8C5
:103EB0003B30606D05F08EFAC7E7206D05F00EFB14
:103EC000C3E7636A002BDAD02B682846D3E909934D
:103ED0009847616A01442846C847A368626A6662D7
:103EE0001344A360CBE7E7625EB12B6828469B6A68
:103EF000984701380023E06084F83C6084F83A3049
:103F0000D7E70120F6E70000014808B5FFF798FF62
:103F1000483E00200368042270B504465E6A002310
:103F20000D46B0474FF0FF31606D05F023FA38239E
:103F300003FB0542D16A09B10021D16203FB0545AB
:103F4000012385F83B30002385F83930606DBDE8EA
:103F5000704005F03FBA38B500EB810304460D46CA
:103F6000114658680368DB68984729462046FFF7E2
:103F7000D1FF38BD70B50D461146044600EB8502F1
:103F80005068026896681A46B04729462046FFF7EF
:103F9000C1FF70BD38B5164900251648FEF77EFFF3
:103FA000154C164B01202A46294623604FF4807396
:103FB000A564A38784F84C0084F83E50C4E91055EA
:103FC000C4E91455C4E90155C4E90355C4E90555CC
:103FD000C4E90755C4E90955C4E90B55C4E90D55B1
:103FE00005F024FA2065284605F082F9606538BDA1
:103FF000E83E0020A03E0020483E00204C6E030812
:10400000704708B5062921D8DFE801F004080C1034
:1040100014181C0001F024FC006808BD01F020FC0D
:104020004068FAE701F01CFC8068F6E701F018FC34
:10403000C068F2E701F014FC0069EEE701F010FC43
:104040004069EAE701F00CFC8069E6E70020E4E75C
:1040500010B5044604212FF07CF8204610BD000066
:1040600000487047986E03080420704713B5002479
:1040700051B1036801AA01948DF803409C680DF1C9
:104080000303A04702B010BD0846FBE7C089704794
:10409000008A7047C088704780887047807A00F037
:1040A0007F007047807AC009704700207047000089
:1040B0009FED010A704700BF00000000704710B577
:1040C000044608212FF045F8204610BD7047704780
:1040D00000F598730868496803C3704770477047D4
:1040E0004160704770470000064BC0F84801C0F8B7
:1040F0004C310023C0F8503100F5A273C0F84031B4
:10410000704700BFA9410008012303727047704740
:10411000704710B441680346C2689B68541001EBB5
:104120006200D20748BF0A595DF8044B48BFD35814
:1041300018470346406830B19A681AB9D86800F049
:10414000010070470120704710B504460C212FF084
:1041500000F8204610BD10B5044610212EF0F9FFDE
:10416000204610BD10B504464FF4AE712EF0F1FF9D
:10417000204610BD10B51BF039FA0368BDE81040A9
:10418000DB6B184710B50446D0F8400158B10368FE
:10419000DB68984738B1D4F8400103689B689847BA
:1041A0000023C4F8403110BD2DE9F14FD0E9556A24
:1041B0000746B06803681B6A984742F263639842F7
:1041C00005D8444BA321444A44482FF009FF7068A6
:1041D00003681B6A98470F2803D8414BA4213E4A25
:1041E000F2E7F06803681B6A98470B2803D83D4B39
:1041F000A521394AE8E7DFF8F4901BF0F7F904301D
:104200001BF032FAD9F8000010B10368DB68984758
:10421000D9F8000010B103681B689847DFF8D08018
:10422000D8F8000010B103685B699847D7F83C01E3
:1042300010B103685B689847D8F8000010B10368B4
:104240001B689847D7F83C0110B103689B689847F2
:10425000F06800214FF0000B03685B6A9847224B1F
:104260000446C0F804B080F808B059460360B0684E
:1042700003685B6A9847054601F092FB70685946EF
:1042800003685B6A98470646294601F067FB331DC1
:10429000C7F83C612846C9F80040C8F80050CAF881
:1042A00000302B68C6F808A0DB68EE6398473368D7
:1042B00030461B689847214628461DF07FFA236840
:1042C00020461B699847236820465B6901B0BDE81A
:1042D000F04F1847F86E0308866F030858700308FC
:1042E0009F700308427103085C720308407B012041
:1042F0003C7B0120044B1B6893F858200AB1D86C12
:1043000000B99868704700BFF87A0120F8B51746E1
:1043100004460E461BF07AFA124B00251C60294613
:10432000114B2360114BC4E95135114B1868C4E996
:1043300053550368C4E94F559B68C4E955769847BF
:10434000284601F041FAFFF7D5FF25F04EFFFFF7B1
:10435000D1FF25F0C5FFFFF7CDFF25F0CDFF2046AB
:10436000F8BD00BF4C7B012008720308F071030800
:10437000F87A0120064BC0F84801C0F84C31002300
:10438000C0F8503100F5A273C0F84031704700BF4B
:10439000A9410008406A7047806A704770478B885F
:1043A000C069DB0A0A6850F823001044704710B552
:1043B0000446BAB1107B68B1537BD27A1B0203F476
:1043C000E0631A43236A03EB82031A888A4202D10C
:1043D00093F9020010BD05D80138043380B20028DB
:1043E000F3D1F7E70020F5E710B504462C212EF0B5
:1043F000B0FE204610BD000030B58BB00446BDF8BD
:1044000060500895BDF85C5007959DF85050069592
:104410009DF84C5005959DF8485004959DF84450E2
:1044200003959DF8405002959DF83C500195BDF8CC
:10443000385000951CF06EFD064B20462360159BFE
:10444000E361169B2362199B63621A9BA3620BB004
:1044500030BD00BF807203087047704770477047D7
:10446000704730B585B00368044601816D4601464A
:10447000D3F884303C342846984795E8070084E810
:10448000070005B030BD30B585B0036804464181F2
:104490006D460146D3F884303C342846984795E869
:1044A000070084E8070005B030BD0022028042808A
:1044B0008280C280704780F836107047036870B5FC
:1044C00004461B6B154698472368204629465B6EB9
:1044D000BDE87040184700207047806C70477047F7
:1044E000704710B504464C212EF033FE204610BD17
:1044F000034B10B50446036019F064FB204610BD61
:1045000030750308064B10B50446036019F05AFBDA
:1045100042F2646120462EF01CFE204610BD00BF12
:104520003075030808B5FFF747FA08BD036870B592
:104530005E6B0446114B8DB21B682BB9104B6C217E
:10454000104A11482FF04CFD1049828D0988914284
:1045500003D80F4B6D210B4AF3E713F812200D4BD4
:104560001B6853F8220003681B6B9847291A3346CF
:10457000204609B2BDE87040184700BF507B0120BB
:10458000E0720308227303085D730308547B012063
:10459000A4730308587B0120036870B504461B6BA5
:1045A000154698472368204629465B6BBDE8704056
:1045B000184770B504461D46BDF91060FFF7ECFFC3
:1045C0002368294620469B6B98472368314620463E
:1045D000DB6BBDE8704018470022C0E90122C0E94A
:1045E0000322C0E90522C0E907224FF480728284C9
:1045F000014A0260704700BF3874030838B50446AA
:104600000D46262200212FF0A7FF2046FFF7E4FFEA
:10461000064B2046294623602B88E384FF2384F839
:10462000283018F0CAFB204638BD00BFECA20308B2
:1046300000224FF0FF318260C0E90021704710B5C1
:104640000446FFF7F5FF204610BD000010B50446F4
:10465000002126222FF080FF2046FFF7BDFF094BE7
:104660004FF47F0204F13C002360074BA3624FF636
:10467000FF73A3850023C4E90C322387FFF7D8FF1B
:10468000204610BD0CA10308F06E030810B50446C7
:10469000FFF7DCFF024B204623600023A36410BD1C
:1046A000A07403082DE9F04F0446A7B000271CF0C2
:1046B000D9FEA046A54B26223946E76304F16C06D5
:1046C00048F8403B40462FF047FF4046FFF784FF45
:1046D0009F4B04F5037930462364FF23A7664FF60A
:1046E000FF7584F866304FF4887A18F0B5F94846BB
:1046F000FFF7CCFF04F5167304F6B81B18460393B6
:10470000FFF7C4FF04F5297318460493FFF7BEFFB3
:1047100004F53C7318461093FFF798FF04F54E73A9
:1047200018460593FFF7B2FF04F561731846069328
:10473000FFF7ACFF04F5747318461193FFF7A6FF5B
:1047400004F21C4318461293FFF7A0FF04F58D6393
:1047500018461393FFF79AFF04F2B44318461493D4
:10476000FFF794FF04F5A06318461593FFF78EFF3B
:1047700004F24C5318461693FFF788FF04F5B36311
:1047800018461793FFF782FF04F2E4531846079385
:10479000FFF75CFF04F22C6318460893FFF756FFFF
:1047A00004F2746318460993FFF750FF04F2BC63E8
:1047B00018460A93FFF74AFF04F2047318460B9356
:1047C000FFF744FF04F24C7318460C93FFF73EFFCB
:1047D00004F2947318461893FFF758FF04F5FC632E
:1047E00018461993FFF752FF04F62C0318460D9351
:1047F000FFF72CFF04F6740318460E93FFF726FF0D
:1048000004F6BC0318460F93FFF720FF04F60413C9
:1048100023A9ADF88C5018461A93FFF7EFFE04F564
:10482000136323A9ADF88C5018461B93FFF7E6FEDF
:1048300004F65C13251D18461C9316F073FF04F64E
:10484000A41318461D93FFF73DFA424B4FF4E15174
:1048500004F64420C4F8A4392433C4F8B079C4F869
:10486000AC3919F0A5F93A4640464FF4F073394691
:10487000CDF800A0FFF79DFE4FF07F43414628464C
:10488000A3664FF0FF3814F0E3F9304623A9ADF8E2
:104890008C7014F06FF94FF4F07330463A46394695
:1048A000CDF800A0FFF785FE30468822F02118F0F1
:1048B0007EF9304664226FF0B30118F0FDF93B46F3
:1048C00042F2283230463946009714F000F830465C
:1048D0003946DFF898A018F099F986230822304667
:1048E000022118F04FF93046012118F0EDF830465A
:1048F000012118F0ECF8314628461EAE14F0A8F954
:10490000B022FD214846FFF747FED4F80C32494655
:104910003046D3F88430C4F83C82A4F840729847FB
:1049200004F5127396E8070083E80700DAF8003010
:104930002BB9094B6021094A09482FF051FB094B5B
:104940001B88ABB9084B6121044AF5E730750308B1
:104950009CA10308CC9E0308E0720308E2730308DD
:104960005D730308547B0120A4730308507B01206E
:10497000D24B3946186800F063FFD14A034605213F
:1049800058461EF02DFA4846C4F854B217F0A6FF58
:10499000DFF834B32523484623A9CDF88CB0ADF811
:1049A000903017F0BBFF4946284614F051F9B02269
:1049B0004FF48F710398FFF7EFFDD4F85832039945
:1049C0003046D3F8843004F6C219C4F88882A4F8BB
:1049D0008C72984704F5257396E8070083E8070072
:1049E000DAF80030002BA4D0B64A1388012BA9D9DD
:1049F000B24B0121186800F023FFB14A034605219C
:104A000048461EF0EDF90398C4F8A09204F6CC19BC
:104A100017F064FF242323A90398ADF89030CDF854
:104A20008CB017F07BFF0399284614F011F9DF22B0
:104A3000FC210498FFF7B0FDD4F8A4320499304665
:104A4000D3F88430C4F8D482A4F8D872984704F517
:104A5000387396E8070083E80700DAF80030002B87
:104A60003FF467AF974A1388022B7FF66BAF934BE7
:104A70000221186800F0E4FE914A034605214846E9
:104A80001EF0AEF90498C4F8EC9204F6D61917F0AB
:104A900025FF232323A90498ADF89030CDF88CB0DE
:104AA00017F03CFF0499284614F0D2F8E02240F2B7
:104AB0002D111098FFF770FD10993046C4F820832F
:104AC000A4F8247317F090FC04F54B7396E80700E4
:104AD00083E80700222323A91098ADF89030CDF881
:104AE0008CB017F01BFF1099284614F0B1F808227B
:104AF00018210598FFF750FDD4F838330599304652
:104B0000D3F88430C4F86883A4F86C73984704F52C
:104B10005D7396E8070083E80700DAF80030002BA1
:104B20003FF407AF674A1388072B7FF60BAF634B41
:104B30000721186800F084FE614A034605214846B3
:104B40001EF04EF90598C4F8809317F0C7FE212394
:104B500023A90598ADF89030CDF88CB017F0DEFEA3
:104B60000599284614F074F8862212210698FFF75A
:104B700013FDD4F8843330460699D3F88430C4F852
:104B8000B483A4F8B873984704F5707396E80700E7
:104B900083E80700DAF8003004F51E66002B3FF4C6
:104BA000C8AE484A1388052B7FF6CCAE434B05218F
:104BB0004FF0FF3A4FF00009186800F041FE404AFC
:104BC000034605213046DFF804811EF009F90698F6
:104BD000C4F8CC6323AE17F081FE19233146069842
:104BE000ADF89030CDF88CB017F098FE06992846B5
:104BF00014F02EF8472213211198FFF7CDFC304610
:104C0000C4F800A404F6EA1BA4F80494FFF710FD0E
:104C100004F20C4396E8070083E80700D8F8003058
:104C2000002B3FF486AE274F3B88062B7FF68AAEDB
:104C3000224B0621186800F003FE214A0346052195
:104C400058461EF0CDF81198C4F818B404F6F41BB9
:104C500017F044FE1C491E23119823913146ADF8EC
:104C6000903017F05BFE1199284613F0F1FFE52212
:104C700042211298FFF790FC3046C4F84CA4A4F8E7
:104C80005094FFF7D5FC04F58B6396E8070083E8A2
:104C90000700D8F80030002B3FF44BAE3B88032BC5
:104CA0007FF650AE054B0321186800F0C9FD044A99
:104CB0000346052158461EF093F809E05C7B01206D
:104CC000C8910308547B0120F06E0308507B01203B
:104CD0001298C4F864B404F6FE1B17F0FFFDD74920
:104CE0001123129823913146ADF8903017F016FE3B
:104CF0001299284613F0ACFFC72242211398FFF700
:104D00004BFC3046C4F898A4A4F89C94FFF790FCA0
:104D100004F2A44396E8070083E80700D8F80030BF
:104D2000002B3FF406AE3B88042B7FF60BAEC44B42
:104D30000421186800F084FDC24A03460521584644
:104D40001EF04EF81398C4F8B0B417F0C7FDBB4975
:104D50001023139823913146ADF8903017F0DEFD03
:104D60001399284613F074FF082240F2A3111498F7
:104D7000FFF712FCC4F8E4A43046A4F8E894FFF767
:104D800057FC04F59E6304F6082A96E8070083E8BA
:104D90000700D8F80030002B3FF4CBAD3B880D2B3B
:104DA0007FF6D0ADA64B0D21186800F049FDA54A4D
:104DB0000346052150461EF013F81498C4F8FCA4CD
:104DC00017F08CFD9D491823149823913146ADF8B6
:104DD000903017F0A3FD1499284613F039FF86226E
:104DE0004FF4CC711598FFF7D7FB6FF0FF033046F7
:104DF000A4F83495C4F83035FFF71AFC04F23C539C
:104E000096E8070083E80700D8F8003004F6122679
:104E1000002B3FF48EAD3B88092B7FF693AD884B7A
:104E2000092123AFDFF8149218684FF0000800F052
:104E300007FD844A034605213046DFF810B21DF015
:104E4000CFFF1598C4F8486504F61C2617F046FDF8
:104E50001C2339461598ADF89030CDF88C9017F09A
:104E60005DFD1599284613F0F3FE472240F2A31189
:104E70001698FFF791FB6FF0FF033846A4F8808582
:104E8000C4F87C35FFF7D4FB04F5B16397E807005D
:104E900083E80700DBF80030002B3FF44AAD6A4A94
:104EA00013880B2B7FF64EAD654B0B214FF0FF3A6D
:104EB000186800F0C5FC634A0346052130461DF022
:104EC0008FFF1698C4F8946504F6262617F006FDA1
:104ED000172339461698ADF89030CDF88C9017F01E
:104EE0001DFD1699284613F0B3FEC72240F2891122
:104EF0001798FFF751FB3846C4F8C8A5A4F8CC852D
:104F0000FFF796FB04F2D45397E8070083E8070005
:104F1000DBF80030002B3FF40CAD4B4A1388082B14
:104F20007FF610AD464B0821186800F089FC454A11
:104F30000346052130461DF053FF1798C4F8E0657D
:104F40001EAE17F0CBFC1B2339461798ADF89030F6
:104F5000CDF88C9017F0E2FC1799284613F078FEF4
:104F6000372209210798FFF717FB07993046C4F845
:104F700014A6A4F8188617F037FA079901F13C0334
:104F800096E8070083E80700202339460798ADF824
:104F90009030CDF88C9017F0C1FC0799284613F09B
:104FA00057FEB32209210898FFF7F6FA0899304610
:104FB000C4F85CA6A4F8608617F016FA089901F107
:104FC0003C0396E8070083E8070016233946089853
:104FD000ADF89030CDF88C9017F0A0FC08992846D9
:104FE00013F036FEF72209210998FFF7D5FA09993F
:104FF0003046C4F8A4A6A4F8A88617F0F5F90999D4
:1050000001F13C0396E8070083E8070013233946C3
:105010000998ADF89030CDF88C9017F07FFC099985
:10502000284613F015FEDB2209210A98FFF7B4FA8F
:105030000A993046C4F8ECA60AE000BFF06E0308F7
:105040005C7B0120C8910308547B0120507B012028
:10505000A4F8F08617F0C8F90A9901F13C0396E824
:10506000070083E80700122339460A98ADF890300C
:10507000CDF88C9017F052FC0A99284613F0E8FD01
:10508000752209210B98FFF787FA0B993046C4F86F
:1050900034A7A4F8388717F0A7F90B9901F13C035E
:1050A00096E8070083E807001F2339460B98ADF800
:1050B0009030CDF88C9017F031FC0B99284613F006
:1050C000C7FD37224FF4B9710C98FFF765FA0C99B8
:1050D0003046C4F87CA7A4F8808717F085F90C99AE
:1050E00001F13C0396E8070083E8070015233946E1
:1050F0000C98ADF89030CDF88C9017F00FFC0C990F
:10510000284613F0A5FD232240F28B111898FFF7D3
:1051100043FA3846C4F8C4A7A4F8C887FFF788FA4A
:1051200004F5FA6397E8070083E8070004F52361B4
:10513000DBF800300391002B3FF4FBAB8D4A138862
:105140000C2B7FF6FFAB8C4B0C21186800F078FB22
:105150008A4A0346052103981DF042FE03991898D8
:10516000C4F8DC1717F0BAFB0F2339461898ADF8CE
:105170009030CDF88C9017F0D1FB1899284613F099
:1051800067FD622240F28B111998FFF705FA384645
:10519000C4F810A8A4F81488FFF74AFA04F61C0310
:1051A00097E8070083E8070004F63A21DBF80030AF
:1051B0000391002B3FF4BDAB6E4A13880A2B7FF698
:1051C000C1AB6D4B0A21186800F03AFB6B4A0346ED
:1051D000052103981DF004FE039B1998C4F8283894
:1051E00017F07CFB0E2339461998ADF89030CDF8B6
:1051F0008C9017F093FB1999284613F029FDB322E0
:105200000D9840F27711FFF7C7F90D993046C4F8B1
:105210005CA8A4F8608817F0E7F80D9B96E80700F3
:105220003C33CDF88C9083E807001D2339460D9858
:10523000ADF8903017F072FB0D99284613F008FD79
:1052400075220E9840F28111FFF7A6F90E993046AB
:10525000C4F8A4A8A4F8A88817F0C6F80E9B96E88E
:1052600007003C33CDF88C9083E8070014233946BF
:105270000E98ADF8903017F051FB0E99284613F0B8
:10528000E7FCF5220F984FF4B771FFF785F90F99F6
:105290003046C4F8ECA8A4F8F08817F0A5F80F9BE6
:1052A00096E807003C33CDF88C9083E807001A237A
:1052B00039460F98ADF8903017F030FB0F9928461B
:1052C00013F0C6FC3C221A98D821FFF765F9032396
:1052D00039461A98ADF88C3017F06FFD1A992846A8
:1052E00013F0B6FC6C221B984FF48671FFF754F94B
:1052F000012339461B98ADF88C3017F05EFD1B99E1
:10530000284613F0A5FC4FF48873424641461C988A
:1053100000934FF4F073FFF74CF94FF4F053284625
:105320001C99C4F888394FF48853C4F89C89C4F890
:105330008C394FF40C53C4F89489C4F890394FF465
:10534000345384F88189C4F898394FF0FF23C4F8A6
:10535000B0394FF4FC63A4F8B4391D9BC4F8843908
:10536000842384F8823913F073FC204627B0BDE80B
:10537000F08F00BF547B01205C7B0120C8910308A3
:105380007047000030B5164D8FB02C68BFF35B8FAF
:1053900014F0010421D128462DF0DDFEE8B13F23B1
:1053A000012210490993104B10480893104B0A949E
:1053B0000594CDE906430423CDE9033212230D22DF
:1053C0000093CDE90B44CDE90144FFF715F80948F6
:1053D0002EF024FE28462DF0CAFE04480FB030BD42
:1053E000684600209C840890A0AD03086C4600200D
:1053F000BCAD0308815300087047000030B5164D5E
:105400008FB02C68BFF35B8F14F0010421D12846C4
:105410002DF0A1FEE8B13F23012210490993104B62
:1054200010480893104B0A940594CDE906430423D1
:10543000CDE903321E230B220093CDE90B44CDE9C5
:105440000144FEF7D9FF09482EF0E8FD28462DF06B
:105450008EFE04480FB030BD984600205485089059
:10546000A4AD03089C460020C0AD0308F953000812
:105470007047000030B5164D8FB02C68BFF35B8FBE
:1054800014F0010421D128462DF065FEE8B13F2338
:10549000012210490993104B10480893104B0A94AD
:1054A0000594CDE906430423CDE9033224230B22DE
:1054B0000093CDE90B44CDE90144FEF79DFF094877
:1054C0002EF0ACFD28462DF052FE04480FB030BD42
:1054D000C8460020F0850890A8AD0308CC460020FF
:1054E000C4AD0308715400087047000030B5164D74
:1054F0008FB02C68BFF35B8F14F0010421D12846D4
:105500002DF029FEE8B13F230D2210490993104BDD
:1055100010480893104B0A940793012301940493B5
:10552000CDE905430423CDE902432623CDE90B440D
:105530000093FEF761FF09482EF070FD28462DF01C
:1055400016FE04480FB030BDF84600208C86089047
:10555000ACAD0308FC460020C8AD0308E9540008C0
:105560007047000030B5174D8FB02C68BFF35B8FCC
:1055700014F0010422D128462DF0EDFDF0B13F23B7
:10558000012211490993114B11480893114B0A94B8
:105590000594CDE906430423CDE903322C230D22E3
:1055A00000932D23CDE90B44CDE90144FEF724FF00
:1055B00009482EF033FD28462DF0D9FD04480FB0E0
:1055C00030BD00BF2847002044870890B0AD0308D5
:1055D0002C470020CCAD030861550008704700003F
:1055E00030B5174D8FB02C68BFF35B8F14F00104FA
:1055F00022D128462DF0AFFDF0B1124B0122124905
:1056000012480A940594CDE90B433F230993104BAC
:105610000893104BCDE906430423CDE903320A2356
:1056200009220093CDE90144FEF7E6FE0A482EF078
:10563000F5FC28462DF09BFD04480FB030BD00BF9F
:10564000584700205C750308FC8708905C470020E1
:10565000B4AD0308D0AD0308DD5500087047000065
:1056600030B5174D8FB02C68BFF35B8F14F0010479
:1056700023D128462DF06FFDF8B1124B1A221249A2
:1056800012480A940194CDE90B433F230993104B30
:105690000893104B07930123CDE90543049304239A
:1056A000CDE902430C2300930E23FEF7A5FE0A4822
:1056B0002EF0B4FC28462DF05AFD04480FB030BD42
:1056C000884700205C7503087C8808908C47002080
:1056D000B8AD0308D4AD03085D560008002070473C
:1056E000002070470EB403B503AB002153F8042B20
:1056F00001931AF013FF02B05DF804EB03B070479A
:105700000CB407B504AB53F8042B01931AF006FF51
:1057100003B05DF804EB02B070470000436C10B5B5
:10572000044673B3038F2BB9184BC521184A194887
:105730002EF056FCC38E00EB43035B8C0BB31CF0C6
:105740009BFD238F012B03D8134BCB21134AEEE78C
:10575000E28E40F63F10531C9BB2092B194688BFBE
:10576000A3F10A0104EB4101498C814209D10A2BC2
:1057700004EB420228BF0023508C04EB43035884FF
:1057800051842046BDE810401CF078BCB279030873
:10579000BB790308667A0308B07A0308BE7A030867
:1057A0001CF035BC10B586B002AC84E806001A4681
:1057B0000AAB214605930193099B0093089B19F0BE
:1057C00097FA06B010BD000038B518BB124B13484D
:1057D0001C681349B4B12268224402606268224402
:1057E0000A60A26814440F4B00221A8000F038F8B7
:1057F000054600F033F80C4B1C600C4B1D600C4B45
:10580000188007E00B4B03600B4B0B600B4B1C68C5
:10581000002CE8D138BD00BFC4470020BC470020A1
:10582000B8470020C0470020507B0120587B012052
:10583000547B0120808A0890E8890890548B089056
:10584000044B1B6853F82100034B1B6803EB40001B
:10585000704700BFB8470020BC4700202620704793
:1058600000487047C847002010B50B4CFFF73EFEBC
:105870002060FFF7FFFD6060FFF774FEA060FFF798
:10588000EFFEE060FFF7ACFE2061FFF7B7FD60615F
:10589000FFF778FDA06110BDC847002010B50024B7
:1058A00004600C6014601C6010BD704710B50446A5
:1058B0004FF4AE712DF04DFC204610BD10B50446DE
:1058C000D0F8580100F01EF82046BDE8104019F04D
:1058D00029BF000010B50446FEF718FD014B204615
:1058E000236010BD987B03080022582110B50446A0
:1058F0000260012004F040FB014B1860204610BDFF
:10590000E4470020084B0022084910B504461868F7
:1059100004F06DFD012806D1206804490368BDE844
:1059200010409B68184710BDE4470020E84700205E
:10593000704704387047704710B5044610212DF0A9
:1059400008FC204610BDA0F10400F5E7C06800F097
:1059500047B8A0F10400FFF7F9BF00000022C160C2
:105960008260024A02601C3242607047EC7B03088E
:1059700070470000034B10B504460360FEF7B8FD06
:10598000204610BD287C030810B50446FFF7F2FF3F
:1059900042F2646120462DF0DCFB204610BD000081
:1059A00010B50446FEF77EFE014B2046236010BD75
:1059B000287C0308054B064A1A606FF0FF02054B6E
:1059C0001A604FF0FF32044B1A60704748480020BD
:1059D0000000FFFF4448002040480020FEF77FBD44
:1059E000F0B5C94E0D4609680446336899422DED5D
:1059F000028B83B014D000F16C07384617F006F91B
:105A000038461AF0B6FE2B68C04A052104F6C210CB
:105A10001DF0E6F904F516701AF0ABFE2B68336042
:105A20006B68726893420BD0B84A052104F6F410F3
:105A30001DF0D6F904F21C401AF09BFE6B687360EF
:105A4000AB68B268934213D0B04A052104F6122025
:105A50001DF0C6F92B7B002B00F0B081AC4B1B680E
:105A600004F5A060C4F830351AF083FEAB68B3606B
:105A70002B6A326A93420BD0A44A052104F6CC105B
:105A80001DF0AEF904F529701AF073FE2B6A33622B
:105A90006B6A726A93420BD09C4A052104F6FE1091
:105AA0001DF09EF904F58D601AF063FE6B6A736257
:105AB000AB69B26993420BD0944A052104F6EA100F
:105AC0001DF08EF904F574701AF053FEAB69B361E2
:105AD00095ED0A7AD6ED0A7A9FED8E8A77EE677A8F
